{
	"NFT-versions/secondary.sol": {
		"SecondaryMarket": {
			"abi": [
				{
					"inputs": [
						{
							"internalType": "address",
							"name": "_nftContractAddress",
							"type": "address"
						}
					],
					"stateMutability": "nonpayable",
					"type": "constructor"
				},
				{
					"anonymous": false,
					"inputs": [
						{
							"indexed": true,
							"internalType": "uint256",
							"name": "listingId",
							"type": "uint256"
						},
						{
							"indexed": true,
							"internalType": "address",
							"name": "bidder",
							"type": "address"
						},
						{
							"indexed": false,
							"internalType": "uint256",
							"name": "amount",
							"type": "uint256"
						}
					],
					"name": "BidPlaced",
					"type": "event"
				},
				{
					"anonymous": false,
					"inputs": [
						{
							"indexed": true,
							"internalType": "uint256",
							"name": "listingId",
							"type": "uint256"
						}
					],
					"name": "ListingCancelled",
					"type": "event"
				},
				{
					"anonymous": false,
					"inputs": [
						{
							"indexed": true,
							"internalType": "uint256",
							"name": "listingId",
							"type": "uint256"
						},
						{
							"indexed": false,
							"internalType": "bool",
							"name": "successful",
							"type": "bool"
						},
						{
							"indexed": false,
							"internalType": "address",
							"name": "winner",
							"type": "address"
						},
						{
							"indexed": false,
							"internalType": "uint256",
							"name": "amount",
							"type": "uint256"
						}
					],
					"name": "ListingCompleted",
					"type": "event"
				},
				{
					"anonymous": false,
					"inputs": [
						{
							"indexed": true,
							"internalType": "uint256",
							"name": "listingId",
							"type": "uint256"
						},
						{
							"indexed": true,
							"internalType": "uint256",
							"name": "tokenId",
							"type": "uint256"
						},
						{
							"indexed": true,
							"internalType": "address",
							"name": "seller",
							"type": "address"
						},
						{
							"indexed": false,
							"internalType": "uint256",
							"name": "minPrice",
							"type": "uint256"
						}
					],
					"name": "ListingCreated",
					"type": "event"
				},
				{
					"anonymous": false,
					"inputs": [
						{
							"indexed": true,
							"internalType": "address",
							"name": "bidder",
							"type": "address"
						},
						{
							"indexed": false,
							"internalType": "uint256",
							"name": "amount",
							"type": "uint256"
						}
					],
					"name": "RefundIssued",
					"type": "event"
				},
				{
					"inputs": [
						{
							"internalType": "uint256",
							"name": "_listingId",
							"type": "uint256"
						}
					],
					"name": "cancelListing",
					"outputs": [],
					"stateMutability": "nonpayable",
					"type": "function"
				},
				{
					"inputs": [
						{
							"internalType": "uint256",
							"name": "_tokenId",
							"type": "uint256"
						},
						{
							"internalType": "uint256",
							"name": "_minPrice",
							"type": "uint256"
						}
					],
					"name": "createListing",
					"outputs": [],
					"stateMutability": "nonpayable",
					"type": "function"
				},
				{
					"inputs": [
						{
							"internalType": "uint256",
							"name": "_listingId",
							"type": "uint256"
						}
					],
					"name": "executeListing",
					"outputs": [],
					"stateMutability": "nonpayable",
					"type": "function"
				},
				{
					"inputs": [
						{
							"internalType": "uint256",
							"name": "",
							"type": "uint256"
						},
						{
							"internalType": "uint256",
							"name": "",
							"type": "uint256"
						}
					],
					"name": "listingBids",
					"outputs": [
						{
							"internalType": "address",
							"name": "bidder",
							"type": "address"
						},
						{
							"internalType": "uint256",
							"name": "bidAmount",
							"type": "uint256"
						},
						{
							"internalType": "bool",
							"name": "isActive",
							"type": "bool"
						}
					],
					"stateMutability": "view",
					"type": "function"
				},
				{
					"inputs": [],
					"name": "listingCount",
					"outputs": [
						{
							"internalType": "uint256",
							"name": "",
							"type": "uint256"
						}
					],
					"stateMutability": "view",
					"type": "function"
				},
				{
					"inputs": [
						{
							"internalType": "uint256",
							"name": "",
							"type": "uint256"
						}
					],
					"name": "listings",
					"outputs": [
						{
							"internalType": "uint256",
							"name": "tokenId",
							"type": "uint256"
						},
						{
							"internalType": "address",
							"name": "seller",
							"type": "address"
						},
						{
							"internalType": "uint256",
							"name": "minPrice",
							"type": "uint256"
						},
						{
							"internalType": "bool",
							"name": "isActive",
							"type": "bool"
						},
						{
							"internalType": "bool",
							"name": "isCompleted",
							"type": "bool"
						}
					],
					"stateMutability": "view",
					"type": "function"
				},
				{
					"inputs": [],
					"name": "nftContract",
					"outputs": [
						{
							"internalType": "contract IERC721",
							"name": "",
							"type": "address"
						}
					],
					"stateMutability": "view",
					"type": "function"
				},
				{
					"inputs": [
						{
							"internalType": "uint256",
							"name": "_listingId",
							"type": "uint256"
						}
					],
					"name": "placeBid",
					"outputs": [],
					"stateMutability": "payable",
					"type": "function"
				}
			],
			"devdoc": {
				"kind": "dev",
				"methods": {},
				"version": 1
			},
			"evm": {
				"assembly": "    /* \"NFT-versions/secondary.sol\":238:6349  contract SecondaryMarket is ReentrancyGuard {... */\n  mstore(0x40, 0x80)\n    /* \"NFT-versions/secondary.sol\":1193:1293  constructor(address _nftContractAddress) {... */\n  callvalue\n  dup1\n  iszero\n  tag_1\n  jumpi\n  0x00\n  dup1\n  revert\ntag_1:\n  pop\n  mload(0x40)\n  sub(codesize, bytecodeSize)\n  dup1\n  bytecodeSize\n  dup4\n  codecopy\n  dup2\n  add\n  0x40\n  dup2\n  swap1\n  mstore\n  tag_2\n  swap2\n  tag_3\n  jump\t// in\ntag_2:\n    /* \"@openzeppelin/contracts/security/ReentrancyGuard.sol\":1716:1717  1 */\n  0x01\n    /* \"@openzeppelin/contracts/security/ReentrancyGuard.sol\":1821:1828  _status */\n  0x00\n    /* \"@openzeppelin/contracts/security/ReentrancyGuard.sol\":1821:1843  _status = _NOT_ENTERED */\n  dup2\n  swap1\n  sstore\n    /* \"NFT-versions/secondary.sol\":1244:1286  nftContract = IERC721(_nftContractAddress) */\n  dup1\n  sload\n  not(sub(shl(0xa0, 0x01), 0x01))\n  and\n  sub(shl(0xa0, 0x01), 0x01)\n  swap3\n  swap1\n  swap3\n  and\n  swap2\n  swap1\n  swap2\n  or\n  swap1\n  sstore\n    /* \"NFT-versions/secondary.sol\":238:6349  contract SecondaryMarket is ReentrancyGuard {... */\n  jump(tag_9)\n    /* \"#utility.yul\":14:304   */\ntag_3:\n    /* \"#utility.yul\":84:90   */\n  0x00\n    /* \"#utility.yul\":137:139   */\n  0x20\n    /* \"#utility.yul\":125:134   */\n  dup3\n    /* \"#utility.yul\":116:123   */\n  dup5\n    /* \"#utility.yul\":112:135   */\n  sub\n    /* \"#utility.yul\":108:140   */\n  slt\n    /* \"#utility.yul\":105:157   */\n  iszero\n  tag_11\n  jumpi\n    /* \"#utility.yul\":153:154   */\n  0x00\n    /* \"#utility.yul\":150:151   */\n  dup1\n    /* \"#utility.yul\":143:155   */\n  revert\n    /* \"#utility.yul\":105:157   */\ntag_11:\n    /* \"#utility.yul\":179:195   */\n  dup2\n  mload\n  sub(shl(0xa0, 0x01), 0x01)\n    /* \"#utility.yul\":224:255   */\n  dup2\n  and\n    /* \"#utility.yul\":214:256   */\n  dup2\n  eq\n    /* \"#utility.yul\":204:274   */\n  tag_12\n  jumpi\n    /* \"#utility.yul\":270:271   */\n  0x00\n    /* \"#utility.yul\":267:268   */\n  dup1\n    /* \"#utility.yul\":260:272   */\n  revert\n    /* \"#utility.yul\":204:274   */\ntag_12:\n    /* \"#utility.yul\":293:298   */\n  swap4\n    /* \"#utility.yul\":14:304   */\n  swap3\n  pop\n  pop\n  pop\n  jump\t// out\ntag_9:\n    /* \"NFT-versions/secondary.sol\":238:6349  contract SecondaryMarket is ReentrancyGuard {... */\n  dataSize(sub_0)\n  dup1\n  dataOffset(sub_0)\n  0x00\n  codecopy\n  0x00\n  return\nstop\n\nsub_0: assembly {\n        /* \"NFT-versions/secondary.sol\":238:6349  contract SecondaryMarket is ReentrancyGuard {... */\n      mstore(0x40, 0x80)\n      jumpi(tag_1, lt(calldatasize, 0x04))\n      shr(0xe0, calldataload(0x00))\n      dup1\n      0x305a67a8\n      eq\n      tag_2\n      jumpi\n      dup1\n      0x9979ef45\n      eq\n      tag_3\n      jumpi\n      dup1\n      0x9da0e1dd\n      eq\n      tag_4\n      jumpi\n      dup1\n      0xa137454a\n      eq\n      tag_5\n      jumpi\n      dup1\n      0xa79123a9\n      eq\n      tag_6\n      jumpi\n      dup1\n      0xa9b07c26\n      eq\n      tag_7\n      jumpi\n      dup1\n      0xd56d229d\n      eq\n      tag_8\n      jumpi\n      dup1\n      0xde74e57b\n      eq\n      tag_9\n      jumpi\n    tag_1:\n      0x00\n      dup1\n      revert\n        /* \"NFT-versions/secondary.sol\":4707:5245  function cancelListing(uint256 _listingId) external nonReentrant {... */\n    tag_2:\n      callvalue\n      dup1\n      iszero\n      tag_10\n      jumpi\n      0x00\n      dup1\n      revert\n    tag_10:\n      pop\n      tag_11\n      tag_12\n      calldatasize\n      0x04\n      tag_13\n      jump\t// in\n    tag_12:\n      tag_14\n      jump\t// in\n    tag_11:\n      stop\n        /* \"NFT-versions/secondary.sol\":2103:2752  function placeBid(uint256 _listingId) external payable nonReentrant {... */\n    tag_3:\n      tag_11\n      tag_16\n      calldatasize\n      0x04\n      tag_13\n      jump\t// in\n    tag_16:\n      tag_17\n      jump\t// in\n        /* \"NFT-versions/secondary.sol\":669:713  mapping(uint256 => Bid[]) public listingBids */\n    tag_4:\n      callvalue\n      dup1\n      iszero\n      tag_18\n      jumpi\n      0x00\n      dup1\n      revert\n    tag_18:\n      pop\n      tag_19\n      tag_20\n      calldatasize\n      0x04\n      tag_21\n      jump\t// in\n    tag_20:\n      tag_22\n      jump\t// in\n    tag_19:\n      0x40\n      dup1\n      mload\n      sub(shl(0xa0, 0x01), 0x01)\n        /* \"#utility.yul\":810:842   */\n      swap1\n      swap5\n      and\n        /* \"#utility.yul\":792:843   */\n      dup5\n      mstore\n        /* \"#utility.yul\":874:876   */\n      0x20\n        /* \"#utility.yul\":859:877   */\n      dup5\n      add\n        /* \"#utility.yul\":852:886   */\n      swap3\n      swap1\n      swap3\n      mstore\n        /* \"#utility.yul\":929:943   */\n      iszero\n        /* \"#utility.yul\":922:944   */\n      iszero\n        /* \"#utility.yul\":902:920   */\n      swap1\n      dup3\n      add\n        /* \"#utility.yul\":895:945   */\n      mstore\n        /* \"#utility.yul\":780:782   */\n      0x60\n        /* \"#utility.yul\":765:783   */\n      add\n        /* \"NFT-versions/secondary.sol\":669:713  mapping(uint256 => Bid[]) public listingBids */\n    tag_23:\n      mload(0x40)\n      dup1\n      swap2\n      sub\n      swap1\n      return\n        /* \"NFT-versions/secondary.sol\":2762:4697  function executeListing(uint256 _listingId) external nonReentrant {... */\n    tag_5:\n      callvalue\n      dup1\n      iszero\n      tag_25\n      jumpi\n      0x00\n      dup1\n      revert\n    tag_25:\n      pop\n      tag_11\n      tag_27\n      calldatasize\n      0x04\n      tag_13\n      jump\t// in\n    tag_27:\n      tag_28\n      jump\t// in\n        /* \"NFT-versions/secondary.sol\":1303:2093  function createListing(uint256 _tokenId, uint256 _minPrice) external nonReentrant {... */\n    tag_6:\n      callvalue\n      dup1\n      iszero\n      tag_29\n      jumpi\n      0x00\n      dup1\n      revert\n    tag_29:\n      pop\n      tag_11\n      tag_31\n      calldatasize\n      0x04\n      tag_21\n      jump\t// in\n    tag_31:\n      tag_32\n      jump\t// in\n        /* \"NFT-versions/secondary.sol\":719:746  uint256 public listingCount */\n    tag_7:\n      callvalue\n      dup1\n      iszero\n      tag_33\n      jumpi\n      0x00\n      dup1\n      revert\n    tag_33:\n      pop\n      tag_34\n      sload(0x04)\n      dup2\n      jump\n    tag_34:\n      mload(0x40)\n        /* \"#utility.yul\":1102:1127   */\n      swap1\n      dup2\n      mstore\n        /* \"#utility.yul\":1090:1092   */\n      0x20\n        /* \"#utility.yul\":1075:1093   */\n      add\n        /* \"NFT-versions/secondary.sol\":719:746  uint256 public listingCount */\n      tag_23\n        /* \"#utility.yul\":956:1133   */\n      jump\n        /* \"NFT-versions/secondary.sol\":325:351  IERC721 public nftContract */\n    tag_8:\n      callvalue\n      dup1\n      iszero\n      tag_38\n      jumpi\n      0x00\n      dup1\n      revert\n    tag_38:\n      pop\n      sload(0x01)\n      tag_39\n      swap1\n      sub(shl(0xa0, 0x01), 0x01)\n      and\n      dup2\n      jump\n    tag_39:\n      mload(0x40)\n      sub(shl(0xa0, 0x01), 0x01)\n        /* \"#utility.yul\":1317:1349   */\n      swap1\n      swap2\n      and\n        /* \"#utility.yul\":1299:1350   */\n      dup2\n      mstore\n        /* \"#utility.yul\":1287:1289   */\n      0x20\n        /* \"#utility.yul\":1272:1290   */\n      add\n        /* \"NFT-versions/secondary.sol\":325:351  IERC721 public nftContract */\n      tag_23\n        /* \"#utility.yul\":1138:1356   */\n      jump\n        /* \"NFT-versions/secondary.sol\":620:663  mapping(uint256 => Listing) public listings */\n    tag_9:\n      callvalue\n      dup1\n      iszero\n      tag_43\n      jumpi\n      0x00\n      dup1\n      revert\n    tag_43:\n      pop\n      tag_44\n      tag_45\n      calldatasize\n      0x04\n      tag_13\n      jump\t// in\n    tag_45:\n      0x02\n      0x20\n      dup2\n      swap1\n      mstore\n      0x00\n      swap2\n      dup3\n      mstore\n      0x40\n      swap1\n      swap2\n      keccak256\n      dup1\n      sload\n      0x01\n      dup3\n      add\n      sload\n      swap3\n      dup3\n      add\n      sload\n      0x03\n      swap1\n      swap3\n      add\n      sload\n      swap1\n      swap3\n      sub(shl(0xa0, 0x01), 0x01)\n      and\n      swap2\n      swap1\n      0xff\n      dup1\n      dup3\n      and\n      swap2\n      0x0100\n      swap1\n      div\n      and\n      dup6\n      jump\n    tag_44:\n      0x40\n      dup1\n      mload\n        /* \"#utility.yul\":1608:1633   */\n      swap6\n      dup7\n      mstore\n      sub(shl(0xa0, 0x01), 0x01)\n        /* \"#utility.yul\":1669:1701   */\n      swap1\n      swap5\n      and\n        /* \"#utility.yul\":1664:1666   */\n      0x20\n        /* \"#utility.yul\":1649:1667   */\n      dup7\n      add\n        /* \"#utility.yul\":1642:1702   */\n      mstore\n        /* \"#utility.yul\":1718:1736   */\n      swap3\n      dup5\n      add\n        /* \"#utility.yul\":1711:1745   */\n      swap2\n      swap1\n      swap2\n      mstore\n        /* \"#utility.yul\":1788:1802   */\n      iszero\n        /* \"#utility.yul\":1781:1803   */\n      iszero\n        /* \"#utility.yul\":1776:1778   */\n      0x60\n        /* \"#utility.yul\":1761:1779   */\n      dup4\n      add\n        /* \"#utility.yul\":1754:1804   */\n      mstore\n        /* \"#utility.yul\":1848:1862   */\n      iszero\n        /* \"#utility.yul\":1841:1863   */\n      iszero\n        /* \"#utility.yul\":1835:1838   */\n      0x80\n        /* \"#utility.yul\":1820:1839   */\n      dup3\n      add\n        /* \"#utility.yul\":1813:1864   */\n      mstore\n        /* \"#utility.yul\":1595:1598   */\n      0xa0\n        /* \"#utility.yul\":1580:1599   */\n      add\n        /* \"NFT-versions/secondary.sol\":620:663  mapping(uint256 => Listing) public listings */\n      tag_23\n        /* \"#utility.yul\":1361:1870   */\n      jump\n        /* \"NFT-versions/secondary.sol\":4707:5245  function cancelListing(uint256 _listingId) external nonReentrant {... */\n    tag_14:\n        /* \"@openzeppelin/contracts/security/ReentrancyGuard.sol\":2261:2282  _nonReentrantBefore() */\n      tag_50\n        /* \"@openzeppelin/contracts/security/ReentrancyGuard.sol\":2261:2280  _nonReentrantBefore */\n      tag_51\n        /* \"@openzeppelin/contracts/security/ReentrancyGuard.sol\":2261:2282  _nonReentrantBefore() */\n      jump\t// in\n    tag_50:\n        /* \"NFT-versions/secondary.sol\":4782:4805  Listing storage listing */\n      0x00\n        /* \"NFT-versions/secondary.sol\":4808:4828  listings[_listingId] */\n      dup2\n      dup2\n      mstore\n        /* \"NFT-versions/secondary.sol\":4808:4816  listings */\n      0x02\n        /* \"NFT-versions/secondary.sol\":4808:4828  listings[_listingId] */\n      0x20\n      mstore\n      0x40\n      swap1\n      keccak256\n        /* \"NFT-versions/secondary.sol\":4869:4883  listing.seller */\n      0x01\n      dup2\n      add\n      sload\n      sub(shl(0xa0, 0x01), 0x01)\n      and\n        /* \"NFT-versions/secondary.sol\":4855:4865  msg.sender */\n      caller\n        /* \"NFT-versions/secondary.sol\":4855:4883  msg.sender == listing.seller */\n      eq\n        /* \"NFT-versions/secondary.sol\":4847:4910  require(msg.sender == listing.seller, \"Only seller can cancel\") */\n      tag_53\n      jumpi\n      mload(0x40)\n      shl(0xe5, 0x461bcd)\n      dup2\n      mstore\n        /* \"#utility.yul\":2077:2079   */\n      0x20\n        /* \"NFT-versions/secondary.sol\":4847:4910  require(msg.sender == listing.seller, \"Only seller can cancel\") */\n      0x04\n      dup3\n      add\n        /* \"#utility.yul\":2059:2080   */\n      mstore\n        /* \"#utility.yul\":2116:2118   */\n      0x16\n        /* \"#utility.yul\":2096:2114   */\n      0x24\n      dup3\n      add\n        /* \"#utility.yul\":2089:2119   */\n      mstore\n      shl(0x52, 0x13db9b1e481cd95b1b195c8818d85b8818d85b98d95b)\n        /* \"#utility.yul\":2135:2153   */\n      0x44\n      dup3\n      add\n        /* \"#utility.yul\":2128:2180   */\n      mstore\n        /* \"#utility.yul\":2197:2215   */\n      0x64\n      add\n        /* \"NFT-versions/secondary.sol\":4847:4910  require(msg.sender == listing.seller, \"Only seller can cancel\") */\n    tag_54:\n      mload(0x40)\n      dup1\n      swap2\n      sub\n      swap1\n      revert\n    tag_53:\n        /* \"NFT-versions/secondary.sol\":4928:4944  listing.isActive */\n      0x03\n      dup2\n      add\n      sload\n      0xff\n      and\n        /* \"NFT-versions/secondary.sol\":4920:4967  require(listing.isActive, \"Listing not active\") */\n      tag_56\n      jumpi\n      mload(0x40)\n      shl(0xe5, 0x461bcd)\n      dup2\n      mstore\n      0x04\n      add\n      tag_54\n      swap1\n      tag_58\n      jump\t// in\n    tag_56:\n        /* \"NFT-versions/secondary.sol\":4986:5005  listing.isCompleted */\n      0x03\n      dup2\n      add\n      sload\n      0x0100\n      swap1\n      div\n      0xff\n      and\n        /* \"NFT-versions/secondary.sol\":4985:5005  !listing.isCompleted */\n      iszero\n        /* \"NFT-versions/secondary.sol\":4977:5035  require(!listing.isCompleted, \"Listing already completed\") */\n      tag_59\n      jumpi\n      mload(0x40)\n      shl(0xe5, 0x461bcd)\n      dup2\n      mstore\n      0x04\n      add\n      tag_54\n      swap1\n      tag_61\n      jump\t// in\n    tag_59:\n        /* \"NFT-versions/secondary.sol\":5054:5070  listing.isActive */\n      0x03\n      dup2\n      add\n        /* \"NFT-versions/secondary.sol\":5054:5078  listing.isActive = false */\n      dup1\n      sload\n      not(0xffff)\n        /* \"NFT-versions/secondary.sol\":5088:5114  listing.isCompleted = true */\n      and\n        /* \"NFT-versions/secondary.sol\":5054:5078  listing.isActive = false */\n      0x0100\n        /* \"NFT-versions/secondary.sol\":5088:5114  listing.isCompleted = true */\n      or\n      swap1\n      sstore\n        /* \"NFT-versions/secondary.sol\":5160:5186  _refundAllBids(_listingId) */\n      tag_62\n        /* \"NFT-versions/secondary.sol\":5175:5185  _listingId */\n      dup3\n        /* \"NFT-versions/secondary.sol\":5160:5174  _refundAllBids */\n      tag_63\n        /* \"NFT-versions/secondary.sol\":5160:5186  _refundAllBids(_listingId) */\n      jump\t// in\n    tag_62:\n        /* \"NFT-versions/secondary.sol\":5210:5238  ListingCancelled(_listingId) */\n      mload(0x40)\n        /* \"NFT-versions/secondary.sol\":5227:5237  _listingId */\n      dup3\n      swap1\n        /* \"NFT-versions/secondary.sol\":5210:5238  ListingCancelled(_listingId) */\n      0x411aee90354c51b1b04cd563fcab2617142a9d50da19232d888547c8a1b7fd8a\n      swap1\n      0x00\n      swap1\n      log2\n        /* \"NFT-versions/secondary.sol\":4772:5245  {... */\n      pop\n        /* \"@openzeppelin/contracts/security/ReentrancyGuard.sol\":2303:2323  _nonReentrantAfter() */\n      tag_64\n        /* \"@openzeppelin/contracts/security/ReentrancyGuard.sol\":1716:1717  1 */\n      0x01\n        /* \"@openzeppelin/contracts/security/ReentrancyGuard.sol\":2809:2816  _status */\n      0x00\n        /* \"@openzeppelin/contracts/security/ReentrancyGuard.sol\":2809:2831  _status = _NOT_ENTERED */\n      sstore\n        /* \"@openzeppelin/contracts/security/ReentrancyGuard.sol\":2629:2838  function _nonReentrantAfter() private {... */\n      jump\n        /* \"@openzeppelin/contracts/security/ReentrancyGuard.sol\":2303:2323  _nonReentrantAfter() */\n    tag_64:\n        /* \"NFT-versions/secondary.sol\":4707:5245  function cancelListing(uint256 _listingId) external nonReentrant {... */\n      pop\n      jump\t// out\n        /* \"NFT-versions/secondary.sol\":2103:2752  function placeBid(uint256 _listingId) external payable nonReentrant {... */\n    tag_17:\n        /* \"@openzeppelin/contracts/security/ReentrancyGuard.sol\":2261:2282  _nonReentrantBefore() */\n      tag_67\n        /* \"@openzeppelin/contracts/security/ReentrancyGuard.sol\":2261:2280  _nonReentrantBefore */\n      tag_51\n        /* \"@openzeppelin/contracts/security/ReentrancyGuard.sol\":2261:2282  _nonReentrantBefore() */\n      jump\t// in\n    tag_67:\n        /* \"NFT-versions/secondary.sol\":2181:2204  Listing storage listing */\n      0x00\n        /* \"NFT-versions/secondary.sol\":2207:2227  listings[_listingId] */\n      dup2\n      dup2\n      mstore\n        /* \"NFT-versions/secondary.sol\":2207:2215  listings */\n      0x02\n        /* \"NFT-versions/secondary.sol\":2207:2227  listings[_listingId] */\n      0x20\n      mstore\n      0x40\n      swap1\n      keccak256\n        /* \"NFT-versions/secondary.sol\":2254:2270  listing.isActive */\n      0x03\n      dup2\n      add\n      sload\n      0xff\n      and\n        /* \"NFT-versions/secondary.sol\":2246:2293  require(listing.isActive, \"Listing not active\") */\n      tag_69\n      jumpi\n      mload(0x40)\n      shl(0xe5, 0x461bcd)\n      dup2\n      mstore\n      0x04\n      add\n      tag_54\n      swap1\n      tag_58\n      jump\t// in\n    tag_69:\n        /* \"NFT-versions/secondary.sol\":2312:2331  listing.isCompleted */\n      0x03\n      dup2\n      add\n      sload\n      0x0100\n      swap1\n      div\n      0xff\n      and\n        /* \"NFT-versions/secondary.sol\":2311:2331  !listing.isCompleted */\n      iszero\n        /* \"NFT-versions/secondary.sol\":2303:2361  require(!listing.isCompleted, \"Listing already completed\") */\n      tag_71\n      jumpi\n      mload(0x40)\n      shl(0xe5, 0x461bcd)\n      dup2\n      mstore\n      0x04\n      add\n      tag_54\n      swap1\n      tag_61\n      jump\t// in\n    tag_71:\n        /* \"NFT-versions/secondary.sol\":2393:2407  listing.seller */\n      0x01\n      dup2\n      add\n      sload\n      sub(shl(0xa0, 0x01), 0x01)\n      and\n        /* \"NFT-versions/secondary.sol\":2379:2389  msg.sender */\n      caller\n        /* \"NFT-versions/secondary.sol\":2379:2407  msg.sender != listing.seller */\n      sub\n        /* \"NFT-versions/secondary.sol\":2371:2444  require(msg.sender != listing.seller, \"Seller cannot bid on own listing\") */\n      tag_73\n      jumpi\n      mload(0x40)\n      shl(0xe5, 0x461bcd)\n      dup2\n      mstore\n        /* \"#utility.yul\":3129:3131   */\n      0x20\n        /* \"NFT-versions/secondary.sol\":2371:2444  require(msg.sender != listing.seller, \"Seller cannot bid on own listing\") */\n      0x04\n      dup3\n      add\n        /* \"#utility.yul\":3111:3132   */\n      dup2\n      swap1\n      mstore\n        /* \"#utility.yul\":3148:3166   */\n      0x24\n      dup3\n      add\n        /* \"#utility.yul\":3141:3171   */\n      mstore\n        /* \"#utility.yul\":3207:3241   */\n      0x53656c6c65722063616e6e6f7420626964206f6e206f776e206c697374696e67\n        /* \"#utility.yul\":3187:3205   */\n      0x44\n      dup3\n      add\n        /* \"#utility.yul\":3180:3242   */\n      mstore\n        /* \"#utility.yul\":3259:3277   */\n      0x64\n      add\n        /* \"NFT-versions/secondary.sol\":2371:2444  require(msg.sender != listing.seller, \"Seller cannot bid on own listing\") */\n      tag_54\n        /* \"#utility.yul\":2927:3283   */\n      jump\n        /* \"NFT-versions/secondary.sol\":2371:2444  require(msg.sender != listing.seller, \"Seller cannot bid on own listing\") */\n    tag_73:\n        /* \"NFT-versions/secondary.sol\":2475:2482  listing */\n      dup1\n        /* \"NFT-versions/secondary.sol\":2475:2491  listing.minPrice */\n      0x02\n      add\n      sload\n        /* \"NFT-versions/secondary.sol\":2462:2471  msg.value */\n      callvalue\n        /* \"NFT-versions/secondary.sol\":2462:2491  msg.value >= listing.minPrice */\n      lt\n      iszero\n        /* \"NFT-versions/secondary.sol\":2454:2519  require(msg.value >= listing.minPrice, \"Bid below minimum price\") */\n      tag_76\n      jumpi\n      mload(0x40)\n      shl(0xe5, 0x461bcd)\n      dup2\n      mstore\n        /* \"#utility.yul\":3490:3492   */\n      0x20\n        /* \"NFT-versions/secondary.sol\":2454:2519  require(msg.value >= listing.minPrice, \"Bid below minimum price\") */\n      0x04\n      dup3\n      add\n        /* \"#utility.yul\":3472:3493   */\n      mstore\n        /* \"#utility.yul\":3529:3531   */\n      0x17\n        /* \"#utility.yul\":3509:3527   */\n      0x24\n      dup3\n      add\n        /* \"#utility.yul\":3502:3532   */\n      mstore\n      shl(0x48, 0x4269642062656c6f77206d696e696d756d207072696365)\n        /* \"#utility.yul\":3548:3566   */\n      0x44\n      dup3\n      add\n        /* \"#utility.yul\":3541:3594   */\n      mstore\n        /* \"#utility.yul\":3611:3629   */\n      0x64\n      add\n        /* \"NFT-versions/secondary.sol\":2454:2519  require(msg.value >= listing.minPrice, \"Bid below minimum price\") */\n      tag_54\n        /* \"#utility.yul\":3288:3635   */\n      jump\n        /* \"NFT-versions/secondary.sol\":2454:2519  require(msg.value >= listing.minPrice, \"Bid below minimum price\") */\n    tag_76:\n        /* \"NFT-versions/secondary.sol\":2538:2561  listingBids[_listingId] */\n      0x00\n      dup3\n      dup2\n      mstore\n        /* \"NFT-versions/secondary.sol\":2538:2549  listingBids */\n      0x03\n        /* \"NFT-versions/secondary.sol\":2538:2561  listingBids[_listingId] */\n      0x20\n      dup2\n      dup2\n      mstore\n      0x40\n      dup1\n      dup5\n      keccak256\n        /* \"NFT-versions/secondary.sol\":2567:2676  Bid({... */\n      dup2\n      mload\n      0x60\n      dup2\n      add\n      dup4\n      mstore\n        /* \"NFT-versions/secondary.sol\":2593:2603  msg.sender */\n      caller\n        /* \"NFT-versions/secondary.sol\":2567:2676  Bid({... */\n      dup1\n      dup3\n      mstore\n        /* \"NFT-versions/secondary.sol\":2628:2637  msg.value */\n      callvalue\n        /* \"NFT-versions/secondary.sol\":2567:2676  Bid({... */\n      dup3\n      dup7\n      add\n      dup2\n      dup2\n      mstore\n        /* \"NFT-versions/secondary.sol\":2661:2665  true */\n      0x01\n        /* \"NFT-versions/secondary.sol\":2567:2676  Bid({... */\n      dup5\n      dup8\n      add\n      dup2\n      dup2\n      mstore\n        /* \"NFT-versions/secondary.sol\":2538:2677  listingBids[_listingId].push(Bid({... */\n      dup7\n      sload\n      dup1\n      dup4\n      add\n      dup9\n      sstore\n      swap7\n      dup12\n      mstore\n      swap10\n      dup9\n      swap1\n      keccak256\n      swap5\n      mload\n      swap6\n      swap1\n      swap9\n      mul\n      swap1\n      swap4\n      add\n      dup1\n      sload\n      not(sub(shl(0xa0, 0x01), 0x01))\n      and\n      sub(shl(0xa0, 0x01), 0x01)\n      swap1\n      swap6\n      and\n      swap5\n      swap1\n      swap5\n      or\n      dup5\n      sstore\n      swap2\n      mload\n      swap6\n      dup4\n      add\n      swap6\n      swap1\n      swap6\n      sstore\n      swap5\n      mload\n      0x02\n      swap1\n      swap2\n      add\n      dup1\n      sload\n      not(0xff)\n      and\n      swap2\n      iszero\n      iszero\n      swap2\n      swap1\n      swap2\n      or\n      swap1\n      sstore\n        /* \"NFT-versions/secondary.sol\":2701:2745  BidPlaced(_listingId, msg.sender, msg.value) */\n      mload\n        /* \"#utility.yul\":1102:1127   */\n      swap3\n      dup4\n      mstore\n        /* \"NFT-versions/secondary.sol\":2593:2603  msg.sender */\n      swap1\n      swap2\n        /* \"NFT-versions/secondary.sol\":2538:2561  listingBids[_listingId] */\n      dup5\n      swap2\n        /* \"NFT-versions/secondary.sol\":2701:2745  BidPlaced(_listingId, msg.sender, msg.value) */\n      0x0e54eff26401bf69b81b26f60bd85ef47f5d85275c1d268d84f68d6897431c47\n      swap2\n        /* \"#utility.yul\":1075:1093   */\n      add\n        /* \"NFT-versions/secondary.sol\":2701:2745  BidPlaced(_listingId, msg.sender, msg.value) */\n      mload(0x40)\n      dup1\n      swap2\n      sub\n      swap1\n      log3\n        /* \"NFT-versions/secondary.sol\":2171:2752  {... */\n      pop\n        /* \"@openzeppelin/contracts/security/ReentrancyGuard.sol\":2303:2323  _nonReentrantAfter() */\n      tag_64\n        /* \"@openzeppelin/contracts/security/ReentrancyGuard.sol\":1716:1717  1 */\n      0x01\n        /* \"@openzeppelin/contracts/security/ReentrancyGuard.sol\":2809:2816  _status */\n      0x00\n        /* \"@openzeppelin/contracts/security/ReentrancyGuard.sol\":2809:2831  _status = _NOT_ENTERED */\n      sstore\n        /* \"@openzeppelin/contracts/security/ReentrancyGuard.sol\":2629:2838  function _nonReentrantAfter() private {... */\n      jump\n        /* \"NFT-versions/secondary.sol\":669:713  mapping(uint256 => Bid[]) public listingBids */\n    tag_22:\n      mstore(0x20, 0x03)\n      dup2\n      0x00\n      mstore\n      keccak256(0x00, 0x40)\n      dup2\n      dup2\n      sload\n      dup2\n      lt\n      tag_82\n      jumpi\n      0x00\n      dup1\n      revert\n    tag_82:\n      0x00\n      swap2\n      dup3\n      mstore\n      0x20\n      swap1\n      swap2\n      keccak256\n      0x03\n      swap1\n      swap2\n      mul\n      add\n      dup1\n      sload\n      0x01\n      dup3\n      add\n      sload\n      0x02\n      swap1\n      swap3\n      add\n      sload\n      sub(shl(0xa0, 0x01), 0x01)\n      swap1\n      swap2\n      and\n      swap4\n      pop\n      swap1\n      swap2\n      pop\n      0xff\n      and\n      dup4\n      jump\t// out\n        /* \"NFT-versions/secondary.sol\":2762:4697  function executeListing(uint256 _listingId) external nonReentrant {... */\n    tag_28:\n        /* \"@openzeppelin/contracts/security/ReentrancyGuard.sol\":2261:2282  _nonReentrantBefore() */\n      tag_85\n        /* \"@openzeppelin/contracts/security/ReentrancyGuard.sol\":2261:2280  _nonReentrantBefore */\n      tag_51\n        /* \"@openzeppelin/contracts/security/ReentrancyGuard.sol\":2261:2282  _nonReentrantBefore() */\n      jump\t// in\n    tag_85:\n        /* \"NFT-versions/secondary.sol\":2838:2861  Listing storage listing */\n      0x00\n        /* \"NFT-versions/secondary.sol\":2864:2884  listings[_listingId] */\n      dup2\n      dup2\n      mstore\n        /* \"NFT-versions/secondary.sol\":2864:2872  listings */\n      0x02\n        /* \"NFT-versions/secondary.sol\":2864:2884  listings[_listingId] */\n      0x20\n      mstore\n      0x40\n      swap1\n      keccak256\n        /* \"NFT-versions/secondary.sol\":2911:2927  listing.isActive */\n      0x03\n      dup2\n      add\n      sload\n      0xff\n      and\n        /* \"NFT-versions/secondary.sol\":2903:2950  require(listing.isActive, \"Listing not active\") */\n      tag_87\n      jumpi\n      mload(0x40)\n      shl(0xe5, 0x461bcd)\n      dup2\n      mstore\n      0x04\n      add\n      tag_54\n      swap1\n      tag_58\n      jump\t// in\n    tag_87:\n        /* \"NFT-versions/secondary.sol\":2969:2988  listing.isCompleted */\n      0x03\n      dup2\n      add\n      sload\n      0x0100\n      swap1\n      div\n      0xff\n      and\n        /* \"NFT-versions/secondary.sol\":2968:2988  !listing.isCompleted */\n      iszero\n        /* \"NFT-versions/secondary.sol\":2960:3018  require(!listing.isCompleted, \"Listing already completed\") */\n      tag_89\n      jumpi\n      mload(0x40)\n      shl(0xe5, 0x461bcd)\n      dup2\n      mstore\n      0x04\n      add\n      tag_54\n      swap1\n      tag_61\n      jump\t// in\n    tag_89:\n        /* \"NFT-versions/secondary.sol\":3051:3065  listing.seller */\n      0x01\n      dup2\n      add\n      sload\n      sub(shl(0xa0, 0x01), 0x01)\n      and\n        /* \"NFT-versions/secondary.sol\":3037:3047  msg.sender */\n      caller\n        /* \"NFT-versions/secondary.sol\":3037:3065  msg.sender == listing.seller */\n      eq\n        /* \"NFT-versions/secondary.sol\":3028:3093  require( msg.sender == listing.seller, \"Unauthorized to execute\") */\n      tag_91\n      jumpi\n      mload(0x40)\n      shl(0xe5, 0x461bcd)\n      dup2\n      mstore\n        /* \"#utility.yul\":3842:3844   */\n      0x20\n        /* \"NFT-versions/secondary.sol\":3028:3093  require( msg.sender == listing.seller, \"Unauthorized to execute\") */\n      0x04\n      dup3\n      add\n        /* \"#utility.yul\":3824:3845   */\n      mstore\n        /* \"#utility.yul\":3881:3883   */\n      0x17\n        /* \"#utility.yul\":3861:3879   */\n      0x24\n      dup3\n      add\n        /* \"#utility.yul\":3854:3884   */\n      mstore\n      shl(0x48, 0x556e617574686f72697a656420746f2065786563757465)\n        /* \"#utility.yul\":3900:3918   */\n      0x44\n      dup3\n      add\n        /* \"#utility.yul\":3893:3946   */\n      mstore\n        /* \"#utility.yul\":3963:3981   */\n      0x64\n      add\n        /* \"NFT-versions/secondary.sol\":3028:3093  require( msg.sender == listing.seller, \"Unauthorized to execute\") */\n      tag_54\n        /* \"#utility.yul\":3640:3987   */\n      jump\n        /* \"NFT-versions/secondary.sol\":3028:3093  require( msg.sender == listing.seller, \"Unauthorized to execute\") */\n    tag_91:\n        /* \"NFT-versions/secondary.sol\":3149:3165  listing.isActive */\n      0x03\n      dup2\n      add\n        /* \"NFT-versions/secondary.sol\":3149:3173  listing.isActive = false */\n      dup1\n      sload\n      not(0xffff)\n        /* \"NFT-versions/secondary.sol\":3183:3209  listing.isCompleted = true */\n      and\n        /* \"NFT-versions/secondary.sol\":3149:3173  listing.isActive = false */\n      0x0100\n        /* \"NFT-versions/secondary.sol\":3183:3209  listing.isCompleted = true */\n      or\n      swap1\n      sstore\n        /* \"NFT-versions/secondary.sol\":3168:3173  false */\n      0x00\n      dup1\n      dup1\n      dup1\n      dup1\n        /* \"NFT-versions/secondary.sol\":3415:3791  for (uint256 i = 0; i < listingBids[_listingId].length; i++) {... */\n    tag_94:\n        /* \"NFT-versions/secondary.sol\":3439:3462  listingBids[_listingId] */\n      0x00\n      dup8\n      dup2\n      mstore\n        /* \"NFT-versions/secondary.sol\":3439:3450  listingBids */\n      0x03\n        /* \"NFT-versions/secondary.sol\":3439:3462  listingBids[_listingId] */\n      0x20\n      mstore\n      0x40\n      swap1\n      keccak256\n        /* \"NFT-versions/secondary.sol\":3439:3469  listingBids[_listingId].length */\n      sload\n        /* \"NFT-versions/secondary.sol\":3435:3469  i < listingBids[_listingId].length */\n      dup2\n      lt\n        /* \"NFT-versions/secondary.sol\":3415:3791  for (uint256 i = 0; i < listingBids[_listingId].length; i++) {... */\n      iszero\n      tag_95\n      jumpi\n        /* \"NFT-versions/secondary.sol\":3490:3505  Bid storage bid */\n      0x00\n        /* \"NFT-versions/secondary.sol\":3508:3531  listingBids[_listingId] */\n      dup8\n      dup2\n      mstore\n        /* \"NFT-versions/secondary.sol\":3508:3519  listingBids */\n      0x03\n        /* \"NFT-versions/secondary.sol\":3508:3531  listingBids[_listingId] */\n      0x20\n      mstore\n      0x40\n      dup2\n      keccak256\n        /* \"NFT-versions/secondary.sol\":3508:3534  listingBids[_listingId][i] */\n      dup1\n      sload\n        /* \"NFT-versions/secondary.sol\":3532:3533  i */\n      dup4\n      swap1\n        /* \"NFT-versions/secondary.sol\":3508:3534  listingBids[_listingId][i] */\n      dup2\n      lt\n      tag_98\n      jumpi\n      tag_98\n      tag_99\n      jump\t// in\n    tag_98:\n      0x00\n      swap2\n      dup3\n      mstore\n      0x20\n      swap1\n      swap2\n      keccak256\n      0x03\n      swap1\n      swap2\n      mul\n      add\n        /* \"NFT-versions/secondary.sol\":3552:3564  bid.isActive */\n      0x02\n      dup2\n      add\n      sload\n        /* \"NFT-versions/secondary.sol\":3508:3534  listingBids[_listingId][i] */\n      swap1\n      swap2\n      pop\n        /* \"NFT-versions/secondary.sol\":3552:3564  bid.isActive */\n      0xff\n      and\n        /* \"NFT-versions/secondary.sol\":3552:3600  bid.isActive && bid.bidAmount > highestBidAmount */\n      dup1\n      iszero\n      tag_101\n      jumpi\n      pop\n        /* \"NFT-versions/secondary.sol\":3584:3600  highestBidAmount */\n      dup6\n        /* \"NFT-versions/secondary.sol\":3568:3571  bid */\n      dup2\n        /* \"NFT-versions/secondary.sol\":3568:3581  bid.bidAmount */\n      0x01\n      add\n      sload\n        /* \"NFT-versions/secondary.sol\":3568:3600  bid.bidAmount > highestBidAmount */\n      gt\n        /* \"NFT-versions/secondary.sol\":3552:3600  bid.isActive && bid.bidAmount > highestBidAmount */\n    tag_101:\n        /* \"NFT-versions/secondary.sol\":3548:3781  if (bid.isActive && bid.bidAmount > highestBidAmount) {... */\n      iszero\n      tag_102\n      jumpi\n        /* \"NFT-versions/secondary.sol\":3639:3652  bid.bidAmount */\n      0x01\n      dup1\n      dup3\n      add\n      sload\n        /* \"NFT-versions/secondary.sol\":3686:3696  bid.bidder */\n      dup3\n      sload\n        /* \"NFT-versions/secondary.sol\":3639:3652  bid.bidAmount */\n      swap1\n      swap8\n      pop\n      sub(shl(0xa0, 0x01), 0x01)\n        /* \"NFT-versions/secondary.sol\":3686:3696  bid.bidder */\n      and\n      swap6\n      pop\n        /* \"NFT-versions/secondary.sol\":3732:3733  i */\n      swap2\n      swap4\n      pop\n        /* \"NFT-versions/secondary.sol\":3639:3652  bid.bidAmount */\n      swap1\n      swap2\n      pop\n        /* \"NFT-versions/secondary.sol\":3732:3733  i */\n      dup3\n      swap1\n        /* \"NFT-versions/secondary.sol\":3548:3781  if (bid.isActive && bid.bidAmount > highestBidAmount) {... */\n    tag_102:\n      pop\n        /* \"NFT-versions/secondary.sol\":3471:3474  i++ */\n      0x01\n      add\n        /* \"NFT-versions/secondary.sol\":3415:3791  for (uint256 i = 0; i < listingBids[_listingId].length; i++) {... */\n      jump(tag_94)\n    tag_95:\n      pop\n        /* \"NFT-versions/secondary.sol\":3867:3875  foundBid */\n      dup1\n        /* \"NFT-versions/secondary.sol\":3867:3915  foundBid && highestBidAmount >= listing.minPrice */\n      dup1\n      iszero\n      tag_103\n      jumpi\n      pop\n        /* \"NFT-versions/secondary.sol\":3899:3906  listing */\n      dup5\n        /* \"NFT-versions/secondary.sol\":3899:3915  listing.minPrice */\n      0x02\n      add\n      sload\n        /* \"NFT-versions/secondary.sol\":3879:3895  highestBidAmount */\n      dup5\n        /* \"NFT-versions/secondary.sol\":3879:3915  highestBidAmount >= listing.minPrice */\n      lt\n      iszero\n        /* \"NFT-versions/secondary.sol\":3867:3915  foundBid && highestBidAmount >= listing.minPrice */\n    tag_103:\n        /* \"NFT-versions/secondary.sol\":3863:4691  if (foundBid && highestBidAmount >= listing.minPrice) {... */\n      iszero\n      tag_104\n      jumpi\n        /* \"NFT-versions/secondary.sol\":4027:4032  false */\n      0x00\n        /* \"NFT-versions/secondary.sol\":3975:3998  listingBids[_listingId] */\n      dup7\n      dup2\n      mstore\n        /* \"NFT-versions/secondary.sol\":3975:3986  listingBids */\n      0x03\n        /* \"NFT-versions/secondary.sol\":3975:3998  listingBids[_listingId] */\n      0x20\n      mstore\n      0x40\n      dup2\n      keccak256\n        /* \"NFT-versions/secondary.sol\":3975:4015  listingBids[_listingId][highestBidIndex] */\n      dup1\n      sload\n        /* \"NFT-versions/secondary.sol\":3999:4014  highestBidIndex */\n      dup5\n      swap1\n        /* \"NFT-versions/secondary.sol\":3975:4015  listingBids[_listingId][highestBidIndex] */\n      dup2\n      lt\n      tag_106\n      jumpi\n      tag_106\n      tag_99\n      jump\t// in\n    tag_106:\n      0x00\n      swap2\n      dup3\n      mstore\n      0x20\n      dup3\n      keccak256\n      0x03\n      swap2\n      swap1\n      swap2\n      mul\n      add\n        /* \"NFT-versions/secondary.sol\":3975:4024  listingBids[_listingId][highestBidIndex].isActive */\n      0x02\n      add\n        /* \"NFT-versions/secondary.sol\":3975:4032  listingBids[_listingId][highestBidIndex].isActive = false */\n      dup1\n      sload\n      not(0xff)\n      and\n      swap3\n      iszero\n      iszero\n      swap3\n      swap1\n      swap3\n      or\n      swap1\n      swap2\n      sstore\n      0x01\n        /* \"NFT-versions/secondary.sol\":4109:4123  listing.seller */\n      dup7\n      add\n      sload\n        /* \"NFT-versions/secondary.sol\":4101:4151  payable(listing.seller).transfer(highestBidAmount) */\n      mload(0x40)\n      sub(shl(0xa0, 0x01), 0x01)\n        /* \"NFT-versions/secondary.sol\":4109:4123  listing.seller */\n      swap1\n      swap2\n      and\n      swap2\n        /* \"NFT-versions/secondary.sol\":4101:4151  payable(listing.seller).transfer(highestBidAmount) */\n      0x08fc\n      dup8\n      iszero\n      mul\n      swap2\n      dup8\n      swap2\n      dup2\n        /* \"NFT-versions/secondary.sol\":3975:4015  listingBids[_listingId][highestBidIndex] */\n      dup2\n        /* \"NFT-versions/secondary.sol\":4101:4151  payable(listing.seller).transfer(highestBidAmount) */\n      dup2\n      dup6\n        /* \"NFT-versions/secondary.sol\":4109:4123  listing.seller */\n      dup9\n        /* \"NFT-versions/secondary.sol\":4101:4151  payable(listing.seller).transfer(highestBidAmount) */\n      dup9\n      call\n      swap4\n      pop\n      pop\n      pop\n      pop\n      iszero\n      dup1\n      iszero\n      tag_109\n      jumpi\n      returndatasize\n      0x00\n      dup1\n      returndatacopy\n      revert(0x00, returndatasize)\n    tag_109:\n      pop\n        /* \"NFT-versions/secondary.sol\":4215:4226  nftContract */\n      0x01\n      dup1\n      sload\n        /* \"NFT-versions/secondary.sol\":4244:4258  listing.seller */\n      swap1\n      dup7\n      add\n      sload\n        /* \"NFT-versions/secondary.sol\":4275:4290  listing.tokenId */\n      dup7\n      sload\n        /* \"NFT-versions/secondary.sol\":4215:4291  nftContract.safeTransferFrom(listing.seller, highestBidder, listing.tokenId) */\n      mload(0x40)\n      shl(0xe1, 0x21421707)\n      dup2\n      mstore\n      sub(shl(0xa0, 0x01), 0x01)\n        /* \"NFT-versions/secondary.sol\":4244:4258  listing.seller */\n      swap3\n      dup4\n      and\n        /* \"NFT-versions/secondary.sol\":4215:4291  nftContract.safeTransferFrom(listing.seller, highestBidder, listing.tokenId) */\n      0x04\n      dup3\n      add\n        /* \"#utility.yul\":4326:4377   */\n      mstore\n        /* \"#utility.yul\":4413:4445   */\n      dup7\n      dup4\n      and\n        /* \"#utility.yul\":4393:4411   */\n      0x24\n      dup3\n      add\n        /* \"#utility.yul\":4386:4446   */\n      mstore\n        /* \"#utility.yul\":4462:4480   */\n      0x44\n      dup2\n      add\n        /* \"#utility.yul\":4455:4489   */\n      swap2\n      swap1\n      swap2\n      mstore\n        /* \"NFT-versions/secondary.sol\":4215:4226  nftContract */\n      swap2\n      and\n      swap1\n        /* \"NFT-versions/secondary.sol\":4215:4243  nftContract.safeTransferFrom */\n      0x42842e0e\n      swap1\n        /* \"#utility.yul\":4299:4317   */\n      0x64\n      add\n        /* \"NFT-versions/secondary.sol\":4215:4291  nftContract.safeTransferFrom(listing.seller, highestBidder, listing.tokenId) */\n      0x00\n      mload(0x40)\n      dup1\n      dup4\n      sub\n      dup2\n      0x00\n      dup8\n      dup1\n      extcodesize\n      iszero\n      dup1\n      iszero\n      tag_112\n      jumpi\n      0x00\n      dup1\n      revert\n    tag_112:\n      pop\n      gas\n      call\n      iszero\n      dup1\n      iszero\n      tag_114\n      jumpi\n      returndatasize\n      0x00\n      dup1\n      returndatacopy\n      revert(0x00, returndatasize)\n    tag_114:\n      pop\n      pop\n      pop\n      pop\n        /* \"NFT-versions/secondary.sol\":4340:4350  _listingId */\n      dup6\n        /* \"NFT-versions/secondary.sol\":4323:4390  ListingCompleted(_listingId, true, highestBidder, highestBidAmount) */\n      0xa61f9b5a0a92578ea5cd1dbc470c2f232a62ecfdabb857db6ca084ee2b5ac335\n        /* \"NFT-versions/secondary.sol\":4352:4356  true */\n      0x01\n        /* \"NFT-versions/secondary.sol\":4358:4371  highestBidder */\n      dup6\n        /* \"NFT-versions/secondary.sol\":4373:4389  highestBidAmount */\n      dup8\n        /* \"NFT-versions/secondary.sol\":4323:4390  ListingCompleted(_listingId, true, highestBidder, highestBidAmount) */\n      mload(0x40)\n      tag_115\n      swap4\n      swap3\n      swap2\n      swap1\n      tag_116\n      jump\t// in\n    tag_115:\n      mload(0x40)\n      dup1\n      swap2\n      sub\n      swap1\n      log2\n        /* \"NFT-versions/secondary.sol\":4457:4509  _refundUnsuccessfulBids(_listingId, highestBidIndex) */\n      tag_117\n        /* \"NFT-versions/secondary.sol\":4481:4491  _listingId */\n      dup7\n        /* \"NFT-versions/secondary.sol\":4493:4508  highestBidIndex */\n      dup4\n        /* \"NFT-versions/secondary.sol\":4457:4480  _refundUnsuccessfulBids */\n      tag_118\n        /* \"NFT-versions/secondary.sol\":4457:4509  _refundUnsuccessfulBids(_listingId, highestBidIndex) */\n      jump\t// in\n    tag_117:\n        /* \"NFT-versions/secondary.sol\":3863:4691  if (foundBid && highestBidAmount >= listing.minPrice) {... */\n      jump(tag_119)\n    tag_104:\n        /* \"NFT-versions/secondary.sol\":4585:4611  _refundAllBids(_listingId) */\n      tag_120\n        /* \"NFT-versions/secondary.sol\":4600:4610  _listingId */\n      dup7\n        /* \"NFT-versions/secondary.sol\":4585:4599  _refundAllBids */\n      tag_63\n        /* \"NFT-versions/secondary.sol\":4585:4611  _refundAllBids(_listingId) */\n      jump\t// in\n    tag_120:\n        /* \"NFT-versions/secondary.sol\":4647:4657  _listingId */\n      dup6\n        /* \"NFT-versions/secondary.sol\":4630:4680  ListingCompleted(_listingId, false, address(0), 0) */\n      0xa61f9b5a0a92578ea5cd1dbc470c2f232a62ecfdabb857db6ca084ee2b5ac335\n        /* \"NFT-versions/secondary.sol\":4659:4664  false */\n      0x00\n        /* \"NFT-versions/secondary.sol\":4674:4675  0 */\n      dup1\n        /* \"NFT-versions/secondary.sol\":4678:4679  0 */\n      0x00\n        /* \"NFT-versions/secondary.sol\":4630:4680  ListingCompleted(_listingId, false, address(0), 0) */\n      mload(0x40)\n      tag_121\n      swap4\n      swap3\n      swap2\n      swap1\n      tag_116\n      jump\t// in\n    tag_121:\n      mload(0x40)\n      dup1\n      swap2\n      sub\n      swap1\n      log2\n        /* \"NFT-versions/secondary.sol\":3863:4691  if (foundBid && highestBidAmount >= listing.minPrice) {... */\n    tag_119:\n        /* \"NFT-versions/secondary.sol\":2828:4697  {... */\n      pop\n      pop\n      pop\n      pop\n      pop\n        /* \"@openzeppelin/contracts/security/ReentrancyGuard.sol\":2303:2323  _nonReentrantAfter() */\n      tag_64\n        /* \"@openzeppelin/contracts/security/ReentrancyGuard.sol\":1716:1717  1 */\n      0x01\n        /* \"@openzeppelin/contracts/security/ReentrancyGuard.sol\":2809:2816  _status */\n      0x00\n        /* \"@openzeppelin/contracts/security/ReentrancyGuard.sol\":2809:2831  _status = _NOT_ENTERED */\n      sstore\n        /* \"@openzeppelin/contracts/security/ReentrancyGuard.sol\":2629:2838  function _nonReentrantAfter() private {... */\n      jump\n        /* \"NFT-versions/secondary.sol\":1303:2093  function createListing(uint256 _tokenId, uint256 _minPrice) external nonReentrant {... */\n    tag_32:\n        /* \"@openzeppelin/contracts/security/ReentrancyGuard.sol\":2261:2282  _nonReentrantBefore() */\n      tag_125\n        /* \"@openzeppelin/contracts/security/ReentrancyGuard.sol\":2261:2280  _nonReentrantBefore */\n      tag_51\n        /* \"@openzeppelin/contracts/security/ReentrancyGuard.sol\":2261:2282  _nonReentrantBefore() */\n      jump\t// in\n    tag_125:\n        /* \"NFT-versions/secondary.sol\":1403:1414  nftContract */\n      sload(0x01)\n        /* \"NFT-versions/secondary.sol\":1403:1432  nftContract.ownerOf(_tokenId) */\n      mload(0x40)\n      shl(0xe1, 0x31a9108f)\n      dup2\n      mstore\n      0x04\n      dup2\n      add\n        /* \"#utility.yul\":1102:1127   */\n      dup5\n      swap1\n      mstore\n        /* \"NFT-versions/secondary.sol\":1436:1446  msg.sender */\n      caller\n      swap2\n      sub(shl(0xa0, 0x01), 0x01)\n        /* \"NFT-versions/secondary.sol\":1403:1414  nftContract */\n      and\n      swap1\n        /* \"NFT-versions/secondary.sol\":1403:1422  nftContract.ownerOf */\n      0x6352211e\n      swap1\n        /* \"#utility.yul\":1075:1093   */\n      0x24\n      add\n        /* \"NFT-versions/secondary.sol\":1403:1432  nftContract.ownerOf(_tokenId) */\n      0x20\n      mload(0x40)\n      dup1\n      dup4\n      sub\n      dup2\n      dup7\n      gas\n      staticcall\n      iszero\n      dup1\n      iszero\n      tag_129\n      jumpi\n      returndatasize\n      0x00\n      dup1\n      returndatacopy\n      revert(0x00, returndatasize)\n    tag_129:\n      pop\n      pop\n      pop\n      pop\n      mload(0x40)\n      returndatasize\n      not(0x1f)\n      0x1f\n      dup3\n      add\n      and\n      dup3\n      add\n      dup1\n      0x40\n      mstore\n      pop\n      dup2\n      add\n      swap1\n      tag_130\n      swap2\n      swap1\n      tag_131\n      jump\t// in\n    tag_130:\n      sub(shl(0xa0, 0x01), 0x01)\n        /* \"NFT-versions/secondary.sol\":1403:1446  nftContract.ownerOf(_tokenId) == msg.sender */\n      and\n      eq\n        /* \"NFT-versions/secondary.sol\":1395:1478  require(nftContract.ownerOf(_tokenId) == msg.sender, \"Not the owner of this token\") */\n      tag_132\n      jumpi\n      mload(0x40)\n      shl(0xe5, 0x461bcd)\n      dup2\n      mstore\n        /* \"#utility.yul\":5725:5727   */\n      0x20\n        /* \"NFT-versions/secondary.sol\":1395:1478  require(nftContract.ownerOf(_tokenId) == msg.sender, \"Not the owner of this token\") */\n      0x04\n      dup3\n      add\n        /* \"#utility.yul\":5707:5728   */\n      mstore\n        /* \"#utility.yul\":5764:5766   */\n      0x1b\n        /* \"#utility.yul\":5744:5762   */\n      0x24\n      dup3\n      add\n        /* \"#utility.yul\":5737:5767   */\n      mstore\n        /* \"#utility.yul\":5803:5832   */\n      0x4e6f7420746865206f776e6572206f66207468697320746f6b656e0000000000\n        /* \"#utility.yul\":5783:5801   */\n      0x44\n      dup3\n      add\n        /* \"#utility.yul\":5776:5833   */\n      mstore\n        /* \"#utility.yul\":5850:5868   */\n      0x64\n      add\n        /* \"NFT-versions/secondary.sol\":1395:1478  require(nftContract.ownerOf(_tokenId) == msg.sender, \"Not the owner of this token\") */\n      tag_54\n        /* \"#utility.yul\":5523:5874   */\n      jump\n        /* \"NFT-versions/secondary.sol\":1395:1478  require(nftContract.ownerOf(_tokenId) == msg.sender, \"Not the owner of this token\") */\n    tag_132:\n        /* \"NFT-versions/secondary.sol\":1496:1507  nftContract */\n      sload(0x01)\n        /* \"NFT-versions/secondary.sol\":1496:1551  nftContract.isApprovedForAll(msg.sender, address(this)) */\n      mload(0x40)\n      shl(0xe0, 0xe985e9c5)\n      dup2\n      mstore\n        /* \"NFT-versions/secondary.sol\":1525:1535  msg.sender */\n      caller\n        /* \"NFT-versions/secondary.sol\":1496:1551  nftContract.isApprovedForAll(msg.sender, address(this)) */\n      0x04\n      dup3\n      add\n        /* \"#utility.yul\":6053:6104   */\n      mstore\n        /* \"NFT-versions/secondary.sol\":1545:1549  this */\n      address\n        /* \"#utility.yul\":6120:6138   */\n      0x24\n      dup3\n      add\n        /* \"#utility.yul\":6113:6173   */\n      mstore\n      sub(shl(0xa0, 0x01), 0x01)\n        /* \"NFT-versions/secondary.sol\":1496:1507  nftContract */\n      swap1\n      swap2\n      and\n      swap1\n        /* \"NFT-versions/secondary.sol\":1496:1524  nftContract.isApprovedForAll */\n      0xe985e9c5\n      swap1\n        /* \"#utility.yul\":6026:6044   */\n      0x44\n      add\n        /* \"NFT-versions/secondary.sol\":1496:1551  nftContract.isApprovedForAll(msg.sender, address(this)) */\n      0x20\n      mload(0x40)\n      dup1\n      dup4\n      sub\n      dup2\n      dup7\n      gas\n      staticcall\n      iszero\n      dup1\n      iszero\n      tag_138\n      jumpi\n      returndatasize\n      0x00\n      dup1\n      returndatacopy\n      revert(0x00, returndatasize)\n    tag_138:\n      pop\n      pop\n      pop\n      pop\n      mload(0x40)\n      returndatasize\n      not(0x1f)\n      0x1f\n      dup3\n      add\n      and\n      dup3\n      add\n      dup1\n      0x40\n      mstore\n      pop\n      dup2\n      add\n      swap1\n      tag_139\n      swap2\n      swap1\n      tag_140\n      jump\t// in\n    tag_139:\n        /* \"NFT-versions/secondary.sol\":1496:1622  nftContract.isApprovedForAll(msg.sender, address(this)) || ... */\n      dup1\n      tag_141\n      jumpi\n      pop\n        /* \"NFT-versions/secondary.sol\":1572:1583  nftContract */\n      sload(0x01)\n        /* \"NFT-versions/secondary.sol\":1572:1605  nftContract.getApproved(_tokenId) */\n      mload(0x40)\n      shl(0xe2, 0x020604bf)\n      dup2\n      mstore\n      0x04\n      dup2\n      add\n        /* \"#utility.yul\":1102:1127   */\n      dup5\n      swap1\n      mstore\n        /* \"NFT-versions/secondary.sol\":1617:1621  this */\n      address\n      swap2\n      sub(shl(0xa0, 0x01), 0x01)\n        /* \"NFT-versions/secondary.sol\":1572:1583  nftContract */\n      and\n      swap1\n        /* \"NFT-versions/secondary.sol\":1572:1595  nftContract.getApproved */\n      0x081812fc\n      swap1\n        /* \"#utility.yul\":1075:1093   */\n      0x24\n      add\n        /* \"NFT-versions/secondary.sol\":1572:1605  nftContract.getApproved(_tokenId) */\n      0x20\n      mload(0x40)\n      dup1\n      dup4\n      sub\n      dup2\n      dup7\n      gas\n      staticcall\n      iszero\n      dup1\n      iszero\n      tag_144\n      jumpi\n      returndatasize\n      0x00\n      dup1\n      returndatacopy\n      revert(0x00, returndatasize)\n    tag_144:\n      pop\n      pop\n      pop\n      pop\n      mload(0x40)\n      returndatasize\n      not(0x1f)\n      0x1f\n      dup3\n      add\n      and\n      dup3\n      add\n      dup1\n      0x40\n      mstore\n      pop\n      dup2\n      add\n      swap1\n      tag_145\n      swap2\n      swap1\n      tag_131\n      jump\t// in\n    tag_145:\n      sub(shl(0xa0, 0x01), 0x01)\n        /* \"NFT-versions/secondary.sol\":1572:1622  nftContract.getApproved(_tokenId) == address(this) */\n      and\n      eq\n        /* \"NFT-versions/secondary.sol\":1496:1622  nftContract.isApprovedForAll(msg.sender, address(this)) || ... */\n    tag_141:\n        /* \"NFT-versions/secondary.sol\":1488:1683  require(nftContract.isApprovedForAll(msg.sender, address(this)) || ... */\n      tag_146\n      jumpi\n      mload(0x40)\n      shl(0xe5, 0x461bcd)\n      dup2\n      mstore\n        /* \"#utility.yul\":6668:6670   */\n      0x20\n        /* \"NFT-versions/secondary.sol\":1488:1683  require(nftContract.isApprovedForAll(msg.sender, address(this)) || ... */\n      0x04\n      dup3\n      add\n        /* \"#utility.yul\":6650:6671   */\n      mstore\n        /* \"#utility.yul\":6707:6709   */\n      0x27\n        /* \"#utility.yul\":6687:6705   */\n      0x24\n      dup3\n      add\n        /* \"#utility.yul\":6680:6710   */\n      mstore\n        /* \"#utility.yul\":6746:6780   */\n      0x436f6e7472616374206e6f7420617070726f76656420746f207472616e736665\n        /* \"#utility.yul\":6726:6744   */\n      0x44\n      dup3\n      add\n        /* \"#utility.yul\":6719:6781   */\n      mstore\n      shl(0xc9, 0x39103a37b5b2b7)\n        /* \"#utility.yul\":6797:6815   */\n      0x64\n      dup3\n      add\n        /* \"#utility.yul\":6790:6827   */\n      mstore\n        /* \"#utility.yul\":6844:6863   */\n      0x84\n      add\n        /* \"NFT-versions/secondary.sol\":1488:1683  require(nftContract.isApprovedForAll(msg.sender, address(this)) || ... */\n      tag_54\n        /* \"#utility.yul\":6466:6869   */\n      jump\n        /* \"NFT-versions/secondary.sol\":1488:1683  require(nftContract.isApprovedForAll(msg.sender, address(this)) || ... */\n    tag_146:\n        /* \"NFT-versions/secondary.sol\":1713:1714  0 */\n      0x00\n        /* \"NFT-versions/secondary.sol\":1701:1710  _minPrice */\n      dup2\n        /* \"NFT-versions/secondary.sol\":1701:1714  _minPrice > 0 */\n      gt\n        /* \"NFT-versions/secondary.sol\":1693:1749  require(_minPrice > 0, \"Minimum price must be positive\") */\n      tag_149\n      jumpi\n      mload(0x40)\n      shl(0xe5, 0x461bcd)\n      dup2\n      mstore\n        /* \"#utility.yul\":7076:7078   */\n      0x20\n        /* \"NFT-versions/secondary.sol\":1693:1749  require(_minPrice > 0, \"Minimum price must be positive\") */\n      0x04\n      dup3\n      add\n        /* \"#utility.yul\":7058:7079   */\n      mstore\n        /* \"#utility.yul\":7115:7117   */\n      0x1e\n        /* \"#utility.yul\":7095:7113   */\n      0x24\n      dup3\n      add\n        /* \"#utility.yul\":7088:7118   */\n      mstore\n        /* \"#utility.yul\":7154:7186   */\n      0x4d696e696d756d207072696365206d75737420626520706f7369746976650000\n        /* \"#utility.yul\":7134:7152   */\n      0x44\n      dup3\n      add\n        /* \"#utility.yul\":7127:7187   */\n      mstore\n        /* \"#utility.yul\":7204:7222   */\n      0x64\n      add\n        /* \"NFT-versions/secondary.sol\":1693:1749  require(_minPrice > 0, \"Minimum price must be positive\") */\n      tag_54\n        /* \"#utility.yul\":6874:7228   */\n      jump\n        /* \"NFT-versions/secondary.sol\":1693:1749  require(_minPrice > 0, \"Minimum price must be positive\") */\n    tag_149:\n        /* \"NFT-versions/secondary.sol\":1768:1780  listingCount */\n      0x04\n        /* \"NFT-versions/secondary.sol\":1768:1782  listingCount++ */\n      dup1\n      sload\n      swap1\n        /* \"NFT-versions/secondary.sol\":1768:1780  listingCount */\n      0x00\n        /* \"NFT-versions/secondary.sol\":1768:1782  listingCount++ */\n      tag_152\n      dup4\n      tag_153\n      jump\t// in\n    tag_152:\n      swap1\n      swap2\n      sstore\n      pop\n      pop\n        /* \"NFT-versions/secondary.sol\":1826:2001  Listing({... */\n      0x40\n      dup1\n      mload\n      0xa0\n      dup2\n      add\n      dup3\n      mstore\n      dup4\n      dup2\n      mstore\n        /* \"NFT-versions/secondary.sol\":1887:1897  msg.sender */\n      caller\n        /* \"NFT-versions/secondary.sol\":1826:2001  Listing({... */\n      0x20\n      dup1\n      dup4\n      add\n      dup3\n      dup2\n      mstore\n      dup4\n      dup6\n      add\n      dup7\n      dup2\n      mstore\n        /* \"NFT-versions/secondary.sol\":1954:1958  true */\n      0x01\n        /* \"NFT-versions/secondary.sol\":1826:2001  Listing({... */\n      0x60\n      dup7\n      add\n      dup2\n      dup2\n      mstore\n      0x00\n      0x80\n      dup9\n      add\n      dup2\n      dup2\n      mstore\n        /* \"NFT-versions/secondary.sol\":1810:1822  listingCount */\n      0x04\n      dup1\n      sload\n        /* \"NFT-versions/secondary.sol\":1801:1823  listings[listingCount] */\n      dup4\n      mstore\n        /* \"NFT-versions/secondary.sol\":1801:1809  listings */\n      0x02\n        /* \"NFT-versions/secondary.sol\":1801:1823  listings[listingCount] */\n      dup1\n      dup10\n      mstore\n      swap3\n      dup12\n      swap1\n      keccak256\n        /* \"NFT-versions/secondary.sol\":1801:2001  listings[listingCount] = Listing({... */\n      swap10\n      mload\n      dup11\n      sstore\n      swap6\n      mload\n      swap4\n      dup10\n      add\n      dup1\n      sload\n      not(sub(shl(0xa0, 0x01), 0x01))\n      and\n      sub(shl(0xa0, 0x01), 0x01)\n      swap1\n      swap6\n      and\n      swap5\n      swap1\n      swap5\n      or\n      swap1\n      swap4\n      sstore\n      swap3\n      mload\n      swap3\n      dup8\n      add\n      swap3\n      swap1\n      swap3\n      sstore\n      swap1\n      mload\n      0x03\n      swap1\n      swap6\n      add\n      dup1\n      sload\n      swap2\n      mload\n      not(0xffff)\n      swap1\n      swap3\n      and\n      swap6\n      iszero\n      iszero\n      not(0xff00)\n      and\n      swap6\n      swap1\n      swap6\n      or\n      0x0100\n      swap2\n      iszero\n      iszero\n      swap2\n      swap1\n      swap2\n      mul\n      or\n      swap1\n      swap4\n      sstore\n        /* \"NFT-versions/secondary.sol\":2040:2052  listingCount */\n      swap2\n      sload\n        /* \"NFT-versions/secondary.sol\":2025:2086  ListingCreated(listingCount, _tokenId, msg.sender, _minPrice) */\n      swap3\n      mload\n        /* \"#utility.yul\":1102:1127   */\n      dup5\n      dup2\n      mstore\n        /* \"NFT-versions/secondary.sol\":1887:1897  msg.sender */\n      swap1\n      swap3\n        /* \"NFT-versions/secondary.sol\":1826:2001  Listing({... */\n      dup6\n      swap3\n        /* \"NFT-versions/secondary.sol\":2040:2052  listingCount */\n      swap1\n      swap2\n        /* \"NFT-versions/secondary.sol\":2025:2086  ListingCreated(listingCount, _tokenId, msg.sender, _minPrice) */\n      0x8093adc67e6531e4dcb9f96fe66947096b91ad10573e8136f8ef1a1cebe2fad6\n      swap2\n        /* \"#utility.yul\":1075:1093   */\n      add\n        /* \"NFT-versions/secondary.sol\":2025:2086  ListingCreated(listingCount, _tokenId, msg.sender, _minPrice) */\n      mload(0x40)\n      dup1\n      swap2\n      sub\n      swap1\n      log4\n        /* \"@openzeppelin/contracts/security/ReentrancyGuard.sol\":2303:2323  _nonReentrantAfter() */\n      tag_155\n        /* \"@openzeppelin/contracts/security/ReentrancyGuard.sol\":1716:1717  1 */\n      0x01\n        /* \"@openzeppelin/contracts/security/ReentrancyGuard.sol\":2809:2816  _status */\n      0x00\n        /* \"@openzeppelin/contracts/security/ReentrancyGuard.sol\":2809:2831  _status = _NOT_ENTERED */\n      sstore\n        /* \"@openzeppelin/contracts/security/ReentrancyGuard.sol\":2629:2838  function _nonReentrantAfter() private {... */\n      jump\n        /* \"@openzeppelin/contracts/security/ReentrancyGuard.sol\":2303:2323  _nonReentrantAfter() */\n    tag_155:\n        /* \"NFT-versions/secondary.sol\":1303:2093  function createListing(uint256 _tokenId, uint256 _minPrice) external nonReentrant {... */\n      pop\n      pop\n      jump\t// out\n        /* \"@openzeppelin/contracts/security/ReentrancyGuard.sol\":2336:2623  function _nonReentrantBefore() private {... */\n    tag_51:\n        /* \"@openzeppelin/contracts/security/ReentrancyGuard.sol\":1759:1760  2 */\n      0x02\n        /* \"@openzeppelin/contracts/security/ReentrancyGuard.sol\":2468:2475  _status */\n      sload(0x00)\n        /* \"@openzeppelin/contracts/security/ReentrancyGuard.sol\":2468:2487  _status != _ENTERED */\n      sub\n        /* \"@openzeppelin/contracts/security/ReentrancyGuard.sol\":2460:2523  require(_status != _ENTERED, \"ReentrancyGuard: reentrant call\") */\n      tag_157\n      jumpi\n      mload(0x40)\n      shl(0xe5, 0x461bcd)\n      dup2\n      mstore\n        /* \"#utility.yul\":7672:7674   */\n      0x20\n        /* \"@openzeppelin/contracts/security/ReentrancyGuard.sol\":2460:2523  require(_status != _ENTERED, \"ReentrancyGuard: reentrant call\") */\n      0x04\n      dup3\n      add\n        /* \"#utility.yul\":7654:7675   */\n      mstore\n        /* \"#utility.yul\":7711:7713   */\n      0x1f\n        /* \"#utility.yul\":7691:7709   */\n      0x24\n      dup3\n      add\n        /* \"#utility.yul\":7684:7714   */\n      mstore\n        /* \"#utility.yul\":7750:7783   */\n      0x5265656e7472616e637947756172643a207265656e7472616e742063616c6c00\n        /* \"#utility.yul\":7730:7748   */\n      0x44\n      dup3\n      add\n        /* \"#utility.yul\":7723:7784   */\n      mstore\n        /* \"#utility.yul\":7801:7819   */\n      0x64\n      add\n        /* \"@openzeppelin/contracts/security/ReentrancyGuard.sol\":2460:2523  require(_status != _ENTERED, \"ReentrancyGuard: reentrant call\") */\n      tag_54\n        /* \"#utility.yul\":7470:7825   */\n      jump\n        /* \"@openzeppelin/contracts/security/ReentrancyGuard.sol\":2460:2523  require(_status != _ENTERED, \"ReentrancyGuard: reentrant call\") */\n    tag_157:\n        /* \"@openzeppelin/contracts/security/ReentrancyGuard.sol\":1759:1760  2 */\n      0x02\n        /* \"@openzeppelin/contracts/security/ReentrancyGuard.sol\":2598:2605  _status */\n      0x00\n        /* \"@openzeppelin/contracts/security/ReentrancyGuard.sol\":2598:2616  _status = _ENTERED */\n      sstore\n        /* \"@openzeppelin/contracts/security/ReentrancyGuard.sol\":2336:2623  function _nonReentrantBefore() private {... */\n      jump\t// out\n        /* \"NFT-versions/secondary.sol\":5836:6347  function _refundAllBids(uint256 _listingId) internal {... */\n    tag_63:\n        /* \"NFT-versions/secondary.sol\":5904:5913  uint256 i */\n      0x00\n        /* \"NFT-versions/secondary.sol\":5899:6341  for (uint256 i = 0; i < listingBids[_listingId].length; i++) {... */\n    tag_161:\n        /* \"NFT-versions/secondary.sol\":5923:5946  listingBids[_listingId] */\n      0x00\n      dup3\n      dup2\n      mstore\n        /* \"NFT-versions/secondary.sol\":5923:5934  listingBids */\n      0x03\n        /* \"NFT-versions/secondary.sol\":5923:5946  listingBids[_listingId] */\n      0x20\n      mstore\n      0x40\n      swap1\n      keccak256\n        /* \"NFT-versions/secondary.sol\":5923:5953  listingBids[_listingId].length */\n      sload\n        /* \"NFT-versions/secondary.sol\":5919:5953  i < listingBids[_listingId].length */\n      dup2\n      lt\n        /* \"NFT-versions/secondary.sol\":5899:6341  for (uint256 i = 0; i < listingBids[_listingId].length; i++) {... */\n      iszero\n      tag_155\n      jumpi\n        /* \"NFT-versions/secondary.sol\":5978:6001  listingBids[_listingId] */\n      0x00\n      dup3\n      dup2\n      mstore\n        /* \"NFT-versions/secondary.sol\":5978:5989  listingBids */\n      0x03\n        /* \"NFT-versions/secondary.sol\":5978:6001  listingBids[_listingId] */\n      0x20\n      mstore\n      0x40\n      swap1\n      keccak256\n        /* \"NFT-versions/secondary.sol\":5978:6004  listingBids[_listingId][i] */\n      dup1\n      sload\n        /* \"NFT-versions/secondary.sol\":6002:6003  i */\n      dup3\n      swap1\n        /* \"NFT-versions/secondary.sol\":5978:6004  listingBids[_listingId][i] */\n      dup2\n      lt\n      tag_165\n      jumpi\n      tag_165\n      tag_99\n      jump\t// in\n    tag_165:\n      0x00\n      swap2\n      dup3\n      mstore\n      0x20\n      swap1\n      swap2\n      keccak256\n        /* \"NFT-versions/secondary.sol\":5978:6013  listingBids[_listingId][i].isActive */\n      0x02\n        /* \"NFT-versions/secondary.sol\":5978:6004  listingBids[_listingId][i] */\n      0x03\n      swap1\n      swap3\n      mul\n      add\n        /* \"NFT-versions/secondary.sol\":5978:6013  listingBids[_listingId][i].isActive */\n      add\n      sload\n      0xff\n      and\n        /* \"NFT-versions/secondary.sol\":5974:6331  if (listingBids[_listingId][i].isActive) {... */\n      iszero\n      tag_167\n      jumpi\n        /* \"NFT-versions/secondary.sol\":6033:6047  address bidder */\n      0x00\n        /* \"NFT-versions/secondary.sol\":6050:6073  listingBids[_listingId] */\n      dup3\n      dup2\n      mstore\n        /* \"NFT-versions/secondary.sol\":6050:6061  listingBids */\n      0x03\n        /* \"NFT-versions/secondary.sol\":6050:6073  listingBids[_listingId] */\n      0x20\n      mstore\n      0x40\n      dup2\n      keccak256\n        /* \"NFT-versions/secondary.sol\":6050:6076  listingBids[_listingId][i] */\n      dup1\n      sload\n        /* \"NFT-versions/secondary.sol\":6074:6075  i */\n      dup4\n      swap1\n        /* \"NFT-versions/secondary.sol\":6050:6076  listingBids[_listingId][i] */\n      dup2\n      lt\n      tag_169\n      jumpi\n      tag_169\n      tag_99\n      jump\t// in\n    tag_169:\n      0x00\n      swap2\n      dup3\n      mstore\n      0x20\n      dup1\n      dup4\n      keccak256\n      0x03\n      swap3\n      dup4\n      mul\n      add\n        /* \"NFT-versions/secondary.sol\":6050:6083  listingBids[_listingId][i].bidder */\n      sload\n        /* \"NFT-versions/secondary.sol\":6118:6141  listingBids[_listingId] */\n      dup7\n      dup5\n      mstore\n      swap2\n      swap1\n      mstore\n      0x40\n      dup3\n      keccak256\n        /* \"NFT-versions/secondary.sol\":6118:6144  listingBids[_listingId][i] */\n      dup1\n      sload\n      sub(shl(0xa0, 0x01), 0x01)\n        /* \"NFT-versions/secondary.sol\":6050:6083  listingBids[_listingId][i].bidder */\n      swap1\n      swap3\n      and\n      swap4\n      pop\n        /* \"NFT-versions/secondary.sol\":6118:6141  listingBids[_listingId] */\n      swap1\n        /* \"NFT-versions/secondary.sol\":6142:6143  i */\n      dup5\n      swap1\n        /* \"NFT-versions/secondary.sol\":6118:6144  listingBids[_listingId][i] */\n      dup2\n      lt\n      tag_172\n      jumpi\n      tag_172\n      tag_99\n      jump\t// in\n    tag_172:\n      swap1\n      0x00\n      mstore\n      keccak256(0x00, 0x20)\n      swap1\n      0x03\n      mul\n      add\n        /* \"NFT-versions/secondary.sol\":6118:6154  listingBids[_listingId][i].bidAmount */\n      0x01\n      add\n      sload\n        /* \"NFT-versions/secondary.sol\":6101:6154  uint256 amount = listingBids[_listingId][i].bidAmount */\n      swap1\n      pop\n        /* \"NFT-versions/secondary.sol\":6210:6215  false */\n      0x00\n        /* \"NFT-versions/secondary.sol\":6172:6183  listingBids */\n      0x03\n        /* \"NFT-versions/secondary.sol\":6172:6195  listingBids[_listingId] */\n      0x00\n        /* \"NFT-versions/secondary.sol\":6184:6194  _listingId */\n      dup7\n        /* \"NFT-versions/secondary.sol\":6172:6195  listingBids[_listingId] */\n      dup2\n      mstore\n      0x20\n      add\n      swap1\n      dup2\n      mstore\n      0x20\n      add\n      0x00\n      keccak256\n        /* \"NFT-versions/secondary.sol\":6196:6197  i */\n      dup5\n        /* \"NFT-versions/secondary.sol\":6172:6198  listingBids[_listingId][i] */\n      dup2\n      sload\n      dup2\n      lt\n      tag_175\n      jumpi\n      tag_175\n      tag_99\n      jump\t// in\n    tag_175:\n      0x00\n      swap2\n      dup3\n      mstore\n      0x20\n      dup3\n      keccak256\n      0x03\n      swap2\n      swap1\n      swap2\n      mul\n      add\n        /* \"NFT-versions/secondary.sol\":6172:6207  listingBids[_listingId][i].isActive */\n      0x02\n      add\n        /* \"NFT-versions/secondary.sol\":6172:6215  listingBids[_listingId][i].isActive = false */\n      dup1\n      sload\n      not(0xff)\n      and\n      swap3\n      iszero\n      iszero\n      swap3\n      swap1\n      swap3\n      or\n      swap1\n      swap2\n      sstore\n        /* \"NFT-versions/secondary.sol\":6233:6265  payable(bidder).transfer(amount) */\n      mload(0x40)\n      sub(shl(0xa0, 0x01), 0x01)\n        /* \"NFT-versions/secondary.sol\":6233:6257  payable(bidder).transfer */\n      dup5\n      and\n      swap2\n        /* \"NFT-versions/secondary.sol\":6233:6265  payable(bidder).transfer(amount) */\n      0x08fc\n      dup5\n      iszero\n      mul\n      swap2\n      dup5\n      swap2\n      dup2\n        /* \"NFT-versions/secondary.sol\":6172:6198  listingBids[_listingId][i] */\n      dup2\n        /* \"NFT-versions/secondary.sol\":6233:6265  payable(bidder).transfer(amount) */\n      dup2\n      dup6\n        /* \"NFT-versions/secondary.sol\":6233:6257  payable(bidder).transfer */\n      dup9\n        /* \"NFT-versions/secondary.sol\":6233:6265  payable(bidder).transfer(amount) */\n      dup9\n      call\n      swap4\n      pop\n      pop\n      pop\n      pop\n      iszero\n      dup1\n      iszero\n      tag_178\n      jumpi\n      returndatasize\n      0x00\n      dup1\n      returndatacopy\n      revert(0x00, returndatasize)\n    tag_178:\n      pop\n        /* \"NFT-versions/secondary.sol\":6301:6307  bidder */\n      dup2\n      sub(shl(0xa0, 0x01), 0x01)\n        /* \"NFT-versions/secondary.sol\":6288:6316  RefundIssued(bidder, amount) */\n      and\n      0xa171b6942063c6f2800ce40a780edce37baa2b618571b11eedd1e69e626e7d76\n        /* \"NFT-versions/secondary.sol\":6309:6315  amount */\n      dup3\n        /* \"NFT-versions/secondary.sol\":6288:6316  RefundIssued(bidder, amount) */\n      mload(0x40)\n      tag_179\n      swap2\n        /* \"#utility.yul\":1102:1127   */\n      dup2\n      mstore\n        /* \"#utility.yul\":1090:1092   */\n      0x20\n        /* \"#utility.yul\":1075:1093   */\n      add\n      swap1\n        /* \"#utility.yul\":956:1133   */\n      jump\n        /* \"NFT-versions/secondary.sol\":6288:6316  RefundIssued(bidder, amount) */\n    tag_179:\n      mload(0x40)\n      dup1\n      swap2\n      sub\n      swap1\n      log2\n        /* \"NFT-versions/secondary.sol\":6015:6331  {... */\n      pop\n      pop\n        /* \"NFT-versions/secondary.sol\":5974:6331  if (listingBids[_listingId][i].isActive) {... */\n    tag_167:\n        /* \"NFT-versions/secondary.sol\":5955:5958  i++ */\n      0x01\n      add\n        /* \"NFT-versions/secondary.sol\":5899:6341  for (uint256 i = 0; i < listingBids[_listingId].length; i++) {... */\n      jump(tag_161)\n        /* \"NFT-versions/secondary.sol\":5255:5826  function _refundUnsuccessfulBids(uint256 _listingId, uint256 _winningBidIndex) internal {... */\n    tag_118:\n        /* \"NFT-versions/secondary.sol\":5358:5367  uint256 i */\n      0x00\n        /* \"NFT-versions/secondary.sol\":5353:5820  for (uint256 i = 0; i < listingBids[_listingId].length; i++) {... */\n    tag_182:\n        /* \"NFT-versions/secondary.sol\":5377:5400  listingBids[_listingId] */\n      0x00\n      dup4\n      dup2\n      mstore\n        /* \"NFT-versions/secondary.sol\":5377:5388  listingBids */\n      0x03\n        /* \"NFT-versions/secondary.sol\":5377:5400  listingBids[_listingId] */\n      0x20\n      mstore\n      0x40\n      swap1\n      keccak256\n        /* \"NFT-versions/secondary.sol\":5377:5407  listingBids[_listingId].length */\n      sload\n        /* \"NFT-versions/secondary.sol\":5373:5407  i < listingBids[_listingId].length */\n      dup2\n      lt\n        /* \"NFT-versions/secondary.sol\":5353:5820  for (uint256 i = 0; i < listingBids[_listingId].length; i++) {... */\n      iszero\n      tag_183\n      jumpi\n        /* \"NFT-versions/secondary.sol\":5437:5453  _winningBidIndex */\n      dup2\n        /* \"NFT-versions/secondary.sol\":5432:5433  i */\n      dup2\n        /* \"NFT-versions/secondary.sol\":5432:5453  i != _winningBidIndex */\n      eq\n      iszero\n        /* \"NFT-versions/secondary.sol\":5432:5492  i != _winningBidIndex && listingBids[_listingId][i].isActive */\n      dup1\n      iszero\n      tag_185\n      jumpi\n      pop\n        /* \"NFT-versions/secondary.sol\":5457:5480  listingBids[_listingId] */\n      0x00\n      dup4\n      dup2\n      mstore\n        /* \"NFT-versions/secondary.sol\":5457:5468  listingBids */\n      0x03\n        /* \"NFT-versions/secondary.sol\":5457:5480  listingBids[_listingId] */\n      0x20\n      mstore\n      0x40\n      swap1\n      keccak256\n        /* \"NFT-versions/secondary.sol\":5457:5483  listingBids[_listingId][i] */\n      dup1\n      sload\n        /* \"NFT-versions/secondary.sol\":5481:5482  i */\n      dup3\n      swap1\n        /* \"NFT-versions/secondary.sol\":5457:5483  listingBids[_listingId][i] */\n      dup2\n      lt\n      tag_187\n      jumpi\n      tag_187\n      tag_99\n      jump\t// in\n    tag_187:\n      0x00\n      swap2\n      dup3\n      mstore\n      0x20\n      swap1\n      swap2\n      keccak256\n        /* \"NFT-versions/secondary.sol\":5457:5492  listingBids[_listingId][i].isActive */\n      0x02\n        /* \"NFT-versions/secondary.sol\":5457:5483  listingBids[_listingId][i] */\n      0x03\n      swap1\n      swap3\n      mul\n      add\n        /* \"NFT-versions/secondary.sol\":5457:5492  listingBids[_listingId][i].isActive */\n      add\n      sload\n      0xff\n      and\n        /* \"NFT-versions/secondary.sol\":5432:5492  i != _winningBidIndex && listingBids[_listingId][i].isActive */\n    tag_185:\n        /* \"NFT-versions/secondary.sol\":5428:5810  if (i != _winningBidIndex && listingBids[_listingId][i].isActive) {... */\n      iszero\n      tag_189\n      jumpi\n        /* \"NFT-versions/secondary.sol\":5512:5526  address bidder */\n      0x00\n        /* \"NFT-versions/secondary.sol\":5529:5552  listingBids[_listingId] */\n      dup4\n      dup2\n      mstore\n        /* \"NFT-versions/secondary.sol\":5529:5540  listingBids */\n      0x03\n        /* \"NFT-versions/secondary.sol\":5529:5552  listingBids[_listingId] */\n      0x20\n      mstore\n      0x40\n      dup2\n      keccak256\n        /* \"NFT-versions/secondary.sol\":5529:5555  listingBids[_listingId][i] */\n      dup1\n      sload\n        /* \"NFT-versions/secondary.sol\":5553:5554  i */\n      dup4\n      swap1\n        /* \"NFT-versions/secondary.sol\":5529:5555  listingBids[_listingId][i] */\n      dup2\n      lt\n      tag_191\n      jumpi\n      tag_191\n      tag_99\n      jump\t// in\n    tag_191:\n      0x00\n      swap2\n      dup3\n      mstore\n      0x20\n      dup1\n      dup4\n      keccak256\n      0x03\n      swap3\n      dup4\n      mul\n      add\n        /* \"NFT-versions/secondary.sol\":5529:5562  listingBids[_listingId][i].bidder */\n      sload\n        /* \"NFT-versions/secondary.sol\":5597:5620  listingBids[_listingId] */\n      dup8\n      dup5\n      mstore\n      swap2\n      swap1\n      mstore\n      0x40\n      dup3\n      keccak256\n        /* \"NFT-versions/secondary.sol\":5597:5623  listingBids[_listingId][i] */\n      dup1\n      sload\n      sub(shl(0xa0, 0x01), 0x01)\n        /* \"NFT-versions/secondary.sol\":5529:5562  listingBids[_listingId][i].bidder */\n      swap1\n      swap3\n      and\n      swap4\n      pop\n        /* \"NFT-versions/secondary.sol\":5597:5620  listingBids[_listingId] */\n      swap1\n        /* \"NFT-versions/secondary.sol\":5621:5622  i */\n      dup5\n      swap1\n        /* \"NFT-versions/secondary.sol\":5597:5623  listingBids[_listingId][i] */\n      dup2\n      lt\n      tag_194\n      jumpi\n      tag_194\n      tag_99\n      jump\t// in\n    tag_194:\n      swap1\n      0x00\n      mstore\n      keccak256(0x00, 0x20)\n      swap1\n      0x03\n      mul\n      add\n        /* \"NFT-versions/secondary.sol\":5597:5633  listingBids[_listingId][i].bidAmount */\n      0x01\n      add\n      sload\n        /* \"NFT-versions/secondary.sol\":5580:5633  uint256 amount = listingBids[_listingId][i].bidAmount */\n      swap1\n      pop\n        /* \"NFT-versions/secondary.sol\":5689:5694  false */\n      0x00\n        /* \"NFT-versions/secondary.sol\":5651:5662  listingBids */\n      0x03\n        /* \"NFT-versions/secondary.sol\":5651:5674  listingBids[_listingId] */\n      0x00\n        /* \"NFT-versions/secondary.sol\":5663:5673  _listingId */\n      dup8\n        /* \"NFT-versions/secondary.sol\":5651:5674  listingBids[_listingId] */\n      dup2\n      mstore\n      0x20\n      add\n      swap1\n      dup2\n      mstore\n      0x20\n      add\n      0x00\n      keccak256\n        /* \"NFT-versions/secondary.sol\":5675:5676  i */\n      dup5\n        /* \"NFT-versions/secondary.sol\":5651:5677  listingBids[_listingId][i] */\n      dup2\n      sload\n      dup2\n      lt\n      tag_197\n      jumpi\n      tag_197\n      tag_99\n      jump\t// in\n    tag_197:\n      0x00\n      swap2\n      dup3\n      mstore\n      0x20\n      dup3\n      keccak256\n      0x03\n      swap2\n      swap1\n      swap2\n      mul\n      add\n        /* \"NFT-versions/secondary.sol\":5651:5686  listingBids[_listingId][i].isActive */\n      0x02\n      add\n        /* \"NFT-versions/secondary.sol\":5651:5694  listingBids[_listingId][i].isActive = false */\n      dup1\n      sload\n      not(0xff)\n      and\n      swap3\n      iszero\n      iszero\n      swap3\n      swap1\n      swap3\n      or\n      swap1\n      swap2\n      sstore\n        /* \"NFT-versions/secondary.sol\":5712:5744  payable(bidder).transfer(amount) */\n      mload(0x40)\n      sub(shl(0xa0, 0x01), 0x01)\n        /* \"NFT-versions/secondary.sol\":5712:5736  payable(bidder).transfer */\n      dup5\n      and\n      swap2\n        /* \"NFT-versions/secondary.sol\":5712:5744  payable(bidder).transfer(amount) */\n      0x08fc\n      dup5\n      iszero\n      mul\n      swap2\n      dup5\n      swap2\n      dup2\n        /* \"NFT-versions/secondary.sol\":5651:5677  listingBids[_listingId][i] */\n      dup2\n        /* \"NFT-versions/secondary.sol\":5712:5744  payable(bidder).transfer(amount) */\n      dup2\n      dup6\n        /* \"NFT-versions/secondary.sol\":5712:5736  payable(bidder).transfer */\n      dup9\n        /* \"NFT-versions/secondary.sol\":5712:5744  payable(bidder).transfer(amount) */\n      dup9\n      call\n      swap4\n      pop\n      pop\n      pop\n      pop\n      iszero\n      dup1\n      iszero\n      tag_200\n      jumpi\n      returndatasize\n      0x00\n      dup1\n      returndatacopy\n      revert(0x00, returndatasize)\n    tag_200:\n      pop\n        /* \"NFT-versions/secondary.sol\":5780:5786  bidder */\n      dup2\n      sub(shl(0xa0, 0x01), 0x01)\n        /* \"NFT-versions/secondary.sol\":5767:5795  RefundIssued(bidder, amount) */\n      and\n      0xa171b6942063c6f2800ce40a780edce37baa2b618571b11eedd1e69e626e7d76\n        /* \"NFT-versions/secondary.sol\":5788:5794  amount */\n      dup3\n        /* \"NFT-versions/secondary.sol\":5767:5795  RefundIssued(bidder, amount) */\n      mload(0x40)\n      tag_201\n      swap2\n        /* \"#utility.yul\":1102:1127   */\n      dup2\n      mstore\n        /* \"#utility.yul\":1090:1092   */\n      0x20\n        /* \"#utility.yul\":1075:1093   */\n      add\n      swap1\n        /* \"#utility.yul\":956:1133   */\n      jump\n        /* \"NFT-versions/secondary.sol\":5767:5795  RefundIssued(bidder, amount) */\n    tag_201:\n      mload(0x40)\n      dup1\n      swap2\n      sub\n      swap1\n      log2\n        /* \"NFT-versions/secondary.sol\":5494:5810  {... */\n      pop\n      pop\n        /* \"NFT-versions/secondary.sol\":5428:5810  if (i != _winningBidIndex && listingBids[_listingId][i].isActive) {... */\n    tag_189:\n        /* \"NFT-versions/secondary.sol\":5409:5412  i++ */\n      0x01\n      add\n        /* \"NFT-versions/secondary.sol\":5353:5820  for (uint256 i = 0; i < listingBids[_listingId].length; i++) {... */\n      jump(tag_182)\n    tag_183:\n      pop\n        /* \"NFT-versions/secondary.sol\":5255:5826  function _refundUnsuccessfulBids(uint256 _listingId, uint256 _winningBidIndex) internal {... */\n      pop\n      pop\n      jump\t// out\n        /* \"#utility.yul\":14:240   */\n    tag_13:\n        /* \"#utility.yul\":73:79   */\n      0x00\n        /* \"#utility.yul\":126:128   */\n      0x20\n        /* \"#utility.yul\":114:123   */\n      dup3\n        /* \"#utility.yul\":105:112   */\n      dup5\n        /* \"#utility.yul\":101:124   */\n      sub\n        /* \"#utility.yul\":97:129   */\n      slt\n        /* \"#utility.yul\":94:146   */\n      iszero\n      tag_204\n      jumpi\n        /* \"#utility.yul\":142:143   */\n      0x00\n        /* \"#utility.yul\":139:140   */\n      dup1\n        /* \"#utility.yul\":132:144   */\n      revert\n        /* \"#utility.yul\":94:146   */\n    tag_204:\n      pop\n        /* \"#utility.yul\":187:210   */\n      calldataload\n      swap2\n        /* \"#utility.yul\":14:240   */\n      swap1\n      pop\n      jump\t// out\n        /* \"#utility.yul\":245:591   */\n    tag_21:\n        /* \"#utility.yul\":313:319   */\n      0x00\n        /* \"#utility.yul\":321:327   */\n      dup1\n        /* \"#utility.yul\":374:376   */\n      0x40\n        /* \"#utility.yul\":362:371   */\n      dup4\n        /* \"#utility.yul\":353:360   */\n      dup6\n        /* \"#utility.yul\":349:372   */\n      sub\n        /* \"#utility.yul\":345:377   */\n      slt\n        /* \"#utility.yul\":342:394   */\n      iszero\n      tag_206\n      jumpi\n        /* \"#utility.yul\":390:391   */\n      0x00\n        /* \"#utility.yul\":387:388   */\n      dup1\n        /* \"#utility.yul\":380:392   */\n      revert\n        /* \"#utility.yul\":342:394   */\n    tag_206:\n      pop\n      pop\n        /* \"#utility.yul\":435:458   */\n      dup1\n      calldataload\n      swap3\n        /* \"#utility.yul\":555:557   */\n      0x20\n        /* \"#utility.yul\":540:558   */\n      swap1\n      swap2\n      add\n        /* \"#utility.yul\":527:559   */\n      calldataload\n      swap2\n      pop\n        /* \"#utility.yul\":245:591   */\n      jump\t// out\n        /* \"#utility.yul\":2226:2568   */\n    tag_58:\n        /* \"#utility.yul\":2428:2430   */\n      0x20\n        /* \"#utility.yul\":2410:2431   */\n      dup1\n      dup3\n      mstore\n        /* \"#utility.yul\":2467:2469   */\n      0x12\n        /* \"#utility.yul\":2447:2465   */\n      swap1\n      dup3\n      add\n        /* \"#utility.yul\":2440:2470   */\n      mstore\n      shl(0x70, 0x4c697374696e67206e6f7420616374697665)\n        /* \"#utility.yul\":2501:2503   */\n      0x40\n        /* \"#utility.yul\":2486:2504   */\n      dup3\n      add\n        /* \"#utility.yul\":2479:2527   */\n      mstore\n        /* \"#utility.yul\":2559:2561   */\n      0x60\n        /* \"#utility.yul\":2544:2562   */\n      add\n      swap1\n        /* \"#utility.yul\":2226:2568   */\n      jump\t// out\n        /* \"#utility.yul\":2573:2922   */\n    tag_61:\n        /* \"#utility.yul\":2775:2777   */\n      0x20\n        /* \"#utility.yul\":2757:2778   */\n      dup1\n      dup3\n      mstore\n        /* \"#utility.yul\":2814:2816   */\n      0x19\n        /* \"#utility.yul\":2794:2812   */\n      swap1\n      dup3\n      add\n        /* \"#utility.yul\":2787:2817   */\n      mstore\n      shl(0x3a, 0x131a5cdd1a5b99c8185b1c9958591e4818dbdb5c1b195d1959)\n        /* \"#utility.yul\":2848:2850   */\n      0x40\n        /* \"#utility.yul\":2833:2851   */\n      dup3\n      add\n        /* \"#utility.yul\":2826:2881   */\n      mstore\n        /* \"#utility.yul\":2913:2915   */\n      0x60\n        /* \"#utility.yul\":2898:2916   */\n      add\n      swap1\n        /* \"#utility.yul\":2573:2922   */\n      jump\t// out\n        /* \"#utility.yul\":3992:4119   */\n    tag_99:\n        /* \"#utility.yul\":4053:4063   */\n      0x4e487b71\n        /* \"#utility.yul\":4048:4051   */\n      0xe0\n        /* \"#utility.yul\":4044:4064   */\n      shl\n        /* \"#utility.yul\":4041:4042   */\n      0x00\n        /* \"#utility.yul\":4034:4065   */\n      mstore\n        /* \"#utility.yul\":4084:4088   */\n      0x32\n        /* \"#utility.yul\":4081:4082   */\n      0x04\n        /* \"#utility.yul\":4074:4089   */\n      mstore\n        /* \"#utility.yul\":4108:4112   */\n      0x24\n        /* \"#utility.yul\":4105:4106   */\n      0x00\n        /* \"#utility.yul\":4098:4113   */\n      revert\n        /* \"#utility.yul\":4500:4855   */\n    tag_116:\n        /* \"#utility.yul\":4721:4735   */\n      swap3\n      iszero\n        /* \"#utility.yul\":4714:4736   */\n      iszero\n        /* \"#utility.yul\":4696:4737   */\n      dup4\n      mstore\n      sub(shl(0xa0, 0x01), 0x01)\n        /* \"#utility.yul\":4773:4805   */\n      swap2\n      swap1\n      swap2\n      and\n        /* \"#utility.yul\":4768:4770   */\n      0x20\n        /* \"#utility.yul\":4753:4771   */\n      dup4\n      add\n        /* \"#utility.yul\":4746:4806   */\n      mstore\n        /* \"#utility.yul\":4837:4839   */\n      0x40\n        /* \"#utility.yul\":4822:4840   */\n      dup3\n      add\n        /* \"#utility.yul\":4815:4849   */\n      mstore\n        /* \"#utility.yul\":4684:4686   */\n      0x60\n        /* \"#utility.yul\":4669:4687   */\n      add\n      swap1\n        /* \"#utility.yul\":4500:4855   */\n      jump\t// out\n        /* \"#utility.yul\":5228:5518   */\n    tag_131:\n        /* \"#utility.yul\":5298:5304   */\n      0x00\n        /* \"#utility.yul\":5351:5353   */\n      0x20\n        /* \"#utility.yul\":5339:5348   */\n      dup3\n        /* \"#utility.yul\":5330:5337   */\n      dup5\n        /* \"#utility.yul\":5326:5349   */\n      sub\n        /* \"#utility.yul\":5322:5354   */\n      slt\n        /* \"#utility.yul\":5319:5371   */\n      iszero\n      tag_222\n      jumpi\n        /* \"#utility.yul\":5367:5368   */\n      0x00\n        /* \"#utility.yul\":5364:5365   */\n      dup1\n        /* \"#utility.yul\":5357:5369   */\n      revert\n        /* \"#utility.yul\":5319:5371   */\n    tag_222:\n        /* \"#utility.yul\":5393:5409   */\n      dup2\n      mload\n      sub(shl(0xa0, 0x01), 0x01)\n        /* \"#utility.yul\":5438:5469   */\n      dup2\n      and\n        /* \"#utility.yul\":5428:5470   */\n      dup2\n      eq\n        /* \"#utility.yul\":5418:5488   */\n      tag_223\n      jumpi\n        /* \"#utility.yul\":5484:5485   */\n      0x00\n        /* \"#utility.yul\":5481:5482   */\n      dup1\n        /* \"#utility.yul\":5474:5486   */\n      revert\n        /* \"#utility.yul\":5418:5488   */\n    tag_223:\n        /* \"#utility.yul\":5507:5512   */\n      swap4\n        /* \"#utility.yul\":5228:5518   */\n      swap3\n      pop\n      pop\n      pop\n      jump\t// out\n        /* \"#utility.yul\":6184:6461   */\n    tag_140:\n        /* \"#utility.yul\":6251:6257   */\n      0x00\n        /* \"#utility.yul\":6304:6306   */\n      0x20\n        /* \"#utility.yul\":6292:6301   */\n      dup3\n        /* \"#utility.yul\":6283:6290   */\n      dup5\n        /* \"#utility.yul\":6279:6302   */\n      sub\n        /* \"#utility.yul\":6275:6307   */\n      slt\n        /* \"#utility.yul\":6272:6324   */\n      iszero\n      tag_227\n      jumpi\n        /* \"#utility.yul\":6320:6321   */\n      0x00\n        /* \"#utility.yul\":6317:6318   */\n      dup1\n        /* \"#utility.yul\":6310:6322   */\n      revert\n        /* \"#utility.yul\":6272:6324   */\n    tag_227:\n        /* \"#utility.yul\":6352:6361   */\n      dup2\n        /* \"#utility.yul\":6346:6362   */\n      mload\n        /* \"#utility.yul\":6405:6410   */\n      dup1\n        /* \"#utility.yul\":6398:6411   */\n      iszero\n        /* \"#utility.yul\":6391:6412   */\n      iszero\n        /* \"#utility.yul\":6384:6389   */\n      dup2\n        /* \"#utility.yul\":6381:6413   */\n      eq\n        /* \"#utility.yul\":6371:6431   */\n      tag_223\n      jumpi\n        /* \"#utility.yul\":6427:6428   */\n      0x00\n        /* \"#utility.yul\":6424:6425   */\n      dup1\n        /* \"#utility.yul\":6417:6429   */\n      revert\n        /* \"#utility.yul\":7233:7465   */\n    tag_153:\n        /* \"#utility.yul\":7272:7275   */\n      0x00\n        /* \"#utility.yul\":7293:7310   */\n      0x01\n      dup3\n      add\n        /* \"#utility.yul\":7290:7430   */\n      tag_232\n      jumpi\n        /* \"#utility.yul\":7352:7362   */\n      0x4e487b71\n        /* \"#utility.yul\":7347:7350   */\n      0xe0\n        /* \"#utility.yul\":7343:7363   */\n      shl\n        /* \"#utility.yul\":7340:7341   */\n      0x00\n        /* \"#utility.yul\":7333:7364   */\n      mstore\n        /* \"#utility.yul\":7387:7391   */\n      0x11\n        /* \"#utility.yul\":7384:7385   */\n      0x04\n        /* \"#utility.yul\":7377:7392   */\n      mstore\n        /* \"#utility.yul\":7415:7419   */\n      0x24\n        /* \"#utility.yul\":7412:7413   */\n      0x00\n        /* \"#utility.yul\":7405:7420   */\n      revert\n        /* \"#utility.yul\":7290:7430   */\n    tag_232:\n      pop\n        /* \"#utility.yul\":7457:7458   */\n      0x01\n        /* \"#utility.yul\":7446:7459   */\n      add\n      swap1\n        /* \"#utility.yul\":7233:7465   */\n      jump\t// out\n\n    auxdata: 0xa2646970667358221220e662720a9f9fa07556d285ad8ecccc68ead23381ae38a6e05bf3b156e63b58ff64736f6c634300081d0033\n}\n",
				"bytecode": {
					"linkReferences": {},
					"object": "6080604052348015600f57600080fd5b50604051611148380380611148833981016040819052602c916055565b6001600081905580546001600160a01b0319166001600160a01b03929092169190911790556083565b600060208284031215606657600080fd5b81516001600160a01b0381168114607c57600080fd5b9392505050565b6110b6806100926000396000f3fe60806040526004361061006b5760003560e01c8063305a67a8146100705780639979ef45146100925780639da0e1dd146100a5578063a137454a146100f1578063a79123a914610111578063a9b07c2614610131578063d56d229d14610155578063de74e57b1461018d575b600080fd5b34801561007c57600080fd5b5061009061008b366004610f36565b61021a565b005b6100906100a0366004610f36565b61032b565b3480156100b157600080fd5b506100c56100c0366004610f4f565b6104f6565b604080516001600160a01b03909416845260208401929092521515908201526060015b60405180910390f35b3480156100fd57600080fd5b5061009061010c366004610f36565b610545565b34801561011d57600080fd5b5061009061012c366004610f4f565b610851565b34801561013d57600080fd5b5061014760045481565b6040519081526020016100e8565b34801561016157600080fd5b50600154610175906001600160a01b031681565b6040516001600160a01b0390911681526020016100e8565b34801561019957600080fd5b506101e66101a8366004610f36565b6002602081905260009182526040909120805460018201549282015460039092015490926001600160a01b0316919060ff8082169161010090041685565b604080519586526001600160a01b03909416602086015292840191909152151560608301521515608082015260a0016100e8565b610222610bac565b600081815260026020526040902060018101546001600160a01b0316331461028a5760405162461bcd60e51b815260206004820152601660248201527513db9b1e481cd95b1b195c8818d85b8818d85b98d95b60521b60448201526064015b60405180910390fd5b600381015460ff166102ae5760405162461bcd60e51b815260040161028190610f71565b6003810154610100900460ff16156102d85760405162461bcd60e51b815260040161028190610f9d565b60038101805461ffff19166101001790556102f282610c05565b60405182907f411aee90354c51b1b04cd563fcab2617142a9d50da19232d888547c8a1b7fd8a90600090a2506103286001600055565b50565b610333610bac565b6000818152600260205260409020600381015460ff166103655760405162461bcd60e51b815260040161028190610f71565b6003810154610100900460ff161561038f5760405162461bcd60e51b815260040161028190610f9d565b60018101546001600160a01b031633036103eb5760405162461bcd60e51b815260206004820181905260248201527f53656c6c65722063616e6e6f7420626964206f6e206f776e206c697374696e676044820152606401610281565b80600201543410156104395760405162461bcd60e51b81526020600482015260176024820152764269642062656c6f77206d696e696d756d20707269636560481b6044820152606401610281565b600082815260036020818152604080842081516060810183523380825234828601818152600184870181815286548083018855968b529988902094519590980290930180546001600160a01b0319166001600160a01b0390951694909417845591519583019590955594516002909101805460ff191691151591909117905551928352909184917f0e54eff26401bf69b81b26f60bd85ef47f5d85275c1d268d84f68d6897431c47910160405180910390a3506103286001600055565b6003602052816000526040600020818154811061051257600080fd5b60009182526020909120600390910201805460018201546002909201546001600160a01b03909116935090915060ff1683565b61054d610bac565b6000818152600260205260409020600381015460ff1661057f5760405162461bcd60e51b815260040161028190610f71565b6003810154610100900460ff16156105a95760405162461bcd60e51b815260040161028190610f9d565b60018101546001600160a01b031633146105ff5760405162461bcd60e51b8152602060048201526017602482015276556e617574686f72697a656420746f206578656375746560481b6044820152606401610281565b60038101805461ffff19166101001790556000808080805b6000878152600360205260409020548110156106a457600087815260036020526040812080548390811061064d5761064d610fd0565b60009182526020909120600390910201600281015490915060ff1680156106775750858160010154115b1561069b5760018082015482549097506001600160a01b0316955091935090915082905b50600101610617565b508080156106b6575084600201548410155b156107fa5760008681526003602052604081208054849081106106db576106db610fd0565b60009182526020822060039190910201600201805460ff19169215159290921790915560018601546040516001600160a01b03909116916108fc871502918791818181858888f19350505050158015610738573d6000803e3d6000fd5b5060018054908601548654604051632142170760e11b81526001600160a01b039283166004820152868316602482015260448101919091529116906342842e0e90606401600060405180830381600087803b15801561079657600080fd5b505af11580156107aa573d6000803e3d6000fd5b50505050857fa61f9b5a0a92578ea5cd1dbc470c2f232a62ecfdabb857db6ca084ee2b5ac335600185876040516107e393929190610fe6565b60405180910390a26107f58683610d95565b610842565b61080386610c05565b857fa61f9b5a0a92578ea5cd1dbc470c2f232a62ecfdabb857db6ca084ee2b5ac335600080600060405161083993929190610fe6565b60405180910390a25b50505050506103286001600055565b610859610bac565b6001546040516331a9108f60e11b81526004810184905233916001600160a01b031690636352211e90602401602060405180830381865afa1580156108a2573d6000803e3d6000fd5b505050506040513d601f19601f820116820180604052508101906108c69190611007565b6001600160a01b03161461091c5760405162461bcd60e51b815260206004820152601b60248201527f4e6f7420746865206f776e6572206f66207468697320746f6b656e00000000006044820152606401610281565b60015460405163e985e9c560e01b81523360048201523060248201526001600160a01b039091169063e985e9c590604401602060405180830381865afa15801561096a573d6000803e3d6000fd5b505050506040513d601f19601f8201168201806040525081019061098e9190611037565b80610a0c575060015460405163020604bf60e21b81526004810184905230916001600160a01b03169063081812fc90602401602060405180830381865afa1580156109dd573d6000803e3d6000fd5b505050506040513d601f19601f82011682018060405250810190610a019190611007565b6001600160a01b0316145b610a685760405162461bcd60e51b815260206004820152602760248201527f436f6e7472616374206e6f7420617070726f76656420746f207472616e73666560448201526639103a37b5b2b760c91b6064820152608401610281565b60008111610ab85760405162461bcd60e51b815260206004820152601e60248201527f4d696e696d756d207072696365206d75737420626520706f73697469766500006044820152606401610281565b60048054906000610ac883611059565b90915550506040805160a0810182528381523360208083018281528385018681526001606086018181526000608088018181526004805483526002808952928b902099518a55955193890180546001600160a01b0319166001600160a01b0390951694909417909355925192870192909255905160039095018054915161ffff1990921695151561ff001916959095176101009115159190910217909355915492518481529092859290917f8093adc67e6531e4dcb9f96fe66947096b91ad10573e8136f8ef1a1cebe2fad6910160405180910390a4610ba86001600055565b5050565b600260005403610bfe5760405162461bcd60e51b815260206004820152601f60248201527f5265656e7472616e637947756172643a207265656e7472616e742063616c6c006044820152606401610281565b6002600055565b60005b600082815260036020526040902054811015610ba8576000828152600360205260409020805482908110610c3e57610c3e610fd0565b600091825260209091206002600390920201015460ff1615610d8d576000828152600360205260408120805483908110610c7a57610c7a610fd0565b60009182526020808320600392830201548684529190526040822080546001600160a01b0390921693509084908110610cb557610cb5610fd0565b90600052602060002090600302016001015490506000600360008681526020019081526020016000208481548110610cef57610cef610fd0565b60009182526020822060039190910201600201805460ff1916921515929092179091556040516001600160a01b038416916108fc841502918491818181858888f19350505050158015610d46573d6000803e3d6000fd5b50816001600160a01b03167fa171b6942063c6f2800ce40a780edce37baa2b618571b11eedd1e69e626e7d7682604051610d8291815260200190565b60405180910390a250505b600101610c08565b60005b600083815260036020526040902054811015610f3157818114158015610df157506000838152600360205260409020805482908110610dd957610dd9610fd0565b600091825260209091206002600390920201015460ff165b15610f29576000838152600360205260408120805483908110610e1657610e16610fd0565b60009182526020808320600392830201548784529190526040822080546001600160a01b0390921693509084908110610e5157610e51610fd0565b90600052602060002090600302016001015490506000600360008781526020019081526020016000208481548110610e8b57610e8b610fd0565b60009182526020822060039190910201600201805460ff1916921515929092179091556040516001600160a01b038416916108fc841502918491818181858888f19350505050158015610ee2573d6000803e3d6000fd5b50816001600160a01b03167fa171b6942063c6f2800ce40a780edce37baa2b618571b11eedd1e69e626e7d7682604051610f1e91815260200190565b60405180910390a250505b600101610d98565b505050565b600060208284031215610f4857600080fd5b5035919050565b60008060408385031215610f6257600080fd5b50508035926020909101359150565b6020808252601290820152714c697374696e67206e6f742061637469766560701b604082015260600190565b602080825260199082015278131a5cdd1a5b99c8185b1c9958591e4818dbdb5c1b195d1959603a1b604082015260600190565b634e487b7160e01b600052603260045260246000fd5b92151583526001600160a01b03919091166020830152604082015260600190565b60006020828403121561101957600080fd5b81516001600160a01b038116811461103057600080fd5b9392505050565b60006020828403121561104957600080fd5b8151801515811461103057600080fd5b60006001820161107957634e487b7160e01b600052601160045260246000fd5b506001019056fea2646970667358221220e662720a9f9fa07556d285ad8ecccc68ead23381ae38a6e05bf3b156e63b58ff64736f6c634300081d0033",
					"opcodes": "PUSH1 0x80 PUSH1 0x40 MSTORE CALLVALUE DUP1 ISZERO PUSH1 0xF JUMPI PUSH1 0x0 DUP1 REVERT JUMPDEST POP PUSH1 0x40 MLOAD PUSH2 0x1148 CODESIZE SUB DUP1 PUSH2 0x1148 DUP4 CODECOPY DUP2 ADD PUSH1 0x40 DUP2 SWAP1 MSTORE PUSH1 0x2C SWAP2 PUSH1 0x55 JUMP JUMPDEST PUSH1 0x1 PUSH1 0x0 DUP2 SWAP1 SSTORE DUP1 SLOAD PUSH1 0x1 PUSH1 0x1 PUSH1 0xA0 SHL SUB NOT AND PUSH1 0x1 PUSH1 0x1 PUSH1 0xA0 SHL SUB SWAP3 SWAP1 SWAP3 AND SWAP2 SWAP1 SWAP2 OR SWAP1 SSTORE PUSH1 0x83 JUMP JUMPDEST PUSH1 0x0 PUSH1 0x20 DUP3 DUP5 SUB SLT ISZERO PUSH1 0x66 JUMPI PUSH1 0x0 DUP1 REVERT JUMPDEST DUP2 MLOAD PUSH1 0x1 PUSH1 0x1 PUSH1 0xA0 SHL SUB DUP2 AND DUP2 EQ PUSH1 0x7C JUMPI PUSH1 0x0 DUP1 REVERT JUMPDEST SWAP4 SWAP3 POP POP POP JUMP JUMPDEST PUSH2 0x10B6 DUP1 PUSH2 0x92 PUSH1 0x0 CODECOPY PUSH1 0x0 RETURN INVALID PUSH1 0x80 PUSH1 0x40 MSTORE PUSH1 0x4 CALLDATASIZE LT PUSH2 0x6B JUMPI PUSH1 0x0 CALLDATALOAD PUSH1 0xE0 SHR DUP1 PUSH4 0x305A67A8 EQ PUSH2 0x70 JUMPI DUP1 PUSH4 0x9979EF45 EQ PUSH2 0x92 JUMPI DUP1 PUSH4 0x9DA0E1DD EQ PUSH2 0xA5 JUMPI DUP1 PUSH4 0xA137454A EQ PUSH2 0xF1 JUMPI DUP1 PUSH4 0xA79123A9 EQ PUSH2 0x111 JUMPI DUP1 PUSH4 0xA9B07C26 EQ PUSH2 0x131 JUMPI DUP1 PUSH4 0xD56D229D EQ PUSH2 0x155 JUMPI DUP1 PUSH4 0xDE74E57B EQ PUSH2 0x18D JUMPI JUMPDEST PUSH1 0x0 DUP1 REVERT JUMPDEST CALLVALUE DUP1 ISZERO PUSH2 0x7C JUMPI PUSH1 0x0 DUP1 REVERT JUMPDEST POP PUSH2 0x90 PUSH2 0x8B CALLDATASIZE PUSH1 0x4 PUSH2 0xF36 JUMP JUMPDEST PUSH2 0x21A JUMP JUMPDEST STOP JUMPDEST PUSH2 0x90 PUSH2 0xA0 CALLDATASIZE PUSH1 0x4 PUSH2 0xF36 JUMP JUMPDEST PUSH2 0x32B JUMP JUMPDEST CALLVALUE DUP1 ISZERO PUSH2 0xB1 JUMPI PUSH1 0x0 DUP1 REVERT JUMPDEST POP PUSH2 0xC5 PUSH2 0xC0 CALLDATASIZE PUSH1 0x4 PUSH2 0xF4F JUMP JUMPDEST PUSH2 0x4F6 JUMP JUMPDEST PUSH1 0x40 DUP1 MLOAD PUSH1 0x1 PUSH1 0x1 PUSH1 0xA0 SHL SUB SWAP1 SWAP5 AND DUP5 MSTORE PUSH1 0x20 DUP5 ADD SWAP3 SWAP1 SWAP3 MSTORE ISZERO ISZERO SWAP1 DUP3 ADD MSTORE PUSH1 0x60 ADD JUMPDEST PUSH1 0x40 MLOAD DUP1 SWAP2 SUB SWAP1 RETURN JUMPDEST CALLVALUE DUP1 ISZERO PUSH2 0xFD JUMPI PUSH1 0x0 DUP1 REVERT JUMPDEST POP PUSH2 0x90 PUSH2 0x10C CALLDATASIZE PUSH1 0x4 PUSH2 0xF36 JUMP JUMPDEST PUSH2 0x545 JUMP JUMPDEST CALLVALUE DUP1 ISZERO PUSH2 0x11D JUMPI PUSH1 0x0 DUP1 REVERT JUMPDEST POP PUSH2 0x90 PUSH2 0x12C CALLDATASIZE PUSH1 0x4 PUSH2 0xF4F JUMP JUMPDEST PUSH2 0x851 JUMP JUMPDEST CALLVALUE DUP1 ISZERO PUSH2 0x13D JUMPI PUSH1 0x0 DUP1 REVERT JUMPDEST POP PUSH2 0x147 PUSH1 0x4 SLOAD DUP2 JUMP JUMPDEST PUSH1 0x40 MLOAD SWAP1 DUP2 MSTORE PUSH1 0x20 ADD PUSH2 0xE8 JUMP JUMPDEST CALLVALUE DUP1 ISZERO PUSH2 0x161 JUMPI PUSH1 0x0 DUP1 REVERT JUMPDEST POP PUSH1 0x1 SLOAD PUSH2 0x175 SWAP1 PUSH1 0x1 PUSH1 0x1 PUSH1 0xA0 SHL SUB AND DUP2 JUMP JUMPDEST PUSH1 0x40 MLOAD PUSH1 0x1 PUSH1 0x1 PUSH1 0xA0 SHL SUB SWAP1 SWAP2 AND DUP2 MSTORE PUSH1 0x20 ADD PUSH2 0xE8 JUMP JUMPDEST CALLVALUE DUP1 ISZERO PUSH2 0x199 JUMPI PUSH1 0x0 DUP1 REVERT JUMPDEST POP PUSH2 0x1E6 PUSH2 0x1A8 CALLDATASIZE PUSH1 0x4 PUSH2 0xF36 JUMP JUMPDEST PUSH1 0x2 PUSH1 0x20 DUP2 SWAP1 MSTORE PUSH1 0x0 SWAP2 DUP3 MSTORE PUSH1 0x40 SWAP1 SWAP2 KECCAK256 DUP1 SLOAD PUSH1 0x1 DUP3 ADD SLOAD SWAP3 DUP3 ADD SLOAD PUSH1 0x3 SWAP1 SWAP3 ADD SLOAD SWAP1 SWAP3 PUSH1 0x1 PUSH1 0x1 PUSH1 0xA0 SHL SUB AND SWAP2 SWAP1 PUSH1 0xFF DUP1 DUP3 AND SWAP2 PUSH2 0x100 SWAP1 DIV AND DUP6 JUMP JUMPDEST PUSH1 0x40 DUP1 MLOAD SWAP6 DUP7 MSTORE PUSH1 0x1 PUSH1 0x1 PUSH1 0xA0 SHL SUB SWAP1 SWAP5 AND PUSH1 0x20 DUP7 ADD MSTORE SWAP3 DUP5 ADD SWAP2 SWAP1 SWAP2 MSTORE ISZERO ISZERO PUSH1 0x60 DUP4 ADD MSTORE ISZERO ISZERO PUSH1 0x80 DUP3 ADD MSTORE PUSH1 0xA0 ADD PUSH2 0xE8 JUMP JUMPDEST PUSH2 0x222 PUSH2 0xBAC JUMP JUMPDEST PUSH1 0x0 DUP2 DUP2 MSTORE PUSH1 0x2 PUSH1 0x20 MSTORE PUSH1 0x40 SWAP1 KECCAK256 PUSH1 0x1 DUP2 ADD SLOAD PUSH1 0x1 PUSH1 0x1 PUSH1 0xA0 SHL SUB AND CALLER EQ PUSH2 0x28A JUMPI PUSH1 0x40 MLOAD PUSH3 0x461BCD PUSH1 0xE5 SHL DUP2 MSTORE PUSH1 0x20 PUSH1 0x4 DUP3 ADD MSTORE PUSH1 0x16 PUSH1 0x24 DUP3 ADD MSTORE PUSH22 0x13DB9B1E481CD95B1B195C8818D85B8818D85B98D95B PUSH1 0x52 SHL PUSH1 0x44 DUP3 ADD MSTORE PUSH1 0x64 ADD JUMPDEST PUSH1 0x40 MLOAD DUP1 SWAP2 SUB SWAP1 REVERT JUMPDEST PUSH1 0x3 DUP2 ADD SLOAD PUSH1 0xFF AND PUSH2 0x2AE JUMPI PUSH1 0x40 MLOAD PUSH3 0x461BCD PUSH1 0xE5 SHL DUP2 MSTORE PUSH1 0x4 ADD PUSH2 0x281 SWAP1 PUSH2 0xF71 JUMP JUMPDEST PUSH1 0x3 DUP2 ADD SLOAD PUSH2 0x100 SWAP1 DIV PUSH1 0xFF AND ISZERO PUSH2 0x2D8 JUMPI PUSH1 0x40 MLOAD PUSH3 0x461BCD PUSH1 0xE5 SHL DUP2 MSTORE PUSH1 0x4 ADD PUSH2 0x281 SWAP1 PUSH2 0xF9D JUMP JUMPDEST PUSH1 0x3 DUP2 ADD DUP1 SLOAD PUSH2 0xFFFF NOT AND PUSH2 0x100 OR SWAP1 SSTORE PUSH2 0x2F2 DUP3 PUSH2 0xC05 JUMP JUMPDEST PUSH1 0x40 MLOAD DUP3 SWAP1 PUSH32 0x411AEE90354C51B1B04CD563FCAB2617142A9D50DA19232D888547C8A1B7FD8A SWAP1 PUSH1 0x0 SWAP1 LOG2 POP PUSH2 0x328 PUSH1 0x1 PUSH1 0x0 SSTORE JUMP JUMPDEST POP JUMP JUMPDEST PUSH2 0x333 PUSH2 0xBAC JUMP JUMPDEST PUSH1 0x0 DUP2 DUP2 MSTORE PUSH1 0x2 PUSH1 0x20 MSTORE PUSH1 0x40 SWAP1 KECCAK256 PUSH1 0x3 DUP2 ADD SLOAD PUSH1 0xFF AND PUSH2 0x365 JUMPI PUSH1 0x40 MLOAD PUSH3 0x461BCD PUSH1 0xE5 SHL DUP2 MSTORE PUSH1 0x4 ADD PUSH2 0x281 SWAP1 PUSH2 0xF71 JUMP JUMPDEST PUSH1 0x3 DUP2 ADD SLOAD PUSH2 0x100 SWAP1 DIV PUSH1 0xFF AND ISZERO PUSH2 0x38F JUMPI PUSH1 0x40 MLOAD PUSH3 0x461BCD PUSH1 0xE5 SHL DUP2 MSTORE PUSH1 0x4 ADD PUSH2 0x281 SWAP1 PUSH2 0xF9D JUMP JUMPDEST PUSH1 0x1 DUP2 ADD SLOAD PUSH1 0x1 PUSH1 0x1 PUSH1 0xA0 SHL SUB AND CALLER SUB PUSH2 0x3EB JUMPI PUSH1 0x40 MLOAD PUSH3 0x461BCD PUSH1 0xE5 SHL DUP2 MSTORE PUSH1 0x20 PUSH1 0x4 DUP3 ADD DUP2 SWAP1 MSTORE PUSH1 0x24 DUP3 ADD MSTORE PUSH32 0x53656C6C65722063616E6E6F7420626964206F6E206F776E206C697374696E67 PUSH1 0x44 DUP3 ADD MSTORE PUSH1 0x64 ADD PUSH2 0x281 JUMP JUMPDEST DUP1 PUSH1 0x2 ADD SLOAD CALLVALUE LT ISZERO PUSH2 0x439 JUMPI PUSH1 0x40 MLOAD PUSH3 0x461BCD PUSH1 0xE5 SHL DUP2 MSTORE PUSH1 0x20 PUSH1 0x4 DUP3 ADD MSTORE PUSH1 0x17 PUSH1 0x24 DUP3 ADD MSTORE PUSH23 0x4269642062656C6F77206D696E696D756D207072696365 PUSH1 0x48 SHL PUSH1 0x44 DUP3 ADD MSTORE PUSH1 0x64 ADD PUSH2 0x281 JUMP JUMPDEST PUSH1 0x0 DUP3 DUP2 MSTORE PUSH1 0x3 PUSH1 0x20 DUP2 DUP2 MSTORE PUSH1 0x40 DUP1 DUP5 KECCAK256 DUP2 MLOAD PUSH1 0x60 DUP2 ADD DUP4 MSTORE CALLER DUP1 DUP3 MSTORE CALLVALUE DUP3 DUP7 ADD DUP2 DUP2 MSTORE PUSH1 0x1 DUP5 DUP8 ADD DUP2 DUP2 MSTORE DUP7 SLOAD DUP1 DUP4 ADD DUP9 SSTORE SWAP7 DUP12 MSTORE SWAP10 DUP9 SWAP1 KECCAK256 SWAP5 MLOAD SWAP6 SWAP1 SWAP9 MUL SWAP1 SWAP4 ADD DUP1 SLOAD PUSH1 0x1 PUSH1 0x1 PUSH1 0xA0 SHL SUB NOT AND PUSH1 0x1 PUSH1 0x1 PUSH1 0xA0 SHL SUB SWAP1 SWAP6 AND SWAP5 SWAP1 SWAP5 OR DUP5 SSTORE SWAP2 MLOAD SWAP6 DUP4 ADD SWAP6 SWAP1 SWAP6 SSTORE SWAP5 MLOAD PUSH1 0x2 SWAP1 SWAP2 ADD DUP1 SLOAD PUSH1 0xFF NOT AND SWAP2 ISZERO ISZERO SWAP2 SWAP1 SWAP2 OR SWAP1 SSTORE MLOAD SWAP3 DUP4 MSTORE SWAP1 SWAP2 DUP5 SWAP2 PUSH32 0xE54EFF26401BF69B81B26F60BD85EF47F5D85275C1D268D84F68D6897431C47 SWAP2 ADD PUSH1 0x40 MLOAD DUP1 SWAP2 SUB SWAP1 LOG3 POP PUSH2 0x328 PUSH1 0x1 PUSH1 0x0 SSTORE JUMP JUMPDEST PUSH1 0x3 PUSH1 0x20 MSTORE DUP2 PUSH1 0x0 MSTORE PUSH1 0x40 PUSH1 0x0 KECCAK256 DUP2 DUP2 SLOAD DUP2 LT PUSH2 0x512 JUMPI PUSH1 0x0 DUP1 REVERT JUMPDEST PUSH1 0x0 SWAP2 DUP3 MSTORE PUSH1 0x20 SWAP1 SWAP2 KECCAK256 PUSH1 0x3 SWAP1 SWAP2 MUL ADD DUP1 SLOAD PUSH1 0x1 DUP3 ADD SLOAD PUSH1 0x2 SWAP1 SWAP3 ADD SLOAD PUSH1 0x1 PUSH1 0x1 PUSH1 0xA0 SHL SUB SWAP1 SWAP2 AND SWAP4 POP SWAP1 SWAP2 POP PUSH1 0xFF AND DUP4 JUMP JUMPDEST PUSH2 0x54D PUSH2 0xBAC JUMP JUMPDEST PUSH1 0x0 DUP2 DUP2 MSTORE PUSH1 0x2 PUSH1 0x20 MSTORE PUSH1 0x40 SWAP1 KECCAK256 PUSH1 0x3 DUP2 ADD SLOAD PUSH1 0xFF AND PUSH2 0x57F JUMPI PUSH1 0x40 MLOAD PUSH3 0x461BCD PUSH1 0xE5 SHL DUP2 MSTORE PUSH1 0x4 ADD PUSH2 0x281 SWAP1 PUSH2 0xF71 JUMP JUMPDEST PUSH1 0x3 DUP2 ADD SLOAD PUSH2 0x100 SWAP1 DIV PUSH1 0xFF AND ISZERO PUSH2 0x5A9 JUMPI PUSH1 0x40 MLOAD PUSH3 0x461BCD PUSH1 0xE5 SHL DUP2 MSTORE PUSH1 0x4 ADD PUSH2 0x281 SWAP1 PUSH2 0xF9D JUMP JUMPDEST PUSH1 0x1 DUP2 ADD SLOAD PUSH1 0x1 PUSH1 0x1 PUSH1 0xA0 SHL SUB AND CALLER EQ PUSH2 0x5FF JUMPI PUSH1 0x40 MLOAD PUSH3 0x461BCD PUSH1 0xE5 SHL DUP2 MSTORE PUSH1 0x20 PUSH1 0x4 DUP3 ADD MSTORE PUSH1 0x17 PUSH1 0x24 DUP3 ADD MSTORE PUSH23 0x556E617574686F72697A656420746F2065786563757465 PUSH1 0x48 SHL PUSH1 0x44 DUP3 ADD MSTORE PUSH1 0x64 ADD PUSH2 0x281 JUMP JUMPDEST PUSH1 0x3 DUP2 ADD DUP1 SLOAD PUSH2 0xFFFF NOT AND PUSH2 0x100 OR SWAP1 SSTORE PUSH1 0x0 DUP1 DUP1 DUP1 DUP1 JUMPDEST PUSH1 0x0 DUP8 DUP2 MSTORE PUSH1 0x3 PUSH1 0x20 MSTORE PUSH1 0x40 SWAP1 KECCAK256 SLOAD DUP2 LT ISZERO PUSH2 0x6A4 JUMPI PUSH1 0x0 DUP8 DUP2 MSTORE PUSH1 0x3 PUSH1 0x20 MSTORE PUSH1 0x40 DUP2 KECCAK256 DUP1 SLOAD DUP4 SWAP1 DUP2 LT PUSH2 0x64D JUMPI PUSH2 0x64D PUSH2 0xFD0 JUMP JUMPDEST PUSH1 0x0 SWAP2 DUP3 MSTORE PUSH1 0x20 SWAP1 SWAP2 KECCAK256 PUSH1 0x3 SWAP1 SWAP2 MUL ADD PUSH1 0x2 DUP2 ADD SLOAD SWAP1 SWAP2 POP PUSH1 0xFF AND DUP1 ISZERO PUSH2 0x677 JUMPI POP DUP6 DUP2 PUSH1 0x1 ADD SLOAD GT JUMPDEST ISZERO PUSH2 0x69B JUMPI PUSH1 0x1 DUP1 DUP3 ADD SLOAD DUP3 SLOAD SWAP1 SWAP8 POP PUSH1 0x1 PUSH1 0x1 PUSH1 0xA0 SHL SUB AND SWAP6 POP SWAP2 SWAP4 POP SWAP1 SWAP2 POP DUP3 SWAP1 JUMPDEST POP PUSH1 0x1 ADD PUSH2 0x617 JUMP JUMPDEST POP DUP1 DUP1 ISZERO PUSH2 0x6B6 JUMPI POP DUP5 PUSH1 0x2 ADD SLOAD DUP5 LT ISZERO JUMPDEST ISZERO PUSH2 0x7FA JUMPI PUSH1 0x0 DUP7 DUP2 MSTORE PUSH1 0x3 PUSH1 0x20 MSTORE PUSH1 0x40 DUP2 KECCAK256 DUP1 SLOAD DUP5 SWAP1 DUP2 LT PUSH2 0x6DB JUMPI PUSH2 0x6DB PUSH2 0xFD0 JUMP JUMPDEST PUSH1 0x0 SWAP2 DUP3 MSTORE PUSH1 0x20 DUP3 KECCAK256 PUSH1 0x3 SWAP2 SWAP1 SWAP2 MUL ADD PUSH1 0x2 ADD DUP1 SLOAD PUSH1 0xFF NOT AND SWAP3 ISZERO ISZERO SWAP3 SWAP1 SWAP3 OR SWAP1 SWAP2 SSTORE PUSH1 0x1 DUP7 ADD SLOAD PUSH1 0x40 MLOAD PUSH1 0x1 PUSH1 0x1 PUSH1 0xA0 SHL SUB SWAP1 SWAP2 AND SWAP2 PUSH2 0x8FC DUP8 ISZERO MUL SWAP2 DUP8 SWAP2 DUP2 DUP2 DUP2 DUP6 DUP9 DUP9 CALL SWAP4 POP POP POP POP ISZERO DUP1 ISZERO PUSH2 0x738 JUMPI RETURNDATASIZE PUSH1 0x0 DUP1 RETURNDATACOPY RETURNDATASIZE PUSH1 0x0 REVERT JUMPDEST POP PUSH1 0x1 DUP1 SLOAD SWAP1 DUP7 ADD SLOAD DUP7 SLOAD PUSH1 0x40 MLOAD PUSH4 0x21421707 PUSH1 0xE1 SHL DUP2 MSTORE PUSH1 0x1 PUSH1 0x1 PUSH1 0xA0 SHL SUB SWAP3 DUP4 AND PUSH1 0x4 DUP3 ADD MSTORE DUP7 DUP4 AND PUSH1 0x24 DUP3 ADD MSTORE PUSH1 0x44 DUP2 ADD SWAP2 SWAP1 SWAP2 MSTORE SWAP2 AND SWAP1 PUSH4 0x42842E0E SWAP1 PUSH1 0x64 ADD PUSH1 0x0 PUSH1 0x40 MLOAD DUP1 DUP4 SUB DUP2 PUSH1 0x0 DUP8 DUP1 EXTCODESIZE ISZERO DUP1 ISZERO PUSH2 0x796 JUMPI PUSH1 0x0 DUP1 REVERT JUMPDEST POP GAS CALL ISZERO DUP1 ISZERO PUSH2 0x7AA JUMPI RETURNDATASIZE PUSH1 0x0 DUP1 RETURNDATACOPY RETURNDATASIZE PUSH1 0x0 REVERT JUMPDEST POP POP POP POP DUP6 PUSH32 0xA61F9B5A0A92578EA5CD1DBC470C2F232A62ECFDABB857DB6CA084EE2B5AC335 PUSH1 0x1 DUP6 DUP8 PUSH1 0x40 MLOAD PUSH2 0x7E3 SWAP4 SWAP3 SWAP2 SWAP1 PUSH2 0xFE6 JUMP JUMPDEST PUSH1 0x40 MLOAD DUP1 SWAP2 SUB SWAP1 LOG2 PUSH2 0x7F5 DUP7 DUP4 PUSH2 0xD95 JUMP JUMPDEST PUSH2 0x842 JUMP JUMPDEST PUSH2 0x803 DUP7 PUSH2 0xC05 JUMP JUMPDEST DUP6 PUSH32 0xA61F9B5A0A92578EA5CD1DBC470C2F232A62ECFDABB857DB6CA084EE2B5AC335 PUSH1 0x0 DUP1 PUSH1 0x0 PUSH1 0x40 MLOAD PUSH2 0x839 SWAP4 SWAP3 SWAP2 SWAP1 PUSH2 0xFE6 JUMP JUMPDEST PUSH1 0x40 MLOAD DUP1 SWAP2 SUB SWAP1 LOG2 JUMPDEST POP POP POP POP POP PUSH2 0x328 PUSH1 0x1 PUSH1 0x0 SSTORE JUMP JUMPDEST PUSH2 0x859 PUSH2 0xBAC JUMP JUMPDEST PUSH1 0x1 SLOAD PUSH1 0x40 MLOAD PUSH4 0x31A9108F PUSH1 0xE1 SHL DUP2 MSTORE PUSH1 0x4 DUP2 ADD DUP5 SWAP1 MSTORE CALLER SWAP2 PUSH1 0x1 PUSH1 0x1 PUSH1 0xA0 SHL SUB AND SWAP1 PUSH4 0x6352211E SWAP1 PUSH1 0x24 ADD PUSH1 0x20 PUSH1 0x40 MLOAD DUP1 DUP4 SUB DUP2 DUP7 GAS STATICCALL ISZERO DUP1 ISZERO PUSH2 0x8A2 JUMPI RETURNDATASIZE PUSH1 0x0 DUP1 RETURNDATACOPY RETURNDATASIZE PUSH1 0x0 REVERT JUMPDEST POP POP POP POP PUSH1 0x40 MLOAD RETURNDATASIZE PUSH1 0x1F NOT PUSH1 0x1F DUP3 ADD AND DUP3 ADD DUP1 PUSH1 0x40 MSTORE POP DUP2 ADD SWAP1 PUSH2 0x8C6 SWAP2 SWAP1 PUSH2 0x1007 JUMP JUMPDEST PUSH1 0x1 PUSH1 0x1 PUSH1 0xA0 SHL SUB AND EQ PUSH2 0x91C JUMPI PUSH1 0x40 MLOAD PUSH3 0x461BCD PUSH1 0xE5 SHL DUP2 MSTORE PUSH1 0x20 PUSH1 0x4 DUP3 ADD MSTORE PUSH1 0x1B PUSH1 0x24 DUP3 ADD MSTORE PUSH32 0x4E6F7420746865206F776E6572206F66207468697320746F6B656E0000000000 PUSH1 0x44 DUP3 ADD MSTORE PUSH1 0x64 ADD PUSH2 0x281 JUMP JUMPDEST PUSH1 0x1 SLOAD PUSH1 0x40 MLOAD PUSH4 0xE985E9C5 PUSH1 0xE0 SHL DUP2 MSTORE CALLER PUSH1 0x4 DUP3 ADD MSTORE ADDRESS PUSH1 0x24 DUP3 ADD MSTORE PUSH1 0x1 PUSH1 0x1 PUSH1 0xA0 SHL SUB SWAP1 SWAP2 AND SWAP1 PUSH4 0xE985E9C5 SWAP1 PUSH1 0x44 ADD PUSH1 0x20 PUSH1 0x40 MLOAD DUP1 DUP4 SUB DUP2 DUP7 GAS STATICCALL ISZERO DUP1 ISZERO PUSH2 0x96A JUMPI RETURNDATASIZE PUSH1 0x0 DUP1 RETURNDATACOPY RETURNDATASIZE PUSH1 0x0 REVERT JUMPDEST POP POP POP POP PUSH1 0x40 MLOAD RETURNDATASIZE PUSH1 0x1F NOT PUSH1 0x1F DUP3 ADD AND DUP3 ADD DUP1 PUSH1 0x40 MSTORE POP DUP2 ADD SWAP1 PUSH2 0x98E SWAP2 SWAP1 PUSH2 0x1037 JUMP JUMPDEST DUP1 PUSH2 0xA0C JUMPI POP PUSH1 0x1 SLOAD PUSH1 0x40 MLOAD PUSH4 0x20604BF PUSH1 0xE2 SHL DUP2 MSTORE PUSH1 0x4 DUP2 ADD DUP5 SWAP1 MSTORE ADDRESS SWAP2 PUSH1 0x1 PUSH1 0x1 PUSH1 0xA0 SHL SUB AND SWAP1 PUSH4 0x81812FC SWAP1 PUSH1 0x24 ADD PUSH1 0x20 PUSH1 0x40 MLOAD DUP1 DUP4 SUB DUP2 DUP7 GAS STATICCALL ISZERO DUP1 ISZERO PUSH2 0x9DD JUMPI RETURNDATASIZE PUSH1 0x0 DUP1 RETURNDATACOPY RETURNDATASIZE PUSH1 0x0 REVERT JUMPDEST POP POP POP POP PUSH1 0x40 MLOAD RETURNDATASIZE PUSH1 0x1F NOT PUSH1 0x1F DUP3 ADD AND DUP3 ADD DUP1 PUSH1 0x40 MSTORE POP DUP2 ADD SWAP1 PUSH2 0xA01 SWAP2 SWAP1 PUSH2 0x1007 JUMP JUMPDEST PUSH1 0x1 PUSH1 0x1 PUSH1 0xA0 SHL SUB AND EQ JUMPDEST PUSH2 0xA68 JUMPI PUSH1 0x40 MLOAD PUSH3 0x461BCD PUSH1 0xE5 SHL DUP2 MSTORE PUSH1 0x20 PUSH1 0x4 DUP3 ADD MSTORE PUSH1 0x27 PUSH1 0x24 DUP3 ADD MSTORE PUSH32 0x436F6E7472616374206E6F7420617070726F76656420746F207472616E736665 PUSH1 0x44 DUP3 ADD MSTORE PUSH7 0x39103A37B5B2B7 PUSH1 0xC9 SHL PUSH1 0x64 DUP3 ADD MSTORE PUSH1 0x84 ADD PUSH2 0x281 JUMP JUMPDEST PUSH1 0x0 DUP2 GT PUSH2 0xAB8 JUMPI PUSH1 0x40 MLOAD PUSH3 0x461BCD PUSH1 0xE5 SHL DUP2 MSTORE PUSH1 0x20 PUSH1 0x4 DUP3 ADD MSTORE PUSH1 0x1E PUSH1 0x24 DUP3 ADD MSTORE PUSH32 0x4D696E696D756D207072696365206D75737420626520706F7369746976650000 PUSH1 0x44 DUP3 ADD MSTORE PUSH1 0x64 ADD PUSH2 0x281 JUMP JUMPDEST PUSH1 0x4 DUP1 SLOAD SWAP1 PUSH1 0x0 PUSH2 0xAC8 DUP4 PUSH2 0x1059 JUMP JUMPDEST SWAP1 SWAP2 SSTORE POP POP PUSH1 0x40 DUP1 MLOAD PUSH1 0xA0 DUP2 ADD DUP3 MSTORE DUP4 DUP2 MSTORE CALLER PUSH1 0x20 DUP1 DUP4 ADD DUP3 DUP2 MSTORE DUP4 DUP6 ADD DUP7 DUP2 MSTORE PUSH1 0x1 PUSH1 0x60 DUP7 ADD DUP2 DUP2 MSTORE PUSH1 0x0 PUSH1 0x80 DUP9 ADD DUP2 DUP2 MSTORE PUSH1 0x4 DUP1 SLOAD DUP4 MSTORE PUSH1 0x2 DUP1 DUP10 MSTORE SWAP3 DUP12 SWAP1 KECCAK256 SWAP10 MLOAD DUP11 SSTORE SWAP6 MLOAD SWAP4 DUP10 ADD DUP1 SLOAD PUSH1 0x1 PUSH1 0x1 PUSH1 0xA0 SHL SUB NOT AND PUSH1 0x1 PUSH1 0x1 PUSH1 0xA0 SHL SUB SWAP1 SWAP6 AND SWAP5 SWAP1 SWAP5 OR SWAP1 SWAP4 SSTORE SWAP3 MLOAD SWAP3 DUP8 ADD SWAP3 SWAP1 SWAP3 SSTORE SWAP1 MLOAD PUSH1 0x3 SWAP1 SWAP6 ADD DUP1 SLOAD SWAP2 MLOAD PUSH2 0xFFFF NOT SWAP1 SWAP3 AND SWAP6 ISZERO ISZERO PUSH2 0xFF00 NOT AND SWAP6 SWAP1 SWAP6 OR PUSH2 0x100 SWAP2 ISZERO ISZERO SWAP2 SWAP1 SWAP2 MUL OR SWAP1 SWAP4 SSTORE SWAP2 SLOAD SWAP3 MLOAD DUP5 DUP2 MSTORE SWAP1 SWAP3 DUP6 SWAP3 SWAP1 SWAP2 PUSH32 0x8093ADC67E6531E4DCB9F96FE66947096B91AD10573E8136F8EF1A1CEBE2FAD6 SWAP2 ADD PUSH1 0x40 MLOAD DUP1 SWAP2 SUB SWAP1 LOG4 PUSH2 0xBA8 PUSH1 0x1 PUSH1 0x0 SSTORE JUMP JUMPDEST POP POP JUMP JUMPDEST PUSH1 0x2 PUSH1 0x0 SLOAD SUB PUSH2 0xBFE JUMPI PUSH1 0x40 MLOAD PUSH3 0x461BCD PUSH1 0xE5 SHL DUP2 MSTORE PUSH1 0x20 PUSH1 0x4 DUP3 ADD MSTORE PUSH1 0x1F PUSH1 0x24 DUP3 ADD MSTORE PUSH32 0x5265656E7472616E637947756172643A207265656E7472616E742063616C6C00 PUSH1 0x44 DUP3 ADD MSTORE PUSH1 0x64 ADD PUSH2 0x281 JUMP JUMPDEST PUSH1 0x2 PUSH1 0x0 SSTORE JUMP JUMPDEST PUSH1 0x0 JUMPDEST PUSH1 0x0 DUP3 DUP2 MSTORE PUSH1 0x3 PUSH1 0x20 MSTORE PUSH1 0x40 SWAP1 KECCAK256 SLOAD DUP2 LT ISZERO PUSH2 0xBA8 JUMPI PUSH1 0x0 DUP3 DUP2 MSTORE PUSH1 0x3 PUSH1 0x20 MSTORE PUSH1 0x40 SWAP1 KECCAK256 DUP1 SLOAD DUP3 SWAP1 DUP2 LT PUSH2 0xC3E JUMPI PUSH2 0xC3E PUSH2 0xFD0 JUMP JUMPDEST PUSH1 0x0 SWAP2 DUP3 MSTORE PUSH1 0x20 SWAP1 SWAP2 KECCAK256 PUSH1 0x2 PUSH1 0x3 SWAP1 SWAP3 MUL ADD ADD SLOAD PUSH1 0xFF AND ISZERO PUSH2 0xD8D JUMPI PUSH1 0x0 DUP3 DUP2 MSTORE PUSH1 0x3 PUSH1 0x20 MSTORE PUSH1 0x40 DUP2 KECCAK256 DUP1 SLOAD DUP4 SWAP1 DUP2 LT PUSH2 0xC7A JUMPI PUSH2 0xC7A PUSH2 0xFD0 JUMP JUMPDEST PUSH1 0x0 SWAP2 DUP3 MSTORE PUSH1 0x20 DUP1 DUP4 KECCAK256 PUSH1 0x3 SWAP3 DUP4 MUL ADD SLOAD DUP7 DUP5 MSTORE SWAP2 SWAP1 MSTORE PUSH1 0x40 DUP3 KECCAK256 DUP1 SLOAD PUSH1 0x1 PUSH1 0x1 PUSH1 0xA0 SHL SUB SWAP1 SWAP3 AND SWAP4 POP SWAP1 DUP5 SWAP1 DUP2 LT PUSH2 0xCB5 JUMPI PUSH2 0xCB5 PUSH2 0xFD0 JUMP JUMPDEST SWAP1 PUSH1 0x0 MSTORE PUSH1 0x20 PUSH1 0x0 KECCAK256 SWAP1 PUSH1 0x3 MUL ADD PUSH1 0x1 ADD SLOAD SWAP1 POP PUSH1 0x0 PUSH1 0x3 PUSH1 0x0 DUP7 DUP2 MSTORE PUSH1 0x20 ADD SWAP1 DUP2 MSTORE PUSH1 0x20 ADD PUSH1 0x0 KECCAK256 DUP5 DUP2 SLOAD DUP2 LT PUSH2 0xCEF JUMPI PUSH2 0xCEF PUSH2 0xFD0 JUMP JUMPDEST PUSH1 0x0 SWAP2 DUP3 MSTORE PUSH1 0x20 DUP3 KECCAK256 PUSH1 0x3 SWAP2 SWAP1 SWAP2 MUL ADD PUSH1 0x2 ADD DUP1 SLOAD PUSH1 0xFF NOT AND SWAP3 ISZERO ISZERO SWAP3 SWAP1 SWAP3 OR SWAP1 SWAP2 SSTORE PUSH1 0x40 MLOAD PUSH1 0x1 PUSH1 0x1 PUSH1 0xA0 SHL SUB DUP5 AND SWAP2 PUSH2 0x8FC DUP5 ISZERO MUL SWAP2 DUP5 SWAP2 DUP2 DUP2 DUP2 DUP6 DUP9 DUP9 CALL SWAP4 POP POP POP POP ISZERO DUP1 ISZERO PUSH2 0xD46 JUMPI RETURNDATASIZE PUSH1 0x0 DUP1 RETURNDATACOPY RETURNDATASIZE PUSH1 0x0 REVERT JUMPDEST POP DUP2 PUSH1 0x1 PUSH1 0x1 PUSH1 0xA0 SHL SUB AND PUSH32 0xA171B6942063C6F2800CE40A780EDCE37BAA2B618571B11EEDD1E69E626E7D76 DUP3 PUSH1 0x40 MLOAD PUSH2 0xD82 SWAP2 DUP2 MSTORE PUSH1 0x20 ADD SWAP1 JUMP JUMPDEST PUSH1 0x40 MLOAD DUP1 SWAP2 SUB SWAP1 LOG2 POP POP JUMPDEST PUSH1 0x1 ADD PUSH2 0xC08 JUMP JUMPDEST PUSH1 0x0 JUMPDEST PUSH1 0x0 DUP4 DUP2 MSTORE PUSH1 0x3 PUSH1 0x20 MSTORE PUSH1 0x40 SWAP1 KECCAK256 SLOAD DUP2 LT ISZERO PUSH2 0xF31 JUMPI DUP2 DUP2 EQ ISZERO DUP1 ISZERO PUSH2 0xDF1 JUMPI POP PUSH1 0x0 DUP4 DUP2 MSTORE PUSH1 0x3 PUSH1 0x20 MSTORE PUSH1 0x40 SWAP1 KECCAK256 DUP1 SLOAD DUP3 SWAP1 DUP2 LT PUSH2 0xDD9 JUMPI PUSH2 0xDD9 PUSH2 0xFD0 JUMP JUMPDEST PUSH1 0x0 SWAP2 DUP3 MSTORE PUSH1 0x20 SWAP1 SWAP2 KECCAK256 PUSH1 0x2 PUSH1 0x3 SWAP1 SWAP3 MUL ADD ADD SLOAD PUSH1 0xFF AND JUMPDEST ISZERO PUSH2 0xF29 JUMPI PUSH1 0x0 DUP4 DUP2 MSTORE PUSH1 0x3 PUSH1 0x20 MSTORE PUSH1 0x40 DUP2 KECCAK256 DUP1 SLOAD DUP4 SWAP1 DUP2 LT PUSH2 0xE16 JUMPI PUSH2 0xE16 PUSH2 0xFD0 JUMP JUMPDEST PUSH1 0x0 SWAP2 DUP3 MSTORE PUSH1 0x20 DUP1 DUP4 KECCAK256 PUSH1 0x3 SWAP3 DUP4 MUL ADD SLOAD DUP8 DUP5 MSTORE SWAP2 SWAP1 MSTORE PUSH1 0x40 DUP3 KECCAK256 DUP1 SLOAD PUSH1 0x1 PUSH1 0x1 PUSH1 0xA0 SHL SUB SWAP1 SWAP3 AND SWAP4 POP SWAP1 DUP5 SWAP1 DUP2 LT PUSH2 0xE51 JUMPI PUSH2 0xE51 PUSH2 0xFD0 JUMP JUMPDEST SWAP1 PUSH1 0x0 MSTORE PUSH1 0x20 PUSH1 0x0 KECCAK256 SWAP1 PUSH1 0x3 MUL ADD PUSH1 0x1 ADD SLOAD SWAP1 POP PUSH1 0x0 PUSH1 0x3 PUSH1 0x0 DUP8 DUP2 MSTORE PUSH1 0x20 ADD SWAP1 DUP2 MSTORE PUSH1 0x20 ADD PUSH1 0x0 KECCAK256 DUP5 DUP2 SLOAD DUP2 LT PUSH2 0xE8B JUMPI PUSH2 0xE8B PUSH2 0xFD0 JUMP JUMPDEST PUSH1 0x0 SWAP2 DUP3 MSTORE PUSH1 0x20 DUP3 KECCAK256 PUSH1 0x3 SWAP2 SWAP1 SWAP2 MUL ADD PUSH1 0x2 ADD DUP1 SLOAD PUSH1 0xFF NOT AND SWAP3 ISZERO ISZERO SWAP3 SWAP1 SWAP3 OR SWAP1 SWAP2 SSTORE PUSH1 0x40 MLOAD PUSH1 0x1 PUSH1 0x1 PUSH1 0xA0 SHL SUB DUP5 AND SWAP2 PUSH2 0x8FC DUP5 ISZERO MUL SWAP2 DUP5 SWAP2 DUP2 DUP2 DUP2 DUP6 DUP9 DUP9 CALL SWAP4 POP POP POP POP ISZERO DUP1 ISZERO PUSH2 0xEE2 JUMPI RETURNDATASIZE PUSH1 0x0 DUP1 RETURNDATACOPY RETURNDATASIZE PUSH1 0x0 REVERT JUMPDEST POP DUP2 PUSH1 0x1 PUSH1 0x1 PUSH1 0xA0 SHL SUB AND PUSH32 0xA171B6942063C6F2800CE40A780EDCE37BAA2B618571B11EEDD1E69E626E7D76 DUP3 PUSH1 0x40 MLOAD PUSH2 0xF1E SWAP2 DUP2 MSTORE PUSH1 0x20 ADD SWAP1 JUMP JUMPDEST PUSH1 0x40 MLOAD DUP1 SWAP2 SUB SWAP1 LOG2 POP POP JUMPDEST PUSH1 0x1 ADD PUSH2 0xD98 JUMP JUMPDEST POP POP POP JUMP JUMPDEST PUSH1 0x0 PUSH1 0x20 DUP3 DUP5 SUB SLT ISZERO PUSH2 0xF48 JUMPI PUSH1 0x0 DUP1 REVERT JUMPDEST POP CALLDATALOAD SWAP2 SWAP1 POP JUMP JUMPDEST PUSH1 0x0 DUP1 PUSH1 0x40 DUP4 DUP6 SUB SLT ISZERO PUSH2 0xF62 JUMPI PUSH1 0x0 DUP1 REVERT JUMPDEST POP POP DUP1 CALLDATALOAD SWAP3 PUSH1 0x20 SWAP1 SWAP2 ADD CALLDATALOAD SWAP2 POP JUMP JUMPDEST PUSH1 0x20 DUP1 DUP3 MSTORE PUSH1 0x12 SWAP1 DUP3 ADD MSTORE PUSH18 0x4C697374696E67206E6F7420616374697665 PUSH1 0x70 SHL PUSH1 0x40 DUP3 ADD MSTORE PUSH1 0x60 ADD SWAP1 JUMP JUMPDEST PUSH1 0x20 DUP1 DUP3 MSTORE PUSH1 0x19 SWAP1 DUP3 ADD MSTORE PUSH25 0x131A5CDD1A5B99C8185B1C9958591E4818DBDB5C1B195D1959 PUSH1 0x3A SHL PUSH1 0x40 DUP3 ADD MSTORE PUSH1 0x60 ADD SWAP1 JUMP JUMPDEST PUSH4 0x4E487B71 PUSH1 0xE0 SHL PUSH1 0x0 MSTORE PUSH1 0x32 PUSH1 0x4 MSTORE PUSH1 0x24 PUSH1 0x0 REVERT JUMPDEST SWAP3 ISZERO ISZERO DUP4 MSTORE PUSH1 0x1 PUSH1 0x1 PUSH1 0xA0 SHL SUB SWAP2 SWAP1 SWAP2 AND PUSH1 0x20 DUP4 ADD MSTORE PUSH1 0x40 DUP3 ADD MSTORE PUSH1 0x60 ADD SWAP1 JUMP JUMPDEST PUSH1 0x0 PUSH1 0x20 DUP3 DUP5 SUB SLT ISZERO PUSH2 0x1019 JUMPI PUSH1 0x0 DUP1 REVERT JUMPDEST DUP2 MLOAD PUSH1 0x1 PUSH1 0x1 PUSH1 0xA0 SHL SUB DUP2 AND DUP2 EQ PUSH2 0x1030 JUMPI PUSH1 0x0 DUP1 REVERT JUMPDEST SWAP4 SWAP3 POP POP POP JUMP JUMPDEST PUSH1 0x0 PUSH1 0x20 DUP3 DUP5 SUB SLT ISZERO PUSH2 0x1049 JUMPI PUSH1 0x0 DUP1 REVERT JUMPDEST DUP2 MLOAD DUP1 ISZERO ISZERO DUP2 EQ PUSH2 0x1030 JUMPI PUSH1 0x0 DUP1 REVERT JUMPDEST PUSH1 0x0 PUSH1 0x1 DUP3 ADD PUSH2 0x1079 JUMPI PUSH4 0x4E487B71 PUSH1 0xE0 SHL PUSH1 0x0 MSTORE PUSH1 0x11 PUSH1 0x4 MSTORE PUSH1 0x24 PUSH1 0x0 REVERT JUMPDEST POP PUSH1 0x1 ADD SWAP1 JUMP INVALID LOG2 PUSH5 0x6970667358 0x22 SLT KECCAK256 DUPN 0x62 PUSH19 0xA9F9FA07556D285AD8ECCCC68EAD23381AE38 0xA6 RJUMP 0x5BF3 0xB1 JUMP DUPN 0x3B PC SELFDESTRUCT PUSH5 0x736F6C6343 STOP ADDMOD SAR STOP CALLER "
				},
				"gasEstimates": {
					"creation": {
						"codeDepositCost": "855600",
						"executionCost": "infinite",
						"totalCost": "infinite"
					},
					"external": {
						"cancelListing(uint256)": "infinite",
						"createListing(uint256,uint256)": "infinite",
						"executeListing(uint256)": "infinite",
						"listingBids(uint256,uint256)": "9017",
						"listingCount()": "2383",
						"listings(uint256)": "9079",
						"nftContract()": "2447",
						"placeBid(uint256)": "152102"
					},
					"internal": {
						"_refundAllBids(uint256)": "infinite",
						"_refundUnsuccessfulBids(uint256,uint256)": "infinite"
					}
				},
				"methodIdentifiers": {
					"cancelListing(uint256)": "305a67a8",
					"createListing(uint256,uint256)": "a79123a9",
					"executeListing(uint256)": "a137454a",
					"listingBids(uint256,uint256)": "9da0e1dd",
					"listingCount()": "a9b07c26",
					"listings(uint256)": "de74e57b",
					"nftContract()": "d56d229d",
					"placeBid(uint256)": "9979ef45"
				}
			},
			"storageLayout": {
				"storage": [
					{
						"astId": 10,
						"contract": "NFT-versions/secondary.sol:SecondaryMarket",
						"label": "_status",
						"offset": 0,
						"slot": "0",
						"type": "t_uint256"
					},
					{
						"astId": 518,
						"contract": "NFT-versions/secondary.sol:SecondaryMarket",
						"label": "nftContract",
						"offset": 0,
						"slot": "1",
						"type": "t_contract(IERC721)181"
					},
					{
						"astId": 541,
						"contract": "NFT-versions/secondary.sol:SecondaryMarket",
						"label": "listings",
						"offset": 0,
						"slot": "2",
						"type": "t_mapping(t_uint256,t_struct(Listing)529_storage)"
					},
					{
						"astId": 547,
						"contract": "NFT-versions/secondary.sol:SecondaryMarket",
						"label": "listingBids",
						"offset": 0,
						"slot": "3",
						"type": "t_mapping(t_uint256,t_array(t_struct(Bid)536_storage)dyn_storage)"
					},
					{
						"astId": 549,
						"contract": "NFT-versions/secondary.sol:SecondaryMarket",
						"label": "listingCount",
						"offset": 0,
						"slot": "4",
						"type": "t_uint256"
					}
				],
				"types": {
					"t_address": {
						"encoding": "inplace",
						"label": "address",
						"numberOfBytes": "20"
					},
					"t_array(t_struct(Bid)536_storage)dyn_storage": {
						"base": "t_struct(Bid)536_storage",
						"encoding": "dynamic_array",
						"label": "struct SecondaryMarket.Bid[]",
						"numberOfBytes": "32"
					},
					"t_bool": {
						"encoding": "inplace",
						"label": "bool",
						"numberOfBytes": "1"
					},
					"t_contract(IERC721)181": {
						"encoding": "inplace",
						"label": "contract IERC721",
						"numberOfBytes": "20"
					},
					"t_mapping(t_uint256,t_array(t_struct(Bid)536_storage)dyn_storage)": {
						"encoding": "mapping",
						"key": "t_uint256",
						"label": "mapping(uint256 => struct SecondaryMarket.Bid[])",
						"numberOfBytes": "32",
						"value": "t_array(t_struct(Bid)536_storage)dyn_storage"
					},
					"t_mapping(t_uint256,t_struct(Listing)529_storage)": {
						"encoding": "mapping",
						"key": "t_uint256",
						"label": "mapping(uint256 => struct SecondaryMarket.Listing)",
						"numberOfBytes": "32",
						"value": "t_struct(Listing)529_storage"
					},
					"t_struct(Bid)536_storage": {
						"encoding": "inplace",
						"label": "struct SecondaryMarket.Bid",
						"members": [
							{
								"astId": 531,
								"contract": "NFT-versions/secondary.sol:SecondaryMarket",
								"label": "bidder",
								"offset": 0,
								"slot": "0",
								"type": "t_address"
							},
							{
								"astId": 533,
								"contract": "NFT-versions/secondary.sol:SecondaryMarket",
								"label": "bidAmount",
								"offset": 0,
								"slot": "1",
								"type": "t_uint256"
							},
							{
								"astId": 535,
								"contract": "NFT-versions/secondary.sol:SecondaryMarket",
								"label": "isActive",
								"offset": 0,
								"slot": "2",
								"type": "t_bool"
							}
						],
						"numberOfBytes": "96"
					},
					"t_struct(Listing)529_storage": {
						"encoding": "inplace",
						"label": "struct SecondaryMarket.Listing",
						"members": [
							{
								"astId": 520,
								"contract": "NFT-versions/secondary.sol:SecondaryMarket",
								"label": "tokenId",
								"offset": 0,
								"slot": "0",
								"type": "t_uint256"
							},
							{
								"astId": 522,
								"contract": "NFT-versions/secondary.sol:SecondaryMarket",
								"label": "seller",
								"offset": 0,
								"slot": "1",
								"type": "t_address"
							},
							{
								"astId": 524,
								"contract": "NFT-versions/secondary.sol:SecondaryMarket",
								"label": "minPrice",
								"offset": 0,
								"slot": "2",
								"type": "t_uint256"
							},
							{
								"astId": 526,
								"contract": "NFT-versions/secondary.sol:SecondaryMarket",
								"label": "isActive",
								"offset": 0,
								"slot": "3",
								"type": "t_bool"
							},
							{
								"astId": 528,
								"contract": "NFT-versions/secondary.sol:SecondaryMarket",
								"label": "isCompleted",
								"offset": 1,
								"slot": "3",
								"type": "t_bool"
							}
						],
						"numberOfBytes": "128"
					},
					"t_uint256": {
						"encoding": "inplace",
						"label": "uint256",
						"numberOfBytes": "32"
					}
				}
			},
			"userdoc": {
				"kind": "user",
				"methods": {},
				"version": 1
			}
		}
	}
}