{
	"secondary.sol": {
		"LuxuryAssetSecondaryMarket": {
			"abi": [
				{
					"inputs": [
						{
							"internalType": "address",
							"name": "_initialOfferingAddress",
							"type": "address"
						}
					],
					"stateMutability": "nonpayable",
					"type": "constructor"
				},
				{
					"anonymous": false,
					"inputs": [
						{
							"indexed": true,
							"internalType": "uint256",
							"name": "listingId",
							"type": "uint256"
						},
						{
							"indexed": true,
							"internalType": "address",
							"name": "bidder",
							"type": "address"
						},
						{
							"indexed": false,
							"internalType": "uint256",
							"name": "bidAmount",
							"type": "uint256"
						}
					],
					"name": "BidPlaced",
					"type": "event"
				},
				{
					"anonymous": false,
					"inputs": [
						{
							"indexed": true,
							"internalType": "uint256",
							"name": "listingId",
							"type": "uint256"
						}
					],
					"name": "ListingCancelled",
					"type": "event"
				},
				{
					"anonymous": false,
					"inputs": [
						{
							"indexed": true,
							"internalType": "uint256",
							"name": "listingId",
							"type": "uint256"
						},
						{
							"indexed": false,
							"internalType": "bool",
							"name": "successful",
							"type": "bool"
						},
						{
							"indexed": false,
							"internalType": "address",
							"name": "winner",
							"type": "address"
						},
						{
							"indexed": false,
							"internalType": "uint256",
							"name": "amount",
							"type": "uint256"
						}
					],
					"name": "ListingCompleted",
					"type": "event"
				},
				{
					"anonymous": false,
					"inputs": [
						{
							"indexed": true,
							"internalType": "uint256",
							"name": "listingId",
							"type": "uint256"
						},
						{
							"indexed": true,
							"internalType": "uint256",
							"name": "assetId",
							"type": "uint256"
						},
						{
							"indexed": true,
							"internalType": "address",
							"name": "seller",
							"type": "address"
						},
						{
							"indexed": false,
							"internalType": "uint256",
							"name": "minPrice",
							"type": "uint256"
						},
						{
							"indexed": false,
							"internalType": "uint256",
							"name": "biddingEndTime",
							"type": "uint256"
						}
					],
					"name": "ListingCreated",
					"type": "event"
				},
				{
					"anonymous": false,
					"inputs": [
						{
							"indexed": true,
							"internalType": "uint256",
							"name": "assetId",
							"type": "uint256"
						},
						{
							"indexed": true,
							"internalType": "address",
							"name": "from",
							"type": "address"
						},
						{
							"indexed": true,
							"internalType": "address",
							"name": "to",
							"type": "address"
						}
					],
					"name": "OwnershipUpdated",
					"type": "event"
				},
				{
					"anonymous": false,
					"inputs": [
						{
							"indexed": true,
							"internalType": "address",
							"name": "bidder",
							"type": "address"
						},
						{
							"indexed": false,
							"internalType": "uint256",
							"name": "amount",
							"type": "uint256"
						}
					],
					"name": "RefundIssued",
					"type": "event"
				},
				{
					"inputs": [
						{
							"internalType": "uint256",
							"name": "_listingId",
							"type": "uint256"
						}
					],
					"name": "cancelListing",
					"outputs": [],
					"stateMutability": "nonpayable",
					"type": "function"
				},
				{
					"inputs": [
						{
							"internalType": "uint256",
							"name": "_assetId",
							"type": "uint256"
						},
						{
							"internalType": "uint256",
							"name": "_minPrice",
							"type": "uint256"
						},
						{
							"internalType": "uint256",
							"name": "_biddingDuration",
							"type": "uint256"
						}
					],
					"name": "createListing",
					"outputs": [],
					"stateMutability": "nonpayable",
					"type": "function"
				},
				{
					"inputs": [
						{
							"internalType": "uint256",
							"name": "_listingId",
							"type": "uint256"
						}
					],
					"name": "executeListing",
					"outputs": [],
					"stateMutability": "nonpayable",
					"type": "function"
				},
				{
					"inputs": [],
					"name": "getActiveListings",
					"outputs": [
						{
							"internalType": "uint256[]",
							"name": "listingIds",
							"type": "uint256[]"
						},
						{
							"internalType": "uint256[]",
							"name": "assetIds",
							"type": "uint256[]"
						},
						{
							"internalType": "address[]",
							"name": "sellers",
							"type": "address[]"
						},
						{
							"internalType": "uint256[]",
							"name": "minPrices",
							"type": "uint256[]"
						},
						{
							"internalType": "uint256[]",
							"name": "endTimes",
							"type": "uint256[]"
						}
					],
					"stateMutability": "view",
					"type": "function"
				},
				{
					"inputs": [
						{
							"internalType": "uint256",
							"name": "_assetId",
							"type": "uint256"
						}
					],
					"name": "getAssetOwners",
					"outputs": [
						{
							"internalType": "address[]",
							"name": "owners",
							"type": "address[]"
						},
						{
							"internalType": "uint256[]",
							"name": "shares",
							"type": "uint256[]"
						}
					],
					"stateMutability": "view",
					"type": "function"
				},
				{
					"inputs": [
						{
							"internalType": "uint256",
							"name": "_listingId",
							"type": "uint256"
						}
					],
					"name": "getListingBids",
					"outputs": [
						{
							"internalType": "address[]",
							"name": "bidders",
							"type": "address[]"
						},
						{
							"internalType": "uint256[]",
							"name": "amounts",
							"type": "uint256[]"
						}
					],
					"stateMutability": "view",
					"type": "function"
				},
				{
					"inputs": [
						{
							"internalType": "uint256",
							"name": "_listingId",
							"type": "uint256"
						}
					],
					"name": "getListingDetails",
					"outputs": [
						{
							"internalType": "uint256",
							"name": "assetId",
							"type": "uint256"
						},
						{
							"internalType": "address",
							"name": "seller",
							"type": "address"
						},
						{
							"internalType": "uint256",
							"name": "minPrice",
							"type": "uint256"
						},
						{
							"internalType": "bool",
							"name": "isActive",
							"type": "bool"
						},
						{
							"internalType": "bool",
							"name": "isCompleted",
							"type": "bool"
						}
					],
					"stateMutability": "view",
					"type": "function"
				},
				{
					"inputs": [
						{
							"internalType": "uint256",
							"name": "_assetId",
							"type": "uint256"
						},
						{
							"internalType": "address",
							"name": "_owner",
							"type": "address"
						}
					],
					"name": "getSharesOwned",
					"outputs": [
						{
							"internalType": "uint256",
							"name": "",
							"type": "uint256"
						}
					],
					"stateMutability": "view",
					"type": "function"
				},
				{
					"inputs": [],
					"name": "initialOfferingContract",
					"outputs": [
						{
							"internalType": "contract ILuxuryAssetOffering",
							"name": "",
							"type": "address"
						}
					],
					"stateMutability": "view",
					"type": "function"
				},
				{
					"inputs": [
						{
							"internalType": "uint256",
							"name": "_assetId",
							"type": "uint256"
						}
					],
					"name": "initializeAssetOwnership",
					"outputs": [],
					"stateMutability": "nonpayable",
					"type": "function"
				},
				{
					"inputs": [
						{
							"internalType": "uint256",
							"name": "",
							"type": "uint256"
						},
						{
							"internalType": "uint256",
							"name": "",
							"type": "uint256"
						}
					],
					"name": "listingBids",
					"outputs": [
						{
							"internalType": "address",
							"name": "bidder",
							"type": "address"
						},
						{
							"internalType": "uint256",
							"name": "bidAmount",
							"type": "uint256"
						},
						{
							"internalType": "bool",
							"name": "isActive",
							"type": "bool"
						}
					],
					"stateMutability": "view",
					"type": "function"
				},
				{
					"inputs": [],
					"name": "listingCount",
					"outputs": [
						{
							"internalType": "uint256",
							"name": "",
							"type": "uint256"
						}
					],
					"stateMutability": "view",
					"type": "function"
				},
				{
					"inputs": [
						{
							"internalType": "uint256",
							"name": "",
							"type": "uint256"
						}
					],
					"name": "listings",
					"outputs": [
						{
							"internalType": "uint256",
							"name": "assetId",
							"type": "uint256"
						},
						{
							"internalType": "address",
							"name": "seller",
							"type": "address"
						},
						{
							"internalType": "uint256",
							"name": "minPrice",
							"type": "uint256"
						},
						{
							"internalType": "bool",
							"name": "isActive",
							"type": "bool"
						},
						{
							"internalType": "bool",
							"name": "isCompleted",
							"type": "bool"
						}
					],
					"stateMutability": "view",
					"type": "function"
				},
				{
					"inputs": [
						{
							"internalType": "uint256",
							"name": "_listingId",
							"type": "uint256"
						}
					],
					"name": "placeBid",
					"outputs": [],
					"stateMutability": "payable",
					"type": "function"
				}
			],
			"devdoc": {
				"kind": "dev",
				"methods": {},
				"version": 1
			},
			"evm": {
				"assembly": "    /* \"secondary.sol\":903:14571  contract LuxuryAssetSecondaryMarket is ReentrancyGuard {... */\n  mstore(0x40, 0x80)\n    /* \"secondary.sol\":2377:2510  constructor(address _initialOfferingAddress) {... */\n  callvalue\n  dup1\n  iszero\n  tag_1\n  jumpi\n  0x00\n  dup1\n  revert\ntag_1:\n  pop\n  mload(0x40)\n  sub(codesize, bytecodeSize)\n  dup1\n  bytecodeSize\n  dup4\n  codecopy\n  dup2\n  add\n  0x40\n  dup2\n  swap1\n  mstore\n  tag_2\n  swap2\n  tag_3\n  jump\t// in\ntag_2:\n    /* \"@openzeppelin/contracts/security/ReentrancyGuard.sol\":1716:1717  1 */\n  0x01\n    /* \"@openzeppelin/contracts/security/ReentrancyGuard.sol\":1821:1828  _status */\n  0x00\n    /* \"@openzeppelin/contracts/security/ReentrancyGuard.sol\":1821:1843  _status = _NOT_ENTERED */\n  dup2\n  swap1\n  sstore\n    /* \"secondary.sol\":2432:2503  initialOfferingContract = ILuxuryAssetOffering(_initialOfferingAddress) */\n  dup1\n  sload\n  not(sub(shl(0xa0, 0x01), 0x01))\n  and\n  sub(shl(0xa0, 0x01), 0x01)\n  swap3\n  swap1\n  swap3\n  and\n  swap2\n  swap1\n  swap2\n  or\n  swap1\n  sstore\n    /* \"secondary.sol\":903:14571  contract LuxuryAssetSecondaryMarket is ReentrancyGuard {... */\n  jump(tag_9)\n    /* \"#utility.yul\":14:304   */\ntag_3:\n    /* \"#utility.yul\":84:90   */\n  0x00\n    /* \"#utility.yul\":137:139   */\n  0x20\n    /* \"#utility.yul\":125:134   */\n  dup3\n    /* \"#utility.yul\":116:123   */\n  dup5\n    /* \"#utility.yul\":112:135   */\n  sub\n    /* \"#utility.yul\":108:140   */\n  slt\n    /* \"#utility.yul\":105:157   */\n  iszero\n  tag_11\n  jumpi\n    /* \"#utility.yul\":153:154   */\n  0x00\n    /* \"#utility.yul\":150:151   */\n  dup1\n    /* \"#utility.yul\":143:155   */\n  revert\n    /* \"#utility.yul\":105:157   */\ntag_11:\n    /* \"#utility.yul\":179:195   */\n  dup2\n  mload\n  sub(shl(0xa0, 0x01), 0x01)\n    /* \"#utility.yul\":224:255   */\n  dup2\n  and\n    /* \"#utility.yul\":214:256   */\n  dup2\n  eq\n    /* \"#utility.yul\":204:274   */\n  tag_12\n  jumpi\n    /* \"#utility.yul\":270:271   */\n  0x00\n    /* \"#utility.yul\":267:268   */\n  dup1\n    /* \"#utility.yul\":260:272   */\n  revert\n    /* \"#utility.yul\":204:274   */\ntag_12:\n    /* \"#utility.yul\":293:298   */\n  swap4\n    /* \"#utility.yul\":14:304   */\n  swap3\n  pop\n  pop\n  pop\n  jump\t// out\ntag_9:\n    /* \"secondary.sol\":903:14571  contract LuxuryAssetSecondaryMarket is ReentrancyGuard {... */\n  dataSize(sub_0)\n  dup1\n  dataOffset(sub_0)\n  0x00\n  codecopy\n  0x00\n  return\nstop\n\nsub_0: assembly {\n        /* \"secondary.sol\":903:14571  contract LuxuryAssetSecondaryMarket is ReentrancyGuard {... */\n      mstore(0x40, 0x80)\n      jumpi(tag_1, lt(calldatasize, 0x04))\n      shr(0xe0, calldataload(0x00))\n      dup1\n      0x9da0e1dd\n      gt\n      tag_16\n      jumpi\n      dup1\n      0x9da0e1dd\n      eq\n      tag_9\n      jumpi\n      dup1\n      0xa137454a\n      eq\n      tag_10\n      jumpi\n      dup1\n      0xa9b07c26\n      eq\n      tag_11\n      jumpi\n      dup1\n      0xb03053b6\n      eq\n      tag_12\n      jumpi\n      dup1\n      0xde74e57b\n      eq\n      tag_13\n      jumpi\n      dup1\n      0xe7ebadfe\n      eq\n      tag_14\n      jumpi\n      dup1\n      0xfb05da2e\n      eq\n      tag_15\n      jumpi\n      0x00\n      dup1\n      revert\n    tag_16:\n      dup1\n      0x305a67a8\n      eq\n      tag_2\n      jumpi\n      dup1\n      0x4bbfdffe\n      eq\n      tag_3\n      jumpi\n      dup1\n      0x686735c5\n      eq\n      tag_4\n      jumpi\n      dup1\n      0x83421efd\n      eq\n      tag_5\n      jumpi\n      dup1\n      0x87c35bc0\n      eq\n      tag_6\n      jumpi\n      dup1\n      0x90e467a1\n      eq\n      tag_7\n      jumpi\n      dup1\n      0x9979ef45\n      eq\n      tag_8\n      jumpi\n    tag_1:\n      0x00\n      dup1\n      revert\n        /* \"secondary.sol\":7031:7578  function cancelListing(uint256 _listingId) external nonReentrant {... */\n    tag_2:\n      callvalue\n      dup1\n      iszero\n      tag_17\n      jumpi\n      0x00\n      dup1\n      revert\n    tag_17:\n      pop\n      tag_18\n      tag_19\n      calldatasize\n      0x04\n      tag_20\n      jump\t// in\n    tag_19:\n      tag_21\n      jump\t// in\n    tag_18:\n      stop\n        /* \"secondary.sol\":1001:1052  ILuxuryAssetOffering public initialOfferingContract */\n    tag_3:\n      callvalue\n      dup1\n      iszero\n      tag_22\n      jumpi\n      0x00\n      dup1\n      revert\n    tag_22:\n      pop\n      sload(0x01)\n      tag_23\n      swap1\n      sub(shl(0xa0, 0x01), 0x01)\n      and\n      dup2\n      jump\n    tag_23:\n      mload(0x40)\n      sub(shl(0xa0, 0x01), 0x01)\n        /* \"#utility.yul\":437:469   */\n      swap1\n      swap2\n      and\n        /* \"#utility.yul\":419:470   */\n      dup2\n      mstore\n        /* \"#utility.yul\":407:409   */\n      0x20\n        /* \"#utility.yul\":392:410   */\n      add\n        /* \"secondary.sol\":1001:1052  ILuxuryAssetOffering public initialOfferingContract */\n    tag_25:\n      mload(0x40)\n      dup1\n      swap2\n      sub\n      swap1\n      return\n        /* \"secondary.sol\":13029:13842  function getAssetOwners(uint256 _assetId) external view returns (... */\n    tag_4:\n      callvalue\n      dup1\n      iszero\n      tag_27\n      jumpi\n      0x00\n      dup1\n      revert\n    tag_27:\n      pop\n      tag_28\n      tag_29\n      calldatasize\n      0x04\n      tag_20\n      jump\t// in\n    tag_29:\n      tag_30\n      jump\t// in\n    tag_28:\n      mload(0x40)\n      tag_25\n      swap3\n      swap2\n      swap1\n      tag_32\n      jump\t// in\n        /* \"secondary.sol\":2609:3246  function initializeAssetOwnership(uint256 _assetId) public {... */\n    tag_5:\n      callvalue\n      dup1\n      iszero\n      tag_33\n      jumpi\n      0x00\n      dup1\n      revert\n    tag_33:\n      pop\n      tag_18\n      tag_35\n      calldatasize\n      0x04\n      tag_20\n      jump\t// in\n    tag_35:\n      tag_36\n      jump\t// in\n        /* \"secondary.sol\":10292:11465  function getActiveListings() external view returns (... */\n    tag_6:\n      callvalue\n      dup1\n      iszero\n      tag_37\n      jumpi\n      0x00\n      dup1\n      revert\n    tag_37:\n      pop\n      tag_38\n      tag_39\n      jump\t// in\n    tag_38:\n      mload(0x40)\n      tag_25\n      swap6\n      swap5\n      swap4\n      swap3\n      swap2\n      swap1\n      tag_41\n      jump\t// in\n        /* \"secondary.sol\":12029:12941  function getListingBids(uint256 _listingId) external view returns (... */\n    tag_7:\n      callvalue\n      dup1\n      iszero\n      tag_42\n      jumpi\n      0x00\n      dup1\n      revert\n    tag_42:\n      pop\n      tag_28\n      tag_44\n      calldatasize\n      0x04\n      tag_20\n      jump\t// in\n    tag_44:\n      tag_45\n      jump\t// in\n        /* \"secondary.sol\":4303:4970  function placeBid(uint256 _listingId) external payable nonReentrant {... */\n    tag_8:\n      tag_18\n      tag_48\n      calldatasize\n      0x04\n      tag_20\n      jump\t// in\n    tag_48:\n      tag_49\n      jump\t// in\n        /* \"secondary.sol\":1599:1652  mapping(uint256 => SecondaryBid[]) public listingBids */\n    tag_9:\n      callvalue\n      dup1\n      iszero\n      tag_50\n      jumpi\n      0x00\n      dup1\n      revert\n    tag_50:\n      pop\n      tag_51\n      tag_52\n      calldatasize\n      0x04\n      tag_53\n      jump\t// in\n    tag_52:\n      tag_54\n      jump\t// in\n    tag_51:\n      0x40\n      dup1\n      mload\n      sub(shl(0xa0, 0x01), 0x01)\n        /* \"#utility.yul\":3477:3509   */\n      swap1\n      swap5\n      and\n        /* \"#utility.yul\":3459:3510   */\n      dup5\n      mstore\n        /* \"#utility.yul\":3541:3543   */\n      0x20\n        /* \"#utility.yul\":3526:3544   */\n      dup5\n      add\n        /* \"#utility.yul\":3519:3553   */\n      swap3\n      swap1\n      swap3\n      mstore\n        /* \"#utility.yul\":3596:3610   */\n      iszero\n        /* \"#utility.yul\":3589:3611   */\n      iszero\n        /* \"#utility.yul\":3569:3587   */\n      swap1\n      dup3\n      add\n        /* \"#utility.yul\":3562:3612   */\n      mstore\n        /* \"#utility.yul\":3447:3449   */\n      0x60\n        /* \"#utility.yul\":3432:3450   */\n      add\n        /* \"secondary.sol\":1599:1652  mapping(uint256 => SecondaryBid[]) public listingBids */\n      tag_25\n        /* \"#utility.yul\":3263:3618   */\n      jump\n        /* \"secondary.sol\":5041:6977  function executeListing(uint256 _listingId) external nonReentrant {... */\n    tag_10:\n      callvalue\n      dup1\n      iszero\n      tag_57\n      jumpi\n      0x00\n      dup1\n      revert\n    tag_57:\n      pop\n      tag_18\n      tag_59\n      calldatasize\n      0x04\n      tag_20\n      jump\t// in\n    tag_59:\n      tag_60\n      jump\t// in\n        /* \"secondary.sol\":1658:1685  uint256 public listingCount */\n    tag_11:\n      callvalue\n      dup1\n      iszero\n      tag_61\n      jumpi\n      0x00\n      dup1\n      revert\n    tag_61:\n      pop\n      tag_62\n      sload(0x04)\n      dup2\n      jump\n    tag_62:\n      mload(0x40)\n        /* \"#utility.yul\":3769:3794   */\n      swap1\n      dup2\n      mstore\n        /* \"#utility.yul\":3757:3759   */\n      0x20\n        /* \"#utility.yul\":3742:3760   */\n      add\n        /* \"secondary.sol\":1658:1685  uint256 public listingCount */\n      tag_25\n        /* \"#utility.yul\":3623:3800   */\n      jump\n        /* \"secondary.sol\":3311:4244  function createListing(... */\n    tag_12:\n      callvalue\n      dup1\n      iszero\n      tag_66\n      jumpi\n      0x00\n      dup1\n      revert\n    tag_66:\n      pop\n      tag_18\n      tag_68\n      calldatasize\n      0x04\n      tag_69\n      jump\t// in\n    tag_68:\n      tag_70\n      jump\t// in\n        /* \"secondary.sol\":1541:1593  mapping(uint256 => SecondaryListing) public listings */\n    tag_13:\n      callvalue\n      dup1\n      iszero\n      tag_71\n      jumpi\n      0x00\n      dup1\n      revert\n    tag_71:\n      pop\n      tag_72\n      tag_73\n      calldatasize\n      0x04\n      tag_20\n      jump\t// in\n    tag_73:\n      0x02\n      0x20\n      dup2\n      swap1\n      mstore\n      0x00\n      swap2\n      dup3\n      mstore\n      0x40\n      swap1\n      swap2\n      keccak256\n      dup1\n      sload\n      0x01\n      dup3\n      add\n      sload\n      swap3\n      dup3\n      add\n      sload\n      0x03\n      swap1\n      swap3\n      add\n      sload\n      swap1\n      swap3\n      sub(shl(0xa0, 0x01), 0x01)\n      and\n      swap2\n      swap1\n      0xff\n      dup1\n      dup3\n      and\n      swap2\n      0x0100\n      swap1\n      div\n      and\n      dup6\n      jump\n    tag_72:\n      0x40\n      dup1\n      mload\n        /* \"#utility.yul\":4523:4548   */\n      swap6\n      dup7\n      mstore\n      sub(shl(0xa0, 0x01), 0x01)\n        /* \"#utility.yul\":4584:4616   */\n      swap1\n      swap5\n      and\n        /* \"#utility.yul\":4579:4581   */\n      0x20\n        /* \"#utility.yul\":4564:4582   */\n      dup7\n      add\n        /* \"#utility.yul\":4557:4617   */\n      mstore\n        /* \"#utility.yul\":4633:4651   */\n      swap3\n      dup5\n      add\n        /* \"#utility.yul\":4626:4660   */\n      swap2\n      swap1\n      swap2\n      mstore\n        /* \"#utility.yul\":4703:4717   */\n      iszero\n        /* \"#utility.yul\":4696:4718   */\n      iszero\n        /* \"#utility.yul\":4691:4693   */\n      0x60\n        /* \"#utility.yul\":4676:4694   */\n      dup4\n      add\n        /* \"#utility.yul\":4669:4719   */\n      mstore\n        /* \"#utility.yul\":4763:4777   */\n      iszero\n        /* \"#utility.yul\":4756:4778   */\n      iszero\n        /* \"#utility.yul\":4750:4753   */\n      0x80\n        /* \"#utility.yul\":4735:4754   */\n      dup3\n      add\n        /* \"#utility.yul\":4728:4779   */\n      mstore\n        /* \"#utility.yul\":4510:4513   */\n      0xa0\n        /* \"#utility.yul\":4495:4514   */\n      add\n        /* \"secondary.sol\":1541:1593  mapping(uint256 => SecondaryListing) public listings */\n      tag_25\n        /* \"#utility.yul\":4276:4785   */\n      jump\n        /* \"secondary.sol\":13909:14569  function getSharesOwned(uint256 _assetId, address _owner) external view returns (uint256) {... */\n    tag_14:\n      callvalue\n      dup1\n      iszero\n      tag_77\n      jumpi\n      0x00\n      dup1\n      revert\n    tag_77:\n      pop\n      tag_62\n      tag_79\n      calldatasize\n      0x04\n      tag_80\n      jump\t// in\n    tag_79:\n      tag_81\n      jump\t// in\n        /* \"secondary.sol\":11519:11968  function getListingDetails(uint256 _listingId) external view returns (... */\n    tag_15:\n      callvalue\n      dup1\n      iszero\n      tag_83\n      jumpi\n      0x00\n      dup1\n      revert\n    tag_83:\n      pop\n      tag_72\n      tag_85\n      calldatasize\n      0x04\n      tag_20\n      jump\t// in\n    tag_85:\n        /* \"secondary.sol\":11598:11613  uint256 assetId */\n      0x00\n        /* \"secondary.sol\":11764:11784  listings[_listingId] */\n      swap1\n      dup2\n      mstore\n        /* \"secondary.sol\":11764:11772  listings */\n      0x02\n        /* \"secondary.sol\":11764:11784  listings[_listingId] */\n      0x20\n      dup2\n      swap1\n      mstore\n      0x40\n      swap1\n      swap2\n      keccak256\n        /* \"secondary.sol\":11815:11830  listing.assetId */\n      dup1\n      sload\n        /* \"secondary.sol\":11844:11858  listing.seller */\n      0x01\n      dup3\n      add\n      sload\n        /* \"secondary.sol\":11872:11888  listing.minPrice */\n      swap3\n      dup3\n      add\n      sload\n        /* \"secondary.sol\":11902:11918  listing.isActive */\n      0x03\n      swap1\n      swap3\n      add\n      sload\n        /* \"secondary.sol\":11815:11830  listing.assetId */\n      swap1\n      swap4\n      sub(shl(0xa0, 0x01), 0x01)\n        /* \"secondary.sol\":11844:11858  listing.seller */\n      swap1\n      swap4\n      and\n      swap3\n        /* \"secondary.sol\":11902:11918  listing.isActive */\n      0xff\n      dup1\n      dup4\n      and\n      swap3\n        /* \"secondary.sol\":11844:11858  listing.seller */\n      0x0100\n        /* \"secondary.sol\":11932:11951  listing.isCompleted */\n      swap1\n      div\n      and\n      swap1\n        /* \"secondary.sol\":11519:11968  function getListingDetails(uint256 _listingId) external view returns (... */\n      jump\n        /* \"secondary.sol\":7031:7578  function cancelListing(uint256 _listingId) external nonReentrant {... */\n    tag_21:\n        /* \"@openzeppelin/contracts/security/ReentrancyGuard.sol\":2261:2282  _nonReentrantBefore() */\n      tag_89\n        /* \"@openzeppelin/contracts/security/ReentrancyGuard.sol\":2261:2280  _nonReentrantBefore */\n      tag_90\n        /* \"@openzeppelin/contracts/security/ReentrancyGuard.sol\":2261:2282  _nonReentrantBefore() */\n      jump\t// in\n    tag_89:\n        /* \"secondary.sol\":7106:7138  SecondaryListing storage listing */\n      0x00\n        /* \"secondary.sol\":7141:7161  listings[_listingId] */\n      dup2\n      dup2\n      mstore\n        /* \"secondary.sol\":7141:7149  listings */\n      0x02\n        /* \"secondary.sol\":7141:7161  listings[_listingId] */\n      0x20\n      mstore\n      0x40\n      swap1\n      keccak256\n        /* \"secondary.sol\":7202:7216  listing.seller */\n      0x01\n      dup2\n      add\n      sload\n      sub(shl(0xa0, 0x01), 0x01)\n      and\n        /* \"secondary.sol\":7188:7198  msg.sender */\n      caller\n        /* \"secondary.sol\":7188:7216  msg.sender == listing.seller */\n      eq\n        /* \"secondary.sol\":7180:7243  require(msg.sender == listing.seller, \"Only seller can cancel\") */\n      tag_92\n      jumpi\n      mload(0x40)\n      shl(0xe5, 0x461bcd)\n      dup2\n      mstore\n        /* \"#utility.yul\":5500:5502   */\n      0x20\n        /* \"secondary.sol\":7180:7243  require(msg.sender == listing.seller, \"Only seller can cancel\") */\n      0x04\n      dup3\n      add\n        /* \"#utility.yul\":5482:5503   */\n      mstore\n        /* \"#utility.yul\":5539:5541   */\n      0x16\n        /* \"#utility.yul\":5519:5537   */\n      0x24\n      dup3\n      add\n        /* \"#utility.yul\":5512:5542   */\n      mstore\n      shl(0x52, 0x13db9b1e481cd95b1b195c8818d85b8818d85b98d95b)\n        /* \"#utility.yul\":5558:5576   */\n      0x44\n      dup3\n      add\n        /* \"#utility.yul\":5551:5603   */\n      mstore\n        /* \"#utility.yul\":5620:5638   */\n      0x64\n      add\n        /* \"secondary.sol\":7180:7243  require(msg.sender == listing.seller, \"Only seller can cancel\") */\n    tag_93:\n      mload(0x40)\n      dup1\n      swap2\n      sub\n      swap1\n      revert\n    tag_92:\n        /* \"secondary.sol\":7261:7277  listing.isActive */\n      0x03\n      dup2\n      add\n      sload\n      0xff\n      and\n        /* \"secondary.sol\":7253:7300  require(listing.isActive, \"Listing not active\") */\n      tag_95\n      jumpi\n      mload(0x40)\n      shl(0xe5, 0x461bcd)\n      dup2\n      mstore\n      0x04\n      add\n      tag_93\n      swap1\n      tag_97\n      jump\t// in\n    tag_95:\n        /* \"secondary.sol\":7319:7338  listing.isCompleted */\n      0x03\n      dup2\n      add\n      sload\n      0x0100\n      swap1\n      div\n      0xff\n      and\n        /* \"secondary.sol\":7318:7338  !listing.isCompleted */\n      iszero\n        /* \"secondary.sol\":7310:7368  require(!listing.isCompleted, \"Listing already completed\") */\n      tag_98\n      jumpi\n      mload(0x40)\n      shl(0xe5, 0x461bcd)\n      dup2\n      mstore\n      0x04\n      add\n      tag_93\n      swap1\n      tag_100\n      jump\t// in\n    tag_98:\n        /* \"secondary.sol\":7387:7403  listing.isActive */\n      0x03\n      dup2\n      add\n        /* \"secondary.sol\":7387:7411  listing.isActive = false */\n      dup1\n      sload\n      not(0xffff)\n        /* \"secondary.sol\":7421:7447  listing.isCompleted = true */\n      and\n        /* \"secondary.sol\":7387:7411  listing.isActive = false */\n      0x0100\n        /* \"secondary.sol\":7421:7447  listing.isCompleted = true */\n      or\n      swap1\n      sstore\n        /* \"secondary.sol\":7493:7519  _refundAllBids(_listingId) */\n      tag_101\n        /* \"secondary.sol\":7508:7518  _listingId */\n      dup3\n        /* \"secondary.sol\":7493:7507  _refundAllBids */\n      tag_102\n        /* \"secondary.sol\":7493:7519  _refundAllBids(_listingId) */\n      jump\t// in\n    tag_101:\n        /* \"secondary.sol\":7543:7571  ListingCancelled(_listingId) */\n      mload(0x40)\n        /* \"secondary.sol\":7560:7570  _listingId */\n      dup3\n      swap1\n        /* \"secondary.sol\":7543:7571  ListingCancelled(_listingId) */\n      0x411aee90354c51b1b04cd563fcab2617142a9d50da19232d888547c8a1b7fd8a\n      swap1\n      0x00\n      swap1\n      log2\n        /* \"secondary.sol\":7096:7578  {... */\n      pop\n        /* \"@openzeppelin/contracts/security/ReentrancyGuard.sol\":2303:2323  _nonReentrantAfter() */\n      tag_103\n        /* \"@openzeppelin/contracts/security/ReentrancyGuard.sol\":1716:1717  1 */\n      0x01\n        /* \"@openzeppelin/contracts/security/ReentrancyGuard.sol\":2809:2816  _status */\n      0x00\n        /* \"@openzeppelin/contracts/security/ReentrancyGuard.sol\":2809:2831  _status = _NOT_ENTERED */\n      sstore\n        /* \"@openzeppelin/contracts/security/ReentrancyGuard.sol\":2629:2838  function _nonReentrantAfter() private {... */\n      jump\n        /* \"@openzeppelin/contracts/security/ReentrancyGuard.sol\":2303:2323  _nonReentrantAfter() */\n    tag_103:\n        /* \"secondary.sol\":7031:7578  function cancelListing(uint256 _listingId) external nonReentrant {... */\n      pop\n      jump\t// out\n        /* \"secondary.sol\":13029:13842  function getAssetOwners(uint256 _assetId) external view returns (... */\n    tag_30:\n        /* \"secondary.sol\":13181:13205  assetOwnership[_assetId] */\n      0x00\n      dup2\n      dup2\n      mstore\n        /* \"secondary.sol\":13181:13195  assetOwnership */\n      0x05\n        /* \"secondary.sol\":13181:13205  assetOwnership[_assetId] */\n      0x20\n      mstore\n      0x40\n      swap1\n      keccak256\n        /* \"secondary.sol\":13181:13217  assetOwnership[_assetId].initialized */\n      0x02\n      add\n      sload\n        /* \"secondary.sol\":13103:13126  address[] memory owners */\n      0x60\n      swap1\n      dup2\n      swap1\n        /* \"secondary.sol\":13181:13217  assetOwnership[_assetId].initialized */\n      0xff\n      and\n        /* \"secondary.sol\":13176:13399  if (!assetOwnership[_assetId].initialized) {... */\n      tag_106\n      jumpi\n      pop\n      pop\n        /* \"secondary.sol\":13296:13312  new address[](0) */\n      0x40\n      dup1\n      mload\n        /* \"secondary.sol\":13310:13311  0 */\n      0x00\n        /* \"secondary.sol\":13296:13312  new address[](0) */\n      dup1\n      dup3\n      mstore\n      0x20\n      dup3\n      add\n        /* \"secondary.sol\":13335:13351  new uint256[](0) */\n      swap1\n      dup2\n      mstore\n      dup2\n      dup4\n      add\n      swap1\n      swap3\n      mstore\n        /* \"secondary.sol\":13296:13312  new address[](0) */\n      swap3\n      swap1\n      swap2\n      pop\n        /* \"secondary.sol\":13029:13842  function getAssetOwners(uint256 _assetId) external view returns (... */\n      jump\t// out\n        /* \"secondary.sol\":13176:13399  if (!assetOwnership[_assetId].initialized) {... */\n    tag_106:\n        /* \"secondary.sol\":13417:13435  uint256 ownerCount */\n      0x00\n        /* \"secondary.sol\":13438:13462  assetOwnership[_assetId] */\n      dup4\n      dup2\n      mstore\n        /* \"secondary.sol\":13438:13452  assetOwnership */\n      0x05\n        /* \"secondary.sol\":13438:13462  assetOwnership[_assetId] */\n      0x20\n      mstore\n      0x40\n      swap1\n      keccak256\n        /* \"secondary.sol\":13438:13469  assetOwnership[_assetId].owners */\n      0x01\n      add\n        /* \"secondary.sol\":13438:13476  assetOwnership[_assetId].owners.length */\n      sload\n      dup1\n      sub(shl(0x40, 0x01), 0x01)\n        /* \"secondary.sol\":13495:13520  new address[](ownerCount) */\n      dup2\n      gt\n      iszero\n      tag_115\n      jumpi\n      tag_115\n      tag_109\n      jump\t// in\n    tag_115:\n      mload(0x40)\n      swap1\n      dup1\n      dup3\n      mstore\n      dup1\n      0x20\n      mul\n      0x20\n      add\n      dup3\n      add\n      0x40\n      mstore\n      dup1\n      iszero\n      tag_116\n      jumpi\n      dup2\n      0x20\n      add\n      0x20\n      dup3\n      mul\n      dup1\n      calldatasize\n      dup4\n      calldatacopy\n      add\n      swap1\n      pop\n    tag_116:\n      pop\n        /* \"secondary.sol\":13486:13520  owners = new address[](ownerCount) */\n      swap3\n      pop\n        /* \"secondary.sol\":13553:13563  ownerCount */\n      dup1\n      sub(shl(0x40, 0x01), 0x01)\n        /* \"secondary.sol\":13539:13564  new uint256[](ownerCount) */\n      dup2\n      gt\n      iszero\n      tag_118\n      jumpi\n      tag_118\n      tag_109\n      jump\t// in\n    tag_118:\n      mload(0x40)\n      swap1\n      dup1\n      dup3\n      mstore\n      dup1\n      0x20\n      mul\n      0x20\n      add\n      dup3\n      add\n      0x40\n      mstore\n      dup1\n      iszero\n      tag_119\n      jumpi\n      dup2\n      0x20\n      add\n      0x20\n      dup3\n      mul\n      dup1\n      calldatasize\n      dup4\n      calldatacopy\n      add\n      swap1\n      pop\n    tag_119:\n      pop\n        /* \"secondary.sol\":13530:13564  shares = new uint256[](ownerCount) */\n      swap2\n      pop\n        /* \"secondary.sol\":13588:13597  uint256 i */\n      0x00\n        /* \"secondary.sol\":13583:13794  for (uint256 i = 0; i < ownerCount; i++) {... */\n    tag_120:\n        /* \"secondary.sol\":13607:13617  ownerCount */\n      dup2\n        /* \"secondary.sol\":13603:13604  i */\n      dup2\n        /* \"secondary.sol\":13603:13617  i < ownerCount */\n      lt\n        /* \"secondary.sol\":13583:13794  for (uint256 i = 0; i < ownerCount; i++) {... */\n      iszero\n      tag_121\n      jumpi\n        /* \"secondary.sol\":13638:13651  address owner */\n      0x00\n        /* \"secondary.sol\":13654:13678  assetOwnership[_assetId] */\n      dup6\n      dup2\n      mstore\n        /* \"secondary.sol\":13654:13668  assetOwnership */\n      0x05\n        /* \"secondary.sol\":13654:13678  assetOwnership[_assetId] */\n      0x20\n      mstore\n      0x40\n      dup2\n      keccak256\n        /* \"secondary.sol\":13654:13685  assetOwnership[_assetId].owners */\n      0x01\n      add\n        /* \"secondary.sol\":13654:13688  assetOwnership[_assetId].owners[i] */\n      dup1\n      sload\n        /* \"secondary.sol\":13686:13687  i */\n      dup4\n      swap1\n        /* \"secondary.sol\":13654:13688  assetOwnership[_assetId].owners[i] */\n      dup2\n      lt\n      tag_124\n      jumpi\n      tag_124\n      tag_125\n      jump\t// in\n    tag_124:\n      swap1\n      0x00\n      mstore\n      keccak256(0x00, 0x20)\n      add\n      0x00\n      swap1\n      sload\n      swap1\n      0x0100\n      exp\n      swap1\n      div\n      sub(shl(0xa0, 0x01), 0x01)\n      and\n        /* \"secondary.sol\":13638:13688  address owner = assetOwnership[_assetId].owners[i] */\n      swap1\n      pop\n        /* \"secondary.sol\":13714:13719  owner */\n      dup1\n        /* \"secondary.sol\":13702:13708  owners */\n      dup6\n        /* \"secondary.sol\":13709:13710  i */\n      dup4\n        /* \"secondary.sol\":13702:13711  owners[i] */\n      dup2\n      mload\n      dup2\n      lt\n      tag_128\n      jumpi\n      tag_128\n      tag_125\n      jump\t// in\n    tag_128:\n      sub(shl(0xa0, 0x01), 0x01)\n        /* \"secondary.sol\":13702:13719  owners[i] = owner */\n      swap3\n      dup4\n      and\n        /* \"secondary.sol\":13702:13711  owners[i] */\n      0x20\n      swap2\n      dup3\n      mul\n      swap3\n      swap1\n      swap3\n      add\n      dup2\n      add\n        /* \"secondary.sol\":13702:13719  owners[i] = owner */\n      swap2\n      swap1\n      swap2\n      mstore\n        /* \"secondary.sol\":13745:13769  assetOwnership[_assetId] */\n      0x00\n      dup9\n      dup2\n      mstore\n        /* \"secondary.sol\":13745:13759  assetOwnership */\n      0x05\n        /* \"secondary.sol\":13745:13769  assetOwnership[_assetId] */\n      dup3\n      mstore\n      0x40\n      dup1\n      dup3\n      keccak256\n        /* \"secondary.sol\":13745:13783  assetOwnership[_assetId].shares[owner] */\n      swap4\n      dup6\n      and\n      dup3\n      mstore\n      swap3\n      swap1\n      swap2\n      mstore\n      keccak256\n      sload\n        /* \"secondary.sol\":13733:13742  shares[i] */\n      dup5\n      mload\n        /* \"secondary.sol\":13733:13739  shares */\n      dup6\n      swap1\n        /* \"secondary.sol\":13740:13741  i */\n      dup5\n      swap1\n        /* \"secondary.sol\":13733:13742  shares[i] */\n      dup2\n      lt\n      tag_130\n      jumpi\n      tag_130\n      tag_125\n      jump\t// in\n    tag_130:\n      0x20\n      swap1\n      dup2\n      mul\n      swap2\n      swap1\n      swap2\n      add\n      add\n        /* \"secondary.sol\":13733:13783  shares[i] = assetOwnership[_assetId].shares[owner] */\n      mstore\n      pop\n        /* \"secondary.sol\":13619:13622  i++ */\n      0x01\n      add\n        /* \"secondary.sol\":13583:13794  for (uint256 i = 0; i < ownerCount; i++) {... */\n      jump(tag_120)\n    tag_121:\n      pop\n        /* \"secondary.sol\":13812:13835  return (owners, shares) */\n      pop\n        /* \"secondary.sol\":13029:13842  function getAssetOwners(uint256 _assetId) external view returns (... */\n      swap2\n      pop\n      swap2\n      jump\t// out\n        /* \"secondary.sol\":2609:3246  function initializeAssetOwnership(uint256 _assetId) public {... */\n    tag_36:\n        /* \"secondary.sol\":2687:2711  assetOwnership[_assetId] */\n      0x00\n      dup2\n      dup2\n      mstore\n        /* \"secondary.sol\":2687:2701  assetOwnership */\n      0x05\n        /* \"secondary.sol\":2687:2711  assetOwnership[_assetId] */\n      0x20\n      mstore\n      0x40\n      swap1\n      keccak256\n        /* \"secondary.sol\":2687:2723  assetOwnership[_assetId].initialized */\n      0x02\n      add\n      sload\n      0xff\n      and\n        /* \"secondary.sol\":2686:2723  !assetOwnership[_assetId].initialized */\n      iszero\n        /* \"secondary.sol\":2678:2753  require(!assetOwnership[_assetId].initialized, \"Asset already initialized\") */\n      tag_132\n      jumpi\n      mload(0x40)\n      shl(0xe5, 0x461bcd)\n      dup2\n      mstore\n        /* \"#utility.yul\":6816:6818   */\n      0x20\n        /* \"secondary.sol\":2678:2753  require(!assetOwnership[_assetId].initialized, \"Asset already initialized\") */\n      0x04\n      dup3\n      add\n        /* \"#utility.yul\":6798:6819   */\n      mstore\n        /* \"#utility.yul\":6855:6857   */\n      0x19\n        /* \"#utility.yul\":6835:6853   */\n      0x24\n      dup3\n      add\n        /* \"#utility.yul\":6828:6858   */\n      mstore\n      shl(0x3a, 0x105cdcd95d08185b1c9958591e481a5b9a5d1a585b1a5e9959)\n        /* \"#utility.yul\":6874:6892   */\n      0x44\n      dup3\n      add\n        /* \"#utility.yul\":6867:6922   */\n      mstore\n        /* \"#utility.yul\":6939:6957   */\n      0x64\n      add\n        /* \"secondary.sol\":2678:2753  require(!assetOwnership[_assetId].initialized, \"Asset already initialized\") */\n      tag_93\n        /* \"#utility.yul\":6614:6963   */\n      jump\n        /* \"secondary.sol\":2678:2753  require(!assetOwnership[_assetId].initialized, \"Asset already initialized\") */\n    tag_132:\n        /* \"secondary.sol\":2838:2861  initialOfferingContract */\n      sload(0x01)\n        /* \"secondary.sol\":2838:2886  initialOfferingContract.getAssetOwners(_assetId) */\n      mload(0x40)\n      shl(0xe0, 0x686735c5)\n      dup2\n      mstore\n      0x04\n      dup2\n      add\n        /* \"#utility.yul\":3769:3794   */\n      dup4\n      swap1\n      mstore\n        /* \"secondary.sol\":2773:2804  address[] memory ownerAddresses */\n      0x00\n      swap2\n      dup3\n      swap2\n      sub(shl(0xa0, 0x01), 0x01)\n        /* \"secondary.sol\":2838:2861  initialOfferingContract */\n      swap1\n      swap2\n      and\n      swap1\n        /* \"secondary.sol\":2838:2876  initialOfferingContract.getAssetOwners */\n      0x686735c5\n      swap1\n        /* \"#utility.yul\":3742:3760   */\n      0x24\n      add\n        /* \"secondary.sol\":2838:2886  initialOfferingContract.getAssetOwners(_assetId) */\n      0x00\n      mload(0x40)\n      dup1\n      dup4\n      sub\n      dup2\n      dup7\n      gas\n      staticcall\n      iszero\n      dup1\n      iszero\n      tag_137\n      jumpi\n      returndatasize\n      0x00\n      dup1\n      returndatacopy\n      revert(0x00, returndatasize)\n    tag_137:\n      pop\n      pop\n      pop\n      pop\n      mload(0x40)\n      returndatasize\n      0x00\n      dup3\n      returndatacopy\n      0x1f\n      returndatasize\n      swap1\n      dup2\n      add\n      not(0x1f)\n      and\n      dup3\n      add\n      0x40\n      mstore\n      tag_138\n      swap2\n      swap1\n      dup2\n      add\n      swap1\n      tag_139\n      jump\t// in\n    tag_138:\n        /* \"secondary.sol\":2772:2886  (address[] memory ownerAddresses, uint256[] memory ownerShares) = initialOfferingContract.getAssetOwners(_assetId) */\n      swap2\n      pop\n      swap2\n      pop\n        /* \"secondary.sol\":2910:2919  uint256 i */\n      0x00\n        /* \"secondary.sol\":2905:3178  for (uint256 i = 0; i < ownerAddresses.length; i++) {... */\n    tag_140:\n        /* \"secondary.sol\":2929:2943  ownerAddresses */\n      dup3\n        /* \"secondary.sol\":2929:2950  ownerAddresses.length */\n      mload\n        /* \"secondary.sol\":2925:2926  i */\n      dup2\n        /* \"secondary.sol\":2925:2950  i < ownerAddresses.length */\n      lt\n        /* \"secondary.sol\":2905:3178  for (uint256 i = 0; i < ownerAddresses.length; i++) {... */\n      iszero\n      tag_141\n      jumpi\n        /* \"secondary.sol\":2992:2993  0 */\n      0x00\n        /* \"secondary.sol\":2975:2986  ownerShares */\n      dup3\n        /* \"secondary.sol\":2987:2988  i */\n      dup3\n        /* \"secondary.sol\":2975:2989  ownerShares[i] */\n      dup2\n      mload\n      dup2\n      lt\n      tag_144\n      jumpi\n      tag_144\n      tag_125\n      jump\t// in\n    tag_144:\n      0x20\n      mul\n      0x20\n      add\n      add\n      mload\n        /* \"secondary.sol\":2975:2993  ownerShares[i] > 0 */\n      gt\n        /* \"secondary.sol\":2971:3168  if (ownerShares[i] > 0) {... */\n      iszero\n      tag_145\n      jumpi\n        /* \"secondary.sol\":3066:3077  ownerShares */\n      dup2\n        /* \"secondary.sol\":3078:3079  i */\n      dup2\n        /* \"secondary.sol\":3066:3080  ownerShares[i] */\n      dup2\n      mload\n      dup2\n      lt\n      tag_147\n      jumpi\n      tag_147\n      tag_125\n      jump\t// in\n    tag_147:\n      0x20\n      mul\n      0x20\n      add\n      add\n      mload\n        /* \"secondary.sol\":3013:3027  assetOwnership */\n      0x05\n        /* \"secondary.sol\":3013:3037  assetOwnership[_assetId] */\n      0x00\n        /* \"secondary.sol\":3028:3036  _assetId */\n      dup7\n        /* \"secondary.sol\":3013:3037  assetOwnership[_assetId] */\n      dup2\n      mstore\n      0x20\n      add\n      swap1\n      dup2\n      mstore\n      0x20\n      add\n      0x00\n      keccak256\n        /* \"secondary.sol\":3013:3044  assetOwnership[_assetId].shares */\n      0x00\n      add\n        /* \"secondary.sol\":3013:3063  assetOwnership[_assetId].shares[ownerAddresses[i]] */\n      0x00\n        /* \"secondary.sol\":3045:3059  ownerAddresses */\n      dup6\n        /* \"secondary.sol\":3060:3061  i */\n      dup5\n        /* \"secondary.sol\":3045:3062  ownerAddresses[i] */\n      dup2\n      mload\n      dup2\n      lt\n      tag_149\n      jumpi\n      tag_149\n      tag_125\n      jump\t// in\n    tag_149:\n      0x20\n      mul\n      0x20\n      add\n      add\n      mload\n      sub(shl(0xa0, 0x01), 0x01)\n        /* \"secondary.sol\":3013:3063  assetOwnership[_assetId].shares[ownerAddresses[i]] */\n      and\n      sub(shl(0xa0, 0x01), 0x01)\n      and\n      dup2\n      mstore\n      0x20\n      add\n      swap1\n      dup2\n      mstore\n      0x20\n      add\n      0x00\n      keccak256\n        /* \"secondary.sol\":3013:3080  assetOwnership[_assetId].shares[ownerAddresses[i]] = ownerShares[i] */\n      dup2\n      swap1\n      sstore\n      pop\n        /* \"secondary.sol\":3098:3112  assetOwnership */\n      0x05\n        /* \"secondary.sol\":3098:3122  assetOwnership[_assetId] */\n      0x00\n        /* \"secondary.sol\":3113:3121  _assetId */\n      dup6\n        /* \"secondary.sol\":3098:3122  assetOwnership[_assetId] */\n      dup2\n      mstore\n      0x20\n      add\n      swap1\n      dup2\n      mstore\n      0x20\n      add\n      0x00\n      keccak256\n        /* \"secondary.sol\":3098:3129  assetOwnership[_assetId].owners */\n      0x01\n      add\n        /* \"secondary.sol\":3135:3149  ownerAddresses */\n      dup4\n        /* \"secondary.sol\":3150:3151  i */\n      dup3\n        /* \"secondary.sol\":3135:3152  ownerAddresses[i] */\n      dup2\n      mload\n      dup2\n      lt\n      tag_151\n      jumpi\n      tag_151\n      tag_125\n      jump\t// in\n    tag_151:\n      0x20\n      swap1\n      dup2\n      mul\n      swap2\n      swap1\n      swap2\n      add\n      dup2\n      add\n      mload\n        /* \"secondary.sol\":3098:3153  assetOwnership[_assetId].owners.push(ownerAddresses[i]) */\n      dup3\n      sload\n      0x01\n      dup2\n      add\n      dup5\n      sstore\n      0x00\n      swap4\n      dup5\n      mstore\n      swap2\n      swap1\n      swap3\n      keccak256\n      add\n      dup1\n      sload\n      not(sub(shl(0xa0, 0x01), 0x01))\n      and\n      sub(shl(0xa0, 0x01), 0x01)\n      swap1\n      swap3\n      and\n      swap2\n      swap1\n      swap2\n      or\n      swap1\n      sstore\n        /* \"secondary.sol\":2971:3168  if (ownerShares[i] > 0) {... */\n    tag_145:\n        /* \"secondary.sol\":2952:2955  i++ */\n      0x01\n      add\n        /* \"secondary.sol\":2905:3178  for (uint256 i = 0; i < ownerAddresses.length; i++) {... */\n      jump(tag_140)\n    tag_141:\n      pop\n      pop\n      pop\n        /* \"secondary.sol\":3196:3220  assetOwnership[_assetId] */\n      0x00\n      swap1\n      dup2\n      mstore\n        /* \"secondary.sol\":3196:3210  assetOwnership */\n      0x05\n        /* \"secondary.sol\":3196:3220  assetOwnership[_assetId] */\n      0x20\n      mstore\n      0x40\n      swap1\n      keccak256\n        /* \"secondary.sol\":3196:3232  assetOwnership[_assetId].initialized */\n      0x02\n      add\n        /* \"secondary.sol\":3196:3239  assetOwnership[_assetId].initialized = true */\n      dup1\n      sload\n      not(0xff)\n      and\n        /* \"secondary.sol\":3235:3239  true */\n      0x01\n        /* \"secondary.sol\":3196:3239  assetOwnership[_assetId].initialized = true */\n      or\n      swap1\n      sstore\n        /* \"secondary.sol\":2609:3246  function initializeAssetOwnership(uint256 _assetId) public {... */\n      jump\t// out\n        /* \"secondary.sol\":10292:11465  function getActiveListings() external view returns (... */\n    tag_39:\n        /* \"secondary.sol\":10353:10380  uint256[] memory listingIds */\n      0x60\n      dup1\n      dup1\n      dup1\n      dup1\n        /* \"secondary.sol\":10570:10589  uint256 activeCount */\n      0x00\n        /* \"secondary.sol\":10620:10621  1 */\n      0x01\n        /* \"secondary.sol\":10603:10743  for (uint256 i = 1; i <= listingCount; i++) {... */\n    tag_154:\n        /* \"secondary.sol\":10628:10640  listingCount */\n      sload(0x04)\n        /* \"secondary.sol\":10623:10624  i */\n      dup2\n        /* \"secondary.sol\":10623:10640  i <= listingCount */\n      gt\n        /* \"secondary.sol\":10603:10743  for (uint256 i = 1; i <= listingCount; i++) {... */\n      tag_155\n      jumpi\n        /* \"secondary.sol\":10665:10676  listings[i] */\n      0x00\n      dup2\n      dup2\n      mstore\n        /* \"secondary.sol\":10665:10673  listings */\n      0x02\n        /* \"secondary.sol\":10665:10676  listings[i] */\n      0x20\n      mstore\n      0x40\n      swap1\n      keccak256\n        /* \"secondary.sol\":10665:10685  listings[i].isActive */\n      0x03\n      add\n      sload\n      0xff\n      and\n        /* \"secondary.sol\":10661:10733  if (listings[i].isActive) {... */\n      iszero\n      tag_157\n      jumpi\n        /* \"secondary.sol\":10705:10718  activeCount++ */\n      dup2\n      tag_158\n      dup2\n      tag_159\n      jump\t// in\n    tag_158:\n      swap3\n      pop\n      pop\n        /* \"secondary.sol\":10661:10733  if (listings[i].isActive) {... */\n    tag_157:\n        /* \"secondary.sol\":10642:10645  i++ */\n      dup1\n      tag_160\n      dup2\n      tag_159\n      jump\t// in\n    tag_160:\n      swap2\n      pop\n      pop\n        /* \"secondary.sol\":10603:10743  for (uint256 i = 1; i <= listingCount; i++) {... */\n      jump(tag_154)\n    tag_155:\n      pop\n        /* \"secondary.sol\":10817:10828  activeCount */\n      dup1\n      sub(shl(0x40, 0x01), 0x01)\n        /* \"secondary.sol\":10803:10829  new uint256[](activeCount) */\n      dup2\n      gt\n      iszero\n      tag_162\n      jumpi\n      tag_162\n      tag_109\n      jump\t// in\n    tag_162:\n      mload(0x40)\n      swap1\n      dup1\n      dup3\n      mstore\n      dup1\n      0x20\n      mul\n      0x20\n      add\n      dup3\n      add\n      0x40\n      mstore\n      dup1\n      iszero\n      tag_163\n      jumpi\n      dup2\n      0x20\n      add\n      0x20\n      dup3\n      mul\n      dup1\n      calldatasize\n      dup4\n      calldatacopy\n      add\n      swap1\n      pop\n    tag_163:\n      pop\n        /* \"secondary.sol\":10790:10829  listingIds = new uint256[](activeCount) */\n      swap6\n      pop\n        /* \"secondary.sol\":10864:10875  activeCount */\n      dup1\n      sub(shl(0x40, 0x01), 0x01)\n        /* \"secondary.sol\":10850:10876  new uint256[](activeCount) */\n      dup2\n      gt\n      iszero\n      tag_165\n      jumpi\n      tag_165\n      tag_109\n      jump\t// in\n    tag_165:\n      mload(0x40)\n      swap1\n      dup1\n      dup3\n      mstore\n      dup1\n      0x20\n      mul\n      0x20\n      add\n      dup3\n      add\n      0x40\n      mstore\n      dup1\n      iszero\n      tag_166\n      jumpi\n      dup2\n      0x20\n      add\n      0x20\n      dup3\n      mul\n      dup1\n      calldatasize\n      dup4\n      calldatacopy\n      add\n      swap1\n      pop\n    tag_166:\n      pop\n        /* \"secondary.sol\":10839:10876  assetIds = new uint256[](activeCount) */\n      swap5\n      pop\n        /* \"secondary.sol\":10910:10921  activeCount */\n      dup1\n      sub(shl(0x40, 0x01), 0x01)\n        /* \"secondary.sol\":10896:10922  new address[](activeCount) */\n      dup2\n      gt\n      iszero\n      tag_168\n      jumpi\n      tag_168\n      tag_109\n      jump\t// in\n    tag_168:\n      mload(0x40)\n      swap1\n      dup1\n      dup3\n      mstore\n      dup1\n      0x20\n      mul\n      0x20\n      add\n      dup3\n      add\n      0x40\n      mstore\n      dup1\n      iszero\n      tag_169\n      jumpi\n      dup2\n      0x20\n      add\n      0x20\n      dup3\n      mul\n      dup1\n      calldatasize\n      dup4\n      calldatacopy\n      add\n      swap1\n      pop\n    tag_169:\n      pop\n        /* \"secondary.sol\":10886:10922  sellers = new address[](activeCount) */\n      swap4\n      pop\n        /* \"secondary.sol\":10958:10969  activeCount */\n      dup1\n      sub(shl(0x40, 0x01), 0x01)\n        /* \"secondary.sol\":10944:10970  new uint256[](activeCount) */\n      dup2\n      gt\n      iszero\n      tag_171\n      jumpi\n      tag_171\n      tag_109\n      jump\t// in\n    tag_171:\n      mload(0x40)\n      swap1\n      dup1\n      dup3\n      mstore\n      dup1\n      0x20\n      mul\n      0x20\n      add\n      dup3\n      add\n      0x40\n      mstore\n      dup1\n      iszero\n      tag_172\n      jumpi\n      dup2\n      0x20\n      add\n      0x20\n      dup3\n      mul\n      dup1\n      calldatasize\n      dup4\n      calldatacopy\n      add\n      swap1\n      pop\n    tag_172:\n      pop\n        /* \"secondary.sol\":10932:10970  minPrices = new uint256[](activeCount) */\n      swap3\n      pop\n        /* \"secondary.sol\":11016:11029  uint256 index */\n      0x00\n        /* \"secondary.sol\":11060:11061  1 */\n      0x01\n        /* \"secondary.sol\":11043:11381  for (uint256 i = 1; i <= listingCount; i++) {... */\n    tag_173:\n        /* \"secondary.sol\":11068:11080  listingCount */\n      sload(0x04)\n        /* \"secondary.sol\":11063:11064  i */\n      dup2\n        /* \"secondary.sol\":11063:11080  i <= listingCount */\n      gt\n        /* \"secondary.sol\":11043:11381  for (uint256 i = 1; i <= listingCount; i++) {... */\n      tag_174\n      jumpi\n        /* \"secondary.sol\":11105:11116  listings[i] */\n      0x00\n      dup2\n      dup2\n      mstore\n        /* \"secondary.sol\":11105:11113  listings */\n      0x02\n        /* \"secondary.sol\":11105:11116  listings[i] */\n      0x20\n      mstore\n      0x40\n      swap1\n      keccak256\n        /* \"secondary.sol\":11105:11125  listings[i].isActive */\n      0x03\n      add\n      sload\n      0xff\n      and\n        /* \"secondary.sol\":11101:11371  if (listings[i].isActive) {... */\n      iszero\n      tag_176\n      jumpi\n        /* \"secondary.sol\":11165:11166  i */\n      dup1\n        /* \"secondary.sol\":11145:11155  listingIds */\n      dup9\n        /* \"secondary.sol\":11156:11161  index */\n      dup4\n        /* \"secondary.sol\":11145:11162  listingIds[index] */\n      dup2\n      mload\n      dup2\n      lt\n      tag_178\n      jumpi\n      tag_178\n      tag_125\n      jump\t// in\n    tag_178:\n      0x20\n      mul\n      0x20\n      add\n      add\n        /* \"secondary.sol\":11145:11166  listingIds[index] = i */\n      dup2\n      dup2\n      mstore\n      pop\n      pop\n        /* \"secondary.sol\":11202:11210  listings */\n      0x02\n        /* \"secondary.sol\":11202:11213  listings[i] */\n      0x00\n        /* \"secondary.sol\":11211:11212  i */\n      dup3\n        /* \"secondary.sol\":11202:11213  listings[i] */\n      dup2\n      mstore\n      0x20\n      add\n      swap1\n      dup2\n      mstore\n      0x20\n      add\n      0x00\n      keccak256\n        /* \"secondary.sol\":11202:11221  listings[i].assetId */\n      0x00\n      add\n      sload\n        /* \"secondary.sol\":11184:11192  assetIds */\n      dup8\n        /* \"secondary.sol\":11193:11198  index */\n      dup4\n        /* \"secondary.sol\":11184:11199  assetIds[index] */\n      dup2\n      mload\n      dup2\n      lt\n      tag_180\n      jumpi\n      tag_180\n      tag_125\n      jump\t// in\n    tag_180:\n      0x20\n      swap1\n      dup2\n      mul\n      swap2\n      swap1\n      swap2\n      add\n      dup2\n      add\n        /* \"secondary.sol\":11184:11221  assetIds[index] = listings[i].assetId */\n      swap2\n      swap1\n      swap2\n      mstore\n        /* \"secondary.sol\":11256:11267  listings[i] */\n      0x00\n      dup3\n      dup2\n      mstore\n        /* \"secondary.sol\":11256:11264  listings */\n      0x02\n        /* \"secondary.sol\":11256:11267  listings[i] */\n      swap1\n      swap2\n      mstore\n      0x40\n      swap1\n      keccak256\n        /* \"secondary.sol\":11256:11274  listings[i].seller */\n      0x01\n      add\n      sload\n        /* \"secondary.sol\":11239:11253  sellers[index] */\n      dup7\n      mload\n      sub(shl(0xa0, 0x01), 0x01)\n        /* \"secondary.sol\":11256:11274  listings[i].seller */\n      swap1\n      swap2\n      and\n      swap1\n        /* \"secondary.sol\":11239:11246  sellers */\n      dup8\n      swap1\n        /* \"secondary.sol\":11247:11252  index */\n      dup5\n      swap1\n        /* \"secondary.sol\":11239:11253  sellers[index] */\n      dup2\n      lt\n      tag_182\n      jumpi\n      tag_182\n      tag_125\n      jump\t// in\n    tag_182:\n      sub(shl(0xa0, 0x01), 0x01)\n        /* \"secondary.sol\":11239:11274  sellers[index] = listings[i].seller */\n      swap1\n      swap3\n      and\n        /* \"secondary.sol\":11239:11253  sellers[index] */\n      0x20\n      swap3\n      dup4\n      mul\n      swap2\n      swap1\n      swap2\n      add\n      dup3\n      add\n        /* \"secondary.sol\":11239:11274  sellers[index] = listings[i].seller */\n      mstore\n        /* \"secondary.sol\":11311:11322  listings[i] */\n      0x00\n      dup3\n      dup2\n      mstore\n        /* \"secondary.sol\":11311:11319  listings */\n      0x02\n        /* \"secondary.sol\":11311:11322  listings[i] */\n      swap2\n      dup3\n      swap1\n      mstore\n      0x40\n      swap1\n      keccak256\n        /* \"secondary.sol\":11311:11331  listings[i].minPrice */\n      add\n      sload\n        /* \"secondary.sol\":11292:11308  minPrices[index] */\n      dup6\n      mload\n        /* \"secondary.sol\":11292:11301  minPrices */\n      dup7\n      swap1\n        /* \"secondary.sol\":11302:11307  index */\n      dup5\n      swap1\n        /* \"secondary.sol\":11292:11308  minPrices[index] */\n      dup2\n      lt\n      tag_184\n      jumpi\n      tag_184\n      tag_125\n      jump\t// in\n    tag_184:\n      0x20\n      swap1\n      dup2\n      mul\n      swap2\n      swap1\n      swap2\n      add\n      add\n        /* \"secondary.sol\":11292:11331  minPrices[index] = listings[i].minPrice */\n      mstore\n        /* \"secondary.sol\":11349:11356  index++ */\n      dup2\n      tag_185\n      dup2\n      tag_159\n      jump\t// in\n    tag_185:\n      swap3\n      pop\n      pop\n        /* \"secondary.sol\":11101:11371  if (listings[i].isActive) {... */\n    tag_176:\n        /* \"secondary.sol\":11082:11085  i++ */\n      dup1\n      tag_186\n      dup2\n      tag_159\n      jump\t// in\n    tag_186:\n      swap2\n      pop\n      pop\n        /* \"secondary.sol\":11043:11381  for (uint256 i = 1; i <= listingCount; i++) {... */\n      jump(tag_173)\n    tag_174:\n      pop\n        /* \"secondary.sol\":11399:11458  return (listingIds, assetIds, sellers, minPrices, endTimes) */\n      pop\n      pop\n        /* \"secondary.sol\":10292:11465  function getActiveListings() external view returns (... */\n      swap1\n      swap2\n      swap3\n      swap4\n      swap5\n      jump\t// out\n        /* \"secondary.sol\":12029:12941  function getListingBids(uint256 _listingId) external view returns (... */\n    tag_45:\n        /* \"secondary.sol\":12180:12207  SecondaryBid[] storage bids */\n      0x00\n        /* \"secondary.sol\":12210:12233  listingBids[_listingId] */\n      dup2\n      dup2\n      mstore\n        /* \"secondary.sol\":12210:12221  listingBids */\n      0x03\n        /* \"secondary.sol\":12210:12233  listingBids[_listingId] */\n      0x20\n      mstore\n      0x40\n      dup2\n      keccak256\n        /* \"secondary.sol\":12105:12129  address[] memory bidders */\n      0x60\n      swap2\n      dup3\n      swap2\n        /* \"secondary.sol\":12210:12233  listingBids[_listingId] */\n      swap1\n        /* \"secondary.sol\":12180:12207  SecondaryBid[] storage bids */\n      dup1\n        /* \"secondary.sol\":12317:12454  for (uint256 i = 0; i < bids.length; i++) {... */\n    tag_188:\n        /* \"secondary.sol\":12341:12352  bids.length */\n      dup3\n      sload\n        /* \"secondary.sol\":12337:12352  i < bids.length */\n      dup2\n      lt\n        /* \"secondary.sol\":12317:12454  for (uint256 i = 0; i < bids.length; i++) {... */\n      iszero\n      tag_189\n      jumpi\n        /* \"secondary.sol\":12377:12381  bids */\n      dup3\n        /* \"secondary.sol\":12382:12383  i */\n      dup2\n        /* \"secondary.sol\":12377:12384  bids[i] */\n      dup2\n      sload\n      dup2\n      lt\n      tag_192\n      jumpi\n      tag_192\n      tag_125\n      jump\t// in\n    tag_192:\n      0x00\n      swap2\n      dup3\n      mstore\n      0x20\n      swap1\n      swap2\n      keccak256\n        /* \"secondary.sol\":12377:12393  bids[i].isActive */\n      0x02\n        /* \"secondary.sol\":12377:12384  bids[i] */\n      0x03\n      swap1\n      swap3\n      mul\n      add\n        /* \"secondary.sol\":12377:12393  bids[i].isActive */\n      add\n      sload\n      0xff\n      and\n        /* \"secondary.sol\":12373:12444  if (bids[i].isActive) {... */\n      iszero\n      tag_194\n      jumpi\n        /* \"secondary.sol\":12413:12429  activeBidCount++ */\n      dup2\n      tag_195\n      dup2\n      tag_159\n      jump\t// in\n    tag_195:\n      swap3\n      pop\n      pop\n        /* \"secondary.sol\":12373:12444  if (bids[i].isActive) {... */\n    tag_194:\n        /* \"secondary.sol\":12354:12357  i++ */\n      0x01\n      add\n        /* \"secondary.sol\":12317:12454  for (uint256 i = 0; i < bids.length; i++) {... */\n      jump(tag_188)\n    tag_189:\n      pop\n        /* \"secondary.sol\":12525:12539  activeBidCount */\n      dup1\n      sub(shl(0x40, 0x01), 0x01)\n        /* \"secondary.sol\":12511:12540  new address[](activeBidCount) */\n      dup2\n      gt\n      iszero\n      tag_197\n      jumpi\n      tag_197\n      tag_109\n      jump\t// in\n    tag_197:\n      mload(0x40)\n      swap1\n      dup1\n      dup3\n      mstore\n      dup1\n      0x20\n      mul\n      0x20\n      add\n      dup3\n      add\n      0x40\n      mstore\n      dup1\n      iszero\n      tag_198\n      jumpi\n      dup2\n      0x20\n      add\n      0x20\n      dup3\n      mul\n      dup1\n      calldatasize\n      dup4\n      calldatacopy\n      add\n      swap1\n      pop\n    tag_198:\n      pop\n        /* \"secondary.sol\":12501:12540  bidders = new address[](activeBidCount) */\n      swap4\n      pop\n        /* \"secondary.sol\":12574:12588  activeBidCount */\n      dup1\n      sub(shl(0x40, 0x01), 0x01)\n        /* \"secondary.sol\":12560:12589  new uint256[](activeBidCount) */\n      dup2\n      gt\n      iszero\n      tag_200\n      jumpi\n      tag_200\n      tag_109\n      jump\t// in\n    tag_200:\n      mload(0x40)\n      swap1\n      dup1\n      dup3\n      mstore\n      dup1\n      0x20\n      mul\n      0x20\n      add\n      dup3\n      add\n      0x40\n      mstore\n      dup1\n      iszero\n      tag_201\n      jumpi\n      dup2\n      0x20\n      add\n      0x20\n      dup3\n      mul\n      dup1\n      calldatasize\n      dup4\n      calldatacopy\n      add\n      swap1\n      pop\n    tag_201:\n      pop\n        /* \"secondary.sol\":12550:12589  amounts = new uint256[](activeBidCount) */\n      swap3\n      pop\n        /* \"secondary.sol\":12635:12648  uint256 index */\n      0x00\n        /* \"secondary.sol\":12667:12676  uint256 i */\n      dup1\n        /* \"secondary.sol\":12662:12891  for (uint256 i = 0; i < bids.length; i++) {... */\n    tag_202:\n        /* \"secondary.sol\":12686:12697  bids.length */\n      dup4\n      sload\n        /* \"secondary.sol\":12682:12697  i < bids.length */\n      dup2\n      lt\n        /* \"secondary.sol\":12662:12891  for (uint256 i = 0; i < bids.length; i++) {... */\n      iszero\n      tag_203\n      jumpi\n        /* \"secondary.sol\":12722:12726  bids */\n      dup4\n        /* \"secondary.sol\":12727:12728  i */\n      dup2\n        /* \"secondary.sol\":12722:12729  bids[i] */\n      dup2\n      sload\n      dup2\n      lt\n      tag_206\n      jumpi\n      tag_206\n      tag_125\n      jump\t// in\n    tag_206:\n      0x00\n      swap2\n      dup3\n      mstore\n      0x20\n      swap1\n      swap2\n      keccak256\n        /* \"secondary.sol\":12722:12738  bids[i].isActive */\n      0x02\n        /* \"secondary.sol\":12722:12729  bids[i] */\n      0x03\n      swap1\n      swap3\n      mul\n      add\n        /* \"secondary.sol\":12722:12738  bids[i].isActive */\n      add\n      sload\n      0xff\n      and\n        /* \"secondary.sol\":12718:12881  if (bids[i].isActive) {... */\n      iszero\n      tag_208\n      jumpi\n        /* \"secondary.sol\":12775:12779  bids */\n      dup4\n        /* \"secondary.sol\":12780:12781  i */\n      dup2\n        /* \"secondary.sol\":12775:12782  bids[i] */\n      dup2\n      sload\n      dup2\n      lt\n      tag_210\n      jumpi\n      tag_210\n      tag_125\n      jump\t// in\n    tag_210:\n      0x00\n      swap2\n      dup3\n      mstore\n      0x20\n      swap1\n      swap2\n      keccak256\n      0x03\n      swap1\n      swap2\n      mul\n      add\n        /* \"secondary.sol\":12775:12789  bids[i].bidder */\n      sload\n        /* \"secondary.sol\":12758:12772  bidders[index] */\n      dup7\n      mload\n      sub(shl(0xa0, 0x01), 0x01)\n        /* \"secondary.sol\":12775:12789  bids[i].bidder */\n      swap1\n      swap2\n      and\n      swap1\n        /* \"secondary.sol\":12758:12765  bidders */\n      dup8\n      swap1\n        /* \"secondary.sol\":12766:12771  index */\n      dup5\n      swap1\n        /* \"secondary.sol\":12758:12772  bidders[index] */\n      dup2\n      lt\n      tag_213\n      jumpi\n      tag_213\n      tag_125\n      jump\t// in\n    tag_213:\n      0x20\n      mul\n      0x20\n      add\n      add\n        /* \"secondary.sol\":12758:12789  bidders[index] = bids[i].bidder */\n      swap1\n      sub(shl(0xa0, 0x01), 0x01)\n      and\n      swap1\n      dup2\n      sub(shl(0xa0, 0x01), 0x01)\n      and\n      dup2\n      mstore\n      pop\n      pop\n        /* \"secondary.sol\":12824:12828  bids */\n      dup4\n        /* \"secondary.sol\":12829:12830  i */\n      dup2\n        /* \"secondary.sol\":12824:12831  bids[i] */\n      dup2\n      sload\n      dup2\n      lt\n      tag_215\n      jumpi\n      tag_215\n      tag_125\n      jump\t// in\n    tag_215:\n      swap1\n      0x00\n      mstore\n      keccak256(0x00, 0x20)\n      swap1\n      0x03\n      mul\n      add\n        /* \"secondary.sol\":12824:12841  bids[i].bidAmount */\n      0x01\n      add\n      sload\n        /* \"secondary.sol\":12807:12814  amounts */\n      dup6\n        /* \"secondary.sol\":12815:12820  index */\n      dup4\n        /* \"secondary.sol\":12807:12821  amounts[index] */\n      dup2\n      mload\n      dup2\n      lt\n      tag_218\n      jumpi\n      tag_218\n      tag_125\n      jump\t// in\n    tag_218:\n      0x20\n      swap1\n      dup2\n      mul\n      swap2\n      swap1\n      swap2\n      add\n      add\n        /* \"secondary.sol\":12807:12841  amounts[index] = bids[i].bidAmount */\n      mstore\n        /* \"secondary.sol\":12859:12866  index++ */\n      dup2\n      tag_219\n      dup2\n      tag_159\n      jump\t// in\n    tag_219:\n      swap3\n      pop\n      pop\n        /* \"secondary.sol\":12718:12881  if (bids[i].isActive) {... */\n    tag_208:\n        /* \"secondary.sol\":12699:12702  i++ */\n      0x01\n      add\n        /* \"secondary.sol\":12662:12891  for (uint256 i = 0; i < bids.length; i++) {... */\n      jump(tag_202)\n    tag_203:\n      pop\n        /* \"secondary.sol\":12909:12934  return (bidders, amounts) */\n      pop\n      pop\n      pop\n        /* \"secondary.sol\":12029:12941  function getListingBids(uint256 _listingId) external view returns (... */\n      swap2\n      pop\n      swap2\n      jump\t// out\n        /* \"secondary.sol\":4303:4970  function placeBid(uint256 _listingId) external payable nonReentrant {... */\n    tag_49:\n        /* \"@openzeppelin/contracts/security/ReentrancyGuard.sol\":2261:2282  _nonReentrantBefore() */\n      tag_221\n        /* \"@openzeppelin/contracts/security/ReentrancyGuard.sol\":2261:2280  _nonReentrantBefore */\n      tag_90\n        /* \"@openzeppelin/contracts/security/ReentrancyGuard.sol\":2261:2282  _nonReentrantBefore() */\n      jump\t// in\n    tag_221:\n        /* \"secondary.sol\":4381:4413  SecondaryListing storage listing */\n      0x00\n        /* \"secondary.sol\":4416:4436  listings[_listingId] */\n      dup2\n      dup2\n      mstore\n        /* \"secondary.sol\":4416:4424  listings */\n      0x02\n        /* \"secondary.sol\":4416:4436  listings[_listingId] */\n      0x20\n      mstore\n      0x40\n      swap1\n      keccak256\n        /* \"secondary.sol\":4463:4479  listing.isActive */\n      0x03\n      dup2\n      add\n      sload\n      0xff\n      and\n        /* \"secondary.sol\":4455:4502  require(listing.isActive, \"Listing not active\") */\n      tag_223\n      jumpi\n      mload(0x40)\n      shl(0xe5, 0x461bcd)\n      dup2\n      mstore\n      0x04\n      add\n      tag_93\n      swap1\n      tag_97\n      jump\t// in\n    tag_223:\n        /* \"secondary.sol\":4521:4540  listing.isCompleted */\n      0x03\n      dup2\n      add\n      sload\n      0x0100\n      swap1\n      div\n      0xff\n      and\n        /* \"secondary.sol\":4520:4540  !listing.isCompleted */\n      iszero\n        /* \"secondary.sol\":4512:4570  require(!listing.isCompleted, \"Listing already completed\") */\n      tag_225\n      jumpi\n      mload(0x40)\n      shl(0xe5, 0x461bcd)\n      dup2\n      mstore\n      0x04\n      add\n      tag_93\n      swap1\n      tag_100\n      jump\t// in\n    tag_225:\n        /* \"secondary.sol\":4602:4616  listing.seller */\n      0x01\n      dup2\n      add\n      sload\n      sub(shl(0xa0, 0x01), 0x01)\n      and\n        /* \"secondary.sol\":4588:4598  msg.sender */\n      caller\n        /* \"secondary.sol\":4588:4616  msg.sender != listing.seller */\n      sub\n        /* \"secondary.sol\":4580:4653  require(msg.sender != listing.seller, \"Seller cannot bid on own listing\") */\n      tag_227\n      jumpi\n      mload(0x40)\n      shl(0xe5, 0x461bcd)\n      dup2\n      mstore\n        /* \"#utility.yul\":9795:9797   */\n      0x20\n        /* \"secondary.sol\":4580:4653  require(msg.sender != listing.seller, \"Seller cannot bid on own listing\") */\n      0x04\n      dup3\n      add\n        /* \"#utility.yul\":9777:9798   */\n      dup2\n      swap1\n      mstore\n        /* \"#utility.yul\":9814:9832   */\n      0x24\n      dup3\n      add\n        /* \"#utility.yul\":9807:9837   */\n      mstore\n        /* \"#utility.yul\":9873:9907   */\n      0x53656c6c65722063616e6e6f7420626964206f6e206f776e206c697374696e67\n        /* \"#utility.yul\":9853:9871   */\n      0x44\n      dup3\n      add\n        /* \"#utility.yul\":9846:9908   */\n      mstore\n        /* \"#utility.yul\":9925:9943   */\n      0x64\n      add\n        /* \"secondary.sol\":4580:4653  require(msg.sender != listing.seller, \"Seller cannot bid on own listing\") */\n      tag_93\n        /* \"#utility.yul\":9593:9949   */\n      jump\n        /* \"secondary.sol\":4580:4653  require(msg.sender != listing.seller, \"Seller cannot bid on own listing\") */\n    tag_227:\n        /* \"secondary.sol\":4684:4691  listing */\n      dup1\n        /* \"secondary.sol\":4684:4700  listing.minPrice */\n      0x02\n      add\n      sload\n        /* \"secondary.sol\":4671:4680  msg.value */\n      callvalue\n        /* \"secondary.sol\":4671:4700  msg.value >= listing.minPrice */\n      lt\n      iszero\n        /* \"secondary.sol\":4663:4728  require(msg.value >= listing.minPrice, \"Bid below minimum price\") */\n      tag_230\n      jumpi\n      mload(0x40)\n      shl(0xe5, 0x461bcd)\n      dup2\n      mstore\n        /* \"#utility.yul\":10156:10158   */\n      0x20\n        /* \"secondary.sol\":4663:4728  require(msg.value >= listing.minPrice, \"Bid below minimum price\") */\n      0x04\n      dup3\n      add\n        /* \"#utility.yul\":10138:10159   */\n      mstore\n        /* \"#utility.yul\":10195:10197   */\n      0x17\n        /* \"#utility.yul\":10175:10193   */\n      0x24\n      dup3\n      add\n        /* \"#utility.yul\":10168:10198   */\n      mstore\n      shl(0x48, 0x4269642062656c6f77206d696e696d756d207072696365)\n        /* \"#utility.yul\":10214:10232   */\n      0x44\n      dup3\n      add\n        /* \"#utility.yul\":10207:10260   */\n      mstore\n        /* \"#utility.yul\":10277:10295   */\n      0x64\n      add\n        /* \"secondary.sol\":4663:4728  require(msg.value >= listing.minPrice, \"Bid below minimum price\") */\n      tag_93\n        /* \"#utility.yul\":9954:10301   */\n      jump\n        /* \"secondary.sol\":4663:4728  require(msg.value >= listing.minPrice, \"Bid below minimum price\") */\n    tag_230:\n        /* \"secondary.sol\":4747:4770  listingBids[_listingId] */\n      0x00\n      dup3\n      dup2\n      mstore\n        /* \"secondary.sol\":4747:4758  listingBids */\n      0x03\n        /* \"secondary.sol\":4747:4770  listingBids[_listingId] */\n      0x20\n      dup2\n      dup2\n      mstore\n      0x40\n      dup1\n      dup5\n      keccak256\n        /* \"secondary.sol\":4776:4894  SecondaryBid({... */\n      dup2\n      mload\n      0x60\n      dup2\n      add\n      dup4\n      mstore\n        /* \"secondary.sol\":4811:4821  msg.sender */\n      caller\n        /* \"secondary.sol\":4776:4894  SecondaryBid({... */\n      dup1\n      dup3\n      mstore\n        /* \"secondary.sol\":4846:4855  msg.value */\n      callvalue\n        /* \"secondary.sol\":4776:4894  SecondaryBid({... */\n      dup3\n      dup7\n      add\n      dup2\n      dup2\n      mstore\n        /* \"secondary.sol\":4879:4883  true */\n      0x01\n        /* \"secondary.sol\":4776:4894  SecondaryBid({... */\n      dup5\n      dup8\n      add\n      dup2\n      dup2\n      mstore\n        /* \"secondary.sol\":4747:4895  listingBids[_listingId].push(SecondaryBid({... */\n      dup7\n      sload\n      dup1\n      dup4\n      add\n      dup9\n      sstore\n      swap7\n      dup12\n      mstore\n      swap10\n      dup9\n      swap1\n      keccak256\n      swap5\n      mload\n      swap6\n      swap1\n      swap9\n      mul\n      swap1\n      swap4\n      add\n      dup1\n      sload\n      not(sub(shl(0xa0, 0x01), 0x01))\n      and\n      sub(shl(0xa0, 0x01), 0x01)\n      swap1\n      swap6\n      and\n      swap5\n      swap1\n      swap5\n      or\n      dup5\n      sstore\n      swap2\n      mload\n      swap6\n      dup4\n      add\n      swap6\n      swap1\n      swap6\n      sstore\n      swap5\n      mload\n      0x02\n      swap1\n      swap2\n      add\n      dup1\n      sload\n      not(0xff)\n      and\n      swap2\n      iszero\n      iszero\n      swap2\n      swap1\n      swap2\n      or\n      swap1\n      sstore\n        /* \"secondary.sol\":4919:4963  BidPlaced(_listingId, msg.sender, msg.value) */\n      mload\n        /* \"#utility.yul\":3769:3794   */\n      swap3\n      dup4\n      mstore\n        /* \"secondary.sol\":4811:4821  msg.sender */\n      swap1\n      swap2\n        /* \"secondary.sol\":4747:4770  listingBids[_listingId] */\n      dup5\n      swap2\n        /* \"secondary.sol\":4919:4963  BidPlaced(_listingId, msg.sender, msg.value) */\n      0x0e54eff26401bf69b81b26f60bd85ef47f5d85275c1d268d84f68d6897431c47\n      swap2\n        /* \"#utility.yul\":3742:3760   */\n      add\n        /* \"secondary.sol\":4919:4963  BidPlaced(_listingId, msg.sender, msg.value) */\n      mload(0x40)\n      dup1\n      swap2\n      sub\n      swap1\n      log3\n        /* \"secondary.sol\":4371:4970  {... */\n      pop\n        /* \"@openzeppelin/contracts/security/ReentrancyGuard.sol\":2303:2323  _nonReentrantAfter() */\n      tag_103\n        /* \"@openzeppelin/contracts/security/ReentrancyGuard.sol\":1716:1717  1 */\n      0x01\n        /* \"@openzeppelin/contracts/security/ReentrancyGuard.sol\":2809:2816  _status */\n      0x00\n        /* \"@openzeppelin/contracts/security/ReentrancyGuard.sol\":2809:2831  _status = _NOT_ENTERED */\n      sstore\n        /* \"@openzeppelin/contracts/security/ReentrancyGuard.sol\":2629:2838  function _nonReentrantAfter() private {... */\n      jump\n        /* \"secondary.sol\":1599:1652  mapping(uint256 => SecondaryBid[]) public listingBids */\n    tag_54:\n      mstore(0x20, 0x03)\n      dup2\n      0x00\n      mstore\n      keccak256(0x00, 0x40)\n      dup2\n      dup2\n      sload\n      dup2\n      lt\n      tag_236\n      jumpi\n      0x00\n      dup1\n      revert\n    tag_236:\n      0x00\n      swap2\n      dup3\n      mstore\n      0x20\n      swap1\n      swap2\n      keccak256\n      0x03\n      swap1\n      swap2\n      mul\n      add\n      dup1\n      sload\n      0x01\n      dup3\n      add\n      sload\n      0x02\n      swap1\n      swap3\n      add\n      sload\n      sub(shl(0xa0, 0x01), 0x01)\n      swap1\n      swap2\n      and\n      swap4\n      pop\n      swap1\n      swap2\n      pop\n      0xff\n      and\n      dup4\n      jump\t// out\n        /* \"secondary.sol\":5041:6977  function executeListing(uint256 _listingId) external nonReentrant {... */\n    tag_60:\n        /* \"@openzeppelin/contracts/security/ReentrancyGuard.sol\":2261:2282  _nonReentrantBefore() */\n      tag_239\n        /* \"@openzeppelin/contracts/security/ReentrancyGuard.sol\":2261:2280  _nonReentrantBefore */\n      tag_90\n        /* \"@openzeppelin/contracts/security/ReentrancyGuard.sol\":2261:2282  _nonReentrantBefore() */\n      jump\t// in\n    tag_239:\n        /* \"secondary.sol\":5117:5149  SecondaryListing storage listing */\n      0x00\n        /* \"secondary.sol\":5152:5172  listings[_listingId] */\n      dup2\n      dup2\n      mstore\n        /* \"secondary.sol\":5152:5160  listings */\n      0x02\n        /* \"secondary.sol\":5152:5172  listings[_listingId] */\n      0x20\n      mstore\n      0x40\n      swap1\n      keccak256\n        /* \"secondary.sol\":5199:5215  listing.isActive */\n      0x03\n      dup2\n      add\n      sload\n      0xff\n      and\n        /* \"secondary.sol\":5191:5238  require(listing.isActive, \"Listing not active\") */\n      tag_241\n      jumpi\n      mload(0x40)\n      shl(0xe5, 0x461bcd)\n      dup2\n      mstore\n      0x04\n      add\n      tag_93\n      swap1\n      tag_97\n      jump\t// in\n    tag_241:\n        /* \"secondary.sol\":5257:5276  listing.isCompleted */\n      0x03\n      dup2\n      add\n      sload\n      0x0100\n      swap1\n      div\n      0xff\n      and\n        /* \"secondary.sol\":5256:5276  !listing.isCompleted */\n      iszero\n        /* \"secondary.sol\":5248:5306  require(!listing.isCompleted, \"Listing already completed\") */\n      tag_243\n      jumpi\n      mload(0x40)\n      shl(0xe5, 0x461bcd)\n      dup2\n      mstore\n      0x04\n      add\n      tag_93\n      swap1\n      tag_100\n      jump\t// in\n    tag_243:\n        /* \"secondary.sol\":5338:5352  listing.seller */\n      0x01\n      dup2\n      add\n      sload\n      sub(shl(0xa0, 0x01), 0x01)\n      and\n        /* \"secondary.sol\":5324:5334  msg.sender */\n      caller\n        /* \"secondary.sol\":5324:5352  msg.sender == listing.seller */\n      eq\n        /* \"secondary.sol\":5316:5375  require(msg.sender == listing.seller, \"You cannot execute\") */\n      tag_245\n      jumpi\n      mload(0x40)\n      shl(0xe5, 0x461bcd)\n      dup2\n      mstore\n        /* \"#utility.yul\":10508:10510   */\n      0x20\n        /* \"secondary.sol\":5316:5375  require(msg.sender == listing.seller, \"You cannot execute\") */\n      0x04\n      dup3\n      add\n        /* \"#utility.yul\":10490:10511   */\n      mstore\n        /* \"#utility.yul\":10547:10549   */\n      0x12\n        /* \"#utility.yul\":10527:10545   */\n      0x24\n      dup3\n      add\n        /* \"#utility.yul\":10520:10550   */\n      mstore\n      shl(0x70, 0x596f752063616e6e6f742065786563757465)\n        /* \"#utility.yul\":10566:10584   */\n      0x44\n      dup3\n      add\n        /* \"#utility.yul\":10559:10607   */\n      mstore\n        /* \"#utility.yul\":10624:10642   */\n      0x64\n      add\n        /* \"secondary.sol\":5316:5375  require(msg.sender == listing.seller, \"You cannot execute\") */\n      tag_93\n        /* \"#utility.yul\":10306:10648   */\n      jump\n        /* \"secondary.sol\":5316:5375  require(msg.sender == listing.seller, \"You cannot execute\") */\n    tag_245:\n        /* \"secondary.sol\":5431:5447  listing.isActive */\n      0x03\n      dup2\n      add\n        /* \"secondary.sol\":5431:5455  listing.isActive = false */\n      dup1\n      sload\n      not(0xffff)\n        /* \"secondary.sol\":5465:5491  listing.isCompleted = true */\n      and\n        /* \"secondary.sol\":5431:5455  listing.isActive = false */\n      0x0100\n        /* \"secondary.sol\":5465:5491  listing.isCompleted = true */\n      or\n      swap1\n      sstore\n        /* \"secondary.sol\":5450:5455  false */\n      0x00\n      dup1\n      dup1\n      dup1\n      dup1\n        /* \"secondary.sol\":5697:6082  for (uint256 i = 0; i < listingBids[_listingId].length; i++) {... */\n    tag_248:\n        /* \"secondary.sol\":5721:5744  listingBids[_listingId] */\n      0x00\n      dup8\n      dup2\n      mstore\n        /* \"secondary.sol\":5721:5732  listingBids */\n      0x03\n        /* \"secondary.sol\":5721:5744  listingBids[_listingId] */\n      0x20\n      mstore\n      0x40\n      swap1\n      keccak256\n        /* \"secondary.sol\":5721:5751  listingBids[_listingId].length */\n      sload\n        /* \"secondary.sol\":5717:5751  i < listingBids[_listingId].length */\n      dup2\n      lt\n        /* \"secondary.sol\":5697:6082  for (uint256 i = 0; i < listingBids[_listingId].length; i++) {... */\n      iszero\n      tag_249\n      jumpi\n        /* \"secondary.sol\":5772:5796  SecondaryBid storage bid */\n      0x00\n        /* \"secondary.sol\":5799:5822  listingBids[_listingId] */\n      dup8\n      dup2\n      mstore\n        /* \"secondary.sol\":5799:5810  listingBids */\n      0x03\n        /* \"secondary.sol\":5799:5822  listingBids[_listingId] */\n      0x20\n      mstore\n      0x40\n      dup2\n      keccak256\n        /* \"secondary.sol\":5799:5825  listingBids[_listingId][i] */\n      dup1\n      sload\n        /* \"secondary.sol\":5823:5824  i */\n      dup4\n      swap1\n        /* \"secondary.sol\":5799:5825  listingBids[_listingId][i] */\n      dup2\n      lt\n      tag_252\n      jumpi\n      tag_252\n      tag_125\n      jump\t// in\n    tag_252:\n      0x00\n      swap2\n      dup3\n      mstore\n      0x20\n      swap1\n      swap2\n      keccak256\n      0x03\n      swap1\n      swap2\n      mul\n      add\n        /* \"secondary.sol\":5843:5855  bid.isActive */\n      0x02\n      dup2\n      add\n      sload\n        /* \"secondary.sol\":5799:5825  listingBids[_listingId][i] */\n      swap1\n      swap2\n      pop\n        /* \"secondary.sol\":5843:5855  bid.isActive */\n      0xff\n      and\n        /* \"secondary.sol\":5843:5891  bid.isActive && bid.bidAmount > highestBidAmount */\n      dup1\n      iszero\n      tag_254\n      jumpi\n      pop\n        /* \"secondary.sol\":5875:5891  highestBidAmount */\n      dup6\n        /* \"secondary.sol\":5859:5862  bid */\n      dup2\n        /* \"secondary.sol\":5859:5872  bid.bidAmount */\n      0x01\n      add\n      sload\n        /* \"secondary.sol\":5859:5891  bid.bidAmount > highestBidAmount */\n      gt\n        /* \"secondary.sol\":5843:5891  bid.isActive && bid.bidAmount > highestBidAmount */\n    tag_254:\n        /* \"secondary.sol\":5839:6072  if (bid.isActive && bid.bidAmount > highestBidAmount) {... */\n      iszero\n      tag_255\n      jumpi\n        /* \"secondary.sol\":5930:5943  bid.bidAmount */\n      0x01\n      dup1\n      dup3\n      add\n      sload\n        /* \"secondary.sol\":5977:5987  bid.bidder */\n      dup3\n      sload\n        /* \"secondary.sol\":5930:5943  bid.bidAmount */\n      swap1\n      swap8\n      pop\n      sub(shl(0xa0, 0x01), 0x01)\n        /* \"secondary.sol\":5977:5987  bid.bidder */\n      and\n      swap6\n      pop\n        /* \"secondary.sol\":6023:6024  i */\n      swap2\n      swap4\n      pop\n        /* \"secondary.sol\":5930:5943  bid.bidAmount */\n      swap1\n      swap2\n      pop\n        /* \"secondary.sol\":6023:6024  i */\n      dup3\n      swap1\n        /* \"secondary.sol\":5839:6072  if (bid.isActive && bid.bidAmount > highestBidAmount) {... */\n    tag_255:\n      pop\n        /* \"secondary.sol\":5753:5756  i++ */\n      0x01\n      add\n        /* \"secondary.sol\":5697:6082  for (uint256 i = 0; i < listingBids[_listingId].length; i++) {... */\n      jump(tag_248)\n    tag_249:\n      pop\n        /* \"secondary.sol\":6158:6166  foundBid */\n      dup1\n        /* \"secondary.sol\":6158:6206  foundBid && highestBidAmount >= listing.minPrice */\n      dup1\n      iszero\n      tag_256\n      jumpi\n      pop\n        /* \"secondary.sol\":6190:6197  listing */\n      dup5\n        /* \"secondary.sol\":6190:6206  listing.minPrice */\n      0x02\n      add\n      sload\n        /* \"secondary.sol\":6170:6186  highestBidAmount */\n      dup5\n        /* \"secondary.sol\":6170:6206  highestBidAmount >= listing.minPrice */\n      lt\n      iszero\n        /* \"secondary.sol\":6158:6206  foundBid && highestBidAmount >= listing.minPrice */\n    tag_256:\n        /* \"secondary.sol\":6154:6971  if (foundBid && highestBidAmount >= listing.minPrice) {... */\n      iszero\n      tag_257\n      jumpi\n        /* \"secondary.sol\":6318:6323  false */\n      0x00\n        /* \"secondary.sol\":6266:6289  listingBids[_listingId] */\n      dup7\n      dup2\n      mstore\n        /* \"secondary.sol\":6266:6277  listingBids */\n      0x03\n        /* \"secondary.sol\":6266:6289  listingBids[_listingId] */\n      0x20\n      mstore\n      0x40\n      dup2\n      keccak256\n        /* \"secondary.sol\":6266:6306  listingBids[_listingId][highestBidIndex] */\n      dup1\n      sload\n        /* \"secondary.sol\":6290:6305  highestBidIndex */\n      dup5\n      swap1\n        /* \"secondary.sol\":6266:6306  listingBids[_listingId][highestBidIndex] */\n      dup2\n      lt\n      tag_259\n      jumpi\n      tag_259\n      tag_125\n      jump\t// in\n    tag_259:\n      0x00\n      swap2\n      dup3\n      mstore\n      0x20\n      dup3\n      keccak256\n      0x03\n      swap2\n      swap1\n      swap2\n      mul\n      add\n        /* \"secondary.sol\":6266:6315  listingBids[_listingId][highestBidIndex].isActive */\n      0x02\n      add\n        /* \"secondary.sol\":6266:6323  listingBids[_listingId][highestBidIndex].isActive = false */\n      dup1\n      sload\n      not(0xff)\n      and\n      swap3\n      iszero\n      iszero\n      swap3\n      swap1\n      swap3\n      or\n      swap1\n      swap2\n      sstore\n      0x01\n        /* \"secondary.sol\":6400:6414  listing.seller */\n      dup7\n      add\n      sload\n        /* \"secondary.sol\":6392:6442  payable(listing.seller).transfer(highestBidAmount) */\n      mload(0x40)\n      sub(shl(0xa0, 0x01), 0x01)\n        /* \"secondary.sol\":6400:6414  listing.seller */\n      swap1\n      swap2\n      and\n      swap2\n        /* \"secondary.sol\":6392:6442  payable(listing.seller).transfer(highestBidAmount) */\n      0x08fc\n      dup8\n      iszero\n      mul\n      swap2\n      dup8\n      swap2\n      dup2\n        /* \"secondary.sol\":6266:6306  listingBids[_listingId][highestBidIndex] */\n      dup2\n        /* \"secondary.sol\":6392:6442  payable(listing.seller).transfer(highestBidAmount) */\n      dup2\n      dup6\n        /* \"secondary.sol\":6400:6414  listing.seller */\n      dup9\n        /* \"secondary.sol\":6392:6442  payable(listing.seller).transfer(highestBidAmount) */\n      dup9\n      call\n      swap4\n      pop\n      pop\n      pop\n      pop\n      iszero\n      dup1\n      iszero\n      tag_262\n      jumpi\n      returndatasize\n      0x00\n      dup1\n      returndatacopy\n      revert(0x00, returndatasize)\n    tag_262:\n      pop\n        /* \"secondary.sol\":6524:6539  listing.assetId */\n      dup5\n      sload\n        /* \"secondary.sol\":6541:6555  listing.seller */\n      0x01\n      dup7\n      add\n      sload\n        /* \"secondary.sol\":6509:6571  _transferShare(listing.assetId, listing.seller, highestBidder) */\n      tag_263\n      swap2\n        /* \"secondary.sol\":6524:6539  listing.assetId */\n      swap1\n      sub(shl(0xa0, 0x01), 0x01)\n        /* \"secondary.sol\":6541:6555  listing.seller */\n      and\n        /* \"secondary.sol\":6557:6570  highestBidder */\n      dup6\n        /* \"secondary.sol\":6509:6523  _transferShare */\n      tag_264\n        /* \"secondary.sol\":6509:6571  _transferShare(listing.assetId, listing.seller, highestBidder) */\n      jump\t// in\n    tag_263:\n        /* \"secondary.sol\":6620:6630  _listingId */\n      dup6\n        /* \"secondary.sol\":6603:6670  ListingCompleted(_listingId, true, highestBidder, highestBidAmount) */\n      0xa61f9b5a0a92578ea5cd1dbc470c2f232a62ecfdabb857db6ca084ee2b5ac335\n        /* \"secondary.sol\":6632:6636  true */\n      0x01\n        /* \"secondary.sol\":6638:6651  highestBidder */\n      dup6\n        /* \"secondary.sol\":6653:6669  highestBidAmount */\n      dup8\n        /* \"secondary.sol\":6603:6670  ListingCompleted(_listingId, true, highestBidder, highestBidAmount) */\n      mload(0x40)\n      tag_265\n      swap4\n      swap3\n      swap2\n      swap1\n      tag_266\n      jump\t// in\n    tag_265:\n      mload(0x40)\n      dup1\n      swap2\n      sub\n      swap1\n      log2\n        /* \"secondary.sol\":6737:6789  _refundUnsuccessfulBids(_listingId, highestBidIndex) */\n      tag_267\n        /* \"secondary.sol\":6761:6771  _listingId */\n      dup7\n        /* \"secondary.sol\":6773:6788  highestBidIndex */\n      dup4\n        /* \"secondary.sol\":6737:6760  _refundUnsuccessfulBids */\n      tag_268\n        /* \"secondary.sol\":6737:6789  _refundUnsuccessfulBids(_listingId, highestBidIndex) */\n      jump\t// in\n    tag_267:\n        /* \"secondary.sol\":6154:6971  if (foundBid && highestBidAmount >= listing.minPrice) {... */\n      jump(tag_269)\n    tag_257:\n        /* \"secondary.sol\":6865:6891  _refundAllBids(_listingId) */\n      tag_270\n        /* \"secondary.sol\":6880:6890  _listingId */\n      dup7\n        /* \"secondary.sol\":6865:6879  _refundAllBids */\n      tag_102\n        /* \"secondary.sol\":6865:6891  _refundAllBids(_listingId) */\n      jump\t// in\n    tag_270:\n        /* \"secondary.sol\":6927:6937  _listingId */\n      dup6\n        /* \"secondary.sol\":6910:6960  ListingCompleted(_listingId, false, address(0), 0) */\n      0xa61f9b5a0a92578ea5cd1dbc470c2f232a62ecfdabb857db6ca084ee2b5ac335\n        /* \"secondary.sol\":6939:6944  false */\n      0x00\n        /* \"secondary.sol\":6954:6955  0 */\n      dup1\n        /* \"secondary.sol\":6958:6959  0 */\n      0x00\n        /* \"secondary.sol\":6910:6960  ListingCompleted(_listingId, false, address(0), 0) */\n      mload(0x40)\n      tag_271\n      swap4\n      swap3\n      swap2\n      swap1\n      tag_266\n      jump\t// in\n    tag_271:\n      mload(0x40)\n      dup1\n      swap2\n      sub\n      swap1\n      log2\n        /* \"secondary.sol\":6154:6971  if (foundBid && highestBidAmount >= listing.minPrice) {... */\n    tag_269:\n        /* \"secondary.sol\":5107:6977  {... */\n      pop\n      pop\n      pop\n      pop\n      pop\n        /* \"@openzeppelin/contracts/security/ReentrancyGuard.sol\":2303:2323  _nonReentrantAfter() */\n      tag_103\n        /* \"@openzeppelin/contracts/security/ReentrancyGuard.sol\":1716:1717  1 */\n      0x01\n        /* \"@openzeppelin/contracts/security/ReentrancyGuard.sol\":2809:2816  _status */\n      0x00\n        /* \"@openzeppelin/contracts/security/ReentrancyGuard.sol\":2809:2831  _status = _NOT_ENTERED */\n      sstore\n        /* \"@openzeppelin/contracts/security/ReentrancyGuard.sol\":2629:2838  function _nonReentrantAfter() private {... */\n      jump\n        /* \"secondary.sol\":3311:4244  function createListing(... */\n    tag_70:\n        /* \"@openzeppelin/contracts/security/ReentrancyGuard.sol\":2261:2282  _nonReentrantBefore() */\n      tag_275\n        /* \"@openzeppelin/contracts/security/ReentrancyGuard.sol\":2261:2280  _nonReentrantBefore */\n      tag_90\n        /* \"@openzeppelin/contracts/security/ReentrancyGuard.sol\":2261:2282  _nonReentrantBefore() */\n      jump\t// in\n    tag_275:\n        /* \"secondary.sol\":3479:3480  0 */\n      0x00\n        /* \"secondary.sol\":3467:3476  _minPrice */\n      dup3\n        /* \"secondary.sol\":3467:3480  _minPrice > 0 */\n      gt\n        /* \"secondary.sol\":3459:3515  require(_minPrice > 0, \"Minimum price must be positive\") */\n      tag_277\n      jumpi\n      mload(0x40)\n      shl(0xe5, 0x461bcd)\n      dup2\n      mstore\n        /* \"#utility.yul\":11583:11585   */\n      0x20\n        /* \"secondary.sol\":3459:3515  require(_minPrice > 0, \"Minimum price must be positive\") */\n      0x04\n      dup3\n      add\n        /* \"#utility.yul\":11565:11586   */\n      mstore\n        /* \"#utility.yul\":11622:11624   */\n      0x1e\n        /* \"#utility.yul\":11602:11620   */\n      0x24\n      dup3\n      add\n        /* \"#utility.yul\":11595:11625   */\n      mstore\n        /* \"#utility.yul\":11661:11693   */\n      0x4d696e696d756d207072696365206d75737420626520706f7369746976650000\n        /* \"#utility.yul\":11641:11659   */\n      0x44\n      dup3\n      add\n        /* \"#utility.yul\":11634:11694   */\n      mstore\n        /* \"#utility.yul\":11711:11729   */\n      0x64\n      add\n        /* \"secondary.sol\":3459:3515  require(_minPrice > 0, \"Minimum price must be positive\") */\n      tag_93\n        /* \"#utility.yul\":11381:11735   */\n      jump\n        /* \"secondary.sol\":3459:3515  require(_minPrice > 0, \"Minimum price must be positive\") */\n    tag_277:\n        /* \"secondary.sol\":3597:3621  assetOwnership[_assetId] */\n      0x00\n      dup4\n      dup2\n      mstore\n        /* \"secondary.sol\":3597:3611  assetOwnership */\n      0x05\n        /* \"secondary.sol\":3597:3621  assetOwnership[_assetId] */\n      0x20\n      mstore\n      0x40\n      swap1\n      keccak256\n        /* \"secondary.sol\":3597:3633  assetOwnership[_assetId].initialized */\n      0x02\n      add\n      sload\n      0xff\n      and\n        /* \"secondary.sol\":3592:3694  if (!assetOwnership[_assetId].initialized) {... */\n      tag_281\n      jumpi\n        /* \"secondary.sol\":3649:3683  initializeAssetOwnership(_assetId) */\n      tag_281\n        /* \"secondary.sol\":3674:3682  _assetId */\n      dup4\n        /* \"secondary.sol\":3649:3673  initializeAssetOwnership */\n      tag_36\n        /* \"secondary.sol\":3649:3683  initializeAssetOwnership(_assetId) */\n      jump\t// in\n    tag_281:\n        /* \"secondary.sol\":3769:3793  assetOwnership[_assetId] */\n      0x00\n      dup4\n      dup2\n      mstore\n        /* \"secondary.sol\":3769:3783  assetOwnership */\n      0x05\n        /* \"secondary.sol\":3769:3793  assetOwnership[_assetId] */\n      0x20\n      swap1\n      dup2\n      mstore\n      0x40\n      dup1\n      dup4\n      keccak256\n        /* \"secondary.sol\":3801:3811  msg.sender */\n      caller\n        /* \"secondary.sol\":3769:3812  assetOwnership[_assetId].shares[msg.sender] */\n      dup5\n      mstore\n      swap1\n      swap2\n      mstore\n      swap1\n      keccak256\n      sload\n        /* \"secondary.sol\":3816:3817  1 */\n      0x01\n      gt\n        /* \"secondary.sol\":3769:3817  assetOwnership[_assetId].shares[msg.sender] >= 1 */\n      iszero\n        /* \"secondary.sol\":3761:3855  require(assetOwnership[_assetId].shares[msg.sender] >= 1, \"Must own at least 1 share to sell\") */\n      tag_282\n      jumpi\n      mload(0x40)\n      shl(0xe5, 0x461bcd)\n      dup2\n      mstore\n        /* \"#utility.yul\":11942:11944   */\n      0x20\n        /* \"secondary.sol\":3761:3855  require(assetOwnership[_assetId].shares[msg.sender] >= 1, \"Must own at least 1 share to sell\") */\n      0x04\n      dup3\n      add\n        /* \"#utility.yul\":11924:11945   */\n      mstore\n        /* \"#utility.yul\":11981:11983   */\n      0x21\n        /* \"#utility.yul\":11961:11979   */\n      0x24\n      dup3\n      add\n        /* \"#utility.yul\":11954:11984   */\n      mstore\n        /* \"#utility.yul\":12020:12054   */\n      0x4d757374206f776e206174206c65617374203120736861726520746f2073656c\n        /* \"#utility.yul\":12000:12018   */\n      0x44\n      dup3\n      add\n        /* \"#utility.yul\":11993:12055   */\n      mstore\n      shl(0xfa, 0x1b)\n        /* \"#utility.yul\":12071:12089   */\n      0x64\n      dup3\n      add\n        /* \"#utility.yul\":12064:12095   */\n      mstore\n        /* \"#utility.yul\":12112:12131   */\n      0x84\n      add\n        /* \"secondary.sol\":3761:3855  require(assetOwnership[_assetId].shares[msg.sender] >= 1, \"Must own at least 1 share to sell\") */\n      tag_93\n        /* \"#utility.yul\":11740:12137   */\n      jump\n        /* \"secondary.sol\":3761:3855  require(assetOwnership[_assetId].shares[msg.sender] >= 1, \"Must own at least 1 share to sell\") */\n    tag_282:\n        /* \"secondary.sol\":3874:3886  listingCount */\n      0x04\n        /* \"secondary.sol\":3874:3888  listingCount++ */\n      dup1\n      sload\n      swap1\n        /* \"secondary.sol\":3874:3886  listingCount */\n      0x00\n        /* \"secondary.sol\":3874:3888  listingCount++ */\n      tag_285\n      dup4\n      tag_159\n      jump\t// in\n    tag_285:\n      swap1\n      swap2\n      sstore\n      pop\n      pop\n        /* \"secondary.sol\":3932:4116  SecondaryListing({... */\n      0x40\n      dup1\n      mload\n      0xa0\n      dup2\n      add\n      dup3\n      mstore\n      dup5\n      dup2\n      mstore\n        /* \"secondary.sol\":4002:4012  msg.sender */\n      caller\n        /* \"secondary.sol\":3932:4116  SecondaryListing({... */\n      0x20\n      dup1\n      dup4\n      add\n      dup3\n      dup2\n      mstore\n      dup4\n      dup6\n      add\n      dup8\n      dup2\n      mstore\n        /* \"secondary.sol\":4069:4073  true */\n      0x01\n        /* \"secondary.sol\":3932:4116  SecondaryListing({... */\n      0x60\n      dup7\n      add\n      dup2\n      dup2\n      mstore\n      0x00\n      0x80\n      dup9\n      add\n      dup2\n      dup2\n      mstore\n        /* \"secondary.sol\":3916:3928  listingCount */\n      0x04\n      dup1\n      sload\n        /* \"secondary.sol\":3907:3929  listings[listingCount] */\n      dup4\n      mstore\n        /* \"secondary.sol\":3907:3915  listings */\n      0x02\n        /* \"secondary.sol\":3907:3929  listings[listingCount] */\n      swap8\n      dup9\n      swap1\n      mstore\n      swap10\n      swap1\n      swap2\n      keccak256\n        /* \"secondary.sol\":3907:4116  listings[listingCount] = SecondaryListing({... */\n      swap8\n      mload\n      dup9\n      sstore\n      swap4\n      mload\n      swap2\n      dup8\n      add\n      dup1\n      sload\n      not(sub(shl(0xa0, 0x01), 0x01))\n      and\n      sub(shl(0xa0, 0x01), 0x01)\n      swap1\n      swap4\n      and\n      swap3\n      swap1\n      swap3\n      or\n      swap1\n      swap2\n      sstore\n      swap1\n      mload\n      swap3\n      dup6\n      add\n      swap3\n      swap1\n      swap3\n      sstore\n      swap1\n      mload\n      0x03\n      swap1\n      swap4\n      add\n      dup1\n      sload\n      swap2\n      mload\n      not(0xffff)\n      swap1\n      swap3\n      and\n      swap4\n      iszero\n      iszero\n      not(0xff00)\n      and\n      swap4\n      swap1\n      swap4\n      or\n      0x0100\n      swap2\n      iszero\n      iszero\n      swap2\n      swap1\n      swap2\n      mul\n      or\n      swap1\n      swap2\n      sstore\n        /* \"secondary.sol\":4155:4167  listingCount */\n      swap1\n      sload\n        /* \"secondary.sol\":3932:4116  SecondaryListing({... */\n      dup5\n      swap1\n        /* \"secondary.sol\":4140:4237  ListingCreated(listingCount, _assetId, msg.sender, _minPrice, block.timestamp + _biddingDuration) */\n      0x492d2294f1b8a982001da6ecb3de3a374ad9c29c9c8d5ad43da90cc50b585136\n        /* \"secondary.sol\":3932:4116  SecondaryListing({... */\n      dup6\n        /* \"secondary.sol\":4202:4236  block.timestamp + _biddingDuration */\n      tag_286\n        /* \"secondary.sol\":4220:4236  _biddingDuration */\n      dup7\n        /* \"secondary.sol\":4202:4217  block.timestamp */\n      timestamp\n        /* \"secondary.sol\":4202:4236  block.timestamp + _biddingDuration */\n      tag_287\n      jump\t// in\n    tag_286:\n        /* \"secondary.sol\":4140:4237  ListingCreated(listingCount, _assetId, msg.sender, _minPrice, block.timestamp + _biddingDuration) */\n      0x40\n      dup1\n      mload\n        /* \"#utility.yul\":12446:12471   */\n      swap3\n      dup4\n      mstore\n        /* \"#utility.yul\":12502:12504   */\n      0x20\n        /* \"#utility.yul\":12487:12505   */\n      dup4\n      add\n        /* \"#utility.yul\":12480:12514   */\n      swap2\n      swap1\n      swap2\n      mstore\n        /* \"#utility.yul\":12419:12437   */\n      add\n        /* \"secondary.sol\":4140:4237  ListingCreated(listingCount, _assetId, msg.sender, _minPrice, block.timestamp + _biddingDuration) */\n      mload(0x40)\n      dup1\n      swap2\n      sub\n      swap1\n      log4\n        /* \"@openzeppelin/contracts/security/ReentrancyGuard.sol\":2303:2323  _nonReentrantAfter() */\n      tag_290\n        /* \"@openzeppelin/contracts/security/ReentrancyGuard.sol\":1716:1717  1 */\n      0x01\n        /* \"@openzeppelin/contracts/security/ReentrancyGuard.sol\":2809:2816  _status */\n      0x00\n        /* \"@openzeppelin/contracts/security/ReentrancyGuard.sol\":2809:2831  _status = _NOT_ENTERED */\n      sstore\n        /* \"@openzeppelin/contracts/security/ReentrancyGuard.sol\":2629:2838  function _nonReentrantAfter() private {... */\n      jump\n        /* \"@openzeppelin/contracts/security/ReentrancyGuard.sol\":2303:2323  _nonReentrantAfter() */\n    tag_290:\n        /* \"secondary.sol\":3311:4244  function createListing(... */\n      pop\n      pop\n      pop\n      jump\t// out\n        /* \"secondary.sol\":13909:14569  function getSharesOwned(uint256 _assetId, address _owner) external view returns (uint256) {... */\n    tag_81:\n        /* \"secondary.sol\":13990:13997  uint256 */\n      0x00\n        /* \"secondary.sol\":14014:14038  assetOwnership[_assetId] */\n      dup3\n      dup2\n      mstore\n        /* \"secondary.sol\":14014:14028  assetOwnership */\n      0x05\n        /* \"secondary.sol\":14014:14038  assetOwnership[_assetId] */\n      0x20\n      mstore\n      0x40\n      dup2\n      keccak256\n        /* \"secondary.sol\":14014:14050  assetOwnership[_assetId].initialized */\n      0x02\n      add\n      sload\n      0xff\n      and\n        /* \"secondary.sol\":14009:14498  if (!assetOwnership[_assetId].initialized) {... */\n      tag_292\n      jumpi\n        /* \"secondary.sol\":14212:14235  initialOfferingContract */\n      sload(0x01)\n        /* \"secondary.sol\":14212:14260  initialOfferingContract.getAssetOwners(_assetId) */\n      mload(0x40)\n      shl(0xe0, 0x686735c5)\n      dup2\n      mstore\n      0x04\n      dup2\n      add\n        /* \"#utility.yul\":3769:3794   */\n      dup6\n      swap1\n      mstore\n        /* \"secondary.sol\":14147:14178  address[] memory ownerAddresses */\n      0x00\n      swap2\n      dup3\n      swap2\n      sub(shl(0xa0, 0x01), 0x01)\n        /* \"secondary.sol\":14212:14235  initialOfferingContract */\n      swap1\n      swap2\n      and\n      swap1\n        /* \"secondary.sol\":14212:14250  initialOfferingContract.getAssetOwners */\n      0x686735c5\n      swap1\n        /* \"#utility.yul\":3742:3760   */\n      0x24\n      add\n        /* \"secondary.sol\":14212:14260  initialOfferingContract.getAssetOwners(_assetId) */\n      0x00\n      mload(0x40)\n      dup1\n      dup4\n      sub\n      dup2\n      dup7\n      gas\n      staticcall\n      iszero\n      dup1\n      iszero\n      tag_295\n      jumpi\n      returndatasize\n      0x00\n      dup1\n      returndatacopy\n      revert(0x00, returndatasize)\n    tag_295:\n      pop\n      pop\n      pop\n      pop\n      mload(0x40)\n      returndatasize\n      0x00\n      dup3\n      returndatacopy\n      0x1f\n      returndatasize\n      swap1\n      dup2\n      add\n      not(0x1f)\n      and\n      dup3\n      add\n      0x40\n      mstore\n      tag_296\n      swap2\n      swap1\n      dup2\n      add\n      swap1\n      tag_139\n      jump\t// in\n    tag_296:\n        /* \"secondary.sol\":14146:14260  (address[] memory ownerAddresses, uint256[] memory ownerShares) = initialOfferingContract.getAssetOwners(_assetId) */\n      swap2\n      pop\n      swap2\n      pop\n        /* \"secondary.sol\":14292:14301  uint256 i */\n      0x00\n        /* \"secondary.sol\":14287:14466  for (uint256 i = 0; i < ownerAddresses.length; i++) {... */\n    tag_297:\n        /* \"secondary.sol\":14311:14325  ownerAddresses */\n      dup3\n        /* \"secondary.sol\":14311:14332  ownerAddresses.length */\n      mload\n        /* \"secondary.sol\":14307:14308  i */\n      dup2\n        /* \"secondary.sol\":14307:14332  i < ownerAddresses.length */\n      lt\n        /* \"secondary.sol\":14287:14466  for (uint256 i = 0; i < ownerAddresses.length; i++) {... */\n      iszero\n      tag_298\n      jumpi\n        /* \"secondary.sol\":14382:14388  _owner */\n      dup5\n      sub(shl(0xa0, 0x01), 0x01)\n        /* \"secondary.sol\":14361:14388  ownerAddresses[i] == _owner */\n      and\n        /* \"secondary.sol\":14361:14375  ownerAddresses */\n      dup4\n        /* \"secondary.sol\":14376:14377  i */\n      dup3\n        /* \"secondary.sol\":14361:14378  ownerAddresses[i] */\n      dup2\n      mload\n      dup2\n      lt\n      tag_301\n      jumpi\n      tag_301\n      tag_125\n      jump\t// in\n    tag_301:\n      0x20\n      mul\n      0x20\n      add\n      add\n      mload\n      sub(shl(0xa0, 0x01), 0x01)\n        /* \"secondary.sol\":14361:14388  ownerAddresses[i] == _owner */\n      and\n      sub\n        /* \"secondary.sol\":14357:14452  if (ownerAddresses[i] == _owner) {... */\n      tag_302\n      jumpi\n        /* \"secondary.sol\":14419:14430  ownerShares */\n      dup2\n        /* \"secondary.sol\":14431:14432  i */\n      dup2\n        /* \"secondary.sol\":14419:14433  ownerShares[i] */\n      dup2\n      mload\n      dup2\n      lt\n      tag_304\n      jumpi\n      tag_304\n      tag_125\n      jump\t// in\n    tag_304:\n      0x20\n      mul\n      0x20\n      add\n      add\n      mload\n        /* \"secondary.sol\":14412:14433  return ownerShares[i] */\n      swap4\n      pop\n      pop\n      pop\n      pop\n      jump(tag_291)\n        /* \"secondary.sol\":14357:14452  if (ownerAddresses[i] == _owner) {... */\n    tag_302:\n        /* \"secondary.sol\":14334:14337  i++ */\n      0x01\n      add\n        /* \"secondary.sol\":14287:14466  for (uint256 i = 0; i < ownerAddresses.length; i++) {... */\n      jump(tag_297)\n    tag_298:\n      pop\n        /* \"secondary.sol\":14486:14487  0 */\n      0x00\n        /* \"secondary.sol\":14479:14487  return 0 */\n      swap3\n      pop\n      pop\n      pop\n      jump(tag_291)\n        /* \"secondary.sol\":14009:14498  if (!assetOwnership[_assetId].initialized) {... */\n    tag_292:\n      pop\n        /* \"secondary.sol\":14523:14547  assetOwnership[_assetId] */\n      0x00\n      dup3\n      dup2\n      mstore\n        /* \"secondary.sol\":14523:14537  assetOwnership */\n      0x05\n        /* \"secondary.sol\":14523:14547  assetOwnership[_assetId] */\n      0x20\n      swap1\n      dup2\n      mstore\n      0x40\n      dup1\n      dup4\n      keccak256\n      sub(shl(0xa0, 0x01), 0x01)\n        /* \"secondary.sol\":14523:14562  assetOwnership[_assetId].shares[_owner] */\n      dup6\n      and\n      dup5\n      mstore\n      swap1\n      swap2\n      mstore\n      swap1\n      keccak256\n      sload\n        /* \"secondary.sol\":13909:14569  function getSharesOwned(uint256 _assetId, address _owner) external view returns (uint256) {... */\n    tag_291:\n      swap3\n      swap2\n      pop\n      pop\n      jump\t// out\n        /* \"@openzeppelin/contracts/security/ReentrancyGuard.sol\":2336:2623  function _nonReentrantBefore() private {... */\n    tag_90:\n        /* \"@openzeppelin/contracts/security/ReentrancyGuard.sol\":1759:1760  2 */\n      0x02\n        /* \"@openzeppelin/contracts/security/ReentrancyGuard.sol\":2468:2475  _status */\n      sload(0x00)\n        /* \"@openzeppelin/contracts/security/ReentrancyGuard.sol\":2468:2487  _status != _ENTERED */\n      sub\n        /* \"@openzeppelin/contracts/security/ReentrancyGuard.sol\":2460:2523  require(_status != _ENTERED, \"ReentrancyGuard: reentrant call\") */\n      tag_307\n      jumpi\n      mload(0x40)\n      shl(0xe5, 0x461bcd)\n      dup2\n      mstore\n        /* \"#utility.yul\":12727:12729   */\n      0x20\n        /* \"@openzeppelin/contracts/security/ReentrancyGuard.sol\":2460:2523  require(_status != _ENTERED, \"ReentrancyGuard: reentrant call\") */\n      0x04\n      dup3\n      add\n        /* \"#utility.yul\":12709:12730   */\n      mstore\n        /* \"#utility.yul\":12766:12768   */\n      0x1f\n        /* \"#utility.yul\":12746:12764   */\n      0x24\n      dup3\n      add\n        /* \"#utility.yul\":12739:12769   */\n      mstore\n        /* \"#utility.yul\":12805:12838   */\n      0x5265656e7472616e637947756172643a207265656e7472616e742063616c6c00\n        /* \"#utility.yul\":12785:12803   */\n      0x44\n      dup3\n      add\n        /* \"#utility.yul\":12778:12839   */\n      mstore\n        /* \"#utility.yul\":12856:12874   */\n      0x64\n      add\n        /* \"@openzeppelin/contracts/security/ReentrancyGuard.sol\":2460:2523  require(_status != _ENTERED, \"ReentrancyGuard: reentrant call\") */\n      tag_93\n        /* \"#utility.yul\":12525:12880   */\n      jump\n        /* \"@openzeppelin/contracts/security/ReentrancyGuard.sol\":2460:2523  require(_status != _ENTERED, \"ReentrancyGuard: reentrant call\") */\n    tag_307:\n        /* \"@openzeppelin/contracts/security/ReentrancyGuard.sol\":1759:1760  2 */\n      0x02\n        /* \"@openzeppelin/contracts/security/ReentrancyGuard.sol\":2598:2605  _status */\n      0x00\n        /* \"@openzeppelin/contracts/security/ReentrancyGuard.sol\":2598:2616  _status = _ENTERED */\n      sstore\n        /* \"@openzeppelin/contracts/security/ReentrancyGuard.sol\":2336:2623  function _nonReentrantBefore() private {... */\n      jump\t// out\n        /* \"secondary.sol\":9727:10238  function _refundAllBids(uint256 _listingId) internal {... */\n    tag_102:\n        /* \"secondary.sol\":9795:9804  uint256 i */\n      0x00\n        /* \"secondary.sol\":9790:10232  for (uint256 i = 0; i < listingBids[_listingId].length; i++) {... */\n    tag_311:\n        /* \"secondary.sol\":9814:9837  listingBids[_listingId] */\n      0x00\n      dup3\n      dup2\n      mstore\n        /* \"secondary.sol\":9814:9825  listingBids */\n      0x03\n        /* \"secondary.sol\":9814:9837  listingBids[_listingId] */\n      0x20\n      mstore\n      0x40\n      swap1\n      keccak256\n        /* \"secondary.sol\":9814:9844  listingBids[_listingId].length */\n      sload\n        /* \"secondary.sol\":9810:9844  i < listingBids[_listingId].length */\n      dup2\n      lt\n        /* \"secondary.sol\":9790:10232  for (uint256 i = 0; i < listingBids[_listingId].length; i++) {... */\n      iszero\n      tag_312\n      jumpi\n        /* \"secondary.sol\":9869:9892  listingBids[_listingId] */\n      0x00\n      dup3\n      dup2\n      mstore\n        /* \"secondary.sol\":9869:9880  listingBids */\n      0x03\n        /* \"secondary.sol\":9869:9892  listingBids[_listingId] */\n      0x20\n      mstore\n      0x40\n      swap1\n      keccak256\n        /* \"secondary.sol\":9869:9895  listingBids[_listingId][i] */\n      dup1\n      sload\n        /* \"secondary.sol\":9893:9894  i */\n      dup3\n      swap1\n        /* \"secondary.sol\":9869:9895  listingBids[_listingId][i] */\n      dup2\n      lt\n      tag_315\n      jumpi\n      tag_315\n      tag_125\n      jump\t// in\n    tag_315:\n      0x00\n      swap2\n      dup3\n      mstore\n      0x20\n      swap1\n      swap2\n      keccak256\n        /* \"secondary.sol\":9869:9904  listingBids[_listingId][i].isActive */\n      0x02\n        /* \"secondary.sol\":9869:9895  listingBids[_listingId][i] */\n      0x03\n      swap1\n      swap3\n      mul\n      add\n        /* \"secondary.sol\":9869:9904  listingBids[_listingId][i].isActive */\n      add\n      sload\n      0xff\n      and\n        /* \"secondary.sol\":9865:10222  if (listingBids[_listingId][i].isActive) {... */\n      iszero\n      tag_317\n      jumpi\n        /* \"secondary.sol\":9924:9938  address bidder */\n      0x00\n        /* \"secondary.sol\":9941:9964  listingBids[_listingId] */\n      dup3\n      dup2\n      mstore\n        /* \"secondary.sol\":9941:9952  listingBids */\n      0x03\n        /* \"secondary.sol\":9941:9964  listingBids[_listingId] */\n      0x20\n      mstore\n      0x40\n      dup2\n      keccak256\n        /* \"secondary.sol\":9941:9967  listingBids[_listingId][i] */\n      dup1\n      sload\n        /* \"secondary.sol\":9965:9966  i */\n      dup4\n      swap1\n        /* \"secondary.sol\":9941:9967  listingBids[_listingId][i] */\n      dup2\n      lt\n      tag_319\n      jumpi\n      tag_319\n      tag_125\n      jump\t// in\n    tag_319:\n      0x00\n      swap2\n      dup3\n      mstore\n      0x20\n      dup1\n      dup4\n      keccak256\n      0x03\n      swap3\n      dup4\n      mul\n      add\n        /* \"secondary.sol\":9941:9974  listingBids[_listingId][i].bidder */\n      sload\n        /* \"secondary.sol\":10009:10032  listingBids[_listingId] */\n      dup7\n      dup5\n      mstore\n      swap2\n      swap1\n      mstore\n      0x40\n      dup3\n      keccak256\n        /* \"secondary.sol\":10009:10035  listingBids[_listingId][i] */\n      dup1\n      sload\n      sub(shl(0xa0, 0x01), 0x01)\n        /* \"secondary.sol\":9941:9974  listingBids[_listingId][i].bidder */\n      swap1\n      swap3\n      and\n      swap4\n      pop\n        /* \"secondary.sol\":10009:10032  listingBids[_listingId] */\n      swap1\n        /* \"secondary.sol\":10033:10034  i */\n      dup5\n      swap1\n        /* \"secondary.sol\":10009:10035  listingBids[_listingId][i] */\n      dup2\n      lt\n      tag_322\n      jumpi\n      tag_322\n      tag_125\n      jump\t// in\n    tag_322:\n      swap1\n      0x00\n      mstore\n      keccak256(0x00, 0x20)\n      swap1\n      0x03\n      mul\n      add\n        /* \"secondary.sol\":10009:10045  listingBids[_listingId][i].bidAmount */\n      0x01\n      add\n      sload\n        /* \"secondary.sol\":9992:10045  uint256 amount = listingBids[_listingId][i].bidAmount */\n      swap1\n      pop\n        /* \"secondary.sol\":10101:10106  false */\n      0x00\n        /* \"secondary.sol\":10063:10074  listingBids */\n      0x03\n        /* \"secondary.sol\":10063:10086  listingBids[_listingId] */\n      0x00\n        /* \"secondary.sol\":10075:10085  _listingId */\n      dup7\n        /* \"secondary.sol\":10063:10086  listingBids[_listingId] */\n      dup2\n      mstore\n      0x20\n      add\n      swap1\n      dup2\n      mstore\n      0x20\n      add\n      0x00\n      keccak256\n        /* \"secondary.sol\":10087:10088  i */\n      dup5\n        /* \"secondary.sol\":10063:10089  listingBids[_listingId][i] */\n      dup2\n      sload\n      dup2\n      lt\n      tag_325\n      jumpi\n      tag_325\n      tag_125\n      jump\t// in\n    tag_325:\n      0x00\n      swap2\n      dup3\n      mstore\n      0x20\n      dup3\n      keccak256\n      0x03\n      swap2\n      swap1\n      swap2\n      mul\n      add\n        /* \"secondary.sol\":10063:10098  listingBids[_listingId][i].isActive */\n      0x02\n      add\n        /* \"secondary.sol\":10063:10106  listingBids[_listingId][i].isActive = false */\n      dup1\n      sload\n      not(0xff)\n      and\n      swap3\n      iszero\n      iszero\n      swap3\n      swap1\n      swap3\n      or\n      swap1\n      swap2\n      sstore\n        /* \"secondary.sol\":10124:10156  payable(bidder).transfer(amount) */\n      mload(0x40)\n      sub(shl(0xa0, 0x01), 0x01)\n        /* \"secondary.sol\":10124:10148  payable(bidder).transfer */\n      dup5\n      and\n      swap2\n        /* \"secondary.sol\":10124:10156  payable(bidder).transfer(amount) */\n      0x08fc\n      dup5\n      iszero\n      mul\n      swap2\n      dup5\n      swap2\n      dup2\n        /* \"secondary.sol\":10063:10089  listingBids[_listingId][i] */\n      dup2\n        /* \"secondary.sol\":10124:10156  payable(bidder).transfer(amount) */\n      dup2\n      dup6\n        /* \"secondary.sol\":10124:10148  payable(bidder).transfer */\n      dup9\n        /* \"secondary.sol\":10124:10156  payable(bidder).transfer(amount) */\n      dup9\n      call\n      swap4\n      pop\n      pop\n      pop\n      pop\n      iszero\n      dup1\n      iszero\n      tag_328\n      jumpi\n      returndatasize\n      0x00\n      dup1\n      returndatacopy\n      revert(0x00, returndatasize)\n    tag_328:\n      pop\n        /* \"secondary.sol\":10192:10198  bidder */\n      dup2\n      sub(shl(0xa0, 0x01), 0x01)\n        /* \"secondary.sol\":10179:10207  RefundIssued(bidder, amount) */\n      and\n      0xa171b6942063c6f2800ce40a780edce37baa2b618571b11eedd1e69e626e7d76\n        /* \"secondary.sol\":10200:10206  amount */\n      dup3\n        /* \"secondary.sol\":10179:10207  RefundIssued(bidder, amount) */\n      mload(0x40)\n      tag_329\n      swap2\n        /* \"#utility.yul\":3769:3794   */\n      dup2\n      mstore\n        /* \"#utility.yul\":3757:3759   */\n      0x20\n        /* \"#utility.yul\":3742:3760   */\n      add\n      swap1\n        /* \"#utility.yul\":3623:3800   */\n      jump\n        /* \"secondary.sol\":10179:10207  RefundIssued(bidder, amount) */\n    tag_329:\n      mload(0x40)\n      dup1\n      swap2\n      sub\n      swap1\n      log2\n        /* \"secondary.sol\":9906:10222  {... */\n      pop\n      pop\n        /* \"secondary.sol\":9865:10222  if (listingBids[_listingId][i].isActive) {... */\n    tag_317:\n        /* \"secondary.sol\":9846:9849  i++ */\n      0x01\n      add\n        /* \"secondary.sol\":9790:10232  for (uint256 i = 0; i < listingBids[_listingId].length; i++) {... */\n      jump(tag_311)\n    tag_312:\n      pop\n        /* \"secondary.sol\":9727:10238  function _refundAllBids(uint256 _listingId) internal {... */\n      pop\n      jump\t// out\n        /* \"secondary.sol\":7648:9035  function _transferShare(uint256 _assetId, address _from, address _to) internal {... */\n    tag_264:\n        /* \"secondary.sol\":7791:7815  assetOwnership[_assetId] */\n      0x00\n      dup4\n      dup2\n      mstore\n        /* \"secondary.sol\":7791:7805  assetOwnership */\n      0x05\n        /* \"secondary.sol\":7791:7815  assetOwnership[_assetId] */\n      0x20\n      mstore\n      0x40\n      swap1\n      keccak256\n        /* \"secondary.sol\":7791:7827  assetOwnership[_assetId].initialized */\n      0x02\n      add\n      sload\n      0xff\n      and\n        /* \"secondary.sol\":7786:7888  if (!assetOwnership[_assetId].initialized) {... */\n      tag_333\n      jumpi\n        /* \"secondary.sol\":7843:7877  initializeAssetOwnership(_assetId) */\n      tag_333\n        /* \"secondary.sol\":7868:7876  _assetId */\n      dup4\n        /* \"secondary.sol\":7843:7867  initializeAssetOwnership */\n      tag_36\n        /* \"secondary.sol\":7843:7877  initializeAssetOwnership(_assetId) */\n      jump\t// in\n    tag_333:\n        /* \"secondary.sol\":7983:8007  assetOwnership[_assetId] */\n      0x00\n      dup4\n      dup2\n      mstore\n        /* \"secondary.sol\":7983:7997  assetOwnership */\n      0x05\n        /* \"secondary.sol\":7983:8007  assetOwnership[_assetId] */\n      0x20\n      swap1\n      dup2\n      mstore\n      0x40\n      dup1\n      dup4\n      keccak256\n      sub(shl(0xa0, 0x01), 0x01)\n        /* \"secondary.sol\":7983:8021  assetOwnership[_assetId].shares[_from] */\n      dup7\n      and\n      dup5\n      mstore\n      swap1\n      swap2\n      mstore\n      swap1\n      keccak256\n      sload\n        /* \"secondary.sol\":7983:8028  assetOwnership[_assetId].shares[_from].sub(1) */\n      tag_334\n      swap1\n        /* \"secondary.sol\":8026:8027  1 */\n      0x01\n        /* \"secondary.sol\":7983:8025  assetOwnership[_assetId].shares[_from].sub */\n      tag_335\n        /* \"secondary.sol\":7983:8028  assetOwnership[_assetId].shares[_from].sub(1) */\n      jump\t// in\n    tag_334:\n        /* \"secondary.sol\":7942:7966  assetOwnership[_assetId] */\n      0x00\n      dup5\n      dup2\n      mstore\n        /* \"secondary.sol\":7942:7956  assetOwnership */\n      0x05\n        /* \"secondary.sol\":7942:7966  assetOwnership[_assetId] */\n      0x20\n      swap1\n      dup2\n      mstore\n      0x40\n      dup1\n      dup4\n      keccak256\n      sub(shl(0xa0, 0x01), 0x01)\n        /* \"secondary.sol\":7942:7980  assetOwnership[_assetId].shares[_from] */\n      dup8\n      dup2\n      and\n      dup6\n      mstore\n      swap3\n      mstore\n      dup1\n      dup4\n      keccak256\n        /* \"secondary.sol\":7942:8028  assetOwnership[_assetId].shares[_from] = assetOwnership[_assetId].shares[_from].sub(1) */\n      swap4\n      swap1\n      swap4\n      sstore\n        /* \"secondary.sol\":8115:8151  assetOwnership[_assetId].shares[_to] */\n      dup4\n      and\n      dup2\n      mstore\n      swap1\n      dup2\n      keccak256\n      sload\n        /* \"secondary.sol\":8115:8156  assetOwnership[_assetId].shares[_to] == 0 */\n      swap1\n      sub\n        /* \"secondary.sol\":8111:8224  if (assetOwnership[_assetId].shares[_to] == 0) {... */\n      tag_336\n      jumpi\n        /* \"secondary.sol\":8172:8196  assetOwnership[_assetId] */\n      0x00\n      dup4\n      dup2\n      mstore\n        /* \"secondary.sol\":8172:8186  assetOwnership */\n      0x05\n        /* \"secondary.sol\":8172:8196  assetOwnership[_assetId] */\n      0x20\n      swap1\n      dup2\n      mstore\n      0x40\n      dup3\n      keccak256\n        /* \"secondary.sol\":8172:8203  assetOwnership[_assetId].owners */\n      0x01\n      swap1\n      dup2\n      add\n        /* \"secondary.sol\":8172:8213  assetOwnership[_assetId].owners.push(_to) */\n      dup1\n      sload\n      swap2\n      dup3\n      add\n      dup2\n      sstore\n      dup4\n      mstore\n      swap2\n      keccak256\n      add\n      dup1\n      sload\n      not(sub(shl(0xa0, 0x01), 0x01))\n      and\n      sub(shl(0xa0, 0x01), 0x01)\n      dup4\n      and\n      or\n      swap1\n      sstore\n        /* \"secondary.sol\":8111:8224  if (assetOwnership[_assetId].shares[_to] == 0) {... */\n    tag_336:\n        /* \"secondary.sol\":8316:8340  assetOwnership[_assetId] */\n      0x00\n      dup4\n      dup2\n      mstore\n        /* \"secondary.sol\":8316:8330  assetOwnership */\n      0x05\n        /* \"secondary.sol\":8316:8340  assetOwnership[_assetId] */\n      0x20\n      swap1\n      dup2\n      mstore\n      0x40\n      dup1\n      dup4\n      keccak256\n      sub(shl(0xa0, 0x01), 0x01)\n        /* \"secondary.sol\":8316:8352  assetOwnership[_assetId].shares[_to] */\n      dup6\n      and\n      dup5\n      mstore\n      swap1\n      swap2\n      mstore\n      swap1\n      keccak256\n      sload\n        /* \"secondary.sol\":8316:8359  assetOwnership[_assetId].shares[_to].add(1) */\n      tag_338\n      swap1\n        /* \"secondary.sol\":8357:8358  1 */\n      0x01\n        /* \"secondary.sol\":8316:8356  assetOwnership[_assetId].shares[_to].add */\n      tag_339\n        /* \"secondary.sol\":8316:8359  assetOwnership[_assetId].shares[_to].add(1) */\n      jump\t// in\n    tag_338:\n        /* \"secondary.sol\":8277:8301  assetOwnership[_assetId] */\n      0x00\n      dup5\n      dup2\n      mstore\n        /* \"secondary.sol\":8277:8291  assetOwnership */\n      0x05\n        /* \"secondary.sol\":8277:8301  assetOwnership[_assetId] */\n      0x20\n      swap1\n      dup2\n      mstore\n      0x40\n      dup1\n      dup4\n      keccak256\n      sub(shl(0xa0, 0x01), 0x01)\n        /* \"secondary.sol\":8277:8313  assetOwnership[_assetId].shares[_to] */\n      dup7\n      dup2\n      and\n      dup6\n      mstore\n      swap3\n      mstore\n      dup1\n      dup4\n      keccak256\n        /* \"secondary.sol\":8277:8359  assetOwnership[_assetId].shares[_to] = assetOwnership[_assetId].shares[_to].add(1) */\n      swap4\n      swap1\n      swap4\n      sstore\n        /* \"secondary.sol\":8452:8490  assetOwnership[_assetId].shares[_from] */\n      dup5\n      and\n      dup2\n      mstore\n      swap1\n      dup2\n      keccak256\n      sload\n        /* \"secondary.sol\":8452:8495  assetOwnership[_assetId].shares[_from] == 0 */\n      swap1\n      sub\n        /* \"secondary.sol\":8448:8967  if (assetOwnership[_assetId].shares[_from] == 0) {... */\n      tag_340\n      jumpi\n        /* \"secondary.sol\":8516:8525  uint256 i */\n      0x00\n        /* \"secondary.sol\":8511:8957  for (uint256 i = 0; i < assetOwnership[_assetId].owners.length; i++) {... */\n    tag_341:\n        /* \"secondary.sol\":8535:8559  assetOwnership[_assetId] */\n      0x00\n      dup5\n      dup2\n      mstore\n        /* \"secondary.sol\":8535:8549  assetOwnership */\n      0x05\n        /* \"secondary.sol\":8535:8559  assetOwnership[_assetId] */\n      0x20\n      mstore\n      0x40\n      swap1\n      keccak256\n        /* \"secondary.sol\":8535:8566  assetOwnership[_assetId].owners */\n      0x01\n      add\n        /* \"secondary.sol\":8535:8573  assetOwnership[_assetId].owners.length */\n      sload\n        /* \"secondary.sol\":8531:8573  i < assetOwnership[_assetId].owners.length */\n      dup2\n      lt\n        /* \"secondary.sol\":8511:8957  for (uint256 i = 0; i < assetOwnership[_assetId].owners.length; i++) {... */\n      iszero\n      tag_342\n      jumpi\n        /* \"secondary.sol\":8602:8626  assetOwnership[_assetId] */\n      0x00\n      dup5\n      dup2\n      mstore\n        /* \"secondary.sol\":8602:8616  assetOwnership */\n      0x05\n        /* \"secondary.sol\":8602:8626  assetOwnership[_assetId] */\n      0x20\n      mstore\n      0x40\n      swap1\n      keccak256\n        /* \"secondary.sol\":8602:8633  assetOwnership[_assetId].owners */\n      0x01\n      add\n        /* \"secondary.sol\":8602:8636  assetOwnership[_assetId].owners[i] */\n      dup1\n      sload\n      sub(shl(0xa0, 0x01), 0x01)\n        /* \"secondary.sol\":8602:8645  assetOwnership[_assetId].owners[i] == _from */\n      dup6\n      and\n      swap2\n        /* \"secondary.sol\":8602:8633  assetOwnership[_assetId].owners */\n      swap1\n        /* \"secondary.sol\":8634:8635  i */\n      dup4\n      swap1\n        /* \"secondary.sol\":8602:8636  assetOwnership[_assetId].owners[i] */\n      dup2\n      lt\n      tag_345\n      jumpi\n      tag_345\n      tag_125\n      jump\t// in\n    tag_345:\n      0x00\n      swap2\n      dup3\n      mstore\n      0x20\n      swap1\n      swap2\n      keccak256\n      add\n      sload\n      sub(shl(0xa0, 0x01), 0x01)\n      and\n        /* \"secondary.sol\":8602:8645  assetOwnership[_assetId].owners[i] == _from */\n      sub\n        /* \"secondary.sol\":8598:8943  if (assetOwnership[_assetId].owners[i] == _from) {... */\n      tag_347\n      jumpi\n        /* \"secondary.sol\":8763:8787  assetOwnership[_assetId] */\n      0x00\n      dup5\n      dup2\n      mstore\n        /* \"secondary.sol\":8763:8777  assetOwnership */\n      0x05\n        /* \"secondary.sol\":8763:8787  assetOwnership[_assetId] */\n      0x20\n      mstore\n      0x40\n      swap1\n      keccak256\n        /* \"secondary.sol\":8763:8794  assetOwnership[_assetId].owners */\n      0x01\n      swap1\n      dup2\n      add\n        /* \"secondary.sol\":8795:8833  assetOwnership[_assetId].owners.length */\n      dup1\n      sload\n        /* \"secondary.sol\":8763:8794  assetOwnership[_assetId].owners */\n      swap1\n      swap2\n        /* \"secondary.sol\":8795:8837  assetOwnership[_assetId].owners.length - 1 */\n      tag_348\n      swap2\n      tag_349\n      jump\t// in\n    tag_348:\n        /* \"secondary.sol\":8763:8838  assetOwnership[_assetId].owners[assetOwnership[_assetId].owners.length - 1] */\n      dup2\n      sload\n      dup2\n      lt\n      tag_351\n      jumpi\n      tag_351\n      tag_125\n      jump\t// in\n    tag_351:\n      0x00\n      swap2\n      dup3\n      mstore\n      0x20\n      dup1\n      dup4\n      keccak256\n      swap1\n      swap2\n      add\n      sload\n        /* \"secondary.sol\":8726:8750  assetOwnership[_assetId] */\n      dup7\n      dup4\n      mstore\n        /* \"secondary.sol\":8726:8740  assetOwnership */\n      0x05\n        /* \"secondary.sol\":8726:8750  assetOwnership[_assetId] */\n      swap1\n      swap2\n      mstore\n      0x40\n      swap1\n      swap2\n      keccak256\n        /* \"secondary.sol\":8763:8838  assetOwnership[_assetId].owners[assetOwnership[_assetId].owners.length - 1] */\n      0x01\n        /* \"secondary.sol\":8726:8757  assetOwnership[_assetId].owners */\n      add\n        /* \"secondary.sol\":8726:8760  assetOwnership[_assetId].owners[i] */\n      dup1\n      sload\n      sub(shl(0xa0, 0x01), 0x01)\n        /* \"secondary.sol\":8763:8838  assetOwnership[_assetId].owners[assetOwnership[_assetId].owners.length - 1] */\n      swap1\n      swap3\n      and\n      swap2\n        /* \"secondary.sol\":8758:8759  i */\n      dup4\n      swap1\n        /* \"secondary.sol\":8726:8760  assetOwnership[_assetId].owners[i] */\n      dup2\n      lt\n      tag_354\n      jumpi\n      tag_354\n      tag_125\n      jump\t// in\n    tag_354:\n      0x00\n      swap2\n      dup3\n      mstore\n      0x20\n      dup1\n      dup4\n      keccak256\n      swap2\n      swap1\n      swap2\n      add\n        /* \"secondary.sol\":8726:8838  assetOwnership[_assetId].owners[i] = assetOwnership[_assetId].owners[assetOwnership[_assetId].owners.length - 1] */\n      dup1\n      sload\n      not(sub(shl(0xa0, 0x01), 0x01))\n      and\n      sub(shl(0xa0, 0x01), 0x01)\n      swap5\n      swap1\n      swap5\n      and\n      swap4\n      swap1\n      swap4\n      or\n      swap1\n      swap3\n      sstore\n        /* \"secondary.sol\":8860:8884  assetOwnership[_assetId] */\n      dup6\n      dup2\n      mstore\n        /* \"secondary.sol\":8860:8874  assetOwnership */\n      0x05\n        /* \"secondary.sol\":8860:8884  assetOwnership[_assetId] */\n      swap1\n      swap2\n      mstore\n      0x40\n      swap1\n      keccak256\n      0x01\n        /* \"secondary.sol\":8860:8891  assetOwnership[_assetId].owners */\n      add\n        /* \"secondary.sol\":8860:8897  assetOwnership[_assetId].owners.pop() */\n      dup1\n      sload\n      dup1\n      tag_357\n      jumpi\n      tag_357\n      tag_358\n      jump\t// in\n    tag_357:\n      0x00\n      dup3\n      dup2\n      mstore\n      0x20\n      swap1\n      keccak256\n      dup2\n      add\n      not(0x00)\n      swap1\n      dup2\n      add\n      dup1\n      sload\n      not(sub(shl(0xa0, 0x01), 0x01))\n      and\n      swap1\n      sstore\n      add\n      swap1\n      sstore\n        /* \"secondary.sol\":8919:8924  break */\n      jump(tag_342)\n        /* \"secondary.sol\":8598:8943  if (assetOwnership[_assetId].owners[i] == _from) {... */\n    tag_347:\n        /* \"secondary.sol\":8575:8578  i++ */\n      0x01\n      add\n        /* \"secondary.sol\":8511:8957  for (uint256 i = 0; i < assetOwnership[_assetId].owners.length; i++) {... */\n      jump(tag_341)\n    tag_342:\n      pop\n        /* \"secondary.sol\":8448:8967  if (assetOwnership[_assetId].shares[_from] == 0) {... */\n    tag_340:\n        /* \"secondary.sol\":9024:9027  _to */\n      dup1\n      sub(shl(0xa0, 0x01), 0x01)\n        /* \"secondary.sol\":8990:9028  OwnershipUpdated(_assetId, _from, _to) */\n      and\n        /* \"secondary.sol\":9017:9022  _from */\n      dup3\n      sub(shl(0xa0, 0x01), 0x01)\n        /* \"secondary.sol\":8990:9028  OwnershipUpdated(_assetId, _from, _to) */\n      and\n        /* \"secondary.sol\":9007:9015  _assetId */\n      dup5\n        /* \"secondary.sol\":8990:9028  OwnershipUpdated(_assetId, _from, _to) */\n      0x0bdf77fd986065d8fc49e770b42f0e133bb498a86d7d958a01cbbed564d678ac\n      mload(0x40)\n      mload(0x40)\n      dup1\n      swap2\n      sub\n      swap1\n      log4\n        /* \"secondary.sol\":7648:9035  function _transferShare(uint256 _assetId, address _from, address _to) internal {... */\n      pop\n      pop\n      pop\n      jump\t// out\n        /* \"secondary.sol\":9102:9673  function _refundUnsuccessfulBids(uint256 _listingId, uint256 _winningBidIndex) internal {... */\n    tag_268:\n        /* \"secondary.sol\":9205:9214  uint256 i */\n      0x00\n        /* \"secondary.sol\":9200:9667  for (uint256 i = 0; i < listingBids[_listingId].length; i++) {... */\n    tag_361:\n        /* \"secondary.sol\":9224:9247  listingBids[_listingId] */\n      0x00\n      dup4\n      dup2\n      mstore\n        /* \"secondary.sol\":9224:9235  listingBids */\n      0x03\n        /* \"secondary.sol\":9224:9247  listingBids[_listingId] */\n      0x20\n      mstore\n      0x40\n      swap1\n      keccak256\n        /* \"secondary.sol\":9224:9254  listingBids[_listingId].length */\n      sload\n        /* \"secondary.sol\":9220:9254  i < listingBids[_listingId].length */\n      dup2\n      lt\n        /* \"secondary.sol\":9200:9667  for (uint256 i = 0; i < listingBids[_listingId].length; i++) {... */\n      iszero\n      tag_290\n      jumpi\n        /* \"secondary.sol\":9284:9300  _winningBidIndex */\n      dup2\n        /* \"secondary.sol\":9279:9280  i */\n      dup2\n        /* \"secondary.sol\":9279:9300  i != _winningBidIndex */\n      eq\n      iszero\n        /* \"secondary.sol\":9279:9339  i != _winningBidIndex && listingBids[_listingId][i].isActive */\n      dup1\n      iszero\n      tag_364\n      jumpi\n      pop\n        /* \"secondary.sol\":9304:9327  listingBids[_listingId] */\n      0x00\n      dup4\n      dup2\n      mstore\n        /* \"secondary.sol\":9304:9315  listingBids */\n      0x03\n        /* \"secondary.sol\":9304:9327  listingBids[_listingId] */\n      0x20\n      mstore\n      0x40\n      swap1\n      keccak256\n        /* \"secondary.sol\":9304:9330  listingBids[_listingId][i] */\n      dup1\n      sload\n        /* \"secondary.sol\":9328:9329  i */\n      dup3\n      swap1\n        /* \"secondary.sol\":9304:9330  listingBids[_listingId][i] */\n      dup2\n      lt\n      tag_366\n      jumpi\n      tag_366\n      tag_125\n      jump\t// in\n    tag_366:\n      0x00\n      swap2\n      dup3\n      mstore\n      0x20\n      swap1\n      swap2\n      keccak256\n        /* \"secondary.sol\":9304:9339  listingBids[_listingId][i].isActive */\n      0x02\n        /* \"secondary.sol\":9304:9330  listingBids[_listingId][i] */\n      0x03\n      swap1\n      swap3\n      mul\n      add\n        /* \"secondary.sol\":9304:9339  listingBids[_listingId][i].isActive */\n      add\n      sload\n      0xff\n      and\n        /* \"secondary.sol\":9279:9339  i != _winningBidIndex && listingBids[_listingId][i].isActive */\n    tag_364:\n        /* \"secondary.sol\":9275:9657  if (i != _winningBidIndex && listingBids[_listingId][i].isActive) {... */\n      iszero\n      tag_368\n      jumpi\n        /* \"secondary.sol\":9359:9373  address bidder */\n      0x00\n        /* \"secondary.sol\":9376:9399  listingBids[_listingId] */\n      dup4\n      dup2\n      mstore\n        /* \"secondary.sol\":9376:9387  listingBids */\n      0x03\n        /* \"secondary.sol\":9376:9399  listingBids[_listingId] */\n      0x20\n      mstore\n      0x40\n      dup2\n      keccak256\n        /* \"secondary.sol\":9376:9402  listingBids[_listingId][i] */\n      dup1\n      sload\n        /* \"secondary.sol\":9400:9401  i */\n      dup4\n      swap1\n        /* \"secondary.sol\":9376:9402  listingBids[_listingId][i] */\n      dup2\n      lt\n      tag_370\n      jumpi\n      tag_370\n      tag_125\n      jump\t// in\n    tag_370:\n      0x00\n      swap2\n      dup3\n      mstore\n      0x20\n      dup1\n      dup4\n      keccak256\n      0x03\n      swap3\n      dup4\n      mul\n      add\n        /* \"secondary.sol\":9376:9409  listingBids[_listingId][i].bidder */\n      sload\n        /* \"secondary.sol\":9444:9467  listingBids[_listingId] */\n      dup8\n      dup5\n      mstore\n      swap2\n      swap1\n      mstore\n      0x40\n      dup3\n      keccak256\n        /* \"secondary.sol\":9444:9470  listingBids[_listingId][i] */\n      dup1\n      sload\n      sub(shl(0xa0, 0x01), 0x01)\n        /* \"secondary.sol\":9376:9409  listingBids[_listingId][i].bidder */\n      swap1\n      swap3\n      and\n      swap4\n      pop\n        /* \"secondary.sol\":9444:9467  listingBids[_listingId] */\n      swap1\n        /* \"secondary.sol\":9468:9469  i */\n      dup5\n      swap1\n        /* \"secondary.sol\":9444:9470  listingBids[_listingId][i] */\n      dup2\n      lt\n      tag_373\n      jumpi\n      tag_373\n      tag_125\n      jump\t// in\n    tag_373:\n      swap1\n      0x00\n      mstore\n      keccak256(0x00, 0x20)\n      swap1\n      0x03\n      mul\n      add\n        /* \"secondary.sol\":9444:9480  listingBids[_listingId][i].bidAmount */\n      0x01\n      add\n      sload\n        /* \"secondary.sol\":9427:9480  uint256 amount = listingBids[_listingId][i].bidAmount */\n      swap1\n      pop\n        /* \"secondary.sol\":9536:9541  false */\n      0x00\n        /* \"secondary.sol\":9498:9509  listingBids */\n      0x03\n        /* \"secondary.sol\":9498:9521  listingBids[_listingId] */\n      0x00\n        /* \"secondary.sol\":9510:9520  _listingId */\n      dup8\n        /* \"secondary.sol\":9498:9521  listingBids[_listingId] */\n      dup2\n      mstore\n      0x20\n      add\n      swap1\n      dup2\n      mstore\n      0x20\n      add\n      0x00\n      keccak256\n        /* \"secondary.sol\":9522:9523  i */\n      dup5\n        /* \"secondary.sol\":9498:9524  listingBids[_listingId][i] */\n      dup2\n      sload\n      dup2\n      lt\n      tag_376\n      jumpi\n      tag_376\n      tag_125\n      jump\t// in\n    tag_376:\n      0x00\n      swap2\n      dup3\n      mstore\n      0x20\n      dup3\n      keccak256\n      0x03\n      swap2\n      swap1\n      swap2\n      mul\n      add\n        /* \"secondary.sol\":9498:9533  listingBids[_listingId][i].isActive */\n      0x02\n      add\n        /* \"secondary.sol\":9498:9541  listingBids[_listingId][i].isActive = false */\n      dup1\n      sload\n      not(0xff)\n      and\n      swap3\n      iszero\n      iszero\n      swap3\n      swap1\n      swap3\n      or\n      swap1\n      swap2\n      sstore\n        /* \"secondary.sol\":9559:9591  payable(bidder).transfer(amount) */\n      mload(0x40)\n      sub(shl(0xa0, 0x01), 0x01)\n        /* \"secondary.sol\":9559:9583  payable(bidder).transfer */\n      dup5\n      and\n      swap2\n        /* \"secondary.sol\":9559:9591  payable(bidder).transfer(amount) */\n      0x08fc\n      dup5\n      iszero\n      mul\n      swap2\n      dup5\n      swap2\n      dup2\n        /* \"secondary.sol\":9498:9524  listingBids[_listingId][i] */\n      dup2\n        /* \"secondary.sol\":9559:9591  payable(bidder).transfer(amount) */\n      dup2\n      dup6\n        /* \"secondary.sol\":9559:9583  payable(bidder).transfer */\n      dup9\n        /* \"secondary.sol\":9559:9591  payable(bidder).transfer(amount) */\n      dup9\n      call\n      swap4\n      pop\n      pop\n      pop\n      pop\n      iszero\n      dup1\n      iszero\n      tag_379\n      jumpi\n      returndatasize\n      0x00\n      dup1\n      returndatacopy\n      revert(0x00, returndatasize)\n    tag_379:\n      pop\n        /* \"secondary.sol\":9627:9633  bidder */\n      dup2\n      sub(shl(0xa0, 0x01), 0x01)\n        /* \"secondary.sol\":9614:9642  RefundIssued(bidder, amount) */\n      and\n      0xa171b6942063c6f2800ce40a780edce37baa2b618571b11eedd1e69e626e7d76\n        /* \"secondary.sol\":9635:9641  amount */\n      dup3\n        /* \"secondary.sol\":9614:9642  RefundIssued(bidder, amount) */\n      mload(0x40)\n      tag_380\n      swap2\n        /* \"#utility.yul\":3769:3794   */\n      dup2\n      mstore\n        /* \"#utility.yul\":3757:3759   */\n      0x20\n        /* \"#utility.yul\":3742:3760   */\n      add\n      swap1\n        /* \"#utility.yul\":3623:3800   */\n      jump\n        /* \"secondary.sol\":9614:9642  RefundIssued(bidder, amount) */\n    tag_380:\n      mload(0x40)\n      dup1\n      swap2\n      sub\n      swap1\n      log2\n        /* \"secondary.sol\":9341:9657  {... */\n      pop\n      pop\n        /* \"secondary.sol\":9275:9657  if (i != _winningBidIndex && listingBids[_listingId][i].isActive) {... */\n    tag_368:\n        /* \"secondary.sol\":9256:9259  i++ */\n      0x01\n      add\n        /* \"secondary.sol\":9200:9667  for (uint256 i = 0; i < listingBids[_listingId].length; i++) {... */\n      jump(tag_361)\n        /* \"@openzeppelin/contracts/utils/math/SafeMath.sol\":3122:3218  function sub(uint256 a, uint256 b) internal pure returns (uint256) {... */\n    tag_335:\n        /* \"@openzeppelin/contracts/utils/math/SafeMath.sol\":3180:3187  uint256 */\n      0x00\n        /* \"@openzeppelin/contracts/utils/math/SafeMath.sol\":3206:3211  a - b */\n      tag_382\n        /* \"@openzeppelin/contracts/utils/math/SafeMath.sol\":3210:3211  b */\n      dup3\n        /* \"@openzeppelin/contracts/utils/math/SafeMath.sol\":3206:3207  a */\n      dup5\n        /* \"@openzeppelin/contracts/utils/math/SafeMath.sol\":3206:3211  a - b */\n      tag_349\n      jump\t// in\n    tag_382:\n        /* \"@openzeppelin/contracts/utils/math/SafeMath.sol\":3199:3211  return a - b */\n      swap4\n        /* \"@openzeppelin/contracts/utils/math/SafeMath.sol\":3122:3218  function sub(uint256 a, uint256 b) internal pure returns (uint256) {... */\n      swap3\n      pop\n      pop\n      pop\n      jump\t// out\n        /* \"@openzeppelin/contracts/utils/math/SafeMath.sol\":2755:2851  function add(uint256 a, uint256 b) internal pure returns (uint256) {... */\n    tag_339:\n        /* \"@openzeppelin/contracts/utils/math/SafeMath.sol\":2813:2820  uint256 */\n      0x00\n        /* \"@openzeppelin/contracts/utils/math/SafeMath.sol\":2839:2844  a + b */\n      tag_382\n        /* \"@openzeppelin/contracts/utils/math/SafeMath.sol\":2843:2844  b */\n      dup3\n        /* \"@openzeppelin/contracts/utils/math/SafeMath.sol\":2839:2840  a */\n      dup5\n        /* \"@openzeppelin/contracts/utils/math/SafeMath.sol\":2839:2844  a + b */\n      tag_287\n      jump\t// in\n        /* \"#utility.yul\":14:240   */\n    tag_20:\n        /* \"#utility.yul\":73:79   */\n      0x00\n        /* \"#utility.yul\":126:128   */\n      0x20\n        /* \"#utility.yul\":114:123   */\n      dup3\n        /* \"#utility.yul\":105:112   */\n      dup5\n        /* \"#utility.yul\":101:124   */\n      sub\n        /* \"#utility.yul\":97:129   */\n      slt\n        /* \"#utility.yul\":94:146   */\n      iszero\n      tag_394\n      jumpi\n        /* \"#utility.yul\":142:143   */\n      0x00\n        /* \"#utility.yul\":139:140   */\n      dup1\n        /* \"#utility.yul\":132:144   */\n      revert\n        /* \"#utility.yul\":94:146   */\n    tag_394:\n      pop\n        /* \"#utility.yul\":187:210   */\n      calldataload\n      swap2\n        /* \"#utility.yul\":14:240   */\n      swap1\n      pop\n      jump\t// out\n        /* \"#utility.yul\":481:927   */\n    tag_385:\n        /* \"#utility.yul\":534:537   */\n      0x00\n        /* \"#utility.yul\":572:577   */\n      dup2\n        /* \"#utility.yul\":566:578   */\n      mload\n        /* \"#utility.yul\":599:605   */\n      dup1\n        /* \"#utility.yul\":594:597   */\n      dup5\n        /* \"#utility.yul\":587:606   */\n      mstore\n        /* \"#utility.yul\":631:635   */\n      0x20\n        /* \"#utility.yul\":626:629   */\n      dup5\n        /* \"#utility.yul\":622:636   */\n      add\n        /* \"#utility.yul\":615:636   */\n      swap4\n      pop\n        /* \"#utility.yul\":670:674   */\n      0x20\n        /* \"#utility.yul\":663:668   */\n      dup4\n        /* \"#utility.yul\":659:675   */\n      add\n        /* \"#utility.yul\":693:694   */\n      0x00\n        /* \"#utility.yul\":703:902   */\n    tag_397:\n        /* \"#utility.yul\":717:723   */\n      dup3\n        /* \"#utility.yul\":714:715   */\n      dup2\n        /* \"#utility.yul\":711:724   */\n      lt\n        /* \"#utility.yul\":703:902   */\n      iszero\n      tag_399\n      jumpi\n        /* \"#utility.yul\":782:795   */\n      dup2\n      mload\n      sub(shl(0xa0, 0x01), 0x01)\n        /* \"#utility.yul\":778:817   */\n      and\n        /* \"#utility.yul\":766:818   */\n      dup7\n      mstore\n        /* \"#utility.yul\":847:851   */\n      0x20\n        /* \"#utility.yul\":838:852   */\n      swap6\n      dup7\n      add\n      swap6\n        /* \"#utility.yul\":875:892   */\n      swap1\n      swap2\n      add\n      swap1\n        /* \"#utility.yul\":814:815   */\n      0x01\n        /* \"#utility.yul\":732:741   */\n      add\n        /* \"#utility.yul\":703:902   */\n      jump(tag_397)\n    tag_399:\n      pop\n        /* \"#utility.yul\":918:921   */\n      swap4\n      swap5\n        /* \"#utility.yul\":481:927   */\n      swap4\n      pop\n      pop\n      pop\n      pop\n      jump\t// out\n        /* \"#utility.yul\":932:1352   */\n    tag_386:\n        /* \"#utility.yul\":985:988   */\n      0x00\n        /* \"#utility.yul\":1023:1028   */\n      dup2\n        /* \"#utility.yul\":1017:1029   */\n      mload\n        /* \"#utility.yul\":1050:1056   */\n      dup1\n        /* \"#utility.yul\":1045:1048   */\n      dup5\n        /* \"#utility.yul\":1038:1057   */\n      mstore\n        /* \"#utility.yul\":1082:1086   */\n      0x20\n        /* \"#utility.yul\":1077:1080   */\n      dup5\n        /* \"#utility.yul\":1073:1087   */\n      add\n        /* \"#utility.yul\":1066:1087   */\n      swap4\n      pop\n        /* \"#utility.yul\":1121:1125   */\n      0x20\n        /* \"#utility.yul\":1114:1119   */\n      dup4\n        /* \"#utility.yul\":1110:1126   */\n      add\n        /* \"#utility.yul\":1144:1145   */\n      0x00\n        /* \"#utility.yul\":1154:1327   */\n    tag_401:\n        /* \"#utility.yul\":1168:1174   */\n      dup3\n        /* \"#utility.yul\":1165:1166   */\n      dup2\n        /* \"#utility.yul\":1162:1175   */\n      lt\n        /* \"#utility.yul\":1154:1327   */\n      iszero\n      tag_399\n      jumpi\n        /* \"#utility.yul\":1229:1242   */\n      dup2\n      mload\n        /* \"#utility.yul\":1217:1243   */\n      dup7\n      mstore\n        /* \"#utility.yul\":1272:1276   */\n      0x20\n        /* \"#utility.yul\":1263:1277   */\n      swap6\n      dup7\n      add\n      swap6\n        /* \"#utility.yul\":1300:1317   */\n      swap1\n      swap2\n      add\n      swap1\n        /* \"#utility.yul\":1190:1191   */\n      0x01\n        /* \"#utility.yul\":1183:1192   */\n      add\n        /* \"#utility.yul\":1154:1327   */\n      jump(tag_401)\n        /* \"#utility.yul\":1357:1822   */\n    tag_32:\n        /* \"#utility.yul\":1614:1616   */\n      0x40\n        /* \"#utility.yul\":1603:1612   */\n      dup2\n        /* \"#utility.yul\":1596:1617   */\n      mstore\n        /* \"#utility.yul\":1577:1581   */\n      0x00\n        /* \"#utility.yul\":1640:1696   */\n      tag_405\n        /* \"#utility.yul\":1692:1694   */\n      0x40\n        /* \"#utility.yul\":1681:1690   */\n      dup4\n        /* \"#utility.yul\":1677:1695   */\n      add\n        /* \"#utility.yul\":1669:1675   */\n      dup6\n        /* \"#utility.yul\":1640:1696   */\n      tag_385\n      jump\t// in\n    tag_405:\n        /* \"#utility.yul\":1744:1753   */\n      dup3\n        /* \"#utility.yul\":1736:1742   */\n      dup2\n        /* \"#utility.yul\":1732:1754   */\n      sub\n        /* \"#utility.yul\":1727:1729   */\n      0x20\n        /* \"#utility.yul\":1716:1725   */\n      dup5\n        /* \"#utility.yul\":1712:1730   */\n      add\n        /* \"#utility.yul\":1705:1755   */\n      mstore\n        /* \"#utility.yul\":1772:1816   */\n      tag_406\n        /* \"#utility.yul\":1809:1815   */\n      dup2\n        /* \"#utility.yul\":1801:1807   */\n      dup6\n        /* \"#utility.yul\":1772:1816   */\n      tag_386\n      jump\t// in\n    tag_406:\n        /* \"#utility.yul\":1764:1816   */\n      swap6\n        /* \"#utility.yul\":1357:1822   */\n      swap5\n      pop\n      pop\n      pop\n      pop\n      pop\n      jump\t// out\n        /* \"#utility.yul\":1827:2907   */\n    tag_41:\n        /* \"#utility.yul\":2318:2321   */\n      0xa0\n        /* \"#utility.yul\":2307:2316   */\n      dup2\n        /* \"#utility.yul\":2300:2322   */\n      mstore\n        /* \"#utility.yul\":2281:2285   */\n      0x00\n        /* \"#utility.yul\":2345:2402   */\n      tag_408\n        /* \"#utility.yul\":2397:2400   */\n      0xa0\n        /* \"#utility.yul\":2386:2395   */\n      dup4\n        /* \"#utility.yul\":2382:2401   */\n      add\n        /* \"#utility.yul\":2374:2380   */\n      dup9\n        /* \"#utility.yul\":2345:2402   */\n      tag_386\n      jump\t// in\n    tag_408:\n        /* \"#utility.yul\":2450:2459   */\n      dup3\n        /* \"#utility.yul\":2442:2448   */\n      dup2\n        /* \"#utility.yul\":2438:2460   */\n      sub\n        /* \"#utility.yul\":2433:2435   */\n      0x20\n        /* \"#utility.yul\":2422:2431   */\n      dup5\n        /* \"#utility.yul\":2418:2436   */\n      add\n        /* \"#utility.yul\":2411:2461   */\n      mstore\n        /* \"#utility.yul\":2484:2528   */\n      tag_409\n        /* \"#utility.yul\":2521:2527   */\n      dup2\n        /* \"#utility.yul\":2513:2519   */\n      dup9\n        /* \"#utility.yul\":2484:2528   */\n      tag_386\n      jump\t// in\n    tag_409:\n        /* \"#utility.yul\":2470:2528   */\n      swap1\n      pop\n        /* \"#utility.yul\":2576:2585   */\n      dup3\n        /* \"#utility.yul\":2568:2574   */\n      dup2\n        /* \"#utility.yul\":2564:2586   */\n      sub\n        /* \"#utility.yul\":2559:2561   */\n      0x40\n        /* \"#utility.yul\":2548:2557   */\n      dup5\n        /* \"#utility.yul\":2544:2562   */\n      add\n        /* \"#utility.yul\":2537:2587   */\n      mstore\n        /* \"#utility.yul\":2610:2654   */\n      tag_410\n        /* \"#utility.yul\":2647:2653   */\n      dup2\n        /* \"#utility.yul\":2639:2645   */\n      dup8\n        /* \"#utility.yul\":2610:2654   */\n      tag_385\n      jump\t// in\n    tag_410:\n        /* \"#utility.yul\":2596:2654   */\n      swap1\n      pop\n        /* \"#utility.yul\":2702:2711   */\n      dup3\n        /* \"#utility.yul\":2694:2700   */\n      dup2\n        /* \"#utility.yul\":2690:2712   */\n      sub\n        /* \"#utility.yul\":2685:2687   */\n      0x60\n        /* \"#utility.yul\":2674:2683   */\n      dup5\n        /* \"#utility.yul\":2670:2688   */\n      add\n        /* \"#utility.yul\":2663:2713   */\n      mstore\n        /* \"#utility.yul\":2736:2780   */\n      tag_411\n        /* \"#utility.yul\":2773:2779   */\n      dup2\n        /* \"#utility.yul\":2765:2771   */\n      dup7\n        /* \"#utility.yul\":2736:2780   */\n      tag_386\n      jump\t// in\n    tag_411:\n        /* \"#utility.yul\":2722:2780   */\n      swap1\n      pop\n        /* \"#utility.yul\":2829:2838   */\n      dup3\n        /* \"#utility.yul\":2821:2827   */\n      dup2\n        /* \"#utility.yul\":2817:2839   */\n      sub\n        /* \"#utility.yul\":2811:2814   */\n      0x80\n        /* \"#utility.yul\":2800:2809   */\n      dup5\n        /* \"#utility.yul\":2796:2815   */\n      add\n        /* \"#utility.yul\":2789:2840   */\n      mstore\n        /* \"#utility.yul\":2857:2901   */\n      tag_412\n        /* \"#utility.yul\":2894:2900   */\n      dup2\n        /* \"#utility.yul\":2886:2892   */\n      dup6\n        /* \"#utility.yul\":2857:2901   */\n      tag_386\n      jump\t// in\n    tag_412:\n        /* \"#utility.yul\":2849:2901   */\n      swap9\n        /* \"#utility.yul\":1827:2907   */\n      swap8\n      pop\n      pop\n      pop\n      pop\n      pop\n      pop\n      pop\n      pop\n      jump\t// out\n        /* \"#utility.yul\":2912:3258   */\n    tag_53:\n        /* \"#utility.yul\":2980:2986   */\n      0x00\n        /* \"#utility.yul\":2988:2994   */\n      dup1\n        /* \"#utility.yul\":3041:3043   */\n      0x40\n        /* \"#utility.yul\":3029:3038   */\n      dup4\n        /* \"#utility.yul\":3020:3027   */\n      dup6\n        /* \"#utility.yul\":3016:3039   */\n      sub\n        /* \"#utility.yul\":3012:3044   */\n      slt\n        /* \"#utility.yul\":3009:3061   */\n      iszero\n      tag_414\n      jumpi\n        /* \"#utility.yul\":3057:3058   */\n      0x00\n        /* \"#utility.yul\":3054:3055   */\n      dup1\n        /* \"#utility.yul\":3047:3059   */\n      revert\n        /* \"#utility.yul\":3009:3061   */\n    tag_414:\n      pop\n      pop\n        /* \"#utility.yul\":3102:3125   */\n      dup1\n      calldataload\n      swap3\n        /* \"#utility.yul\":3222:3224   */\n      0x20\n        /* \"#utility.yul\":3207:3225   */\n      swap1\n      swap2\n      add\n        /* \"#utility.yul\":3194:3226   */\n      calldataload\n      swap2\n      pop\n        /* \"#utility.yul\":2912:3258   */\n      jump\t// out\n        /* \"#utility.yul\":3805:4271   */\n    tag_69:\n        /* \"#utility.yul\":3882:3888   */\n      0x00\n        /* \"#utility.yul\":3890:3896   */\n      dup1\n        /* \"#utility.yul\":3898:3904   */\n      0x00\n        /* \"#utility.yul\":3951:3953   */\n      0x60\n        /* \"#utility.yul\":3939:3948   */\n      dup5\n        /* \"#utility.yul\":3930:3937   */\n      dup7\n        /* \"#utility.yul\":3926:3949   */\n      sub\n        /* \"#utility.yul\":3922:3954   */\n      slt\n        /* \"#utility.yul\":3919:3971   */\n      iszero\n      tag_418\n      jumpi\n        /* \"#utility.yul\":3967:3968   */\n      0x00\n        /* \"#utility.yul\":3964:3965   */\n      dup1\n        /* \"#utility.yul\":3957:3969   */\n      revert\n        /* \"#utility.yul\":3919:3971   */\n    tag_418:\n      pop\n      pop\n        /* \"#utility.yul\":4012:4035   */\n      dup2\n      calldataload\n      swap4\n        /* \"#utility.yul\":4132:4134   */\n      0x20\n        /* \"#utility.yul\":4117:4135   */\n      dup4\n      add\n        /* \"#utility.yul\":4104:4136   */\n      calldataload\n      swap4\n      pop\n        /* \"#utility.yul\":4235:4237   */\n      0x40\n        /* \"#utility.yul\":4220:4238   */\n      swap1\n      swap3\n      add\n        /* \"#utility.yul\":4207:4239   */\n      calldataload\n      swap2\n        /* \"#utility.yul\":3805:4271   */\n      swap1\n      pop\n      jump\t// out\n        /* \"#utility.yul\":4790:4921   */\n    tag_387:\n      sub(shl(0xa0, 0x01), 0x01)\n        /* \"#utility.yul\":4865:4896   */\n      dup2\n      and\n        /* \"#utility.yul\":4855:4897   */\n      dup2\n      eq\n        /* \"#utility.yul\":4845:4915   */\n      tag_103\n      jumpi\n        /* \"#utility.yul\":4911:4912   */\n      0x00\n        /* \"#utility.yul\":4908:4909   */\n      dup1\n        /* \"#utility.yul\":4901:4913   */\n      revert\n        /* \"#utility.yul\":4926:5293   */\n    tag_80:\n        /* \"#utility.yul\":4994:5000   */\n      0x00\n        /* \"#utility.yul\":5002:5008   */\n      dup1\n        /* \"#utility.yul\":5055:5057   */\n      0x40\n        /* \"#utility.yul\":5043:5052   */\n      dup4\n        /* \"#utility.yul\":5034:5041   */\n      dup6\n        /* \"#utility.yul\":5030:5053   */\n      sub\n        /* \"#utility.yul\":5026:5058   */\n      slt\n        /* \"#utility.yul\":5023:5075   */\n      iszero\n      tag_423\n      jumpi\n        /* \"#utility.yul\":5071:5072   */\n      0x00\n        /* \"#utility.yul\":5068:5069   */\n      dup1\n        /* \"#utility.yul\":5061:5073   */\n      revert\n        /* \"#utility.yul\":5023:5075   */\n    tag_423:\n        /* \"#utility.yul\":5116:5139   */\n      dup3\n      calldataload\n      swap2\n      pop\n        /* \"#utility.yul\":5215:5217   */\n      0x20\n        /* \"#utility.yul\":5200:5218   */\n      dup4\n      add\n        /* \"#utility.yul\":5187:5219   */\n      calldataload\n        /* \"#utility.yul\":5228:5261   */\n      tag_424\n        /* \"#utility.yul\":5187:5219   */\n      dup2\n        /* \"#utility.yul\":5228:5261   */\n      tag_387\n      jump\t// in\n    tag_424:\n        /* \"#utility.yul\":5280:5287   */\n      dup1\n        /* \"#utility.yul\":5270:5287   */\n      swap2\n      pop\n      pop\n        /* \"#utility.yul\":4926:5293   */\n      swap3\n      pop\n      swap3\n      swap1\n      pop\n      jump\t// out\n        /* \"#utility.yul\":5649:5991   */\n    tag_97:\n        /* \"#utility.yul\":5851:5853   */\n      0x20\n        /* \"#utility.yul\":5833:5854   */\n      dup1\n      dup3\n      mstore\n        /* \"#utility.yul\":5890:5892   */\n      0x12\n        /* \"#utility.yul\":5870:5888   */\n      swap1\n      dup3\n      add\n        /* \"#utility.yul\":5863:5893   */\n      mstore\n      shl(0x70, 0x4c697374696e67206e6f7420616374697665)\n        /* \"#utility.yul\":5924:5926   */\n      0x40\n        /* \"#utility.yul\":5909:5927   */\n      dup3\n      add\n        /* \"#utility.yul\":5902:5950   */\n      mstore\n        /* \"#utility.yul\":5982:5984   */\n      0x60\n        /* \"#utility.yul\":5967:5985   */\n      add\n      swap1\n        /* \"#utility.yul\":5649:5991   */\n      jump\t// out\n        /* \"#utility.yul\":5996:6345   */\n    tag_100:\n        /* \"#utility.yul\":6198:6200   */\n      0x20\n        /* \"#utility.yul\":6180:6201   */\n      dup1\n      dup3\n      mstore\n        /* \"#utility.yul\":6237:6239   */\n      0x19\n        /* \"#utility.yul\":6217:6235   */\n      swap1\n      dup3\n      add\n        /* \"#utility.yul\":6210:6240   */\n      mstore\n      shl(0x3a, 0x131a5cdd1a5b99c8185b1c9958591e4818dbdb5c1b195d1959)\n        /* \"#utility.yul\":6271:6273   */\n      0x40\n        /* \"#utility.yul\":6256:6274   */\n      dup3\n      add\n        /* \"#utility.yul\":6249:6304   */\n      mstore\n        /* \"#utility.yul\":6336:6338   */\n      0x60\n        /* \"#utility.yul\":6321:6339   */\n      add\n      swap1\n        /* \"#utility.yul\":5996:6345   */\n      jump\t// out\n        /* \"#utility.yul\":6350:6477   */\n    tag_109:\n        /* \"#utility.yul\":6411:6421   */\n      0x4e487b71\n        /* \"#utility.yul\":6406:6409   */\n      0xe0\n        /* \"#utility.yul\":6402:6422   */\n      shl\n        /* \"#utility.yul\":6399:6400   */\n      0x00\n        /* \"#utility.yul\":6392:6423   */\n      mstore\n        /* \"#utility.yul\":6442:6446   */\n      0x41\n        /* \"#utility.yul\":6439:6440   */\n      0x04\n        /* \"#utility.yul\":6432:6447   */\n      mstore\n        /* \"#utility.yul\":6466:6470   */\n      0x24\n        /* \"#utility.yul\":6463:6464   */\n      0x00\n        /* \"#utility.yul\":6456:6471   */\n      revert\n        /* \"#utility.yul\":6482:6609   */\n    tag_125:\n        /* \"#utility.yul\":6543:6553   */\n      0x4e487b71\n        /* \"#utility.yul\":6538:6541   */\n      0xe0\n        /* \"#utility.yul\":6534:6554   */\n      shl\n        /* \"#utility.yul\":6531:6532   */\n      0x00\n        /* \"#utility.yul\":6524:6555   */\n      mstore\n        /* \"#utility.yul\":6574:6578   */\n      0x32\n        /* \"#utility.yul\":6571:6572   */\n      0x04\n        /* \"#utility.yul\":6564:6579   */\n      mstore\n        /* \"#utility.yul\":6598:6602   */\n      0x24\n        /* \"#utility.yul\":6595:6596   */\n      0x00\n        /* \"#utility.yul\":6588:6603   */\n      revert\n        /* \"#utility.yul\":6968:7243   */\n    tag_388:\n        /* \"#utility.yul\":7039:7041   */\n      0x40\n        /* \"#utility.yul\":7033:7042   */\n      mload\n        /* \"#utility.yul\":7104:7106   */\n      0x1f\n        /* \"#utility.yul\":7085:7098   */\n      dup3\n      add\n      not(0x1f)\n        /* \"#utility.yul\":7081:7108   */\n      and\n        /* \"#utility.yul\":7069:7109   */\n      dup2\n      add\n      sub(shl(0x40, 0x01), 0x01)\n        /* \"#utility.yul\":7124:7158   */\n      dup2\n      gt\n        /* \"#utility.yul\":7160:7182   */\n      dup3\n      dup3\n      lt\n        /* \"#utility.yul\":7121:7183   */\n      or\n        /* \"#utility.yul\":7118:7206   */\n      iszero\n      tag_433\n      jumpi\n        /* \"#utility.yul\":7186:7204   */\n      tag_433\n      tag_109\n      jump\t// in\n    tag_433:\n        /* \"#utility.yul\":7222:7224   */\n      0x40\n        /* \"#utility.yul\":7215:7237   */\n      mstore\n        /* \"#utility.yul\":6968:7243   */\n      swap2\n      swap1\n      pop\n      jump\t// out\n        /* \"#utility.yul\":7248:7431   */\n    tag_389:\n        /* \"#utility.yul\":7308:7312   */\n      0x00\n      sub(shl(0x40, 0x01), 0x01)\n        /* \"#utility.yul\":7333:7339   */\n      dup3\n        /* \"#utility.yul\":7330:7360   */\n      gt\n        /* \"#utility.yul\":7327:7383   */\n      iszero\n      tag_436\n      jumpi\n        /* \"#utility.yul\":7363:7381   */\n      tag_436\n      tag_109\n      jump\t// in\n    tag_436:\n      pop\n        /* \"#utility.yul\":7408:7409   */\n      0x05\n        /* \"#utility.yul\":7404:7418   */\n      shl\n        /* \"#utility.yul\":7420:7424   */\n      0x20\n        /* \"#utility.yul\":7400:7425   */\n      add\n      swap1\n        /* \"#utility.yul\":7248:7431   */\n      jump\t// out\n        /* \"#utility.yul\":7436:8102   */\n    tag_390:\n        /* \"#utility.yul\":7501:7506   */\n      0x00\n        /* \"#utility.yul\":7554:7557   */\n      dup3\n        /* \"#utility.yul\":7547:7551   */\n      0x1f\n        /* \"#utility.yul\":7539:7545   */\n      dup4\n        /* \"#utility.yul\":7535:7552   */\n      add\n        /* \"#utility.yul\":7531:7558   */\n      slt\n        /* \"#utility.yul\":7521:7576   */\n      tag_438\n      jumpi\n        /* \"#utility.yul\":7572:7573   */\n      0x00\n        /* \"#utility.yul\":7569:7570   */\n      dup1\n        /* \"#utility.yul\":7562:7574   */\n      revert\n        /* \"#utility.yul\":7521:7576   */\n    tag_438:\n        /* \"#utility.yul\":7605:7611   */\n      dup2\n        /* \"#utility.yul\":7599:7612   */\n      mload\n        /* \"#utility.yul\":7632:7696   */\n      tag_439\n        /* \"#utility.yul\":7648:7695   */\n      tag_440\n        /* \"#utility.yul\":7688:7694   */\n      dup3\n        /* \"#utility.yul\":7648:7695   */\n      tag_389\n      jump\t// in\n    tag_440:\n        /* \"#utility.yul\":7632:7696   */\n      tag_388\n      jump\t// in\n    tag_439:\n        /* \"#utility.yul\":7720:7723   */\n      dup1\n        /* \"#utility.yul\":7744:7750   */\n      dup3\n        /* \"#utility.yul\":7739:7742   */\n      dup3\n        /* \"#utility.yul\":7732:7751   */\n      mstore\n        /* \"#utility.yul\":7776:7780   */\n      0x20\n        /* \"#utility.yul\":7771:7774   */\n      dup3\n        /* \"#utility.yul\":7767:7781   */\n      add\n        /* \"#utility.yul\":7760:7781   */\n      swap2\n      pop\n        /* \"#utility.yul\":7837:7841   */\n      0x20\n        /* \"#utility.yul\":7827:7833   */\n      dup4\n        /* \"#utility.yul\":7824:7825   */\n      0x05\n        /* \"#utility.yul\":7820:7834   */\n      shl\n        /* \"#utility.yul\":7812:7818   */\n      dup7\n        /* \"#utility.yul\":7808:7835   */\n      add\n        /* \"#utility.yul\":7804:7842   */\n      add\n        /* \"#utility.yul\":7790:7842   */\n      swap3\n      pop\n        /* \"#utility.yul\":7865:7868   */\n      dup6\n        /* \"#utility.yul\":7857:7863   */\n      dup4\n        /* \"#utility.yul\":7854:7869   */\n      gt\n        /* \"#utility.yul\":7851:7886   */\n      iszero\n      tag_441\n      jumpi\n        /* \"#utility.yul\":7882:7883   */\n      0x00\n        /* \"#utility.yul\":7879:7880   */\n      dup1\n        /* \"#utility.yul\":7872:7884   */\n      revert\n        /* \"#utility.yul\":7851:7886   */\n    tag_441:\n        /* \"#utility.yul\":7918:7922   */\n      0x20\n        /* \"#utility.yul\":7910:7916   */\n      dup6\n        /* \"#utility.yul\":7906:7923   */\n      add\n        /* \"#utility.yul\":7932:8071   */\n    tag_442:\n        /* \"#utility.yul\":7948:7954   */\n      dup4\n        /* \"#utility.yul\":7943:7946   */\n      dup2\n        /* \"#utility.yul\":7940:7955   */\n      lt\n        /* \"#utility.yul\":7932:8071   */\n      iszero\n      tag_444\n      jumpi\n        /* \"#utility.yul\":8016:8026   */\n      dup1\n      mload\n        /* \"#utility.yul\":8004:8027   */\n      dup4\n      mstore\n        /* \"#utility.yul\":8056:8060   */\n      0x20\n        /* \"#utility.yul\":8047:8061   */\n      swap3\n      dup4\n      add\n      swap3\n        /* \"#utility.yul\":7965:7979   */\n      add\n        /* \"#utility.yul\":7932:8071   */\n      jump(tag_442)\n    tag_444:\n      pop\n        /* \"#utility.yul\":8089:8096   */\n      swap6\n        /* \"#utility.yul\":7436:8102   */\n      swap5\n      pop\n      pop\n      pop\n      pop\n      pop\n      jump\t// out\n        /* \"#utility.yul\":8107:9316   */\n    tag_139:\n        /* \"#utility.yul\":8236:8242   */\n      0x00\n        /* \"#utility.yul\":8244:8250   */\n      dup1\n        /* \"#utility.yul\":8297:8299   */\n      0x40\n        /* \"#utility.yul\":8285:8294   */\n      dup4\n        /* \"#utility.yul\":8276:8283   */\n      dup6\n        /* \"#utility.yul\":8272:8295   */\n      sub\n        /* \"#utility.yul\":8268:8300   */\n      slt\n        /* \"#utility.yul\":8265:8317   */\n      iszero\n      tag_446\n      jumpi\n        /* \"#utility.yul\":8313:8314   */\n      0x00\n        /* \"#utility.yul\":8310:8311   */\n      dup1\n        /* \"#utility.yul\":8303:8315   */\n      revert\n        /* \"#utility.yul\":8265:8317   */\n    tag_446:\n        /* \"#utility.yul\":8346:8355   */\n      dup3\n        /* \"#utility.yul\":8340:8356   */\n      mload\n      sub(shl(0x40, 0x01), 0x01)\n        /* \"#utility.yul\":8371:8377   */\n      dup2\n        /* \"#utility.yul\":8368:8398   */\n      gt\n        /* \"#utility.yul\":8365:8415   */\n      iszero\n      tag_447\n      jumpi\n        /* \"#utility.yul\":8411:8412   */\n      0x00\n        /* \"#utility.yul\":8408:8409   */\n      dup1\n        /* \"#utility.yul\":8401:8413   */\n      revert\n        /* \"#utility.yul\":8365:8415   */\n    tag_447:\n        /* \"#utility.yul\":8434:8456   */\n      dup4\n      add\n        /* \"#utility.yul\":8487:8491   */\n      0x1f\n        /* \"#utility.yul\":8479:8492   */\n      dup2\n      add\n        /* \"#utility.yul\":8475:8502   */\n      dup6\n      sgt\n        /* \"#utility.yul\":8465:8520   */\n      tag_448\n      jumpi\n        /* \"#utility.yul\":8516:8517   */\n      0x00\n        /* \"#utility.yul\":8513:8514   */\n      dup1\n        /* \"#utility.yul\":8506:8518   */\n      revert\n        /* \"#utility.yul\":8465:8520   */\n    tag_448:\n        /* \"#utility.yul\":8549:8551   */\n      dup1\n        /* \"#utility.yul\":8543:8552   */\n      mload\n        /* \"#utility.yul\":8572:8636   */\n      tag_449\n        /* \"#utility.yul\":8588:8635   */\n      tag_440\n        /* \"#utility.yul\":8628:8634   */\n      dup3\n        /* \"#utility.yul\":8588:8635   */\n      tag_389\n      jump\t// in\n        /* \"#utility.yul\":8572:8636   */\n    tag_449:\n        /* \"#utility.yul\":8658:8661   */\n      dup1\n        /* \"#utility.yul\":8682:8688   */\n      dup3\n        /* \"#utility.yul\":8677:8680   */\n      dup3\n        /* \"#utility.yul\":8670:8689   */\n      mstore\n        /* \"#utility.yul\":8714:8718   */\n      0x20\n        /* \"#utility.yul\":8709:8712   */\n      dup3\n        /* \"#utility.yul\":8705:8719   */\n      add\n        /* \"#utility.yul\":8698:8719   */\n      swap2\n      pop\n        /* \"#utility.yul\":8771:8775   */\n      0x20\n        /* \"#utility.yul\":8761:8767   */\n      dup4\n        /* \"#utility.yul\":8758:8759   */\n      0x05\n        /* \"#utility.yul\":8754:8768   */\n      shl\n        /* \"#utility.yul\":8750:8752   */\n      dup6\n        /* \"#utility.yul\":8746:8769   */\n      add\n        /* \"#utility.yul\":8742:8776   */\n      add\n        /* \"#utility.yul\":8728:8776   */\n      swap3\n      pop\n        /* \"#utility.yul\":8799:8806   */\n      dup8\n        /* \"#utility.yul\":8791:8797   */\n      dup4\n        /* \"#utility.yul\":8788:8807   */\n      gt\n        /* \"#utility.yul\":8785:8824   */\n      iszero\n      tag_451\n      jumpi\n        /* \"#utility.yul\":8820:8821   */\n      0x00\n        /* \"#utility.yul\":8817:8818   */\n      dup1\n        /* \"#utility.yul\":8810:8822   */\n      revert\n        /* \"#utility.yul\":8785:8824   */\n    tag_451:\n        /* \"#utility.yul\":8852:8856   */\n      0x20\n        /* \"#utility.yul\":8848:8850   */\n      dup5\n        /* \"#utility.yul\":8844:8857   */\n      add\n        /* \"#utility.yul\":8833:8857   */\n      swap4\n      pop\n        /* \"#utility.yul\":8866:9080   */\n    tag_452:\n        /* \"#utility.yul\":8882:8888   */\n      dup3\n        /* \"#utility.yul\":8877:8880   */\n      dup5\n        /* \"#utility.yul\":8874:8889   */\n      lt\n        /* \"#utility.yul\":8866:9080   */\n      iszero\n      tag_454\n      jumpi\n        /* \"#utility.yul\":8957:8960   */\n      dup4\n        /* \"#utility.yul\":8951:8961   */\n      mload\n        /* \"#utility.yul\":8974:9005   */\n      tag_455\n        /* \"#utility.yul\":8999:9004   */\n      dup2\n        /* \"#utility.yul\":8974:9005   */\n      tag_387\n      jump\t// in\n    tag_455:\n        /* \"#utility.yul\":9018:9036   */\n      dup3\n      mstore\n        /* \"#utility.yul\":9065:9069   */\n      0x20\n        /* \"#utility.yul\":8899:8913   */\n      swap4\n      dup5\n      add\n      swap4\n        /* \"#utility.yul\":9056:9070   */\n      swap1\n      swap2\n      add\n      swap1\n        /* \"#utility.yul\":8866:9080   */\n      jump(tag_452)\n    tag_454:\n        /* \"#utility.yul\":9099:9104   */\n      dup1\n        /* \"#utility.yul\":9089:9104   */\n      swap6\n      pop\n      pop\n      pop\n      pop\n      pop\n        /* \"#utility.yul\":9150:9154   */\n      0x20\n        /* \"#utility.yul\":9139:9148   */\n      dup4\n        /* \"#utility.yul\":9135:9155   */\n      add\n        /* \"#utility.yul\":9129:9156   */\n      mload\n      sub(shl(0x40, 0x01), 0x01)\n        /* \"#utility.yul\":9171:9179   */\n      dup2\n        /* \"#utility.yul\":9168:9200   */\n      gt\n        /* \"#utility.yul\":9165:9217   */\n      iszero\n      tag_456\n      jumpi\n        /* \"#utility.yul\":9213:9214   */\n      0x00\n        /* \"#utility.yul\":9210:9211   */\n      dup1\n        /* \"#utility.yul\":9203:9215   */\n      revert\n        /* \"#utility.yul\":9165:9217   */\n    tag_456:\n        /* \"#utility.yul\":9236:9310   */\n      tag_457\n        /* \"#utility.yul\":9302:9309   */\n      dup6\n        /* \"#utility.yul\":9291:9299   */\n      dup3\n        /* \"#utility.yul\":9280:9289   */\n      dup7\n        /* \"#utility.yul\":9276:9300   */\n      add\n        /* \"#utility.yul\":9236:9310   */\n      tag_390\n      jump\t// in\n    tag_457:\n        /* \"#utility.yul\":9226:9310   */\n      swap2\n      pop\n      pop\n        /* \"#utility.yul\":8107:9316   */\n      swap3\n      pop\n      swap3\n      swap1\n      pop\n      jump\t// out\n        /* \"#utility.yul\":9321:9448   */\n    tag_391:\n        /* \"#utility.yul\":9382:9392   */\n      0x4e487b71\n        /* \"#utility.yul\":9377:9380   */\n      0xe0\n        /* \"#utility.yul\":9373:9393   */\n      shl\n        /* \"#utility.yul\":9370:9371   */\n      0x00\n        /* \"#utility.yul\":9363:9394   */\n      mstore\n        /* \"#utility.yul\":9413:9417   */\n      0x11\n        /* \"#utility.yul\":9410:9411   */\n      0x04\n        /* \"#utility.yul\":9403:9418   */\n      mstore\n        /* \"#utility.yul\":9437:9441   */\n      0x24\n        /* \"#utility.yul\":9434:9435   */\n      0x00\n        /* \"#utility.yul\":9427:9442   */\n      revert\n        /* \"#utility.yul\":9453:9588   */\n    tag_159:\n        /* \"#utility.yul\":9492:9495   */\n      0x00\n        /* \"#utility.yul\":9513:9530   */\n      0x01\n      dup3\n      add\n        /* \"#utility.yul\":9510:9553   */\n      tag_461\n      jumpi\n        /* \"#utility.yul\":9533:9551   */\n      tag_461\n      tag_391\n      jump\t// in\n    tag_461:\n      pop\n        /* \"#utility.yul\":9580:9581   */\n      0x01\n        /* \"#utility.yul\":9569:9582   */\n      add\n      swap1\n        /* \"#utility.yul\":9453:9588   */\n      jump\t// out\n        /* \"#utility.yul\":10653:11008   */\n    tag_266:\n        /* \"#utility.yul\":10874:10888   */\n      swap3\n      iszero\n        /* \"#utility.yul\":10867:10889   */\n      iszero\n        /* \"#utility.yul\":10849:10890   */\n      dup4\n      mstore\n      sub(shl(0xa0, 0x01), 0x01)\n        /* \"#utility.yul\":10926:10958   */\n      swap2\n      swap1\n      swap2\n      and\n        /* \"#utility.yul\":10921:10923   */\n      0x20\n        /* \"#utility.yul\":10906:10924   */\n      dup4\n      add\n        /* \"#utility.yul\":10899:10959   */\n      mstore\n        /* \"#utility.yul\":10990:10992   */\n      0x40\n        /* \"#utility.yul\":10975:10993   */\n      dup3\n      add\n        /* \"#utility.yul\":10968:11002   */\n      mstore\n        /* \"#utility.yul\":10837:10839   */\n      0x60\n        /* \"#utility.yul\":10822:10840   */\n      add\n      swap1\n        /* \"#utility.yul\":10653:11008   */\n      jump\t// out\n        /* \"#utility.yul\":12142:12267   */\n    tag_287:\n        /* \"#utility.yul\":12207:12216   */\n      dup1\n      dup3\n      add\n        /* \"#utility.yul\":12228:12238   */\n      dup1\n      dup3\n      gt\n        /* \"#utility.yul\":12225:12261   */\n      iszero\n      tag_291\n      jumpi\n        /* \"#utility.yul\":12241:12259   */\n      tag_291\n      tag_391\n      jump\t// in\n        /* \"#utility.yul\":12885:13013   */\n    tag_349:\n        /* \"#utility.yul\":12952:12961   */\n      dup2\n      dup2\n      sub\n        /* \"#utility.yul\":12973:12984   */\n      dup2\n      dup2\n      gt\n        /* \"#utility.yul\":12970:13007   */\n      iszero\n      tag_291\n      jumpi\n        /* \"#utility.yul\":12987:13005   */\n      tag_291\n      tag_391\n      jump\t// in\n        /* \"#utility.yul\":13018:13145   */\n    tag_358:\n        /* \"#utility.yul\":13079:13089   */\n      0x4e487b71\n        /* \"#utility.yul\":13074:13077   */\n      0xe0\n        /* \"#utility.yul\":13070:13090   */\n      shl\n        /* \"#utility.yul\":13067:13068   */\n      0x00\n        /* \"#utility.yul\":13060:13091   */\n      mstore\n        /* \"#utility.yul\":13110:13114   */\n      0x31\n        /* \"#utility.yul\":13107:13108   */\n      0x04\n        /* \"#utility.yul\":13100:13115   */\n      mstore\n        /* \"#utility.yul\":13134:13138   */\n      0x24\n        /* \"#utility.yul\":13131:13132   */\n      0x00\n        /* \"#utility.yul\":13124:13139   */\n      revert\n\n    auxdata: 0xa26469706673582212209161eb40584f935ed5320f71f45fc40b5a4a5023dbf54d62c0e23c8376757a5964736f6c634300081d0033\n}\n",
				"bytecode": {
					"linkReferences": {},
					"object": "6080604052348015600f57600080fd5b50604051612007380380612007833981016040819052602c916055565b6001600081905580546001600160a01b0319166001600160a01b03929092169190911790556083565b600060208284031215606657600080fd5b81516001600160a01b0381168114607c57600080fd5b9392505050565b611f75806100926000396000f3fe6080604052600436106100bd5760003560e01c80639da0e1dd1161006f5780639da0e1dd146101c8578063a137454a1461020f578063a9b07c261461022f578063b03053b614610253578063de74e57b14610273578063e7ebadfe14610300578063fb05da2e1461032057600080fd5b8063305a67a8146100c25780634bbfdffe146100e4578063686735c51461012157806383421efd1461014f57806387c35bc01461016f57806390e467a1146101955780639979ef45146101b5575b600080fd5b3480156100ce57600080fd5b506100e26100dd366004611adf565b61037a565b005b3480156100f057600080fd5b50600154610104906001600160a01b031681565b6040516001600160a01b0390911681526020015b60405180910390f35b34801561012d57600080fd5b5061014161013c366004611adf565b61048b565b604051610118929190611b6f565b34801561015b57600080fd5b506100e261016a366004611adf565b610624565b34801561017b57600080fd5b50610184610827565b604051610118959493929190611b9d565b3480156101a157600080fd5b506101416101b0366004611adf565b610aa8565b6100e26101c3366004611adf565b610c92565b3480156101d457600080fd5b506101e86101e3366004611c0a565b610e5d565b604080516001600160a01b0390941684526020840192909252151590820152606001610118565b34801561021b57600080fd5b506100e261022a366004611adf565b610eac565b34801561023b57600080fd5b5061024560045481565b604051908152602001610118565b34801561025f57600080fd5b506100e261026e366004611c2c565b611159565b34801561027f57600080fd5b506102cc61028e366004611adf565b6002602081905260009182526040909120805460018201549282015460039092015490926001600160a01b0316919060ff8082169161010090041685565b604080519586526001600160a01b03909416602086015292840191909152151560608301521515608082015260a001610118565b34801561030c57600080fd5b5061024561031b366004611c6d565b61134d565b34801561032c57600080fd5b506102cc61033b366004611adf565b6000908152600260208190526040909120805460018201549282015460039092015490936001600160a01b039093169260ff8083169261010090041690565b610382611481565b600081815260026020526040902060018101546001600160a01b031633146103ea5760405162461bcd60e51b815260206004820152601660248201527513db9b1e481cd95b1b195c8818d85b8818d85b98d95b60521b60448201526064015b60405180910390fd5b600381015460ff1661040e5760405162461bcd60e51b81526004016103e190611c9d565b6003810154610100900460ff16156104385760405162461bcd60e51b81526004016103e190611cc9565b60038101805461ffff1916610100179055610452826114da565b60405182907f411aee90354c51b1b04cd563fcab2617142a9d50da19232d888547c8a1b7fd8a90600090a2506104886001600055565b50565b600081815260056020526040902060020154606090819060ff166104c75750506040805160008082526020820190815281830190925292909150565b600083815260056020526040902060010154806001600160401b038111156104f1576104f1611cfc565b60405190808252806020026020018201604052801561051a578160200160208202803683370190505b509250806001600160401b0381111561053557610535611cfc565b60405190808252806020026020018201604052801561055e578160200160208202803683370190505b50915060005b8181101561061d57600085815260056020526040812060010180548390811061058f5761058f611d12565b9060005260206000200160009054906101000a90046001600160a01b03169050808583815181106105c2576105c2611d12565b6001600160a01b0392831660209182029290920181019190915260008881526005825260408082209385168252929091522054845185908490811061060957610609611d12565b602090810291909101015250600101610564565b5050915091565b60008181526005602052604090206002015460ff16156106825760405162461bcd60e51b8152602060048201526019602482015278105cdcd95d08185b1c9958591e481a5b9a5d1a585b1a5e9959603a1b60448201526064016103e1565b60015460405163686735c560e01b81526004810183905260009182916001600160a01b039091169063686735c590602401600060405180830381865afa1580156106d0573d6000803e3d6000fd5b505050506040513d6000823e601f3d908101601f191682016040526106f89190810190611de8565b9150915060005b825181101561080657600082828151811061071c5761071c611d12565b602002602001015111156107fe5781818151811061073c5761073c611d12565b602002602001015160056000868152602001908152602001600020600001600085848151811061076e5761076e611d12565b60200260200101516001600160a01b03166001600160a01b0316815260200190815260200160002081905550600560008581526020019081526020016000206001018382815181106107c2576107c2611d12565b60209081029190910181015182546001810184556000938452919092200180546001600160a01b0319166001600160a01b039092169190911790555b6001016106ff565b5050506000908152600560205260409020600201805460ff19166001179055565b606080808080600060015b60045481116108755760008181526002602052604090206003015460ff1615610863578161085f81611ec9565b9250505b8061086d81611ec9565b915050610832565b50806001600160401b0381111561088e5761088e611cfc565b6040519080825280602002602001820160405280156108b7578160200160208202803683370190505b509550806001600160401b038111156108d2576108d2611cfc565b6040519080825280602002602001820160405280156108fb578160200160208202803683370190505b509450806001600160401b0381111561091657610916611cfc565b60405190808252806020026020018201604052801561093f578160200160208202803683370190505b509350806001600160401b0381111561095a5761095a611cfc565b604051908082528060200260200182016040528015610983578160200160208202803683370190505b509250600060015b6004548111610a9e5760008181526002602052604090206003015460ff1615610a8c57808883815181106109c1576109c1611d12565b60200260200101818152505060026000828152602001908152602001600020600001548783815181106109f6576109f6611d12565b60209081029190910181019190915260008281526002909152604090206001015486516001600160a01b0390911690879084908110610a3757610a37611d12565b6001600160a01b0390921660209283029190910182015260008281526002918290526040902001548551869084908110610a7357610a73611d12565b602090810291909101015281610a8881611ec9565b9250505b80610a9681611ec9565b91505061098b565b5050509091929394565b6000818152600360205260408120606091829190805b8254811015610b0b57828181548110610ad957610ad9611d12565b600091825260209091206002600390920201015460ff1615610b035781610aff81611ec9565b9250505b600101610abe565b50806001600160401b03811115610b2457610b24611cfc565b604051908082528060200260200182016040528015610b4d578160200160208202803683370190505b509350806001600160401b03811115610b6857610b68611cfc565b604051908082528060200260200182016040528015610b91578160200160208202803683370190505b5092506000805b8354811015610c8957838181548110610bb357610bb3611d12565b600091825260209091206002600390920201015460ff1615610c8157838181548110610be157610be1611d12565b600091825260209091206003909102015486516001600160a01b0390911690879084908110610c1257610c12611d12565b60200260200101906001600160a01b031690816001600160a01b031681525050838181548110610c4457610c44611d12565b906000526020600020906003020160010154858381518110610c6857610c68611d12565b602090810291909101015281610c7d81611ec9565b9250505b600101610b98565b50505050915091565b610c9a611481565b6000818152600260205260409020600381015460ff16610ccc5760405162461bcd60e51b81526004016103e190611c9d565b6003810154610100900460ff1615610cf65760405162461bcd60e51b81526004016103e190611cc9565b60018101546001600160a01b03163303610d525760405162461bcd60e51b815260206004820181905260248201527f53656c6c65722063616e6e6f7420626964206f6e206f776e206c697374696e6760448201526064016103e1565b8060020154341015610da05760405162461bcd60e51b81526020600482015260176024820152764269642062656c6f77206d696e696d756d20707269636560481b60448201526064016103e1565b600082815260036020818152604080842081516060810183523380825234828601818152600184870181815286548083018855968b529988902094519590980290930180546001600160a01b0319166001600160a01b0390951694909417845591519583019590955594516002909101805460ff191691151591909117905551928352909184917f0e54eff26401bf69b81b26f60bd85ef47f5d85275c1d268d84f68d6897431c47910160405180910390a3506104886001600055565b60036020528160005260406000208181548110610e7957600080fd5b60009182526020909120600390910201805460018201546002909201546001600160a01b03909116935090915060ff1683565b610eb4611481565b6000818152600260205260409020600381015460ff16610ee65760405162461bcd60e51b81526004016103e190611c9d565b6003810154610100900460ff1615610f105760405162461bcd60e51b81526004016103e190611cc9565b60018101546001600160a01b03163314610f615760405162461bcd60e51b8152602060048201526012602482015271596f752063616e6e6f74206578656375746560701b60448201526064016103e1565b60038101805461ffff19166101001790556000808080805b600087815260036020526040902054811015611006576000878152600360205260408120805483908110610faf57610faf611d12565b60009182526020909120600390910201600281015490915060ff168015610fd95750858160010154115b15610ffd5760018082015482549097506001600160a01b0316955091935090915082905b50600101610f79565b50808015611018575084600201548410155b1561110257600086815260036020526040812080548490811061103d5761103d611d12565b60009182526020822060039190910201600201805460ff19169215159290921790915560018601546040516001600160a01b03909116916108fc871502918791818181858888f1935050505015801561109a573d6000803e3d6000fd5b50845460018601546110b691906001600160a01b03168561166e565b857fa61f9b5a0a92578ea5cd1dbc470c2f232a62ecfdabb857db6ca084ee2b5ac335600185876040516110eb93929190611ee2565b60405180910390a26110fd8683611924565b61114a565b61110b866114da565b857fa61f9b5a0a92578ea5cd1dbc470c2f232a62ecfdabb857db6ca084ee2b5ac335600080600060405161114193929190611ee2565b60405180910390a25b50505050506104886001600055565b611161611481565b600082116111b15760405162461bcd60e51b815260206004820152601e60248201527f4d696e696d756d207072696365206d75737420626520706f736974697665000060448201526064016103e1565b60008381526005602052604090206002015460ff166111d3576111d383610624565b6000838152600560209081526040808320338452909152902054600111156112475760405162461bcd60e51b815260206004820152602160248201527f4d757374206f776e206174206c65617374203120736861726520746f2073656c6044820152601b60fa1b60648201526084016103e1565b6004805490600061125783611ec9565b90915550506040805160a0810182528481523360208083018281528385018781526001606086018181526000608088018181526004805483526002978890529990912097518855935191870180546001600160a01b0319166001600160a01b0390931692909217909155905192850192909255905160039093018054915161ffff1990921693151561ff001916939093176101009115159190910217909155905484907f492d2294f1b8a982001da6ecb3de3a374ad9c29c9c8d5ad43da90cc50b585136856113268642611f03565b6040805192835260208301919091520160405180910390a46113486001600055565b505050565b60008281526005602052604081206002015460ff166114565760015460405163686735c560e01b81526004810185905260009182916001600160a01b039091169063686735c590602401600060405180830381865afa1580156113b4573d6000803e3d6000fd5b505050506040513d6000823e601f3d908101601f191682016040526113dc9190810190611de8565b9150915060005b825181101561144a57846001600160a01b031683828151811061140857611408611d12565b60200260200101516001600160a01b0316036114425781818151811061143057611430611d12565b6020026020010151935050505061147b565b6001016113e3565b5060009250505061147b565b5060008281526005602090815260408083206001600160a01b03851684529091529020545b92915050565b6002600054036114d35760405162461bcd60e51b815260206004820152601f60248201527f5265656e7472616e637947756172643a207265656e7472616e742063616c6c0060448201526064016103e1565b6002600055565b60005b60008281526003602052604090205481101561166a57600082815260036020526040902080548290811061151357611513611d12565b600091825260209091206002600390920201015460ff161561166257600082815260036020526040812080548390811061154f5761154f611d12565b60009182526020808320600392830201548684529190526040822080546001600160a01b039092169350908490811061158a5761158a611d12565b906000526020600020906003020160010154905060006003600086815260200190815260200160002084815481106115c4576115c4611d12565b60009182526020822060039190910201600201805460ff1916921515929092179091556040516001600160a01b038416916108fc841502918491818181858888f1935050505015801561161b573d6000803e3d6000fd5b50816001600160a01b03167fa171b6942063c6f2800ce40a780edce37baa2b618571b11eedd1e69e626e7d768260405161165791815260200190565b60405180910390a250505b6001016114dd565b5050565b60008381526005602052604090206002015460ff166116905761169083610624565b60008381526005602090815260408083206001600160a01b03861684529091529020546116be906001611ac0565b60008481526005602090815260408083206001600160a01b0387811685529252808320939093558316815290812054900361172e5760008381526005602090815260408220600190810180549182018155835291200180546001600160a01b0319166001600160a01b0383161790555b60008381526005602090815260408083206001600160a01b038516845290915290205461175c906001611ad3565b60008481526005602090815260408083206001600160a01b038681168552925280832093909355841681529081205490036118de5760005b6000848152600560205260409020600101548110156118dc57600084815260056020526040902060010180546001600160a01b0385169190839081106117dc576117dc611d12565b6000918252602090912001546001600160a01b0316036118d457600084815260056020526040902060019081018054909161181691611f16565b8154811061182657611826611d12565b60009182526020808320909101548683526005909152604090912060010180546001600160a01b03909216918390811061186257611862611d12565b600091825260208083209190910180546001600160a01b0319166001600160a01b0394909416939093179092558581526005909152604090206001018054806118ad576118ad611f29565b600082815260209020810160001990810180546001600160a01b03191690550190556118dc565b600101611794565b505b806001600160a01b0316826001600160a01b0316847f0bdf77fd986065d8fc49e770b42f0e133bb498a86d7d958a01cbbed564d678ac60405160405180910390a4505050565b60005b600083815260036020526040902054811015611348578181141580156119805750600083815260036020526040902080548290811061196857611968611d12565b600091825260209091206002600390920201015460ff165b15611ab85760008381526003602052604081208054839081106119a5576119a5611d12565b60009182526020808320600392830201548784529190526040822080546001600160a01b03909216935090849081106119e0576119e0611d12565b90600052602060002090600302016001015490506000600360008781526020019081526020016000208481548110611a1a57611a1a611d12565b60009182526020822060039190910201600201805460ff1916921515929092179091556040516001600160a01b038416916108fc841502918491818181858888f19350505050158015611a71573d6000803e3d6000fd5b50816001600160a01b03167fa171b6942063c6f2800ce40a780edce37baa2b618571b11eedd1e69e626e7d7682604051611aad91815260200190565b60405180910390a250505b600101611927565b6000611acc8284611f16565b9392505050565b6000611acc8284611f03565b600060208284031215611af157600080fd5b5035919050565b600081518084526020840193506020830160005b82811015611b335781516001600160a01b0316865260209586019590910190600101611b0c565b5093949350505050565b600081518084526020840193506020830160005b82811015611b33578151865260209586019590910190600101611b51565b604081526000611b826040830185611af8565b8281036020840152611b948185611b3d565b95945050505050565b60a081526000611bb060a0830188611b3d565b8281036020840152611bc28188611b3d565b90508281036040840152611bd68187611af8565b90508281036060840152611bea8186611b3d565b90508281036080840152611bfe8185611b3d565b98975050505050505050565b60008060408385031215611c1d57600080fd5b50508035926020909101359150565b600080600060608486031215611c4157600080fd5b505081359360208301359350604090920135919050565b6001600160a01b038116811461048857600080fd5b60008060408385031215611c8057600080fd5b823591506020830135611c9281611c58565b809150509250929050565b6020808252601290820152714c697374696e67206e6f742061637469766560701b604082015260600190565b602080825260199082015278131a5cdd1a5b99c8185b1c9958591e4818dbdb5c1b195d1959603a1b604082015260600190565b634e487b7160e01b600052604160045260246000fd5b634e487b7160e01b600052603260045260246000fd5b604051601f8201601f191681016001600160401b0381118282101715611d5057611d50611cfc565b604052919050565b60006001600160401b03821115611d7157611d71611cfc565b5060051b60200190565b600082601f830112611d8c57600080fd5b8151611d9f611d9a82611d58565b611d28565b8082825260208201915060208360051b860101925085831115611dc157600080fd5b602085015b83811015611dde578051835260209283019201611dc6565b5095945050505050565b60008060408385031215611dfb57600080fd5b82516001600160401b03811115611e1157600080fd5b8301601f81018513611e2257600080fd5b8051611e30611d9a82611d58565b8082825260208201915060208360051b850101925087831115611e5257600080fd5b6020840193505b82841015611e7d578351611e6c81611c58565b825260209384019390910190611e59565b8095505050505060208301516001600160401b03811115611e9d57600080fd5b611ea985828601611d7b565b9150509250929050565b634e487b7160e01b600052601160045260246000fd5b600060018201611edb57611edb611eb3565b5060010190565b92151583526001600160a01b03919091166020830152604082015260600190565b8082018082111561147b5761147b611eb3565b8181038181111561147b5761147b611eb3565b634e487b7160e01b600052603160045260246000fdfea26469706673582212209161eb40584f935ed5320f71f45fc40b5a4a5023dbf54d62c0e23c8376757a5964736f6c634300081d0033",
					"opcodes": "PUSH1 0x80 PUSH1 0x40 MSTORE CALLVALUE DUP1 ISZERO PUSH1 0xF JUMPI PUSH1 0x0 DUP1 REVERT JUMPDEST POP PUSH1 0x40 MLOAD PUSH2 0x2007 CODESIZE SUB DUP1 PUSH2 0x2007 DUP4 CODECOPY DUP2 ADD PUSH1 0x40 DUP2 SWAP1 MSTORE PUSH1 0x2C SWAP2 PUSH1 0x55 JUMP JUMPDEST PUSH1 0x1 PUSH1 0x0 DUP2 SWAP1 SSTORE DUP1 SLOAD PUSH1 0x1 PUSH1 0x1 PUSH1 0xA0 SHL SUB NOT AND PUSH1 0x1 PUSH1 0x1 PUSH1 0xA0 SHL SUB SWAP3 SWAP1 SWAP3 AND SWAP2 SWAP1 SWAP2 OR SWAP1 SSTORE PUSH1 0x83 JUMP JUMPDEST PUSH1 0x0 PUSH1 0x20 DUP3 DUP5 SUB SLT ISZERO PUSH1 0x66 JUMPI PUSH1 0x0 DUP1 REVERT JUMPDEST DUP2 MLOAD PUSH1 0x1 PUSH1 0x1 PUSH1 0xA0 SHL SUB DUP2 AND DUP2 EQ PUSH1 0x7C JUMPI PUSH1 0x0 DUP1 REVERT JUMPDEST SWAP4 SWAP3 POP POP POP JUMP JUMPDEST PUSH2 0x1F75 DUP1 PUSH2 0x92 PUSH1 0x0 CODECOPY PUSH1 0x0 RETURN INVALID PUSH1 0x80 PUSH1 0x40 MSTORE PUSH1 0x4 CALLDATASIZE LT PUSH2 0xBD JUMPI PUSH1 0x0 CALLDATALOAD PUSH1 0xE0 SHR DUP1 PUSH4 0x9DA0E1DD GT PUSH2 0x6F JUMPI DUP1 PUSH4 0x9DA0E1DD EQ PUSH2 0x1C8 JUMPI DUP1 PUSH4 0xA137454A EQ PUSH2 0x20F JUMPI DUP1 PUSH4 0xA9B07C26 EQ PUSH2 0x22F JUMPI DUP1 PUSH4 0xB03053B6 EQ PUSH2 0x253 JUMPI DUP1 PUSH4 0xDE74E57B EQ PUSH2 0x273 JUMPI DUP1 PUSH4 0xE7EBADFE EQ PUSH2 0x300 JUMPI DUP1 PUSH4 0xFB05DA2E EQ PUSH2 0x320 JUMPI PUSH1 0x0 DUP1 REVERT JUMPDEST DUP1 PUSH4 0x305A67A8 EQ PUSH2 0xC2 JUMPI DUP1 PUSH4 0x4BBFDFFE EQ PUSH2 0xE4 JUMPI DUP1 PUSH4 0x686735C5 EQ PUSH2 0x121 JUMPI DUP1 PUSH4 0x83421EFD EQ PUSH2 0x14F JUMPI DUP1 PUSH4 0x87C35BC0 EQ PUSH2 0x16F JUMPI DUP1 PUSH4 0x90E467A1 EQ PUSH2 0x195 JUMPI DUP1 PUSH4 0x9979EF45 EQ PUSH2 0x1B5 JUMPI JUMPDEST PUSH1 0x0 DUP1 REVERT JUMPDEST CALLVALUE DUP1 ISZERO PUSH2 0xCE JUMPI PUSH1 0x0 DUP1 REVERT JUMPDEST POP PUSH2 0xE2 PUSH2 0xDD CALLDATASIZE PUSH1 0x4 PUSH2 0x1ADF JUMP JUMPDEST PUSH2 0x37A JUMP JUMPDEST STOP JUMPDEST CALLVALUE DUP1 ISZERO PUSH2 0xF0 JUMPI PUSH1 0x0 DUP1 REVERT JUMPDEST POP PUSH1 0x1 SLOAD PUSH2 0x104 SWAP1 PUSH1 0x1 PUSH1 0x1 PUSH1 0xA0 SHL SUB AND DUP2 JUMP JUMPDEST PUSH1 0x40 MLOAD PUSH1 0x1 PUSH1 0x1 PUSH1 0xA0 SHL SUB SWAP1 SWAP2 AND DUP2 MSTORE PUSH1 0x20 ADD JUMPDEST PUSH1 0x40 MLOAD DUP1 SWAP2 SUB SWAP1 RETURN JUMPDEST CALLVALUE DUP1 ISZERO PUSH2 0x12D JUMPI PUSH1 0x0 DUP1 REVERT JUMPDEST POP PUSH2 0x141 PUSH2 0x13C CALLDATASIZE PUSH1 0x4 PUSH2 0x1ADF JUMP JUMPDEST PUSH2 0x48B JUMP JUMPDEST PUSH1 0x40 MLOAD PUSH2 0x118 SWAP3 SWAP2 SWAP1 PUSH2 0x1B6F JUMP JUMPDEST CALLVALUE DUP1 ISZERO PUSH2 0x15B JUMPI PUSH1 0x0 DUP1 REVERT JUMPDEST POP PUSH2 0xE2 PUSH2 0x16A CALLDATASIZE PUSH1 0x4 PUSH2 0x1ADF JUMP JUMPDEST PUSH2 0x624 JUMP JUMPDEST CALLVALUE DUP1 ISZERO PUSH2 0x17B JUMPI PUSH1 0x0 DUP1 REVERT JUMPDEST POP PUSH2 0x184 PUSH2 0x827 JUMP JUMPDEST PUSH1 0x40 MLOAD PUSH2 0x118 SWAP6 SWAP5 SWAP4 SWAP3 SWAP2 SWAP1 PUSH2 0x1B9D JUMP JUMPDEST CALLVALUE DUP1 ISZERO PUSH2 0x1A1 JUMPI PUSH1 0x0 DUP1 REVERT JUMPDEST POP PUSH2 0x141 PUSH2 0x1B0 CALLDATASIZE PUSH1 0x4 PUSH2 0x1ADF JUMP JUMPDEST PUSH2 0xAA8 JUMP JUMPDEST PUSH2 0xE2 PUSH2 0x1C3 CALLDATASIZE PUSH1 0x4 PUSH2 0x1ADF JUMP JUMPDEST PUSH2 0xC92 JUMP JUMPDEST CALLVALUE DUP1 ISZERO PUSH2 0x1D4 JUMPI PUSH1 0x0 DUP1 REVERT JUMPDEST POP PUSH2 0x1E8 PUSH2 0x1E3 CALLDATASIZE PUSH1 0x4 PUSH2 0x1C0A JUMP JUMPDEST PUSH2 0xE5D JUMP JUMPDEST PUSH1 0x40 DUP1 MLOAD PUSH1 0x1 PUSH1 0x1 PUSH1 0xA0 SHL SUB SWAP1 SWAP5 AND DUP5 MSTORE PUSH1 0x20 DUP5 ADD SWAP3 SWAP1 SWAP3 MSTORE ISZERO ISZERO SWAP1 DUP3 ADD MSTORE PUSH1 0x60 ADD PUSH2 0x118 JUMP JUMPDEST CALLVALUE DUP1 ISZERO PUSH2 0x21B JUMPI PUSH1 0x0 DUP1 REVERT JUMPDEST POP PUSH2 0xE2 PUSH2 0x22A CALLDATASIZE PUSH1 0x4 PUSH2 0x1ADF JUMP JUMPDEST PUSH2 0xEAC JUMP JUMPDEST CALLVALUE DUP1 ISZERO PUSH2 0x23B JUMPI PUSH1 0x0 DUP1 REVERT JUMPDEST POP PUSH2 0x245 PUSH1 0x4 SLOAD DUP2 JUMP JUMPDEST PUSH1 0x40 MLOAD SWAP1 DUP2 MSTORE PUSH1 0x20 ADD PUSH2 0x118 JUMP JUMPDEST CALLVALUE DUP1 ISZERO PUSH2 0x25F JUMPI PUSH1 0x0 DUP1 REVERT JUMPDEST POP PUSH2 0xE2 PUSH2 0x26E CALLDATASIZE PUSH1 0x4 PUSH2 0x1C2C JUMP JUMPDEST PUSH2 0x1159 JUMP JUMPDEST CALLVALUE DUP1 ISZERO PUSH2 0x27F JUMPI PUSH1 0x0 DUP1 REVERT JUMPDEST POP PUSH2 0x2CC PUSH2 0x28E CALLDATASIZE PUSH1 0x4 PUSH2 0x1ADF JUMP JUMPDEST PUSH1 0x2 PUSH1 0x20 DUP2 SWAP1 MSTORE PUSH1 0x0 SWAP2 DUP3 MSTORE PUSH1 0x40 SWAP1 SWAP2 KECCAK256 DUP1 SLOAD PUSH1 0x1 DUP3 ADD SLOAD SWAP3 DUP3 ADD SLOAD PUSH1 0x3 SWAP1 SWAP3 ADD SLOAD SWAP1 SWAP3 PUSH1 0x1 PUSH1 0x1 PUSH1 0xA0 SHL SUB AND SWAP2 SWAP1 PUSH1 0xFF DUP1 DUP3 AND SWAP2 PUSH2 0x100 SWAP1 DIV AND DUP6 JUMP JUMPDEST PUSH1 0x40 DUP1 MLOAD SWAP6 DUP7 MSTORE PUSH1 0x1 PUSH1 0x1 PUSH1 0xA0 SHL SUB SWAP1 SWAP5 AND PUSH1 0x20 DUP7 ADD MSTORE SWAP3 DUP5 ADD SWAP2 SWAP1 SWAP2 MSTORE ISZERO ISZERO PUSH1 0x60 DUP4 ADD MSTORE ISZERO ISZERO PUSH1 0x80 DUP3 ADD MSTORE PUSH1 0xA0 ADD PUSH2 0x118 JUMP JUMPDEST CALLVALUE DUP1 ISZERO PUSH2 0x30C JUMPI PUSH1 0x0 DUP1 REVERT JUMPDEST POP PUSH2 0x245 PUSH2 0x31B CALLDATASIZE PUSH1 0x4 PUSH2 0x1C6D JUMP JUMPDEST PUSH2 0x134D JUMP JUMPDEST CALLVALUE DUP1 ISZERO PUSH2 0x32C JUMPI PUSH1 0x0 DUP1 REVERT JUMPDEST POP PUSH2 0x2CC PUSH2 0x33B CALLDATASIZE PUSH1 0x4 PUSH2 0x1ADF JUMP JUMPDEST PUSH1 0x0 SWAP1 DUP2 MSTORE PUSH1 0x2 PUSH1 0x20 DUP2 SWAP1 MSTORE PUSH1 0x40 SWAP1 SWAP2 KECCAK256 DUP1 SLOAD PUSH1 0x1 DUP3 ADD SLOAD SWAP3 DUP3 ADD SLOAD PUSH1 0x3 SWAP1 SWAP3 ADD SLOAD SWAP1 SWAP4 PUSH1 0x1 PUSH1 0x1 PUSH1 0xA0 SHL SUB SWAP1 SWAP4 AND SWAP3 PUSH1 0xFF DUP1 DUP4 AND SWAP3 PUSH2 0x100 SWAP1 DIV AND SWAP1 JUMP JUMPDEST PUSH2 0x382 PUSH2 0x1481 JUMP JUMPDEST PUSH1 0x0 DUP2 DUP2 MSTORE PUSH1 0x2 PUSH1 0x20 MSTORE PUSH1 0x40 SWAP1 KECCAK256 PUSH1 0x1 DUP2 ADD SLOAD PUSH1 0x1 PUSH1 0x1 PUSH1 0xA0 SHL SUB AND CALLER EQ PUSH2 0x3EA JUMPI PUSH1 0x40 MLOAD PUSH3 0x461BCD PUSH1 0xE5 SHL DUP2 MSTORE PUSH1 0x20 PUSH1 0x4 DUP3 ADD MSTORE PUSH1 0x16 PUSH1 0x24 DUP3 ADD MSTORE PUSH22 0x13DB9B1E481CD95B1B195C8818D85B8818D85B98D95B PUSH1 0x52 SHL PUSH1 0x44 DUP3 ADD MSTORE PUSH1 0x64 ADD JUMPDEST PUSH1 0x40 MLOAD DUP1 SWAP2 SUB SWAP1 REVERT JUMPDEST PUSH1 0x3 DUP2 ADD SLOAD PUSH1 0xFF AND PUSH2 0x40E JUMPI PUSH1 0x40 MLOAD PUSH3 0x461BCD PUSH1 0xE5 SHL DUP2 MSTORE PUSH1 0x4 ADD PUSH2 0x3E1 SWAP1 PUSH2 0x1C9D JUMP JUMPDEST PUSH1 0x3 DUP2 ADD SLOAD PUSH2 0x100 SWAP1 DIV PUSH1 0xFF AND ISZERO PUSH2 0x438 JUMPI PUSH1 0x40 MLOAD PUSH3 0x461BCD PUSH1 0xE5 SHL DUP2 MSTORE PUSH1 0x4 ADD PUSH2 0x3E1 SWAP1 PUSH2 0x1CC9 JUMP JUMPDEST PUSH1 0x3 DUP2 ADD DUP1 SLOAD PUSH2 0xFFFF NOT AND PUSH2 0x100 OR SWAP1 SSTORE PUSH2 0x452 DUP3 PUSH2 0x14DA JUMP JUMPDEST PUSH1 0x40 MLOAD DUP3 SWAP1 PUSH32 0x411AEE90354C51B1B04CD563FCAB2617142A9D50DA19232D888547C8A1B7FD8A SWAP1 PUSH1 0x0 SWAP1 LOG2 POP PUSH2 0x488 PUSH1 0x1 PUSH1 0x0 SSTORE JUMP JUMPDEST POP JUMP JUMPDEST PUSH1 0x0 DUP2 DUP2 MSTORE PUSH1 0x5 PUSH1 0x20 MSTORE PUSH1 0x40 SWAP1 KECCAK256 PUSH1 0x2 ADD SLOAD PUSH1 0x60 SWAP1 DUP2 SWAP1 PUSH1 0xFF AND PUSH2 0x4C7 JUMPI POP POP PUSH1 0x40 DUP1 MLOAD PUSH1 0x0 DUP1 DUP3 MSTORE PUSH1 0x20 DUP3 ADD SWAP1 DUP2 MSTORE DUP2 DUP4 ADD SWAP1 SWAP3 MSTORE SWAP3 SWAP1 SWAP2 POP JUMP JUMPDEST PUSH1 0x0 DUP4 DUP2 MSTORE PUSH1 0x5 PUSH1 0x20 MSTORE PUSH1 0x40 SWAP1 KECCAK256 PUSH1 0x1 ADD SLOAD DUP1 PUSH1 0x1 PUSH1 0x1 PUSH1 0x40 SHL SUB DUP2 GT ISZERO PUSH2 0x4F1 JUMPI PUSH2 0x4F1 PUSH2 0x1CFC JUMP JUMPDEST PUSH1 0x40 MLOAD SWAP1 DUP1 DUP3 MSTORE DUP1 PUSH1 0x20 MUL PUSH1 0x20 ADD DUP3 ADD PUSH1 0x40 MSTORE DUP1 ISZERO PUSH2 0x51A JUMPI DUP2 PUSH1 0x20 ADD PUSH1 0x20 DUP3 MUL DUP1 CALLDATASIZE DUP4 CALLDATACOPY ADD SWAP1 POP JUMPDEST POP SWAP3 POP DUP1 PUSH1 0x1 PUSH1 0x1 PUSH1 0x40 SHL SUB DUP2 GT ISZERO PUSH2 0x535 JUMPI PUSH2 0x535 PUSH2 0x1CFC JUMP JUMPDEST PUSH1 0x40 MLOAD SWAP1 DUP1 DUP3 MSTORE DUP1 PUSH1 0x20 MUL PUSH1 0x20 ADD DUP3 ADD PUSH1 0x40 MSTORE DUP1 ISZERO PUSH2 0x55E JUMPI DUP2 PUSH1 0x20 ADD PUSH1 0x20 DUP3 MUL DUP1 CALLDATASIZE DUP4 CALLDATACOPY ADD SWAP1 POP JUMPDEST POP SWAP2 POP PUSH1 0x0 JUMPDEST DUP2 DUP2 LT ISZERO PUSH2 0x61D JUMPI PUSH1 0x0 DUP6 DUP2 MSTORE PUSH1 0x5 PUSH1 0x20 MSTORE PUSH1 0x40 DUP2 KECCAK256 PUSH1 0x1 ADD DUP1 SLOAD DUP4 SWAP1 DUP2 LT PUSH2 0x58F JUMPI PUSH2 0x58F PUSH2 0x1D12 JUMP JUMPDEST SWAP1 PUSH1 0x0 MSTORE PUSH1 0x20 PUSH1 0x0 KECCAK256 ADD PUSH1 0x0 SWAP1 SLOAD SWAP1 PUSH2 0x100 EXP SWAP1 DIV PUSH1 0x1 PUSH1 0x1 PUSH1 0xA0 SHL SUB AND SWAP1 POP DUP1 DUP6 DUP4 DUP2 MLOAD DUP2 LT PUSH2 0x5C2 JUMPI PUSH2 0x5C2 PUSH2 0x1D12 JUMP JUMPDEST PUSH1 0x1 PUSH1 0x1 PUSH1 0xA0 SHL SUB SWAP3 DUP4 AND PUSH1 0x20 SWAP2 DUP3 MUL SWAP3 SWAP1 SWAP3 ADD DUP2 ADD SWAP2 SWAP1 SWAP2 MSTORE PUSH1 0x0 DUP9 DUP2 MSTORE PUSH1 0x5 DUP3 MSTORE PUSH1 0x40 DUP1 DUP3 KECCAK256 SWAP4 DUP6 AND DUP3 MSTORE SWAP3 SWAP1 SWAP2 MSTORE KECCAK256 SLOAD DUP5 MLOAD DUP6 SWAP1 DUP5 SWAP1 DUP2 LT PUSH2 0x609 JUMPI PUSH2 0x609 PUSH2 0x1D12 JUMP JUMPDEST PUSH1 0x20 SWAP1 DUP2 MUL SWAP2 SWAP1 SWAP2 ADD ADD MSTORE POP PUSH1 0x1 ADD PUSH2 0x564 JUMP JUMPDEST POP POP SWAP2 POP SWAP2 JUMP JUMPDEST PUSH1 0x0 DUP2 DUP2 MSTORE PUSH1 0x5 PUSH1 0x20 MSTORE PUSH1 0x40 SWAP1 KECCAK256 PUSH1 0x2 ADD SLOAD PUSH1 0xFF AND ISZERO PUSH2 0x682 JUMPI PUSH1 0x40 MLOAD PUSH3 0x461BCD PUSH1 0xE5 SHL DUP2 MSTORE PUSH1 0x20 PUSH1 0x4 DUP3 ADD MSTORE PUSH1 0x19 PUSH1 0x24 DUP3 ADD MSTORE PUSH25 0x105CDCD95D08185B1C9958591E481A5B9A5D1A585B1A5E9959 PUSH1 0x3A SHL PUSH1 0x44 DUP3 ADD MSTORE PUSH1 0x64 ADD PUSH2 0x3E1 JUMP JUMPDEST PUSH1 0x1 SLOAD PUSH1 0x40 MLOAD PUSH4 0x686735C5 PUSH1 0xE0 SHL DUP2 MSTORE PUSH1 0x4 DUP2 ADD DUP4 SWAP1 MSTORE PUSH1 0x0 SWAP2 DUP3 SWAP2 PUSH1 0x1 PUSH1 0x1 PUSH1 0xA0 SHL SUB SWAP1 SWAP2 AND SWAP1 PUSH4 0x686735C5 SWAP1 PUSH1 0x24 ADD PUSH1 0x0 PUSH1 0x40 MLOAD DUP1 DUP4 SUB DUP2 DUP7 GAS STATICCALL ISZERO DUP1 ISZERO PUSH2 0x6D0 JUMPI RETURNDATASIZE PUSH1 0x0 DUP1 RETURNDATACOPY RETURNDATASIZE PUSH1 0x0 REVERT JUMPDEST POP POP POP POP PUSH1 0x40 MLOAD RETURNDATASIZE PUSH1 0x0 DUP3 RETURNDATACOPY PUSH1 0x1F RETURNDATASIZE SWAP1 DUP2 ADD PUSH1 0x1F NOT AND DUP3 ADD PUSH1 0x40 MSTORE PUSH2 0x6F8 SWAP2 SWAP1 DUP2 ADD SWAP1 PUSH2 0x1DE8 JUMP JUMPDEST SWAP2 POP SWAP2 POP PUSH1 0x0 JUMPDEST DUP3 MLOAD DUP2 LT ISZERO PUSH2 0x806 JUMPI PUSH1 0x0 DUP3 DUP3 DUP2 MLOAD DUP2 LT PUSH2 0x71C JUMPI PUSH2 0x71C PUSH2 0x1D12 JUMP JUMPDEST PUSH1 0x20 MUL PUSH1 0x20 ADD ADD MLOAD GT ISZERO PUSH2 0x7FE JUMPI DUP2 DUP2 DUP2 MLOAD DUP2 LT PUSH2 0x73C JUMPI PUSH2 0x73C PUSH2 0x1D12 JUMP JUMPDEST PUSH1 0x20 MUL PUSH1 0x20 ADD ADD MLOAD PUSH1 0x5 PUSH1 0x0 DUP7 DUP2 MSTORE PUSH1 0x20 ADD SWAP1 DUP2 MSTORE PUSH1 0x20 ADD PUSH1 0x0 KECCAK256 PUSH1 0x0 ADD PUSH1 0x0 DUP6 DUP5 DUP2 MLOAD DUP2 LT PUSH2 0x76E JUMPI PUSH2 0x76E PUSH2 0x1D12 JUMP JUMPDEST PUSH1 0x20 MUL PUSH1 0x20 ADD ADD MLOAD PUSH1 0x1 PUSH1 0x1 PUSH1 0xA0 SHL SUB AND PUSH1 0x1 PUSH1 0x1 PUSH1 0xA0 SHL SUB AND DUP2 MSTORE PUSH1 0x20 ADD SWAP1 DUP2 MSTORE PUSH1 0x20 ADD PUSH1 0x0 KECCAK256 DUP2 SWAP1 SSTORE POP PUSH1 0x5 PUSH1 0x0 DUP6 DUP2 MSTORE PUSH1 0x20 ADD SWAP1 DUP2 MSTORE PUSH1 0x20 ADD PUSH1 0x0 KECCAK256 PUSH1 0x1 ADD DUP4 DUP3 DUP2 MLOAD DUP2 LT PUSH2 0x7C2 JUMPI PUSH2 0x7C2 PUSH2 0x1D12 JUMP JUMPDEST PUSH1 0x20 SWAP1 DUP2 MUL SWAP2 SWAP1 SWAP2 ADD DUP2 ADD MLOAD DUP3 SLOAD PUSH1 0x1 DUP2 ADD DUP5 SSTORE PUSH1 0x0 SWAP4 DUP5 MSTORE SWAP2 SWAP1 SWAP3 KECCAK256 ADD DUP1 SLOAD PUSH1 0x1 PUSH1 0x1 PUSH1 0xA0 SHL SUB NOT AND PUSH1 0x1 PUSH1 0x1 PUSH1 0xA0 SHL SUB SWAP1 SWAP3 AND SWAP2 SWAP1 SWAP2 OR SWAP1 SSTORE JUMPDEST PUSH1 0x1 ADD PUSH2 0x6FF JUMP JUMPDEST POP POP POP PUSH1 0x0 SWAP1 DUP2 MSTORE PUSH1 0x5 PUSH1 0x20 MSTORE PUSH1 0x40 SWAP1 KECCAK256 PUSH1 0x2 ADD DUP1 SLOAD PUSH1 0xFF NOT AND PUSH1 0x1 OR SWAP1 SSTORE JUMP JUMPDEST PUSH1 0x60 DUP1 DUP1 DUP1 DUP1 PUSH1 0x0 PUSH1 0x1 JUMPDEST PUSH1 0x4 SLOAD DUP2 GT PUSH2 0x875 JUMPI PUSH1 0x0 DUP2 DUP2 MSTORE PUSH1 0x2 PUSH1 0x20 MSTORE PUSH1 0x40 SWAP1 KECCAK256 PUSH1 0x3 ADD SLOAD PUSH1 0xFF AND ISZERO PUSH2 0x863 JUMPI DUP2 PUSH2 0x85F DUP2 PUSH2 0x1EC9 JUMP JUMPDEST SWAP3 POP POP JUMPDEST DUP1 PUSH2 0x86D DUP2 PUSH2 0x1EC9 JUMP JUMPDEST SWAP2 POP POP PUSH2 0x832 JUMP JUMPDEST POP DUP1 PUSH1 0x1 PUSH1 0x1 PUSH1 0x40 SHL SUB DUP2 GT ISZERO PUSH2 0x88E JUMPI PUSH2 0x88E PUSH2 0x1CFC JUMP JUMPDEST PUSH1 0x40 MLOAD SWAP1 DUP1 DUP3 MSTORE DUP1 PUSH1 0x20 MUL PUSH1 0x20 ADD DUP3 ADD PUSH1 0x40 MSTORE DUP1 ISZERO PUSH2 0x8B7 JUMPI DUP2 PUSH1 0x20 ADD PUSH1 0x20 DUP3 MUL DUP1 CALLDATASIZE DUP4 CALLDATACOPY ADD SWAP1 POP JUMPDEST POP SWAP6 POP DUP1 PUSH1 0x1 PUSH1 0x1 PUSH1 0x40 SHL SUB DUP2 GT ISZERO PUSH2 0x8D2 JUMPI PUSH2 0x8D2 PUSH2 0x1CFC JUMP JUMPDEST PUSH1 0x40 MLOAD SWAP1 DUP1 DUP3 MSTORE DUP1 PUSH1 0x20 MUL PUSH1 0x20 ADD DUP3 ADD PUSH1 0x40 MSTORE DUP1 ISZERO PUSH2 0x8FB JUMPI DUP2 PUSH1 0x20 ADD PUSH1 0x20 DUP3 MUL DUP1 CALLDATASIZE DUP4 CALLDATACOPY ADD SWAP1 POP JUMPDEST POP SWAP5 POP DUP1 PUSH1 0x1 PUSH1 0x1 PUSH1 0x40 SHL SUB DUP2 GT ISZERO PUSH2 0x916 JUMPI PUSH2 0x916 PUSH2 0x1CFC JUMP JUMPDEST PUSH1 0x40 MLOAD SWAP1 DUP1 DUP3 MSTORE DUP1 PUSH1 0x20 MUL PUSH1 0x20 ADD DUP3 ADD PUSH1 0x40 MSTORE DUP1 ISZERO PUSH2 0x93F JUMPI DUP2 PUSH1 0x20 ADD PUSH1 0x20 DUP3 MUL DUP1 CALLDATASIZE DUP4 CALLDATACOPY ADD SWAP1 POP JUMPDEST POP SWAP4 POP DUP1 PUSH1 0x1 PUSH1 0x1 PUSH1 0x40 SHL SUB DUP2 GT ISZERO PUSH2 0x95A JUMPI PUSH2 0x95A PUSH2 0x1CFC JUMP JUMPDEST PUSH1 0x40 MLOAD SWAP1 DUP1 DUP3 MSTORE DUP1 PUSH1 0x20 MUL PUSH1 0x20 ADD DUP3 ADD PUSH1 0x40 MSTORE DUP1 ISZERO PUSH2 0x983 JUMPI DUP2 PUSH1 0x20 ADD PUSH1 0x20 DUP3 MUL DUP1 CALLDATASIZE DUP4 CALLDATACOPY ADD SWAP1 POP JUMPDEST POP SWAP3 POP PUSH1 0x0 PUSH1 0x1 JUMPDEST PUSH1 0x4 SLOAD DUP2 GT PUSH2 0xA9E JUMPI PUSH1 0x0 DUP2 DUP2 MSTORE PUSH1 0x2 PUSH1 0x20 MSTORE PUSH1 0x40 SWAP1 KECCAK256 PUSH1 0x3 ADD SLOAD PUSH1 0xFF AND ISZERO PUSH2 0xA8C JUMPI DUP1 DUP9 DUP4 DUP2 MLOAD DUP2 LT PUSH2 0x9C1 JUMPI PUSH2 0x9C1 PUSH2 0x1D12 JUMP JUMPDEST PUSH1 0x20 MUL PUSH1 0x20 ADD ADD DUP2 DUP2 MSTORE POP POP PUSH1 0x2 PUSH1 0x0 DUP3 DUP2 MSTORE PUSH1 0x20 ADD SWAP1 DUP2 MSTORE PUSH1 0x20 ADD PUSH1 0x0 KECCAK256 PUSH1 0x0 ADD SLOAD DUP8 DUP4 DUP2 MLOAD DUP2 LT PUSH2 0x9F6 JUMPI PUSH2 0x9F6 PUSH2 0x1D12 JUMP JUMPDEST PUSH1 0x20 SWAP1 DUP2 MUL SWAP2 SWAP1 SWAP2 ADD DUP2 ADD SWAP2 SWAP1 SWAP2 MSTORE PUSH1 0x0 DUP3 DUP2 MSTORE PUSH1 0x2 SWAP1 SWAP2 MSTORE PUSH1 0x40 SWAP1 KECCAK256 PUSH1 0x1 ADD SLOAD DUP7 MLOAD PUSH1 0x1 PUSH1 0x1 PUSH1 0xA0 SHL SUB SWAP1 SWAP2 AND SWAP1 DUP8 SWAP1 DUP5 SWAP1 DUP2 LT PUSH2 0xA37 JUMPI PUSH2 0xA37 PUSH2 0x1D12 JUMP JUMPDEST PUSH1 0x1 PUSH1 0x1 PUSH1 0xA0 SHL SUB SWAP1 SWAP3 AND PUSH1 0x20 SWAP3 DUP4 MUL SWAP2 SWAP1 SWAP2 ADD DUP3 ADD MSTORE PUSH1 0x0 DUP3 DUP2 MSTORE PUSH1 0x2 SWAP2 DUP3 SWAP1 MSTORE PUSH1 0x40 SWAP1 KECCAK256 ADD SLOAD DUP6 MLOAD DUP7 SWAP1 DUP5 SWAP1 DUP2 LT PUSH2 0xA73 JUMPI PUSH2 0xA73 PUSH2 0x1D12 JUMP JUMPDEST PUSH1 0x20 SWAP1 DUP2 MUL SWAP2 SWAP1 SWAP2 ADD ADD MSTORE DUP2 PUSH2 0xA88 DUP2 PUSH2 0x1EC9 JUMP JUMPDEST SWAP3 POP POP JUMPDEST DUP1 PUSH2 0xA96 DUP2 PUSH2 0x1EC9 JUMP JUMPDEST SWAP2 POP POP PUSH2 0x98B JUMP JUMPDEST POP POP POP SWAP1 SWAP2 SWAP3 SWAP4 SWAP5 JUMP JUMPDEST PUSH1 0x0 DUP2 DUP2 MSTORE PUSH1 0x3 PUSH1 0x20 MSTORE PUSH1 0x40 DUP2 KECCAK256 PUSH1 0x60 SWAP2 DUP3 SWAP2 SWAP1 DUP1 JUMPDEST DUP3 SLOAD DUP2 LT ISZERO PUSH2 0xB0B JUMPI DUP3 DUP2 DUP2 SLOAD DUP2 LT PUSH2 0xAD9 JUMPI PUSH2 0xAD9 PUSH2 0x1D12 JUMP JUMPDEST PUSH1 0x0 SWAP2 DUP3 MSTORE PUSH1 0x20 SWAP1 SWAP2 KECCAK256 PUSH1 0x2 PUSH1 0x3 SWAP1 SWAP3 MUL ADD ADD SLOAD PUSH1 0xFF AND ISZERO PUSH2 0xB03 JUMPI DUP2 PUSH2 0xAFF DUP2 PUSH2 0x1EC9 JUMP JUMPDEST SWAP3 POP POP JUMPDEST PUSH1 0x1 ADD PUSH2 0xABE JUMP JUMPDEST POP DUP1 PUSH1 0x1 PUSH1 0x1 PUSH1 0x40 SHL SUB DUP2 GT ISZERO PUSH2 0xB24 JUMPI PUSH2 0xB24 PUSH2 0x1CFC JUMP JUMPDEST PUSH1 0x40 MLOAD SWAP1 DUP1 DUP3 MSTORE DUP1 PUSH1 0x20 MUL PUSH1 0x20 ADD DUP3 ADD PUSH1 0x40 MSTORE DUP1 ISZERO PUSH2 0xB4D JUMPI DUP2 PUSH1 0x20 ADD PUSH1 0x20 DUP3 MUL DUP1 CALLDATASIZE DUP4 CALLDATACOPY ADD SWAP1 POP JUMPDEST POP SWAP4 POP DUP1 PUSH1 0x1 PUSH1 0x1 PUSH1 0x40 SHL SUB DUP2 GT ISZERO PUSH2 0xB68 JUMPI PUSH2 0xB68 PUSH2 0x1CFC JUMP JUMPDEST PUSH1 0x40 MLOAD SWAP1 DUP1 DUP3 MSTORE DUP1 PUSH1 0x20 MUL PUSH1 0x20 ADD DUP3 ADD PUSH1 0x40 MSTORE DUP1 ISZERO PUSH2 0xB91 JUMPI DUP2 PUSH1 0x20 ADD PUSH1 0x20 DUP3 MUL DUP1 CALLDATASIZE DUP4 CALLDATACOPY ADD SWAP1 POP JUMPDEST POP SWAP3 POP PUSH1 0x0 DUP1 JUMPDEST DUP4 SLOAD DUP2 LT ISZERO PUSH2 0xC89 JUMPI DUP4 DUP2 DUP2 SLOAD DUP2 LT PUSH2 0xBB3 JUMPI PUSH2 0xBB3 PUSH2 0x1D12 JUMP JUMPDEST PUSH1 0x0 SWAP2 DUP3 MSTORE PUSH1 0x20 SWAP1 SWAP2 KECCAK256 PUSH1 0x2 PUSH1 0x3 SWAP1 SWAP3 MUL ADD ADD SLOAD PUSH1 0xFF AND ISZERO PUSH2 0xC81 JUMPI DUP4 DUP2 DUP2 SLOAD DUP2 LT PUSH2 0xBE1 JUMPI PUSH2 0xBE1 PUSH2 0x1D12 JUMP JUMPDEST PUSH1 0x0 SWAP2 DUP3 MSTORE PUSH1 0x20 SWAP1 SWAP2 KECCAK256 PUSH1 0x3 SWAP1 SWAP2 MUL ADD SLOAD DUP7 MLOAD PUSH1 0x1 PUSH1 0x1 PUSH1 0xA0 SHL SUB SWAP1 SWAP2 AND SWAP1 DUP8 SWAP1 DUP5 SWAP1 DUP2 LT PUSH2 0xC12 JUMPI PUSH2 0xC12 PUSH2 0x1D12 JUMP JUMPDEST PUSH1 0x20 MUL PUSH1 0x20 ADD ADD SWAP1 PUSH1 0x1 PUSH1 0x1 PUSH1 0xA0 SHL SUB AND SWAP1 DUP2 PUSH1 0x1 PUSH1 0x1 PUSH1 0xA0 SHL SUB AND DUP2 MSTORE POP POP DUP4 DUP2 DUP2 SLOAD DUP2 LT PUSH2 0xC44 JUMPI PUSH2 0xC44 PUSH2 0x1D12 JUMP JUMPDEST SWAP1 PUSH1 0x0 MSTORE PUSH1 0x20 PUSH1 0x0 KECCAK256 SWAP1 PUSH1 0x3 MUL ADD PUSH1 0x1 ADD SLOAD DUP6 DUP4 DUP2 MLOAD DUP2 LT PUSH2 0xC68 JUMPI PUSH2 0xC68 PUSH2 0x1D12 JUMP JUMPDEST PUSH1 0x20 SWAP1 DUP2 MUL SWAP2 SWAP1 SWAP2 ADD ADD MSTORE DUP2 PUSH2 0xC7D DUP2 PUSH2 0x1EC9 JUMP JUMPDEST SWAP3 POP POP JUMPDEST PUSH1 0x1 ADD PUSH2 0xB98 JUMP JUMPDEST POP POP POP POP SWAP2 POP SWAP2 JUMP JUMPDEST PUSH2 0xC9A PUSH2 0x1481 JUMP JUMPDEST PUSH1 0x0 DUP2 DUP2 MSTORE PUSH1 0x2 PUSH1 0x20 MSTORE PUSH1 0x40 SWAP1 KECCAK256 PUSH1 0x3 DUP2 ADD SLOAD PUSH1 0xFF AND PUSH2 0xCCC JUMPI PUSH1 0x40 MLOAD PUSH3 0x461BCD PUSH1 0xE5 SHL DUP2 MSTORE PUSH1 0x4 ADD PUSH2 0x3E1 SWAP1 PUSH2 0x1C9D JUMP JUMPDEST PUSH1 0x3 DUP2 ADD SLOAD PUSH2 0x100 SWAP1 DIV PUSH1 0xFF AND ISZERO PUSH2 0xCF6 JUMPI PUSH1 0x40 MLOAD PUSH3 0x461BCD PUSH1 0xE5 SHL DUP2 MSTORE PUSH1 0x4 ADD PUSH2 0x3E1 SWAP1 PUSH2 0x1CC9 JUMP JUMPDEST PUSH1 0x1 DUP2 ADD SLOAD PUSH1 0x1 PUSH1 0x1 PUSH1 0xA0 SHL SUB AND CALLER SUB PUSH2 0xD52 JUMPI PUSH1 0x40 MLOAD PUSH3 0x461BCD PUSH1 0xE5 SHL DUP2 MSTORE PUSH1 0x20 PUSH1 0x4 DUP3 ADD DUP2 SWAP1 MSTORE PUSH1 0x24 DUP3 ADD MSTORE PUSH32 0x53656C6C65722063616E6E6F7420626964206F6E206F776E206C697374696E67 PUSH1 0x44 DUP3 ADD MSTORE PUSH1 0x64 ADD PUSH2 0x3E1 JUMP JUMPDEST DUP1 PUSH1 0x2 ADD SLOAD CALLVALUE LT ISZERO PUSH2 0xDA0 JUMPI PUSH1 0x40 MLOAD PUSH3 0x461BCD PUSH1 0xE5 SHL DUP2 MSTORE PUSH1 0x20 PUSH1 0x4 DUP3 ADD MSTORE PUSH1 0x17 PUSH1 0x24 DUP3 ADD MSTORE PUSH23 0x4269642062656C6F77206D696E696D756D207072696365 PUSH1 0x48 SHL PUSH1 0x44 DUP3 ADD MSTORE PUSH1 0x64 ADD PUSH2 0x3E1 JUMP JUMPDEST PUSH1 0x0 DUP3 DUP2 MSTORE PUSH1 0x3 PUSH1 0x20 DUP2 DUP2 MSTORE PUSH1 0x40 DUP1 DUP5 KECCAK256 DUP2 MLOAD PUSH1 0x60 DUP2 ADD DUP4 MSTORE CALLER DUP1 DUP3 MSTORE CALLVALUE DUP3 DUP7 ADD DUP2 DUP2 MSTORE PUSH1 0x1 DUP5 DUP8 ADD DUP2 DUP2 MSTORE DUP7 SLOAD DUP1 DUP4 ADD DUP9 SSTORE SWAP7 DUP12 MSTORE SWAP10 DUP9 SWAP1 KECCAK256 SWAP5 MLOAD SWAP6 SWAP1 SWAP9 MUL SWAP1 SWAP4 ADD DUP1 SLOAD PUSH1 0x1 PUSH1 0x1 PUSH1 0xA0 SHL SUB NOT AND PUSH1 0x1 PUSH1 0x1 PUSH1 0xA0 SHL SUB SWAP1 SWAP6 AND SWAP5 SWAP1 SWAP5 OR DUP5 SSTORE SWAP2 MLOAD SWAP6 DUP4 ADD SWAP6 SWAP1 SWAP6 SSTORE SWAP5 MLOAD PUSH1 0x2 SWAP1 SWAP2 ADD DUP1 SLOAD PUSH1 0xFF NOT AND SWAP2 ISZERO ISZERO SWAP2 SWAP1 SWAP2 OR SWAP1 SSTORE MLOAD SWAP3 DUP4 MSTORE SWAP1 SWAP2 DUP5 SWAP2 PUSH32 0xE54EFF26401BF69B81B26F60BD85EF47F5D85275C1D268D84F68D6897431C47 SWAP2 ADD PUSH1 0x40 MLOAD DUP1 SWAP2 SUB SWAP1 LOG3 POP PUSH2 0x488 PUSH1 0x1 PUSH1 0x0 SSTORE JUMP JUMPDEST PUSH1 0x3 PUSH1 0x20 MSTORE DUP2 PUSH1 0x0 MSTORE PUSH1 0x40 PUSH1 0x0 KECCAK256 DUP2 DUP2 SLOAD DUP2 LT PUSH2 0xE79 JUMPI PUSH1 0x0 DUP1 REVERT JUMPDEST PUSH1 0x0 SWAP2 DUP3 MSTORE PUSH1 0x20 SWAP1 SWAP2 KECCAK256 PUSH1 0x3 SWAP1 SWAP2 MUL ADD DUP1 SLOAD PUSH1 0x1 DUP3 ADD SLOAD PUSH1 0x2 SWAP1 SWAP3 ADD SLOAD PUSH1 0x1 PUSH1 0x1 PUSH1 0xA0 SHL SUB SWAP1 SWAP2 AND SWAP4 POP SWAP1 SWAP2 POP PUSH1 0xFF AND DUP4 JUMP JUMPDEST PUSH2 0xEB4 PUSH2 0x1481 JUMP JUMPDEST PUSH1 0x0 DUP2 DUP2 MSTORE PUSH1 0x2 PUSH1 0x20 MSTORE PUSH1 0x40 SWAP1 KECCAK256 PUSH1 0x3 DUP2 ADD SLOAD PUSH1 0xFF AND PUSH2 0xEE6 JUMPI PUSH1 0x40 MLOAD PUSH3 0x461BCD PUSH1 0xE5 SHL DUP2 MSTORE PUSH1 0x4 ADD PUSH2 0x3E1 SWAP1 PUSH2 0x1C9D JUMP JUMPDEST PUSH1 0x3 DUP2 ADD SLOAD PUSH2 0x100 SWAP1 DIV PUSH1 0xFF AND ISZERO PUSH2 0xF10 JUMPI PUSH1 0x40 MLOAD PUSH3 0x461BCD PUSH1 0xE5 SHL DUP2 MSTORE PUSH1 0x4 ADD PUSH2 0x3E1 SWAP1 PUSH2 0x1CC9 JUMP JUMPDEST PUSH1 0x1 DUP2 ADD SLOAD PUSH1 0x1 PUSH1 0x1 PUSH1 0xA0 SHL SUB AND CALLER EQ PUSH2 0xF61 JUMPI PUSH1 0x40 MLOAD PUSH3 0x461BCD PUSH1 0xE5 SHL DUP2 MSTORE PUSH1 0x20 PUSH1 0x4 DUP3 ADD MSTORE PUSH1 0x12 PUSH1 0x24 DUP3 ADD MSTORE PUSH18 0x596F752063616E6E6F742065786563757465 PUSH1 0x70 SHL PUSH1 0x44 DUP3 ADD MSTORE PUSH1 0x64 ADD PUSH2 0x3E1 JUMP JUMPDEST PUSH1 0x3 DUP2 ADD DUP1 SLOAD PUSH2 0xFFFF NOT AND PUSH2 0x100 OR SWAP1 SSTORE PUSH1 0x0 DUP1 DUP1 DUP1 DUP1 JUMPDEST PUSH1 0x0 DUP8 DUP2 MSTORE PUSH1 0x3 PUSH1 0x20 MSTORE PUSH1 0x40 SWAP1 KECCAK256 SLOAD DUP2 LT ISZERO PUSH2 0x1006 JUMPI PUSH1 0x0 DUP8 DUP2 MSTORE PUSH1 0x3 PUSH1 0x20 MSTORE PUSH1 0x40 DUP2 KECCAK256 DUP1 SLOAD DUP4 SWAP1 DUP2 LT PUSH2 0xFAF JUMPI PUSH2 0xFAF PUSH2 0x1D12 JUMP JUMPDEST PUSH1 0x0 SWAP2 DUP3 MSTORE PUSH1 0x20 SWAP1 SWAP2 KECCAK256 PUSH1 0x3 SWAP1 SWAP2 MUL ADD PUSH1 0x2 DUP2 ADD SLOAD SWAP1 SWAP2 POP PUSH1 0xFF AND DUP1 ISZERO PUSH2 0xFD9 JUMPI POP DUP6 DUP2 PUSH1 0x1 ADD SLOAD GT JUMPDEST ISZERO PUSH2 0xFFD JUMPI PUSH1 0x1 DUP1 DUP3 ADD SLOAD DUP3 SLOAD SWAP1 SWAP8 POP PUSH1 0x1 PUSH1 0x1 PUSH1 0xA0 SHL SUB AND SWAP6 POP SWAP2 SWAP4 POP SWAP1 SWAP2 POP DUP3 SWAP1 JUMPDEST POP PUSH1 0x1 ADD PUSH2 0xF79 JUMP JUMPDEST POP DUP1 DUP1 ISZERO PUSH2 0x1018 JUMPI POP DUP5 PUSH1 0x2 ADD SLOAD DUP5 LT ISZERO JUMPDEST ISZERO PUSH2 0x1102 JUMPI PUSH1 0x0 DUP7 DUP2 MSTORE PUSH1 0x3 PUSH1 0x20 MSTORE PUSH1 0x40 DUP2 KECCAK256 DUP1 SLOAD DUP5 SWAP1 DUP2 LT PUSH2 0x103D JUMPI PUSH2 0x103D PUSH2 0x1D12 JUMP JUMPDEST PUSH1 0x0 SWAP2 DUP3 MSTORE PUSH1 0x20 DUP3 KECCAK256 PUSH1 0x3 SWAP2 SWAP1 SWAP2 MUL ADD PUSH1 0x2 ADD DUP1 SLOAD PUSH1 0xFF NOT AND SWAP3 ISZERO ISZERO SWAP3 SWAP1 SWAP3 OR SWAP1 SWAP2 SSTORE PUSH1 0x1 DUP7 ADD SLOAD PUSH1 0x40 MLOAD PUSH1 0x1 PUSH1 0x1 PUSH1 0xA0 SHL SUB SWAP1 SWAP2 AND SWAP2 PUSH2 0x8FC DUP8 ISZERO MUL SWAP2 DUP8 SWAP2 DUP2 DUP2 DUP2 DUP6 DUP9 DUP9 CALL SWAP4 POP POP POP POP ISZERO DUP1 ISZERO PUSH2 0x109A JUMPI RETURNDATASIZE PUSH1 0x0 DUP1 RETURNDATACOPY RETURNDATASIZE PUSH1 0x0 REVERT JUMPDEST POP DUP5 SLOAD PUSH1 0x1 DUP7 ADD SLOAD PUSH2 0x10B6 SWAP2 SWAP1 PUSH1 0x1 PUSH1 0x1 PUSH1 0xA0 SHL SUB AND DUP6 PUSH2 0x166E JUMP JUMPDEST DUP6 PUSH32 0xA61F9B5A0A92578EA5CD1DBC470C2F232A62ECFDABB857DB6CA084EE2B5AC335 PUSH1 0x1 DUP6 DUP8 PUSH1 0x40 MLOAD PUSH2 0x10EB SWAP4 SWAP3 SWAP2 SWAP1 PUSH2 0x1EE2 JUMP JUMPDEST PUSH1 0x40 MLOAD DUP1 SWAP2 SUB SWAP1 LOG2 PUSH2 0x10FD DUP7 DUP4 PUSH2 0x1924 JUMP JUMPDEST PUSH2 0x114A JUMP JUMPDEST PUSH2 0x110B DUP7 PUSH2 0x14DA JUMP JUMPDEST DUP6 PUSH32 0xA61F9B5A0A92578EA5CD1DBC470C2F232A62ECFDABB857DB6CA084EE2B5AC335 PUSH1 0x0 DUP1 PUSH1 0x0 PUSH1 0x40 MLOAD PUSH2 0x1141 SWAP4 SWAP3 SWAP2 SWAP1 PUSH2 0x1EE2 JUMP JUMPDEST PUSH1 0x40 MLOAD DUP1 SWAP2 SUB SWAP1 LOG2 JUMPDEST POP POP POP POP POP PUSH2 0x488 PUSH1 0x1 PUSH1 0x0 SSTORE JUMP JUMPDEST PUSH2 0x1161 PUSH2 0x1481 JUMP JUMPDEST PUSH1 0x0 DUP3 GT PUSH2 0x11B1 JUMPI PUSH1 0x40 MLOAD PUSH3 0x461BCD PUSH1 0xE5 SHL DUP2 MSTORE PUSH1 0x20 PUSH1 0x4 DUP3 ADD MSTORE PUSH1 0x1E PUSH1 0x24 DUP3 ADD MSTORE PUSH32 0x4D696E696D756D207072696365206D75737420626520706F7369746976650000 PUSH1 0x44 DUP3 ADD MSTORE PUSH1 0x64 ADD PUSH2 0x3E1 JUMP JUMPDEST PUSH1 0x0 DUP4 DUP2 MSTORE PUSH1 0x5 PUSH1 0x20 MSTORE PUSH1 0x40 SWAP1 KECCAK256 PUSH1 0x2 ADD SLOAD PUSH1 0xFF AND PUSH2 0x11D3 JUMPI PUSH2 0x11D3 DUP4 PUSH2 0x624 JUMP JUMPDEST PUSH1 0x0 DUP4 DUP2 MSTORE PUSH1 0x5 PUSH1 0x20 SWAP1 DUP2 MSTORE PUSH1 0x40 DUP1 DUP4 KECCAK256 CALLER DUP5 MSTORE SWAP1 SWAP2 MSTORE SWAP1 KECCAK256 SLOAD PUSH1 0x1 GT ISZERO PUSH2 0x1247 JUMPI PUSH1 0x40 MLOAD PUSH3 0x461BCD PUSH1 0xE5 SHL DUP2 MSTORE PUSH1 0x20 PUSH1 0x4 DUP3 ADD MSTORE PUSH1 0x21 PUSH1 0x24 DUP3 ADD MSTORE PUSH32 0x4D757374206F776E206174206C65617374203120736861726520746F2073656C PUSH1 0x44 DUP3 ADD MSTORE PUSH1 0x1B PUSH1 0xFA SHL PUSH1 0x64 DUP3 ADD MSTORE PUSH1 0x84 ADD PUSH2 0x3E1 JUMP JUMPDEST PUSH1 0x4 DUP1 SLOAD SWAP1 PUSH1 0x0 PUSH2 0x1257 DUP4 PUSH2 0x1EC9 JUMP JUMPDEST SWAP1 SWAP2 SSTORE POP POP PUSH1 0x40 DUP1 MLOAD PUSH1 0xA0 DUP2 ADD DUP3 MSTORE DUP5 DUP2 MSTORE CALLER PUSH1 0x20 DUP1 DUP4 ADD DUP3 DUP2 MSTORE DUP4 DUP6 ADD DUP8 DUP2 MSTORE PUSH1 0x1 PUSH1 0x60 DUP7 ADD DUP2 DUP2 MSTORE PUSH1 0x0 PUSH1 0x80 DUP9 ADD DUP2 DUP2 MSTORE PUSH1 0x4 DUP1 SLOAD DUP4 MSTORE PUSH1 0x2 SWAP8 DUP9 SWAP1 MSTORE SWAP10 SWAP1 SWAP2 KECCAK256 SWAP8 MLOAD DUP9 SSTORE SWAP4 MLOAD SWAP2 DUP8 ADD DUP1 SLOAD PUSH1 0x1 PUSH1 0x1 PUSH1 0xA0 SHL SUB NOT AND PUSH1 0x1 PUSH1 0x1 PUSH1 0xA0 SHL SUB SWAP1 SWAP4 AND SWAP3 SWAP1 SWAP3 OR SWAP1 SWAP2 SSTORE SWAP1 MLOAD SWAP3 DUP6 ADD SWAP3 SWAP1 SWAP3 SSTORE SWAP1 MLOAD PUSH1 0x3 SWAP1 SWAP4 ADD DUP1 SLOAD SWAP2 MLOAD PUSH2 0xFFFF NOT SWAP1 SWAP3 AND SWAP4 ISZERO ISZERO PUSH2 0xFF00 NOT AND SWAP4 SWAP1 SWAP4 OR PUSH2 0x100 SWAP2 ISZERO ISZERO SWAP2 SWAP1 SWAP2 MUL OR SWAP1 SWAP2 SSTORE SWAP1 SLOAD DUP5 SWAP1 PUSH32 0x492D2294F1B8A982001DA6ECB3DE3A374AD9C29C9C8D5AD43DA90CC50B585136 DUP6 PUSH2 0x1326 DUP7 TIMESTAMP PUSH2 0x1F03 JUMP JUMPDEST PUSH1 0x40 DUP1 MLOAD SWAP3 DUP4 MSTORE PUSH1 0x20 DUP4 ADD SWAP2 SWAP1 SWAP2 MSTORE ADD PUSH1 0x40 MLOAD DUP1 SWAP2 SUB SWAP1 LOG4 PUSH2 0x1348 PUSH1 0x1 PUSH1 0x0 SSTORE JUMP JUMPDEST POP POP POP JUMP JUMPDEST PUSH1 0x0 DUP3 DUP2 MSTORE PUSH1 0x5 PUSH1 0x20 MSTORE PUSH1 0x40 DUP2 KECCAK256 PUSH1 0x2 ADD SLOAD PUSH1 0xFF AND PUSH2 0x1456 JUMPI PUSH1 0x1 SLOAD PUSH1 0x40 MLOAD PUSH4 0x686735C5 PUSH1 0xE0 SHL DUP2 MSTORE PUSH1 0x4 DUP2 ADD DUP6 SWAP1 MSTORE PUSH1 0x0 SWAP2 DUP3 SWAP2 PUSH1 0x1 PUSH1 0x1 PUSH1 0xA0 SHL SUB SWAP1 SWAP2 AND SWAP1 PUSH4 0x686735C5 SWAP1 PUSH1 0x24 ADD PUSH1 0x0 PUSH1 0x40 MLOAD DUP1 DUP4 SUB DUP2 DUP7 GAS STATICCALL ISZERO DUP1 ISZERO PUSH2 0x13B4 JUMPI RETURNDATASIZE PUSH1 0x0 DUP1 RETURNDATACOPY RETURNDATASIZE PUSH1 0x0 REVERT JUMPDEST POP POP POP POP PUSH1 0x40 MLOAD RETURNDATASIZE PUSH1 0x0 DUP3 RETURNDATACOPY PUSH1 0x1F RETURNDATASIZE SWAP1 DUP2 ADD PUSH1 0x1F NOT AND DUP3 ADD PUSH1 0x40 MSTORE PUSH2 0x13DC SWAP2 SWAP1 DUP2 ADD SWAP1 PUSH2 0x1DE8 JUMP JUMPDEST SWAP2 POP SWAP2 POP PUSH1 0x0 JUMPDEST DUP3 MLOAD DUP2 LT ISZERO PUSH2 0x144A JUMPI DUP5 PUSH1 0x1 PUSH1 0x1 PUSH1 0xA0 SHL SUB AND DUP4 DUP3 DUP2 MLOAD DUP2 LT PUSH2 0x1408 JUMPI PUSH2 0x1408 PUSH2 0x1D12 JUMP JUMPDEST PUSH1 0x20 MUL PUSH1 0x20 ADD ADD MLOAD PUSH1 0x1 PUSH1 0x1 PUSH1 0xA0 SHL SUB AND SUB PUSH2 0x1442 JUMPI DUP2 DUP2 DUP2 MLOAD DUP2 LT PUSH2 0x1430 JUMPI PUSH2 0x1430 PUSH2 0x1D12 JUMP JUMPDEST PUSH1 0x20 MUL PUSH1 0x20 ADD ADD MLOAD SWAP4 POP POP POP POP PUSH2 0x147B JUMP JUMPDEST PUSH1 0x1 ADD PUSH2 0x13E3 JUMP JUMPDEST POP PUSH1 0x0 SWAP3 POP POP POP PUSH2 0x147B JUMP JUMPDEST POP PUSH1 0x0 DUP3 DUP2 MSTORE PUSH1 0x5 PUSH1 0x20 SWAP1 DUP2 MSTORE PUSH1 0x40 DUP1 DUP4 KECCAK256 PUSH1 0x1 PUSH1 0x1 PUSH1 0xA0 SHL SUB DUP6 AND DUP5 MSTORE SWAP1 SWAP2 MSTORE SWAP1 KECCAK256 SLOAD JUMPDEST SWAP3 SWAP2 POP POP JUMP JUMPDEST PUSH1 0x2 PUSH1 0x0 SLOAD SUB PUSH2 0x14D3 JUMPI PUSH1 0x40 MLOAD PUSH3 0x461BCD PUSH1 0xE5 SHL DUP2 MSTORE PUSH1 0x20 PUSH1 0x4 DUP3 ADD MSTORE PUSH1 0x1F PUSH1 0x24 DUP3 ADD MSTORE PUSH32 0x5265656E7472616E637947756172643A207265656E7472616E742063616C6C00 PUSH1 0x44 DUP3 ADD MSTORE PUSH1 0x64 ADD PUSH2 0x3E1 JUMP JUMPDEST PUSH1 0x2 PUSH1 0x0 SSTORE JUMP JUMPDEST PUSH1 0x0 JUMPDEST PUSH1 0x0 DUP3 DUP2 MSTORE PUSH1 0x3 PUSH1 0x20 MSTORE PUSH1 0x40 SWAP1 KECCAK256 SLOAD DUP2 LT ISZERO PUSH2 0x166A JUMPI PUSH1 0x0 DUP3 DUP2 MSTORE PUSH1 0x3 PUSH1 0x20 MSTORE PUSH1 0x40 SWAP1 KECCAK256 DUP1 SLOAD DUP3 SWAP1 DUP2 LT PUSH2 0x1513 JUMPI PUSH2 0x1513 PUSH2 0x1D12 JUMP JUMPDEST PUSH1 0x0 SWAP2 DUP3 MSTORE PUSH1 0x20 SWAP1 SWAP2 KECCAK256 PUSH1 0x2 PUSH1 0x3 SWAP1 SWAP3 MUL ADD ADD SLOAD PUSH1 0xFF AND ISZERO PUSH2 0x1662 JUMPI PUSH1 0x0 DUP3 DUP2 MSTORE PUSH1 0x3 PUSH1 0x20 MSTORE PUSH1 0x40 DUP2 KECCAK256 DUP1 SLOAD DUP4 SWAP1 DUP2 LT PUSH2 0x154F JUMPI PUSH2 0x154F PUSH2 0x1D12 JUMP JUMPDEST PUSH1 0x0 SWAP2 DUP3 MSTORE PUSH1 0x20 DUP1 DUP4 KECCAK256 PUSH1 0x3 SWAP3 DUP4 MUL ADD SLOAD DUP7 DUP5 MSTORE SWAP2 SWAP1 MSTORE PUSH1 0x40 DUP3 KECCAK256 DUP1 SLOAD PUSH1 0x1 PUSH1 0x1 PUSH1 0xA0 SHL SUB SWAP1 SWAP3 AND SWAP4 POP SWAP1 DUP5 SWAP1 DUP2 LT PUSH2 0x158A JUMPI PUSH2 0x158A PUSH2 0x1D12 JUMP JUMPDEST SWAP1 PUSH1 0x0 MSTORE PUSH1 0x20 PUSH1 0x0 KECCAK256 SWAP1 PUSH1 0x3 MUL ADD PUSH1 0x1 ADD SLOAD SWAP1 POP PUSH1 0x0 PUSH1 0x3 PUSH1 0x0 DUP7 DUP2 MSTORE PUSH1 0x20 ADD SWAP1 DUP2 MSTORE PUSH1 0x20 ADD PUSH1 0x0 KECCAK256 DUP5 DUP2 SLOAD DUP2 LT PUSH2 0x15C4 JUMPI PUSH2 0x15C4 PUSH2 0x1D12 JUMP JUMPDEST PUSH1 0x0 SWAP2 DUP3 MSTORE PUSH1 0x20 DUP3 KECCAK256 PUSH1 0x3 SWAP2 SWAP1 SWAP2 MUL ADD PUSH1 0x2 ADD DUP1 SLOAD PUSH1 0xFF NOT AND SWAP3 ISZERO ISZERO SWAP3 SWAP1 SWAP3 OR SWAP1 SWAP2 SSTORE PUSH1 0x40 MLOAD PUSH1 0x1 PUSH1 0x1 PUSH1 0xA0 SHL SUB DUP5 AND SWAP2 PUSH2 0x8FC DUP5 ISZERO MUL SWAP2 DUP5 SWAP2 DUP2 DUP2 DUP2 DUP6 DUP9 DUP9 CALL SWAP4 POP POP POP POP ISZERO DUP1 ISZERO PUSH2 0x161B JUMPI RETURNDATASIZE PUSH1 0x0 DUP1 RETURNDATACOPY RETURNDATASIZE PUSH1 0x0 REVERT JUMPDEST POP DUP2 PUSH1 0x1 PUSH1 0x1 PUSH1 0xA0 SHL SUB AND PUSH32 0xA171B6942063C6F2800CE40A780EDCE37BAA2B618571B11EEDD1E69E626E7D76 DUP3 PUSH1 0x40 MLOAD PUSH2 0x1657 SWAP2 DUP2 MSTORE PUSH1 0x20 ADD SWAP1 JUMP JUMPDEST PUSH1 0x40 MLOAD DUP1 SWAP2 SUB SWAP1 LOG2 POP POP JUMPDEST PUSH1 0x1 ADD PUSH2 0x14DD JUMP JUMPDEST POP POP JUMP JUMPDEST PUSH1 0x0 DUP4 DUP2 MSTORE PUSH1 0x5 PUSH1 0x20 MSTORE PUSH1 0x40 SWAP1 KECCAK256 PUSH1 0x2 ADD SLOAD PUSH1 0xFF AND PUSH2 0x1690 JUMPI PUSH2 0x1690 DUP4 PUSH2 0x624 JUMP JUMPDEST PUSH1 0x0 DUP4 DUP2 MSTORE PUSH1 0x5 PUSH1 0x20 SWAP1 DUP2 MSTORE PUSH1 0x40 DUP1 DUP4 KECCAK256 PUSH1 0x1 PUSH1 0x1 PUSH1 0xA0 SHL SUB DUP7 AND DUP5 MSTORE SWAP1 SWAP2 MSTORE SWAP1 KECCAK256 SLOAD PUSH2 0x16BE SWAP1 PUSH1 0x1 PUSH2 0x1AC0 JUMP JUMPDEST PUSH1 0x0 DUP5 DUP2 MSTORE PUSH1 0x5 PUSH1 0x20 SWAP1 DUP2 MSTORE PUSH1 0x40 DUP1 DUP4 KECCAK256 PUSH1 0x1 PUSH1 0x1 PUSH1 0xA0 SHL SUB DUP8 DUP2 AND DUP6 MSTORE SWAP3 MSTORE DUP1 DUP4 KECCAK256 SWAP4 SWAP1 SWAP4 SSTORE DUP4 AND DUP2 MSTORE SWAP1 DUP2 KECCAK256 SLOAD SWAP1 SUB PUSH2 0x172E JUMPI PUSH1 0x0 DUP4 DUP2 MSTORE PUSH1 0x5 PUSH1 0x20 SWAP1 DUP2 MSTORE PUSH1 0x40 DUP3 KECCAK256 PUSH1 0x1 SWAP1 DUP2 ADD DUP1 SLOAD SWAP2 DUP3 ADD DUP2 SSTORE DUP4 MSTORE SWAP2 KECCAK256 ADD DUP1 SLOAD PUSH1 0x1 PUSH1 0x1 PUSH1 0xA0 SHL SUB NOT AND PUSH1 0x1 PUSH1 0x1 PUSH1 0xA0 SHL SUB DUP4 AND OR SWAP1 SSTORE JUMPDEST PUSH1 0x0 DUP4 DUP2 MSTORE PUSH1 0x5 PUSH1 0x20 SWAP1 DUP2 MSTORE PUSH1 0x40 DUP1 DUP4 KECCAK256 PUSH1 0x1 PUSH1 0x1 PUSH1 0xA0 SHL SUB DUP6 AND DUP5 MSTORE SWAP1 SWAP2 MSTORE SWAP1 KECCAK256 SLOAD PUSH2 0x175C SWAP1 PUSH1 0x1 PUSH2 0x1AD3 JUMP JUMPDEST PUSH1 0x0 DUP5 DUP2 MSTORE PUSH1 0x5 PUSH1 0x20 SWAP1 DUP2 MSTORE PUSH1 0x40 DUP1 DUP4 KECCAK256 PUSH1 0x1 PUSH1 0x1 PUSH1 0xA0 SHL SUB DUP7 DUP2 AND DUP6 MSTORE SWAP3 MSTORE DUP1 DUP4 KECCAK256 SWAP4 SWAP1 SWAP4 SSTORE DUP5 AND DUP2 MSTORE SWAP1 DUP2 KECCAK256 SLOAD SWAP1 SUB PUSH2 0x18DE JUMPI PUSH1 0x0 JUMPDEST PUSH1 0x0 DUP5 DUP2 MSTORE PUSH1 0x5 PUSH1 0x20 MSTORE PUSH1 0x40 SWAP1 KECCAK256 PUSH1 0x1 ADD SLOAD DUP2 LT ISZERO PUSH2 0x18DC JUMPI PUSH1 0x0 DUP5 DUP2 MSTORE PUSH1 0x5 PUSH1 0x20 MSTORE PUSH1 0x40 SWAP1 KECCAK256 PUSH1 0x1 ADD DUP1 SLOAD PUSH1 0x1 PUSH1 0x1 PUSH1 0xA0 SHL SUB DUP6 AND SWAP2 SWAP1 DUP4 SWAP1 DUP2 LT PUSH2 0x17DC JUMPI PUSH2 0x17DC PUSH2 0x1D12 JUMP JUMPDEST PUSH1 0x0 SWAP2 DUP3 MSTORE PUSH1 0x20 SWAP1 SWAP2 KECCAK256 ADD SLOAD PUSH1 0x1 PUSH1 0x1 PUSH1 0xA0 SHL SUB AND SUB PUSH2 0x18D4 JUMPI PUSH1 0x0 DUP5 DUP2 MSTORE PUSH1 0x5 PUSH1 0x20 MSTORE PUSH1 0x40 SWAP1 KECCAK256 PUSH1 0x1 SWAP1 DUP2 ADD DUP1 SLOAD SWAP1 SWAP2 PUSH2 0x1816 SWAP2 PUSH2 0x1F16 JUMP JUMPDEST DUP2 SLOAD DUP2 LT PUSH2 0x1826 JUMPI PUSH2 0x1826 PUSH2 0x1D12 JUMP JUMPDEST PUSH1 0x0 SWAP2 DUP3 MSTORE PUSH1 0x20 DUP1 DUP4 KECCAK256 SWAP1 SWAP2 ADD SLOAD DUP7 DUP4 MSTORE PUSH1 0x5 SWAP1 SWAP2 MSTORE PUSH1 0x40 SWAP1 SWAP2 KECCAK256 PUSH1 0x1 ADD DUP1 SLOAD PUSH1 0x1 PUSH1 0x1 PUSH1 0xA0 SHL SUB SWAP1 SWAP3 AND SWAP2 DUP4 SWAP1 DUP2 LT PUSH2 0x1862 JUMPI PUSH2 0x1862 PUSH2 0x1D12 JUMP JUMPDEST PUSH1 0x0 SWAP2 DUP3 MSTORE PUSH1 0x20 DUP1 DUP4 KECCAK256 SWAP2 SWAP1 SWAP2 ADD DUP1 SLOAD PUSH1 0x1 PUSH1 0x1 PUSH1 0xA0 SHL SUB NOT AND PUSH1 0x1 PUSH1 0x1 PUSH1 0xA0 SHL SUB SWAP5 SWAP1 SWAP5 AND SWAP4 SWAP1 SWAP4 OR SWAP1 SWAP3 SSTORE DUP6 DUP2 MSTORE PUSH1 0x5 SWAP1 SWAP2 MSTORE PUSH1 0x40 SWAP1 KECCAK256 PUSH1 0x1 ADD DUP1 SLOAD DUP1 PUSH2 0x18AD JUMPI PUSH2 0x18AD PUSH2 0x1F29 JUMP JUMPDEST PUSH1 0x0 DUP3 DUP2 MSTORE PUSH1 0x20 SWAP1 KECCAK256 DUP2 ADD PUSH1 0x0 NOT SWAP1 DUP2 ADD DUP1 SLOAD PUSH1 0x1 PUSH1 0x1 PUSH1 0xA0 SHL SUB NOT AND SWAP1 SSTORE ADD SWAP1 SSTORE PUSH2 0x18DC JUMP JUMPDEST PUSH1 0x1 ADD PUSH2 0x1794 JUMP JUMPDEST POP JUMPDEST DUP1 PUSH1 0x1 PUSH1 0x1 PUSH1 0xA0 SHL SUB AND DUP3 PUSH1 0x1 PUSH1 0x1 PUSH1 0xA0 SHL SUB AND DUP5 PUSH32 0xBDF77FD986065D8FC49E770B42F0E133BB498A86D7D958A01CBBED564D678AC PUSH1 0x40 MLOAD PUSH1 0x40 MLOAD DUP1 SWAP2 SUB SWAP1 LOG4 POP POP POP JUMP JUMPDEST PUSH1 0x0 JUMPDEST PUSH1 0x0 DUP4 DUP2 MSTORE PUSH1 0x3 PUSH1 0x20 MSTORE PUSH1 0x40 SWAP1 KECCAK256 SLOAD DUP2 LT ISZERO PUSH2 0x1348 JUMPI DUP2 DUP2 EQ ISZERO DUP1 ISZERO PUSH2 0x1980 JUMPI POP PUSH1 0x0 DUP4 DUP2 MSTORE PUSH1 0x3 PUSH1 0x20 MSTORE PUSH1 0x40 SWAP1 KECCAK256 DUP1 SLOAD DUP3 SWAP1 DUP2 LT PUSH2 0x1968 JUMPI PUSH2 0x1968 PUSH2 0x1D12 JUMP JUMPDEST PUSH1 0x0 SWAP2 DUP3 MSTORE PUSH1 0x20 SWAP1 SWAP2 KECCAK256 PUSH1 0x2 PUSH1 0x3 SWAP1 SWAP3 MUL ADD ADD SLOAD PUSH1 0xFF AND JUMPDEST ISZERO PUSH2 0x1AB8 JUMPI PUSH1 0x0 DUP4 DUP2 MSTORE PUSH1 0x3 PUSH1 0x20 MSTORE PUSH1 0x40 DUP2 KECCAK256 DUP1 SLOAD DUP4 SWAP1 DUP2 LT PUSH2 0x19A5 JUMPI PUSH2 0x19A5 PUSH2 0x1D12 JUMP JUMPDEST PUSH1 0x0 SWAP2 DUP3 MSTORE PUSH1 0x20 DUP1 DUP4 KECCAK256 PUSH1 0x3 SWAP3 DUP4 MUL ADD SLOAD DUP8 DUP5 MSTORE SWAP2 SWAP1 MSTORE PUSH1 0x40 DUP3 KECCAK256 DUP1 SLOAD PUSH1 0x1 PUSH1 0x1 PUSH1 0xA0 SHL SUB SWAP1 SWAP3 AND SWAP4 POP SWAP1 DUP5 SWAP1 DUP2 LT PUSH2 0x19E0 JUMPI PUSH2 0x19E0 PUSH2 0x1D12 JUMP JUMPDEST SWAP1 PUSH1 0x0 MSTORE PUSH1 0x20 PUSH1 0x0 KECCAK256 SWAP1 PUSH1 0x3 MUL ADD PUSH1 0x1 ADD SLOAD SWAP1 POP PUSH1 0x0 PUSH1 0x3 PUSH1 0x0 DUP8 DUP2 MSTORE PUSH1 0x20 ADD SWAP1 DUP2 MSTORE PUSH1 0x20 ADD PUSH1 0x0 KECCAK256 DUP5 DUP2 SLOAD DUP2 LT PUSH2 0x1A1A JUMPI PUSH2 0x1A1A PUSH2 0x1D12 JUMP JUMPDEST PUSH1 0x0 SWAP2 DUP3 MSTORE PUSH1 0x20 DUP3 KECCAK256 PUSH1 0x3 SWAP2 SWAP1 SWAP2 MUL ADD PUSH1 0x2 ADD DUP1 SLOAD PUSH1 0xFF NOT AND SWAP3 ISZERO ISZERO SWAP3 SWAP1 SWAP3 OR SWAP1 SWAP2 SSTORE PUSH1 0x40 MLOAD PUSH1 0x1 PUSH1 0x1 PUSH1 0xA0 SHL SUB DUP5 AND SWAP2 PUSH2 0x8FC DUP5 ISZERO MUL SWAP2 DUP5 SWAP2 DUP2 DUP2 DUP2 DUP6 DUP9 DUP9 CALL SWAP4 POP POP POP POP ISZERO DUP1 ISZERO PUSH2 0x1A71 JUMPI RETURNDATASIZE PUSH1 0x0 DUP1 RETURNDATACOPY RETURNDATASIZE PUSH1 0x0 REVERT JUMPDEST POP DUP2 PUSH1 0x1 PUSH1 0x1 PUSH1 0xA0 SHL SUB AND PUSH32 0xA171B6942063C6F2800CE40A780EDCE37BAA2B618571B11EEDD1E69E626E7D76 DUP3 PUSH1 0x40 MLOAD PUSH2 0x1AAD SWAP2 DUP2 MSTORE PUSH1 0x20 ADD SWAP1 JUMP JUMPDEST PUSH1 0x40 MLOAD DUP1 SWAP2 SUB SWAP1 LOG2 POP POP JUMPDEST PUSH1 0x1 ADD PUSH2 0x1927 JUMP JUMPDEST PUSH1 0x0 PUSH2 0x1ACC DUP3 DUP5 PUSH2 0x1F16 JUMP JUMPDEST SWAP4 SWAP3 POP POP POP JUMP JUMPDEST PUSH1 0x0 PUSH2 0x1ACC DUP3 DUP5 PUSH2 0x1F03 JUMP JUMPDEST PUSH1 0x0 PUSH1 0x20 DUP3 DUP5 SUB SLT ISZERO PUSH2 0x1AF1 JUMPI PUSH1 0x0 DUP1 REVERT JUMPDEST POP CALLDATALOAD SWAP2 SWAP1 POP JUMP JUMPDEST PUSH1 0x0 DUP2 MLOAD DUP1 DUP5 MSTORE PUSH1 0x20 DUP5 ADD SWAP4 POP PUSH1 0x20 DUP4 ADD PUSH1 0x0 JUMPDEST DUP3 DUP2 LT ISZERO PUSH2 0x1B33 JUMPI DUP2 MLOAD PUSH1 0x1 PUSH1 0x1 PUSH1 0xA0 SHL SUB AND DUP7 MSTORE PUSH1 0x20 SWAP6 DUP7 ADD SWAP6 SWAP1 SWAP2 ADD SWAP1 PUSH1 0x1 ADD PUSH2 0x1B0C JUMP JUMPDEST POP SWAP4 SWAP5 SWAP4 POP POP POP POP JUMP JUMPDEST PUSH1 0x0 DUP2 MLOAD DUP1 DUP5 MSTORE PUSH1 0x20 DUP5 ADD SWAP4 POP PUSH1 0x20 DUP4 ADD PUSH1 0x0 JUMPDEST DUP3 DUP2 LT ISZERO PUSH2 0x1B33 JUMPI DUP2 MLOAD DUP7 MSTORE PUSH1 0x20 SWAP6 DUP7 ADD SWAP6 SWAP1 SWAP2 ADD SWAP1 PUSH1 0x1 ADD PUSH2 0x1B51 JUMP JUMPDEST PUSH1 0x40 DUP2 MSTORE PUSH1 0x0 PUSH2 0x1B82 PUSH1 0x40 DUP4 ADD DUP6 PUSH2 0x1AF8 JUMP JUMPDEST DUP3 DUP2 SUB PUSH1 0x20 DUP5 ADD MSTORE PUSH2 0x1B94 DUP2 DUP6 PUSH2 0x1B3D JUMP JUMPDEST SWAP6 SWAP5 POP POP POP POP POP JUMP JUMPDEST PUSH1 0xA0 DUP2 MSTORE PUSH1 0x0 PUSH2 0x1BB0 PUSH1 0xA0 DUP4 ADD DUP9 PUSH2 0x1B3D JUMP JUMPDEST DUP3 DUP2 SUB PUSH1 0x20 DUP5 ADD MSTORE PUSH2 0x1BC2 DUP2 DUP9 PUSH2 0x1B3D JUMP JUMPDEST SWAP1 POP DUP3 DUP2 SUB PUSH1 0x40 DUP5 ADD MSTORE PUSH2 0x1BD6 DUP2 DUP8 PUSH2 0x1AF8 JUMP JUMPDEST SWAP1 POP DUP3 DUP2 SUB PUSH1 0x60 DUP5 ADD MSTORE PUSH2 0x1BEA DUP2 DUP7 PUSH2 0x1B3D JUMP JUMPDEST SWAP1 POP DUP3 DUP2 SUB PUSH1 0x80 DUP5 ADD MSTORE PUSH2 0x1BFE DUP2 DUP6 PUSH2 0x1B3D JUMP JUMPDEST SWAP9 SWAP8 POP POP POP POP POP POP POP POP JUMP JUMPDEST PUSH1 0x0 DUP1 PUSH1 0x40 DUP4 DUP6 SUB SLT ISZERO PUSH2 0x1C1D JUMPI PUSH1 0x0 DUP1 REVERT JUMPDEST POP POP DUP1 CALLDATALOAD SWAP3 PUSH1 0x20 SWAP1 SWAP2 ADD CALLDATALOAD SWAP2 POP JUMP JUMPDEST PUSH1 0x0 DUP1 PUSH1 0x0 PUSH1 0x60 DUP5 DUP7 SUB SLT ISZERO PUSH2 0x1C41 JUMPI PUSH1 0x0 DUP1 REVERT JUMPDEST POP POP DUP2 CALLDATALOAD SWAP4 PUSH1 0x20 DUP4 ADD CALLDATALOAD SWAP4 POP PUSH1 0x40 SWAP1 SWAP3 ADD CALLDATALOAD SWAP2 SWAP1 POP JUMP JUMPDEST PUSH1 0x1 PUSH1 0x1 PUSH1 0xA0 SHL SUB DUP2 AND DUP2 EQ PUSH2 0x488 JUMPI PUSH1 0x0 DUP1 REVERT JUMPDEST PUSH1 0x0 DUP1 PUSH1 0x40 DUP4 DUP6 SUB SLT ISZERO PUSH2 0x1C80 JUMPI PUSH1 0x0 DUP1 REVERT JUMPDEST DUP3 CALLDATALOAD SWAP2 POP PUSH1 0x20 DUP4 ADD CALLDATALOAD PUSH2 0x1C92 DUP2 PUSH2 0x1C58 JUMP JUMPDEST DUP1 SWAP2 POP POP SWAP3 POP SWAP3 SWAP1 POP JUMP JUMPDEST PUSH1 0x20 DUP1 DUP3 MSTORE PUSH1 0x12 SWAP1 DUP3 ADD MSTORE PUSH18 0x4C697374696E67206E6F7420616374697665 PUSH1 0x70 SHL PUSH1 0x40 DUP3 ADD MSTORE PUSH1 0x60 ADD SWAP1 JUMP JUMPDEST PUSH1 0x20 DUP1 DUP3 MSTORE PUSH1 0x19 SWAP1 DUP3 ADD MSTORE PUSH25 0x131A5CDD1A5B99C8185B1C9958591E4818DBDB5C1B195D1959 PUSH1 0x3A SHL PUSH1 0x40 DUP3 ADD MSTORE PUSH1 0x60 ADD SWAP1 JUMP JUMPDEST PUSH4 0x4E487B71 PUSH1 0xE0 SHL PUSH1 0x0 MSTORE PUSH1 0x41 PUSH1 0x4 MSTORE PUSH1 0x24 PUSH1 0x0 REVERT JUMPDEST PUSH4 0x4E487B71 PUSH1 0xE0 SHL PUSH1 0x0 MSTORE PUSH1 0x32 PUSH1 0x4 MSTORE PUSH1 0x24 PUSH1 0x0 REVERT JUMPDEST PUSH1 0x40 MLOAD PUSH1 0x1F DUP3 ADD PUSH1 0x1F NOT AND DUP2 ADD PUSH1 0x1 PUSH1 0x1 PUSH1 0x40 SHL SUB DUP2 GT DUP3 DUP3 LT OR ISZERO PUSH2 0x1D50 JUMPI PUSH2 0x1D50 PUSH2 0x1CFC JUMP JUMPDEST PUSH1 0x40 MSTORE SWAP2 SWAP1 POP JUMP JUMPDEST PUSH1 0x0 PUSH1 0x1 PUSH1 0x1 PUSH1 0x40 SHL SUB DUP3 GT ISZERO PUSH2 0x1D71 JUMPI PUSH2 0x1D71 PUSH2 0x1CFC JUMP JUMPDEST POP PUSH1 0x5 SHL PUSH1 0x20 ADD SWAP1 JUMP JUMPDEST PUSH1 0x0 DUP3 PUSH1 0x1F DUP4 ADD SLT PUSH2 0x1D8C JUMPI PUSH1 0x0 DUP1 REVERT JUMPDEST DUP2 MLOAD PUSH2 0x1D9F PUSH2 0x1D9A DUP3 PUSH2 0x1D58 JUMP JUMPDEST PUSH2 0x1D28 JUMP JUMPDEST DUP1 DUP3 DUP3 MSTORE PUSH1 0x20 DUP3 ADD SWAP2 POP PUSH1 0x20 DUP4 PUSH1 0x5 SHL DUP7 ADD ADD SWAP3 POP DUP6 DUP4 GT ISZERO PUSH2 0x1DC1 JUMPI PUSH1 0x0 DUP1 REVERT JUMPDEST PUSH1 0x20 DUP6 ADD JUMPDEST DUP4 DUP2 LT ISZERO PUSH2 0x1DDE JUMPI DUP1 MLOAD DUP4 MSTORE PUSH1 0x20 SWAP3 DUP4 ADD SWAP3 ADD PUSH2 0x1DC6 JUMP JUMPDEST POP SWAP6 SWAP5 POP POP POP POP POP JUMP JUMPDEST PUSH1 0x0 DUP1 PUSH1 0x40 DUP4 DUP6 SUB SLT ISZERO PUSH2 0x1DFB JUMPI PUSH1 0x0 DUP1 REVERT JUMPDEST DUP3 MLOAD PUSH1 0x1 PUSH1 0x1 PUSH1 0x40 SHL SUB DUP2 GT ISZERO PUSH2 0x1E11 JUMPI PUSH1 0x0 DUP1 REVERT JUMPDEST DUP4 ADD PUSH1 0x1F DUP2 ADD DUP6 SGT PUSH2 0x1E22 JUMPI PUSH1 0x0 DUP1 REVERT JUMPDEST DUP1 MLOAD PUSH2 0x1E30 PUSH2 0x1D9A DUP3 PUSH2 0x1D58 JUMP JUMPDEST DUP1 DUP3 DUP3 MSTORE PUSH1 0x20 DUP3 ADD SWAP2 POP PUSH1 0x20 DUP4 PUSH1 0x5 SHL DUP6 ADD ADD SWAP3 POP DUP8 DUP4 GT ISZERO PUSH2 0x1E52 JUMPI PUSH1 0x0 DUP1 REVERT JUMPDEST PUSH1 0x20 DUP5 ADD SWAP4 POP JUMPDEST DUP3 DUP5 LT ISZERO PUSH2 0x1E7D JUMPI DUP4 MLOAD PUSH2 0x1E6C DUP2 PUSH2 0x1C58 JUMP JUMPDEST DUP3 MSTORE PUSH1 0x20 SWAP4 DUP5 ADD SWAP4 SWAP1 SWAP2 ADD SWAP1 PUSH2 0x1E59 JUMP JUMPDEST DUP1 SWAP6 POP POP POP POP POP PUSH1 0x20 DUP4 ADD MLOAD PUSH1 0x1 PUSH1 0x1 PUSH1 0x40 SHL SUB DUP2 GT ISZERO PUSH2 0x1E9D JUMPI PUSH1 0x0 DUP1 REVERT JUMPDEST PUSH2 0x1EA9 DUP6 DUP3 DUP7 ADD PUSH2 0x1D7B JUMP JUMPDEST SWAP2 POP POP SWAP3 POP SWAP3 SWAP1 POP JUMP JUMPDEST PUSH4 0x4E487B71 PUSH1 0xE0 SHL PUSH1 0x0 MSTORE PUSH1 0x11 PUSH1 0x4 MSTORE PUSH1 0x24 PUSH1 0x0 REVERT JUMPDEST PUSH1 0x0 PUSH1 0x1 DUP3 ADD PUSH2 0x1EDB JUMPI PUSH2 0x1EDB PUSH2 0x1EB3 JUMP JUMPDEST POP PUSH1 0x1 ADD SWAP1 JUMP JUMPDEST SWAP3 ISZERO ISZERO DUP4 MSTORE PUSH1 0x1 PUSH1 0x1 PUSH1 0xA0 SHL SUB SWAP2 SWAP1 SWAP2 AND PUSH1 0x20 DUP4 ADD MSTORE PUSH1 0x40 DUP3 ADD MSTORE PUSH1 0x60 ADD SWAP1 JUMP JUMPDEST DUP1 DUP3 ADD DUP1 DUP3 GT ISZERO PUSH2 0x147B JUMPI PUSH2 0x147B PUSH2 0x1EB3 JUMP JUMPDEST DUP2 DUP2 SUB DUP2 DUP2 GT ISZERO PUSH2 0x147B JUMPI PUSH2 0x147B PUSH2 0x1EB3 JUMP JUMPDEST PUSH4 0x4E487B71 PUSH1 0xE0 SHL PUSH1 0x0 MSTORE PUSH1 0x31 PUSH1 0x4 MSTORE PUSH1 0x24 PUSH1 0x0 REVERT INVALID LOG2 PUSH5 0x6970667358 0x22 SLT KECCAK256 SWAP2 PUSH2 0xEB40 PC 0x4F SWAP4 MCOPY 0xD5 ORIGIN 0xF PUSH18 0xF45FC40B5A4A5023DBF54D62C0E23C837675 PUSH27 0x5964736F6C634300081D0033000000000000000000000000000000 "
				},
				"gasEstimates": {
					"creation": {
						"codeDepositCost": "1610600",
						"executionCost": "infinite",
						"totalCost": "infinite"
					},
					"external": {
						"cancelListing(uint256)": "infinite",
						"createListing(uint256,uint256,uint256)": "infinite",
						"executeListing(uint256)": "infinite",
						"getActiveListings()": "infinite",
						"getAssetOwners(uint256)": "infinite",
						"getListingBids(uint256)": "infinite",
						"getListingDetails(uint256)": "9082",
						"getSharesOwned(uint256,address)": "infinite",
						"initialOfferingContract()": "2349",
						"initializeAssetOwnership(uint256)": "infinite",
						"listingBids(uint256,uint256)": "9006",
						"listingCount()": "2339",
						"listings(uint256)": "9035",
						"placeBid(uint256)": "152235"
					},
					"internal": {
						"_refundAllBids(uint256)": "infinite",
						"_refundUnsuccessfulBids(uint256,uint256)": "infinite",
						"_transferShare(uint256,address,address)": "infinite"
					}
				},
				"methodIdentifiers": {
					"cancelListing(uint256)": "305a67a8",
					"createListing(uint256,uint256,uint256)": "b03053b6",
					"executeListing(uint256)": "a137454a",
					"getActiveListings()": "87c35bc0",
					"getAssetOwners(uint256)": "686735c5",
					"getListingBids(uint256)": "90e467a1",
					"getListingDetails(uint256)": "fb05da2e",
					"getSharesOwned(uint256,address)": "e7ebadfe",
					"initialOfferingContract()": "4bbfdffe",
					"initializeAssetOwnership(uint256)": "83421efd",
					"listingBids(uint256,uint256)": "9da0e1dd",
					"listingCount()": "a9b07c26",
					"listings(uint256)": "de74e57b",
					"placeBid(uint256)": "9979ef45"
				}
			},
			"storageLayout": {
				"storage": [
					{
						"astId": 10,
						"contract": "secondary.sol:LuxuryAssetSecondaryMarket",
						"label": "_status",
						"offset": 0,
						"slot": "0",
						"type": "t_uint256"
					},
					{
						"astId": 431,
						"contract": "secondary.sol:LuxuryAssetSecondaryMarket",
						"label": "initialOfferingContract",
						"offset": 0,
						"slot": "1",
						"type": "t_contract(ILuxuryAssetOffering)423"
					},
					{
						"astId": 464,
						"contract": "secondary.sol:LuxuryAssetSecondaryMarket",
						"label": "listings",
						"offset": 0,
						"slot": "2",
						"type": "t_mapping(t_uint256,t_struct(SecondaryListing)442_storage)"
					},
					{
						"astId": 470,
						"contract": "secondary.sol:LuxuryAssetSecondaryMarket",
						"label": "listingBids",
						"offset": 0,
						"slot": "3",
						"type": "t_mapping(t_uint256,t_array(t_struct(SecondaryBid)449_storage)dyn_storage)"
					},
					{
						"astId": 472,
						"contract": "secondary.sol:LuxuryAssetSecondaryMarket",
						"label": "listingCount",
						"offset": 0,
						"slot": "4",
						"type": "t_uint256"
					},
					{
						"astId": 477,
						"contract": "secondary.sol:LuxuryAssetSecondaryMarket",
						"label": "assetOwnership",
						"offset": 0,
						"slot": "5",
						"type": "t_mapping(t_uint256,t_struct(OwnershipRecord)459_storage)"
					}
				],
				"types": {
					"t_address": {
						"encoding": "inplace",
						"label": "address",
						"numberOfBytes": "20"
					},
					"t_array(t_address)dyn_storage": {
						"base": "t_address",
						"encoding": "dynamic_array",
						"label": "address[]",
						"numberOfBytes": "32"
					},
					"t_array(t_struct(SecondaryBid)449_storage)dyn_storage": {
						"base": "t_struct(SecondaryBid)449_storage",
						"encoding": "dynamic_array",
						"label": "struct LuxuryAssetSecondaryMarket.SecondaryBid[]",
						"numberOfBytes": "32"
					},
					"t_bool": {
						"encoding": "inplace",
						"label": "bool",
						"numberOfBytes": "1"
					},
					"t_contract(ILuxuryAssetOffering)423": {
						"encoding": "inplace",
						"label": "contract ILuxuryAssetOffering",
						"numberOfBytes": "20"
					},
					"t_mapping(t_address,t_uint256)": {
						"encoding": "mapping",
						"key": "t_address",
						"label": "mapping(address => uint256)",
						"numberOfBytes": "32",
						"value": "t_uint256"
					},
					"t_mapping(t_uint256,t_array(t_struct(SecondaryBid)449_storage)dyn_storage)": {
						"encoding": "mapping",
						"key": "t_uint256",
						"label": "mapping(uint256 => struct LuxuryAssetSecondaryMarket.SecondaryBid[])",
						"numberOfBytes": "32",
						"value": "t_array(t_struct(SecondaryBid)449_storage)dyn_storage"
					},
					"t_mapping(t_uint256,t_struct(OwnershipRecord)459_storage)": {
						"encoding": "mapping",
						"key": "t_uint256",
						"label": "mapping(uint256 => struct LuxuryAssetSecondaryMarket.OwnershipRecord)",
						"numberOfBytes": "32",
						"value": "t_struct(OwnershipRecord)459_storage"
					},
					"t_mapping(t_uint256,t_struct(SecondaryListing)442_storage)": {
						"encoding": "mapping",
						"key": "t_uint256",
						"label": "mapping(uint256 => struct LuxuryAssetSecondaryMarket.SecondaryListing)",
						"numberOfBytes": "32",
						"value": "t_struct(SecondaryListing)442_storage"
					},
					"t_struct(OwnershipRecord)459_storage": {
						"encoding": "inplace",
						"label": "struct LuxuryAssetSecondaryMarket.OwnershipRecord",
						"members": [
							{
								"astId": 453,
								"contract": "secondary.sol:LuxuryAssetSecondaryMarket",
								"label": "shares",
								"offset": 0,
								"slot": "0",
								"type": "t_mapping(t_address,t_uint256)"
							},
							{
								"astId": 456,
								"contract": "secondary.sol:LuxuryAssetSecondaryMarket",
								"label": "owners",
								"offset": 0,
								"slot": "1",
								"type": "t_array(t_address)dyn_storage"
							},
							{
								"astId": 458,
								"contract": "secondary.sol:LuxuryAssetSecondaryMarket",
								"label": "initialized",
								"offset": 0,
								"slot": "2",
								"type": "t_bool"
							}
						],
						"numberOfBytes": "96"
					},
					"t_struct(SecondaryBid)449_storage": {
						"encoding": "inplace",
						"label": "struct LuxuryAssetSecondaryMarket.SecondaryBid",
						"members": [
							{
								"astId": 444,
								"contract": "secondary.sol:LuxuryAssetSecondaryMarket",
								"label": "bidder",
								"offset": 0,
								"slot": "0",
								"type": "t_address"
							},
							{
								"astId": 446,
								"contract": "secondary.sol:LuxuryAssetSecondaryMarket",
								"label": "bidAmount",
								"offset": 0,
								"slot": "1",
								"type": "t_uint256"
							},
							{
								"astId": 448,
								"contract": "secondary.sol:LuxuryAssetSecondaryMarket",
								"label": "isActive",
								"offset": 0,
								"slot": "2",
								"type": "t_bool"
							}
						],
						"numberOfBytes": "96"
					},
					"t_struct(SecondaryListing)442_storage": {
						"encoding": "inplace",
						"label": "struct LuxuryAssetSecondaryMarket.SecondaryListing",
						"members": [
							{
								"astId": 433,
								"contract": "secondary.sol:LuxuryAssetSecondaryMarket",
								"label": "assetId",
								"offset": 0,
								"slot": "0",
								"type": "t_uint256"
							},
							{
								"astId": 435,
								"contract": "secondary.sol:LuxuryAssetSecondaryMarket",
								"label": "seller",
								"offset": 0,
								"slot": "1",
								"type": "t_address"
							},
							{
								"astId": 437,
								"contract": "secondary.sol:LuxuryAssetSecondaryMarket",
								"label": "minPrice",
								"offset": 0,
								"slot": "2",
								"type": "t_uint256"
							},
							{
								"astId": 439,
								"contract": "secondary.sol:LuxuryAssetSecondaryMarket",
								"label": "isActive",
								"offset": 0,
								"slot": "3",
								"type": "t_bool"
							},
							{
								"astId": 441,
								"contract": "secondary.sol:LuxuryAssetSecondaryMarket",
								"label": "isCompleted",
								"offset": 1,
								"slot": "3",
								"type": "t_bool"
							}
						],
						"numberOfBytes": "128"
					},
					"t_uint256": {
						"encoding": "inplace",
						"label": "uint256",
						"numberOfBytes": "32"
					}
				}
			},
			"userdoc": {
				"kind": "user",
				"methods": {},
				"version": 1
			}
		}
	}
}