{
	"initial-offering.sol": {
		"LuxuryAssetOffering": {
			"abi": [
				{
					"anonymous": false,
					"inputs": [
						{
							"indexed": false,
							"internalType": "uint256",
							"name": "newCount",
							"type": "uint256"
						}
					],
					"name": "AssetCountUpdated",
					"type": "event"
				},
				{
					"anonymous": false,
					"inputs": [
						{
							"indexed": true,
							"internalType": "uint256",
							"name": "assetId",
							"type": "uint256"
						},
						{
							"indexed": true,
							"internalType": "address",
							"name": "originalOwner",
							"type": "address"
						},
						{
							"indexed": false,
							"internalType": "string",
							"name": "name",
							"type": "string"
						},
						{
							"indexed": false,
							"internalType": "uint256",
							"name": "totalShares",
							"type": "uint256"
						},
						{
							"indexed": false,
							"internalType": "uint256",
							"name": "minimumTotalPrice",
							"type": "uint256"
						}
					],
					"name": "AssetCreated",
					"type": "event"
				},
				{
					"anonymous": false,
					"inputs": [
						{
							"indexed": true,
							"internalType": "uint256",
							"name": "assetId",
							"type": "uint256"
						},
						{
							"indexed": true,
							"internalType": "address",
							"name": "bidder",
							"type": "address"
						},
						{
							"indexed": false,
							"internalType": "uint256",
							"name": "shares",
							"type": "uint256"
						},
						{
							"indexed": false,
							"internalType": "uint256",
							"name": "price",
							"type": "uint256"
						}
					],
					"name": "BidPlaced",
					"type": "event"
				},
				{
					"anonymous": false,
					"inputs": [
						{
							"indexed": true,
							"internalType": "uint256",
							"name": "assetId",
							"type": "uint256"
						},
						{
							"indexed": false,
							"internalType": "bool",
							"name": "successful",
							"type": "bool"
						},
						{
							"indexed": false,
							"internalType": "uint256",
							"name": "timestamp",
							"type": "uint256"
						}
					],
					"name": "BiddingEnded",
					"type": "event"
				},
				{
					"anonymous": false,
					"inputs": [
						{
							"indexed": true,
							"internalType": "uint256",
							"name": "assetId",
							"type": "uint256"
						},
						{
							"indexed": true,
							"internalType": "address",
							"name": "owner",
							"type": "address"
						},
						{
							"indexed": false,
							"internalType": "uint256",
							"name": "shares",
							"type": "uint256"
						}
					],
					"name": "OwnerAdded",
					"type": "event"
				},
				{
					"anonymous": false,
					"inputs": [
						{
							"indexed": true,
							"internalType": "address",
							"name": "bidder",
							"type": "address"
						},
						{
							"indexed": false,
							"internalType": "uint256",
							"name": "amount",
							"type": "uint256"
						}
					],
					"name": "RefundIssued",
					"type": "event"
				},
				{
					"anonymous": false,
					"inputs": [
						{
							"indexed": true,
							"internalType": "uint256",
							"name": "assetId",
							"type": "uint256"
						},
						{
							"indexed": true,
							"internalType": "address",
							"name": "bidder",
							"type": "address"
						},
						{
							"indexed": false,
							"internalType": "uint256",
							"name": "shares",
							"type": "uint256"
						},
						{
							"indexed": false,
							"internalType": "uint256",
							"name": "price",
							"type": "uint256"
						}
					],
					"name": "SharesAllocated",
					"type": "event"
				},
				{
					"inputs": [
						{
							"internalType": "uint256",
							"name": "",
							"type": "uint256"
						},
						{
							"internalType": "uint256",
							"name": "",
							"type": "uint256"
						}
					],
					"name": "assetBids",
					"outputs": [
						{
							"internalType": "address",
							"name": "bidder",
							"type": "address"
						},
						{
							"internalType": "uint256",
							"name": "shareAmount",
							"type": "uint256"
						},
						{
							"internalType": "uint256",
							"name": "pricePerShare",
							"type": "uint256"
						},
						{
							"internalType": "bool",
							"name": "allocated",
							"type": "bool"
						}
					],
					"stateMutability": "view",
					"type": "function"
				},
				{
					"inputs": [],
					"name": "assetCount",
					"outputs": [
						{
							"internalType": "uint256",
							"name": "",
							"type": "uint256"
						}
					],
					"stateMutability": "view",
					"type": "function"
				},
				{
					"inputs": [
						{
							"internalType": "uint256",
							"name": "",
							"type": "uint256"
						}
					],
					"name": "assets",
					"outputs": [
						{
							"internalType": "address",
							"name": "originalOwner",
							"type": "address"
						},
						{
							"internalType": "string",
							"name": "name",
							"type": "string"
						},
						{
							"internalType": "uint256",
							"name": "totalShares",
							"type": "uint256"
						},
						{
							"internalType": "uint256",
							"name": "sharesRemaining",
							"type": "uint256"
						},
						{
							"internalType": "uint256",
							"name": "minimumTotalPrice",
							"type": "uint256"
						},
						{
							"internalType": "bool",
							"name": "biddingClosed",
							"type": "bool"
						},
						{
							"internalType": "uint256",
							"name": "biddingEndTime",
							"type": "uint256"
						}
					],
					"stateMutability": "view",
					"type": "function"
				},
				{
					"inputs": [
						{
							"internalType": "string",
							"name": "_name",
							"type": "string"
						},
						{
							"internalType": "uint256",
							"name": "_totalShares",
							"type": "uint256"
						},
						{
							"internalType": "uint256",
							"name": "_minPricePerShare",
							"type": "uint256"
						},
						{
							"internalType": "uint256",
							"name": "_minimumTotalPrice",
							"type": "uint256"
						},
						{
							"internalType": "uint256",
							"name": "_biddingDuration",
							"type": "uint256"
						}
					],
					"name": "createAssetOffering",
					"outputs": [],
					"stateMutability": "nonpayable",
					"type": "function"
				},
				{
					"inputs": [
						{
							"internalType": "uint256",
							"name": "_assetId",
							"type": "uint256"
						}
					],
					"name": "endBidding",
					"outputs": [],
					"stateMutability": "nonpayable",
					"type": "function"
				},
				{
					"inputs": [
						{
							"internalType": "uint256",
							"name": "_assetId",
							"type": "uint256"
						}
					],
					"name": "executeBidding",
					"outputs": [],
					"stateMutability": "nonpayable",
					"type": "function"
				},
				{
					"inputs": [
						{
							"internalType": "uint256",
							"name": "_assetId",
							"type": "uint256"
						}
					],
					"name": "getAssetBasicDetails",
					"outputs": [
						{
							"internalType": "address",
							"name": "originalOwner",
							"type": "address"
						},
						{
							"internalType": "string",
							"name": "name",
							"type": "string"
						},
						{
							"internalType": "uint256",
							"name": "totalShares",
							"type": "uint256"
						},
						{
							"internalType": "uint256",
							"name": "sharesRemaining",
							"type": "uint256"
						},
						{
							"internalType": "uint256",
							"name": "minimumTotalPrice",
							"type": "uint256"
						},
						{
							"internalType": "bool",
							"name": "biddingClosed",
							"type": "bool"
						},
						{
							"internalType": "uint256",
							"name": "biddingEndTime",
							"type": "uint256"
						}
					],
					"stateMutability": "view",
					"type": "function"
				},
				{
					"inputs": [
						{
							"internalType": "uint256",
							"name": "_assetId",
							"type": "uint256"
						}
					],
					"name": "getAssetBids",
					"outputs": [
						{
							"internalType": "address[]",
							"name": "bidders",
							"type": "address[]"
						},
						{
							"internalType": "uint256[]",
							"name": "shareAmounts",
							"type": "uint256[]"
						},
						{
							"internalType": "uint256[]",
							"name": "pricesPerShare",
							"type": "uint256[]"
						},
						{
							"internalType": "bool[]",
							"name": "allocated",
							"type": "bool[]"
						}
					],
					"stateMutability": "view",
					"type": "function"
				},
				{
					"inputs": [
						{
							"internalType": "uint256",
							"name": "_assetId",
							"type": "uint256"
						}
					],
					"name": "getAssetOwners",
					"outputs": [
						{
							"internalType": "address[]",
							"name": "ownerAddresses",
							"type": "address[]"
						},
						{
							"internalType": "uint256[]",
							"name": "ownerShares",
							"type": "uint256[]"
						}
					],
					"stateMutability": "view",
					"type": "function"
				},
				{
					"inputs": [],
					"name": "getLatestAssetCount",
					"outputs": [
						{
							"internalType": "uint256",
							"name": "",
							"type": "uint256"
						}
					],
					"stateMutability": "view",
					"type": "function"
				},
				{
					"inputs": [
						{
							"internalType": "uint256",
							"name": "_assetId",
							"type": "uint256"
						},
						{
							"internalType": "uint256",
							"name": "_shareAmount",
							"type": "uint256"
						}
					],
					"name": "placeBid",
					"outputs": [],
					"stateMutability": "payable",
					"type": "function"
				}
			],
			"devdoc": {
				"kind": "dev",
				"methods": {},
				"version": 1
			},
			"evm": {
				"assembly": "    /* \"initial-offering.sol\":179:13173  contract LuxuryAssetOffering is ReentrancyGuard {... */\n  mstore(0x40, 0x80)\n  callvalue\n  dup1\n  iszero\n  tag_1\n  jumpi\n  0x00\n  dup1\n  revert\ntag_1:\n  pop\n    /* \"@openzeppelin/contracts/security/ReentrancyGuard.sol\":1716:1717  1 */\n  0x01\n    /* \"@openzeppelin/contracts/security/ReentrancyGuard.sol\":1821:1828  _status */\n  0x00\n    /* \"@openzeppelin/contracts/security/ReentrancyGuard.sol\":1821:1843  _status = _NOT_ENTERED */\n  dup2\n  swap1\n  sstore\n  pop\n    /* \"initial-offering.sol\":179:13173  contract LuxuryAssetOffering is ReentrancyGuard {... */\n  dataSize(sub_0)\n  dup1\n  dataOffset(sub_0)\n  0x00\n  codecopy\n  0x00\n  return\nstop\n\nsub_0: assembly {\n        /* \"initial-offering.sol\":179:13173  contract LuxuryAssetOffering is ReentrancyGuard {... */\n      mstore(0x40, 0x80)\n      jumpi(tag_1, lt(calldatasize, 0x04))\n      shr(0xe0, calldataload(0x00))\n      dup1\n      0x686735c5\n      gt\n      tag_13\n      jumpi\n      dup1\n      0x686735c5\n      eq\n      tag_7\n      jumpi\n      dup1\n      0xa3d5f1e5\n      eq\n      tag_8\n      jumpi\n      dup1\n      0xb18cc358\n      eq\n      tag_9\n      jumpi\n      dup1\n      0xb468e0b0\n      eq\n      tag_10\n      jumpi\n      dup1\n      0xcf35bdd0\n      eq\n      tag_11\n      jumpi\n      dup1\n      0xeafe7a74\n      eq\n      tag_12\n      jumpi\n      jump(tag_1)\n    tag_13:\n      dup1\n      0x0392cc45\n      eq\n      tag_2\n      jumpi\n      dup1\n      0x093755ad\n      eq\n      tag_3\n      jumpi\n      dup1\n      0x47582610\n      eq\n      tag_4\n      jumpi\n      dup1\n      0x503e0578\n      eq\n      tag_5\n      jumpi\n      dup1\n      0x57c90de5\n      eq\n      tag_6\n      jumpi\n    tag_1:\n      0x00\n      dup1\n      revert\n        /* \"initial-offering.sol\":5931:6859  function getAssetBids(uint256 _assetId) external view returns (... */\n    tag_2:\n      callvalue\n      dup1\n      iszero\n      tag_14\n      jumpi\n      0x00\n      dup1\n      revert\n    tag_14:\n      pop\n      tag_15\n      0x04\n      dup1\n      calldatasize\n      sub\n      dup2\n      add\n      swap1\n      tag_16\n      swap2\n      swap1\n      tag_17\n      jump\t// in\n    tag_16:\n      tag_18\n      jump\t// in\n    tag_15:\n      mload(0x40)\n      tag_19\n      swap5\n      swap4\n      swap3\n      swap2\n      swap1\n      tag_20\n      jump\t// in\n    tag_19:\n      mload(0x40)\n      dup1\n      swap2\n      sub\n      swap1\n      return\n        /* \"initial-offering.sol\":6894:7440  function endBidding(uint256 _assetId) external nonReentrant {... */\n    tag_3:\n      callvalue\n      dup1\n      iszero\n      tag_21\n      jumpi\n      0x00\n      dup1\n      revert\n    tag_21:\n      pop\n      tag_22\n      0x04\n      dup1\n      calldatasize\n      sub\n      dup2\n      add\n      swap1\n      tag_23\n      swap2\n      swap1\n      tag_17\n      jump\t// in\n    tag_23:\n      tag_24\n      jump\t// in\n    tag_22:\n      stop\n        /* \"initial-offering.sol\":3363:3460  function getLatestAssetCount() external view returns (uint256) {... */\n    tag_4:\n      callvalue\n      dup1\n      iszero\n      tag_25\n      jumpi\n      0x00\n      dup1\n      revert\n    tag_25:\n      pop\n      tag_26\n      tag_27\n      jump\t// in\n    tag_26:\n      mload(0x40)\n      tag_28\n      swap2\n      swap1\n      tag_29\n      jump\t// in\n    tag_28:\n      mload(0x40)\n      dup1\n      swap2\n      sub\n      swap1\n      return\n        /* \"initial-offering.sol\":1848:3323  function createAssetOffering(... */\n    tag_5:\n      callvalue\n      dup1\n      iszero\n      tag_30\n      jumpi\n      0x00\n      dup1\n      revert\n    tag_30:\n      pop\n      tag_31\n      0x04\n      dup1\n      calldatasize\n      sub\n      dup2\n      add\n      swap1\n      tag_32\n      swap2\n      swap1\n      tag_33\n      jump\t// in\n    tag_32:\n      tag_34\n      jump\t// in\n    tag_31:\n      stop\n        /* \"initial-offering.sol\":5092:5888  function placeBid(uint256 _assetId, uint256 _shareAmount) external payable nonReentrant {... */\n    tag_6:\n      tag_35\n      0x04\n      dup1\n      calldatasize\n      sub\n      dup2\n      add\n      swap1\n      tag_36\n      swap2\n      swap1\n      tag_37\n      jump\t// in\n    tag_36:\n      tag_38\n      jump\t// in\n    tag_35:\n      stop\n        /* \"initial-offering.sol\":4309:5054  function getAssetOwners(uint256 _assetId) external view returns (... */\n    tag_7:\n      callvalue\n      dup1\n      iszero\n      tag_39\n      jumpi\n      0x00\n      dup1\n      revert\n    tag_39:\n      pop\n      tag_40\n      0x04\n      dup1\n      calldatasize\n      sub\n      dup2\n      add\n      swap1\n      tag_41\n      swap2\n      swap1\n      tag_17\n      jump\t// in\n    tag_41:\n      tag_42\n      jump\t// in\n    tag_40:\n      mload(0x40)\n      tag_43\n      swap3\n      swap2\n      swap1\n      tag_44\n      jump\t// in\n    tag_43:\n      mload(0x40)\n      dup1\n      swap2\n      sub\n      swap1\n      return\n        /* \"initial-offering.sol\":1057:1099  mapping(uint256 => Bid[]) public assetBids */\n    tag_8:\n      callvalue\n      dup1\n      iszero\n      tag_45\n      jumpi\n      0x00\n      dup1\n      revert\n    tag_45:\n      pop\n      tag_46\n      0x04\n      dup1\n      calldatasize\n      sub\n      dup2\n      add\n      swap1\n      tag_47\n      swap2\n      swap1\n      tag_37\n      jump\t// in\n    tag_47:\n      tag_48\n      jump\t// in\n    tag_46:\n      mload(0x40)\n      tag_49\n      swap5\n      swap4\n      swap3\n      swap2\n      swap1\n      tag_50\n      jump\t// in\n    tag_49:\n      mload(0x40)\n      dup1\n      swap2\n      sub\n      swap1\n      return\n        /* \"initial-offering.sol\":3501:4265  function getAssetBasicDetails(uint256 _assetId) external view returns (... */\n    tag_9:\n      callvalue\n      dup1\n      iszero\n      tag_51\n      jumpi\n      0x00\n      dup1\n      revert\n    tag_51:\n      pop\n      tag_52\n      0x04\n      dup1\n      calldatasize\n      sub\n      dup2\n      add\n      swap1\n      tag_53\n      swap2\n      swap1\n      tag_17\n      jump\t// in\n    tag_53:\n      tag_54\n      jump\t// in\n    tag_52:\n      mload(0x40)\n      tag_55\n      swap8\n      swap7\n      swap6\n      swap5\n      swap4\n      swap3\n      swap2\n      swap1\n      tag_56\n      jump\t// in\n    tag_55:\n      mload(0x40)\n      dup1\n      swap2\n      sub\n      swap1\n      return\n        /* \"initial-offering.sol\":7484:8118  function executeBidding(uint256 _assetId) external nonReentrant {... */\n    tag_10:\n      callvalue\n      dup1\n      iszero\n      tag_57\n      jumpi\n      0x00\n      dup1\n      revert\n    tag_57:\n      pop\n      tag_58\n      0x04\n      dup1\n      calldatasize\n      sub\n      dup2\n      add\n      swap1\n      tag_59\n      swap2\n      swap1\n      tag_17\n      jump\t// in\n    tag_59:\n      tag_60\n      jump\t// in\n    tag_58:\n      stop\n        /* \"initial-offering.sol\":1012:1051  mapping(uint256 => Asset) public assets */\n    tag_11:\n      callvalue\n      dup1\n      iszero\n      tag_61\n      jumpi\n      0x00\n      dup1\n      revert\n    tag_61:\n      pop\n      tag_62\n      0x04\n      dup1\n      calldatasize\n      sub\n      dup2\n      add\n      swap1\n      tag_63\n      swap2\n      swap1\n      tag_17\n      jump\t// in\n    tag_63:\n      tag_64\n      jump\t// in\n    tag_62:\n      mload(0x40)\n      tag_65\n      swap8\n      swap7\n      swap6\n      swap5\n      swap4\n      swap3\n      swap2\n      swap1\n      tag_56\n      jump\t// in\n    tag_65:\n      mload(0x40)\n      dup1\n      swap2\n      sub\n      swap1\n      return\n        /* \"initial-offering.sol\":1105:1130  uint256 public assetCount */\n    tag_12:\n      callvalue\n      dup1\n      iszero\n      tag_66\n      jumpi\n      0x00\n      dup1\n      revert\n    tag_66:\n      pop\n      tag_67\n      tag_68\n      jump\t// in\n    tag_67:\n      mload(0x40)\n      tag_69\n      swap2\n      swap1\n      tag_29\n      jump\t// in\n    tag_69:\n      mload(0x40)\n      dup1\n      swap2\n      sub\n      swap1\n      return\n        /* \"initial-offering.sol\":5931:6859  function getAssetBids(uint256 _assetId) external view returns (... */\n    tag_18:\n        /* \"initial-offering.sol\":6003:6027  address[] memory bidders */\n      0x60\n        /* \"initial-offering.sol\":6037:6066  uint256[] memory shareAmounts */\n      dup1\n        /* \"initial-offering.sol\":6076:6107  uint256[] memory pricesPerShare */\n      0x60\n        /* \"initial-offering.sol\":6117:6140  bool[] memory allocated */\n      dup1\n        /* \"initial-offering.sol\":6176:6177  0 */\n      0x00\n        /* \"initial-offering.sol\":6165:6173  _assetId */\n      dup6\n        /* \"initial-offering.sol\":6165:6177  _assetId > 0 */\n      gt\n        /* \"initial-offering.sol\":6165:6203  _assetId > 0 && _assetId <= assetCount */\n      dup1\n      iszero\n      tag_71\n      jumpi\n      pop\n        /* \"initial-offering.sol\":6193:6203  assetCount */\n      sload(0x03)\n        /* \"initial-offering.sol\":6181:6189  _assetId */\n      dup6\n        /* \"initial-offering.sol\":6181:6203  _assetId <= assetCount */\n      gt\n      iszero\n        /* \"initial-offering.sol\":6165:6203  _assetId > 0 && _assetId <= assetCount */\n    tag_71:\n        /* \"initial-offering.sol\":6157:6224  require(_assetId > 0 && _assetId <= assetCount, \"Invalid asset ID\") */\n      tag_72\n      jumpi\n      mload(0x40)\n      0x08c379a000000000000000000000000000000000000000000000000000000000\n      dup2\n      mstore\n      0x04\n      add\n      tag_73\n      swap1\n      tag_74\n      jump\t// in\n    tag_73:\n      mload(0x40)\n      dup1\n      swap2\n      sub\n      swap1\n      revert\n    tag_72:\n        /* \"initial-offering.sol\":6243:6261  Bid[] storage bids */\n      0x00\n        /* \"initial-offering.sol\":6264:6273  assetBids */\n      0x02\n        /* \"initial-offering.sol\":6264:6283  assetBids[_assetId] */\n      0x00\n        /* \"initial-offering.sol\":6274:6282  _assetId */\n      dup8\n        /* \"initial-offering.sol\":6264:6283  assetBids[_assetId] */\n      dup2\n      mstore\n      0x20\n      add\n      swap1\n      dup2\n      mstore\n      0x20\n      add\n      0x00\n      keccak256\n        /* \"initial-offering.sol\":6243:6283  Bid[] storage bids = assetBids[_assetId] */\n      swap1\n      pop\n        /* \"initial-offering.sol\":6293:6309  uint256 bidCount */\n      0x00\n        /* \"initial-offering.sol\":6312:6316  bids */\n      dup2\n        /* \"initial-offering.sol\":6312:6323  bids.length */\n      dup1\n      sload\n      swap1\n      pop\n        /* \"initial-offering.sol\":6293:6323  uint256 bidCount = bids.length */\n      swap1\n      pop\n        /* \"initial-offering.sol\":6366:6374  bidCount */\n      dup1\n        /* \"initial-offering.sol\":6352:6375  new address[](bidCount) */\n      0xffffffffffffffff\n      dup2\n      gt\n      iszero\n      tag_75\n      jumpi\n      tag_76\n      tag_77\n      jump\t// in\n    tag_76:\n    tag_75:\n      mload(0x40)\n      swap1\n      dup1\n      dup3\n      mstore\n      dup1\n      0x20\n      mul\n      0x20\n      add\n      dup3\n      add\n      0x40\n      mstore\n      dup1\n      iszero\n      tag_78\n      jumpi\n      dup2\n      0x20\n      add\n      0x20\n      dup3\n      mul\n      dup1\n      calldatasize\n      dup4\n      calldatacopy\n      dup1\n      dup3\n      add\n      swap2\n      pop\n      pop\n      swap1\n      pop\n    tag_78:\n      pop\n        /* \"initial-offering.sol\":6342:6375  bidders = new address[](bidCount) */\n      swap6\n      pop\n        /* \"initial-offering.sol\":6414:6422  bidCount */\n      dup1\n        /* \"initial-offering.sol\":6400:6423  new uint256[](bidCount) */\n      0xffffffffffffffff\n      dup2\n      gt\n      iszero\n      tag_79\n      jumpi\n      tag_80\n      tag_77\n      jump\t// in\n    tag_80:\n    tag_79:\n      mload(0x40)\n      swap1\n      dup1\n      dup3\n      mstore\n      dup1\n      0x20\n      mul\n      0x20\n      add\n      dup3\n      add\n      0x40\n      mstore\n      dup1\n      iszero\n      tag_81\n      jumpi\n      dup2\n      0x20\n      add\n      0x20\n      dup3\n      mul\n      dup1\n      calldatasize\n      dup4\n      calldatacopy\n      dup1\n      dup3\n      add\n      swap2\n      pop\n      pop\n      swap1\n      pop\n    tag_81:\n      pop\n        /* \"initial-offering.sol\":6385:6423  shareAmounts = new uint256[](bidCount) */\n      swap5\n      pop\n        /* \"initial-offering.sol\":6464:6472  bidCount */\n      dup1\n        /* \"initial-offering.sol\":6450:6473  new uint256[](bidCount) */\n      0xffffffffffffffff\n      dup2\n      gt\n      iszero\n      tag_82\n      jumpi\n      tag_83\n      tag_77\n      jump\t// in\n    tag_83:\n    tag_82:\n      mload(0x40)\n      swap1\n      dup1\n      dup3\n      mstore\n      dup1\n      0x20\n      mul\n      0x20\n      add\n      dup3\n      add\n      0x40\n      mstore\n      dup1\n      iszero\n      tag_84\n      jumpi\n      dup2\n      0x20\n      add\n      0x20\n      dup3\n      mul\n      dup1\n      calldatasize\n      dup4\n      calldatacopy\n      dup1\n      dup3\n      add\n      swap2\n      pop\n      pop\n      swap1\n      pop\n    tag_84:\n      pop\n        /* \"initial-offering.sol\":6433:6473  pricesPerShare = new uint256[](bidCount) */\n      swap4\n      pop\n        /* \"initial-offering.sol\":6506:6514  bidCount */\n      dup1\n        /* \"initial-offering.sol\":6495:6515  new bool[](bidCount) */\n      0xffffffffffffffff\n      dup2\n      gt\n      iszero\n      tag_85\n      jumpi\n      tag_86\n      tag_77\n      jump\t// in\n    tag_86:\n    tag_85:\n      mload(0x40)\n      swap1\n      dup1\n      dup3\n      mstore\n      dup1\n      0x20\n      mul\n      0x20\n      add\n      dup3\n      add\n      0x40\n      mstore\n      dup1\n      iszero\n      tag_87\n      jumpi\n      dup2\n      0x20\n      add\n      0x20\n      dup3\n      mul\n      dup1\n      calldatasize\n      dup4\n      calldatacopy\n      dup1\n      dup3\n      add\n      swap2\n      pop\n      pop\n      swap1\n      pop\n    tag_87:\n      pop\n        /* \"initial-offering.sol\":6483:6515  allocated = new bool[](bidCount) */\n      swap3\n      pop\n        /* \"initial-offering.sol\":6539:6548  uint256 i */\n      0x00\n        /* \"initial-offering.sol\":6534:6777  for (uint256 i = 0; i < bidCount; i++) {... */\n    tag_88:\n        /* \"initial-offering.sol\":6558:6566  bidCount */\n      dup2\n        /* \"initial-offering.sol\":6554:6555  i */\n      dup2\n        /* \"initial-offering.sol\":6554:6566  i < bidCount */\n      lt\n        /* \"initial-offering.sol\":6534:6777  for (uint256 i = 0; i < bidCount; i++) {... */\n      iszero\n      tag_89\n      jumpi\n        /* \"initial-offering.sol\":6600:6604  bids */\n      dup3\n        /* \"initial-offering.sol\":6605:6606  i */\n      dup2\n        /* \"initial-offering.sol\":6600:6607  bids[i] */\n      dup2\n      sload\n      dup2\n      lt\n      tag_91\n      jumpi\n      tag_92\n      tag_93\n      jump\t// in\n    tag_92:\n    tag_91:\n      swap1\n      0x00\n      mstore\n      keccak256(0x00, 0x20)\n      swap1\n      0x04\n      mul\n      add\n        /* \"initial-offering.sol\":6600:6614  bids[i].bidder */\n      0x00\n      add\n      0x00\n      swap1\n      sload\n      swap1\n      0x0100\n      exp\n      swap1\n      div\n      0xffffffffffffffffffffffffffffffffffffffff\n      and\n        /* \"initial-offering.sol\":6587:6594  bidders */\n      dup8\n        /* \"initial-offering.sol\":6595:6596  i */\n      dup3\n        /* \"initial-offering.sol\":6587:6597  bidders[i] */\n      dup2\n      mload\n      dup2\n      lt\n      tag_95\n      jumpi\n      tag_96\n      tag_93\n      jump\t// in\n    tag_96:\n    tag_95:\n      0x20\n      mul\n      0x20\n      add\n      add\n        /* \"initial-offering.sol\":6587:6614  bidders[i] = bids[i].bidder */\n      swap1\n      0xffffffffffffffffffffffffffffffffffffffff\n      and\n      swap1\n      dup2\n      0xffffffffffffffffffffffffffffffffffffffff\n      and\n      dup2\n      mstore\n      pop\n      pop\n        /* \"initial-offering.sol\":6646:6650  bids */\n      dup3\n        /* \"initial-offering.sol\":6651:6652  i */\n      dup2\n        /* \"initial-offering.sol\":6646:6653  bids[i] */\n      dup2\n      sload\n      dup2\n      lt\n      tag_97\n      jumpi\n      tag_98\n      tag_93\n      jump\t// in\n    tag_98:\n    tag_97:\n      swap1\n      0x00\n      mstore\n      keccak256(0x00, 0x20)\n      swap1\n      0x04\n      mul\n      add\n        /* \"initial-offering.sol\":6646:6665  bids[i].shareAmount */\n      0x01\n      add\n      sload\n        /* \"initial-offering.sol\":6628:6640  shareAmounts */\n      dup7\n        /* \"initial-offering.sol\":6641:6642  i */\n      dup3\n        /* \"initial-offering.sol\":6628:6643  shareAmounts[i] */\n      dup2\n      mload\n      dup2\n      lt\n      tag_100\n      jumpi\n      tag_101\n      tag_93\n      jump\t// in\n    tag_101:\n    tag_100:\n      0x20\n      mul\n      0x20\n      add\n      add\n        /* \"initial-offering.sol\":6628:6665  shareAmounts[i] = bids[i].shareAmount */\n      dup2\n      dup2\n      mstore\n      pop\n      pop\n        /* \"initial-offering.sol\":6699:6703  bids */\n      dup3\n        /* \"initial-offering.sol\":6704:6705  i */\n      dup2\n        /* \"initial-offering.sol\":6699:6706  bids[i] */\n      dup2\n      sload\n      dup2\n      lt\n      tag_102\n      jumpi\n      tag_103\n      tag_93\n      jump\t// in\n    tag_103:\n    tag_102:\n      swap1\n      0x00\n      mstore\n      keccak256(0x00, 0x20)\n      swap1\n      0x04\n      mul\n      add\n        /* \"initial-offering.sol\":6699:6720  bids[i].pricePerShare */\n      0x02\n      add\n      sload\n        /* \"initial-offering.sol\":6679:6693  pricesPerShare */\n      dup6\n        /* \"initial-offering.sol\":6694:6695  i */\n      dup3\n        /* \"initial-offering.sol\":6679:6696  pricesPerShare[i] */\n      dup2\n      mload\n      dup2\n      lt\n      tag_105\n      jumpi\n      tag_106\n      tag_93\n      jump\t// in\n    tag_106:\n    tag_105:\n      0x20\n      mul\n      0x20\n      add\n      add\n        /* \"initial-offering.sol\":6679:6720  pricesPerShare[i] = bids[i].pricePerShare */\n      dup2\n      dup2\n      mstore\n      pop\n      pop\n        /* \"initial-offering.sol\":6749:6753  bids */\n      dup3\n        /* \"initial-offering.sol\":6754:6755  i */\n      dup2\n        /* \"initial-offering.sol\":6749:6756  bids[i] */\n      dup2\n      sload\n      dup2\n      lt\n      tag_107\n      jumpi\n      tag_108\n      tag_93\n      jump\t// in\n    tag_108:\n    tag_107:\n      swap1\n      0x00\n      mstore\n      keccak256(0x00, 0x20)\n      swap1\n      0x04\n      mul\n      add\n        /* \"initial-offering.sol\":6749:6766  bids[i].allocated */\n      0x03\n      add\n      0x00\n      swap1\n      sload\n      swap1\n      0x0100\n      exp\n      swap1\n      div\n      0xff\n      and\n        /* \"initial-offering.sol\":6734:6743  allocated */\n      dup5\n        /* \"initial-offering.sol\":6744:6745  i */\n      dup3\n        /* \"initial-offering.sol\":6734:6746  allocated[i] */\n      dup2\n      mload\n      dup2\n      lt\n      tag_110\n      jumpi\n      tag_111\n      tag_93\n      jump\t// in\n    tag_111:\n    tag_110:\n      0x20\n      mul\n      0x20\n      add\n      add\n        /* \"initial-offering.sol\":6734:6766  allocated[i] = bids[i].allocated */\n      swap1\n      iszero\n      iszero\n      swap1\n      dup2\n      iszero\n      iszero\n      dup2\n      mstore\n      pop\n      pop\n        /* \"initial-offering.sol\":6568:6571  i++ */\n      dup1\n      dup1\n      0x01\n      add\n      swap2\n      pop\n      pop\n        /* \"initial-offering.sol\":6534:6777  for (uint256 i = 0; i < bidCount; i++) {... */\n      jump(tag_88)\n    tag_89:\n      pop\n        /* \"initial-offering.sol\":6795:6852  return (bidders, shareAmounts, pricesPerShare, allocated) */\n      pop\n      pop\n        /* \"initial-offering.sol\":5931:6859  function getAssetBids(uint256 _assetId) external view returns (... */\n      swap2\n      swap4\n      pop\n      swap2\n      swap4\n      jump\t// out\n        /* \"initial-offering.sol\":6894:7440  function endBidding(uint256 _assetId) external nonReentrant {... */\n    tag_24:\n        /* \"@openzeppelin/contracts/security/ReentrancyGuard.sol\":2261:2282  _nonReentrantBefore() */\n      tag_113\n        /* \"@openzeppelin/contracts/security/ReentrancyGuard.sol\":2261:2280  _nonReentrantBefore */\n      tag_114\n        /* \"@openzeppelin/contracts/security/ReentrancyGuard.sol\":2261:2282  _nonReentrantBefore() */\n      jump\t// in\n    tag_113:\n        /* \"initial-offering.sol\":6964:6983  Asset storage asset */\n      0x00\n        /* \"initial-offering.sol\":6986:6992  assets */\n      0x01\n        /* \"initial-offering.sol\":6986:7002  assets[_assetId] */\n      0x00\n        /* \"initial-offering.sol\":6993:7001  _assetId */\n      dup4\n        /* \"initial-offering.sol\":6986:7002  assets[_assetId] */\n      dup2\n      mstore\n      0x20\n      add\n      swap1\n      dup2\n      mstore\n      0x20\n      add\n      0x00\n      keccak256\n        /* \"initial-offering.sol\":6964:7002  Asset storage asset = assets[_assetId] */\n      swap1\n      pop\n        /* \"initial-offering.sol\":7034:7039  asset */\n      dup1\n        /* \"initial-offering.sol\":7034:7053  asset.originalOwner */\n      0x00\n      add\n      0x00\n      swap1\n      sload\n      swap1\n      0x0100\n      exp\n      swap1\n      div\n      0xffffffffffffffffffffffffffffffffffffffff\n      and\n        /* \"initial-offering.sol\":7020:7053  msg.sender == asset.originalOwner */\n      0xffffffffffffffffffffffffffffffffffffffff\n      and\n        /* \"initial-offering.sol\":7020:7030  msg.sender */\n      caller\n        /* \"initial-offering.sol\":7020:7053  msg.sender == asset.originalOwner */\n      0xffffffffffffffffffffffffffffffffffffffff\n      and\n      eq\n        /* \"initial-offering.sol\":7012:7070  require(msg.sender == asset.originalOwner, \"Unauthorized\") */\n      tag_116\n      jumpi\n      mload(0x40)\n      0x08c379a000000000000000000000000000000000000000000000000000000000\n      dup2\n      mstore\n      0x04\n      add\n      tag_117\n      swap1\n      tag_118\n      jump\t// in\n    tag_117:\n      mload(0x40)\n      dup1\n      swap2\n      sub\n      swap1\n      revert\n    tag_116:\n        /* \"initial-offering.sol\":7089:7094  asset */\n      dup1\n        /* \"initial-offering.sol\":7089:7108  asset.biddingClosed */\n      0x05\n      add\n      0x00\n      swap1\n      sload\n      swap1\n      0x0100\n      exp\n      swap1\n      div\n      0xff\n      and\n        /* \"initial-offering.sol\":7088:7108  !asset.biddingClosed */\n      iszero\n        /* \"initial-offering.sol\":7080:7135  require(!asset.biddingClosed, \"Bidding already closed\") */\n      tag_119\n      jumpi\n      mload(0x40)\n      0x08c379a000000000000000000000000000000000000000000000000000000000\n      dup2\n      mstore\n      0x04\n      add\n      tag_120\n      swap1\n      tag_121\n      jump\t// in\n    tag_120:\n      mload(0x40)\n      dup1\n      swap2\n      sub\n      swap1\n      revert\n    tag_119:\n        /* \"initial-offering.sol\":7210:7214  true */\n      0x01\n        /* \"initial-offering.sol\":7188:7193  asset */\n      dup2\n        /* \"initial-offering.sol\":7188:7207  asset.biddingClosed */\n      0x05\n      add\n      0x00\n        /* \"initial-offering.sol\":7188:7214  asset.biddingClosed = true */\n      0x0100\n      exp\n      dup2\n      sload\n      dup2\n      0xff\n      mul\n      not\n      and\n      swap1\n      dup4\n      iszero\n      iszero\n      mul\n      or\n      swap1\n      sstore\n      pop\n        /* \"initial-offering.sol\":7302:7303  0 */\n      0x00\n        /* \"initial-offering.sol\":7273:7282  assetBids */\n      0x02\n        /* \"initial-offering.sol\":7273:7292  assetBids[_assetId] */\n      0x00\n        /* \"initial-offering.sol\":7283:7291  _assetId */\n      dup5\n        /* \"initial-offering.sol\":7273:7292  assetBids[_assetId] */\n      dup2\n      mstore\n      0x20\n      add\n      swap1\n      dup2\n      mstore\n      0x20\n      add\n      0x00\n      keccak256\n        /* \"initial-offering.sol\":7273:7299  assetBids[_assetId].length */\n      dup1\n      sload\n      swap1\n      pop\n        /* \"initial-offering.sol\":7273:7303  assetBids[_assetId].length > 0 */\n      gt\n        /* \"initial-offering.sol\":7270:7434  if(assetBids[_assetId].length > 0) {... */\n      iszero\n      tag_122\n      jumpi\n        /* \"initial-offering.sol\":7319:7341  _processBids(_assetId) */\n      tag_123\n        /* \"initial-offering.sol\":7332:7340  _assetId */\n      dup3\n        /* \"initial-offering.sol\":7319:7331  _processBids */\n      tag_124\n        /* \"initial-offering.sol\":7319:7341  _processBids(_assetId) */\n      jump\t// in\n    tag_123:\n        /* \"initial-offering.sol\":7270:7434  if(assetBids[_assetId].length > 0) {... */\n      jump(tag_125)\n    tag_122:\n        /* \"initial-offering.sol\":7390:7398  _assetId */\n      dup2\n        /* \"initial-offering.sol\":7377:7423  BiddingEnded(_assetId, false, block.timestamp) */\n      0x4d7a5e450395fb8fb6b67c4751f80f057cd5a74550929306eff2cac7f0ecc188\n        /* \"initial-offering.sol\":7400:7405  false */\n      0x00\n        /* \"initial-offering.sol\":7407:7422  block.timestamp */\n      timestamp\n        /* \"initial-offering.sol\":7377:7423  BiddingEnded(_assetId, false, block.timestamp) */\n      mload(0x40)\n      tag_126\n      swap3\n      swap2\n      swap1\n      tag_127\n      jump\t// in\n    tag_126:\n      mload(0x40)\n      dup1\n      swap2\n      sub\n      swap1\n      log2\n        /* \"initial-offering.sol\":7270:7434  if(assetBids[_assetId].length > 0) {... */\n    tag_125:\n        /* \"initial-offering.sol\":6954:7440  {... */\n      pop\n        /* \"@openzeppelin/contracts/security/ReentrancyGuard.sol\":2303:2323  _nonReentrantAfter() */\n      tag_128\n        /* \"@openzeppelin/contracts/security/ReentrancyGuard.sol\":2303:2321  _nonReentrantAfter */\n      tag_129\n        /* \"@openzeppelin/contracts/security/ReentrancyGuard.sol\":2303:2323  _nonReentrantAfter() */\n      jump\t// in\n    tag_128:\n        /* \"initial-offering.sol\":6894:7440  function endBidding(uint256 _assetId) external nonReentrant {... */\n      pop\n      jump\t// out\n        /* \"initial-offering.sol\":3363:3460  function getLatestAssetCount() external view returns (uint256) {... */\n    tag_27:\n        /* \"initial-offering.sol\":3417:3424  uint256 */\n      0x00\n        /* \"initial-offering.sol\":3443:3453  assetCount */\n      sload(0x03)\n        /* \"initial-offering.sol\":3436:3453  return assetCount */\n      swap1\n      pop\n        /* \"initial-offering.sol\":3363:3460  function getLatestAssetCount() external view returns (uint256) {... */\n      swap1\n      jump\t// out\n        /* \"initial-offering.sol\":1848:3323  function createAssetOffering(... */\n    tag_34:\n        /* \"initial-offering.sol\":2089:2090  0 */\n      0x00\n        /* \"initial-offering.sol\":2074:2086  _totalShares */\n      dup5\n        /* \"initial-offering.sol\":2074:2090  _totalShares > 0 */\n      gt\n        /* \"initial-offering.sol\":2066:2114  require(_totalShares > 0, \"Invalid share count\") */\n      tag_132\n      jumpi\n      mload(0x40)\n      0x08c379a000000000000000000000000000000000000000000000000000000000\n      dup2\n      mstore\n      0x04\n      add\n      tag_133\n      swap1\n      tag_134\n      jump\t// in\n    tag_133:\n      mload(0x40)\n      dup1\n      swap2\n      sub\n      swap1\n      revert\n    tag_132:\n        /* \"initial-offering.sol\":2152:2153  0 */\n      0x00\n        /* \"initial-offering.sol\":2132:2149  _minPricePerShare */\n      dup4\n        /* \"initial-offering.sol\":2132:2153  _minPricePerShare > 0 */\n      gt\n        /* \"initial-offering.sol\":2124:2189  require(_minPricePerShare > 0, \"Invalid minimum price per share\") */\n      tag_135\n      jumpi\n      mload(0x40)\n      0x08c379a000000000000000000000000000000000000000000000000000000000\n      dup2\n      mstore\n      0x04\n      add\n      tag_136\n      swap1\n      tag_137\n      jump\t// in\n    tag_136:\n      mload(0x40)\n      dup1\n      swap2\n      sub\n      swap1\n      revert\n    tag_135:\n        /* \"initial-offering.sol\":2228:2229  0 */\n      0x00\n        /* \"initial-offering.sol\":2207:2225  _minimumTotalPrice */\n      dup3\n        /* \"initial-offering.sol\":2207:2229  _minimumTotalPrice > 0 */\n      gt\n        /* \"initial-offering.sol\":2199:2261  require(_minimumTotalPrice > 0, \"Invalid minimum total price\") */\n      tag_138\n      jumpi\n      mload(0x40)\n      0x08c379a000000000000000000000000000000000000000000000000000000000\n      dup2\n      mstore\n      0x04\n      add\n      tag_139\n      swap1\n      tag_140\n      jump\t// in\n    tag_139:\n      mload(0x40)\n      dup1\n      swap2\n      sub\n      swap1\n      revert\n    tag_138:\n        /* \"initial-offering.sol\":2301:2302  0 */\n      0x00\n        /* \"initial-offering.sol\":2285:2290  _name */\n      dup6\n        /* \"initial-offering.sol\":2279:2298  bytes(_name).length */\n      mload\n        /* \"initial-offering.sol\":2279:2302  bytes(_name).length > 0 */\n      gt\n        /* \"initial-offering.sol\":2271:2327  require(bytes(_name).length > 0, \"Name cannot be empty\") */\n      tag_141\n      jumpi\n      mload(0x40)\n      0x08c379a000000000000000000000000000000000000000000000000000000000\n      dup2\n      mstore\n      0x04\n      add\n      tag_142\n      swap1\n      tag_143\n      jump\t// in\n    tag_142:\n      mload(0x40)\n      dup1\n      swap2\n      sub\n      swap1\n      revert\n    tag_141:\n        /* \"initial-offering.sol\":2346:2356  assetCount */\n      0x03\n      0x00\n        /* \"initial-offering.sol\":2346:2358  assetCount++ */\n      dup2\n      sload\n      dup1\n      swap3\n      swap2\n      swap1\n      tag_144\n      swap1\n      tag_145\n      jump\t// in\n    tag_144:\n      swap2\n      swap1\n      pop\n      sstore\n      pop\n        /* \"initial-offering.sol\":2377:2399  Asset storage newAsset */\n      0x00\n        /* \"initial-offering.sol\":2402:2408  assets */\n      0x01\n        /* \"initial-offering.sol\":2402:2420  assets[assetCount] */\n      0x00\n        /* \"initial-offering.sol\":2409:2419  assetCount */\n      sload(0x03)\n        /* \"initial-offering.sol\":2402:2420  assets[assetCount] */\n      dup2\n      mstore\n      0x20\n      add\n      swap1\n      dup2\n      mstore\n      0x20\n      add\n      0x00\n      keccak256\n        /* \"initial-offering.sol\":2377:2420  Asset storage newAsset = assets[assetCount] */\n      swap1\n      pop\n        /* \"initial-offering.sol\":2455:2465  msg.sender */\n      caller\n        /* \"initial-offering.sol\":2430:2438  newAsset */\n      dup2\n        /* \"initial-offering.sol\":2430:2452  newAsset.originalOwner */\n      0x00\n      add\n      0x00\n        /* \"initial-offering.sol\":2430:2465  newAsset.originalOwner = msg.sender */\n      0x0100\n      exp\n      dup2\n      sload\n      dup2\n      0xffffffffffffffffffffffffffffffffffffffff\n      mul\n      not\n      and\n      swap1\n      dup4\n      0xffffffffffffffffffffffffffffffffffffffff\n      and\n      mul\n      or\n      swap1\n      sstore\n      pop\n        /* \"initial-offering.sol\":2491:2496  _name */\n      dup6\n        /* \"initial-offering.sol\":2475:2483  newAsset */\n      dup2\n        /* \"initial-offering.sol\":2475:2488  newAsset.name */\n      0x01\n      add\n        /* \"initial-offering.sol\":2475:2496  newAsset.name = _name */\n      swap1\n      dup2\n      tag_146\n      swap2\n      swap1\n      tag_147\n      jump\t// in\n    tag_146:\n      pop\n        /* \"initial-offering.sol\":2529:2541  _totalShares */\n      dup5\n        /* \"initial-offering.sol\":2506:2514  newAsset */\n      dup2\n        /* \"initial-offering.sol\":2506:2526  newAsset.totalShares */\n      0x02\n      add\n        /* \"initial-offering.sol\":2506:2541  newAsset.totalShares = _totalShares */\n      dup2\n      swap1\n      sstore\n      pop\n        /* \"initial-offering.sol\":2578:2590  _totalShares */\n      dup5\n        /* \"initial-offering.sol\":2551:2559  newAsset */\n      dup2\n        /* \"initial-offering.sol\":2551:2575  newAsset.sharesRemaining */\n      0x03\n      add\n        /* \"initial-offering.sol\":2551:2590  newAsset.sharesRemaining = _totalShares */\n      dup2\n      swap1\n      sstore\n      pop\n        /* \"initial-offering.sol\":2687:2705  _minimumTotalPrice */\n      dup3\n        /* \"initial-offering.sol\":2658:2666  newAsset */\n      dup2\n        /* \"initial-offering.sol\":2658:2684  newAsset.minimumTotalPrice */\n      0x04\n      add\n        /* \"initial-offering.sol\":2658:2705  newAsset.minimumTotalPrice = _minimumTotalPrice */\n      dup2\n      swap1\n      sstore\n      pop\n        /* \"initial-offering.sol\":2740:2745  false */\n      0x00\n        /* \"initial-offering.sol\":2715:2723  newAsset */\n      dup2\n        /* \"initial-offering.sol\":2715:2737  newAsset.biddingClosed */\n      0x05\n      add\n      0x00\n        /* \"initial-offering.sol\":2715:2745  newAsset.biddingClosed = false */\n      0x0100\n      exp\n      dup2\n      sload\n      dup2\n      0xff\n      mul\n      not\n      and\n      swap1\n      dup4\n      iszero\n      iszero\n      mul\n      or\n      swap1\n      sstore\n      pop\n        /* \"initial-offering.sol\":2799:2815  _biddingDuration */\n      dup2\n        /* \"initial-offering.sol\":2781:2796  block.timestamp */\n      timestamp\n        /* \"initial-offering.sol\":2781:2815  block.timestamp + _biddingDuration */\n      tag_148\n      swap2\n      swap1\n      tag_149\n      jump\t// in\n    tag_148:\n        /* \"initial-offering.sol\":2755:2763  newAsset */\n      dup2\n        /* \"initial-offering.sol\":2755:2778  newAsset.biddingEndTime */\n      0x06\n      add\n        /* \"initial-offering.sol\":2755:2815  newAsset.biddingEndTime = block.timestamp + _biddingDuration */\n      dup2\n      swap1\n      sstore\n      pop\n        /* \"initial-offering.sol\":2908:2916  newAsset */\n      dup1\n        /* \"initial-offering.sol\":2908:2931  newAsset.ownerAddresses */\n      0x07\n      add\n        /* \"initial-offering.sol\":2937:2947  msg.sender */\n      caller\n        /* \"initial-offering.sol\":2908:2948  newAsset.ownerAddresses.push(msg.sender) */\n      swap1\n      dup1\n      0x01\n      dup2\n      sload\n      add\n      dup1\n      dup3\n      sstore\n      dup1\n      swap2\n      pop\n      pop\n      0x01\n      swap1\n      sub\n      swap1\n      0x00\n      mstore\n      keccak256(0x00, 0x20)\n      add\n      0x00\n      swap1\n      swap2\n      swap1\n      swap2\n      swap1\n      swap2\n      0x0100\n      exp\n      dup2\n      sload\n      dup2\n      0xffffffffffffffffffffffffffffffffffffffff\n      mul\n      not\n      and\n      swap1\n      dup4\n      0xffffffffffffffffffffffffffffffffffffffff\n      and\n      mul\n      or\n      swap1\n      sstore\n      pop\n        /* \"initial-offering.sol\":2988:3108  AssetOwner({... */\n      mload(0x40)\n      dup1\n      0x60\n      add\n      0x40\n      mstore\n      dup1\n        /* \"initial-offering.sol\":3027:3037  msg.sender */\n      caller\n        /* \"initial-offering.sol\":2988:3108  AssetOwner({... */\n      0xffffffffffffffffffffffffffffffffffffffff\n      and\n      dup2\n      mstore\n      0x20\n      add\n        /* \"initial-offering.sol\":3059:3071  _totalShares */\n      dup7\n        /* \"initial-offering.sol\":2988:3108  AssetOwner({... */\n      dup2\n      mstore\n      0x20\n      add\n        /* \"initial-offering.sol\":3093:3097  true */\n      0x01\n        /* \"initial-offering.sol\":2988:3108  AssetOwner({... */\n      iszero\n      iszero\n      dup2\n      mstore\n      pop\n        /* \"initial-offering.sol\":2958:2966  newAsset */\n      dup2\n        /* \"initial-offering.sol\":2958:2973  newAsset.owners */\n      0x08\n      add\n        /* \"initial-offering.sol\":2958:2985  newAsset.owners[msg.sender] */\n      0x00\n        /* \"initial-offering.sol\":2974:2984  msg.sender */\n      caller\n        /* \"initial-offering.sol\":2958:2985  newAsset.owners[msg.sender] */\n      0xffffffffffffffffffffffffffffffffffffffff\n      and\n      0xffffffffffffffffffffffffffffffffffffffff\n      and\n      dup2\n      mstore\n      0x20\n      add\n      swap1\n      dup2\n      mstore\n      0x20\n      add\n      0x00\n      keccak256\n        /* \"initial-offering.sol\":2958:3108  newAsset.owners[msg.sender] = AssetOwner({... */\n      0x00\n      dup3\n      add\n      mload\n      dup2\n      0x00\n      add\n      exp(0x0100, 0x00)\n      dup2\n      sload\n      dup2\n      0xffffffffffffffffffffffffffffffffffffffff\n      mul\n      not\n      and\n      swap1\n      dup4\n      0xffffffffffffffffffffffffffffffffffffffff\n      and\n      mul\n      or\n      swap1\n      sstore\n      pop\n      0x20\n      dup3\n      add\n      mload\n      dup2\n      0x01\n      add\n      sstore\n      0x40\n      dup3\n      add\n      mload\n      dup2\n      0x02\n      add\n      exp(0x0100, 0x00)\n      dup2\n      sload\n      dup2\n      0xff\n      mul\n      not\n      and\n      swap1\n      dup4\n      iszero\n      iszero\n      mul\n      or\n      swap1\n      sstore\n      pop\n      swap1\n      pop\n      pop\n        /* \"initial-offering.sol\":3157:3167  msg.sender */\n      caller\n        /* \"initial-offering.sol\":3132:3209  AssetCreated(assetCount, msg.sender, _name, _totalShares, _minimumTotalPrice) */\n      0xffffffffffffffffffffffffffffffffffffffff\n      and\n        /* \"initial-offering.sol\":3145:3155  assetCount */\n      sload(0x03)\n        /* \"initial-offering.sol\":3132:3209  AssetCreated(assetCount, msg.sender, _name, _totalShares, _minimumTotalPrice) */\n      0x01b72beabfa8420e9b47a1c3d6764a97e2044c51b3368b66b161a5fc8ceebccf\n        /* \"initial-offering.sol\":3169:3174  _name */\n      dup9\n        /* \"initial-offering.sol\":3176:3188  _totalShares */\n      dup9\n        /* \"initial-offering.sol\":3190:3208  _minimumTotalPrice */\n      dup8\n        /* \"initial-offering.sol\":3132:3209  AssetCreated(assetCount, msg.sender, _name, _totalShares, _minimumTotalPrice) */\n      mload(0x40)\n      tag_151\n      swap4\n      swap3\n      swap2\n      swap1\n      tag_152\n      jump\t// in\n    tag_151:\n      mload(0x40)\n      dup1\n      swap2\n      sub\n      swap1\n      log3\n        /* \"initial-offering.sol\":3247:3257  msg.sender */\n      caller\n        /* \"initial-offering.sol\":3224:3272  OwnerAdded(assetCount, msg.sender, _totalShares) */\n      0xffffffffffffffffffffffffffffffffffffffff\n      and\n        /* \"initial-offering.sol\":3235:3245  assetCount */\n      sload(0x03)\n        /* \"initial-offering.sol\":3224:3272  OwnerAdded(assetCount, msg.sender, _totalShares) */\n      0x25af9e0275abbb4de910d2062f5dcca6d4c47f1313066083dd9d7077608a7a54\n        /* \"initial-offering.sol\":3259:3271  _totalShares */\n      dup8\n        /* \"initial-offering.sol\":3224:3272  OwnerAdded(assetCount, msg.sender, _totalShares) */\n      mload(0x40)\n      tag_153\n      swap2\n      swap1\n      tag_29\n      jump\t// in\n    tag_153:\n      mload(0x40)\n      dup1\n      swap2\n      sub\n      swap1\n      log3\n        /* \"initial-offering.sol\":3287:3316  AssetCountUpdated(assetCount) */\n      0xdbad7356874fb84060a1e809f3b9f73d977da5f6e62d52682c065d51d15435c6\n        /* \"initial-offering.sol\":3305:3315  assetCount */\n      sload(0x03)\n        /* \"initial-offering.sol\":3287:3316  AssetCountUpdated(assetCount) */\n      mload(0x40)\n      tag_154\n      swap2\n      swap1\n      tag_29\n      jump\t// in\n    tag_154:\n      mload(0x40)\n      dup1\n      swap2\n      sub\n      swap1\n      log1\n        /* \"initial-offering.sol\":2056:3323  {... */\n      pop\n        /* \"initial-offering.sol\":1848:3323  function createAssetOffering(... */\n      pop\n      pop\n      pop\n      pop\n      pop\n      jump\t// out\n        /* \"initial-offering.sol\":5092:5888  function placeBid(uint256 _assetId, uint256 _shareAmount) external payable nonReentrant {... */\n    tag_38:\n        /* \"@openzeppelin/contracts/security/ReentrancyGuard.sol\":2261:2282  _nonReentrantBefore() */\n      tag_156\n        /* \"@openzeppelin/contracts/security/ReentrancyGuard.sol\":2261:2280  _nonReentrantBefore */\n      tag_114\n        /* \"@openzeppelin/contracts/security/ReentrancyGuard.sol\":2261:2282  _nonReentrantBefore() */\n      jump\t// in\n    tag_156:\n        /* \"initial-offering.sol\":5190:5209  Asset storage asset */\n      0x00\n        /* \"initial-offering.sol\":5212:5218  assets */\n      0x01\n        /* \"initial-offering.sol\":5212:5228  assets[_assetId] */\n      0x00\n        /* \"initial-offering.sol\":5219:5227  _assetId */\n      dup5\n        /* \"initial-offering.sol\":5212:5228  assets[_assetId] */\n      dup2\n      mstore\n      0x20\n      add\n      swap1\n      dup2\n      mstore\n      0x20\n      add\n      0x00\n      keccak256\n        /* \"initial-offering.sol\":5190:5228  Asset storage asset = assets[_assetId] */\n      swap1\n      pop\n        /* \"initial-offering.sol\":5247:5252  asset */\n      dup1\n        /* \"initial-offering.sol\":5247:5266  asset.biddingClosed */\n      0x05\n      add\n      0x00\n      swap1\n      sload\n      swap1\n      0x0100\n      exp\n      swap1\n      div\n      0xff\n      and\n        /* \"initial-offering.sol\":5246:5266  !asset.biddingClosed */\n      iszero\n        /* \"initial-offering.sol\":5238:5285  require(!asset.biddingClosed, \"Bidding closed\") */\n      tag_158\n      jumpi\n      mload(0x40)\n      0x08c379a000000000000000000000000000000000000000000000000000000000\n      dup2\n      mstore\n      0x04\n      add\n      tag_159\n      swap1\n      tag_160\n      jump\t// in\n    tag_159:\n      mload(0x40)\n      dup1\n      swap2\n      sub\n      swap1\n      revert\n    tag_158:\n        /* \"initial-offering.sol\":5321:5326  asset */\n      dup1\n        /* \"initial-offering.sol\":5321:5341  asset.biddingEndTime */\n      0x06\n      add\n      sload\n        /* \"initial-offering.sol\":5303:5318  block.timestamp */\n      timestamp\n        /* \"initial-offering.sol\":5303:5341  block.timestamp < asset.biddingEndTime */\n      lt\n        /* \"initial-offering.sol\":5295:5366  require(block.timestamp < asset.biddingEndTime, \"Bidding period ended\") */\n      tag_161\n      jumpi\n      mload(0x40)\n      0x08c379a000000000000000000000000000000000000000000000000000000000\n      dup2\n      mstore\n      0x04\n      add\n      tag_162\n      swap1\n      tag_163\n      jump\t// in\n    tag_162:\n      mload(0x40)\n      dup1\n      swap2\n      sub\n      swap1\n      revert\n    tag_161:\n        /* \"initial-offering.sol\":5399:5400  0 */\n      0x00\n        /* \"initial-offering.sol\":5384:5396  _shareAmount */\n      dup3\n        /* \"initial-offering.sol\":5384:5400  _shareAmount > 0 */\n      gt\n        /* \"initial-offering.sol\":5376:5425  require(_shareAmount > 0, \"Invalid share amount\") */\n      tag_164\n      jumpi\n      mload(0x40)\n      0x08c379a000000000000000000000000000000000000000000000000000000000\n      dup2\n      mstore\n      0x04\n      add\n      tag_165\n      swap1\n      tag_166\n      jump\t// in\n    tag_165:\n      mload(0x40)\n      dup1\n      swap2\n      sub\n      swap1\n      revert\n    tag_164:\n        /* \"initial-offering.sol\":5585:5594  assetBids */\n      0x02\n        /* \"initial-offering.sol\":5585:5604  assetBids[_assetId] */\n      0x00\n        /* \"initial-offering.sol\":5595:5603  _assetId */\n      dup5\n        /* \"initial-offering.sol\":5585:5604  assetBids[_assetId] */\n      dup2\n      mstore\n      0x20\n      add\n      swap1\n      dup2\n      mstore\n      0x20\n      add\n      0x00\n      keccak256\n        /* \"initial-offering.sol\":5610:5782  Bid({... */\n      mload(0x40)\n      dup1\n      0x80\n      add\n      0x40\n      mstore\n      dup1\n        /* \"initial-offering.sol\":5636:5646  msg.sender */\n      caller\n        /* \"initial-offering.sol\":5610:5782  Bid({... */\n      0xffffffffffffffffffffffffffffffffffffffff\n      and\n      dup2\n      mstore\n      0x20\n      add\n        /* \"initial-offering.sol\":5673:5685  _shareAmount */\n      dup5\n        /* \"initial-offering.sol\":5610:5782  Bid({... */\n      dup2\n      mstore\n      0x20\n      add\n        /* \"initial-offering.sol\":5714:5741  msg.value.div(_shareAmount) */\n      tag_167\n        /* \"initial-offering.sol\":5728:5740  _shareAmount */\n      dup6\n        /* \"initial-offering.sol\":5714:5723  msg.value */\n      callvalue\n        /* \"initial-offering.sol\":5714:5727  msg.value.div */\n      tag_168\n      swap1\n        /* \"initial-offering.sol\":5714:5741  msg.value.div(_shareAmount) */\n      swap2\n      swap1\n      0xffffffff\n      and\n      jump\t// in\n    tag_167:\n        /* \"initial-offering.sol\":5610:5782  Bid({... */\n      dup2\n      mstore\n      0x20\n      add\n        /* \"initial-offering.sol\":5766:5771  false */\n      0x00\n        /* \"initial-offering.sol\":5610:5782  Bid({... */\n      iszero\n      iszero\n      dup2\n      mstore\n      pop\n        /* \"initial-offering.sol\":5585:5783  assetBids[_assetId].push(Bid({... */\n      swap1\n      dup1\n      0x01\n      dup2\n      sload\n      add\n      dup1\n      dup3\n      sstore\n      dup1\n      swap2\n      pop\n      pop\n      0x01\n      swap1\n      sub\n      swap1\n      0x00\n      mstore\n      keccak256(0x00, 0x20)\n      swap1\n      0x04\n      mul\n      add\n      0x00\n      swap1\n      swap2\n      swap1\n      swap2\n      swap1\n      swap2\n      pop\n      0x00\n      dup3\n      add\n      mload\n      dup2\n      0x00\n      add\n      exp(0x0100, 0x00)\n      dup2\n      sload\n      dup2\n      0xffffffffffffffffffffffffffffffffffffffff\n      mul\n      not\n      and\n      swap1\n      dup4\n      0xffffffffffffffffffffffffffffffffffffffff\n      and\n      mul\n      or\n      swap1\n      sstore\n      pop\n      0x20\n      dup3\n      add\n      mload\n      dup2\n      0x01\n      add\n      sstore\n      0x40\n      dup3\n      add\n      mload\n      dup2\n      0x02\n      add\n      sstore\n      0x60\n      dup3\n      add\n      mload\n      dup2\n      0x03\n      add\n      exp(0x0100, 0x00)\n      dup2\n      sload\n      dup2\n      0xff\n      mul\n      not\n      and\n      swap1\n      dup4\n      iszero\n      iszero\n      mul\n      or\n      swap1\n      sstore\n      pop\n      pop\n      pop\n        /* \"initial-offering.sol\":5827:5837  msg.sender */\n      caller\n        /* \"initial-offering.sol\":5807:5881  BidPlaced(_assetId, msg.sender, _shareAmount, msg.value.div(_shareAmount)) */\n      0xffffffffffffffffffffffffffffffffffffffff\n      and\n        /* \"initial-offering.sol\":5817:5825  _assetId */\n      dup4\n        /* \"initial-offering.sol\":5807:5881  BidPlaced(_assetId, msg.sender, _shareAmount, msg.value.div(_shareAmount)) */\n      0x51db8e23b3f4479b162fd48823b8402895442b8f6cfd94f66239391881ec7b6f\n        /* \"initial-offering.sol\":5839:5851  _shareAmount */\n      dup5\n        /* \"initial-offering.sol\":5853:5880  msg.value.div(_shareAmount) */\n      tag_170\n        /* \"initial-offering.sol\":5867:5879  _shareAmount */\n      dup7\n        /* \"initial-offering.sol\":5853:5862  msg.value */\n      callvalue\n        /* \"initial-offering.sol\":5853:5866  msg.value.div */\n      tag_168\n      swap1\n        /* \"initial-offering.sol\":5853:5880  msg.value.div(_shareAmount) */\n      swap2\n      swap1\n      0xffffffff\n      and\n      jump\t// in\n    tag_170:\n        /* \"initial-offering.sol\":5807:5881  BidPlaced(_assetId, msg.sender, _shareAmount, msg.value.div(_shareAmount)) */\n      mload(0x40)\n      tag_171\n      swap3\n      swap2\n      swap1\n      tag_172\n      jump\t// in\n    tag_171:\n      mload(0x40)\n      dup1\n      swap2\n      sub\n      swap1\n      log3\n        /* \"initial-offering.sol\":5180:5888  {... */\n      pop\n        /* \"@openzeppelin/contracts/security/ReentrancyGuard.sol\":2303:2323  _nonReentrantAfter() */\n      tag_173\n        /* \"@openzeppelin/contracts/security/ReentrancyGuard.sol\":2303:2321  _nonReentrantAfter */\n      tag_129\n        /* \"@openzeppelin/contracts/security/ReentrancyGuard.sol\":2303:2323  _nonReentrantAfter() */\n      jump\t// in\n    tag_173:\n        /* \"initial-offering.sol\":5092:5888  function placeBid(uint256 _assetId, uint256 _shareAmount) external payable nonReentrant {... */\n      pop\n      pop\n      jump\t// out\n        /* \"initial-offering.sol\":4309:5054  function getAssetOwners(uint256 _assetId) external view returns (... */\n    tag_42:\n        /* \"initial-offering.sol\":4383:4414  address[] memory ownerAddresses */\n      0x60\n        /* \"initial-offering.sol\":4424:4452  uint256[] memory ownerShares */\n      dup1\n        /* \"initial-offering.sol\":4488:4489  0 */\n      0x00\n        /* \"initial-offering.sol\":4477:4485  _assetId */\n      dup4\n        /* \"initial-offering.sol\":4477:4489  _assetId > 0 */\n      gt\n        /* \"initial-offering.sol\":4477:4515  _assetId > 0 && _assetId <= assetCount */\n      dup1\n      iszero\n      tag_175\n      jumpi\n      pop\n        /* \"initial-offering.sol\":4505:4515  assetCount */\n      sload(0x03)\n        /* \"initial-offering.sol\":4493:4501  _assetId */\n      dup4\n        /* \"initial-offering.sol\":4493:4515  _assetId <= assetCount */\n      gt\n      iszero\n        /* \"initial-offering.sol\":4477:4515  _assetId > 0 && _assetId <= assetCount */\n    tag_175:\n        /* \"initial-offering.sol\":4469:4536  require(_assetId > 0 && _assetId <= assetCount, \"Invalid asset ID\") */\n      tag_176\n      jumpi\n      mload(0x40)\n      0x08c379a000000000000000000000000000000000000000000000000000000000\n      dup2\n      mstore\n      0x04\n      add\n      tag_177\n      swap1\n      tag_74\n      jump\t// in\n    tag_177:\n      mload(0x40)\n      dup1\n      swap2\n      sub\n      swap1\n      revert\n    tag_176:\n        /* \"initial-offering.sol\":4546:4565  Asset storage asset */\n      0x00\n        /* \"initial-offering.sol\":4568:4574  assets */\n      0x01\n        /* \"initial-offering.sol\":4568:4584  assets[_assetId] */\n      0x00\n        /* \"initial-offering.sol\":4575:4583  _assetId */\n      dup6\n        /* \"initial-offering.sol\":4568:4584  assets[_assetId] */\n      dup2\n      mstore\n      0x20\n      add\n      swap1\n      dup2\n      mstore\n      0x20\n      add\n      0x00\n      keccak256\n        /* \"initial-offering.sol\":4546:4584  Asset storage asset = assets[_assetId] */\n      swap1\n      pop\n        /* \"initial-offering.sol\":4603:4621  uint256 ownerCount */\n      0x00\n        /* \"initial-offering.sol\":4624:4629  asset */\n      dup2\n        /* \"initial-offering.sol\":4624:4644  asset.ownerAddresses */\n      0x07\n      add\n        /* \"initial-offering.sol\":4624:4651  asset.ownerAddresses.length */\n      dup1\n      sload\n      swap1\n      pop\n        /* \"initial-offering.sol\":4603:4651  uint256 ownerCount = asset.ownerAddresses.length */\n      swap1\n      pop\n        /* \"initial-offering.sol\":4692:4702  ownerCount */\n      dup1\n        /* \"initial-offering.sol\":4678:4703  new address[](ownerCount) */\n      0xffffffffffffffff\n      dup2\n      gt\n      iszero\n      tag_178\n      jumpi\n      tag_179\n      tag_77\n      jump\t// in\n    tag_179:\n    tag_178:\n      mload(0x40)\n      swap1\n      dup1\n      dup3\n      mstore\n      dup1\n      0x20\n      mul\n      0x20\n      add\n      dup3\n      add\n      0x40\n      mstore\n      dup1\n      iszero\n      tag_180\n      jumpi\n      dup2\n      0x20\n      add\n      0x20\n      dup3\n      mul\n      dup1\n      calldatasize\n      dup4\n      calldatacopy\n      dup1\n      dup3\n      add\n      swap2\n      pop\n      pop\n      swap1\n      pop\n    tag_180:\n      pop\n        /* \"initial-offering.sol\":4661:4703  ownerAddresses = new address[](ownerCount) */\n      swap4\n      pop\n        /* \"initial-offering.sol\":4741:4751  ownerCount */\n      dup1\n        /* \"initial-offering.sol\":4727:4752  new uint256[](ownerCount) */\n      0xffffffffffffffff\n      dup2\n      gt\n      iszero\n      tag_181\n      jumpi\n      tag_182\n      tag_77\n      jump\t// in\n    tag_182:\n    tag_181:\n      mload(0x40)\n      swap1\n      dup1\n      dup3\n      mstore\n      dup1\n      0x20\n      mul\n      0x20\n      add\n      dup3\n      add\n      0x40\n      mstore\n      dup1\n      iszero\n      tag_183\n      jumpi\n      dup2\n      0x20\n      add\n      0x20\n      dup3\n      mul\n      dup1\n      calldatasize\n      dup4\n      calldatacopy\n      dup1\n      dup3\n      add\n      swap2\n      pop\n      pop\n      swap1\n      pop\n    tag_183:\n      pop\n        /* \"initial-offering.sol\":4713:4752  ownerShares = new uint256[](ownerCount) */\n      swap3\n      pop\n        /* \"initial-offering.sol\":4776:4785  uint256 i */\n      0x00\n        /* \"initial-offering.sol\":4771:4993  for (uint256 i = 0; i < ownerCount; i++) {... */\n    tag_184:\n        /* \"initial-offering.sol\":4795:4805  ownerCount */\n      dup2\n        /* \"initial-offering.sol\":4791:4792  i */\n      dup2\n        /* \"initial-offering.sol\":4791:4805  i < ownerCount */\n      lt\n        /* \"initial-offering.sol\":4771:4993  for (uint256 i = 0; i < ownerCount; i++) {... */\n      iszero\n      tag_185\n      jumpi\n        /* \"initial-offering.sol\":4826:4846  address ownerAddress */\n      0x00\n        /* \"initial-offering.sol\":4849:4854  asset */\n      dup4\n        /* \"initial-offering.sol\":4849:4869  asset.ownerAddresses */\n      0x07\n      add\n        /* \"initial-offering.sol\":4870:4871  i */\n      dup3\n        /* \"initial-offering.sol\":4849:4872  asset.ownerAddresses[i] */\n      dup2\n      sload\n      dup2\n      lt\n      tag_187\n      jumpi\n      tag_188\n      tag_93\n      jump\t// in\n    tag_188:\n    tag_187:\n      swap1\n      0x00\n      mstore\n      keccak256(0x00, 0x20)\n      add\n      0x00\n      swap1\n      sload\n      swap1\n      0x0100\n      exp\n      swap1\n      div\n      0xffffffffffffffffffffffffffffffffffffffff\n      and\n        /* \"initial-offering.sol\":4826:4872  address ownerAddress = asset.ownerAddresses[i] */\n      swap1\n      pop\n        /* \"initial-offering.sol\":4906:4918  ownerAddress */\n      dup1\n        /* \"initial-offering.sol\":4886:4900  ownerAddresses */\n      dup7\n        /* \"initial-offering.sol\":4901:4902  i */\n      dup4\n        /* \"initial-offering.sol\":4886:4903  ownerAddresses[i] */\n      dup2\n      mload\n      dup2\n      lt\n      tag_190\n      jumpi\n      tag_191\n      tag_93\n      jump\t// in\n    tag_191:\n    tag_190:\n      0x20\n      mul\n      0x20\n      add\n      add\n        /* \"initial-offering.sol\":4886:4918  ownerAddresses[i] = ownerAddress */\n      swap1\n      0xffffffffffffffffffffffffffffffffffffffff\n      and\n      swap1\n      dup2\n      0xffffffffffffffffffffffffffffffffffffffff\n      and\n      dup2\n      mstore\n      pop\n      pop\n        /* \"initial-offering.sol\":4949:4954  asset */\n      dup4\n        /* \"initial-offering.sol\":4949:4961  asset.owners */\n      0x08\n      add\n        /* \"initial-offering.sol\":4949:4975  asset.owners[ownerAddress] */\n      0x00\n        /* \"initial-offering.sol\":4962:4974  ownerAddress */\n      dup3\n        /* \"initial-offering.sol\":4949:4975  asset.owners[ownerAddress] */\n      0xffffffffffffffffffffffffffffffffffffffff\n      and\n      0xffffffffffffffffffffffffffffffffffffffff\n      and\n      dup2\n      mstore\n      0x20\n      add\n      swap1\n      dup2\n      mstore\n      0x20\n      add\n      0x00\n      keccak256\n        /* \"initial-offering.sol\":4949:4982  asset.owners[ownerAddress].shares */\n      0x01\n      add\n      sload\n        /* \"initial-offering.sol\":4932:4943  ownerShares */\n      dup6\n        /* \"initial-offering.sol\":4944:4945  i */\n      dup4\n        /* \"initial-offering.sol\":4932:4946  ownerShares[i] */\n      dup2\n      mload\n      dup2\n      lt\n      tag_192\n      jumpi\n      tag_193\n      tag_93\n      jump\t// in\n    tag_193:\n    tag_192:\n      0x20\n      mul\n      0x20\n      add\n      add\n        /* \"initial-offering.sol\":4932:4982  ownerShares[i] = asset.owners[ownerAddress].shares */\n      dup2\n      dup2\n      mstore\n      pop\n      pop\n        /* \"initial-offering.sol\":4812:4993  {... */\n      pop\n        /* \"initial-offering.sol\":4807:4810  i++ */\n      dup1\n      dup1\n      0x01\n      add\n      swap2\n      pop\n      pop\n        /* \"initial-offering.sol\":4771:4993  for (uint256 i = 0; i < ownerCount; i++) {... */\n      jump(tag_184)\n    tag_185:\n      pop\n        /* \"initial-offering.sol\":5011:5047  return (ownerAddresses, ownerShares) */\n      pop\n      pop\n        /* \"initial-offering.sol\":4309:5054  function getAssetOwners(uint256 _assetId) external view returns (... */\n      swap2\n      pop\n      swap2\n      jump\t// out\n        /* \"initial-offering.sol\":1057:1099  mapping(uint256 => Bid[]) public assetBids */\n    tag_48:\n      mstore(0x20, 0x02)\n      dup2\n      0x00\n      mstore\n      keccak256(0x00, 0x40)\n      dup2\n      dup2\n      sload\n      dup2\n      lt\n      tag_194\n      jumpi\n      0x00\n      dup1\n      revert\n    tag_194:\n      swap1\n      0x00\n      mstore\n      keccak256(0x00, 0x20)\n      swap1\n      0x04\n      mul\n      add\n      0x00\n      swap2\n      pop\n      swap2\n      pop\n      pop\n      dup1\n      0x00\n      add\n      0x00\n      swap1\n      sload\n      swap1\n      0x0100\n      exp\n      swap1\n      div\n      0xffffffffffffffffffffffffffffffffffffffff\n      and\n      swap1\n      dup1\n      0x01\n      add\n      sload\n      swap1\n      dup1\n      0x02\n      add\n      sload\n      swap1\n      dup1\n      0x03\n      add\n      0x00\n      swap1\n      sload\n      swap1\n      0x0100\n      exp\n      swap1\n      div\n      0xff\n      and\n      swap1\n      pop\n      dup5\n      jump\t// out\n        /* \"initial-offering.sol\":3501:4265  function getAssetBasicDetails(uint256 _assetId) external view returns (... */\n    tag_54:\n        /* \"initial-offering.sol\":3581:3602  address originalOwner */\n      0x00\n        /* \"initial-offering.sol\":3612:3630  string memory name */\n      0x60\n        /* \"initial-offering.sol\":3640:3659  uint256 totalShares */\n      0x00\n        /* \"initial-offering.sol\":3669:3692  uint256 sharesRemaining */\n      dup1\n        /* \"initial-offering.sol\":3739:3764  uint256 minimumTotalPrice */\n      0x00\n        /* \"initial-offering.sol\":3774:3792  bool biddingClosed */\n      dup1\n        /* \"initial-offering.sol\":3802:3824  uint256 biddingEndTime */\n      0x00\n        /* \"initial-offering.sol\":3860:3861  0 */\n      dup1\n        /* \"initial-offering.sol\":3849:3857  _assetId */\n      dup9\n        /* \"initial-offering.sol\":3849:3861  _assetId > 0 */\n      gt\n        /* \"initial-offering.sol\":3849:3887  _assetId > 0 && _assetId <= assetCount */\n      dup1\n      iszero\n      tag_197\n      jumpi\n      pop\n        /* \"initial-offering.sol\":3877:3887  assetCount */\n      sload(0x03)\n        /* \"initial-offering.sol\":3865:3873  _assetId */\n      dup9\n        /* \"initial-offering.sol\":3865:3887  _assetId <= assetCount */\n      gt\n      iszero\n        /* \"initial-offering.sol\":3849:3887  _assetId > 0 && _assetId <= assetCount */\n    tag_197:\n        /* \"initial-offering.sol\":3841:3908  require(_assetId > 0 && _assetId <= assetCount, \"Invalid asset ID\") */\n      tag_198\n      jumpi\n      mload(0x40)\n      0x08c379a000000000000000000000000000000000000000000000000000000000\n      dup2\n      mstore\n      0x04\n      add\n      tag_199\n      swap1\n      tag_74\n      jump\t// in\n    tag_199:\n      mload(0x40)\n      dup1\n      swap2\n      sub\n      swap1\n      revert\n    tag_198:\n        /* \"initial-offering.sol\":3918:3937  Asset storage asset */\n      0x00\n        /* \"initial-offering.sol\":3940:3946  assets */\n      0x01\n        /* \"initial-offering.sol\":3940:3956  assets[_assetId] */\n      0x00\n        /* \"initial-offering.sol\":3947:3955  _assetId */\n      dup11\n        /* \"initial-offering.sol\":3940:3956  assets[_assetId] */\n      dup2\n      mstore\n      0x20\n      add\n      swap1\n      dup2\n      mstore\n      0x20\n      add\n      0x00\n      keccak256\n        /* \"initial-offering.sol\":3918:3956  Asset storage asset = assets[_assetId] */\n      swap1\n      pop\n        /* \"initial-offering.sol\":3996:4001  asset */\n      dup1\n        /* \"initial-offering.sol\":3996:4015  asset.originalOwner */\n      0x00\n      add\n      0x00\n      swap1\n      sload\n      swap1\n      0x0100\n      exp\n      swap1\n      div\n      0xffffffffffffffffffffffffffffffffffffffff\n      and\n        /* \"initial-offering.sol\":4029:4034  asset */\n      dup2\n        /* \"initial-offering.sol\":4029:4039  asset.name */\n      0x01\n      add\n        /* \"initial-offering.sol\":4053:4058  asset */\n      dup3\n        /* \"initial-offering.sol\":4053:4070  asset.totalShares */\n      0x02\n      add\n      sload\n        /* \"initial-offering.sol\":4084:4089  asset */\n      dup4\n        /* \"initial-offering.sol\":4084:4105  asset.sharesRemaining */\n      0x03\n      add\n      sload\n        /* \"initial-offering.sol\":4158:4163  asset */\n      dup5\n        /* \"initial-offering.sol\":4158:4181  asset.minimumTotalPrice */\n      0x04\n      add\n      sload\n        /* \"initial-offering.sol\":4195:4200  asset */\n      dup6\n        /* \"initial-offering.sol\":4195:4214  asset.biddingClosed */\n      0x05\n      add\n      0x00\n      swap1\n      sload\n      swap1\n      0x0100\n      exp\n      swap1\n      div\n      0xff\n      and\n        /* \"initial-offering.sol\":4228:4233  asset */\n      dup7\n        /* \"initial-offering.sol\":4228:4248  asset.biddingEndTime */\n      0x06\n      add\n      sload\n        /* \"initial-offering.sol\":3975:4258  return (... */\n      dup6\n      dup1\n      sload\n      tag_200\n      swap1\n      tag_201\n      jump\t// in\n    tag_200:\n      dup1\n      0x1f\n      add\n      0x20\n      dup1\n      swap2\n      div\n      mul\n      0x20\n      add\n      mload(0x40)\n      swap1\n      dup2\n      add\n      0x40\n      mstore\n      dup1\n      swap3\n      swap2\n      swap1\n      dup2\n      dup2\n      mstore\n      0x20\n      add\n      dup3\n      dup1\n      sload\n      tag_202\n      swap1\n      tag_201\n      jump\t// in\n    tag_202:\n      dup1\n      iszero\n      tag_203\n      jumpi\n      dup1\n      0x1f\n      lt\n      tag_204\n      jumpi\n      0x0100\n      dup1\n      dup4\n      sload\n      div\n      mul\n      dup4\n      mstore\n      swap2\n      0x20\n      add\n      swap2\n      jump(tag_203)\n    tag_204:\n      dup3\n      add\n      swap2\n      swap1\n      0x00\n      mstore\n      keccak256(0x00, 0x20)\n      swap1\n    tag_205:\n      dup2\n      sload\n      dup2\n      mstore\n      swap1\n      0x01\n      add\n      swap1\n      0x20\n      add\n      dup1\n      dup4\n      gt\n      tag_205\n      jumpi\n      dup3\n      swap1\n      sub\n      0x1f\n      and\n      dup3\n      add\n      swap2\n    tag_203:\n      pop\n      pop\n      pop\n      pop\n      pop\n      swap6\n      pop\n      swap8\n      pop\n      swap8\n      pop\n      swap8\n      pop\n      swap8\n      pop\n      swap8\n      pop\n      swap8\n      pop\n      swap8\n      pop\n      pop\n        /* \"initial-offering.sol\":3501:4265  function getAssetBasicDetails(uint256 _assetId) external view returns (... */\n      swap2\n      swap4\n      swap6\n      swap8\n      swap1\n      swap3\n      swap5\n      swap7\n      pop\n      jump\t// out\n        /* \"initial-offering.sol\":7484:8118  function executeBidding(uint256 _assetId) external nonReentrant {... */\n    tag_60:\n        /* \"@openzeppelin/contracts/security/ReentrancyGuard.sol\":2261:2282  _nonReentrantBefore() */\n      tag_207\n        /* \"@openzeppelin/contracts/security/ReentrancyGuard.sol\":2261:2280  _nonReentrantBefore */\n      tag_114\n        /* \"@openzeppelin/contracts/security/ReentrancyGuard.sol\":2261:2282  _nonReentrantBefore() */\n      jump\t// in\n    tag_207:\n        /* \"initial-offering.sol\":7558:7577  Asset storage asset */\n      0x00\n        /* \"initial-offering.sol\":7580:7586  assets */\n      0x01\n        /* \"initial-offering.sol\":7580:7596  assets[_assetId] */\n      0x00\n        /* \"initial-offering.sol\":7587:7595  _assetId */\n      dup4\n        /* \"initial-offering.sol\":7580:7596  assets[_assetId] */\n      dup2\n      mstore\n      0x20\n      add\n      swap1\n      dup2\n      mstore\n      0x20\n      add\n      0x00\n      keccak256\n        /* \"initial-offering.sol\":7558:7596  Asset storage asset = assets[_assetId] */\n      swap1\n      pop\n        /* \"initial-offering.sol\":7628:7633  asset */\n      dup1\n        /* \"initial-offering.sol\":7628:7647  asset.originalOwner */\n      0x00\n      add\n      0x00\n      swap1\n      sload\n      swap1\n      0x0100\n      exp\n      swap1\n      div\n      0xffffffffffffffffffffffffffffffffffffffff\n      and\n        /* \"initial-offering.sol\":7614:7647  msg.sender == asset.originalOwner */\n      0xffffffffffffffffffffffffffffffffffffffff\n      and\n        /* \"initial-offering.sol\":7614:7624  msg.sender */\n      caller\n        /* \"initial-offering.sol\":7614:7647  msg.sender == asset.originalOwner */\n      0xffffffffffffffffffffffffffffffffffffffff\n      and\n      eq\n        /* \"initial-offering.sol\":7606:7664  require(msg.sender == asset.originalOwner, \"Unauthorized\") */\n      tag_209\n      jumpi\n      mload(0x40)\n      0x08c379a000000000000000000000000000000000000000000000000000000000\n      dup2\n      mstore\n      0x04\n      add\n      tag_210\n      swap1\n      tag_118\n      jump\t// in\n    tag_210:\n      mload(0x40)\n      dup1\n      swap2\n      sub\n      swap1\n      revert\n    tag_209:\n        /* \"initial-offering.sol\":7683:7688  asset */\n      dup1\n        /* \"initial-offering.sol\":7683:7702  asset.biddingClosed */\n      0x05\n      add\n      0x00\n      swap1\n      sload\n      swap1\n      0x0100\n      exp\n      swap1\n      div\n      0xff\n      and\n        /* \"initial-offering.sol\":7682:7702  !asset.biddingClosed */\n      iszero\n        /* \"initial-offering.sol\":7674:7729  require(!asset.biddingClosed, \"Bidding already closed\") */\n      tag_211\n      jumpi\n      mload(0x40)\n      0x08c379a000000000000000000000000000000000000000000000000000000000\n      dup2\n      mstore\n      0x04\n      add\n      tag_212\n      swap1\n      tag_121\n      jump\t// in\n    tag_212:\n      mload(0x40)\n      dup1\n      swap2\n      sub\n      swap1\n      revert\n    tag_211:\n        /* \"initial-offering.sol\":7766:7771  asset */\n      dup1\n        /* \"initial-offering.sol\":7766:7786  asset.biddingEndTime */\n      0x06\n      add\n      sload\n        /* \"initial-offering.sol\":7747:7762  block.timestamp */\n      timestamp\n        /* \"initial-offering.sol\":7747:7786  block.timestamp >= asset.biddingEndTime */\n      lt\n      iszero\n        /* \"initial-offering.sol\":7739:7813  require(block.timestamp >= asset.biddingEndTime, \"Bidding period ongoing\") */\n      tag_213\n      jumpi\n      mload(0x40)\n      0x08c379a000000000000000000000000000000000000000000000000000000000\n      dup2\n      mstore\n      0x04\n      add\n      tag_214\n      swap1\n      tag_215\n      jump\t// in\n    tag_214:\n      mload(0x40)\n      dup1\n      swap2\n      sub\n      swap1\n      revert\n    tag_213:\n        /* \"initial-offering.sol\":7888:7892  true */\n      0x01\n        /* \"initial-offering.sol\":7866:7871  asset */\n      dup2\n        /* \"initial-offering.sol\":7866:7885  asset.biddingClosed */\n      0x05\n      add\n      0x00\n        /* \"initial-offering.sol\":7866:7892  asset.biddingClosed = true */\n      0x0100\n      exp\n      dup2\n      sload\n      dup2\n      0xff\n      mul\n      not\n      and\n      swap1\n      dup4\n      iszero\n      iszero\n      mul\n      or\n      swap1\n      sstore\n      pop\n        /* \"initial-offering.sol\":7980:7981  0 */\n      0x00\n        /* \"initial-offering.sol\":7951:7960  assetBids */\n      0x02\n        /* \"initial-offering.sol\":7951:7970  assetBids[_assetId] */\n      0x00\n        /* \"initial-offering.sol\":7961:7969  _assetId */\n      dup5\n        /* \"initial-offering.sol\":7951:7970  assetBids[_assetId] */\n      dup2\n      mstore\n      0x20\n      add\n      swap1\n      dup2\n      mstore\n      0x20\n      add\n      0x00\n      keccak256\n        /* \"initial-offering.sol\":7951:7977  assetBids[_assetId].length */\n      dup1\n      sload\n      swap1\n      pop\n        /* \"initial-offering.sol\":7951:7981  assetBids[_assetId].length > 0 */\n      gt\n        /* \"initial-offering.sol\":7948:8112  if(assetBids[_assetId].length > 0) {... */\n      iszero\n      tag_216\n      jumpi\n        /* \"initial-offering.sol\":7997:8019  _processBids(_assetId) */\n      tag_217\n        /* \"initial-offering.sol\":8010:8018  _assetId */\n      dup3\n        /* \"initial-offering.sol\":7997:8009  _processBids */\n      tag_124\n        /* \"initial-offering.sol\":7997:8019  _processBids(_assetId) */\n      jump\t// in\n    tag_217:\n        /* \"initial-offering.sol\":7948:8112  if(assetBids[_assetId].length > 0) {... */\n      jump(tag_218)\n    tag_216:\n        /* \"initial-offering.sol\":8068:8076  _assetId */\n      dup2\n        /* \"initial-offering.sol\":8055:8101  BiddingEnded(_assetId, false, block.timestamp) */\n      0x4d7a5e450395fb8fb6b67c4751f80f057cd5a74550929306eff2cac7f0ecc188\n        /* \"initial-offering.sol\":8078:8083  false */\n      0x00\n        /* \"initial-offering.sol\":8085:8100  block.timestamp */\n      timestamp\n        /* \"initial-offering.sol\":8055:8101  BiddingEnded(_assetId, false, block.timestamp) */\n      mload(0x40)\n      tag_219\n      swap3\n      swap2\n      swap1\n      tag_127\n      jump\t// in\n    tag_219:\n      mload(0x40)\n      dup1\n      swap2\n      sub\n      swap1\n      log2\n        /* \"initial-offering.sol\":7948:8112  if(assetBids[_assetId].length > 0) {... */\n    tag_218:\n        /* \"initial-offering.sol\":7548:8118  {... */\n      pop\n        /* \"@openzeppelin/contracts/security/ReentrancyGuard.sol\":2303:2323  _nonReentrantAfter() */\n      tag_220\n        /* \"@openzeppelin/contracts/security/ReentrancyGuard.sol\":2303:2321  _nonReentrantAfter */\n      tag_129\n        /* \"@openzeppelin/contracts/security/ReentrancyGuard.sol\":2303:2323  _nonReentrantAfter() */\n      jump\t// in\n    tag_220:\n        /* \"initial-offering.sol\":7484:8118  function executeBidding(uint256 _assetId) external nonReentrant {... */\n      pop\n      jump\t// out\n        /* \"initial-offering.sol\":1012:1051  mapping(uint256 => Asset) public assets */\n    tag_64:\n      mstore(0x20, 0x01)\n      dup1\n      0x00\n      mstore\n      keccak256(0x00, 0x40)\n      0x00\n      swap2\n      pop\n      swap1\n      pop\n      dup1\n      0x00\n      add\n      0x00\n      swap1\n      sload\n      swap1\n      0x0100\n      exp\n      swap1\n      div\n      0xffffffffffffffffffffffffffffffffffffffff\n      and\n      swap1\n      dup1\n      0x01\n      add\n      dup1\n      sload\n      tag_221\n      swap1\n      tag_201\n      jump\t// in\n    tag_221:\n      dup1\n      0x1f\n      add\n      0x20\n      dup1\n      swap2\n      div\n      mul\n      0x20\n      add\n      mload(0x40)\n      swap1\n      dup2\n      add\n      0x40\n      mstore\n      dup1\n      swap3\n      swap2\n      swap1\n      dup2\n      dup2\n      mstore\n      0x20\n      add\n      dup3\n      dup1\n      sload\n      tag_222\n      swap1\n      tag_201\n      jump\t// in\n    tag_222:\n      dup1\n      iszero\n      tag_223\n      jumpi\n      dup1\n      0x1f\n      lt\n      tag_224\n      jumpi\n      0x0100\n      dup1\n      dup4\n      sload\n      div\n      mul\n      dup4\n      mstore\n      swap2\n      0x20\n      add\n      swap2\n      jump(tag_223)\n    tag_224:\n      dup3\n      add\n      swap2\n      swap1\n      0x00\n      mstore\n      keccak256(0x00, 0x20)\n      swap1\n    tag_225:\n      dup2\n      sload\n      dup2\n      mstore\n      swap1\n      0x01\n      add\n      swap1\n      0x20\n      add\n      dup1\n      dup4\n      gt\n      tag_225\n      jumpi\n      dup3\n      swap1\n      sub\n      0x1f\n      and\n      dup3\n      add\n      swap2\n    tag_223:\n      pop\n      pop\n      pop\n      pop\n      pop\n      swap1\n      dup1\n      0x02\n      add\n      sload\n      swap1\n      dup1\n      0x03\n      add\n      sload\n      swap1\n      dup1\n      0x04\n      add\n      sload\n      swap1\n      dup1\n      0x05\n      add\n      0x00\n      swap1\n      sload\n      swap1\n      0x0100\n      exp\n      swap1\n      div\n      0xff\n      and\n      swap1\n      dup1\n      0x06\n      add\n      sload\n      swap1\n      pop\n      dup8\n      jump\t// out\n        /* \"initial-offering.sol\":1105:1130  uint256 public assetCount */\n    tag_68:\n      sload(0x03)\n      dup2\n      jump\t// out\n        /* \"@openzeppelin/contracts/security/ReentrancyGuard.sol\":2336:2623  function _nonReentrantBefore() private {... */\n    tag_114:\n        /* \"@openzeppelin/contracts/security/ReentrancyGuard.sol\":1759:1760  2 */\n      0x02\n        /* \"@openzeppelin/contracts/security/ReentrancyGuard.sol\":2468:2475  _status */\n      sload(0x00)\n        /* \"@openzeppelin/contracts/security/ReentrancyGuard.sol\":2468:2487  _status != _ENTERED */\n      sub\n        /* \"@openzeppelin/contracts/security/ReentrancyGuard.sol\":2460:2523  require(_status != _ENTERED, \"ReentrancyGuard: reentrant call\") */\n      tag_227\n      jumpi\n      mload(0x40)\n      0x08c379a000000000000000000000000000000000000000000000000000000000\n      dup2\n      mstore\n      0x04\n      add\n      tag_228\n      swap1\n      tag_229\n      jump\t// in\n    tag_228:\n      mload(0x40)\n      dup1\n      swap2\n      sub\n      swap1\n      revert\n    tag_227:\n        /* \"@openzeppelin/contracts/security/ReentrancyGuard.sol\":1759:1760  2 */\n      0x02\n        /* \"@openzeppelin/contracts/security/ReentrancyGuard.sol\":2598:2605  _status */\n      0x00\n        /* \"@openzeppelin/contracts/security/ReentrancyGuard.sol\":2598:2616  _status = _ENTERED */\n      dup2\n      swap1\n      sstore\n      pop\n        /* \"@openzeppelin/contracts/security/ReentrancyGuard.sol\":2336:2623  function _nonReentrantBefore() private {... */\n      jump\t// out\n        /* \"initial-offering.sol\":8169:12169  function _processBids(uint256 _assetId) internal {... */\n    tag_124:\n        /* \"initial-offering.sol\":8228:8247  Asset storage asset */\n      0x00\n        /* \"initial-offering.sol\":8250:8256  assets */\n      0x01\n        /* \"initial-offering.sol\":8250:8266  assets[_assetId] */\n      0x00\n        /* \"initial-offering.sol\":8257:8265  _assetId */\n      dup4\n        /* \"initial-offering.sol\":8250:8266  assets[_assetId] */\n      dup2\n      mstore\n      0x20\n      add\n      swap1\n      dup2\n      mstore\n      0x20\n      add\n      0x00\n      keccak256\n        /* \"initial-offering.sol\":8228:8266  Asset storage asset = assets[_assetId] */\n      swap1\n      pop\n        /* \"initial-offering.sol\":8335:8354  _sortBids(_assetId) */\n      tag_231\n        /* \"initial-offering.sol\":8345:8353  _assetId */\n      dup3\n        /* \"initial-offering.sol\":8335:8344  _sortBids */\n      tag_232\n        /* \"initial-offering.sol\":8335:8354  _sortBids(_assetId) */\n      jump\t// in\n    tag_231:\n        /* \"initial-offering.sol\":8373:8391  Bid[] storage bids */\n      0x00\n        /* \"initial-offering.sol\":8394:8403  assetBids */\n      0x02\n        /* \"initial-offering.sol\":8394:8413  assetBids[_assetId] */\n      0x00\n        /* \"initial-offering.sol\":8404:8412  _assetId */\n      dup5\n        /* \"initial-offering.sol\":8394:8413  assetBids[_assetId] */\n      dup2\n      mstore\n      0x20\n      add\n      swap1\n      dup2\n      mstore\n      0x20\n      add\n      0x00\n      keccak256\n        /* \"initial-offering.sol\":8373:8413  Bid[] storage bids = assetBids[_assetId] */\n      swap1\n      pop\n        /* \"initial-offering.sol\":8521:8542  uint256 totalBidValue */\n      0x00\n        /* \"initial-offering.sol\":8556:8580  uint256 sharesToAllocate */\n      dup1\n        /* \"initial-offering.sol\":8583:8588  asset */\n      dup4\n        /* \"initial-offering.sol\":8583:8604  asset.sharesRemaining */\n      0x03\n      add\n      sload\n        /* \"initial-offering.sol\":8556:8604  uint256 sharesToAllocate = asset.sharesRemaining */\n      swap1\n      pop\n        /* \"initial-offering.sol\":8627:8636  uint256 i */\n      0x00\n        /* \"initial-offering.sol\":8623:9119  for(uint256 i = 0; i < bids.length && sharesToAllocate > 0; i++) {... */\n    tag_233:\n        /* \"initial-offering.sol\":8646:8650  bids */\n      dup4\n        /* \"initial-offering.sol\":8646:8657  bids.length */\n      dup1\n      sload\n      swap1\n      pop\n        /* \"initial-offering.sol\":8642:8643  i */\n      dup2\n        /* \"initial-offering.sol\":8642:8657  i < bids.length */\n      lt\n        /* \"initial-offering.sol\":8642:8681  i < bids.length && sharesToAllocate > 0 */\n      dup1\n      iszero\n      tag_236\n      jumpi\n      pop\n        /* \"initial-offering.sol\":8680:8681  0 */\n      0x00\n        /* \"initial-offering.sol\":8661:8677  sharesToAllocate */\n      dup3\n        /* \"initial-offering.sol\":8661:8681  sharesToAllocate > 0 */\n      gt\n        /* \"initial-offering.sol\":8642:8681  i < bids.length && sharesToAllocate > 0 */\n    tag_236:\n        /* \"initial-offering.sol\":8623:9119  for(uint256 i = 0; i < bids.length && sharesToAllocate > 0; i++) {... */\n      iszero\n      tag_234\n      jumpi\n        /* \"initial-offering.sol\":8702:8717  Bid storage bid */\n      0x00\n        /* \"initial-offering.sol\":8720:8724  bids */\n      dup5\n        /* \"initial-offering.sol\":8725:8726  i */\n      dup3\n        /* \"initial-offering.sol\":8720:8727  bids[i] */\n      dup2\n      sload\n      dup2\n      lt\n      tag_237\n      jumpi\n      tag_238\n      tag_93\n      jump\t// in\n    tag_238:\n    tag_237:\n      swap1\n      0x00\n      mstore\n      keccak256(0x00, 0x20)\n      swap1\n      0x04\n      mul\n      add\n        /* \"initial-offering.sol\":8702:8727  Bid storage bid = bids[i] */\n      swap1\n      pop\n        /* \"initial-offering.sol\":8744:8747  bid */\n      dup1\n        /* \"initial-offering.sol\":8744:8757  bid.allocated */\n      0x03\n      add\n      0x00\n      swap1\n      sload\n      swap1\n      0x0100\n      exp\n      swap1\n      div\n      0xff\n      and\n        /* \"initial-offering.sol\":8741:8767  if(bid.allocated) continue */\n      iszero\n      tag_240\n      jumpi\n        /* \"initial-offering.sol\":8759:8767  continue */\n      pop\n      jump(tag_235)\n        /* \"initial-offering.sol\":8741:8767  if(bid.allocated) continue */\n    tag_240:\n        /* \"initial-offering.sol\":8794:8819  uint256 allocatableShares */\n      0x00\n        /* \"initial-offering.sol\":8842:8858  sharesToAllocate */\n      dup4\n        /* \"initial-offering.sol\":8823:8826  bid */\n      dup3\n        /* \"initial-offering.sol\":8823:8838  bid.shareAmount */\n      0x01\n      add\n      sload\n        /* \"initial-offering.sol\":8823:8858  bid.shareAmount <= sharesToAllocate */\n      gt\n      iszero\n        /* \"initial-offering.sol\":8822:8930  (bid.shareAmount <= sharesToAllocate) ... */\n      tag_241\n      jumpi\n        /* \"initial-offering.sol\":8914:8930  sharesToAllocate */\n      dup4\n        /* \"initial-offering.sol\":8822:8930  (bid.shareAmount <= sharesToAllocate) ... */\n      jump(tag_242)\n    tag_241:\n        /* \"initial-offering.sol\":8879:8882  bid */\n      dup2\n        /* \"initial-offering.sol\":8879:8894  bid.shareAmount */\n      0x01\n      add\n      sload\n        /* \"initial-offering.sol\":8822:8930  (bid.shareAmount <= sharesToAllocate) ... */\n    tag_242:\n        /* \"initial-offering.sol\":8794:8930  uint256 allocatableShares = (bid.shareAmount <= sharesToAllocate) ... */\n      swap1\n      pop\n        /* \"initial-offering.sol\":8977:9036  totalBidValue.add(allocatableShares.mul(bid.pricePerShare)) */\n      tag_243\n        /* \"initial-offering.sol\":8995:9035  allocatableShares.mul(bid.pricePerShare) */\n      tag_244\n        /* \"initial-offering.sol\":9017:9020  bid */\n      dup4\n        /* \"initial-offering.sol\":9017:9034  bid.pricePerShare */\n      0x02\n      add\n      sload\n        /* \"initial-offering.sol\":8995:9012  allocatableShares */\n      dup4\n        /* \"initial-offering.sol\":8995:9016  allocatableShares.mul */\n      tag_245\n      swap1\n        /* \"initial-offering.sol\":8995:9035  allocatableShares.mul(bid.pricePerShare) */\n      swap2\n      swap1\n      0xffffffff\n      and\n      jump\t// in\n    tag_244:\n        /* \"initial-offering.sol\":8977:8990  totalBidValue */\n      dup7\n        /* \"initial-offering.sol\":8977:8994  totalBidValue.add */\n      tag_246\n      swap1\n        /* \"initial-offering.sol\":8977:9036  totalBidValue.add(allocatableShares.mul(bid.pricePerShare)) */\n      swap2\n      swap1\n      0xffffffff\n      and\n      jump\t// in\n    tag_243:\n        /* \"initial-offering.sol\":8961:9036  totalBidValue = totalBidValue.add(allocatableShares.mul(bid.pricePerShare)) */\n      swap5\n      pop\n        /* \"initial-offering.sol\":9069:9108  sharesToAllocate.sub(allocatableShares) */\n      tag_247\n        /* \"initial-offering.sol\":9090:9107  allocatableShares */\n      dup2\n        /* \"initial-offering.sol\":9069:9085  sharesToAllocate */\n      dup6\n        /* \"initial-offering.sol\":9069:9089  sharesToAllocate.sub */\n      tag_248\n      swap1\n        /* \"initial-offering.sol\":9069:9108  sharesToAllocate.sub(allocatableShares) */\n      swap2\n      swap1\n      0xffffffff\n      and\n      jump\t// in\n    tag_247:\n        /* \"initial-offering.sol\":9050:9108  sharesToAllocate = sharesToAllocate.sub(allocatableShares) */\n      swap4\n      pop\n        /* \"initial-offering.sol\":8688:9119  {... */\n      pop\n      pop\n        /* \"initial-offering.sol\":8623:9119  for(uint256 i = 0; i < bids.length && sharesToAllocate > 0; i++) {... */\n    tag_235:\n        /* \"initial-offering.sol\":8683:8686  i++ */\n      dup1\n      dup1\n      tag_249\n      swap1\n      tag_145\n      jump\t// in\n    tag_249:\n      swap2\n      pop\n      pop\n        /* \"initial-offering.sol\":8623:9119  for(uint256 i = 0; i < bids.length && sharesToAllocate > 0; i++) {... */\n      jump(tag_233)\n    tag_234:\n      pop\n        /* \"initial-offering.sol\":9203:9218  bool successful */\n      0x00\n        /* \"initial-offering.sol\":9238:9243  asset */\n      dup5\n        /* \"initial-offering.sol\":9238:9261  asset.minimumTotalPrice */\n      0x04\n      add\n      sload\n        /* \"initial-offering.sol\":9221:9234  totalBidValue */\n      dup4\n        /* \"initial-offering.sol\":9221:9261  totalBidValue >= asset.minimumTotalPrice */\n      lt\n      iszero\n        /* \"initial-offering.sol\":9203:9261  bool successful = totalBidValue >= asset.minimumTotalPrice */\n      swap1\n      pop\n        /* \"initial-offering.sol\":9284:9294  successful */\n      dup1\n        /* \"initial-offering.sol\":9280:12088  if (successful) {... */\n      iszero\n      tag_250\n      jumpi\n        /* \"initial-offering.sol\":9404:9409  asset */\n      dup5\n        /* \"initial-offering.sol\":9404:9421  asset.totalShares */\n      0x02\n      add\n      sload\n        /* \"initial-offering.sol\":9380:9385  asset */\n      dup6\n        /* \"initial-offering.sol\":9380:9401  asset.sharesRemaining */\n      0x03\n      add\n        /* \"initial-offering.sol\":9380:9421  asset.sharesRemaining = asset.totalShares */\n      dup2\n      swap1\n      sstore\n      pop\n        /* \"initial-offering.sol\":9507:9516  uint256 i */\n      0x00\n        /* \"initial-offering.sol\":9502:9694  for (uint256 i = 0; i < asset.ownerAddresses.length; i++) {... */\n    tag_251:\n        /* \"initial-offering.sol\":9526:9531  asset */\n      dup6\n        /* \"initial-offering.sol\":9526:9546  asset.ownerAddresses */\n      0x07\n      add\n        /* \"initial-offering.sol\":9526:9553  asset.ownerAddresses.length */\n      dup1\n      sload\n      swap1\n      pop\n        /* \"initial-offering.sol\":9522:9523  i */\n      dup2\n        /* \"initial-offering.sol\":9522:9553  i < asset.ownerAddresses.length */\n      lt\n        /* \"initial-offering.sol\":9502:9694  for (uint256 i = 0; i < asset.ownerAddresses.length; i++) {... */\n      iszero\n      tag_252\n      jumpi\n        /* \"initial-offering.sol\":9578:9598  address ownerAddress */\n      0x00\n        /* \"initial-offering.sol\":9601:9606  asset */\n      dup7\n        /* \"initial-offering.sol\":9601:9621  asset.ownerAddresses */\n      0x07\n      add\n        /* \"initial-offering.sol\":9622:9623  i */\n      dup3\n        /* \"initial-offering.sol\":9601:9624  asset.ownerAddresses[i] */\n      dup2\n      sload\n      dup2\n      lt\n      tag_254\n      jumpi\n      tag_255\n      tag_93\n      jump\t// in\n    tag_255:\n    tag_254:\n      swap1\n      0x00\n      mstore\n      keccak256(0x00, 0x20)\n      add\n      0x00\n      swap1\n      sload\n      swap1\n      0x0100\n      exp\n      swap1\n      div\n      0xffffffffffffffffffffffffffffffffffffffff\n      and\n        /* \"initial-offering.sol\":9578:9624  address ownerAddress = asset.ownerAddresses[i] */\n      swap1\n      pop\n        /* \"initial-offering.sol\":9678:9679  0 */\n      0x00\n        /* \"initial-offering.sol\":9642:9647  asset */\n      dup8\n        /* \"initial-offering.sol\":9642:9654  asset.owners */\n      0x08\n      add\n        /* \"initial-offering.sol\":9642:9668  asset.owners[ownerAddress] */\n      0x00\n        /* \"initial-offering.sol\":9655:9667  ownerAddress */\n      dup4\n        /* \"initial-offering.sol\":9642:9668  asset.owners[ownerAddress] */\n      0xffffffffffffffffffffffffffffffffffffffff\n      and\n      0xffffffffffffffffffffffffffffffffffffffff\n      and\n      dup2\n      mstore\n      0x20\n      add\n      swap1\n      dup2\n      mstore\n      0x20\n      add\n      0x00\n      keccak256\n        /* \"initial-offering.sol\":9642:9675  asset.owners[ownerAddress].shares */\n      0x01\n      add\n        /* \"initial-offering.sol\":9642:9679  asset.owners[ownerAddress].shares = 0 */\n      dup2\n      swap1\n      sstore\n      pop\n        /* \"initial-offering.sol\":9560:9694  {... */\n      pop\n        /* \"initial-offering.sol\":9555:9558  i++ */\n      dup1\n      dup1\n      0x01\n      add\n      swap2\n      pop\n      pop\n        /* \"initial-offering.sol\":9502:9694  for (uint256 i = 0; i < asset.ownerAddresses.length; i++) {... */\n      jump(tag_251)\n    tag_252:\n      pop\n        /* \"initial-offering.sol\":9759:9764  asset */\n      dup5\n        /* \"initial-offering.sol\":9759:9779  asset.ownerAddresses */\n      0x07\n      add\n      0x00\n        /* \"initial-offering.sol\":9752:9779  delete asset.ownerAddresses */\n      tag_257\n      swap2\n      swap1\n      tag_258\n      jump\t// in\n    tag_257:\n        /* \"initial-offering.sol\":9855:9864  uint256 i */\n      0x00\n        /* \"initial-offering.sol\":9851:11976  for(uint256 i = 0; i < bids.length; i++) {... */\n    tag_259:\n        /* \"initial-offering.sol\":9874:9878  bids */\n      dup5\n        /* \"initial-offering.sol\":9874:9885  bids.length */\n      dup1\n      sload\n      swap1\n      pop\n        /* \"initial-offering.sol\":9870:9871  i */\n      dup2\n        /* \"initial-offering.sol\":9870:9885  i < bids.length */\n      lt\n        /* \"initial-offering.sol\":9851:11976  for(uint256 i = 0; i < bids.length; i++) {... */\n      iszero\n      tag_260\n      jumpi\n        /* \"initial-offering.sol\":9938:9939  0 */\n      0x00\n        /* \"initial-offering.sol\":9913:9918  asset */\n      dup7\n        /* \"initial-offering.sol\":9913:9934  asset.sharesRemaining */\n      0x03\n      add\n      sload\n        /* \"initial-offering.sol\":9913:9939  asset.sharesRemaining == 0 */\n      sub\n        /* \"initial-offering.sol\":9910:9946  if(asset.sharesRemaining == 0) break */\n      iszero\n        /* \"initial-offering.sol\":9941:9946  break */\n      tag_260\n        /* \"initial-offering.sol\":9910:9946  if(asset.sharesRemaining == 0) break */\n      jumpi\n        /* \"initial-offering.sol\":9981:9996  Bid storage bid */\n      0x00\n        /* \"initial-offering.sol\":9999:10003  bids */\n      dup6\n        /* \"initial-offering.sol\":10004:10005  i */\n      dup3\n        /* \"initial-offering.sol\":9999:10006  bids[i] */\n      dup2\n      sload\n      dup2\n      lt\n      tag_263\n      jumpi\n      tag_264\n      tag_93\n      jump\t// in\n    tag_264:\n    tag_263:\n      swap1\n      0x00\n      mstore\n      keccak256(0x00, 0x20)\n      swap1\n      0x04\n      mul\n      add\n        /* \"initial-offering.sol\":9981:10006  Bid storage bid = bids[i] */\n      swap1\n      pop\n        /* \"initial-offering.sol\":10027:10030  bid */\n      dup1\n        /* \"initial-offering.sol\":10027:10040  bid.allocated */\n      0x03\n      add\n      0x00\n      swap1\n      sload\n      swap1\n      0x0100\n      exp\n      swap1\n      div\n      0xff\n      and\n        /* \"initial-offering.sol\":10024:10050  if(bid.allocated) continue */\n      iszero\n      tag_266\n      jumpi\n        /* \"initial-offering.sol\":10042:10050  continue */\n      pop\n      jump(tag_261)\n        /* \"initial-offering.sol\":10024:10050  if(bid.allocated) continue */\n    tag_266:\n        /* \"initial-offering.sol\":10085:10110  uint256 allocatableShares */\n      0x00\n        /* \"initial-offering.sol\":10133:10138  asset */\n      dup8\n        /* \"initial-offering.sol\":10133:10154  asset.sharesRemaining */\n      0x03\n      add\n      sload\n        /* \"initial-offering.sol\":10114:10117  bid */\n      dup3\n        /* \"initial-offering.sol\":10114:10129  bid.shareAmount */\n      0x01\n      add\n      sload\n        /* \"initial-offering.sol\":10114:10154  bid.shareAmount <= asset.sharesRemaining */\n      gt\n      iszero\n        /* \"initial-offering.sol\":10113:10239  (bid.shareAmount <= asset.sharesRemaining) ... */\n      tag_267\n      jumpi\n        /* \"initial-offering.sol\":10218:10223  asset */\n      dup8\n        /* \"initial-offering.sol\":10218:10239  asset.sharesRemaining */\n      0x03\n      add\n      sload\n        /* \"initial-offering.sol\":10113:10239  (bid.shareAmount <= asset.sharesRemaining) ... */\n      jump(tag_268)\n    tag_267:\n        /* \"initial-offering.sol\":10179:10182  bid */\n      dup2\n        /* \"initial-offering.sol\":10179:10194  bid.shareAmount */\n      0x01\n      add\n      sload\n        /* \"initial-offering.sol\":10113:10239  (bid.shareAmount <= asset.sharesRemaining) ... */\n    tag_268:\n        /* \"initial-offering.sol\":10085:10239  uint256 allocatableShares = (bid.shareAmount <= asset.sharesRemaining) ... */\n      swap1\n      pop\n        /* \"initial-offering.sol\":10338:10361  uint256 requiredPayment */\n      0x00\n        /* \"initial-offering.sol\":10364:10404  allocatableShares.mul(bid.pricePerShare) */\n      tag_269\n        /* \"initial-offering.sol\":10386:10389  bid */\n      dup4\n        /* \"initial-offering.sol\":10386:10403  bid.pricePerShare */\n      0x02\n      add\n      sload\n        /* \"initial-offering.sol\":10364:10381  allocatableShares */\n      dup4\n        /* \"initial-offering.sol\":10364:10385  allocatableShares.mul */\n      tag_245\n      swap1\n        /* \"initial-offering.sol\":10364:10404  allocatableShares.mul(bid.pricePerShare) */\n      swap2\n      swap1\n      0xffffffff\n      and\n      jump\t// in\n    tag_269:\n        /* \"initial-offering.sol\":10338:10404  uint256 requiredPayment = allocatableShares.mul(bid.pricePerShare) */\n      swap1\n      pop\n        /* \"initial-offering.sol\":10422:10442  uint256 refundAmount */\n      0x00\n        /* \"initial-offering.sol\":10445:10504  bid.shareAmount.mul(bid.pricePerShare).sub(requiredPayment) */\n      tag_270\n        /* \"initial-offering.sol\":10488:10503  requiredPayment */\n      dup3\n        /* \"initial-offering.sol\":10445:10483  bid.shareAmount.mul(bid.pricePerShare) */\n      tag_271\n        /* \"initial-offering.sol\":10465:10468  bid */\n      dup7\n        /* \"initial-offering.sol\":10465:10482  bid.pricePerShare */\n      0x02\n      add\n      sload\n        /* \"initial-offering.sol\":10445:10448  bid */\n      dup8\n        /* \"initial-offering.sol\":10445:10460  bid.shareAmount */\n      0x01\n      add\n      sload\n        /* \"initial-offering.sol\":10445:10464  bid.shareAmount.mul */\n      tag_245\n      swap1\n        /* \"initial-offering.sol\":10445:10483  bid.shareAmount.mul(bid.pricePerShare) */\n      swap2\n      swap1\n      0xffffffff\n      and\n      jump\t// in\n    tag_271:\n        /* \"initial-offering.sol\":10445:10487  bid.shareAmount.mul(bid.pricePerShare).sub */\n      tag_248\n      swap1\n        /* \"initial-offering.sol\":10445:10504  bid.shareAmount.mul(bid.pricePerShare).sub(requiredPayment) */\n      swap2\n      swap1\n      0xffffffff\n      and\n      jump\t// in\n    tag_270:\n        /* \"initial-offering.sol\":10422:10504  uint256 refundAmount = bid.shareAmount.mul(bid.pricePerShare).sub(requiredPayment) */\n      swap1\n      pop\n        /* \"initial-offering.sol\":10562:10563  0 */\n      0x00\n        /* \"initial-offering.sol\":10542:10559  allocatableShares */\n      dup4\n        /* \"initial-offering.sol\":10542:10563  allocatableShares > 0 */\n      gt\n        /* \"initial-offering.sol\":10539:11713  if(allocatableShares > 0) {... */\n      iszero\n      tag_272\n      jumpi\n        /* \"initial-offering.sol\":10653:10658  asset */\n      dup10\n        /* \"initial-offering.sol\":10653:10672  asset.originalOwner */\n      0x00\n      add\n      0x00\n      swap1\n      sload\n      swap1\n      0x0100\n      exp\n      swap1\n      div\n      0xffffffffffffffffffffffffffffffffffffffff\n      and\n        /* \"initial-offering.sol\":10645:10682  payable(asset.originalOwner).transfer */\n      0xffffffffffffffffffffffffffffffffffffffff\n      and\n        /* \"initial-offering.sol\":10645:10699  payable(asset.originalOwner).transfer(requiredPayment) */\n      0x08fc\n        /* \"initial-offering.sol\":10683:10698  requiredPayment */\n      dup4\n        /* \"initial-offering.sol\":10645:10699  payable(asset.originalOwner).transfer(requiredPayment) */\n      swap1\n      dup2\n      iszero\n      mul\n      swap1\n      mload(0x40)\n      0x00\n      mload(0x40)\n      dup1\n      dup4\n      sub\n      dup2\n      dup6\n      dup9\n      dup9\n      call\n      swap4\n      pop\n      pop\n      pop\n      pop\n      iszero\n      dup1\n      iszero\n      tag_274\n      jumpi\n      returndatasize\n      0x00\n      dup1\n      returndatacopy\n      revert(0x00, returndatasize)\n    tag_274:\n      pop\n        /* \"initial-offering.sol\":10813:10857  asset.sharesRemaining.sub(allocatableShares) */\n      tag_275\n        /* \"initial-offering.sol\":10839:10856  allocatableShares */\n      dup4\n        /* \"initial-offering.sol\":10813:10818  asset */\n      dup12\n        /* \"initial-offering.sol\":10813:10834  asset.sharesRemaining */\n      0x03\n      add\n      sload\n        /* \"initial-offering.sol\":10813:10838  asset.sharesRemaining.sub */\n      tag_248\n      swap1\n        /* \"initial-offering.sol\":10813:10857  asset.sharesRemaining.sub(allocatableShares) */\n      swap2\n      swap1\n      0xffffffff\n      and\n      jump\t// in\n    tag_275:\n        /* \"initial-offering.sol\":10789:10794  asset */\n      dup11\n        /* \"initial-offering.sol\":10789:10810  asset.sharesRemaining */\n      0x03\n      add\n        /* \"initial-offering.sol\":10789:10857  asset.sharesRemaining = asset.sharesRemaining.sub(allocatableShares) */\n      dup2\n      swap1\n      sstore\n      pop\n        /* \"initial-offering.sol\":10895:10899  true */\n      0x01\n        /* \"initial-offering.sol\":10879:10882  bid */\n      dup5\n        /* \"initial-offering.sol\":10879:10892  bid.allocated */\n      0x03\n      add\n      0x00\n        /* \"initial-offering.sol\":10879:10899  bid.allocated = true */\n      0x0100\n      exp\n      dup2\n      sload\n      dup2\n      0xff\n      mul\n      not\n      and\n      swap1\n      dup4\n      iszero\n      iszero\n      mul\n      or\n      swap1\n      sstore\n      pop\n        /* \"initial-offering.sol\":10990:10995  asset */\n      dup10\n        /* \"initial-offering.sol\":10990:11002  asset.owners */\n      0x08\n      add\n        /* \"initial-offering.sol\":10990:11014  asset.owners[bid.bidder] */\n      0x00\n        /* \"initial-offering.sol\":11003:11006  bid */\n      dup6\n        /* \"initial-offering.sol\":11003:11013  bid.bidder */\n      0x00\n      add\n      0x00\n      swap1\n      sload\n      swap1\n      0x0100\n      exp\n      swap1\n      div\n      0xffffffffffffffffffffffffffffffffffffffff\n      and\n        /* \"initial-offering.sol\":10990:11014  asset.owners[bid.bidder] */\n      0xffffffffffffffffffffffffffffffffffffffff\n      and\n      0xffffffffffffffffffffffffffffffffffffffff\n      and\n      dup2\n      mstore\n      0x20\n      add\n      swap1\n      dup2\n      mstore\n      0x20\n      add\n      0x00\n      keccak256\n        /* \"initial-offering.sol\":10990:11021  asset.owners[bid.bidder].exists */\n      0x02\n      add\n      0x00\n      swap1\n      sload\n      swap1\n      0x0100\n      exp\n      swap1\n      div\n      0xff\n      and\n        /* \"initial-offering.sol\":10985:11494  if (!asset.owners[bid.bidder].exists) {... */\n      tag_276\n      jumpi\n        /* \"initial-offering.sol\":11049:11054  asset */\n      dup10\n        /* \"initial-offering.sol\":11049:11069  asset.ownerAddresses */\n      0x07\n      add\n        /* \"initial-offering.sol\":11075:11078  bid */\n      dup5\n        /* \"initial-offering.sol\":11075:11085  bid.bidder */\n      0x00\n      add\n      0x00\n      swap1\n      sload\n      swap1\n      0x0100\n      exp\n      swap1\n      div\n      0xffffffffffffffffffffffffffffffffffffffff\n      and\n        /* \"initial-offering.sol\":11049:11086  asset.ownerAddresses.push(bid.bidder) */\n      swap1\n      dup1\n      0x01\n      dup2\n      sload\n      add\n      dup1\n      dup3\n      sstore\n      dup1\n      swap2\n      pop\n      pop\n      0x01\n      swap1\n      sub\n      swap1\n      0x00\n      mstore\n      keccak256(0x00, 0x20)\n      add\n      0x00\n      swap1\n      swap2\n      swap1\n      swap2\n      swap1\n      swap2\n      0x0100\n      exp\n      dup2\n      sload\n      dup2\n      0xffffffffffffffffffffffffffffffffffffffff\n      mul\n      not\n      and\n      swap1\n      dup4\n      0xffffffffffffffffffffffffffffffffffffffff\n      and\n      mul\n      or\n      swap1\n      sstore\n      pop\n        /* \"initial-offering.sol\":11139:11328  AssetOwner({... */\n      mload(0x40)\n      dup1\n      0x60\n      add\n      0x40\n      mstore\n      dup1\n        /* \"initial-offering.sol\":11194:11197  bid */\n      dup6\n        /* \"initial-offering.sol\":11194:11204  bid.bidder */\n      0x00\n      add\n      0x00\n      swap1\n      sload\n      swap1\n      0x0100\n      exp\n      swap1\n      div\n      0xffffffffffffffffffffffffffffffffffffffff\n      and\n        /* \"initial-offering.sol\":11139:11328  AssetOwner({... */\n      0xffffffffffffffffffffffffffffffffffffffff\n      and\n      dup2\n      mstore\n      0x20\n      add\n        /* \"initial-offering.sol\":11242:11259  allocatableShares */\n      dup5\n        /* \"initial-offering.sol\":11139:11328  AssetOwner({... */\n      dup2\n      mstore\n      0x20\n      add\n        /* \"initial-offering.sol\":11297:11301  true */\n      0x01\n        /* \"initial-offering.sol\":11139:11328  AssetOwner({... */\n      iszero\n      iszero\n      dup2\n      mstore\n      pop\n        /* \"initial-offering.sol\":11112:11117  asset */\n      dup11\n        /* \"initial-offering.sol\":11112:11124  asset.owners */\n      0x08\n      add\n        /* \"initial-offering.sol\":11112:11136  asset.owners[bid.bidder] */\n      0x00\n        /* \"initial-offering.sol\":11125:11128  bid */\n      dup7\n        /* \"initial-offering.sol\":11125:11135  bid.bidder */\n      0x00\n      add\n      0x00\n      swap1\n      sload\n      swap1\n      0x0100\n      exp\n      swap1\n      div\n      0xffffffffffffffffffffffffffffffffffffffff\n      and\n        /* \"initial-offering.sol\":11112:11136  asset.owners[bid.bidder] */\n      0xffffffffffffffffffffffffffffffffffffffff\n      and\n      0xffffffffffffffffffffffffffffffffffffffff\n      and\n      dup2\n      mstore\n      0x20\n      add\n      swap1\n      dup2\n      mstore\n      0x20\n      add\n      0x00\n      keccak256\n        /* \"initial-offering.sol\":11112:11328  asset.owners[bid.bidder] = AssetOwner({... */\n      0x00\n      dup3\n      add\n      mload\n      dup2\n      0x00\n      add\n      exp(0x0100, 0x00)\n      dup2\n      sload\n      dup2\n      0xffffffffffffffffffffffffffffffffffffffff\n      mul\n      not\n      and\n      swap1\n      dup4\n      0xffffffffffffffffffffffffffffffffffffffff\n      and\n      mul\n      or\n      swap1\n      sstore\n      pop\n      0x20\n      dup3\n      add\n      mload\n      dup2\n      0x01\n      add\n      sstore\n      0x40\n      dup3\n      add\n      mload\n      dup2\n      0x02\n      add\n      exp(0x0100, 0x00)\n      dup2\n      sload\n      dup2\n      0xff\n      mul\n      not\n      and\n      swap1\n      dup4\n      iszero\n      iszero\n      mul\n      or\n      swap1\n      sstore\n      pop\n      swap1\n      pop\n      pop\n        /* \"initial-offering.sol\":10985:11494  if (!asset.owners[bid.bidder].exists) {... */\n      jump(tag_278)\n    tag_276:\n        /* \"initial-offering.sol\":11417:11471  asset.owners[bid.bidder].shares.add(allocatableShares) */\n      tag_279\n        /* \"initial-offering.sol\":11453:11470  allocatableShares */\n      dup4\n        /* \"initial-offering.sol\":11417:11422  asset */\n      dup12\n        /* \"initial-offering.sol\":11417:11429  asset.owners */\n      0x08\n      add\n        /* \"initial-offering.sol\":11417:11441  asset.owners[bid.bidder] */\n      0x00\n        /* \"initial-offering.sol\":11430:11433  bid */\n      dup8\n        /* \"initial-offering.sol\":11430:11440  bid.bidder */\n      0x00\n      add\n      0x00\n      swap1\n      sload\n      swap1\n      0x0100\n      exp\n      swap1\n      div\n      0xffffffffffffffffffffffffffffffffffffffff\n      and\n        /* \"initial-offering.sol\":11417:11441  asset.owners[bid.bidder] */\n      0xffffffffffffffffffffffffffffffffffffffff\n      and\n      0xffffffffffffffffffffffffffffffffffffffff\n      and\n      dup2\n      mstore\n      0x20\n      add\n      swap1\n      dup2\n      mstore\n      0x20\n      add\n      0x00\n      keccak256\n        /* \"initial-offering.sol\":11417:11448  asset.owners[bid.bidder].shares */\n      0x01\n      add\n      sload\n        /* \"initial-offering.sol\":11417:11452  asset.owners[bid.bidder].shares.add */\n      tag_246\n      swap1\n        /* \"initial-offering.sol\":11417:11471  asset.owners[bid.bidder].shares.add(allocatableShares) */\n      swap2\n      swap1\n      0xffffffff\n      and\n      jump\t// in\n    tag_279:\n        /* \"initial-offering.sol\":11383:11388  asset */\n      dup11\n        /* \"initial-offering.sol\":11383:11395  asset.owners */\n      0x08\n      add\n        /* \"initial-offering.sol\":11383:11407  asset.owners[bid.bidder] */\n      0x00\n        /* \"initial-offering.sol\":11396:11399  bid */\n      dup7\n        /* \"initial-offering.sol\":11396:11406  bid.bidder */\n      0x00\n      add\n      0x00\n      swap1\n      sload\n      swap1\n      0x0100\n      exp\n      swap1\n      div\n      0xffffffffffffffffffffffffffffffffffffffff\n      and\n        /* \"initial-offering.sol\":11383:11407  asset.owners[bid.bidder] */\n      0xffffffffffffffffffffffffffffffffffffffff\n      and\n      0xffffffffffffffffffffffffffffffffffffffff\n      and\n      dup2\n      mstore\n      0x20\n      add\n      swap1\n      dup2\n      mstore\n      0x20\n      add\n      0x00\n      keccak256\n        /* \"initial-offering.sol\":11383:11414  asset.owners[bid.bidder].shares */\n      0x01\n      add\n        /* \"initial-offering.sol\":11383:11471  asset.owners[bid.bidder].shares = asset.owners[bid.bidder].shares.add(allocatableShares) */\n      dup2\n      swap1\n      sstore\n      pop\n        /* \"initial-offering.sol\":10985:11494  if (!asset.owners[bid.bidder].exists) {... */\n    tag_278:\n        /* \"initial-offering.sol\":11567:11570  bid */\n      dup4\n        /* \"initial-offering.sol\":11567:11577  bid.bidder */\n      0x00\n      add\n      0x00\n      swap1\n      sload\n      swap1\n      0x0100\n      exp\n      swap1\n      div\n      0xffffffffffffffffffffffffffffffffffffffff\n      and\n        /* \"initial-offering.sol\":11541:11616  SharesAllocated(_assetId, bid.bidder, allocatableShares, bid.pricePerShare) */\n      0xffffffffffffffffffffffffffffffffffffffff\n      and\n        /* \"initial-offering.sol\":11557:11565  _assetId */\n      dup12\n        /* \"initial-offering.sol\":11541:11616  SharesAllocated(_assetId, bid.bidder, allocatableShares, bid.pricePerShare) */\n      0x46d3c445b404e9de2c80e1c0489cc92f23dfd5462ce7c6b3a1a54b3f0f70bcfc\n        /* \"initial-offering.sol\":11579:11596  allocatableShares */\n      dup6\n        /* \"initial-offering.sol\":11598:11601  bid */\n      dup8\n        /* \"initial-offering.sol\":11598:11615  bid.pricePerShare */\n      0x02\n      add\n      sload\n        /* \"initial-offering.sol\":11541:11616  SharesAllocated(_assetId, bid.bidder, allocatableShares, bid.pricePerShare) */\n      mload(0x40)\n      tag_280\n      swap3\n      swap2\n      swap1\n      tag_172\n      jump\t// in\n    tag_280:\n      mload(0x40)\n      dup1\n      swap2\n      sub\n      swap1\n      log3\n        /* \"initial-offering.sol\":11664:11667  bid */\n      dup4\n        /* \"initial-offering.sol\":11664:11674  bid.bidder */\n      0x00\n      add\n      0x00\n      swap1\n      sload\n      swap1\n      0x0100\n      exp\n      swap1\n      div\n      0xffffffffffffffffffffffffffffffffffffffff\n      and\n        /* \"initial-offering.sol\":11643:11694  OwnerAdded(_assetId, bid.bidder, allocatableShares) */\n      0xffffffffffffffffffffffffffffffffffffffff\n      and\n        /* \"initial-offering.sol\":11654:11662  _assetId */\n      dup12\n        /* \"initial-offering.sol\":11643:11694  OwnerAdded(_assetId, bid.bidder, allocatableShares) */\n      0x25af9e0275abbb4de910d2062f5dcca6d4c47f1313066083dd9d7077608a7a54\n        /* \"initial-offering.sol\":11676:11693  allocatableShares */\n      dup6\n        /* \"initial-offering.sol\":11643:11694  OwnerAdded(_assetId, bid.bidder, allocatableShares) */\n      mload(0x40)\n      tag_281\n      swap2\n      swap1\n      tag_29\n      jump\t// in\n    tag_281:\n      mload(0x40)\n      dup1\n      swap2\n      sub\n      swap1\n      log3\n        /* \"initial-offering.sol\":10539:11713  if(allocatableShares > 0) {... */\n    tag_272:\n        /* \"initial-offering.sol\":11811:11812  0 */\n      0x00\n        /* \"initial-offering.sol\":11796:11808  refundAmount */\n      dup2\n        /* \"initial-offering.sol\":11796:11812  refundAmount > 0 */\n      gt\n        /* \"initial-offering.sol\":11793:11962  if(refundAmount > 0) {... */\n      iszero\n      tag_282\n      jumpi\n        /* \"initial-offering.sol\":11844:11847  bid */\n      dup4\n        /* \"initial-offering.sol\":11844:11854  bid.bidder */\n      0x00\n      add\n      0x00\n      swap1\n      sload\n      swap1\n      0x0100\n      exp\n      swap1\n      div\n      0xffffffffffffffffffffffffffffffffffffffff\n      and\n        /* \"initial-offering.sol\":11836:11864  payable(bid.bidder).transfer */\n      0xffffffffffffffffffffffffffffffffffffffff\n      and\n        /* \"initial-offering.sol\":11836:11878  payable(bid.bidder).transfer(refundAmount) */\n      0x08fc\n        /* \"initial-offering.sol\":11865:11877  refundAmount */\n      dup3\n        /* \"initial-offering.sol\":11836:11878  payable(bid.bidder).transfer(refundAmount) */\n      swap1\n      dup2\n      iszero\n      mul\n      swap1\n      mload(0x40)\n      0x00\n      mload(0x40)\n      dup1\n      dup4\n      sub\n      dup2\n      dup6\n      dup9\n      dup9\n      call\n      swap4\n      pop\n      pop\n      pop\n      pop\n      iszero\n      dup1\n      iszero\n      tag_284\n      jumpi\n      returndatasize\n      0x00\n      dup1\n      returndatacopy\n      revert(0x00, returndatasize)\n    tag_284:\n      pop\n        /* \"initial-offering.sol\":11918:11921  bid */\n      dup4\n        /* \"initial-offering.sol\":11918:11928  bid.bidder */\n      0x00\n      add\n      0x00\n      swap1\n      sload\n      swap1\n      0x0100\n      exp\n      swap1\n      div\n      0xffffffffffffffffffffffffffffffffffffffff\n      and\n        /* \"initial-offering.sol\":11905:11943  RefundIssued(bid.bidder, refundAmount) */\n      0xffffffffffffffffffffffffffffffffffffffff\n      and\n      0xa171b6942063c6f2800ce40a780edce37baa2b618571b11eedd1e69e626e7d76\n        /* \"initial-offering.sol\":11930:11942  refundAmount */\n      dup3\n        /* \"initial-offering.sol\":11905:11943  RefundIssued(bid.bidder, refundAmount) */\n      mload(0x40)\n      tag_285\n      swap2\n      swap1\n      tag_29\n      jump\t// in\n    tag_285:\n      mload(0x40)\n      dup1\n      swap2\n      sub\n      swap1\n      log2\n        /* \"initial-offering.sol\":11793:11962  if(refundAmount > 0) {... */\n    tag_282:\n        /* \"initial-offering.sol\":9892:11976  {... */\n      pop\n      pop\n      pop\n      pop\n        /* \"initial-offering.sol\":9851:11976  for(uint256 i = 0; i < bids.length; i++) {... */\n    tag_261:\n        /* \"initial-offering.sol\":9887:9890  i++ */\n      dup1\n      dup1\n      0x01\n      add\n      swap2\n      pop\n      pop\n        /* \"initial-offering.sol\":9851:11976  for(uint256 i = 0; i < bids.length; i++) {... */\n      jump(tag_259)\n    tag_260:\n      pop\n        /* \"initial-offering.sol\":9280:12088  if (successful) {... */\n      jump(tag_286)\n    tag_250:\n        /* \"initial-offering.sol\":12053:12077  _refundAllBids(_assetId) */\n      tag_287\n        /* \"initial-offering.sol\":12068:12076  _assetId */\n      dup7\n        /* \"initial-offering.sol\":12053:12067  _refundAllBids */\n      tag_288\n        /* \"initial-offering.sol\":12053:12077  _refundAllBids(_assetId) */\n      jump\t// in\n    tag_287:\n        /* \"initial-offering.sol\":9280:12088  if (successful) {... */\n    tag_286:\n        /* \"initial-offering.sol\":12124:12132  _assetId */\n      dup6\n        /* \"initial-offering.sol\":12111:12162  BiddingEnded(_assetId, successful, block.timestamp) */\n      0x4d7a5e450395fb8fb6b67c4751f80f057cd5a74550929306eff2cac7f0ecc188\n        /* \"initial-offering.sol\":12134:12144  successful */\n      dup3\n        /* \"initial-offering.sol\":12146:12161  block.timestamp */\n      timestamp\n        /* \"initial-offering.sol\":12111:12162  BiddingEnded(_assetId, successful, block.timestamp) */\n      mload(0x40)\n      tag_289\n      swap3\n      swap2\n      swap1\n      tag_127\n      jump\t// in\n    tag_289:\n      mload(0x40)\n      dup1\n      swap2\n      sub\n      swap1\n      log2\n        /* \"initial-offering.sol\":8218:12169  {... */\n      pop\n      pop\n      pop\n      pop\n      pop\n        /* \"initial-offering.sol\":8169:12169  function _processBids(uint256 _assetId) internal {... */\n      pop\n      jump\t// out\n        /* \"@openzeppelin/contracts/security/ReentrancyGuard.sol\":2629:2838  function _nonReentrantAfter() private {... */\n    tag_129:\n        /* \"@openzeppelin/contracts/security/ReentrancyGuard.sol\":1716:1717  1 */\n      0x01\n        /* \"@openzeppelin/contracts/security/ReentrancyGuard.sol\":2809:2816  _status */\n      0x00\n        /* \"@openzeppelin/contracts/security/ReentrancyGuard.sol\":2809:2831  _status = _NOT_ENTERED */\n      dup2\n      swap1\n      sstore\n      pop\n        /* \"@openzeppelin/contracts/security/ReentrancyGuard.sol\":2629:2838  function _nonReentrantAfter() private {... */\n      jump\t// out\n        /* \"@openzeppelin/contracts/utils/math/SafeMath.sol\":3850:3946  function div(uint256 a, uint256 b) internal pure returns (uint256) {... */\n    tag_168:\n        /* \"@openzeppelin/contracts/utils/math/SafeMath.sol\":3908:3915  uint256 */\n      0x00\n        /* \"@openzeppelin/contracts/utils/math/SafeMath.sol\":3938:3939  b */\n      dup2\n        /* \"@openzeppelin/contracts/utils/math/SafeMath.sol\":3934:3935  a */\n      dup4\n        /* \"@openzeppelin/contracts/utils/math/SafeMath.sol\":3934:3939  a / b */\n      tag_292\n      swap2\n      swap1\n      tag_293\n      jump\t// in\n    tag_292:\n        /* \"@openzeppelin/contracts/utils/math/SafeMath.sol\":3927:3939  return a / b */\n      swap1\n      pop\n        /* \"@openzeppelin/contracts/utils/math/SafeMath.sol\":3850:3946  function div(uint256 a, uint256 b) internal pure returns (uint256) {... */\n      swap3\n      swap2\n      pop\n      pop\n      jump\t// out\n        /* \"initial-offering.sol\":12217:12660  function _sortBids(uint256 _assetId) internal {... */\n    tag_232:\n        /* \"initial-offering.sol\":12273:12291  Bid[] storage bids */\n      0x00\n        /* \"initial-offering.sol\":12294:12303  assetBids */\n      0x02\n        /* \"initial-offering.sol\":12294:12313  assetBids[_assetId] */\n      0x00\n        /* \"initial-offering.sol\":12304:12312  _assetId */\n      dup4\n        /* \"initial-offering.sol\":12294:12313  assetBids[_assetId] */\n      dup2\n      mstore\n      0x20\n      add\n      swap1\n      dup2\n      mstore\n      0x20\n      add\n      0x00\n      keccak256\n        /* \"initial-offering.sol\":12273:12313  Bid[] storage bids = assetBids[_assetId] */\n      swap1\n      pop\n        /* \"initial-offering.sol\":12327:12336  uint256 i */\n      0x00\n        /* \"initial-offering.sol\":12323:12654  for(uint256 i = 0; i < bids.length; i++) {... */\n    tag_295:\n        /* \"initial-offering.sol\":12346:12350  bids */\n      dup2\n        /* \"initial-offering.sol\":12346:12357  bids.length */\n      dup1\n      sload\n      swap1\n      pop\n        /* \"initial-offering.sol\":12342:12343  i */\n      dup2\n        /* \"initial-offering.sol\":12342:12357  i < bids.length */\n      lt\n        /* \"initial-offering.sol\":12323:12654  for(uint256 i = 0; i < bids.length; i++) {... */\n      iszero\n      tag_296\n      jumpi\n        /* \"initial-offering.sol\":12382:12391  uint256 j */\n      0x00\n        /* \"initial-offering.sol\":12396:12397  1 */\n      0x01\n        /* \"initial-offering.sol\":12394:12395  i */\n      dup3\n        /* \"initial-offering.sol\":12394:12397  i+1 */\n      tag_301\n      swap2\n      swap1\n      tag_149\n      jump\t// in\n    tag_301:\n        /* \"initial-offering.sol\":12382:12397  uint256 j = i+1 */\n      swap1\n      pop\n        /* \"initial-offering.sol\":12378:12644  for(uint256 j = i+1; j < bids.length; j++) {... */\n    tag_298:\n        /* \"initial-offering.sol\":12403:12407  bids */\n      dup3\n        /* \"initial-offering.sol\":12403:12414  bids.length */\n      dup1\n      sload\n      swap1\n      pop\n        /* \"initial-offering.sol\":12399:12400  j */\n      dup2\n        /* \"initial-offering.sol\":12399:12414  j < bids.length */\n      lt\n        /* \"initial-offering.sol\":12378:12644  for(uint256 j = i+1; j < bids.length; j++) {... */\n      iszero\n      tag_299\n      jumpi\n        /* \"initial-offering.sol\":12466:12470  bids */\n      dup3\n        /* \"initial-offering.sol\":12471:12472  j */\n      dup2\n        /* \"initial-offering.sol\":12466:12473  bids[j] */\n      dup2\n      sload\n      dup2\n      lt\n      tag_302\n      jumpi\n      tag_303\n      tag_93\n      jump\t// in\n    tag_303:\n    tag_302:\n      swap1\n      0x00\n      mstore\n      keccak256(0x00, 0x20)\n      swap1\n      0x04\n      mul\n      add\n        /* \"initial-offering.sol\":12466:12487  bids[j].pricePerShare */\n      0x02\n      add\n      sload\n        /* \"initial-offering.sol\":12442:12446  bids */\n      dup4\n        /* \"initial-offering.sol\":12447:12448  i */\n      dup4\n        /* \"initial-offering.sol\":12442:12449  bids[i] */\n      dup2\n      sload\n      dup2\n      lt\n      tag_305\n      jumpi\n      tag_306\n      tag_93\n      jump\t// in\n    tag_306:\n    tag_305:\n      swap1\n      0x00\n      mstore\n      keccak256(0x00, 0x20)\n      swap1\n      0x04\n      mul\n      add\n        /* \"initial-offering.sol\":12442:12463  bids[i].pricePerShare */\n      0x02\n      add\n      sload\n        /* \"initial-offering.sol\":12442:12487  bids[i].pricePerShare < bids[j].pricePerShare */\n      lt\n        /* \"initial-offering.sol\":12439:12630  if(bids[i].pricePerShare < bids[j].pricePerShare) {... */\n      iszero\n      tag_308\n      jumpi\n        /* \"initial-offering.sol\":12511:12526  Bid memory temp */\n      0x00\n        /* \"initial-offering.sol\":12529:12533  bids */\n      dup4\n        /* \"initial-offering.sol\":12534:12535  i */\n      dup4\n        /* \"initial-offering.sol\":12529:12536  bids[i] */\n      dup2\n      sload\n      dup2\n      lt\n      tag_309\n      jumpi\n      tag_310\n      tag_93\n      jump\t// in\n    tag_310:\n    tag_309:\n      swap1\n      0x00\n      mstore\n      keccak256(0x00, 0x20)\n      swap1\n      0x04\n      mul\n      add\n        /* \"initial-offering.sol\":12511:12536  Bid memory temp = bids[i] */\n      mload(0x40)\n      dup1\n      0x80\n      add\n      0x40\n      mstore\n      swap1\n      dup2\n      0x00\n      dup3\n      add\n      0x00\n      swap1\n      sload\n      swap1\n      0x0100\n      exp\n      swap1\n      div\n      0xffffffffffffffffffffffffffffffffffffffff\n      and\n      0xffffffffffffffffffffffffffffffffffffffff\n      and\n      0xffffffffffffffffffffffffffffffffffffffff\n      and\n      dup2\n      mstore\n      0x20\n      add\n      0x01\n      dup3\n      add\n      sload\n      dup2\n      mstore\n      0x20\n      add\n      0x02\n      dup3\n      add\n      sload\n      dup2\n      mstore\n      0x20\n      add\n      0x03\n      dup3\n      add\n      0x00\n      swap1\n      sload\n      swap1\n      0x0100\n      exp\n      swap1\n      div\n      0xff\n      and\n      iszero\n      iszero\n      iszero\n      iszero\n      dup2\n      mstore\n      pop\n      pop\n      swap1\n      pop\n        /* \"initial-offering.sol\":12568:12572  bids */\n      dup4\n        /* \"initial-offering.sol\":12573:12574  j */\n      dup3\n        /* \"initial-offering.sol\":12568:12575  bids[j] */\n      dup2\n      sload\n      dup2\n      lt\n      tag_312\n      jumpi\n      tag_313\n      tag_93\n      jump\t// in\n    tag_313:\n    tag_312:\n      swap1\n      0x00\n      mstore\n      keccak256(0x00, 0x20)\n      swap1\n      0x04\n      mul\n      add\n        /* \"initial-offering.sol\":12558:12562  bids */\n      dup5\n        /* \"initial-offering.sol\":12563:12564  i */\n      dup5\n        /* \"initial-offering.sol\":12558:12565  bids[i] */\n      dup2\n      sload\n      dup2\n      lt\n      tag_315\n      jumpi\n      tag_316\n      tag_93\n      jump\t// in\n    tag_316:\n    tag_315:\n      swap1\n      0x00\n      mstore\n      keccak256(0x00, 0x20)\n      swap1\n      0x04\n      mul\n      add\n        /* \"initial-offering.sol\":12558:12575  bids[i] = bids[j] */\n      0x00\n      dup3\n      add\n      0x00\n      swap1\n      sload\n      swap1\n      0x0100\n      exp\n      swap1\n      div\n      0xffffffffffffffffffffffffffffffffffffffff\n      and\n      dup2\n      0x00\n      add\n      exp(0x0100, 0x00)\n      dup2\n      sload\n      dup2\n      0xffffffffffffffffffffffffffffffffffffffff\n      mul\n      not\n      and\n      swap1\n      dup4\n      0xffffffffffffffffffffffffffffffffffffffff\n      and\n      mul\n      or\n      swap1\n      sstore\n      pop\n      0x01\n      dup3\n      add\n      sload\n      dup2\n      0x01\n      add\n      sstore\n      0x02\n      dup3\n      add\n      sload\n      dup2\n      0x02\n      add\n      sstore\n      0x03\n      dup3\n      add\n      0x00\n      swap1\n      sload\n      swap1\n      0x0100\n      exp\n      swap1\n      div\n      0xff\n      and\n      dup2\n      0x03\n      add\n      exp(0x0100, 0x00)\n      dup2\n      sload\n      dup2\n      0xff\n      mul\n      not\n      and\n      swap1\n      dup4\n      iszero\n      iszero\n      mul\n      or\n      swap1\n      sstore\n      pop\n      swap1\n      pop\n      pop\n        /* \"initial-offering.sol\":12607:12611  temp */\n      dup1\n        /* \"initial-offering.sol\":12597:12601  bids */\n      dup5\n        /* \"initial-offering.sol\":12602:12603  j */\n      dup4\n        /* \"initial-offering.sol\":12597:12604  bids[j] */\n      dup2\n      sload\n      dup2\n      lt\n      tag_318\n      jumpi\n      tag_319\n      tag_93\n      jump\t// in\n    tag_319:\n    tag_318:\n      swap1\n      0x00\n      mstore\n      keccak256(0x00, 0x20)\n      swap1\n      0x04\n      mul\n      add\n        /* \"initial-offering.sol\":12597:12611  bids[j] = temp */\n      0x00\n      dup3\n      add\n      mload\n      dup2\n      0x00\n      add\n      exp(0x0100, 0x00)\n      dup2\n      sload\n      dup2\n      0xffffffffffffffffffffffffffffffffffffffff\n      mul\n      not\n      and\n      swap1\n      dup4\n      0xffffffffffffffffffffffffffffffffffffffff\n      and\n      mul\n      or\n      swap1\n      sstore\n      pop\n      0x20\n      dup3\n      add\n      mload\n      dup2\n      0x01\n      add\n      sstore\n      0x40\n      dup3\n      add\n      mload\n      dup2\n      0x02\n      add\n      sstore\n      0x60\n      dup3\n      add\n      mload\n      dup2\n      0x03\n      add\n      exp(0x0100, 0x00)\n      dup2\n      sload\n      dup2\n      0xff\n      mul\n      not\n      and\n      swap1\n      dup4\n      iszero\n      iszero\n      mul\n      or\n      swap1\n      sstore\n      pop\n      swap1\n      pop\n      pop\n        /* \"initial-offering.sol\":12489:12630  {... */\n      pop\n        /* \"initial-offering.sol\":12439:12630  if(bids[i].pricePerShare < bids[j].pricePerShare) {... */\n    tag_308:\n        /* \"initial-offering.sol\":12416:12419  j++ */\n      dup1\n      dup1\n      0x01\n      add\n      swap2\n      pop\n      pop\n        /* \"initial-offering.sol\":12378:12644  for(uint256 j = i+1; j < bids.length; j++) {... */\n      jump(tag_298)\n    tag_299:\n      pop\n        /* \"initial-offering.sol\":12359:12362  i++ */\n      dup1\n      dup1\n      0x01\n      add\n      swap2\n      pop\n      pop\n        /* \"initial-offering.sol\":12323:12654  for(uint256 i = 0; i < bids.length; i++) {... */\n      jump(tag_295)\n    tag_296:\n      pop\n        /* \"initial-offering.sol\":12263:12660  {... */\n      pop\n        /* \"initial-offering.sol\":12217:12660  function _sortBids(uint256 _assetId) internal {... */\n      pop\n      jump\t// out\n        /* \"@openzeppelin/contracts/utils/math/SafeMath.sol\":3465:3561  function mul(uint256 a, uint256 b) internal pure returns (uint256) {... */\n    tag_245:\n        /* \"@openzeppelin/contracts/utils/math/SafeMath.sol\":3523:3530  uint256 */\n      0x00\n        /* \"@openzeppelin/contracts/utils/math/SafeMath.sol\":3553:3554  b */\n      dup2\n        /* \"@openzeppelin/contracts/utils/math/SafeMath.sol\":3549:3550  a */\n      dup4\n        /* \"@openzeppelin/contracts/utils/math/SafeMath.sol\":3549:3554  a * b */\n      tag_322\n      swap2\n      swap1\n      tag_323\n      jump\t// in\n    tag_322:\n        /* \"@openzeppelin/contracts/utils/math/SafeMath.sol\":3542:3554  return a * b */\n      swap1\n      pop\n        /* \"@openzeppelin/contracts/utils/math/SafeMath.sol\":3465:3561  function mul(uint256 a, uint256 b) internal pure returns (uint256) {... */\n      swap3\n      swap2\n      pop\n      pop\n      jump\t// out\n        /* \"@openzeppelin/contracts/utils/math/SafeMath.sol\":2755:2851  function add(uint256 a, uint256 b) internal pure returns (uint256) {... */\n    tag_246:\n        /* \"@openzeppelin/contracts/utils/math/SafeMath.sol\":2813:2820  uint256 */\n      0x00\n        /* \"@openzeppelin/contracts/utils/math/SafeMath.sol\":2843:2844  b */\n      dup2\n        /* \"@openzeppelin/contracts/utils/math/SafeMath.sol\":2839:2840  a */\n      dup4\n        /* \"@openzeppelin/contracts/utils/math/SafeMath.sol\":2839:2844  a + b */\n      tag_325\n      swap2\n      swap1\n      tag_149\n      jump\t// in\n    tag_325:\n        /* \"@openzeppelin/contracts/utils/math/SafeMath.sol\":2832:2844  return a + b */\n      swap1\n      pop\n        /* \"@openzeppelin/contracts/utils/math/SafeMath.sol\":2755:2851  function add(uint256 a, uint256 b) internal pure returns (uint256) {... */\n      swap3\n      swap2\n      pop\n      pop\n      jump\t// out\n        /* \"@openzeppelin/contracts/utils/math/SafeMath.sol\":3122:3218  function sub(uint256 a, uint256 b) internal pure returns (uint256) {... */\n    tag_248:\n        /* \"@openzeppelin/contracts/utils/math/SafeMath.sol\":3180:3187  uint256 */\n      0x00\n        /* \"@openzeppelin/contracts/utils/math/SafeMath.sol\":3210:3211  b */\n      dup2\n        /* \"@openzeppelin/contracts/utils/math/SafeMath.sol\":3206:3207  a */\n      dup4\n        /* \"@openzeppelin/contracts/utils/math/SafeMath.sol\":3206:3211  a - b */\n      tag_327\n      swap2\n      swap1\n      tag_328\n      jump\t// in\n    tag_327:\n        /* \"@openzeppelin/contracts/utils/math/SafeMath.sol\":3199:3211  return a - b */\n      swap1\n      pop\n        /* \"@openzeppelin/contracts/utils/math/SafeMath.sol\":3122:3218  function sub(uint256 a, uint256 b) internal pure returns (uint256) {... */\n      swap3\n      swap2\n      pop\n      pop\n      jump\t// out\n        /* \"initial-offering.sol\":12735:13171  function _refundAllBids(uint256 _assetId) internal {... */\n    tag_288:\n        /* \"initial-offering.sol\":12796:12814  Bid[] storage bids */\n      0x00\n        /* \"initial-offering.sol\":12817:12826  assetBids */\n      0x02\n        /* \"initial-offering.sol\":12817:12836  assetBids[_assetId] */\n      0x00\n        /* \"initial-offering.sol\":12827:12835  _assetId */\n      dup4\n        /* \"initial-offering.sol\":12817:12836  assetBids[_assetId] */\n      dup2\n      mstore\n      0x20\n      add\n      swap1\n      dup2\n      mstore\n      0x20\n      add\n      0x00\n      keccak256\n        /* \"initial-offering.sol\":12796:12836  Bid[] storage bids = assetBids[_assetId] */\n      swap1\n      pop\n        /* \"initial-offering.sol\":12850:12859  uint256 i */\n      0x00\n        /* \"initial-offering.sol\":12846:13165  for(uint256 i = 0; i < bids.length; i++) {... */\n    tag_330:\n        /* \"initial-offering.sol\":12869:12873  bids */\n      dup2\n        /* \"initial-offering.sol\":12869:12880  bids.length */\n      dup1\n      sload\n      swap1\n      pop\n        /* \"initial-offering.sol\":12865:12866  i */\n      dup2\n        /* \"initial-offering.sol\":12865:12880  i < bids.length */\n      lt\n        /* \"initial-offering.sol\":12846:13165  for(uint256 i = 0; i < bids.length; i++) {... */\n      iszero\n      tag_331\n      jumpi\n        /* \"initial-offering.sol\":12905:12909  bids */\n      dup2\n        /* \"initial-offering.sol\":12910:12911  i */\n      dup2\n        /* \"initial-offering.sol\":12905:12912  bids[i] */\n      dup2\n      sload\n      dup2\n      lt\n      tag_333\n      jumpi\n      tag_334\n      tag_93\n      jump\t// in\n    tag_334:\n    tag_333:\n      swap1\n      0x00\n      mstore\n      keccak256(0x00, 0x20)\n      swap1\n      0x04\n      mul\n      add\n        /* \"initial-offering.sol\":12905:12922  bids[i].allocated */\n      0x03\n      add\n      0x00\n      swap1\n      sload\n      swap1\n      0x0100\n      exp\n      swap1\n      div\n      0xff\n      and\n        /* \"initial-offering.sol\":12901:13155  if(!bids[i].allocated) {... */\n      tag_336\n      jumpi\n        /* \"initial-offering.sol\":12942:12962  uint256 refundAmount */\n      0x00\n        /* \"initial-offering.sol\":12965:13011  bids[i].shareAmount.mul(bids[i].pricePerShare) */\n      tag_337\n        /* \"initial-offering.sol\":12989:12993  bids */\n      dup4\n        /* \"initial-offering.sol\":12994:12995  i */\n      dup4\n        /* \"initial-offering.sol\":12989:12996  bids[i] */\n      dup2\n      sload\n      dup2\n      lt\n      tag_338\n      jumpi\n      tag_339\n      tag_93\n      jump\t// in\n    tag_339:\n    tag_338:\n      swap1\n      0x00\n      mstore\n      keccak256(0x00, 0x20)\n      swap1\n      0x04\n      mul\n      add\n        /* \"initial-offering.sol\":12989:13010  bids[i].pricePerShare */\n      0x02\n      add\n      sload\n        /* \"initial-offering.sol\":12965:12969  bids */\n      dup5\n        /* \"initial-offering.sol\":12970:12971  i */\n      dup5\n        /* \"initial-offering.sol\":12965:12972  bids[i] */\n      dup2\n      sload\n      dup2\n      lt\n      tag_341\n      jumpi\n      tag_342\n      tag_93\n      jump\t// in\n    tag_342:\n    tag_341:\n      swap1\n      0x00\n      mstore\n      keccak256(0x00, 0x20)\n      swap1\n      0x04\n      mul\n      add\n        /* \"initial-offering.sol\":12965:12984  bids[i].shareAmount */\n      0x01\n      add\n      sload\n        /* \"initial-offering.sol\":12965:12988  bids[i].shareAmount.mul */\n      tag_245\n      swap1\n        /* \"initial-offering.sol\":12965:13011  bids[i].shareAmount.mul(bids[i].pricePerShare) */\n      swap2\n      swap1\n      0xffffffff\n      and\n      jump\t// in\n    tag_337:\n        /* \"initial-offering.sol\":12942:13011  uint256 refundAmount = bids[i].shareAmount.mul(bids[i].pricePerShare) */\n      swap1\n      pop\n        /* \"initial-offering.sol\":13037:13041  bids */\n      dup3\n        /* \"initial-offering.sol\":13042:13043  i */\n      dup3\n        /* \"initial-offering.sol\":13037:13044  bids[i] */\n      dup2\n      sload\n      dup2\n      lt\n      tag_344\n      jumpi\n      tag_345\n      tag_93\n      jump\t// in\n    tag_345:\n    tag_344:\n      swap1\n      0x00\n      mstore\n      keccak256(0x00, 0x20)\n      swap1\n      0x04\n      mul\n      add\n        /* \"initial-offering.sol\":13037:13051  bids[i].bidder */\n      0x00\n      add\n      0x00\n      swap1\n      sload\n      swap1\n      0x0100\n      exp\n      swap1\n      div\n      0xffffffffffffffffffffffffffffffffffffffff\n      and\n        /* \"initial-offering.sol\":13029:13061  payable(bids[i].bidder).transfer */\n      0xffffffffffffffffffffffffffffffffffffffff\n      and\n        /* \"initial-offering.sol\":13029:13075  payable(bids[i].bidder).transfer(refundAmount) */\n      0x08fc\n        /* \"initial-offering.sol\":13062:13074  refundAmount */\n      dup3\n        /* \"initial-offering.sol\":13029:13075  payable(bids[i].bidder).transfer(refundAmount) */\n      swap1\n      dup2\n      iszero\n      mul\n      swap1\n      mload(0x40)\n      0x00\n      mload(0x40)\n      dup1\n      dup4\n      sub\n      dup2\n      dup6\n      dup9\n      dup9\n      call\n      swap4\n      pop\n      pop\n      pop\n      pop\n      iszero\n      dup1\n      iszero\n      tag_348\n      jumpi\n      returndatasize\n      0x00\n      dup1\n      returndatacopy\n      revert(0x00, returndatasize)\n    tag_348:\n      pop\n        /* \"initial-offering.sol\":13111:13115  bids */\n      dup3\n        /* \"initial-offering.sol\":13116:13117  i */\n      dup3\n        /* \"initial-offering.sol\":13111:13118  bids[i] */\n      dup2\n      sload\n      dup2\n      lt\n      tag_349\n      jumpi\n      tag_350\n      tag_93\n      jump\t// in\n    tag_350:\n    tag_349:\n      swap1\n      0x00\n      mstore\n      keccak256(0x00, 0x20)\n      swap1\n      0x04\n      mul\n      add\n        /* \"initial-offering.sol\":13111:13125  bids[i].bidder */\n      0x00\n      add\n      0x00\n      swap1\n      sload\n      swap1\n      0x0100\n      exp\n      swap1\n      div\n      0xffffffffffffffffffffffffffffffffffffffff\n      and\n        /* \"initial-offering.sol\":13098:13140  RefundIssued(bids[i].bidder, refundAmount) */\n      0xffffffffffffffffffffffffffffffffffffffff\n      and\n      0xa171b6942063c6f2800ce40a780edce37baa2b618571b11eedd1e69e626e7d76\n        /* \"initial-offering.sol\":13127:13139  refundAmount */\n      dup3\n        /* \"initial-offering.sol\":13098:13140  RefundIssued(bids[i].bidder, refundAmount) */\n      mload(0x40)\n      tag_352\n      swap2\n      swap1\n      tag_29\n      jump\t// in\n    tag_352:\n      mload(0x40)\n      dup1\n      swap2\n      sub\n      swap1\n      log2\n        /* \"initial-offering.sol\":12924:13155  {... */\n      pop\n        /* \"initial-offering.sol\":12901:13155  if(!bids[i].allocated) {... */\n    tag_336:\n        /* \"initial-offering.sol\":12882:12885  i++ */\n      dup1\n      dup1\n      0x01\n      add\n      swap2\n      pop\n      pop\n        /* \"initial-offering.sol\":12846:13165  for(uint256 i = 0; i < bids.length; i++) {... */\n      jump(tag_330)\n    tag_331:\n      pop\n        /* \"initial-offering.sol\":12786:13171  {... */\n      pop\n        /* \"initial-offering.sol\":12735:13171  function _refundAllBids(uint256 _assetId) internal {... */\n      pop\n      jump\t// out\n    tag_258:\n      pop\n      dup1\n      sload\n      0x00\n      dup3\n      sstore\n      swap1\n      0x00\n      mstore\n      keccak256(0x00, 0x20)\n      swap1\n      dup2\n      add\n      swap1\n      tag_354\n      swap2\n      swap1\n      tag_355\n      jump\t// in\n    tag_354:\n      pop\n      jump\t// out\n    tag_355:\n    tag_356:\n      dup1\n      dup3\n      gt\n      iszero\n      tag_357\n      jumpi\n      0x00\n      dup2\n      0x00\n      swap1\n      sstore\n      pop\n      0x01\n      add\n      jump(tag_356)\n    tag_357:\n      pop\n      swap1\n      jump\t// out\n        /* \"#utility.yul\":7:82   */\n    tag_358:\n        /* \"#utility.yul\":40:46   */\n      0x00\n        /* \"#utility.yul\":73:75   */\n      0x40\n        /* \"#utility.yul\":67:76   */\n      mload\n        /* \"#utility.yul\":57:76   */\n      swap1\n      pop\n        /* \"#utility.yul\":7:82   */\n      swap1\n      jump\t// out\n        /* \"#utility.yul\":88:205   */\n    tag_359:\n        /* \"#utility.yul\":197:198   */\n      0x00\n        /* \"#utility.yul\":194:195   */\n      dup1\n        /* \"#utility.yul\":187:199   */\n      revert\n        /* \"#utility.yul\":211:328   */\n    tag_360:\n        /* \"#utility.yul\":320:321   */\n      0x00\n        /* \"#utility.yul\":317:318   */\n      dup1\n        /* \"#utility.yul\":310:322   */\n      revert\n        /* \"#utility.yul\":334:411   */\n    tag_361:\n        /* \"#utility.yul\":371:378   */\n      0x00\n        /* \"#utility.yul\":400:405   */\n      dup2\n        /* \"#utility.yul\":389:405   */\n      swap1\n      pop\n        /* \"#utility.yul\":334:411   */\n      swap2\n      swap1\n      pop\n      jump\t// out\n        /* \"#utility.yul\":417:539   */\n    tag_362:\n        /* \"#utility.yul\":490:514   */\n      tag_452\n        /* \"#utility.yul\":508:513   */\n      dup2\n        /* \"#utility.yul\":490:514   */\n      tag_361\n      jump\t// in\n    tag_452:\n        /* \"#utility.yul\":483:488   */\n      dup2\n        /* \"#utility.yul\":480:515   */\n      eq\n        /* \"#utility.yul\":470:533   */\n      tag_453\n      jumpi\n        /* \"#utility.yul\":529:530   */\n      0x00\n        /* \"#utility.yul\":526:527   */\n      dup1\n        /* \"#utility.yul\":519:531   */\n      revert\n        /* \"#utility.yul\":470:533   */\n    tag_453:\n        /* \"#utility.yul\":417:539   */\n      pop\n      jump\t// out\n        /* \"#utility.yul\":545:684   */\n    tag_363:\n        /* \"#utility.yul\":591:596   */\n      0x00\n        /* \"#utility.yul\":629:635   */\n      dup2\n        /* \"#utility.yul\":616:636   */\n      calldataload\n        /* \"#utility.yul\":607:636   */\n      swap1\n      pop\n        /* \"#utility.yul\":645:678   */\n      tag_455\n        /* \"#utility.yul\":672:677   */\n      dup2\n        /* \"#utility.yul\":645:678   */\n      tag_362\n      jump\t// in\n    tag_455:\n        /* \"#utility.yul\":545:684   */\n      swap3\n      swap2\n      pop\n      pop\n      jump\t// out\n        /* \"#utility.yul\":690:1019   */\n    tag_17:\n        /* \"#utility.yul\":749:755   */\n      0x00\n        /* \"#utility.yul\":798:800   */\n      0x20\n        /* \"#utility.yul\":786:795   */\n      dup3\n        /* \"#utility.yul\":777:784   */\n      dup5\n        /* \"#utility.yul\":773:796   */\n      sub\n        /* \"#utility.yul\":769:801   */\n      slt\n        /* \"#utility.yul\":766:885   */\n      iszero\n      tag_457\n      jumpi\n        /* \"#utility.yul\":804:883   */\n      tag_458\n      tag_359\n      jump\t// in\n    tag_458:\n        /* \"#utility.yul\":766:885   */\n    tag_457:\n        /* \"#utility.yul\":924:925   */\n      0x00\n        /* \"#utility.yul\":949:1002   */\n      tag_459\n        /* \"#utility.yul\":994:1001   */\n      dup5\n        /* \"#utility.yul\":985:991   */\n      dup3\n        /* \"#utility.yul\":974:983   */\n      dup6\n        /* \"#utility.yul\":970:992   */\n      add\n        /* \"#utility.yul\":949:1002   */\n      tag_363\n      jump\t// in\n    tag_459:\n        /* \"#utility.yul\":939:1002   */\n      swap2\n      pop\n        /* \"#utility.yul\":895:1012   */\n      pop\n        /* \"#utility.yul\":690:1019   */\n      swap3\n      swap2\n      pop\n      pop\n      jump\t// out\n        /* \"#utility.yul\":1025:1139   */\n    tag_364:\n        /* \"#utility.yul\":1092:1098   */\n      0x00\n        /* \"#utility.yul\":1126:1131   */\n      dup2\n        /* \"#utility.yul\":1120:1132   */\n      mload\n        /* \"#utility.yul\":1110:1132   */\n      swap1\n      pop\n        /* \"#utility.yul\":1025:1139   */\n      swap2\n      swap1\n      pop\n      jump\t// out\n        /* \"#utility.yul\":1145:1329   */\n    tag_365:\n        /* \"#utility.yul\":1244:1255   */\n      0x00\n        /* \"#utility.yul\":1278:1284   */\n      dup3\n        /* \"#utility.yul\":1273:1276   */\n      dup3\n        /* \"#utility.yul\":1266:1285   */\n      mstore\n        /* \"#utility.yul\":1318:1322   */\n      0x20\n        /* \"#utility.yul\":1313:1316   */\n      dup3\n        /* \"#utility.yul\":1309:1323   */\n      add\n        /* \"#utility.yul\":1294:1323   */\n      swap1\n      pop\n        /* \"#utility.yul\":1145:1329   */\n      swap3\n      swap2\n      pop\n      pop\n      jump\t// out\n        /* \"#utility.yul\":1335:1467   */\n    tag_366:\n        /* \"#utility.yul\":1402:1406   */\n      0x00\n        /* \"#utility.yul\":1425:1428   */\n      dup2\n        /* \"#utility.yul\":1417:1428   */\n      swap1\n      pop\n        /* \"#utility.yul\":1455:1459   */\n      0x20\n        /* \"#utility.yul\":1450:1453   */\n      dup3\n        /* \"#utility.yul\":1446:1460   */\n      add\n        /* \"#utility.yul\":1438:1460   */\n      swap1\n      pop\n        /* \"#utility.yul\":1335:1467   */\n      swap2\n      swap1\n      pop\n      jump\t// out\n        /* \"#utility.yul\":1473:1599   */\n    tag_367:\n        /* \"#utility.yul\":1510:1517   */\n      0x00\n        /* \"#utility.yul\":1550:1592   */\n      0xffffffffffffffffffffffffffffffffffffffff\n        /* \"#utility.yul\":1543:1548   */\n      dup3\n        /* \"#utility.yul\":1539:1593   */\n      and\n        /* \"#utility.yul\":1528:1593   */\n      swap1\n      pop\n        /* \"#utility.yul\":1473:1599   */\n      swap2\n      swap1\n      pop\n      jump\t// out\n        /* \"#utility.yul\":1605:1701   */\n    tag_368:\n        /* \"#utility.yul\":1642:1649   */\n      0x00\n        /* \"#utility.yul\":1671:1695   */\n      tag_465\n        /* \"#utility.yul\":1689:1694   */\n      dup3\n        /* \"#utility.yul\":1671:1695   */\n      tag_367\n      jump\t// in\n    tag_465:\n        /* \"#utility.yul\":1660:1695   */\n      swap1\n      pop\n        /* \"#utility.yul\":1605:1701   */\n      swap2\n      swap1\n      pop\n      jump\t// out\n        /* \"#utility.yul\":1707:1815   */\n    tag_369:\n        /* \"#utility.yul\":1784:1808   */\n      tag_467\n        /* \"#utility.yul\":1802:1807   */\n      dup2\n        /* \"#utility.yul\":1784:1808   */\n      tag_368\n      jump\t// in\n    tag_467:\n        /* \"#utility.yul\":1779:1782   */\n      dup3\n        /* \"#utility.yul\":1772:1809   */\n      mstore\n        /* \"#utility.yul\":1707:1815   */\n      pop\n      pop\n      jump\t// out\n        /* \"#utility.yul\":1821:2000   */\n    tag_370:\n        /* \"#utility.yul\":1890:1900   */\n      0x00\n        /* \"#utility.yul\":1911:1957   */\n      tag_469\n        /* \"#utility.yul\":1953:1956   */\n      dup4\n        /* \"#utility.yul\":1945:1951   */\n      dup4\n        /* \"#utility.yul\":1911:1957   */\n      tag_369\n      jump\t// in\n    tag_469:\n        /* \"#utility.yul\":1989:1993   */\n      0x20\n        /* \"#utility.yul\":1984:1987   */\n      dup4\n        /* \"#utility.yul\":1980:1994   */\n      add\n        /* \"#utility.yul\":1966:1994   */\n      swap1\n      pop\n        /* \"#utility.yul\":1821:2000   */\n      swap3\n      swap2\n      pop\n      pop\n      jump\t// out\n        /* \"#utility.yul\":2006:2119   */\n    tag_371:\n        /* \"#utility.yul\":2076:2080   */\n      0x00\n        /* \"#utility.yul\":2108:2112   */\n      0x20\n        /* \"#utility.yul\":2103:2106   */\n      dup3\n        /* \"#utility.yul\":2099:2113   */\n      add\n        /* \"#utility.yul\":2091:2113   */\n      swap1\n      pop\n        /* \"#utility.yul\":2006:2119   */\n      swap2\n      swap1\n      pop\n      jump\t// out\n        /* \"#utility.yul\":2155:2887   */\n    tag_372:\n        /* \"#utility.yul\":2274:2277   */\n      0x00\n        /* \"#utility.yul\":2303:2357   */\n      tag_472\n        /* \"#utility.yul\":2351:2356   */\n      dup3\n        /* \"#utility.yul\":2303:2357   */\n      tag_364\n      jump\t// in\n    tag_472:\n        /* \"#utility.yul\":2373:2459   */\n      tag_473\n        /* \"#utility.yul\":2452:2458   */\n      dup2\n        /* \"#utility.yul\":2447:2450   */\n      dup6\n        /* \"#utility.yul\":2373:2459   */\n      tag_365\n      jump\t// in\n    tag_473:\n        /* \"#utility.yul\":2366:2459   */\n      swap4\n      pop\n        /* \"#utility.yul\":2483:2539   */\n      tag_474\n        /* \"#utility.yul\":2533:2538   */\n      dup4\n        /* \"#utility.yul\":2483:2539   */\n      tag_366\n      jump\t// in\n    tag_474:\n        /* \"#utility.yul\":2562:2569   */\n      dup1\n        /* \"#utility.yul\":2593:2594   */\n      0x00\n        /* \"#utility.yul\":2578:2862   */\n    tag_475:\n        /* \"#utility.yul\":2603:2609   */\n      dup4\n        /* \"#utility.yul\":2600:2601   */\n      dup2\n        /* \"#utility.yul\":2597:2610   */\n      lt\n        /* \"#utility.yul\":2578:2862   */\n      iszero\n      tag_477\n      jumpi\n        /* \"#utility.yul\":2679:2685   */\n      dup2\n        /* \"#utility.yul\":2673:2686   */\n      mload\n        /* \"#utility.yul\":2706:2769   */\n      tag_478\n        /* \"#utility.yul\":2765:2768   */\n      dup9\n        /* \"#utility.yul\":2750:2763   */\n      dup3\n        /* \"#utility.yul\":2706:2769   */\n      tag_370\n      jump\t// in\n    tag_478:\n        /* \"#utility.yul\":2699:2769   */\n      swap8\n      pop\n        /* \"#utility.yul\":2792:2852   */\n      tag_479\n        /* \"#utility.yul\":2845:2851   */\n      dup4\n        /* \"#utility.yul\":2792:2852   */\n      tag_371\n      jump\t// in\n    tag_479:\n        /* \"#utility.yul\":2782:2852   */\n      swap3\n      pop\n        /* \"#utility.yul\":2638:2862   */\n      pop\n        /* \"#utility.yul\":2625:2626   */\n      0x01\n        /* \"#utility.yul\":2622:2623   */\n      dup2\n        /* \"#utility.yul\":2618:2627   */\n      add\n        /* \"#utility.yul\":2613:2627   */\n      swap1\n      pop\n        /* \"#utility.yul\":2578:2862   */\n      jump(tag_475)\n    tag_477:\n        /* \"#utility.yul\":2582:2596   */\n      pop\n        /* \"#utility.yul\":2878:2881   */\n      dup6\n        /* \"#utility.yul\":2871:2881   */\n      swap4\n      pop\n        /* \"#utility.yul\":2279:2887   */\n      pop\n      pop\n      pop\n        /* \"#utility.yul\":2155:2887   */\n      swap3\n      swap2\n      pop\n      pop\n      jump\t// out\n        /* \"#utility.yul\":2893:3007   */\n    tag_373:\n        /* \"#utility.yul\":2960:2966   */\n      0x00\n        /* \"#utility.yul\":2994:2999   */\n      dup2\n        /* \"#utility.yul\":2988:3000   */\n      mload\n        /* \"#utility.yul\":2978:3000   */\n      swap1\n      pop\n        /* \"#utility.yul\":2893:3007   */\n      swap2\n      swap1\n      pop\n      jump\t// out\n        /* \"#utility.yul\":3013:3197   */\n    tag_374:\n        /* \"#utility.yul\":3112:3123   */\n      0x00\n        /* \"#utility.yul\":3146:3152   */\n      dup3\n        /* \"#utility.yul\":3141:3144   */\n      dup3\n        /* \"#utility.yul\":3134:3153   */\n      mstore\n        /* \"#utility.yul\":3186:3190   */\n      0x20\n        /* \"#utility.yul\":3181:3184   */\n      dup3\n        /* \"#utility.yul\":3177:3191   */\n      add\n        /* \"#utility.yul\":3162:3191   */\n      swap1\n      pop\n        /* \"#utility.yul\":3013:3197   */\n      swap3\n      swap2\n      pop\n      pop\n      jump\t// out\n        /* \"#utility.yul\":3203:3335   */\n    tag_375:\n        /* \"#utility.yul\":3270:3274   */\n      0x00\n        /* \"#utility.yul\":3293:3296   */\n      dup2\n        /* \"#utility.yul\":3285:3296   */\n      swap1\n      pop\n        /* \"#utility.yul\":3323:3327   */\n      0x20\n        /* \"#utility.yul\":3318:3321   */\n      dup3\n        /* \"#utility.yul\":3314:3328   */\n      add\n        /* \"#utility.yul\":3306:3328   */\n      swap1\n      pop\n        /* \"#utility.yul\":3203:3335   */\n      swap2\n      swap1\n      pop\n      jump\t// out\n        /* \"#utility.yul\":3341:3449   */\n    tag_376:\n        /* \"#utility.yul\":3418:3442   */\n      tag_484\n        /* \"#utility.yul\":3436:3441   */\n      dup2\n        /* \"#utility.yul\":3418:3442   */\n      tag_361\n      jump\t// in\n    tag_484:\n        /* \"#utility.yul\":3413:3416   */\n      dup3\n        /* \"#utility.yul\":3406:3443   */\n      mstore\n        /* \"#utility.yul\":3341:3449   */\n      pop\n      pop\n      jump\t// out\n        /* \"#utility.yul\":3455:3634   */\n    tag_377:\n        /* \"#utility.yul\":3524:3534   */\n      0x00\n        /* \"#utility.yul\":3545:3591   */\n      tag_486\n        /* \"#utility.yul\":3587:3590   */\n      dup4\n        /* \"#utility.yul\":3579:3585   */\n      dup4\n        /* \"#utility.yul\":3545:3591   */\n      tag_376\n      jump\t// in\n    tag_486:\n        /* \"#utility.yul\":3623:3627   */\n      0x20\n        /* \"#utility.yul\":3618:3621   */\n      dup4\n        /* \"#utility.yul\":3614:3628   */\n      add\n        /* \"#utility.yul\":3600:3628   */\n      swap1\n      pop\n        /* \"#utility.yul\":3455:3634   */\n      swap3\n      swap2\n      pop\n      pop\n      jump\t// out\n        /* \"#utility.yul\":3640:3753   */\n    tag_378:\n        /* \"#utility.yul\":3710:3714   */\n      0x00\n        /* \"#utility.yul\":3742:3746   */\n      0x20\n        /* \"#utility.yul\":3737:3740   */\n      dup3\n        /* \"#utility.yul\":3733:3747   */\n      add\n        /* \"#utility.yul\":3725:3747   */\n      swap1\n      pop\n        /* \"#utility.yul\":3640:3753   */\n      swap2\n      swap1\n      pop\n      jump\t// out\n        /* \"#utility.yul\":3789:4521   */\n    tag_379:\n        /* \"#utility.yul\":3908:3911   */\n      0x00\n        /* \"#utility.yul\":3937:3991   */\n      tag_489\n        /* \"#utility.yul\":3985:3990   */\n      dup3\n        /* \"#utility.yul\":3937:3991   */\n      tag_373\n      jump\t// in\n    tag_489:\n        /* \"#utility.yul\":4007:4093   */\n      tag_490\n        /* \"#utility.yul\":4086:4092   */\n      dup2\n        /* \"#utility.yul\":4081:4084   */\n      dup6\n        /* \"#utility.yul\":4007:4093   */\n      tag_374\n      jump\t// in\n    tag_490:\n        /* \"#utility.yul\":4000:4093   */\n      swap4\n      pop\n        /* \"#utility.yul\":4117:4173   */\n      tag_491\n        /* \"#utility.yul\":4167:4172   */\n      dup4\n        /* \"#utility.yul\":4117:4173   */\n      tag_375\n      jump\t// in\n    tag_491:\n        /* \"#utility.yul\":4196:4203   */\n      dup1\n        /* \"#utility.yul\":4227:4228   */\n      0x00\n        /* \"#utility.yul\":4212:4496   */\n    tag_492:\n        /* \"#utility.yul\":4237:4243   */\n      dup4\n        /* \"#utility.yul\":4234:4235   */\n      dup2\n        /* \"#utility.yul\":4231:4244   */\n      lt\n        /* \"#utility.yul\":4212:4496   */\n      iszero\n      tag_494\n      jumpi\n        /* \"#utility.yul\":4313:4319   */\n      dup2\n        /* \"#utility.yul\":4307:4320   */\n      mload\n        /* \"#utility.yul\":4340:4403   */\n      tag_495\n        /* \"#utility.yul\":4399:4402   */\n      dup9\n        /* \"#utility.yul\":4384:4397   */\n      dup3\n        /* \"#utility.yul\":4340:4403   */\n      tag_377\n      jump\t// in\n    tag_495:\n        /* \"#utility.yul\":4333:4403   */\n      swap8\n      pop\n        /* \"#utility.yul\":4426:4486   */\n      tag_496\n        /* \"#utility.yul\":4479:4485   */\n      dup4\n        /* \"#utility.yul\":4426:4486   */\n      tag_378\n      jump\t// in\n    tag_496:\n        /* \"#utility.yul\":4416:4486   */\n      swap3\n      pop\n        /* \"#utility.yul\":4272:4496   */\n      pop\n        /* \"#utility.yul\":4259:4260   */\n      0x01\n        /* \"#utility.yul\":4256:4257   */\n      dup2\n        /* \"#utility.yul\":4252:4261   */\n      add\n        /* \"#utility.yul\":4247:4261   */\n      swap1\n      pop\n        /* \"#utility.yul\":4212:4496   */\n      jump(tag_492)\n    tag_494:\n        /* \"#utility.yul\":4216:4230   */\n      pop\n        /* \"#utility.yul\":4512:4515   */\n      dup6\n        /* \"#utility.yul\":4505:4515   */\n      swap4\n      pop\n        /* \"#utility.yul\":3913:4521   */\n      pop\n      pop\n      pop\n        /* \"#utility.yul\":3789:4521   */\n      swap3\n      swap2\n      pop\n      pop\n      jump\t// out\n        /* \"#utility.yul\":4527:4638   */\n    tag_380:\n        /* \"#utility.yul\":4591:4597   */\n      0x00\n        /* \"#utility.yul\":4625:4630   */\n      dup2\n        /* \"#utility.yul\":4619:4631   */\n      mload\n        /* \"#utility.yul\":4609:4631   */\n      swap1\n      pop\n        /* \"#utility.yul\":4527:4638   */\n      swap2\n      swap1\n      pop\n      jump\t// out\n        /* \"#utility.yul\":4644:4825   */\n    tag_381:\n        /* \"#utility.yul\":4740:4751   */\n      0x00\n        /* \"#utility.yul\":4774:4780   */\n      dup3\n        /* \"#utility.yul\":4769:4772   */\n      dup3\n        /* \"#utility.yul\":4762:4781   */\n      mstore\n        /* \"#utility.yul\":4814:4818   */\n      0x20\n        /* \"#utility.yul\":4809:4812   */\n      dup3\n        /* \"#utility.yul\":4805:4819   */\n      add\n        /* \"#utility.yul\":4790:4819   */\n      swap1\n      pop\n        /* \"#utility.yul\":4644:4825   */\n      swap3\n      swap2\n      pop\n      pop\n      jump\t// out\n        /* \"#utility.yul\":4831:4960   */\n    tag_382:\n        /* \"#utility.yul\":4895:4899   */\n      0x00\n        /* \"#utility.yul\":4918:4921   */\n      dup2\n        /* \"#utility.yul\":4910:4921   */\n      swap1\n      pop\n        /* \"#utility.yul\":4948:4952   */\n      0x20\n        /* \"#utility.yul\":4943:4946   */\n      dup3\n        /* \"#utility.yul\":4939:4953   */\n      add\n        /* \"#utility.yul\":4931:4953   */\n      swap1\n      pop\n        /* \"#utility.yul\":4831:4960   */\n      swap2\n      swap1\n      pop\n      jump\t// out\n        /* \"#utility.yul\":4966:5056   */\n    tag_383:\n        /* \"#utility.yul\":5000:5007   */\n      0x00\n        /* \"#utility.yul\":5043:5048   */\n      dup2\n        /* \"#utility.yul\":5036:5049   */\n      iszero\n        /* \"#utility.yul\":5029:5050   */\n      iszero\n        /* \"#utility.yul\":5018:5050   */\n      swap1\n      pop\n        /* \"#utility.yul\":4966:5056   */\n      swap2\n      swap1\n      pop\n      jump\t// out\n        /* \"#utility.yul\":5062:5161   */\n    tag_384:\n        /* \"#utility.yul\":5133:5154   */\n      tag_502\n        /* \"#utility.yul\":5148:5153   */\n      dup2\n        /* \"#utility.yul\":5133:5154   */\n      tag_383\n      jump\t// in\n    tag_502:\n        /* \"#utility.yul\":5128:5131   */\n      dup3\n        /* \"#utility.yul\":5121:5155   */\n      mstore\n        /* \"#utility.yul\":5062:5161   */\n      pop\n      pop\n      jump\t// out\n        /* \"#utility.yul\":5167:5334   */\n    tag_385:\n        /* \"#utility.yul\":5230:5240   */\n      0x00\n        /* \"#utility.yul\":5251:5291   */\n      tag_504\n        /* \"#utility.yul\":5287:5290   */\n      dup4\n        /* \"#utility.yul\":5279:5285   */\n      dup4\n        /* \"#utility.yul\":5251:5291   */\n      tag_384\n      jump\t// in\n    tag_504:\n        /* \"#utility.yul\":5323:5327   */\n      0x20\n        /* \"#utility.yul\":5318:5321   */\n      dup4\n        /* \"#utility.yul\":5314:5328   */\n      add\n        /* \"#utility.yul\":5300:5328   */\n      swap1\n      pop\n        /* \"#utility.yul\":5167:5334   */\n      swap3\n      swap2\n      pop\n      pop\n      jump\t// out\n        /* \"#utility.yul\":5340:5450   */\n    tag_386:\n        /* \"#utility.yul\":5407:5411   */\n      0x00\n        /* \"#utility.yul\":5439:5443   */\n      0x20\n        /* \"#utility.yul\":5434:5437   */\n      dup3\n        /* \"#utility.yul\":5430:5444   */\n      add\n        /* \"#utility.yul\":5422:5444   */\n      swap1\n      pop\n        /* \"#utility.yul\":5340:5450   */\n      swap2\n      swap1\n      pop\n      jump\t// out\n        /* \"#utility.yul\":5480:6188   */\n    tag_387:\n        /* \"#utility.yul\":5593:5596   */\n      0x00\n        /* \"#utility.yul\":5622:5673   */\n      tag_507\n        /* \"#utility.yul\":5667:5672   */\n      dup3\n        /* \"#utility.yul\":5622:5673   */\n      tag_380\n      jump\t// in\n    tag_507:\n        /* \"#utility.yul\":5689:5772   */\n      tag_508\n        /* \"#utility.yul\":5765:5771   */\n      dup2\n        /* \"#utility.yul\":5760:5763   */\n      dup6\n        /* \"#utility.yul\":5689:5772   */\n      tag_381\n      jump\t// in\n    tag_508:\n        /* \"#utility.yul\":5682:5772   */\n      swap4\n      pop\n        /* \"#utility.yul\":5796:5849   */\n      tag_509\n        /* \"#utility.yul\":5843:5848   */\n      dup4\n        /* \"#utility.yul\":5796:5849   */\n      tag_382\n      jump\t// in\n    tag_509:\n        /* \"#utility.yul\":5872:5879   */\n      dup1\n        /* \"#utility.yul\":5903:5904   */\n      0x00\n        /* \"#utility.yul\":5888:6163   */\n    tag_510:\n        /* \"#utility.yul\":5913:5919   */\n      dup4\n        /* \"#utility.yul\":5910:5911   */\n      dup2\n        /* \"#utility.yul\":5907:5920   */\n      lt\n        /* \"#utility.yul\":5888:6163   */\n      iszero\n      tag_512\n      jumpi\n        /* \"#utility.yul\":5989:5995   */\n      dup2\n        /* \"#utility.yul\":5983:5996   */\n      mload\n        /* \"#utility.yul\":6016:6073   */\n      tag_513\n        /* \"#utility.yul\":6069:6072   */\n      dup9\n        /* \"#utility.yul\":6054:6067   */\n      dup3\n        /* \"#utility.yul\":6016:6073   */\n      tag_385\n      jump\t// in\n    tag_513:\n        /* \"#utility.yul\":6009:6073   */\n      swap8\n      pop\n        /* \"#utility.yul\":6096:6153   */\n      tag_514\n        /* \"#utility.yul\":6146:6152   */\n      dup4\n        /* \"#utility.yul\":6096:6153   */\n      tag_386\n      jump\t// in\n    tag_514:\n        /* \"#utility.yul\":6086:6153   */\n      swap3\n      pop\n        /* \"#utility.yul\":5948:6163   */\n      pop\n        /* \"#utility.yul\":5935:5936   */\n      0x01\n        /* \"#utility.yul\":5932:5933   */\n      dup2\n        /* \"#utility.yul\":5928:5937   */\n      add\n        /* \"#utility.yul\":5923:5937   */\n      swap1\n      pop\n        /* \"#utility.yul\":5888:6163   */\n      jump(tag_510)\n    tag_512:\n        /* \"#utility.yul\":5892:5906   */\n      pop\n        /* \"#utility.yul\":6179:6182   */\n      dup6\n        /* \"#utility.yul\":6172:6182   */\n      swap4\n      pop\n        /* \"#utility.yul\":5598:6188   */\n      pop\n      pop\n      pop\n        /* \"#utility.yul\":5480:6188   */\n      swap3\n      swap2\n      pop\n      pop\n      jump\t// out\n        /* \"#utility.yul\":6194:7339   */\n    tag_20:\n        /* \"#utility.yul\":6565:6569   */\n      0x00\n        /* \"#utility.yul\":6603:6606   */\n      0x80\n        /* \"#utility.yul\":6592:6601   */\n      dup3\n        /* \"#utility.yul\":6588:6607   */\n      add\n        /* \"#utility.yul\":6580:6607   */\n      swap1\n      pop\n        /* \"#utility.yul\":6653:6662   */\n      dup2\n        /* \"#utility.yul\":6647:6651   */\n      dup2\n        /* \"#utility.yul\":6643:6663   */\n      sub\n        /* \"#utility.yul\":6639:6640   */\n      0x00\n        /* \"#utility.yul\":6628:6637   */\n      dup4\n        /* \"#utility.yul\":6624:6641   */\n      add\n        /* \"#utility.yul\":6617:6664   */\n      mstore\n        /* \"#utility.yul\":6681:6789   */\n      tag_516\n        /* \"#utility.yul\":6784:6788   */\n      dup2\n        /* \"#utility.yul\":6775:6781   */\n      dup8\n        /* \"#utility.yul\":6681:6789   */\n      tag_372\n      jump\t// in\n    tag_516:\n        /* \"#utility.yul\":6673:6789   */\n      swap1\n      pop\n        /* \"#utility.yul\":6836:6845   */\n      dup2\n        /* \"#utility.yul\":6830:6834   */\n      dup2\n        /* \"#utility.yul\":6826:6846   */\n      sub\n        /* \"#utility.yul\":6821:6823   */\n      0x20\n        /* \"#utility.yul\":6810:6819   */\n      dup4\n        /* \"#utility.yul\":6806:6824   */\n      add\n        /* \"#utility.yul\":6799:6847   */\n      mstore\n        /* \"#utility.yul\":6864:6972   */\n      tag_517\n        /* \"#utility.yul\":6967:6971   */\n      dup2\n        /* \"#utility.yul\":6958:6964   */\n      dup7\n        /* \"#utility.yul\":6864:6972   */\n      tag_379\n      jump\t// in\n    tag_517:\n        /* \"#utility.yul\":6856:6972   */\n      swap1\n      pop\n        /* \"#utility.yul\":7019:7028   */\n      dup2\n        /* \"#utility.yul\":7013:7017   */\n      dup2\n        /* \"#utility.yul\":7009:7029   */\n      sub\n        /* \"#utility.yul\":7004:7006   */\n      0x40\n        /* \"#utility.yul\":6993:7002   */\n      dup4\n        /* \"#utility.yul\":6989:7007   */\n      add\n        /* \"#utility.yul\":6982:7030   */\n      mstore\n        /* \"#utility.yul\":7047:7155   */\n      tag_518\n        /* \"#utility.yul\":7150:7154   */\n      dup2\n        /* \"#utility.yul\":7141:7147   */\n      dup6\n        /* \"#utility.yul\":7047:7155   */\n      tag_379\n      jump\t// in\n    tag_518:\n        /* \"#utility.yul\":7039:7155   */\n      swap1\n      pop\n        /* \"#utility.yul\":7202:7211   */\n      dup2\n        /* \"#utility.yul\":7196:7200   */\n      dup2\n        /* \"#utility.yul\":7192:7212   */\n      sub\n        /* \"#utility.yul\":7187:7189   */\n      0x60\n        /* \"#utility.yul\":7176:7185   */\n      dup4\n        /* \"#utility.yul\":7172:7190   */\n      add\n        /* \"#utility.yul\":7165:7213   */\n      mstore\n        /* \"#utility.yul\":7230:7332   */\n      tag_519\n        /* \"#utility.yul\":7327:7331   */\n      dup2\n        /* \"#utility.yul\":7318:7324   */\n      dup5\n        /* \"#utility.yul\":7230:7332   */\n      tag_387\n      jump\t// in\n    tag_519:\n        /* \"#utility.yul\":7222:7332   */\n      swap1\n      pop\n        /* \"#utility.yul\":6194:7339   */\n      swap6\n      swap5\n      pop\n      pop\n      pop\n      pop\n      pop\n      jump\t// out\n        /* \"#utility.yul\":7345:7463   */\n    tag_388:\n        /* \"#utility.yul\":7432:7456   */\n      tag_521\n        /* \"#utility.yul\":7450:7455   */\n      dup2\n        /* \"#utility.yul\":7432:7456   */\n      tag_361\n      jump\t// in\n    tag_521:\n        /* \"#utility.yul\":7427:7430   */\n      dup3\n        /* \"#utility.yul\":7420:7457   */\n      mstore\n        /* \"#utility.yul\":7345:7463   */\n      pop\n      pop\n      jump\t// out\n        /* \"#utility.yul\":7469:7691   */\n    tag_29:\n        /* \"#utility.yul\":7562:7566   */\n      0x00\n        /* \"#utility.yul\":7600:7602   */\n      0x20\n        /* \"#utility.yul\":7589:7598   */\n      dup3\n        /* \"#utility.yul\":7585:7603   */\n      add\n        /* \"#utility.yul\":7577:7603   */\n      swap1\n      pop\n        /* \"#utility.yul\":7613:7684   */\n      tag_523\n        /* \"#utility.yul\":7681:7682   */\n      0x00\n        /* \"#utility.yul\":7670:7679   */\n      dup4\n        /* \"#utility.yul\":7666:7683   */\n      add\n        /* \"#utility.yul\":7657:7663   */\n      dup5\n        /* \"#utility.yul\":7613:7684   */\n      tag_388\n      jump\t// in\n    tag_523:\n        /* \"#utility.yul\":7469:7691   */\n      swap3\n      swap2\n      pop\n      pop\n      jump\t// out\n        /* \"#utility.yul\":7697:7814   */\n    tag_389:\n        /* \"#utility.yul\":7806:7807   */\n      0x00\n        /* \"#utility.yul\":7803:7804   */\n      dup1\n        /* \"#utility.yul\":7796:7808   */\n      revert\n        /* \"#utility.yul\":7820:7937   */\n    tag_390:\n        /* \"#utility.yul\":7929:7930   */\n      0x00\n        /* \"#utility.yul\":7926:7927   */\n      dup1\n        /* \"#utility.yul\":7919:7931   */\n      revert\n        /* \"#utility.yul\":7943:8045   */\n    tag_391:\n        /* \"#utility.yul\":7984:7990   */\n      0x00\n        /* \"#utility.yul\":8035:8037   */\n      0x1f\n        /* \"#utility.yul\":8031:8038   */\n      not\n        /* \"#utility.yul\":8026:8028   */\n      0x1f\n        /* \"#utility.yul\":8019:8024   */\n      dup4\n        /* \"#utility.yul\":8015:8029   */\n      add\n        /* \"#utility.yul\":8011:8039   */\n      and\n        /* \"#utility.yul\":8001:8039   */\n      swap1\n      pop\n        /* \"#utility.yul\":7943:8045   */\n      swap2\n      swap1\n      pop\n      jump\t// out\n        /* \"#utility.yul\":8051:8231   */\n    tag_77:\n        /* \"#utility.yul\":8099:8176   */\n      0x4e487b7100000000000000000000000000000000000000000000000000000000\n        /* \"#utility.yul\":8096:8097   */\n      0x00\n        /* \"#utility.yul\":8089:8177   */\n      mstore\n        /* \"#utility.yul\":8196:8200   */\n      0x41\n        /* \"#utility.yul\":8193:8194   */\n      0x04\n        /* \"#utility.yul\":8186:8201   */\n      mstore\n        /* \"#utility.yul\":8220:8224   */\n      0x24\n        /* \"#utility.yul\":8217:8218   */\n      0x00\n        /* \"#utility.yul\":8210:8225   */\n      revert\n        /* \"#utility.yul\":8237:8518   */\n    tag_392:\n        /* \"#utility.yul\":8320:8347   */\n      tag_529\n        /* \"#utility.yul\":8342:8346   */\n      dup3\n        /* \"#utility.yul\":8320:8347   */\n      tag_391\n      jump\t// in\n    tag_529:\n        /* \"#utility.yul\":8312:8318   */\n      dup2\n        /* \"#utility.yul\":8308:8348   */\n      add\n        /* \"#utility.yul\":8450:8456   */\n      dup2\n        /* \"#utility.yul\":8438:8448   */\n      dup2\n        /* \"#utility.yul\":8435:8457   */\n      lt\n        /* \"#utility.yul\":8414:8432   */\n      0xffffffffffffffff\n        /* \"#utility.yul\":8402:8412   */\n      dup3\n        /* \"#utility.yul\":8399:8433   */\n      gt\n        /* \"#utility.yul\":8396:8458   */\n      or\n        /* \"#utility.yul\":8393:8481   */\n      iszero\n      tag_530\n      jumpi\n        /* \"#utility.yul\":8461:8479   */\n      tag_531\n      tag_77\n      jump\t// in\n    tag_531:\n        /* \"#utility.yul\":8393:8481   */\n    tag_530:\n        /* \"#utility.yul\":8501:8511   */\n      dup1\n        /* \"#utility.yul\":8497:8499   */\n      0x40\n        /* \"#utility.yul\":8490:8512   */\n      mstore\n        /* \"#utility.yul\":8280:8518   */\n      pop\n        /* \"#utility.yul\":8237:8518   */\n      pop\n      pop\n      jump\t// out\n        /* \"#utility.yul\":8524:8653   */\n    tag_393:\n        /* \"#utility.yul\":8558:8564   */\n      0x00\n        /* \"#utility.yul\":8585:8605   */\n      tag_533\n      tag_358\n      jump\t// in\n    tag_533:\n        /* \"#utility.yul\":8575:8605   */\n      swap1\n      pop\n        /* \"#utility.yul\":8614:8647   */\n      tag_534\n        /* \"#utility.yul\":8642:8646   */\n      dup3\n        /* \"#utility.yul\":8634:8640   */\n      dup3\n        /* \"#utility.yul\":8614:8647   */\n      tag_392\n      jump\t// in\n    tag_534:\n        /* \"#utility.yul\":8524:8653   */\n      swap2\n      swap1\n      pop\n      jump\t// out\n        /* \"#utility.yul\":8659:8967   */\n    tag_394:\n        /* \"#utility.yul\":8721:8725   */\n      0x00\n        /* \"#utility.yul\":8811:8829   */\n      0xffffffffffffffff\n        /* \"#utility.yul\":8803:8809   */\n      dup3\n        /* \"#utility.yul\":8800:8830   */\n      gt\n        /* \"#utility.yul\":8797:8853   */\n      iszero\n      tag_536\n      jumpi\n        /* \"#utility.yul\":8833:8851   */\n      tag_537\n      tag_77\n      jump\t// in\n    tag_537:\n        /* \"#utility.yul\":8797:8853   */\n    tag_536:\n        /* \"#utility.yul\":8871:8900   */\n      tag_538\n        /* \"#utility.yul\":8893:8899   */\n      dup3\n        /* \"#utility.yul\":8871:8900   */\n      tag_391\n      jump\t// in\n    tag_538:\n        /* \"#utility.yul\":8863:8900   */\n      swap1\n      pop\n        /* \"#utility.yul\":8955:8959   */\n      0x20\n        /* \"#utility.yul\":8949:8953   */\n      dup2\n        /* \"#utility.yul\":8945:8960   */\n      add\n        /* \"#utility.yul\":8937:8960   */\n      swap1\n      pop\n        /* \"#utility.yul\":8659:8967   */\n      swap2\n      swap1\n      pop\n      jump\t// out\n        /* \"#utility.yul\":8973:9121   */\n    tag_395:\n        /* \"#utility.yul\":9071:9077   */\n      dup3\n        /* \"#utility.yul\":9066:9069   */\n      dup2\n        /* \"#utility.yul\":9061:9064   */\n      dup4\n        /* \"#utility.yul\":9048:9078   */\n      calldatacopy\n        /* \"#utility.yul\":9112:9113   */\n      0x00\n        /* \"#utility.yul\":9103:9109   */\n      dup4\n        /* \"#utility.yul\":9098:9101   */\n      dup4\n        /* \"#utility.yul\":9094:9110   */\n      add\n        /* \"#utility.yul\":9087:9114   */\n      mstore\n        /* \"#utility.yul\":8973:9121   */\n      pop\n      pop\n      pop\n      jump\t// out\n        /* \"#utility.yul\":9127:9552   */\n    tag_396:\n        /* \"#utility.yul\":9205:9210   */\n      0x00\n        /* \"#utility.yul\":9230:9296   */\n      tag_541\n        /* \"#utility.yul\":9246:9295   */\n      tag_542\n        /* \"#utility.yul\":9288:9294   */\n      dup5\n        /* \"#utility.yul\":9246:9295   */\n      tag_394\n      jump\t// in\n    tag_542:\n        /* \"#utility.yul\":9230:9296   */\n      tag_393\n      jump\t// in\n    tag_541:\n        /* \"#utility.yul\":9221:9296   */\n      swap1\n      pop\n        /* \"#utility.yul\":9319:9325   */\n      dup3\n        /* \"#utility.yul\":9312:9317   */\n      dup2\n        /* \"#utility.yul\":9305:9326   */\n      mstore\n        /* \"#utility.yul\":9357:9361   */\n      0x20\n        /* \"#utility.yul\":9350:9355   */\n      dup2\n        /* \"#utility.yul\":9346:9362   */\n      add\n        /* \"#utility.yul\":9395:9398   */\n      dup5\n        /* \"#utility.yul\":9386:9392   */\n      dup5\n        /* \"#utility.yul\":9381:9384   */\n      dup5\n        /* \"#utility.yul\":9377:9393   */\n      add\n        /* \"#utility.yul\":9374:9399   */\n      gt\n        /* \"#utility.yul\":9371:9483   */\n      iszero\n      tag_543\n      jumpi\n        /* \"#utility.yul\":9402:9481   */\n      tag_544\n      tag_390\n      jump\t// in\n    tag_544:\n        /* \"#utility.yul\":9371:9483   */\n    tag_543:\n        /* \"#utility.yul\":9492:9546   */\n      tag_545\n        /* \"#utility.yul\":9539:9545   */\n      dup5\n        /* \"#utility.yul\":9534:9537   */\n      dup3\n        /* \"#utility.yul\":9529:9532   */\n      dup6\n        /* \"#utility.yul\":9492:9546   */\n      tag_395\n      jump\t// in\n    tag_545:\n        /* \"#utility.yul\":9211:9552   */\n      pop\n        /* \"#utility.yul\":9127:9552   */\n      swap4\n      swap3\n      pop\n      pop\n      pop\n      jump\t// out\n        /* \"#utility.yul\":9572:9912   */\n    tag_397:\n        /* \"#utility.yul\":9628:9633   */\n      0x00\n        /* \"#utility.yul\":9677:9680   */\n      dup3\n        /* \"#utility.yul\":9670:9674   */\n      0x1f\n        /* \"#utility.yul\":9662:9668   */\n      dup4\n        /* \"#utility.yul\":9658:9675   */\n      add\n        /* \"#utility.yul\":9654:9681   */\n      slt\n        /* \"#utility.yul\":9644:9766   */\n      tag_547\n      jumpi\n        /* \"#utility.yul\":9685:9764   */\n      tag_548\n      tag_389\n      jump\t// in\n    tag_548:\n        /* \"#utility.yul\":9644:9766   */\n    tag_547:\n        /* \"#utility.yul\":9802:9808   */\n      dup2\n        /* \"#utility.yul\":9789:9809   */\n      calldataload\n        /* \"#utility.yul\":9827:9906   */\n      tag_549\n        /* \"#utility.yul\":9902:9905   */\n      dup5\n        /* \"#utility.yul\":9894:9900   */\n      dup3\n        /* \"#utility.yul\":9887:9891   */\n      0x20\n        /* \"#utility.yul\":9879:9885   */\n      dup7\n        /* \"#utility.yul\":9875:9892   */\n      add\n        /* \"#utility.yul\":9827:9906   */\n      tag_396\n      jump\t// in\n    tag_549:\n        /* \"#utility.yul\":9818:9906   */\n      swap2\n      pop\n        /* \"#utility.yul\":9634:9912   */\n      pop\n        /* \"#utility.yul\":9572:9912   */\n      swap3\n      swap2\n      pop\n      pop\n      jump\t// out\n        /* \"#utility.yul\":9918:11009   */\n    tag_33:\n        /* \"#utility.yul\":10023:10029   */\n      0x00\n        /* \"#utility.yul\":10031:10037   */\n      dup1\n        /* \"#utility.yul\":10039:10045   */\n      0x00\n        /* \"#utility.yul\":10047:10053   */\n      dup1\n        /* \"#utility.yul\":10055:10061   */\n      0x00\n        /* \"#utility.yul\":10104:10107   */\n      0xa0\n        /* \"#utility.yul\":10092:10101   */\n      dup7\n        /* \"#utility.yul\":10083:10090   */\n      dup9\n        /* \"#utility.yul\":10079:10102   */\n      sub\n        /* \"#utility.yul\":10075:10108   */\n      slt\n        /* \"#utility.yul\":10072:10192   */\n      iszero\n      tag_551\n      jumpi\n        /* \"#utility.yul\":10111:10190   */\n      tag_552\n      tag_359\n      jump\t// in\n    tag_552:\n        /* \"#utility.yul\":10072:10192   */\n    tag_551:\n        /* \"#utility.yul\":10259:10260   */\n      0x00\n        /* \"#utility.yul\":10248:10257   */\n      dup7\n        /* \"#utility.yul\":10244:10261   */\n      add\n        /* \"#utility.yul\":10231:10262   */\n      calldataload\n        /* \"#utility.yul\":10289:10307   */\n      0xffffffffffffffff\n        /* \"#utility.yul\":10281:10287   */\n      dup2\n        /* \"#utility.yul\":10278:10308   */\n      gt\n        /* \"#utility.yul\":10275:10392   */\n      iszero\n      tag_553\n      jumpi\n        /* \"#utility.yul\":10311:10390   */\n      tag_554\n      tag_360\n      jump\t// in\n    tag_554:\n        /* \"#utility.yul\":10275:10392   */\n    tag_553:\n        /* \"#utility.yul\":10416:10479   */\n      tag_555\n        /* \"#utility.yul\":10471:10478   */\n      dup9\n        /* \"#utility.yul\":10462:10468   */\n      dup3\n        /* \"#utility.yul\":10451:10460   */\n      dup10\n        /* \"#utility.yul\":10447:10469   */\n      add\n        /* \"#utility.yul\":10416:10479   */\n      tag_397\n      jump\t// in\n    tag_555:\n        /* \"#utility.yul\":10406:10479   */\n      swap6\n      pop\n        /* \"#utility.yul\":10202:10489   */\n      pop\n        /* \"#utility.yul\":10528:10530   */\n      0x20\n        /* \"#utility.yul\":10554:10607   */\n      tag_556\n        /* \"#utility.yul\":10599:10606   */\n      dup9\n        /* \"#utility.yul\":10590:10596   */\n      dup3\n        /* \"#utility.yul\":10579:10588   */\n      dup10\n        /* \"#utility.yul\":10575:10597   */\n      add\n        /* \"#utility.yul\":10554:10607   */\n      tag_363\n      jump\t// in\n    tag_556:\n        /* \"#utility.yul\":10544:10607   */\n      swap5\n      pop\n        /* \"#utility.yul\":10499:10617   */\n      pop\n        /* \"#utility.yul\":10656:10658   */\n      0x40\n        /* \"#utility.yul\":10682:10735   */\n      tag_557\n        /* \"#utility.yul\":10727:10734   */\n      dup9\n        /* \"#utility.yul\":10718:10724   */\n      dup3\n        /* \"#utility.yul\":10707:10716   */\n      dup10\n        /* \"#utility.yul\":10703:10725   */\n      add\n        /* \"#utility.yul\":10682:10735   */\n      tag_363\n      jump\t// in\n    tag_557:\n        /* \"#utility.yul\":10672:10735   */\n      swap4\n      pop\n        /* \"#utility.yul\":10627:10745   */\n      pop\n        /* \"#utility.yul\":10784:10786   */\n      0x60\n        /* \"#utility.yul\":10810:10863   */\n      tag_558\n        /* \"#utility.yul\":10855:10862   */\n      dup9\n        /* \"#utility.yul\":10846:10852   */\n      dup3\n        /* \"#utility.yul\":10835:10844   */\n      dup10\n        /* \"#utility.yul\":10831:10853   */\n      add\n        /* \"#utility.yul\":10810:10863   */\n      tag_363\n      jump\t// in\n    tag_558:\n        /* \"#utility.yul\":10800:10863   */\n      swap3\n      pop\n        /* \"#utility.yul\":10755:10873   */\n      pop\n        /* \"#utility.yul\":10912:10915   */\n      0x80\n        /* \"#utility.yul\":10939:10992   */\n      tag_559\n        /* \"#utility.yul\":10984:10991   */\n      dup9\n        /* \"#utility.yul\":10975:10981   */\n      dup3\n        /* \"#utility.yul\":10964:10973   */\n      dup10\n        /* \"#utility.yul\":10960:10982   */\n      add\n        /* \"#utility.yul\":10939:10992   */\n      tag_363\n      jump\t// in\n    tag_559:\n        /* \"#utility.yul\":10929:10992   */\n      swap2\n      pop\n        /* \"#utility.yul\":10883:11002   */\n      pop\n        /* \"#utility.yul\":9918:11009   */\n      swap3\n      swap6\n      pop\n      swap3\n      swap6\n      swap1\n      swap4\n      pop\n      jump\t// out\n        /* \"#utility.yul\":11015:11489   */\n    tag_37:\n        /* \"#utility.yul\":11083:11089   */\n      0x00\n        /* \"#utility.yul\":11091:11097   */\n      dup1\n        /* \"#utility.yul\":11140:11142   */\n      0x40\n        /* \"#utility.yul\":11128:11137   */\n      dup4\n        /* \"#utility.yul\":11119:11126   */\n      dup6\n        /* \"#utility.yul\":11115:11138   */\n      sub\n        /* \"#utility.yul\":11111:11143   */\n      slt\n        /* \"#utility.yul\":11108:11227   */\n      iszero\n      tag_561\n      jumpi\n        /* \"#utility.yul\":11146:11225   */\n      tag_562\n      tag_359\n      jump\t// in\n    tag_562:\n        /* \"#utility.yul\":11108:11227   */\n    tag_561:\n        /* \"#utility.yul\":11266:11267   */\n      0x00\n        /* \"#utility.yul\":11291:11344   */\n      tag_563\n        /* \"#utility.yul\":11336:11343   */\n      dup6\n        /* \"#utility.yul\":11327:11333   */\n      dup3\n        /* \"#utility.yul\":11316:11325   */\n      dup7\n        /* \"#utility.yul\":11312:11334   */\n      add\n        /* \"#utility.yul\":11291:11344   */\n      tag_363\n      jump\t// in\n    tag_563:\n        /* \"#utility.yul\":11281:11344   */\n      swap3\n      pop\n        /* \"#utility.yul\":11237:11354   */\n      pop\n        /* \"#utility.yul\":11393:11395   */\n      0x20\n        /* \"#utility.yul\":11419:11472   */\n      tag_564\n        /* \"#utility.yul\":11464:11471   */\n      dup6\n        /* \"#utility.yul\":11455:11461   */\n      dup3\n        /* \"#utility.yul\":11444:11453   */\n      dup7\n        /* \"#utility.yul\":11440:11462   */\n      add\n        /* \"#utility.yul\":11419:11472   */\n      tag_363\n      jump\t// in\n    tag_564:\n        /* \"#utility.yul\":11409:11472   */\n      swap2\n      pop\n        /* \"#utility.yul\":11364:11482   */\n      pop\n        /* \"#utility.yul\":11015:11489   */\n      swap3\n      pop\n      swap3\n      swap1\n      pop\n      jump\t// out\n        /* \"#utility.yul\":11495:12129   */\n    tag_44:\n        /* \"#utility.yul\":11716:11720   */\n      0x00\n        /* \"#utility.yul\":11754:11756   */\n      0x40\n        /* \"#utility.yul\":11743:11752   */\n      dup3\n        /* \"#utility.yul\":11739:11757   */\n      add\n        /* \"#utility.yul\":11731:11757   */\n      swap1\n      pop\n        /* \"#utility.yul\":11803:11812   */\n      dup2\n        /* \"#utility.yul\":11797:11801   */\n      dup2\n        /* \"#utility.yul\":11793:11813   */\n      sub\n        /* \"#utility.yul\":11789:11790   */\n      0x00\n        /* \"#utility.yul\":11778:11787   */\n      dup4\n        /* \"#utility.yul\":11774:11791   */\n      add\n        /* \"#utility.yul\":11767:11814   */\n      mstore\n        /* \"#utility.yul\":11831:11939   */\n      tag_566\n        /* \"#utility.yul\":11934:11938   */\n      dup2\n        /* \"#utility.yul\":11925:11931   */\n      dup6\n        /* \"#utility.yul\":11831:11939   */\n      tag_372\n      jump\t// in\n    tag_566:\n        /* \"#utility.yul\":11823:11939   */\n      swap1\n      pop\n        /* \"#utility.yul\":11986:11995   */\n      dup2\n        /* \"#utility.yul\":11980:11984   */\n      dup2\n        /* \"#utility.yul\":11976:11996   */\n      sub\n        /* \"#utility.yul\":11971:11973   */\n      0x20\n        /* \"#utility.yul\":11960:11969   */\n      dup4\n        /* \"#utility.yul\":11956:11974   */\n      add\n        /* \"#utility.yul\":11949:11997   */\n      mstore\n        /* \"#utility.yul\":12014:12122   */\n      tag_567\n        /* \"#utility.yul\":12117:12121   */\n      dup2\n        /* \"#utility.yul\":12108:12114   */\n      dup5\n        /* \"#utility.yul\":12014:12122   */\n      tag_379\n      jump\t// in\n    tag_567:\n        /* \"#utility.yul\":12006:12122   */\n      swap1\n      pop\n        /* \"#utility.yul\":11495:12129   */\n      swap4\n      swap3\n      pop\n      pop\n      pop\n      jump\t// out\n        /* \"#utility.yul\":12135:12253   */\n    tag_398:\n        /* \"#utility.yul\":12222:12246   */\n      tag_569\n        /* \"#utility.yul\":12240:12245   */\n      dup2\n        /* \"#utility.yul\":12222:12246   */\n      tag_368\n      jump\t// in\n    tag_569:\n        /* \"#utility.yul\":12217:12220   */\n      dup3\n        /* \"#utility.yul\":12210:12247   */\n      mstore\n        /* \"#utility.yul\":12135:12253   */\n      pop\n      pop\n      jump\t// out\n        /* \"#utility.yul\":12259:12368   */\n    tag_399:\n        /* \"#utility.yul\":12340:12361   */\n      tag_571\n        /* \"#utility.yul\":12355:12360   */\n      dup2\n        /* \"#utility.yul\":12340:12361   */\n      tag_383\n      jump\t// in\n    tag_571:\n        /* \"#utility.yul\":12335:12338   */\n      dup3\n        /* \"#utility.yul\":12328:12362   */\n      mstore\n        /* \"#utility.yul\":12259:12368   */\n      pop\n      pop\n      jump\t// out\n        /* \"#utility.yul\":12374:12915   */\n    tag_50:\n        /* \"#utility.yul\":12545:12549   */\n      0x00\n        /* \"#utility.yul\":12583:12586   */\n      0x80\n        /* \"#utility.yul\":12572:12581   */\n      dup3\n        /* \"#utility.yul\":12568:12587   */\n      add\n        /* \"#utility.yul\":12560:12587   */\n      swap1\n      pop\n        /* \"#utility.yul\":12597:12668   */\n      tag_573\n        /* \"#utility.yul\":12665:12666   */\n      0x00\n        /* \"#utility.yul\":12654:12663   */\n      dup4\n        /* \"#utility.yul\":12650:12667   */\n      add\n        /* \"#utility.yul\":12641:12647   */\n      dup8\n        /* \"#utility.yul\":12597:12668   */\n      tag_398\n      jump\t// in\n    tag_573:\n        /* \"#utility.yul\":12678:12750   */\n      tag_574\n        /* \"#utility.yul\":12746:12748   */\n      0x20\n        /* \"#utility.yul\":12735:12744   */\n      dup4\n        /* \"#utility.yul\":12731:12749   */\n      add\n        /* \"#utility.yul\":12722:12728   */\n      dup7\n        /* \"#utility.yul\":12678:12750   */\n      tag_388\n      jump\t// in\n    tag_574:\n        /* \"#utility.yul\":12760:12832   */\n      tag_575\n        /* \"#utility.yul\":12828:12830   */\n      0x40\n        /* \"#utility.yul\":12817:12826   */\n      dup4\n        /* \"#utility.yul\":12813:12831   */\n      add\n        /* \"#utility.yul\":12804:12810   */\n      dup6\n        /* \"#utility.yul\":12760:12832   */\n      tag_388\n      jump\t// in\n    tag_575:\n        /* \"#utility.yul\":12842:12908   */\n      tag_576\n        /* \"#utility.yul\":12904:12906   */\n      0x60\n        /* \"#utility.yul\":12893:12902   */\n      dup4\n        /* \"#utility.yul\":12889:12907   */\n      add\n        /* \"#utility.yul\":12880:12886   */\n      dup5\n        /* \"#utility.yul\":12842:12908   */\n      tag_399\n      jump\t// in\n    tag_576:\n        /* \"#utility.yul\":12374:12915   */\n      swap6\n      swap5\n      pop\n      pop\n      pop\n      pop\n      pop\n      jump\t// out\n        /* \"#utility.yul\":12921:13020   */\n    tag_400:\n        /* \"#utility.yul\":12973:12979   */\n      0x00\n        /* \"#utility.yul\":13007:13012   */\n      dup2\n        /* \"#utility.yul\":13001:13013   */\n      mload\n        /* \"#utility.yul\":12991:13013   */\n      swap1\n      pop\n        /* \"#utility.yul\":12921:13020   */\n      swap2\n      swap1\n      pop\n      jump\t// out\n        /* \"#utility.yul\":13026:13195   */\n    tag_401:\n        /* \"#utility.yul\":13110:13121   */\n      0x00\n        /* \"#utility.yul\":13144:13150   */\n      dup3\n        /* \"#utility.yul\":13139:13142   */\n      dup3\n        /* \"#utility.yul\":13132:13151   */\n      mstore\n        /* \"#utility.yul\":13184:13188   */\n      0x20\n        /* \"#utility.yul\":13179:13182   */\n      dup3\n        /* \"#utility.yul\":13175:13189   */\n      add\n        /* \"#utility.yul\":13160:13189   */\n      swap1\n      pop\n        /* \"#utility.yul\":13026:13195   */\n      swap3\n      swap2\n      pop\n      pop\n      jump\t// out\n        /* \"#utility.yul\":13201:13340   */\n    tag_402:\n        /* \"#utility.yul\":13290:13296   */\n      dup3\n        /* \"#utility.yul\":13285:13288   */\n      dup2\n        /* \"#utility.yul\":13280:13283   */\n      dup4\n        /* \"#utility.yul\":13274:13297   */\n      mcopy\n        /* \"#utility.yul\":13331:13332   */\n      0x00\n        /* \"#utility.yul\":13322:13328   */\n      dup4\n        /* \"#utility.yul\":13317:13320   */\n      dup4\n        /* \"#utility.yul\":13313:13329   */\n      add\n        /* \"#utility.yul\":13306:13333   */\n      mstore\n        /* \"#utility.yul\":13201:13340   */\n      pop\n      pop\n      pop\n      jump\t// out\n        /* \"#utility.yul\":13346:13723   */\n    tag_403:\n        /* \"#utility.yul\":13434:13437   */\n      0x00\n        /* \"#utility.yul\":13462:13501   */\n      tag_581\n        /* \"#utility.yul\":13495:13500   */\n      dup3\n        /* \"#utility.yul\":13462:13501   */\n      tag_400\n      jump\t// in\n    tag_581:\n        /* \"#utility.yul\":13517:13588   */\n      tag_582\n        /* \"#utility.yul\":13581:13587   */\n      dup2\n        /* \"#utility.yul\":13576:13579   */\n      dup6\n        /* \"#utility.yul\":13517:13588   */\n      tag_401\n      jump\t// in\n    tag_582:\n        /* \"#utility.yul\":13510:13588   */\n      swap4\n      pop\n        /* \"#utility.yul\":13597:13662   */\n      tag_583\n        /* \"#utility.yul\":13655:13661   */\n      dup2\n        /* \"#utility.yul\":13650:13653   */\n      dup6\n        /* \"#utility.yul\":13643:13647   */\n      0x20\n        /* \"#utility.yul\":13636:13641   */\n      dup7\n        /* \"#utility.yul\":13632:13648   */\n      add\n        /* \"#utility.yul\":13597:13662   */\n      tag_402\n      jump\t// in\n    tag_583:\n        /* \"#utility.yul\":13687:13716   */\n      tag_584\n        /* \"#utility.yul\":13709:13715   */\n      dup2\n        /* \"#utility.yul\":13687:13716   */\n      tag_391\n      jump\t// in\n    tag_584:\n        /* \"#utility.yul\":13682:13685   */\n      dup5\n        /* \"#utility.yul\":13678:13717   */\n      add\n        /* \"#utility.yul\":13671:13717   */\n      swap2\n      pop\n        /* \"#utility.yul\":13438:13723   */\n      pop\n        /* \"#utility.yul\":13346:13723   */\n      swap3\n      swap2\n      pop\n      pop\n      jump\t// out\n        /* \"#utility.yul\":13729:14694   */\n    tag_56:\n        /* \"#utility.yul\":14004:14008   */\n      0x00\n        /* \"#utility.yul\":14042:14045   */\n      0xe0\n        /* \"#utility.yul\":14031:14040   */\n      dup3\n        /* \"#utility.yul\":14027:14046   */\n      add\n        /* \"#utility.yul\":14019:14046   */\n      swap1\n      pop\n        /* \"#utility.yul\":14056:14127   */\n      tag_586\n        /* \"#utility.yul\":14124:14125   */\n      0x00\n        /* \"#utility.yul\":14113:14122   */\n      dup4\n        /* \"#utility.yul\":14109:14126   */\n      add\n        /* \"#utility.yul\":14100:14106   */\n      dup11\n        /* \"#utility.yul\":14056:14127   */\n      tag_398\n      jump\t// in\n    tag_586:\n        /* \"#utility.yul\":14174:14183   */\n      dup2\n        /* \"#utility.yul\":14168:14172   */\n      dup2\n        /* \"#utility.yul\":14164:14184   */\n      sub\n        /* \"#utility.yul\":14159:14161   */\n      0x20\n        /* \"#utility.yul\":14148:14157   */\n      dup4\n        /* \"#utility.yul\":14144:14162   */\n      add\n        /* \"#utility.yul\":14137:14185   */\n      mstore\n        /* \"#utility.yul\":14202:14280   */\n      tag_587\n        /* \"#utility.yul\":14275:14279   */\n      dup2\n        /* \"#utility.yul\":14266:14272   */\n      dup10\n        /* \"#utility.yul\":14202:14280   */\n      tag_403\n      jump\t// in\n    tag_587:\n        /* \"#utility.yul\":14194:14280   */\n      swap1\n      pop\n        /* \"#utility.yul\":14290:14362   */\n      tag_588\n        /* \"#utility.yul\":14358:14360   */\n      0x40\n        /* \"#utility.yul\":14347:14356   */\n      dup4\n        /* \"#utility.yul\":14343:14361   */\n      add\n        /* \"#utility.yul\":14334:14340   */\n      dup9\n        /* \"#utility.yul\":14290:14362   */\n      tag_388\n      jump\t// in\n    tag_588:\n        /* \"#utility.yul\":14372:14444   */\n      tag_589\n        /* \"#utility.yul\":14440:14442   */\n      0x60\n        /* \"#utility.yul\":14429:14438   */\n      dup4\n        /* \"#utility.yul\":14425:14443   */\n      add\n        /* \"#utility.yul\":14416:14422   */\n      dup8\n        /* \"#utility.yul\":14372:14444   */\n      tag_388\n      jump\t// in\n    tag_589:\n        /* \"#utility.yul\":14454:14527   */\n      tag_590\n        /* \"#utility.yul\":14522:14525   */\n      0x80\n        /* \"#utility.yul\":14511:14520   */\n      dup4\n        /* \"#utility.yul\":14507:14526   */\n      add\n        /* \"#utility.yul\":14498:14504   */\n      dup7\n        /* \"#utility.yul\":14454:14527   */\n      tag_388\n      jump\t// in\n    tag_590:\n        /* \"#utility.yul\":14537:14604   */\n      tag_591\n        /* \"#utility.yul\":14599:14602   */\n      0xa0\n        /* \"#utility.yul\":14588:14597   */\n      dup4\n        /* \"#utility.yul\":14584:14603   */\n      add\n        /* \"#utility.yul\":14575:14581   */\n      dup6\n        /* \"#utility.yul\":14537:14604   */\n      tag_399\n      jump\t// in\n    tag_591:\n        /* \"#utility.yul\":14614:14687   */\n      tag_592\n        /* \"#utility.yul\":14682:14685   */\n      0xc0\n        /* \"#utility.yul\":14671:14680   */\n      dup4\n        /* \"#utility.yul\":14667:14686   */\n      add\n        /* \"#utility.yul\":14658:14664   */\n      dup5\n        /* \"#utility.yul\":14614:14687   */\n      tag_388\n      jump\t// in\n    tag_592:\n        /* \"#utility.yul\":13729:14694   */\n      swap9\n      swap8\n      pop\n      pop\n      pop\n      pop\n      pop\n      pop\n      pop\n      pop\n      jump\t// out\n        /* \"#utility.yul\":14700:14866   */\n    tag_404:\n        /* \"#utility.yul\":14840:14858   */\n      0x496e76616c696420617373657420494400000000000000000000000000000000\n        /* \"#utility.yul\":14836:14837   */\n      0x00\n        /* \"#utility.yul\":14828:14834   */\n      dup3\n        /* \"#utility.yul\":14824:14838   */\n      add\n        /* \"#utility.yul\":14817:14859   */\n      mstore\n        /* \"#utility.yul\":14700:14866   */\n      pop\n      jump\t// out\n        /* \"#utility.yul\":14872:15238   */\n    tag_405:\n        /* \"#utility.yul\":15014:15017   */\n      0x00\n        /* \"#utility.yul\":15035:15102   */\n      tag_595\n        /* \"#utility.yul\":15099:15101   */\n      0x10\n        /* \"#utility.yul\":15094:15097   */\n      dup4\n        /* \"#utility.yul\":15035:15102   */\n      tag_401\n      jump\t// in\n    tag_595:\n        /* \"#utility.yul\":15028:15102   */\n      swap2\n      pop\n        /* \"#utility.yul\":15111:15204   */\n      tag_596\n        /* \"#utility.yul\":15200:15203   */\n      dup3\n        /* \"#utility.yul\":15111:15204   */\n      tag_404\n      jump\t// in\n    tag_596:\n        /* \"#utility.yul\":15229:15231   */\n      0x20\n        /* \"#utility.yul\":15224:15227   */\n      dup3\n        /* \"#utility.yul\":15220:15232   */\n      add\n        /* \"#utility.yul\":15213:15232   */\n      swap1\n      pop\n        /* \"#utility.yul\":14872:15238   */\n      swap2\n      swap1\n      pop\n      jump\t// out\n        /* \"#utility.yul\":15244:15663   */\n    tag_74:\n        /* \"#utility.yul\":15410:15414   */\n      0x00\n        /* \"#utility.yul\":15448:15450   */\n      0x20\n        /* \"#utility.yul\":15437:15446   */\n      dup3\n        /* \"#utility.yul\":15433:15451   */\n      add\n        /* \"#utility.yul\":15425:15451   */\n      swap1\n      pop\n        /* \"#utility.yul\":15497:15506   */\n      dup2\n        /* \"#utility.yul\":15491:15495   */\n      dup2\n        /* \"#utility.yul\":15487:15507   */\n      sub\n        /* \"#utility.yul\":15483:15484   */\n      0x00\n        /* \"#utility.yul\":15472:15481   */\n      dup4\n        /* \"#utility.yul\":15468:15485   */\n      add\n        /* \"#utility.yul\":15461:15508   */\n      mstore\n        /* \"#utility.yul\":15525:15656   */\n      tag_598\n        /* \"#utility.yul\":15651:15655   */\n      dup2\n        /* \"#utility.yul\":15525:15656   */\n      tag_405\n      jump\t// in\n    tag_598:\n        /* \"#utility.yul\":15517:15656   */\n      swap1\n      pop\n        /* \"#utility.yul\":15244:15663   */\n      swap2\n      swap1\n      pop\n      jump\t// out\n        /* \"#utility.yul\":15669:15849   */\n    tag_93:\n        /* \"#utility.yul\":15717:15794   */\n      0x4e487b7100000000000000000000000000000000000000000000000000000000\n        /* \"#utility.yul\":15714:15715   */\n      0x00\n        /* \"#utility.yul\":15707:15795   */\n      mstore\n        /* \"#utility.yul\":15814:15818   */\n      0x32\n        /* \"#utility.yul\":15811:15812   */\n      0x04\n        /* \"#utility.yul\":15804:15819   */\n      mstore\n        /* \"#utility.yul\":15838:15842   */\n      0x24\n        /* \"#utility.yul\":15835:15836   */\n      0x00\n        /* \"#utility.yul\":15828:15843   */\n      revert\n        /* \"#utility.yul\":15855:16017   */\n    tag_406:\n        /* \"#utility.yul\":15995:16009   */\n      0x556e617574686f72697a65640000000000000000000000000000000000000000\n        /* \"#utility.yul\":15991:15992   */\n      0x00\n        /* \"#utility.yul\":15983:15989   */\n      dup3\n        /* \"#utility.yul\":15979:15993   */\n      add\n        /* \"#utility.yul\":15972:16010   */\n      mstore\n        /* \"#utility.yul\":15855:16017   */\n      pop\n      jump\t// out\n        /* \"#utility.yul\":16023:16389   */\n    tag_407:\n        /* \"#utility.yul\":16165:16168   */\n      0x00\n        /* \"#utility.yul\":16186:16253   */\n      tag_602\n        /* \"#utility.yul\":16250:16252   */\n      0x0c\n        /* \"#utility.yul\":16245:16248   */\n      dup4\n        /* \"#utility.yul\":16186:16253   */\n      tag_401\n      jump\t// in\n    tag_602:\n        /* \"#utility.yul\":16179:16253   */\n      swap2\n      pop\n        /* \"#utility.yul\":16262:16355   */\n      tag_603\n        /* \"#utility.yul\":16351:16354   */\n      dup3\n        /* \"#utility.yul\":16262:16355   */\n      tag_406\n      jump\t// in\n    tag_603:\n        /* \"#utility.yul\":16380:16382   */\n      0x20\n        /* \"#utility.yul\":16375:16378   */\n      dup3\n        /* \"#utility.yul\":16371:16383   */\n      add\n        /* \"#utility.yul\":16364:16383   */\n      swap1\n      pop\n        /* \"#utility.yul\":16023:16389   */\n      swap2\n      swap1\n      pop\n      jump\t// out\n        /* \"#utility.yul\":16395:16814   */\n    tag_118:\n        /* \"#utility.yul\":16561:16565   */\n      0x00\n        /* \"#utility.yul\":16599:16601   */\n      0x20\n        /* \"#utility.yul\":16588:16597   */\n      dup3\n        /* \"#utility.yul\":16584:16602   */\n      add\n        /* \"#utility.yul\":16576:16602   */\n      swap1\n      pop\n        /* \"#utility.yul\":16648:16657   */\n      dup2\n        /* \"#utility.yul\":16642:16646   */\n      dup2\n        /* \"#utility.yul\":16638:16658   */\n      sub\n        /* \"#utility.yul\":16634:16635   */\n      0x00\n        /* \"#utility.yul\":16623:16632   */\n      dup4\n        /* \"#utility.yul\":16619:16636   */\n      add\n        /* \"#utility.yul\":16612:16659   */\n      mstore\n        /* \"#utility.yul\":16676:16807   */\n      tag_605\n        /* \"#utility.yul\":16802:16806   */\n      dup2\n        /* \"#utility.yul\":16676:16807   */\n      tag_407\n      jump\t// in\n    tag_605:\n        /* \"#utility.yul\":16668:16807   */\n      swap1\n      pop\n        /* \"#utility.yul\":16395:16814   */\n      swap2\n      swap1\n      pop\n      jump\t// out\n        /* \"#utility.yul\":16820:16992   */\n    tag_408:\n        /* \"#utility.yul\":16960:16984   */\n      0x42696464696e6720616c726561647920636c6f73656400000000000000000000\n        /* \"#utility.yul\":16956:16957   */\n      0x00\n        /* \"#utility.yul\":16948:16954   */\n      dup3\n        /* \"#utility.yul\":16944:16958   */\n      add\n        /* \"#utility.yul\":16937:16985   */\n      mstore\n        /* \"#utility.yul\":16820:16992   */\n      pop\n      jump\t// out\n        /* \"#utility.yul\":16998:17364   */\n    tag_409:\n        /* \"#utility.yul\":17140:17143   */\n      0x00\n        /* \"#utility.yul\":17161:17228   */\n      tag_608\n        /* \"#utility.yul\":17225:17227   */\n      0x16\n        /* \"#utility.yul\":17220:17223   */\n      dup4\n        /* \"#utility.yul\":17161:17228   */\n      tag_401\n      jump\t// in\n    tag_608:\n        /* \"#utility.yul\":17154:17228   */\n      swap2\n      pop\n        /* \"#utility.yul\":17237:17330   */\n      tag_609\n        /* \"#utility.yul\":17326:17329   */\n      dup3\n        /* \"#utility.yul\":17237:17330   */\n      tag_408\n      jump\t// in\n    tag_609:\n        /* \"#utility.yul\":17355:17357   */\n      0x20\n        /* \"#utility.yul\":17350:17353   */\n      dup3\n        /* \"#utility.yul\":17346:17358   */\n      add\n        /* \"#utility.yul\":17339:17358   */\n      swap1\n      pop\n        /* \"#utility.yul\":16998:17364   */\n      swap2\n      swap1\n      pop\n      jump\t// out\n        /* \"#utility.yul\":17370:17789   */\n    tag_121:\n        /* \"#utility.yul\":17536:17540   */\n      0x00\n        /* \"#utility.yul\":17574:17576   */\n      0x20\n        /* \"#utility.yul\":17563:17572   */\n      dup3\n        /* \"#utility.yul\":17559:17577   */\n      add\n        /* \"#utility.yul\":17551:17577   */\n      swap1\n      pop\n        /* \"#utility.yul\":17623:17632   */\n      dup2\n        /* \"#utility.yul\":17617:17621   */\n      dup2\n        /* \"#utility.yul\":17613:17633   */\n      sub\n        /* \"#utility.yul\":17609:17610   */\n      0x00\n        /* \"#utility.yul\":17598:17607   */\n      dup4\n        /* \"#utility.yul\":17594:17611   */\n      add\n        /* \"#utility.yul\":17587:17634   */\n      mstore\n        /* \"#utility.yul\":17651:17782   */\n      tag_611\n        /* \"#utility.yul\":17777:17781   */\n      dup2\n        /* \"#utility.yul\":17651:17782   */\n      tag_409\n      jump\t// in\n    tag_611:\n        /* \"#utility.yul\":17643:17782   */\n      swap1\n      pop\n        /* \"#utility.yul\":17370:17789   */\n      swap2\n      swap1\n      pop\n      jump\t// out\n        /* \"#utility.yul\":17795:18115   */\n    tag_127:\n        /* \"#utility.yul\":17910:17914   */\n      0x00\n        /* \"#utility.yul\":17948:17950   */\n      0x40\n        /* \"#utility.yul\":17937:17946   */\n      dup3\n        /* \"#utility.yul\":17933:17951   */\n      add\n        /* \"#utility.yul\":17925:17951   */\n      swap1\n      pop\n        /* \"#utility.yul\":17961:18026   */\n      tag_613\n        /* \"#utility.yul\":18023:18024   */\n      0x00\n        /* \"#utility.yul\":18012:18021   */\n      dup4\n        /* \"#utility.yul\":18008:18025   */\n      add\n        /* \"#utility.yul\":17999:18005   */\n      dup6\n        /* \"#utility.yul\":17961:18026   */\n      tag_399\n      jump\t// in\n    tag_613:\n        /* \"#utility.yul\":18036:18108   */\n      tag_614\n        /* \"#utility.yul\":18104:18106   */\n      0x20\n        /* \"#utility.yul\":18093:18102   */\n      dup4\n        /* \"#utility.yul\":18089:18107   */\n      add\n        /* \"#utility.yul\":18080:18086   */\n      dup5\n        /* \"#utility.yul\":18036:18108   */\n      tag_388\n      jump\t// in\n    tag_614:\n        /* \"#utility.yul\":17795:18115   */\n      swap4\n      swap3\n      pop\n      pop\n      pop\n      jump\t// out\n        /* \"#utility.yul\":18121:18290   */\n    tag_410:\n        /* \"#utility.yul\":18261:18282   */\n      0x496e76616c696420736861726520636f756e7400000000000000000000000000\n        /* \"#utility.yul\":18257:18258   */\n      0x00\n        /* \"#utility.yul\":18249:18255   */\n      dup3\n        /* \"#utility.yul\":18245:18259   */\n      add\n        /* \"#utility.yul\":18238:18283   */\n      mstore\n        /* \"#utility.yul\":18121:18290   */\n      pop\n      jump\t// out\n        /* \"#utility.yul\":18296:18662   */\n    tag_411:\n        /* \"#utility.yul\":18438:18441   */\n      0x00\n        /* \"#utility.yul\":18459:18526   */\n      tag_617\n        /* \"#utility.yul\":18523:18525   */\n      0x13\n        /* \"#utility.yul\":18518:18521   */\n      dup4\n        /* \"#utility.yul\":18459:18526   */\n      tag_401\n      jump\t// in\n    tag_617:\n        /* \"#utility.yul\":18452:18526   */\n      swap2\n      pop\n        /* \"#utility.yul\":18535:18628   */\n      tag_618\n        /* \"#utility.yul\":18624:18627   */\n      dup3\n        /* \"#utility.yul\":18535:18628   */\n      tag_410\n      jump\t// in\n    tag_618:\n        /* \"#utility.yul\":18653:18655   */\n      0x20\n        /* \"#utility.yul\":18648:18651   */\n      dup3\n        /* \"#utility.yul\":18644:18656   */\n      add\n        /* \"#utility.yul\":18637:18656   */\n      swap1\n      pop\n        /* \"#utility.yul\":18296:18662   */\n      swap2\n      swap1\n      pop\n      jump\t// out\n        /* \"#utility.yul\":18668:19087   */\n    tag_134:\n        /* \"#utility.yul\":18834:18838   */\n      0x00\n        /* \"#utility.yul\":18872:18874   */\n      0x20\n        /* \"#utility.yul\":18861:18870   */\n      dup3\n        /* \"#utility.yul\":18857:18875   */\n      add\n        /* \"#utility.yul\":18849:18875   */\n      swap1\n      pop\n        /* \"#utility.yul\":18921:18930   */\n      dup2\n        /* \"#utility.yul\":18915:18919   */\n      dup2\n        /* \"#utility.yul\":18911:18931   */\n      sub\n        /* \"#utility.yul\":18907:18908   */\n      0x00\n        /* \"#utility.yul\":18896:18905   */\n      dup4\n        /* \"#utility.yul\":18892:18909   */\n      add\n        /* \"#utility.yul\":18885:18932   */\n      mstore\n        /* \"#utility.yul\":18949:19080   */\n      tag_620\n        /* \"#utility.yul\":19075:19079   */\n      dup2\n        /* \"#utility.yul\":18949:19080   */\n      tag_411\n      jump\t// in\n    tag_620:\n        /* \"#utility.yul\":18941:19080   */\n      swap1\n      pop\n        /* \"#utility.yul\":18668:19087   */\n      swap2\n      swap1\n      pop\n      jump\t// out\n        /* \"#utility.yul\":19093:19274   */\n    tag_412:\n        /* \"#utility.yul\":19233:19266   */\n      0x496e76616c6964206d696e696d756d2070726963652070657220736861726500\n        /* \"#utility.yul\":19229:19230   */\n      0x00\n        /* \"#utility.yul\":19221:19227   */\n      dup3\n        /* \"#utility.yul\":19217:19231   */\n      add\n        /* \"#utility.yul\":19210:19267   */\n      mstore\n        /* \"#utility.yul\":19093:19274   */\n      pop\n      jump\t// out\n        /* \"#utility.yul\":19280:19646   */\n    tag_413:\n        /* \"#utility.yul\":19422:19425   */\n      0x00\n        /* \"#utility.yul\":19443:19510   */\n      tag_623\n        /* \"#utility.yul\":19507:19509   */\n      0x1f\n        /* \"#utility.yul\":19502:19505   */\n      dup4\n        /* \"#utility.yul\":19443:19510   */\n      tag_401\n      jump\t// in\n    tag_623:\n        /* \"#utility.yul\":19436:19510   */\n      swap2\n      pop\n        /* \"#utility.yul\":19519:19612   */\n      tag_624\n        /* \"#utility.yul\":19608:19611   */\n      dup3\n        /* \"#utility.yul\":19519:19612   */\n      tag_412\n      jump\t// in\n    tag_624:\n        /* \"#utility.yul\":19637:19639   */\n      0x20\n        /* \"#utility.yul\":19632:19635   */\n      dup3\n        /* \"#utility.yul\":19628:19640   */\n      add\n        /* \"#utility.yul\":19621:19640   */\n      swap1\n      pop\n        /* \"#utility.yul\":19280:19646   */\n      swap2\n      swap1\n      pop\n      jump\t// out\n        /* \"#utility.yul\":19652:20071   */\n    tag_137:\n        /* \"#utility.yul\":19818:19822   */\n      0x00\n        /* \"#utility.yul\":19856:19858   */\n      0x20\n        /* \"#utility.yul\":19845:19854   */\n      dup3\n        /* \"#utility.yul\":19841:19859   */\n      add\n        /* \"#utility.yul\":19833:19859   */\n      swap1\n      pop\n        /* \"#utility.yul\":19905:19914   */\n      dup2\n        /* \"#utility.yul\":19899:19903   */\n      dup2\n        /* \"#utility.yul\":19895:19915   */\n      sub\n        /* \"#utility.yul\":19891:19892   */\n      0x00\n        /* \"#utility.yul\":19880:19889   */\n      dup4\n        /* \"#utility.yul\":19876:19893   */\n      add\n        /* \"#utility.yul\":19869:19916   */\n      mstore\n        /* \"#utility.yul\":19933:20064   */\n      tag_626\n        /* \"#utility.yul\":20059:20063   */\n      dup2\n        /* \"#utility.yul\":19933:20064   */\n      tag_413\n      jump\t// in\n    tag_626:\n        /* \"#utility.yul\":19925:20064   */\n      swap1\n      pop\n        /* \"#utility.yul\":19652:20071   */\n      swap2\n      swap1\n      pop\n      jump\t// out\n        /* \"#utility.yul\":20077:20254   */\n    tag_414:\n        /* \"#utility.yul\":20217:20246   */\n      0x496e76616c6964206d696e696d756d20746f74616c2070726963650000000000\n        /* \"#utility.yul\":20213:20214   */\n      0x00\n        /* \"#utility.yul\":20205:20211   */\n      dup3\n        /* \"#utility.yul\":20201:20215   */\n      add\n        /* \"#utility.yul\":20194:20247   */\n      mstore\n        /* \"#utility.yul\":20077:20254   */\n      pop\n      jump\t// out\n        /* \"#utility.yul\":20260:20626   */\n    tag_415:\n        /* \"#utility.yul\":20402:20405   */\n      0x00\n        /* \"#utility.yul\":20423:20490   */\n      tag_629\n        /* \"#utility.yul\":20487:20489   */\n      0x1b\n        /* \"#utility.yul\":20482:20485   */\n      dup4\n        /* \"#utility.yul\":20423:20490   */\n      tag_401\n      jump\t// in\n    tag_629:\n        /* \"#utility.yul\":20416:20490   */\n      swap2\n      pop\n        /* \"#utility.yul\":20499:20592   */\n      tag_630\n        /* \"#utility.yul\":20588:20591   */\n      dup3\n        /* \"#utility.yul\":20499:20592   */\n      tag_414\n      jump\t// in\n    tag_630:\n        /* \"#utility.yul\":20617:20619   */\n      0x20\n        /* \"#utility.yul\":20612:20615   */\n      dup3\n        /* \"#utility.yul\":20608:20620   */\n      add\n        /* \"#utility.yul\":20601:20620   */\n      swap1\n      pop\n        /* \"#utility.yul\":20260:20626   */\n      swap2\n      swap1\n      pop\n      jump\t// out\n        /* \"#utility.yul\":20632:21051   */\n    tag_140:\n        /* \"#utility.yul\":20798:20802   */\n      0x00\n        /* \"#utility.yul\":20836:20838   */\n      0x20\n        /* \"#utility.yul\":20825:20834   */\n      dup3\n        /* \"#utility.yul\":20821:20839   */\n      add\n        /* \"#utility.yul\":20813:20839   */\n      swap1\n      pop\n        /* \"#utility.yul\":20885:20894   */\n      dup2\n        /* \"#utility.yul\":20879:20883   */\n      dup2\n        /* \"#utility.yul\":20875:20895   */\n      sub\n        /* \"#utility.yul\":20871:20872   */\n      0x00\n        /* \"#utility.yul\":20860:20869   */\n      dup4\n        /* \"#utility.yul\":20856:20873   */\n      add\n        /* \"#utility.yul\":20849:20896   */\n      mstore\n        /* \"#utility.yul\":20913:21044   */\n      tag_632\n        /* \"#utility.yul\":21039:21043   */\n      dup2\n        /* \"#utility.yul\":20913:21044   */\n      tag_415\n      jump\t// in\n    tag_632:\n        /* \"#utility.yul\":20905:21044   */\n      swap1\n      pop\n        /* \"#utility.yul\":20632:21051   */\n      swap2\n      swap1\n      pop\n      jump\t// out\n        /* \"#utility.yul\":21057:21227   */\n    tag_416:\n        /* \"#utility.yul\":21197:21219   */\n      0x4e616d652063616e6e6f7420626520656d707479000000000000000000000000\n        /* \"#utility.yul\":21193:21194   */\n      0x00\n        /* \"#utility.yul\":21185:21191   */\n      dup3\n        /* \"#utility.yul\":21181:21195   */\n      add\n        /* \"#utility.yul\":21174:21220   */\n      mstore\n        /* \"#utility.yul\":21057:21227   */\n      pop\n      jump\t// out\n        /* \"#utility.yul\":21233:21599   */\n    tag_417:\n        /* \"#utility.yul\":21375:21378   */\n      0x00\n        /* \"#utility.yul\":21396:21463   */\n      tag_635\n        /* \"#utility.yul\":21460:21462   */\n      0x14\n        /* \"#utility.yul\":21455:21458   */\n      dup4\n        /* \"#utility.yul\":21396:21463   */\n      tag_401\n      jump\t// in\n    tag_635:\n        /* \"#utility.yul\":21389:21463   */\n      swap2\n      pop\n        /* \"#utility.yul\":21472:21565   */\n      tag_636\n        /* \"#utility.yul\":21561:21564   */\n      dup3\n        /* \"#utility.yul\":21472:21565   */\n      tag_416\n      jump\t// in\n    tag_636:\n        /* \"#utility.yul\":21590:21592   */\n      0x20\n        /* \"#utility.yul\":21585:21588   */\n      dup3\n        /* \"#utility.yul\":21581:21593   */\n      add\n        /* \"#utility.yul\":21574:21593   */\n      swap1\n      pop\n        /* \"#utility.yul\":21233:21599   */\n      swap2\n      swap1\n      pop\n      jump\t// out\n        /* \"#utility.yul\":21605:22024   */\n    tag_143:\n        /* \"#utility.yul\":21771:21775   */\n      0x00\n        /* \"#utility.yul\":21809:21811   */\n      0x20\n        /* \"#utility.yul\":21798:21807   */\n      dup3\n        /* \"#utility.yul\":21794:21812   */\n      add\n        /* \"#utility.yul\":21786:21812   */\n      swap1\n      pop\n        /* \"#utility.yul\":21858:21867   */\n      dup2\n        /* \"#utility.yul\":21852:21856   */\n      dup2\n        /* \"#utility.yul\":21848:21868   */\n      sub\n        /* \"#utility.yul\":21844:21845   */\n      0x00\n        /* \"#utility.yul\":21833:21842   */\n      dup4\n        /* \"#utility.yul\":21829:21846   */\n      add\n        /* \"#utility.yul\":21822:21869   */\n      mstore\n        /* \"#utility.yul\":21886:22017   */\n      tag_638\n        /* \"#utility.yul\":22012:22016   */\n      dup2\n        /* \"#utility.yul\":21886:22017   */\n      tag_417\n      jump\t// in\n    tag_638:\n        /* \"#utility.yul\":21878:22017   */\n      swap1\n      pop\n        /* \"#utility.yul\":21605:22024   */\n      swap2\n      swap1\n      pop\n      jump\t// out\n        /* \"#utility.yul\":22030:22210   */\n    tag_418:\n        /* \"#utility.yul\":22078:22155   */\n      0x4e487b7100000000000000000000000000000000000000000000000000000000\n        /* \"#utility.yul\":22075:22076   */\n      0x00\n        /* \"#utility.yul\":22068:22156   */\n      mstore\n        /* \"#utility.yul\":22175:22179   */\n      0x11\n        /* \"#utility.yul\":22172:22173   */\n      0x04\n        /* \"#utility.yul\":22165:22180   */\n      mstore\n        /* \"#utility.yul\":22199:22203   */\n      0x24\n        /* \"#utility.yul\":22196:22197   */\n      0x00\n        /* \"#utility.yul\":22189:22204   */\n      revert\n        /* \"#utility.yul\":22216:22449   */\n    tag_145:\n        /* \"#utility.yul\":22255:22258   */\n      0x00\n        /* \"#utility.yul\":22278:22302   */\n      tag_641\n        /* \"#utility.yul\":22296:22301   */\n      dup3\n        /* \"#utility.yul\":22278:22302   */\n      tag_361\n      jump\t// in\n    tag_641:\n        /* \"#utility.yul\":22269:22302   */\n      swap2\n      pop\n        /* \"#utility.yul\":22324:22390   */\n      0xffffffffffffffffffffffffffffffffffffffffffffffffffffffffffffffff\n        /* \"#utility.yul\":22317:22322   */\n      dup3\n        /* \"#utility.yul\":22314:22391   */\n      sub\n        /* \"#utility.yul\":22311:22414   */\n      tag_642\n      jumpi\n        /* \"#utility.yul\":22394:22412   */\n      tag_643\n      tag_418\n      jump\t// in\n    tag_643:\n        /* \"#utility.yul\":22311:22414   */\n    tag_642:\n        /* \"#utility.yul\":22441:22442   */\n      0x01\n        /* \"#utility.yul\":22434:22439   */\n      dup3\n        /* \"#utility.yul\":22430:22443   */\n      add\n        /* \"#utility.yul\":22423:22443   */\n      swap1\n      pop\n        /* \"#utility.yul\":22216:22449   */\n      swap2\n      swap1\n      pop\n      jump\t// out\n        /* \"#utility.yul\":22455:22635   */\n    tag_419:\n        /* \"#utility.yul\":22503:22580   */\n      0x4e487b7100000000000000000000000000000000000000000000000000000000\n        /* \"#utility.yul\":22500:22501   */\n      0x00\n        /* \"#utility.yul\":22493:22581   */\n      mstore\n        /* \"#utility.yul\":22600:22604   */\n      0x22\n        /* \"#utility.yul\":22597:22598   */\n      0x04\n        /* \"#utility.yul\":22590:22605   */\n      mstore\n        /* \"#utility.yul\":22624:22628   */\n      0x24\n        /* \"#utility.yul\":22621:22622   */\n      0x00\n        /* \"#utility.yul\":22614:22629   */\n      revert\n        /* \"#utility.yul\":22641:22961   */\n    tag_201:\n        /* \"#utility.yul\":22685:22691   */\n      0x00\n        /* \"#utility.yul\":22722:22723   */\n      0x02\n        /* \"#utility.yul\":22716:22720   */\n      dup3\n        /* \"#utility.yul\":22712:22724   */\n      div\n        /* \"#utility.yul\":22702:22724   */\n      swap1\n      pop\n        /* \"#utility.yul\":22769:22770   */\n      0x01\n        /* \"#utility.yul\":22763:22767   */\n      dup3\n        /* \"#utility.yul\":22759:22771   */\n      and\n        /* \"#utility.yul\":22790:22808   */\n      dup1\n        /* \"#utility.yul\":22780:22861   */\n      tag_646\n      jumpi\n        /* \"#utility.yul\":22846:22850   */\n      0x7f\n        /* \"#utility.yul\":22838:22844   */\n      dup3\n        /* \"#utility.yul\":22834:22851   */\n      and\n        /* \"#utility.yul\":22824:22851   */\n      swap2\n      pop\n        /* \"#utility.yul\":22780:22861   */\n    tag_646:\n        /* \"#utility.yul\":22908:22910   */\n      0x20\n        /* \"#utility.yul\":22900:22906   */\n      dup3\n        /* \"#utility.yul\":22897:22911   */\n      lt\n        /* \"#utility.yul\":22877:22895   */\n      dup2\n        /* \"#utility.yul\":22874:22912   */\n      sub\n        /* \"#utility.yul\":22871:22955   */\n      tag_647\n      jumpi\n        /* \"#utility.yul\":22927:22945   */\n      tag_648\n      tag_419\n      jump\t// in\n    tag_648:\n        /* \"#utility.yul\":22871:22955   */\n    tag_647:\n        /* \"#utility.yul\":22692:22961   */\n      pop\n        /* \"#utility.yul\":22641:22961   */\n      swap2\n      swap1\n      pop\n      jump\t// out\n        /* \"#utility.yul\":22967:23108   */\n    tag_420:\n        /* \"#utility.yul\":23016:23020   */\n      0x00\n        /* \"#utility.yul\":23039:23042   */\n      dup2\n        /* \"#utility.yul\":23031:23042   */\n      swap1\n      pop\n        /* \"#utility.yul\":23062:23065   */\n      dup2\n        /* \"#utility.yul\":23059:23060   */\n      0x00\n        /* \"#utility.yul\":23052:23066   */\n      mstore\n        /* \"#utility.yul\":23096:23100   */\n      0x20\n        /* \"#utility.yul\":23093:23094   */\n      0x00\n        /* \"#utility.yul\":23083:23101   */\n      keccak256\n        /* \"#utility.yul\":23075:23101   */\n      swap1\n      pop\n        /* \"#utility.yul\":22967:23108   */\n      swap2\n      swap1\n      pop\n      jump\t// out\n        /* \"#utility.yul\":23114:23207   */\n    tag_421:\n        /* \"#utility.yul\":23151:23157   */\n      0x00\n        /* \"#utility.yul\":23198:23200   */\n      0x20\n        /* \"#utility.yul\":23193:23195   */\n      0x1f\n        /* \"#utility.yul\":23186:23191   */\n      dup4\n        /* \"#utility.yul\":23182:23196   */\n      add\n        /* \"#utility.yul\":23178:23201   */\n      div\n        /* \"#utility.yul\":23168:23201   */\n      swap1\n      pop\n        /* \"#utility.yul\":23114:23207   */\n      swap2\n      swap1\n      pop\n      jump\t// out\n        /* \"#utility.yul\":23213:23320   */\n    tag_422:\n        /* \"#utility.yul\":23257:23265   */\n      0x00\n        /* \"#utility.yul\":23307:23312   */\n      dup3\n        /* \"#utility.yul\":23301:23305   */\n      dup3\n        /* \"#utility.yul\":23297:23313   */\n      shl\n        /* \"#utility.yul\":23276:23313   */\n      swap1\n      pop\n        /* \"#utility.yul\":23213:23320   */\n      swap3\n      swap2\n      pop\n      pop\n      jump\t// out\n        /* \"#utility.yul\":23326:23719   */\n    tag_423:\n        /* \"#utility.yul\":23395:23401   */\n      0x00\n        /* \"#utility.yul\":23445:23446   */\n      0x08\n        /* \"#utility.yul\":23433:23443   */\n      dup4\n        /* \"#utility.yul\":23429:23447   */\n      mul\n        /* \"#utility.yul\":23468:23565   */\n      tag_653\n        /* \"#utility.yul\":23498:23564   */\n      0xffffffffffffffffffffffffffffffffffffffffffffffffffffffffffffffff\n        /* \"#utility.yul\":23487:23496   */\n      dup3\n        /* \"#utility.yul\":23468:23565   */\n      tag_422\n      jump\t// in\n    tag_653:\n        /* \"#utility.yul\":23586:23625   */\n      tag_654\n        /* \"#utility.yul\":23616:23624   */\n      dup7\n        /* \"#utility.yul\":23605:23614   */\n      dup4\n        /* \"#utility.yul\":23586:23625   */\n      tag_422\n      jump\t// in\n    tag_654:\n        /* \"#utility.yul\":23574:23625   */\n      swap6\n      pop\n        /* \"#utility.yul\":23658:23662   */\n      dup1\n        /* \"#utility.yul\":23654:23663   */\n      not\n        /* \"#utility.yul\":23647:23652   */\n      dup5\n        /* \"#utility.yul\":23643:23664   */\n      and\n        /* \"#utility.yul\":23634:23664   */\n      swap4\n      pop\n        /* \"#utility.yul\":23707:23711   */\n      dup1\n        /* \"#utility.yul\":23697:23705   */\n      dup7\n        /* \"#utility.yul\":23693:23712   */\n      and\n        /* \"#utility.yul\":23686:23691   */\n      dup5\n        /* \"#utility.yul\":23683:23713   */\n      or\n        /* \"#utility.yul\":23673:23713   */\n      swap3\n      pop\n        /* \"#utility.yul\":23402:23719   */\n      pop\n      pop\n        /* \"#utility.yul\":23326:23719   */\n      swap4\n      swap3\n      pop\n      pop\n      pop\n      jump\t// out\n        /* \"#utility.yul\":23725:23785   */\n    tag_424:\n        /* \"#utility.yul\":23753:23756   */\n      0x00\n        /* \"#utility.yul\":23774:23779   */\n      dup2\n        /* \"#utility.yul\":23767:23779   */\n      swap1\n      pop\n        /* \"#utility.yul\":23725:23785   */\n      swap2\n      swap1\n      pop\n      jump\t// out\n        /* \"#utility.yul\":23791:23933   */\n    tag_425:\n        /* \"#utility.yul\":23841:23850   */\n      0x00\n        /* \"#utility.yul\":23874:23927   */\n      tag_657\n        /* \"#utility.yul\":23892:23926   */\n      tag_658\n        /* \"#utility.yul\":23901:23925   */\n      tag_659\n        /* \"#utility.yul\":23919:23924   */\n      dup5\n        /* \"#utility.yul\":23901:23925   */\n      tag_361\n      jump\t// in\n    tag_659:\n        /* \"#utility.yul\":23892:23926   */\n      tag_424\n      jump\t// in\n    tag_658:\n        /* \"#utility.yul\":23874:23927   */\n      tag_361\n      jump\t// in\n    tag_657:\n        /* \"#utility.yul\":23861:23927   */\n      swap1\n      pop\n        /* \"#utility.yul\":23791:23933   */\n      swap2\n      swap1\n      pop\n      jump\t// out\n        /* \"#utility.yul\":23939:24014   */\n    tag_426:\n        /* \"#utility.yul\":23982:23985   */\n      0x00\n        /* \"#utility.yul\":24003:24008   */\n      dup2\n        /* \"#utility.yul\":23996:24008   */\n      swap1\n      pop\n        /* \"#utility.yul\":23939:24014   */\n      swap2\n      swap1\n      pop\n      jump\t// out\n        /* \"#utility.yul\":24020:24289   */\n    tag_427:\n        /* \"#utility.yul\":24130:24169   */\n      tag_662\n        /* \"#utility.yul\":24161:24168   */\n      dup4\n        /* \"#utility.yul\":24130:24169   */\n      tag_425\n      jump\t// in\n    tag_662:\n        /* \"#utility.yul\":24191:24282   */\n      tag_663\n        /* \"#utility.yul\":24240:24281   */\n      tag_664\n        /* \"#utility.yul\":24264:24280   */\n      dup3\n        /* \"#utility.yul\":24240:24281   */\n      tag_426\n      jump\t// in\n    tag_664:\n        /* \"#utility.yul\":24232:24238   */\n      dup5\n        /* \"#utility.yul\":24225:24229   */\n      dup5\n        /* \"#utility.yul\":24219:24230   */\n      sload\n        /* \"#utility.yul\":24191:24282   */\n      tag_423\n      jump\t// in\n    tag_663:\n        /* \"#utility.yul\":24185:24189   */\n      dup3\n        /* \"#utility.yul\":24178:24283   */\n      sstore\n        /* \"#utility.yul\":24096:24289   */\n      pop\n        /* \"#utility.yul\":24020:24289   */\n      pop\n      pop\n      pop\n      jump\t// out\n        /* \"#utility.yul\":24295:24368   */\n    tag_428:\n        /* \"#utility.yul\":24340:24343   */\n      0x00\n        /* \"#utility.yul\":24295:24368   */\n      swap1\n      jump\t// out\n        /* \"#utility.yul\":24374:24563   */\n    tag_429:\n        /* \"#utility.yul\":24451:24483   */\n      tag_667\n      tag_428\n      jump\t// in\n    tag_667:\n        /* \"#utility.yul\":24492:24557   */\n      tag_668\n        /* \"#utility.yul\":24550:24556   */\n      dup2\n        /* \"#utility.yul\":24542:24548   */\n      dup5\n        /* \"#utility.yul\":24536:24540   */\n      dup5\n        /* \"#utility.yul\":24492:24557   */\n      tag_427\n      jump\t// in\n    tag_668:\n        /* \"#utility.yul\":24427:24563   */\n      pop\n        /* \"#utility.yul\":24374:24563   */\n      pop\n      pop\n      jump\t// out\n        /* \"#utility.yul\":24569:24755   */\n    tag_430:\n        /* \"#utility.yul\":24629:24749   */\n    tag_670:\n        /* \"#utility.yul\":24646:24649   */\n      dup2\n        /* \"#utility.yul\":24639:24644   */\n      dup2\n        /* \"#utility.yul\":24636:24650   */\n      lt\n        /* \"#utility.yul\":24629:24749   */\n      iszero\n      tag_672\n      jumpi\n        /* \"#utility.yul\":24700:24739   */\n      tag_673\n        /* \"#utility.yul\":24737:24738   */\n      0x00\n        /* \"#utility.yul\":24730:24735   */\n      dup3\n        /* \"#utility.yul\":24700:24739   */\n      tag_429\n      jump\t// in\n    tag_673:\n        /* \"#utility.yul\":24673:24674   */\n      0x01\n        /* \"#utility.yul\":24666:24671   */\n      dup2\n        /* \"#utility.yul\":24662:24675   */\n      add\n        /* \"#utility.yul\":24653:24675   */\n      swap1\n      pop\n        /* \"#utility.yul\":24629:24749   */\n      jump(tag_670)\n    tag_672:\n        /* \"#utility.yul\":24569:24755   */\n      pop\n      pop\n      jump\t// out\n        /* \"#utility.yul\":24761:25304   */\n    tag_431:\n        /* \"#utility.yul\":24862:24864   */\n      0x1f\n        /* \"#utility.yul\":24857:24860   */\n      dup3\n        /* \"#utility.yul\":24854:24865   */\n      gt\n        /* \"#utility.yul\":24851:25297   */\n      iszero\n      tag_675\n      jumpi\n        /* \"#utility.yul\":24896:24934   */\n      tag_676\n        /* \"#utility.yul\":24928:24933   */\n      dup2\n        /* \"#utility.yul\":24896:24934   */\n      tag_420\n      jump\t// in\n    tag_676:\n        /* \"#utility.yul\":24980:25009   */\n      tag_677\n        /* \"#utility.yul\":24998:25008   */\n      dup5\n        /* \"#utility.yul\":24980:25009   */\n      tag_421\n      jump\t// in\n    tag_677:\n        /* \"#utility.yul\":24970:24978   */\n      dup2\n        /* \"#utility.yul\":24966:25010   */\n      add\n        /* \"#utility.yul\":25163:25165   */\n      0x20\n        /* \"#utility.yul\":25151:25161   */\n      dup6\n        /* \"#utility.yul\":25148:25166   */\n      lt\n        /* \"#utility.yul\":25145:25194   */\n      iszero\n      tag_678\n      jumpi\n        /* \"#utility.yul\":25184:25192   */\n      dup2\n        /* \"#utility.yul\":25169:25192   */\n      swap1\n      pop\n        /* \"#utility.yul\":25145:25194   */\n    tag_678:\n        /* \"#utility.yul\":25207:25287   */\n      tag_679\n        /* \"#utility.yul\":25263:25285   */\n      tag_680\n        /* \"#utility.yul\":25281:25284   */\n      dup6\n        /* \"#utility.yul\":25263:25285   */\n      tag_421\n      jump\t// in\n    tag_680:\n        /* \"#utility.yul\":25253:25261   */\n      dup4\n        /* \"#utility.yul\":25249:25286   */\n      add\n        /* \"#utility.yul\":25236:25247   */\n      dup3\n        /* \"#utility.yul\":25207:25287   */\n      tag_430\n      jump\t// in\n    tag_679:\n        /* \"#utility.yul\":24866:25297   */\n      pop\n      pop\n        /* \"#utility.yul\":24851:25297   */\n    tag_675:\n        /* \"#utility.yul\":24761:25304   */\n      pop\n      pop\n      pop\n      jump\t// out\n        /* \"#utility.yul\":25310:25427   */\n    tag_432:\n        /* \"#utility.yul\":25364:25372   */\n      0x00\n        /* \"#utility.yul\":25414:25419   */\n      dup3\n        /* \"#utility.yul\":25408:25412   */\n      dup3\n        /* \"#utility.yul\":25404:25420   */\n      shr\n        /* \"#utility.yul\":25383:25420   */\n      swap1\n      pop\n        /* \"#utility.yul\":25310:25427   */\n      swap3\n      swap2\n      pop\n      pop\n      jump\t// out\n        /* \"#utility.yul\":25433:25602   */\n    tag_433:\n        /* \"#utility.yul\":25477:25483   */\n      0x00\n        /* \"#utility.yul\":25510:25561   */\n      tag_683\n        /* \"#utility.yul\":25558:25559   */\n      0x00\n        /* \"#utility.yul\":25554:25560   */\n      not\n        /* \"#utility.yul\":25546:25551   */\n      dup5\n        /* \"#utility.yul\":25543:25544   */\n      0x08\n        /* \"#utility.yul\":25539:25552   */\n      mul\n        /* \"#utility.yul\":25510:25561   */\n      tag_432\n      jump\t// in\n    tag_683:\n        /* \"#utility.yul\":25506:25562   */\n      not\n        /* \"#utility.yul\":25591:25595   */\n      dup1\n        /* \"#utility.yul\":25585:25589   */\n      dup4\n        /* \"#utility.yul\":25581:25596   */\n      and\n        /* \"#utility.yul\":25571:25596   */\n      swap2\n      pop\n        /* \"#utility.yul\":25484:25602   */\n      pop\n        /* \"#utility.yul\":25433:25602   */\n      swap3\n      swap2\n      pop\n      pop\n      jump\t// out\n        /* \"#utility.yul\":25607:25902   */\n    tag_434:\n        /* \"#utility.yul\":25683:25687   */\n      0x00\n        /* \"#utility.yul\":25829:25858   */\n      tag_685\n        /* \"#utility.yul\":25854:25857   */\n      dup4\n        /* \"#utility.yul\":25848:25852   */\n      dup4\n        /* \"#utility.yul\":25829:25858   */\n      tag_433\n      jump\t// in\n    tag_685:\n        /* \"#utility.yul\":25821:25858   */\n      swap2\n      pop\n        /* \"#utility.yul\":25891:25894   */\n      dup3\n        /* \"#utility.yul\":25888:25889   */\n      0x02\n        /* \"#utility.yul\":25884:25895   */\n      mul\n        /* \"#utility.yul\":25878:25882   */\n      dup3\n        /* \"#utility.yul\":25875:25896   */\n      or\n        /* \"#utility.yul\":25867:25896   */\n      swap1\n      pop\n        /* \"#utility.yul\":25607:25902   */\n      swap3\n      swap2\n      pop\n      pop\n      jump\t// out\n        /* \"#utility.yul\":25907:27302   */\n    tag_147:\n        /* \"#utility.yul\":26024:26061   */\n      tag_687\n        /* \"#utility.yul\":26057:26060   */\n      dup3\n        /* \"#utility.yul\":26024:26061   */\n      tag_400\n      jump\t// in\n    tag_687:\n        /* \"#utility.yul\":26126:26144   */\n      0xffffffffffffffff\n        /* \"#utility.yul\":26118:26124   */\n      dup2\n        /* \"#utility.yul\":26115:26145   */\n      gt\n        /* \"#utility.yul\":26112:26168   */\n      iszero\n      tag_688\n      jumpi\n        /* \"#utility.yul\":26148:26166   */\n      tag_689\n      tag_77\n      jump\t// in\n    tag_689:\n        /* \"#utility.yul\":26112:26168   */\n    tag_688:\n        /* \"#utility.yul\":26192:26230   */\n      tag_690\n        /* \"#utility.yul\":26224:26228   */\n      dup3\n        /* \"#utility.yul\":26218:26229   */\n      sload\n        /* \"#utility.yul\":26192:26230   */\n      tag_201\n      jump\t// in\n    tag_690:\n        /* \"#utility.yul\":26277:26344   */\n      tag_691\n        /* \"#utility.yul\":26337:26343   */\n      dup3\n        /* \"#utility.yul\":26329:26335   */\n      dup3\n        /* \"#utility.yul\":26323:26327   */\n      dup6\n        /* \"#utility.yul\":26277:26344   */\n      tag_431\n      jump\t// in\n    tag_691:\n        /* \"#utility.yul\":26371:26372   */\n      0x00\n        /* \"#utility.yul\":26395:26399   */\n      0x20\n        /* \"#utility.yul\":26382:26399   */\n      swap1\n      pop\n        /* \"#utility.yul\":26427:26429   */\n      0x1f\n        /* \"#utility.yul\":26419:26425   */\n      dup4\n        /* \"#utility.yul\":26416:26430   */\n      gt\n        /* \"#utility.yul\":26444:26445   */\n      0x01\n        /* \"#utility.yul\":26439:27057   */\n      dup2\n      eq\n      tag_693\n      jumpi\n        /* \"#utility.yul\":27101:27102   */\n      0x00\n        /* \"#utility.yul\":27118:27124   */\n      dup5\n        /* \"#utility.yul\":27115:27192   */\n      iszero\n      tag_694\n      jumpi\n        /* \"#utility.yul\":27167:27176   */\n      dup3\n        /* \"#utility.yul\":27162:27165   */\n      dup8\n        /* \"#utility.yul\":27158:27177   */\n      add\n        /* \"#utility.yul\":27152:27178   */\n      mload\n        /* \"#utility.yul\":27143:27178   */\n      swap1\n      pop\n        /* \"#utility.yul\":27115:27192   */\n    tag_694:\n        /* \"#utility.yul\":27218:27285   */\n      tag_695\n        /* \"#utility.yul\":27278:27284   */\n      dup6\n        /* \"#utility.yul\":27271:27276   */\n      dup3\n        /* \"#utility.yul\":27218:27285   */\n      tag_434\n      jump\t// in\n    tag_695:\n        /* \"#utility.yul\":27212:27216   */\n      dup7\n        /* \"#utility.yul\":27205:27286   */\n      sstore\n        /* \"#utility.yul\":27074:27296   */\n      pop\n        /* \"#utility.yul\":26409:27296   */\n      jump(tag_692)\n        /* \"#utility.yul\":26439:27057   */\n    tag_693:\n        /* \"#utility.yul\":26491:26495   */\n      0x1f\n        /* \"#utility.yul\":26487:26496   */\n      not\n        /* \"#utility.yul\":26479:26485   */\n      dup5\n        /* \"#utility.yul\":26475:26497   */\n      and\n        /* \"#utility.yul\":26525:26562   */\n      tag_696\n        /* \"#utility.yul\":26557:26561   */\n      dup7\n        /* \"#utility.yul\":26525:26562   */\n      tag_420\n      jump\t// in\n    tag_696:\n        /* \"#utility.yul\":26584:26585   */\n      0x00\n        /* \"#utility.yul\":26598:26806   */\n    tag_697:\n        /* \"#utility.yul\":26612:26619   */\n      dup3\n        /* \"#utility.yul\":26609:26610   */\n      dup2\n        /* \"#utility.yul\":26606:26620   */\n      lt\n        /* \"#utility.yul\":26598:26806   */\n      iszero\n      tag_699\n      jumpi\n        /* \"#utility.yul\":26691:26700   */\n      dup5\n        /* \"#utility.yul\":26686:26689   */\n      dup10\n        /* \"#utility.yul\":26682:26701   */\n      add\n        /* \"#utility.yul\":26676:26702   */\n      mload\n        /* \"#utility.yul\":26668:26674   */\n      dup3\n        /* \"#utility.yul\":26661:26703   */\n      sstore\n        /* \"#utility.yul\":26742:26743   */\n      0x01\n        /* \"#utility.yul\":26734:26740   */\n      dup3\n        /* \"#utility.yul\":26730:26744   */\n      add\n        /* \"#utility.yul\":26720:26744   */\n      swap2\n      pop\n        /* \"#utility.yul\":26789:26791   */\n      0x20\n        /* \"#utility.yul\":26778:26787   */\n      dup6\n        /* \"#utility.yul\":26774:26792   */\n      add\n        /* \"#utility.yul\":26761:26792   */\n      swap5\n      pop\n        /* \"#utility.yul\":26635:26639   */\n      0x20\n        /* \"#utility.yul\":26632:26633   */\n      dup2\n        /* \"#utility.yul\":26628:26640   */\n      add\n        /* \"#utility.yul\":26623:26640   */\n      swap1\n      pop\n        /* \"#utility.yul\":26598:26806   */\n      jump(tag_697)\n    tag_699:\n        /* \"#utility.yul\":26834:26840   */\n      dup7\n        /* \"#utility.yul\":26825:26832   */\n      dup4\n        /* \"#utility.yul\":26822:26841   */\n      lt\n        /* \"#utility.yul\":26819:26998   */\n      iszero\n      tag_700\n      jumpi\n        /* \"#utility.yul\":26892:26901   */\n      dup5\n        /* \"#utility.yul\":26887:26890   */\n      dup10\n        /* \"#utility.yul\":26883:26902   */\n      add\n        /* \"#utility.yul\":26877:26903   */\n      mload\n        /* \"#utility.yul\":26935:26983   */\n      tag_701\n        /* \"#utility.yul\":26977:26981   */\n      0x1f\n        /* \"#utility.yul\":26969:26975   */\n      dup10\n        /* \"#utility.yul\":26965:26982   */\n      and\n        /* \"#utility.yul\":26954:26963   */\n      dup3\n        /* \"#utility.yul\":26935:26983   */\n      tag_433\n      jump\t// in\n    tag_701:\n        /* \"#utility.yul\":26927:26933   */\n      dup4\n        /* \"#utility.yul\":26920:26984   */\n      sstore\n        /* \"#utility.yul\":26842:26998   */\n      pop\n        /* \"#utility.yul\":26819:26998   */\n    tag_700:\n        /* \"#utility.yul\":27044:27045   */\n      0x01\n        /* \"#utility.yul\":27040:27041   */\n      0x02\n        /* \"#utility.yul\":27032:27038   */\n      dup9\n        /* \"#utility.yul\":27028:27042   */\n      mul\n        /* \"#utility.yul\":27024:27046   */\n      add\n        /* \"#utility.yul\":27018:27022   */\n      dup9\n        /* \"#utility.yul\":27011:27047   */\n      sstore\n        /* \"#utility.yul\":26446:27057   */\n      pop\n      pop\n      pop\n        /* \"#utility.yul\":26409:27296   */\n    tag_692:\n      pop\n        /* \"#utility.yul\":25999:27302   */\n      pop\n      pop\n      pop\n        /* \"#utility.yul\":25907:27302   */\n      pop\n      pop\n      jump\t// out\n        /* \"#utility.yul\":27308:27499   */\n    tag_149:\n        /* \"#utility.yul\":27348:27351   */\n      0x00\n        /* \"#utility.yul\":27367:27387   */\n      tag_703\n        /* \"#utility.yul\":27385:27386   */\n      dup3\n        /* \"#utility.yul\":27367:27387   */\n      tag_361\n      jump\t// in\n    tag_703:\n        /* \"#utility.yul\":27362:27387   */\n      swap2\n      pop\n        /* \"#utility.yul\":27401:27421   */\n      tag_704\n        /* \"#utility.yul\":27419:27420   */\n      dup4\n        /* \"#utility.yul\":27401:27421   */\n      tag_361\n      jump\t// in\n    tag_704:\n        /* \"#utility.yul\":27396:27421   */\n      swap3\n      pop\n        /* \"#utility.yul\":27444:27445   */\n      dup3\n        /* \"#utility.yul\":27441:27442   */\n      dup3\n        /* \"#utility.yul\":27437:27446   */\n      add\n        /* \"#utility.yul\":27430:27446   */\n      swap1\n      pop\n        /* \"#utility.yul\":27465:27468   */\n      dup1\n        /* \"#utility.yul\":27462:27463   */\n      dup3\n        /* \"#utility.yul\":27459:27469   */\n      gt\n        /* \"#utility.yul\":27456:27492   */\n      iszero\n      tag_705\n      jumpi\n        /* \"#utility.yul\":27472:27490   */\n      tag_706\n      tag_418\n      jump\t// in\n    tag_706:\n        /* \"#utility.yul\":27456:27492   */\n    tag_705:\n        /* \"#utility.yul\":27308:27499   */\n      swap3\n      swap2\n      pop\n      pop\n      jump\t// out\n        /* \"#utility.yul\":27505:28038   */\n    tag_152:\n        /* \"#utility.yul\":27674:27678   */\n      0x00\n        /* \"#utility.yul\":27712:27714   */\n      0x60\n        /* \"#utility.yul\":27701:27710   */\n      dup3\n        /* \"#utility.yul\":27697:27715   */\n      add\n        /* \"#utility.yul\":27689:27715   */\n      swap1\n      pop\n        /* \"#utility.yul\":27761:27770   */\n      dup2\n        /* \"#utility.yul\":27755:27759   */\n      dup2\n        /* \"#utility.yul\":27751:27771   */\n      sub\n        /* \"#utility.yul\":27747:27748   */\n      0x00\n        /* \"#utility.yul\":27736:27745   */\n      dup4\n        /* \"#utility.yul\":27732:27749   */\n      add\n        /* \"#utility.yul\":27725:27772   */\n      mstore\n        /* \"#utility.yul\":27789:27867   */\n      tag_708\n        /* \"#utility.yul\":27862:27866   */\n      dup2\n        /* \"#utility.yul\":27853:27859   */\n      dup7\n        /* \"#utility.yul\":27789:27867   */\n      tag_403\n      jump\t// in\n    tag_708:\n        /* \"#utility.yul\":27781:27867   */\n      swap1\n      pop\n        /* \"#utility.yul\":27877:27949   */\n      tag_709\n        /* \"#utility.yul\":27945:27947   */\n      0x20\n        /* \"#utility.yul\":27934:27943   */\n      dup4\n        /* \"#utility.yul\":27930:27948   */\n      add\n        /* \"#utility.yul\":27921:27927   */\n      dup6\n        /* \"#utility.yul\":27877:27949   */\n      tag_388\n      jump\t// in\n    tag_709:\n        /* \"#utility.yul\":27959:28031   */\n      tag_710\n        /* \"#utility.yul\":28027:28029   */\n      0x40\n        /* \"#utility.yul\":28016:28025   */\n      dup4\n        /* \"#utility.yul\":28012:28030   */\n      add\n        /* \"#utility.yul\":28003:28009   */\n      dup5\n        /* \"#utility.yul\":27959:28031   */\n      tag_388\n      jump\t// in\n    tag_710:\n        /* \"#utility.yul\":27505:28038   */\n      swap5\n      swap4\n      pop\n      pop\n      pop\n      pop\n      jump\t// out\n        /* \"#utility.yul\":28044:28208   */\n    tag_435:\n        /* \"#utility.yul\":28184:28200   */\n      0x42696464696e6720636c6f736564000000000000000000000000000000000000\n        /* \"#utility.yul\":28180:28181   */\n      0x00\n        /* \"#utility.yul\":28172:28178   */\n      dup3\n        /* \"#utility.yul\":28168:28182   */\n      add\n        /* \"#utility.yul\":28161:28201   */\n      mstore\n        /* \"#utility.yul\":28044:28208   */\n      pop\n      jump\t// out\n        /* \"#utility.yul\":28214:28580   */\n    tag_436:\n        /* \"#utility.yul\":28356:28359   */\n      0x00\n        /* \"#utility.yul\":28377:28444   */\n      tag_713\n        /* \"#utility.yul\":28441:28443   */\n      0x0e\n        /* \"#utility.yul\":28436:28439   */\n      dup4\n        /* \"#utility.yul\":28377:28444   */\n      tag_401\n      jump\t// in\n    tag_713:\n        /* \"#utility.yul\":28370:28444   */\n      swap2\n      pop\n        /* \"#utility.yul\":28453:28546   */\n      tag_714\n        /* \"#utility.yul\":28542:28545   */\n      dup3\n        /* \"#utility.yul\":28453:28546   */\n      tag_435\n      jump\t// in\n    tag_714:\n        /* \"#utility.yul\":28571:28573   */\n      0x20\n        /* \"#utility.yul\":28566:28569   */\n      dup3\n        /* \"#utility.yul\":28562:28574   */\n      add\n        /* \"#utility.yul\":28555:28574   */\n      swap1\n      pop\n        /* \"#utility.yul\":28214:28580   */\n      swap2\n      swap1\n      pop\n      jump\t// out\n        /* \"#utility.yul\":28586:29005   */\n    tag_160:\n        /* \"#utility.yul\":28752:28756   */\n      0x00\n        /* \"#utility.yul\":28790:28792   */\n      0x20\n        /* \"#utility.yul\":28779:28788   */\n      dup3\n        /* \"#utility.yul\":28775:28793   */\n      add\n        /* \"#utility.yul\":28767:28793   */\n      swap1\n      pop\n        /* \"#utility.yul\":28839:28848   */\n      dup2\n        /* \"#utility.yul\":28833:28837   */\n      dup2\n        /* \"#utility.yul\":28829:28849   */\n      sub\n        /* \"#utility.yul\":28825:28826   */\n      0x00\n        /* \"#utility.yul\":28814:28823   */\n      dup4\n        /* \"#utility.yul\":28810:28827   */\n      add\n        /* \"#utility.yul\":28803:28850   */\n      mstore\n        /* \"#utility.yul\":28867:28998   */\n      tag_716\n        /* \"#utility.yul\":28993:28997   */\n      dup2\n        /* \"#utility.yul\":28867:28998   */\n      tag_436\n      jump\t// in\n    tag_716:\n        /* \"#utility.yul\":28859:28998   */\n      swap1\n      pop\n        /* \"#utility.yul\":28586:29005   */\n      swap2\n      swap1\n      pop\n      jump\t// out\n        /* \"#utility.yul\":29011:29181   */\n    tag_437:\n        /* \"#utility.yul\":29151:29173   */\n      0x42696464696e6720706572696f6420656e646564000000000000000000000000\n        /* \"#utility.yul\":29147:29148   */\n      0x00\n        /* \"#utility.yul\":29139:29145   */\n      dup3\n        /* \"#utility.yul\":29135:29149   */\n      add\n        /* \"#utility.yul\":29128:29174   */\n      mstore\n        /* \"#utility.yul\":29011:29181   */\n      pop\n      jump\t// out\n        /* \"#utility.yul\":29187:29553   */\n    tag_438:\n        /* \"#utility.yul\":29329:29332   */\n      0x00\n        /* \"#utility.yul\":29350:29417   */\n      tag_719\n        /* \"#utility.yul\":29414:29416   */\n      0x14\n        /* \"#utility.yul\":29409:29412   */\n      dup4\n        /* \"#utility.yul\":29350:29417   */\n      tag_401\n      jump\t// in\n    tag_719:\n        /* \"#utility.yul\":29343:29417   */\n      swap2\n      pop\n        /* \"#utility.yul\":29426:29519   */\n      tag_720\n        /* \"#utility.yul\":29515:29518   */\n      dup3\n        /* \"#utility.yul\":29426:29519   */\n      tag_437\n      jump\t// in\n    tag_720:\n        /* \"#utility.yul\":29544:29546   */\n      0x20\n        /* \"#utility.yul\":29539:29542   */\n      dup3\n        /* \"#utility.yul\":29535:29547   */\n      add\n        /* \"#utility.yul\":29528:29547   */\n      swap1\n      pop\n        /* \"#utility.yul\":29187:29553   */\n      swap2\n      swap1\n      pop\n      jump\t// out\n        /* \"#utility.yul\":29559:29978   */\n    tag_163:\n        /* \"#utility.yul\":29725:29729   */\n      0x00\n        /* \"#utility.yul\":29763:29765   */\n      0x20\n        /* \"#utility.yul\":29752:29761   */\n      dup3\n        /* \"#utility.yul\":29748:29766   */\n      add\n        /* \"#utility.yul\":29740:29766   */\n      swap1\n      pop\n        /* \"#utility.yul\":29812:29821   */\n      dup2\n        /* \"#utility.yul\":29806:29810   */\n      dup2\n        /* \"#utility.yul\":29802:29822   */\n      sub\n        /* \"#utility.yul\":29798:29799   */\n      0x00\n        /* \"#utility.yul\":29787:29796   */\n      dup4\n        /* \"#utility.yul\":29783:29800   */\n      add\n        /* \"#utility.yul\":29776:29823   */\n      mstore\n        /* \"#utility.yul\":29840:29971   */\n      tag_722\n        /* \"#utility.yul\":29966:29970   */\n      dup2\n        /* \"#utility.yul\":29840:29971   */\n      tag_438\n      jump\t// in\n    tag_722:\n        /* \"#utility.yul\":29832:29971   */\n      swap1\n      pop\n        /* \"#utility.yul\":29559:29978   */\n      swap2\n      swap1\n      pop\n      jump\t// out\n        /* \"#utility.yul\":29984:30154   */\n    tag_439:\n        /* \"#utility.yul\":30124:30146   */\n      0x496e76616c696420736861726520616d6f756e74000000000000000000000000\n        /* \"#utility.yul\":30120:30121   */\n      0x00\n        /* \"#utility.yul\":30112:30118   */\n      dup3\n        /* \"#utility.yul\":30108:30122   */\n      add\n        /* \"#utility.yul\":30101:30147   */\n      mstore\n        /* \"#utility.yul\":29984:30154   */\n      pop\n      jump\t// out\n        /* \"#utility.yul\":30160:30526   */\n    tag_440:\n        /* \"#utility.yul\":30302:30305   */\n      0x00\n        /* \"#utility.yul\":30323:30390   */\n      tag_725\n        /* \"#utility.yul\":30387:30389   */\n      0x14\n        /* \"#utility.yul\":30382:30385   */\n      dup4\n        /* \"#utility.yul\":30323:30390   */\n      tag_401\n      jump\t// in\n    tag_725:\n        /* \"#utility.yul\":30316:30390   */\n      swap2\n      pop\n        /* \"#utility.yul\":30399:30492   */\n      tag_726\n        /* \"#utility.yul\":30488:30491   */\n      dup3\n        /* \"#utility.yul\":30399:30492   */\n      tag_439\n      jump\t// in\n    tag_726:\n        /* \"#utility.yul\":30517:30519   */\n      0x20\n        /* \"#utility.yul\":30512:30515   */\n      dup3\n        /* \"#utility.yul\":30508:30520   */\n      add\n        /* \"#utility.yul\":30501:30520   */\n      swap1\n      pop\n        /* \"#utility.yul\":30160:30526   */\n      swap2\n      swap1\n      pop\n      jump\t// out\n        /* \"#utility.yul\":30532:30951   */\n    tag_166:\n        /* \"#utility.yul\":30698:30702   */\n      0x00\n        /* \"#utility.yul\":30736:30738   */\n      0x20\n        /* \"#utility.yul\":30725:30734   */\n      dup3\n        /* \"#utility.yul\":30721:30739   */\n      add\n        /* \"#utility.yul\":30713:30739   */\n      swap1\n      pop\n        /* \"#utility.yul\":30785:30794   */\n      dup2\n        /* \"#utility.yul\":30779:30783   */\n      dup2\n        /* \"#utility.yul\":30775:30795   */\n      sub\n        /* \"#utility.yul\":30771:30772   */\n      0x00\n        /* \"#utility.yul\":30760:30769   */\n      dup4\n        /* \"#utility.yul\":30756:30773   */\n      add\n        /* \"#utility.yul\":30749:30796   */\n      mstore\n        /* \"#utility.yul\":30813:30944   */\n      tag_728\n        /* \"#utility.yul\":30939:30943   */\n      dup2\n        /* \"#utility.yul\":30813:30944   */\n      tag_440\n      jump\t// in\n    tag_728:\n        /* \"#utility.yul\":30805:30944   */\n      swap1\n      pop\n        /* \"#utility.yul\":30532:30951   */\n      swap2\n      swap1\n      pop\n      jump\t// out\n        /* \"#utility.yul\":30957:31289   */\n    tag_172:\n        /* \"#utility.yul\":31078:31082   */\n      0x00\n        /* \"#utility.yul\":31116:31118   */\n      0x40\n        /* \"#utility.yul\":31105:31114   */\n      dup3\n        /* \"#utility.yul\":31101:31119   */\n      add\n        /* \"#utility.yul\":31093:31119   */\n      swap1\n      pop\n        /* \"#utility.yul\":31129:31200   */\n      tag_730\n        /* \"#utility.yul\":31197:31198   */\n      0x00\n        /* \"#utility.yul\":31186:31195   */\n      dup4\n        /* \"#utility.yul\":31182:31199   */\n      add\n        /* \"#utility.yul\":31173:31179   */\n      dup6\n        /* \"#utility.yul\":31129:31200   */\n      tag_388\n      jump\t// in\n    tag_730:\n        /* \"#utility.yul\":31210:31282   */\n      tag_731\n        /* \"#utility.yul\":31278:31280   */\n      0x20\n        /* \"#utility.yul\":31267:31276   */\n      dup4\n        /* \"#utility.yul\":31263:31281   */\n      add\n        /* \"#utility.yul\":31254:31260   */\n      dup5\n        /* \"#utility.yul\":31210:31282   */\n      tag_388\n      jump\t// in\n    tag_731:\n        /* \"#utility.yul\":30957:31289   */\n      swap4\n      swap3\n      pop\n      pop\n      pop\n      jump\t// out\n        /* \"#utility.yul\":31295:31467   */\n    tag_441:\n        /* \"#utility.yul\":31435:31459   */\n      0x42696464696e6720706572696f64206f6e676f696e6700000000000000000000\n        /* \"#utility.yul\":31431:31432   */\n      0x00\n        /* \"#utility.yul\":31423:31429   */\n      dup3\n        /* \"#utility.yul\":31419:31433   */\n      add\n        /* \"#utility.yul\":31412:31460   */\n      mstore\n        /* \"#utility.yul\":31295:31467   */\n      pop\n      jump\t// out\n        /* \"#utility.yul\":31473:31839   */\n    tag_442:\n        /* \"#utility.yul\":31615:31618   */\n      0x00\n        /* \"#utility.yul\":31636:31703   */\n      tag_734\n        /* \"#utility.yul\":31700:31702   */\n      0x16\n        /* \"#utility.yul\":31695:31698   */\n      dup4\n        /* \"#utility.yul\":31636:31703   */\n      tag_401\n      jump\t// in\n    tag_734:\n        /* \"#utility.yul\":31629:31703   */\n      swap2\n      pop\n        /* \"#utility.yul\":31712:31805   */\n      tag_735\n        /* \"#utility.yul\":31801:31804   */\n      dup3\n        /* \"#utility.yul\":31712:31805   */\n      tag_441\n      jump\t// in\n    tag_735:\n        /* \"#utility.yul\":31830:31832   */\n      0x20\n        /* \"#utility.yul\":31825:31828   */\n      dup3\n        /* \"#utility.yul\":31821:31833   */\n      add\n        /* \"#utility.yul\":31814:31833   */\n      swap1\n      pop\n        /* \"#utility.yul\":31473:31839   */\n      swap2\n      swap1\n      pop\n      jump\t// out\n        /* \"#utility.yul\":31845:32264   */\n    tag_215:\n        /* \"#utility.yul\":32011:32015   */\n      0x00\n        /* \"#utility.yul\":32049:32051   */\n      0x20\n        /* \"#utility.yul\":32038:32047   */\n      dup3\n        /* \"#utility.yul\":32034:32052   */\n      add\n        /* \"#utility.yul\":32026:32052   */\n      swap1\n      pop\n        /* \"#utility.yul\":32098:32107   */\n      dup2\n        /* \"#utility.yul\":32092:32096   */\n      dup2\n        /* \"#utility.yul\":32088:32108   */\n      sub\n        /* \"#utility.yul\":32084:32085   */\n      0x00\n        /* \"#utility.yul\":32073:32082   */\n      dup4\n        /* \"#utility.yul\":32069:32086   */\n      add\n        /* \"#utility.yul\":32062:32109   */\n      mstore\n        /* \"#utility.yul\":32126:32257   */\n      tag_737\n        /* \"#utility.yul\":32252:32256   */\n      dup2\n        /* \"#utility.yul\":32126:32257   */\n      tag_442\n      jump\t// in\n    tag_737:\n        /* \"#utility.yul\":32118:32257   */\n      swap1\n      pop\n        /* \"#utility.yul\":31845:32264   */\n      swap2\n      swap1\n      pop\n      jump\t// out\n        /* \"#utility.yul\":32270:32451   */\n    tag_443:\n        /* \"#utility.yul\":32410:32443   */\n      0x5265656e7472616e637947756172643a207265656e7472616e742063616c6c00\n        /* \"#utility.yul\":32406:32407   */\n      0x00\n        /* \"#utility.yul\":32398:32404   */\n      dup3\n        /* \"#utility.yul\":32394:32408   */\n      add\n        /* \"#utility.yul\":32387:32444   */\n      mstore\n        /* \"#utility.yul\":32270:32451   */\n      pop\n      jump\t// out\n        /* \"#utility.yul\":32457:32823   */\n    tag_444:\n        /* \"#utility.yul\":32599:32602   */\n      0x00\n        /* \"#utility.yul\":32620:32687   */\n      tag_740\n        /* \"#utility.yul\":32684:32686   */\n      0x1f\n        /* \"#utility.yul\":32679:32682   */\n      dup4\n        /* \"#utility.yul\":32620:32687   */\n      tag_401\n      jump\t// in\n    tag_740:\n        /* \"#utility.yul\":32613:32687   */\n      swap2\n      pop\n        /* \"#utility.yul\":32696:32789   */\n      tag_741\n        /* \"#utility.yul\":32785:32788   */\n      dup3\n        /* \"#utility.yul\":32696:32789   */\n      tag_443\n      jump\t// in\n    tag_741:\n        /* \"#utility.yul\":32814:32816   */\n      0x20\n        /* \"#utility.yul\":32809:32812   */\n      dup3\n        /* \"#utility.yul\":32805:32817   */\n      add\n        /* \"#utility.yul\":32798:32817   */\n      swap1\n      pop\n        /* \"#utility.yul\":32457:32823   */\n      swap2\n      swap1\n      pop\n      jump\t// out\n        /* \"#utility.yul\":32829:33248   */\n    tag_229:\n        /* \"#utility.yul\":32995:32999   */\n      0x00\n        /* \"#utility.yul\":33033:33035   */\n      0x20\n        /* \"#utility.yul\":33022:33031   */\n      dup3\n        /* \"#utility.yul\":33018:33036   */\n      add\n        /* \"#utility.yul\":33010:33036   */\n      swap1\n      pop\n        /* \"#utility.yul\":33082:33091   */\n      dup2\n        /* \"#utility.yul\":33076:33080   */\n      dup2\n        /* \"#utility.yul\":33072:33092   */\n      sub\n        /* \"#utility.yul\":33068:33069   */\n      0x00\n        /* \"#utility.yul\":33057:33066   */\n      dup4\n        /* \"#utility.yul\":33053:33070   */\n      add\n        /* \"#utility.yul\":33046:33093   */\n      mstore\n        /* \"#utility.yul\":33110:33241   */\n      tag_743\n        /* \"#utility.yul\":33236:33240   */\n      dup2\n        /* \"#utility.yul\":33110:33241   */\n      tag_444\n      jump\t// in\n    tag_743:\n        /* \"#utility.yul\":33102:33241   */\n      swap1\n      pop\n        /* \"#utility.yul\":32829:33248   */\n      swap2\n      swap1\n      pop\n      jump\t// out\n        /* \"#utility.yul\":33254:33434   */\n    tag_445:\n        /* \"#utility.yul\":33302:33379   */\n      0x4e487b7100000000000000000000000000000000000000000000000000000000\n        /* \"#utility.yul\":33299:33300   */\n      0x00\n        /* \"#utility.yul\":33292:33380   */\n      mstore\n        /* \"#utility.yul\":33399:33403   */\n      0x12\n        /* \"#utility.yul\":33396:33397   */\n      0x04\n        /* \"#utility.yul\":33389:33404   */\n      mstore\n        /* \"#utility.yul\":33423:33427   */\n      0x24\n        /* \"#utility.yul\":33420:33421   */\n      0x00\n        /* \"#utility.yul\":33413:33428   */\n      revert\n        /* \"#utility.yul\":33440:33625   */\n    tag_293:\n        /* \"#utility.yul\":33480:33481   */\n      0x00\n        /* \"#utility.yul\":33497:33517   */\n      tag_746\n        /* \"#utility.yul\":33515:33516   */\n      dup3\n        /* \"#utility.yul\":33497:33517   */\n      tag_361\n      jump\t// in\n    tag_746:\n        /* \"#utility.yul\":33492:33517   */\n      swap2\n      pop\n        /* \"#utility.yul\":33531:33551   */\n      tag_747\n        /* \"#utility.yul\":33549:33550   */\n      dup4\n        /* \"#utility.yul\":33531:33551   */\n      tag_361\n      jump\t// in\n    tag_747:\n        /* \"#utility.yul\":33526:33551   */\n      swap3\n      pop\n        /* \"#utility.yul\":33570:33571   */\n      dup3\n        /* \"#utility.yul\":33560:33595   */\n      tag_748\n      jumpi\n        /* \"#utility.yul\":33575:33593   */\n      tag_749\n      tag_445\n      jump\t// in\n    tag_749:\n        /* \"#utility.yul\":33560:33595   */\n    tag_748:\n        /* \"#utility.yul\":33617:33618   */\n      dup3\n        /* \"#utility.yul\":33614:33615   */\n      dup3\n        /* \"#utility.yul\":33610:33619   */\n      div\n        /* \"#utility.yul\":33605:33619   */\n      swap1\n      pop\n        /* \"#utility.yul\":33440:33625   */\n      swap3\n      swap2\n      pop\n      pop\n      jump\t// out\n        /* \"#utility.yul\":33631:34041   */\n    tag_323:\n        /* \"#utility.yul\":33671:33678   */\n      0x00\n        /* \"#utility.yul\":33694:33714   */\n      tag_751\n        /* \"#utility.yul\":33712:33713   */\n      dup3\n        /* \"#utility.yul\":33694:33714   */\n      tag_361\n      jump\t// in\n    tag_751:\n        /* \"#utility.yul\":33689:33714   */\n      swap2\n      pop\n        /* \"#utility.yul\":33728:33748   */\n      tag_752\n        /* \"#utility.yul\":33746:33747   */\n      dup4\n        /* \"#utility.yul\":33728:33748   */\n      tag_361\n      jump\t// in\n    tag_752:\n        /* \"#utility.yul\":33723:33748   */\n      swap3\n      pop\n        /* \"#utility.yul\":33783:33784   */\n      dup3\n        /* \"#utility.yul\":33780:33781   */\n      dup3\n        /* \"#utility.yul\":33776:33785   */\n      mul\n        /* \"#utility.yul\":33805:33835   */\n      tag_753\n        /* \"#utility.yul\":33823:33834   */\n      dup2\n        /* \"#utility.yul\":33805:33835   */\n      tag_361\n      jump\t// in\n    tag_753:\n        /* \"#utility.yul\":33794:33835   */\n      swap2\n      pop\n        /* \"#utility.yul\":33984:33985   */\n      dup3\n        /* \"#utility.yul\":33975:33982   */\n      dup3\n        /* \"#utility.yul\":33971:33986   */\n      div\n        /* \"#utility.yul\":33968:33969   */\n      dup5\n        /* \"#utility.yul\":33965:33987   */\n      eq\n        /* \"#utility.yul\":33945:33946   */\n      dup4\n        /* \"#utility.yul\":33938:33947   */\n      iszero\n        /* \"#utility.yul\":33918:34001   */\n      or\n        /* \"#utility.yul\":33895:34034   */\n      tag_754\n      jumpi\n        /* \"#utility.yul\":34014:34032   */\n      tag_755\n      tag_418\n      jump\t// in\n    tag_755:\n        /* \"#utility.yul\":33895:34034   */\n    tag_754:\n        /* \"#utility.yul\":33679:34041   */\n      pop\n        /* \"#utility.yul\":33631:34041   */\n      swap3\n      swap2\n      pop\n      pop\n      jump\t// out\n        /* \"#utility.yul\":34047:34241   */\n    tag_328:\n        /* \"#utility.yul\":34087:34091   */\n      0x00\n        /* \"#utility.yul\":34107:34127   */\n      tag_757\n        /* \"#utility.yul\":34125:34126   */\n      dup3\n        /* \"#utility.yul\":34107:34127   */\n      tag_361\n      jump\t// in\n    tag_757:\n        /* \"#utility.yul\":34102:34127   */\n      swap2\n      pop\n        /* \"#utility.yul\":34141:34161   */\n      tag_758\n        /* \"#utility.yul\":34159:34160   */\n      dup4\n        /* \"#utility.yul\":34141:34161   */\n      tag_361\n      jump\t// in\n    tag_758:\n        /* \"#utility.yul\":34136:34161   */\n      swap3\n      pop\n        /* \"#utility.yul\":34185:34186   */\n      dup3\n        /* \"#utility.yul\":34182:34183   */\n      dup3\n        /* \"#utility.yul\":34178:34187   */\n      sub\n        /* \"#utility.yul\":34170:34187   */\n      swap1\n      pop\n        /* \"#utility.yul\":34209:34210   */\n      dup2\n        /* \"#utility.yul\":34203:34207   */\n      dup2\n        /* \"#utility.yul\":34200:34211   */\n      gt\n        /* \"#utility.yul\":34197:34234   */\n      iszero\n      tag_759\n      jumpi\n        /* \"#utility.yul\":34214:34232   */\n      tag_760\n      tag_418\n      jump\t// in\n    tag_760:\n        /* \"#utility.yul\":34197:34234   */\n    tag_759:\n        /* \"#utility.yul\":34047:34241   */\n      swap3\n      swap2\n      pop\n      pop\n      jump\t// out\n\n    auxdata: 0xa264697066735822122054f55de486092a87d47a9158d8bd3e74623d2c05290816443542814a01d4b7f464736f6c634300081a0033\n}\n",
				"bytecode": {
					"linkReferences": {},
					"object": "6080604052348015600e575f80fd5b5060015f8190555061336c806100235f395ff3fe60806040526004361061009b575f3560e01c8063686735c511610063578063686735c514610174578063a3d5f1e5146101b1578063b18cc358146101f0578063b468e0b014610232578063cf35bdd01461025a578063eafe7a741461029c5761009b565b80630392cc451461009f578063093755ad146100de5780634758261014610106578063503e05781461013057806357c90de514610158575b5f80fd5b3480156100aa575f80fd5b506100c560048036038101906100c091906122d5565b6102c6565b6040516100d59493929190612560565b60405180910390f35b3480156100e9575f80fd5b5061010460048036038101906100ff91906122d5565b6105eb565b005b348015610111575f80fd5b5061011a610775565b60405161012791906125ce565b60405180910390f35b34801561013b575f80fd5b5061015660048036038101906101519190612723565b61077e565b005b610172600480360381019061016d91906127b6565b610b7d565b005b34801561017f575f80fd5b5061019a600480360381019061019591906122d5565b610ddd565b6040516101a89291906127f4565b60405180910390f35b3480156101bc575f80fd5b506101d760048036038101906101d291906127b6565b610ff6565b6040516101e79493929190612847565b60405180910390f35b3480156101fb575f80fd5b50610216600480360381019061021191906122d5565b611067565b60405161022997969594939291906128ea565b60405180910390f35b34801561023d575f80fd5b50610258600480360381019061025391906122d5565b6111c3565b005b348015610265575f80fd5b50610280600480360381019061027b91906122d5565b611394565b60405161029397969594939291906128ea565b60405180910390f35b3480156102a7575f80fd5b506102b0611483565b6040516102bd91906125ce565b60405180910390f35b6060806060805f851180156102dd57506003548511155b61031c576040517f08c379a0000000000000000000000000000000000000000000000000000000008152600401610313906129a8565b60405180910390fd5b5f60025f8781526020019081526020015f2090505f818054905090508067ffffffffffffffff811115610352576103516125ff565b5b6040519080825280602002602001820160405280156103805781602001602082028036833780820191505090505b5095508067ffffffffffffffff81111561039d5761039c6125ff565b5b6040519080825280602002602001820160405280156103cb5781602001602082028036833780820191505090505b5094508067ffffffffffffffff8111156103e8576103e76125ff565b5b6040519080825280602002602001820160405280156104165781602001602082028036833780820191505090505b5093508067ffffffffffffffff811115610433576104326125ff565b5b6040519080825280602002602001820160405280156104615781602001602082028036833780820191505090505b5092505f5b818110156105e157828181548110610481576104806129c6565b5b905f5260205f2090600402015f015f9054906101000a900473ffffffffffffffffffffffffffffffffffffffff168782815181106104c2576104c16129c6565b5b602002602001019073ffffffffffffffffffffffffffffffffffffffff16908173ffffffffffffffffffffffffffffffffffffffff168152505082818154811061050f5761050e6129c6565b5b905f5260205f20906004020160010154868281518110610532576105316129c6565b5b602002602001018181525050828181548110610551576105506129c6565b5b905f5260205f20906004020160020154858281518110610574576105736129c6565b5b602002602001018181525050828181548110610593576105926129c6565b5b905f5260205f2090600402016003015f9054906101000a900460ff168482815181106105c2576105c16129c6565b5b6020026020010190151590811515815250508080600101915050610466565b5050509193509193565b6105f3611489565b5f60015f8381526020019081526020015f209050805f015f9054906101000a900473ffffffffffffffffffffffffffffffffffffffff1673ffffffffffffffffffffffffffffffffffffffff163373ffffffffffffffffffffffffffffffffffffffff1614610697576040517f08c379a000000000000000000000000000000000000000000000000000000000815260040161068e90612a3d565b60405180910390fd5b806005015f9054906101000a900460ff16156106e8576040517f08c379a00000000000000000000000000000000000000000000000000000000081526004016106df90612aa5565b60405180910390fd5b6001816005015f6101000a81548160ff0219169083151502179055505f60025f8481526020019081526020015f2080549050111561072e57610729826114d6565b610769565b817f4d7a5e450395fb8fb6b67c4751f80f057cd5a74550929306eff2cac7f0ecc1885f42604051610760929190612ac3565b60405180910390a25b50610772611d4d565b50565b5f600354905090565b5f84116107c0576040517f08c379a00000000000000000000000000000000000000000000000000000000081526004016107b790612b34565b60405180910390fd5b5f8311610802576040517f08c379a00000000000000000000000000000000000000000000000000000000081526004016107f990612b9c565b60405180910390fd5b5f8211610844576040517f08c379a000000000000000000000000000000000000000000000000000000000815260040161083b90612c04565b60405180910390fd5b5f855111610887576040517f08c379a000000000000000000000000000000000000000000000000000000000815260040161087e90612c6c565b60405180910390fd5b60035f81548092919061089990612cb7565b91905055505f60015f60035481526020019081526020015f20905033815f015f6101000a81548173ffffffffffffffffffffffffffffffffffffffff021916908373ffffffffffffffffffffffffffffffffffffffff160217905550858160010190816109069190612ef8565b508481600201819055508481600301819055508281600401819055505f816005015f6101000a81548160ff02191690831515021790555081426109499190612fc7565b81600601819055508060070133908060018154018082558091505060019003905f5260205f20015f9091909190916101000a81548173ffffffffffffffffffffffffffffffffffffffff021916908373ffffffffffffffffffffffffffffffffffffffff16021790555060405180606001604052803373ffffffffffffffffffffffffffffffffffffffff16815260200186815260200160011515815250816008015f3373ffffffffffffffffffffffffffffffffffffffff1673ffffffffffffffffffffffffffffffffffffffff1681526020019081526020015f205f820151815f015f6101000a81548173ffffffffffffffffffffffffffffffffffffffff021916908373ffffffffffffffffffffffffffffffffffffffff160217905550602082015181600101556040820151816002015f6101000a81548160ff0219169083151502179055509050503373ffffffffffffffffffffffffffffffffffffffff166003547f01b72beabfa8420e9b47a1c3d6764a97e2044c51b3368b66b161a5fc8ceebccf888887604051610ae393929190612ffa565b60405180910390a33373ffffffffffffffffffffffffffffffffffffffff166003547f25af9e0275abbb4de910d2062f5dcca6d4c47f1313066083dd9d7077608a7a5487604051610b3491906125ce565b60405180910390a37fdbad7356874fb84060a1e809f3b9f73d977da5f6e62d52682c065d51d15435c6600354604051610b6d91906125ce565b60405180910390a1505050505050565b610b85611489565b5f60015f8481526020019081526020015f209050806005015f9054906101000a900460ff1615610bea576040517f08c379a0000000000000000000000000000000000000000000000000000000008152600401610be190613080565b60405180910390fd5b80600601544210610c30576040517f08c379a0000000000000000000000000000000000000000000000000000000008152600401610c27906130e8565b60405180910390fd5b5f8211610c72576040517f08c379a0000000000000000000000000000000000000000000000000000000008152600401610c6990613150565b60405180910390fd5b60025f8481526020019081526020015f2060405180608001604052803373ffffffffffffffffffffffffffffffffffffffff168152602001848152602001610cc38534611d5690919063ffffffff16565b81526020015f1515815250908060018154018082558091505060019003905f5260205f2090600402015f909190919091505f820151815f015f6101000a81548173ffffffffffffffffffffffffffffffffffffffff021916908373ffffffffffffffffffffffffffffffffffffffff16021790555060208201518160010155604082015181600201556060820151816003015f6101000a81548160ff02191690831515021790555050503373ffffffffffffffffffffffffffffffffffffffff16837f51db8e23b3f4479b162fd48823b8402895442b8f6cfd94f66239391881ec7b6f84610dba8634611d5690919063ffffffff16565b604051610dc892919061316e565b60405180910390a350610dd9611d4d565b5050565b6060805f83118015610df157506003548311155b610e30576040517f08c379a0000000000000000000000000000000000000000000000000000000008152600401610e27906129a8565b60405180910390fd5b5f60015f8581526020019081526020015f2090505f816007018054905090508067ffffffffffffffff811115610e6957610e686125ff565b5b604051908082528060200260200182016040528015610e975781602001602082028036833780820191505090505b5093508067ffffffffffffffff811115610eb457610eb36125ff565b5b604051908082528060200260200182016040528015610ee25781602001602082028036833780820191505090505b5092505f5b81811015610fee575f836007018281548110610f0657610f056129c6565b5b905f5260205f20015f9054906101000a900473ffffffffffffffffffffffffffffffffffffffff16905080868381518110610f4457610f436129c6565b5b602002602001019073ffffffffffffffffffffffffffffffffffffffff16908173ffffffffffffffffffffffffffffffffffffffff1681525050836008015f8273ffffffffffffffffffffffffffffffffffffffff1673ffffffffffffffffffffffffffffffffffffffff1681526020019081526020015f2060010154858381518110610fd457610fd36129c6565b5b602002602001018181525050508080600101915050610ee7565b505050915091565b6002602052815f5260405f20818154811061100f575f80fd5b905f5260205f2090600402015f9150915050805f015f9054906101000a900473ffffffffffffffffffffffffffffffffffffffff1690806001015490806002015490806003015f9054906101000a900460ff16905084565b5f60605f805f805f808811801561108057506003548811155b6110bf576040517f08c379a00000000000000000000000000000000000000000000000000000000081526004016110b6906129a8565b60405180910390fd5b5f60015f8a81526020019081526020015f209050805f015f9054906101000a900473ffffffffffffffffffffffffffffffffffffffff1681600101826002015483600301548460040154856005015f9054906101000a900460ff16866006015485805461112b90612d2b565b80601f016020809104026020016040519081016040528092919081815260200182805461115790612d2b565b80156111a25780601f10611179576101008083540402835291602001916111a2565b820191905f5260205f20905b81548152906001019060200180831161118557829003601f168201915b50505050509550975097509750975097509750975050919395979092949650565b6111cb611489565b5f60015f8381526020019081526020015f209050805f015f9054906101000a900473ffffffffffffffffffffffffffffffffffffffff1673ffffffffffffffffffffffffffffffffffffffff163373ffffffffffffffffffffffffffffffffffffffff161461126f576040517f08c379a000000000000000000000000000000000000000000000000000000000815260040161126690612a3d565b60405180910390fd5b806005015f9054906101000a900460ff16156112c0576040517f08c379a00000000000000000000000000000000000000000000000000000000081526004016112b790612aa5565b60405180910390fd5b8060060154421015611307576040517f08c379a00000000000000000000000000000000000000000000000000000000081526004016112fe906131df565b60405180910390fd5b6001816005015f6101000a81548160ff0219169083151502179055505f60025f8481526020019081526020015f2080549050111561134d57611348826114d6565b611388565b817f4d7a5e450395fb8fb6b67c4751f80f057cd5a74550929306eff2cac7f0ecc1885f4260405161137f929190612ac3565b60405180910390a25b50611391611d4d565b50565b6001602052805f5260405f205f91509050805f015f9054906101000a900473ffffffffffffffffffffffffffffffffffffffff16908060010180546113d890612d2b565b80601f016020809104026020016040519081016040528092919081815260200182805461140490612d2b565b801561144f5780601f106114265761010080835404028352916020019161144f565b820191905f5260205f20905b81548152906001019060200180831161143257829003601f168201915b505050505090806002015490806003015490806004015490806005015f9054906101000a900460ff16908060060154905087565b60035481565b60025f54036114cd576040517f08c379a00000000000000000000000000000000000000000000000000000000081526004016114c490613247565b60405180910390fd5b60025f81905550565b5f60015f8381526020019081526020015f2090506114f382611d6b565b5f60025f8481526020019081526020015f2090505f80836003015490505f5b83805490508110801561152457505f82115b156115d8575f84828154811061153d5761153c6129c6565b5b905f5260205f2090600402019050806003015f9054906101000a900460ff161561156757506115c5565b5f838260010154111561157a5783611580565b81600101545b90506115ab61159c83600201548361204490919063ffffffff16565b8661205990919063ffffffff16565b94506115c0818561206e90919063ffffffff16565b935050505b80806115d090612cb7565b915050611512565b505f846004015483101590508015611d0157846002015485600301819055505f5b856007018054905081101561169e575f86600701828154811061161f5761161e6129c6565b5b905f5260205f20015f9054906101000a900473ffffffffffffffffffffffffffffffffffffffff1690505f876008015f8373ffffffffffffffffffffffffffffffffffffffff1673ffffffffffffffffffffffffffffffffffffffff1681526020019081526020015f20600101819055505080806001019150506115f9565b50846007015f6116ae9190612258565b5f5b8480549050811015611cfb575f86600301540315611cfb575f8582815481106116dc576116db6129c6565b5b905f5260205f2090600402019050806003015f9054906101000a900460ff16156117065750611cee565b5f876003015482600101541115611721578760030154611727565b81600101545b90505f61174183600201548361204490919063ffffffff16565b90505f611771826117638660020154876001015461204490919063ffffffff16565b61206e90919063ffffffff16565b90505f831115611c0a57895f015f9054906101000a900473ffffffffffffffffffffffffffffffffffffffff1673ffffffffffffffffffffffffffffffffffffffff166108fc8390811502906040515f60405180830381858888f193505050501580156117e0573d5f803e3d5ffd5b506117f8838b6003015461206e90919063ffffffff16565b8a600301819055506001846003015f6101000a81548160ff021916908315150217905550896008015f855f015f9054906101000a900473ffffffffffffffffffffffffffffffffffffffff1673ffffffffffffffffffffffffffffffffffffffff1673ffffffffffffffffffffffffffffffffffffffff1681526020019081526020015f206002015f9054906101000a900460ff16611a415789600701845f015f9054906101000a900473ffffffffffffffffffffffffffffffffffffffff16908060018154018082558091505060019003905f5260205f20015f9091909190916101000a81548173ffffffffffffffffffffffffffffffffffffffff021916908373ffffffffffffffffffffffffffffffffffffffff1602179055506040518060600160405280855f015f9054906101000a900473ffffffffffffffffffffffffffffffffffffffff1673ffffffffffffffffffffffffffffffffffffffff168152602001848152602001600115158152508a6008015f865f015f9054906101000a900473ffffffffffffffffffffffffffffffffffffffff1673ffffffffffffffffffffffffffffffffffffffff1673ffffffffffffffffffffffffffffffffffffffff1681526020019081526020015f205f820151815f015f6101000a81548173ffffffffffffffffffffffffffffffffffffffff021916908373ffffffffffffffffffffffffffffffffffffffff160217905550602082015181600101556040820151816002015f6101000a81548160ff021916908315150217905550905050611b21565b611ab8838b6008015f875f015f9054906101000a900473ffffffffffffffffffffffffffffffffffffffff1673ffffffffffffffffffffffffffffffffffffffff1673ffffffffffffffffffffffffffffffffffffffff1681526020019081526020015f206001015461205990919063ffffffff16565b8a6008015f865f015f9054906101000a900473ffffffffffffffffffffffffffffffffffffffff1673ffffffffffffffffffffffffffffffffffffffff1673ffffffffffffffffffffffffffffffffffffffff1681526020019081526020015f20600101819055505b835f015f9054906101000a900473ffffffffffffffffffffffffffffffffffffffff1673ffffffffffffffffffffffffffffffffffffffff168b7f46d3c445b404e9de2c80e1c0489cc92f23dfd5462ce7c6b3a1a54b3f0f70bcfc858760020154604051611b9092919061316e565b60405180910390a3835f015f9054906101000a900473ffffffffffffffffffffffffffffffffffffffff1673ffffffffffffffffffffffffffffffffffffffff168b7f25af9e0275abbb4de910d2062f5dcca6d4c47f1313066083dd9d7077608a7a5485604051611c0191906125ce565b60405180910390a35b5f811115611ce957835f015f9054906101000a900473ffffffffffffffffffffffffffffffffffffffff1673ffffffffffffffffffffffffffffffffffffffff166108fc8290811502906040515f60405180830381858888f19350505050158015611c77573d5f803e3d5ffd5b50835f015f9054906101000a900473ffffffffffffffffffffffffffffffffffffffff1673ffffffffffffffffffffffffffffffffffffffff167fa171b6942063c6f2800ce40a780edce37baa2b618571b11eedd1e69e626e7d7682604051611ce091906125ce565b60405180910390a25b505050505b80806001019150506116b0565b50611d0b565b611d0a86612083565b5b857f4d7a5e450395fb8fb6b67c4751f80f057cd5a74550929306eff2cac7f0ecc1888242604051611d3d929190612ac3565b60405180910390a2505050505050565b60015f81905550565b5f8183611d639190613292565b905092915050565b5f60025f8381526020019081526020015f2090505f5b818054905081101561203f575f600182611d9b9190612fc7565b90505b828054905081101561203157828181548110611dbd57611dbc6129c6565b5b905f5260205f20906004020160020154838381548110611de057611ddf6129c6565b5b905f5260205f209060040201600201541015612024575f838381548110611e0a57611e096129c6565b5b905f5260205f2090600402016040518060800160405290815f82015f9054906101000a900473ffffffffffffffffffffffffffffffffffffffff1673ffffffffffffffffffffffffffffffffffffffff1673ffffffffffffffffffffffffffffffffffffffff1681526020016001820154815260200160028201548152602001600382015f9054906101000a900460ff1615151515815250509050838281548110611eb857611eb76129c6565b5b905f5260205f209060040201848481548110611ed757611ed66129c6565b5b905f5260205f2090600402015f82015f9054906101000a900473ffffffffffffffffffffffffffffffffffffffff16815f015f6101000a81548173ffffffffffffffffffffffffffffffffffffffff021916908373ffffffffffffffffffffffffffffffffffffffff1602179055506001820154816001015560028201548160020155600382015f9054906101000a900460ff16816003015f6101000a81548160ff02191690831515021790555090505080848381548110611f9c57611f9b6129c6565b5b905f5260205f2090600402015f820151815f015f6101000a81548173ffffffffffffffffffffffffffffffffffffffff021916908373ffffffffffffffffffffffffffffffffffffffff16021790555060208201518160010155604082015181600201556060820151816003015f6101000a81548160ff021916908315150217905550905050505b8080600101915050611d9e565b508080600101915050611d81565b505050565b5f818361205191906132c2565b905092915050565b5f81836120669190612fc7565b905092915050565b5f818361207b9190613303565b905092915050565b5f60025f8381526020019081526020015f2090505f5b8180549050811015612253578181815481106120b8576120b76129c6565b5b905f5260205f2090600402016003015f9054906101000a900460ff16612246575f6121308383815481106120ef576120ee6129c6565b5b905f5260205f20906004020160020154848481548110612112576121116129c6565b5b905f5260205f2090600402016001015461204490919063ffffffff16565b9050828281548110612145576121446129c6565b5b905f5260205f2090600402015f015f9054906101000a900473ffffffffffffffffffffffffffffffffffffffff1673ffffffffffffffffffffffffffffffffffffffff166108fc8290811502906040515f60405180830381858888f193505050501580156121b5573d5f803e3d5ffd5b508282815481106121c9576121c86129c6565b5b905f5260205f2090600402015f015f9054906101000a900473ffffffffffffffffffffffffffffffffffffffff1673ffffffffffffffffffffffffffffffffffffffff167fa171b6942063c6f2800ce40a780edce37baa2b618571b11eedd1e69e626e7d768260405161223c91906125ce565b60405180910390a2505b8080600101915050612099565b505050565b5080545f8255905f5260205f20908101906122739190612276565b50565b5b8082111561228d575f815f905550600101612277565b5090565b5f604051905090565b5f80fd5b5f80fd5b5f819050919050565b6122b4816122a2565b81146122be575f80fd5b50565b5f813590506122cf816122ab565b92915050565b5f602082840312156122ea576122e961229a565b5b5f6122f7848285016122c1565b91505092915050565b5f81519050919050565b5f82825260208201905092915050565b5f819050602082019050919050565b5f73ffffffffffffffffffffffffffffffffffffffff82169050919050565b5f61235282612329565b9050919050565b61236281612348565b82525050565b5f6123738383612359565b60208301905092915050565b5f602082019050919050565b5f61239582612300565b61239f818561230a565b93506123aa8361231a565b805f5b838110156123da5781516123c18882612368565b97506123cc8361237f565b9250506001810190506123ad565b5085935050505092915050565b5f81519050919050565b5f82825260208201905092915050565b5f819050602082019050919050565b612419816122a2565b82525050565b5f61242a8383612410565b60208301905092915050565b5f602082019050919050565b5f61244c826123e7565b61245681856123f1565b935061246183612401565b805f5b83811015612491578151612478888261241f565b975061248383612436565b925050600181019050612464565b5085935050505092915050565b5f81519050919050565b5f82825260208201905092915050565b5f819050602082019050919050565b5f8115159050919050565b6124db816124c7565b82525050565b5f6124ec83836124d2565b60208301905092915050565b5f602082019050919050565b5f61250e8261249e565b61251881856124a8565b9350612523836124b8565b805f5b8381101561255357815161253a88826124e1565b9750612545836124f8565b925050600181019050612526565b5085935050505092915050565b5f6080820190508181035f830152612578818761238b565b9050818103602083015261258c8186612442565b905081810360408301526125a08185612442565b905081810360608301526125b48184612504565b905095945050505050565b6125c8816122a2565b82525050565b5f6020820190506125e15f8301846125bf565b92915050565b5f80fd5b5f80fd5b5f601f19601f8301169050919050565b7f4e487b71000000000000000000000000000000000000000000000000000000005f52604160045260245ffd5b612635826125ef565b810181811067ffffffffffffffff82111715612654576126536125ff565b5b80604052505050565b5f612666612291565b9050612672828261262c565b919050565b5f67ffffffffffffffff821115612691576126906125ff565b5b61269a826125ef565b9050602081019050919050565b828183375f83830152505050565b5f6126c76126c284612677565b61265d565b9050828152602081018484840111156126e3576126e26125eb565b5b6126ee8482856126a7565b509392505050565b5f82601f83011261270a576127096125e7565b5b813561271a8482602086016126b5565b91505092915050565b5f805f805f60a0868803121561273c5761273b61229a565b5b5f86013567ffffffffffffffff8111156127595761275861229e565b5b612765888289016126f6565b9550506020612776888289016122c1565b9450506040612787888289016122c1565b9350506060612798888289016122c1565b92505060806127a9888289016122c1565b9150509295509295909350565b5f80604083850312156127cc576127cb61229a565b5b5f6127d9858286016122c1565b92505060206127ea858286016122c1565b9150509250929050565b5f6040820190508181035f83015261280c818561238b565b905081810360208301526128208184612442565b90509392505050565b61283281612348565b82525050565b612841816124c7565b82525050565b5f60808201905061285a5f830187612829565b61286760208301866125bf565b61287460408301856125bf565b6128816060830184612838565b95945050505050565b5f81519050919050565b5f82825260208201905092915050565b8281835e5f83830152505050565b5f6128bc8261288a565b6128c68185612894565b93506128d68185602086016128a4565b6128df816125ef565b840191505092915050565b5f60e0820190506128fd5f83018a612829565b818103602083015261290f81896128b2565b905061291e60408301886125bf565b61292b60608301876125bf565b61293860808301866125bf565b61294560a0830185612838565b61295260c08301846125bf565b98975050505050505050565b7f496e76616c6964206173736574204944000000000000000000000000000000005f82015250565b5f612992601083612894565b915061299d8261295e565b602082019050919050565b5f6020820190508181035f8301526129bf81612986565b9050919050565b7f4e487b71000000000000000000000000000000000000000000000000000000005f52603260045260245ffd5b7f556e617574686f72697a656400000000000000000000000000000000000000005f82015250565b5f612a27600c83612894565b9150612a32826129f3565b602082019050919050565b5f6020820190508181035f830152612a5481612a1b565b9050919050565b7f42696464696e6720616c726561647920636c6f736564000000000000000000005f82015250565b5f612a8f601683612894565b9150612a9a82612a5b565b602082019050919050565b5f6020820190508181035f830152612abc81612a83565b9050919050565b5f604082019050612ad65f830185612838565b612ae360208301846125bf565b9392505050565b7f496e76616c696420736861726520636f756e74000000000000000000000000005f82015250565b5f612b1e601383612894565b9150612b2982612aea565b602082019050919050565b5f6020820190508181035f830152612b4b81612b12565b9050919050565b7f496e76616c6964206d696e696d756d20707269636520706572207368617265005f82015250565b5f612b86601f83612894565b9150612b9182612b52565b602082019050919050565b5f6020820190508181035f830152612bb381612b7a565b9050919050565b7f496e76616c6964206d696e696d756d20746f74616c20707269636500000000005f82015250565b5f612bee601b83612894565b9150612bf982612bba565b602082019050919050565b5f6020820190508181035f830152612c1b81612be2565b9050919050565b7f4e616d652063616e6e6f7420626520656d7074790000000000000000000000005f82015250565b5f612c56601483612894565b9150612c6182612c22565b602082019050919050565b5f6020820190508181035f830152612c8381612c4a565b9050919050565b7f4e487b71000000000000000000000000000000000000000000000000000000005f52601160045260245ffd5b5f612cc1826122a2565b91507fffffffffffffffffffffffffffffffffffffffffffffffffffffffffffffffff8203612cf357612cf2612c8a565b5b600182019050919050565b7f4e487b71000000000000000000000000000000000000000000000000000000005f52602260045260245ffd5b5f6002820490506001821680612d4257607f821691505b602082108103612d5557612d54612cfe565b5b50919050565b5f819050815f5260205f209050919050565b5f6020601f8301049050919050565b5f82821b905092915050565b5f60088302612db77fffffffffffffffffffffffffffffffffffffffffffffffffffffffffffffffff82612d7c565b612dc18683612d7c565b95508019841693508086168417925050509392505050565b5f819050919050565b5f612dfc612df7612df2846122a2565b612dd9565b6122a2565b9050919050565b5f819050919050565b612e1583612de2565b612e29612e2182612e03565b848454612d88565b825550505050565b5f90565b612e3d612e31565b612e48818484612e0c565b505050565b5b81811015612e6b57612e605f82612e35565b600181019050612e4e565b5050565b601f821115612eb057612e8181612d5b565b612e8a84612d6d565b81016020851015612e99578190505b612ead612ea585612d6d565b830182612e4d565b50505b505050565b5f82821c905092915050565b5f612ed05f1984600802612eb5565b1980831691505092915050565b5f612ee88383612ec1565b9150826002028217905092915050565b612f018261288a565b67ffffffffffffffff811115612f1a57612f196125ff565b5b612f248254612d2b565b612f2f828285612e6f565b5f60209050601f831160018114612f60575f8415612f4e578287015190505b612f588582612edd565b865550612fbf565b601f198416612f6e86612d5b565b5f5b82811015612f9557848901518255600182019150602085019450602081019050612f70565b86831015612fb25784890151612fae601f891682612ec1565b8355505b6001600288020188555050505b505050505050565b5f612fd1826122a2565b9150612fdc836122a2565b9250828201905080821115612ff457612ff3612c8a565b5b92915050565b5f6060820190508181035f83015261301281866128b2565b905061302160208301856125bf565b61302e60408301846125bf565b949350505050565b7f42696464696e6720636c6f7365640000000000000000000000000000000000005f82015250565b5f61306a600e83612894565b915061307582613036565b602082019050919050565b5f6020820190508181035f8301526130978161305e565b9050919050565b7f42696464696e6720706572696f6420656e6465640000000000000000000000005f82015250565b5f6130d2601483612894565b91506130dd8261309e565b602082019050919050565b5f6020820190508181035f8301526130ff816130c6565b9050919050565b7f496e76616c696420736861726520616d6f756e740000000000000000000000005f82015250565b5f61313a601483612894565b915061314582613106565b602082019050919050565b5f6020820190508181035f8301526131678161312e565b9050919050565b5f6040820190506131815f8301856125bf565b61318e60208301846125bf565b9392505050565b7f42696464696e6720706572696f64206f6e676f696e67000000000000000000005f82015250565b5f6131c9601683612894565b91506131d482613195565b602082019050919050565b5f6020820190508181035f8301526131f6816131bd565b9050919050565b7f5265656e7472616e637947756172643a207265656e7472616e742063616c6c005f82015250565b5f613231601f83612894565b915061323c826131fd565b602082019050919050565b5f6020820190508181035f83015261325e81613225565b9050919050565b7f4e487b71000000000000000000000000000000000000000000000000000000005f52601260045260245ffd5b5f61329c826122a2565b91506132a7836122a2565b9250826132b7576132b6613265565b5b828204905092915050565b5f6132cc826122a2565b91506132d7836122a2565b92508282026132e5816122a2565b915082820484148315176132fc576132fb612c8a565b5b5092915050565b5f61330d826122a2565b9150613318836122a2565b92508282039050818111156133305761332f612c8a565b5b9291505056fea264697066735822122054f55de486092a87d47a9158d8bd3e74623d2c05290816443542814a01d4b7f464736f6c634300081a0033",
					"opcodes": "PUSH1 0x80 PUSH1 0x40 MSTORE CALLVALUE DUP1 ISZERO PUSH1 0xE JUMPI PUSH0 DUP1 REVERT JUMPDEST POP PUSH1 0x1 PUSH0 DUP2 SWAP1 SSTORE POP PUSH2 0x336C DUP1 PUSH2 0x23 PUSH0 CODECOPY PUSH0 RETURN INVALID PUSH1 0x80 PUSH1 0x40 MSTORE PUSH1 0x4 CALLDATASIZE LT PUSH2 0x9B JUMPI PUSH0 CALLDATALOAD PUSH1 0xE0 SHR DUP1 PUSH4 0x686735C5 GT PUSH2 0x63 JUMPI DUP1 PUSH4 0x686735C5 EQ PUSH2 0x174 JUMPI DUP1 PUSH4 0xA3D5F1E5 EQ PUSH2 0x1B1 JUMPI DUP1 PUSH4 0xB18CC358 EQ PUSH2 0x1F0 JUMPI DUP1 PUSH4 0xB468E0B0 EQ PUSH2 0x232 JUMPI DUP1 PUSH4 0xCF35BDD0 EQ PUSH2 0x25A JUMPI DUP1 PUSH4 0xEAFE7A74 EQ PUSH2 0x29C JUMPI PUSH2 0x9B JUMP JUMPDEST DUP1 PUSH4 0x392CC45 EQ PUSH2 0x9F JUMPI DUP1 PUSH4 0x93755AD EQ PUSH2 0xDE JUMPI DUP1 PUSH4 0x47582610 EQ PUSH2 0x106 JUMPI DUP1 PUSH4 0x503E0578 EQ PUSH2 0x130 JUMPI DUP1 PUSH4 0x57C90DE5 EQ PUSH2 0x158 JUMPI JUMPDEST PUSH0 DUP1 REVERT JUMPDEST CALLVALUE DUP1 ISZERO PUSH2 0xAA JUMPI PUSH0 DUP1 REVERT JUMPDEST POP PUSH2 0xC5 PUSH1 0x4 DUP1 CALLDATASIZE SUB DUP2 ADD SWAP1 PUSH2 0xC0 SWAP2 SWAP1 PUSH2 0x22D5 JUMP JUMPDEST PUSH2 0x2C6 JUMP JUMPDEST PUSH1 0x40 MLOAD PUSH2 0xD5 SWAP5 SWAP4 SWAP3 SWAP2 SWAP1 PUSH2 0x2560 JUMP JUMPDEST PUSH1 0x40 MLOAD DUP1 SWAP2 SUB SWAP1 RETURN JUMPDEST CALLVALUE DUP1 ISZERO PUSH2 0xE9 JUMPI PUSH0 DUP1 REVERT JUMPDEST POP PUSH2 0x104 PUSH1 0x4 DUP1 CALLDATASIZE SUB DUP2 ADD SWAP1 PUSH2 0xFF SWAP2 SWAP1 PUSH2 0x22D5 JUMP JUMPDEST PUSH2 0x5EB JUMP JUMPDEST STOP JUMPDEST CALLVALUE DUP1 ISZERO PUSH2 0x111 JUMPI PUSH0 DUP1 REVERT JUMPDEST POP PUSH2 0x11A PUSH2 0x775 JUMP JUMPDEST PUSH1 0x40 MLOAD PUSH2 0x127 SWAP2 SWAP1 PUSH2 0x25CE JUMP JUMPDEST PUSH1 0x40 MLOAD DUP1 SWAP2 SUB SWAP1 RETURN JUMPDEST CALLVALUE DUP1 ISZERO PUSH2 0x13B JUMPI PUSH0 DUP1 REVERT JUMPDEST POP PUSH2 0x156 PUSH1 0x4 DUP1 CALLDATASIZE SUB DUP2 ADD SWAP1 PUSH2 0x151 SWAP2 SWAP1 PUSH2 0x2723 JUMP JUMPDEST PUSH2 0x77E JUMP JUMPDEST STOP JUMPDEST PUSH2 0x172 PUSH1 0x4 DUP1 CALLDATASIZE SUB DUP2 ADD SWAP1 PUSH2 0x16D SWAP2 SWAP1 PUSH2 0x27B6 JUMP JUMPDEST PUSH2 0xB7D JUMP JUMPDEST STOP JUMPDEST CALLVALUE DUP1 ISZERO PUSH2 0x17F JUMPI PUSH0 DUP1 REVERT JUMPDEST POP PUSH2 0x19A PUSH1 0x4 DUP1 CALLDATASIZE SUB DUP2 ADD SWAP1 PUSH2 0x195 SWAP2 SWAP1 PUSH2 0x22D5 JUMP JUMPDEST PUSH2 0xDDD JUMP JUMPDEST PUSH1 0x40 MLOAD PUSH2 0x1A8 SWAP3 SWAP2 SWAP1 PUSH2 0x27F4 JUMP JUMPDEST PUSH1 0x40 MLOAD DUP1 SWAP2 SUB SWAP1 RETURN JUMPDEST CALLVALUE DUP1 ISZERO PUSH2 0x1BC JUMPI PUSH0 DUP1 REVERT JUMPDEST POP PUSH2 0x1D7 PUSH1 0x4 DUP1 CALLDATASIZE SUB DUP2 ADD SWAP1 PUSH2 0x1D2 SWAP2 SWAP1 PUSH2 0x27B6 JUMP JUMPDEST PUSH2 0xFF6 JUMP JUMPDEST PUSH1 0x40 MLOAD PUSH2 0x1E7 SWAP5 SWAP4 SWAP3 SWAP2 SWAP1 PUSH2 0x2847 JUMP JUMPDEST PUSH1 0x40 MLOAD DUP1 SWAP2 SUB SWAP1 RETURN JUMPDEST CALLVALUE DUP1 ISZERO PUSH2 0x1FB JUMPI PUSH0 DUP1 REVERT JUMPDEST POP PUSH2 0x216 PUSH1 0x4 DUP1 CALLDATASIZE SUB DUP2 ADD SWAP1 PUSH2 0x211 SWAP2 SWAP1 PUSH2 0x22D5 JUMP JUMPDEST PUSH2 0x1067 JUMP JUMPDEST PUSH1 0x40 MLOAD PUSH2 0x229 SWAP8 SWAP7 SWAP6 SWAP5 SWAP4 SWAP3 SWAP2 SWAP1 PUSH2 0x28EA JUMP JUMPDEST PUSH1 0x40 MLOAD DUP1 SWAP2 SUB SWAP1 RETURN JUMPDEST CALLVALUE DUP1 ISZERO PUSH2 0x23D JUMPI PUSH0 DUP1 REVERT JUMPDEST POP PUSH2 0x258 PUSH1 0x4 DUP1 CALLDATASIZE SUB DUP2 ADD SWAP1 PUSH2 0x253 SWAP2 SWAP1 PUSH2 0x22D5 JUMP JUMPDEST PUSH2 0x11C3 JUMP JUMPDEST STOP JUMPDEST CALLVALUE DUP1 ISZERO PUSH2 0x265 JUMPI PUSH0 DUP1 REVERT JUMPDEST POP PUSH2 0x280 PUSH1 0x4 DUP1 CALLDATASIZE SUB DUP2 ADD SWAP1 PUSH2 0x27B SWAP2 SWAP1 PUSH2 0x22D5 JUMP JUMPDEST PUSH2 0x1394 JUMP JUMPDEST PUSH1 0x40 MLOAD PUSH2 0x293 SWAP8 SWAP7 SWAP6 SWAP5 SWAP4 SWAP3 SWAP2 SWAP1 PUSH2 0x28EA JUMP JUMPDEST PUSH1 0x40 MLOAD DUP1 SWAP2 SUB SWAP1 RETURN JUMPDEST CALLVALUE DUP1 ISZERO PUSH2 0x2A7 JUMPI PUSH0 DUP1 REVERT JUMPDEST POP PUSH2 0x2B0 PUSH2 0x1483 JUMP JUMPDEST PUSH1 0x40 MLOAD PUSH2 0x2BD SWAP2 SWAP1 PUSH2 0x25CE JUMP JUMPDEST PUSH1 0x40 MLOAD DUP1 SWAP2 SUB SWAP1 RETURN JUMPDEST PUSH1 0x60 DUP1 PUSH1 0x60 DUP1 PUSH0 DUP6 GT DUP1 ISZERO PUSH2 0x2DD JUMPI POP PUSH1 0x3 SLOAD DUP6 GT ISZERO JUMPDEST PUSH2 0x31C JUMPI PUSH1 0x40 MLOAD PUSH32 0x8C379A000000000000000000000000000000000000000000000000000000000 DUP2 MSTORE PUSH1 0x4 ADD PUSH2 0x313 SWAP1 PUSH2 0x29A8 JUMP JUMPDEST PUSH1 0x40 MLOAD DUP1 SWAP2 SUB SWAP1 REVERT JUMPDEST PUSH0 PUSH1 0x2 PUSH0 DUP8 DUP2 MSTORE PUSH1 0x20 ADD SWAP1 DUP2 MSTORE PUSH1 0x20 ADD PUSH0 KECCAK256 SWAP1 POP PUSH0 DUP2 DUP1 SLOAD SWAP1 POP SWAP1 POP DUP1 PUSH8 0xFFFFFFFFFFFFFFFF DUP2 GT ISZERO PUSH2 0x352 JUMPI PUSH2 0x351 PUSH2 0x25FF JUMP JUMPDEST JUMPDEST PUSH1 0x40 MLOAD SWAP1 DUP1 DUP3 MSTORE DUP1 PUSH1 0x20 MUL PUSH1 0x20 ADD DUP3 ADD PUSH1 0x40 MSTORE DUP1 ISZERO PUSH2 0x380 JUMPI DUP2 PUSH1 0x20 ADD PUSH1 0x20 DUP3 MUL DUP1 CALLDATASIZE DUP4 CALLDATACOPY DUP1 DUP3 ADD SWAP2 POP POP SWAP1 POP JUMPDEST POP SWAP6 POP DUP1 PUSH8 0xFFFFFFFFFFFFFFFF DUP2 GT ISZERO PUSH2 0x39D JUMPI PUSH2 0x39C PUSH2 0x25FF JUMP JUMPDEST JUMPDEST PUSH1 0x40 MLOAD SWAP1 DUP1 DUP3 MSTORE DUP1 PUSH1 0x20 MUL PUSH1 0x20 ADD DUP3 ADD PUSH1 0x40 MSTORE DUP1 ISZERO PUSH2 0x3CB JUMPI DUP2 PUSH1 0x20 ADD PUSH1 0x20 DUP3 MUL DUP1 CALLDATASIZE DUP4 CALLDATACOPY DUP1 DUP3 ADD SWAP2 POP POP SWAP1 POP JUMPDEST POP SWAP5 POP DUP1 PUSH8 0xFFFFFFFFFFFFFFFF DUP2 GT ISZERO PUSH2 0x3E8 JUMPI PUSH2 0x3E7 PUSH2 0x25FF JUMP JUMPDEST JUMPDEST PUSH1 0x40 MLOAD SWAP1 DUP1 DUP3 MSTORE DUP1 PUSH1 0x20 MUL PUSH1 0x20 ADD DUP3 ADD PUSH1 0x40 MSTORE DUP1 ISZERO PUSH2 0x416 JUMPI DUP2 PUSH1 0x20 ADD PUSH1 0x20 DUP3 MUL DUP1 CALLDATASIZE DUP4 CALLDATACOPY DUP1 DUP3 ADD SWAP2 POP POP SWAP1 POP JUMPDEST POP SWAP4 POP DUP1 PUSH8 0xFFFFFFFFFFFFFFFF DUP2 GT ISZERO PUSH2 0x433 JUMPI PUSH2 0x432 PUSH2 0x25FF JUMP JUMPDEST JUMPDEST PUSH1 0x40 MLOAD SWAP1 DUP1 DUP3 MSTORE DUP1 PUSH1 0x20 MUL PUSH1 0x20 ADD DUP3 ADD PUSH1 0x40 MSTORE DUP1 ISZERO PUSH2 0x461 JUMPI DUP2 PUSH1 0x20 ADD PUSH1 0x20 DUP3 MUL DUP1 CALLDATASIZE DUP4 CALLDATACOPY DUP1 DUP3 ADD SWAP2 POP POP SWAP1 POP JUMPDEST POP SWAP3 POP PUSH0 JUMPDEST DUP2 DUP2 LT ISZERO PUSH2 0x5E1 JUMPI DUP3 DUP2 DUP2 SLOAD DUP2 LT PUSH2 0x481 JUMPI PUSH2 0x480 PUSH2 0x29C6 JUMP JUMPDEST JUMPDEST SWAP1 PUSH0 MSTORE PUSH1 0x20 PUSH0 KECCAK256 SWAP1 PUSH1 0x4 MUL ADD PUSH0 ADD PUSH0 SWAP1 SLOAD SWAP1 PUSH2 0x100 EXP SWAP1 DIV PUSH20 0xFFFFFFFFFFFFFFFFFFFFFFFFFFFFFFFFFFFFFFFF AND DUP8 DUP3 DUP2 MLOAD DUP2 LT PUSH2 0x4C2 JUMPI PUSH2 0x4C1 PUSH2 0x29C6 JUMP JUMPDEST JUMPDEST PUSH1 0x20 MUL PUSH1 0x20 ADD ADD SWAP1 PUSH20 0xFFFFFFFFFFFFFFFFFFFFFFFFFFFFFFFFFFFFFFFF AND SWAP1 DUP2 PUSH20 0xFFFFFFFFFFFFFFFFFFFFFFFFFFFFFFFFFFFFFFFF AND DUP2 MSTORE POP POP DUP3 DUP2 DUP2 SLOAD DUP2 LT PUSH2 0x50F JUMPI PUSH2 0x50E PUSH2 0x29C6 JUMP JUMPDEST JUMPDEST SWAP1 PUSH0 MSTORE PUSH1 0x20 PUSH0 KECCAK256 SWAP1 PUSH1 0x4 MUL ADD PUSH1 0x1 ADD SLOAD DUP7 DUP3 DUP2 MLOAD DUP2 LT PUSH2 0x532 JUMPI PUSH2 0x531 PUSH2 0x29C6 JUMP JUMPDEST JUMPDEST PUSH1 0x20 MUL PUSH1 0x20 ADD ADD DUP2 DUP2 MSTORE POP POP DUP3 DUP2 DUP2 SLOAD DUP2 LT PUSH2 0x551 JUMPI PUSH2 0x550 PUSH2 0x29C6 JUMP JUMPDEST JUMPDEST SWAP1 PUSH0 MSTORE PUSH1 0x20 PUSH0 KECCAK256 SWAP1 PUSH1 0x4 MUL ADD PUSH1 0x2 ADD SLOAD DUP6 DUP3 DUP2 MLOAD DUP2 LT PUSH2 0x574 JUMPI PUSH2 0x573 PUSH2 0x29C6 JUMP JUMPDEST JUMPDEST PUSH1 0x20 MUL PUSH1 0x20 ADD ADD DUP2 DUP2 MSTORE POP POP DUP3 DUP2 DUP2 SLOAD DUP2 LT PUSH2 0x593 JUMPI PUSH2 0x592 PUSH2 0x29C6 JUMP JUMPDEST JUMPDEST SWAP1 PUSH0 MSTORE PUSH1 0x20 PUSH0 KECCAK256 SWAP1 PUSH1 0x4 MUL ADD PUSH1 0x3 ADD PUSH0 SWAP1 SLOAD SWAP1 PUSH2 0x100 EXP SWAP1 DIV PUSH1 0xFF AND DUP5 DUP3 DUP2 MLOAD DUP2 LT PUSH2 0x5C2 JUMPI PUSH2 0x5C1 PUSH2 0x29C6 JUMP JUMPDEST JUMPDEST PUSH1 0x20 MUL PUSH1 0x20 ADD ADD SWAP1 ISZERO ISZERO SWAP1 DUP2 ISZERO ISZERO DUP2 MSTORE POP POP DUP1 DUP1 PUSH1 0x1 ADD SWAP2 POP POP PUSH2 0x466 JUMP JUMPDEST POP POP POP SWAP2 SWAP4 POP SWAP2 SWAP4 JUMP JUMPDEST PUSH2 0x5F3 PUSH2 0x1489 JUMP JUMPDEST PUSH0 PUSH1 0x1 PUSH0 DUP4 DUP2 MSTORE PUSH1 0x20 ADD SWAP1 DUP2 MSTORE PUSH1 0x20 ADD PUSH0 KECCAK256 SWAP1 POP DUP1 PUSH0 ADD PUSH0 SWAP1 SLOAD SWAP1 PUSH2 0x100 EXP SWAP1 DIV PUSH20 0xFFFFFFFFFFFFFFFFFFFFFFFFFFFFFFFFFFFFFFFF AND PUSH20 0xFFFFFFFFFFFFFFFFFFFFFFFFFFFFFFFFFFFFFFFF AND CALLER PUSH20 0xFFFFFFFFFFFFFFFFFFFFFFFFFFFFFFFFFFFFFFFF AND EQ PUSH2 0x697 JUMPI PUSH1 0x40 MLOAD PUSH32 0x8C379A000000000000000000000000000000000000000000000000000000000 DUP2 MSTORE PUSH1 0x4 ADD PUSH2 0x68E SWAP1 PUSH2 0x2A3D JUMP JUMPDEST PUSH1 0x40 MLOAD DUP1 SWAP2 SUB SWAP1 REVERT JUMPDEST DUP1 PUSH1 0x5 ADD PUSH0 SWAP1 SLOAD SWAP1 PUSH2 0x100 EXP SWAP1 DIV PUSH1 0xFF AND ISZERO PUSH2 0x6E8 JUMPI PUSH1 0x40 MLOAD PUSH32 0x8C379A000000000000000000000000000000000000000000000000000000000 DUP2 MSTORE PUSH1 0x4 ADD PUSH2 0x6DF SWAP1 PUSH2 0x2AA5 JUMP JUMPDEST PUSH1 0x40 MLOAD DUP1 SWAP2 SUB SWAP1 REVERT JUMPDEST PUSH1 0x1 DUP2 PUSH1 0x5 ADD PUSH0 PUSH2 0x100 EXP DUP2 SLOAD DUP2 PUSH1 0xFF MUL NOT AND SWAP1 DUP4 ISZERO ISZERO MUL OR SWAP1 SSTORE POP PUSH0 PUSH1 0x2 PUSH0 DUP5 DUP2 MSTORE PUSH1 0x20 ADD SWAP1 DUP2 MSTORE PUSH1 0x20 ADD PUSH0 KECCAK256 DUP1 SLOAD SWAP1 POP GT ISZERO PUSH2 0x72E JUMPI PUSH2 0x729 DUP3 PUSH2 0x14D6 JUMP JUMPDEST PUSH2 0x769 JUMP JUMPDEST DUP2 PUSH32 0x4D7A5E450395FB8FB6B67C4751F80F057CD5A74550929306EFF2CAC7F0ECC188 PUSH0 TIMESTAMP PUSH1 0x40 MLOAD PUSH2 0x760 SWAP3 SWAP2 SWAP1 PUSH2 0x2AC3 JUMP JUMPDEST PUSH1 0x40 MLOAD DUP1 SWAP2 SUB SWAP1 LOG2 JUMPDEST POP PUSH2 0x772 PUSH2 0x1D4D JUMP JUMPDEST POP JUMP JUMPDEST PUSH0 PUSH1 0x3 SLOAD SWAP1 POP SWAP1 JUMP JUMPDEST PUSH0 DUP5 GT PUSH2 0x7C0 JUMPI PUSH1 0x40 MLOAD PUSH32 0x8C379A000000000000000000000000000000000000000000000000000000000 DUP2 MSTORE PUSH1 0x4 ADD PUSH2 0x7B7 SWAP1 PUSH2 0x2B34 JUMP JUMPDEST PUSH1 0x40 MLOAD DUP1 SWAP2 SUB SWAP1 REVERT JUMPDEST PUSH0 DUP4 GT PUSH2 0x802 JUMPI PUSH1 0x40 MLOAD PUSH32 0x8C379A000000000000000000000000000000000000000000000000000000000 DUP2 MSTORE PUSH1 0x4 ADD PUSH2 0x7F9 SWAP1 PUSH2 0x2B9C JUMP JUMPDEST PUSH1 0x40 MLOAD DUP1 SWAP2 SUB SWAP1 REVERT JUMPDEST PUSH0 DUP3 GT PUSH2 0x844 JUMPI PUSH1 0x40 MLOAD PUSH32 0x8C379A000000000000000000000000000000000000000000000000000000000 DUP2 MSTORE PUSH1 0x4 ADD PUSH2 0x83B SWAP1 PUSH2 0x2C04 JUMP JUMPDEST PUSH1 0x40 MLOAD DUP1 SWAP2 SUB SWAP1 REVERT JUMPDEST PUSH0 DUP6 MLOAD GT PUSH2 0x887 JUMPI PUSH1 0x40 MLOAD PUSH32 0x8C379A000000000000000000000000000000000000000000000000000000000 DUP2 MSTORE PUSH1 0x4 ADD PUSH2 0x87E SWAP1 PUSH2 0x2C6C JUMP JUMPDEST PUSH1 0x40 MLOAD DUP1 SWAP2 SUB SWAP1 REVERT JUMPDEST PUSH1 0x3 PUSH0 DUP2 SLOAD DUP1 SWAP3 SWAP2 SWAP1 PUSH2 0x899 SWAP1 PUSH2 0x2CB7 JUMP JUMPDEST SWAP2 SWAP1 POP SSTORE POP PUSH0 PUSH1 0x1 PUSH0 PUSH1 0x3 SLOAD DUP2 MSTORE PUSH1 0x20 ADD SWAP1 DUP2 MSTORE PUSH1 0x20 ADD PUSH0 KECCAK256 SWAP1 POP CALLER DUP2 PUSH0 ADD PUSH0 PUSH2 0x100 EXP DUP2 SLOAD DUP2 PUSH20 0xFFFFFFFFFFFFFFFFFFFFFFFFFFFFFFFFFFFFFFFF MUL NOT AND SWAP1 DUP4 PUSH20 0xFFFFFFFFFFFFFFFFFFFFFFFFFFFFFFFFFFFFFFFF AND MUL OR SWAP1 SSTORE POP DUP6 DUP2 PUSH1 0x1 ADD SWAP1 DUP2 PUSH2 0x906 SWAP2 SWAP1 PUSH2 0x2EF8 JUMP JUMPDEST POP DUP5 DUP2 PUSH1 0x2 ADD DUP2 SWAP1 SSTORE POP DUP5 DUP2 PUSH1 0x3 ADD DUP2 SWAP1 SSTORE POP DUP3 DUP2 PUSH1 0x4 ADD DUP2 SWAP1 SSTORE POP PUSH0 DUP2 PUSH1 0x5 ADD PUSH0 PUSH2 0x100 EXP DUP2 SLOAD DUP2 PUSH1 0xFF MUL NOT AND SWAP1 DUP4 ISZERO ISZERO MUL OR SWAP1 SSTORE POP DUP2 TIMESTAMP PUSH2 0x949 SWAP2 SWAP1 PUSH2 0x2FC7 JUMP JUMPDEST DUP2 PUSH1 0x6 ADD DUP2 SWAP1 SSTORE POP DUP1 PUSH1 0x7 ADD CALLER SWAP1 DUP1 PUSH1 0x1 DUP2 SLOAD ADD DUP1 DUP3 SSTORE DUP1 SWAP2 POP POP PUSH1 0x1 SWAP1 SUB SWAP1 PUSH0 MSTORE PUSH1 0x20 PUSH0 KECCAK256 ADD PUSH0 SWAP1 SWAP2 SWAP1 SWAP2 SWAP1 SWAP2 PUSH2 0x100 EXP DUP2 SLOAD DUP2 PUSH20 0xFFFFFFFFFFFFFFFFFFFFFFFFFFFFFFFFFFFFFFFF MUL NOT AND SWAP1 DUP4 PUSH20 0xFFFFFFFFFFFFFFFFFFFFFFFFFFFFFFFFFFFFFFFF AND MUL OR SWAP1 SSTORE POP PUSH1 0x40 MLOAD DUP1 PUSH1 0x60 ADD PUSH1 0x40 MSTORE DUP1 CALLER PUSH20 0xFFFFFFFFFFFFFFFFFFFFFFFFFFFFFFFFFFFFFFFF AND DUP2 MSTORE PUSH1 0x20 ADD DUP7 DUP2 MSTORE PUSH1 0x20 ADD PUSH1 0x1 ISZERO ISZERO DUP2 MSTORE POP DUP2 PUSH1 0x8 ADD PUSH0 CALLER PUSH20 0xFFFFFFFFFFFFFFFFFFFFFFFFFFFFFFFFFFFFFFFF AND PUSH20 0xFFFFFFFFFFFFFFFFFFFFFFFFFFFFFFFFFFFFFFFF AND DUP2 MSTORE PUSH1 0x20 ADD SWAP1 DUP2 MSTORE PUSH1 0x20 ADD PUSH0 KECCAK256 PUSH0 DUP3 ADD MLOAD DUP2 PUSH0 ADD PUSH0 PUSH2 0x100 EXP DUP2 SLOAD DUP2 PUSH20 0xFFFFFFFFFFFFFFFFFFFFFFFFFFFFFFFFFFFFFFFF MUL NOT AND SWAP1 DUP4 PUSH20 0xFFFFFFFFFFFFFFFFFFFFFFFFFFFFFFFFFFFFFFFF AND MUL OR SWAP1 SSTORE POP PUSH1 0x20 DUP3 ADD MLOAD DUP2 PUSH1 0x1 ADD SSTORE PUSH1 0x40 DUP3 ADD MLOAD DUP2 PUSH1 0x2 ADD PUSH0 PUSH2 0x100 EXP DUP2 SLOAD DUP2 PUSH1 0xFF MUL NOT AND SWAP1 DUP4 ISZERO ISZERO MUL OR SWAP1 SSTORE POP SWAP1 POP POP CALLER PUSH20 0xFFFFFFFFFFFFFFFFFFFFFFFFFFFFFFFFFFFFFFFF AND PUSH1 0x3 SLOAD PUSH32 0x1B72BEABFA8420E9B47A1C3D6764A97E2044C51B3368B66B161A5FC8CEEBCCF DUP9 DUP9 DUP8 PUSH1 0x40 MLOAD PUSH2 0xAE3 SWAP4 SWAP3 SWAP2 SWAP1 PUSH2 0x2FFA JUMP JUMPDEST PUSH1 0x40 MLOAD DUP1 SWAP2 SUB SWAP1 LOG3 CALLER PUSH20 0xFFFFFFFFFFFFFFFFFFFFFFFFFFFFFFFFFFFFFFFF AND PUSH1 0x3 SLOAD PUSH32 0x25AF9E0275ABBB4DE910D2062F5DCCA6D4C47F1313066083DD9D7077608A7A54 DUP8 PUSH1 0x40 MLOAD PUSH2 0xB34 SWAP2 SWAP1 PUSH2 0x25CE JUMP JUMPDEST PUSH1 0x40 MLOAD DUP1 SWAP2 SUB SWAP1 LOG3 PUSH32 0xDBAD7356874FB84060A1E809F3B9F73D977DA5F6E62D52682C065D51D15435C6 PUSH1 0x3 SLOAD PUSH1 0x40 MLOAD PUSH2 0xB6D SWAP2 SWAP1 PUSH2 0x25CE JUMP JUMPDEST PUSH1 0x40 MLOAD DUP1 SWAP2 SUB SWAP1 LOG1 POP POP POP POP POP POP JUMP JUMPDEST PUSH2 0xB85 PUSH2 0x1489 JUMP JUMPDEST PUSH0 PUSH1 0x1 PUSH0 DUP5 DUP2 MSTORE PUSH1 0x20 ADD SWAP1 DUP2 MSTORE PUSH1 0x20 ADD PUSH0 KECCAK256 SWAP1 POP DUP1 PUSH1 0x5 ADD PUSH0 SWAP1 SLOAD SWAP1 PUSH2 0x100 EXP SWAP1 DIV PUSH1 0xFF AND ISZERO PUSH2 0xBEA JUMPI PUSH1 0x40 MLOAD PUSH32 0x8C379A000000000000000000000000000000000000000000000000000000000 DUP2 MSTORE PUSH1 0x4 ADD PUSH2 0xBE1 SWAP1 PUSH2 0x3080 JUMP JUMPDEST PUSH1 0x40 MLOAD DUP1 SWAP2 SUB SWAP1 REVERT JUMPDEST DUP1 PUSH1 0x6 ADD SLOAD TIMESTAMP LT PUSH2 0xC30 JUMPI PUSH1 0x40 MLOAD PUSH32 0x8C379A000000000000000000000000000000000000000000000000000000000 DUP2 MSTORE PUSH1 0x4 ADD PUSH2 0xC27 SWAP1 PUSH2 0x30E8 JUMP JUMPDEST PUSH1 0x40 MLOAD DUP1 SWAP2 SUB SWAP1 REVERT JUMPDEST PUSH0 DUP3 GT PUSH2 0xC72 JUMPI PUSH1 0x40 MLOAD PUSH32 0x8C379A000000000000000000000000000000000000000000000000000000000 DUP2 MSTORE PUSH1 0x4 ADD PUSH2 0xC69 SWAP1 PUSH2 0x3150 JUMP JUMPDEST PUSH1 0x40 MLOAD DUP1 SWAP2 SUB SWAP1 REVERT JUMPDEST PUSH1 0x2 PUSH0 DUP5 DUP2 MSTORE PUSH1 0x20 ADD SWAP1 DUP2 MSTORE PUSH1 0x20 ADD PUSH0 KECCAK256 PUSH1 0x40 MLOAD DUP1 PUSH1 0x80 ADD PUSH1 0x40 MSTORE DUP1 CALLER PUSH20 0xFFFFFFFFFFFFFFFFFFFFFFFFFFFFFFFFFFFFFFFF AND DUP2 MSTORE PUSH1 0x20 ADD DUP5 DUP2 MSTORE PUSH1 0x20 ADD PUSH2 0xCC3 DUP6 CALLVALUE PUSH2 0x1D56 SWAP1 SWAP2 SWAP1 PUSH4 0xFFFFFFFF AND JUMP JUMPDEST DUP2 MSTORE PUSH1 0x20 ADD PUSH0 ISZERO ISZERO DUP2 MSTORE POP SWAP1 DUP1 PUSH1 0x1 DUP2 SLOAD ADD DUP1 DUP3 SSTORE DUP1 SWAP2 POP POP PUSH1 0x1 SWAP1 SUB SWAP1 PUSH0 MSTORE PUSH1 0x20 PUSH0 KECCAK256 SWAP1 PUSH1 0x4 MUL ADD PUSH0 SWAP1 SWAP2 SWAP1 SWAP2 SWAP1 SWAP2 POP PUSH0 DUP3 ADD MLOAD DUP2 PUSH0 ADD PUSH0 PUSH2 0x100 EXP DUP2 SLOAD DUP2 PUSH20 0xFFFFFFFFFFFFFFFFFFFFFFFFFFFFFFFFFFFFFFFF MUL NOT AND SWAP1 DUP4 PUSH20 0xFFFFFFFFFFFFFFFFFFFFFFFFFFFFFFFFFFFFFFFF AND MUL OR SWAP1 SSTORE POP PUSH1 0x20 DUP3 ADD MLOAD DUP2 PUSH1 0x1 ADD SSTORE PUSH1 0x40 DUP3 ADD MLOAD DUP2 PUSH1 0x2 ADD SSTORE PUSH1 0x60 DUP3 ADD MLOAD DUP2 PUSH1 0x3 ADD PUSH0 PUSH2 0x100 EXP DUP2 SLOAD DUP2 PUSH1 0xFF MUL NOT AND SWAP1 DUP4 ISZERO ISZERO MUL OR SWAP1 SSTORE POP POP POP CALLER PUSH20 0xFFFFFFFFFFFFFFFFFFFFFFFFFFFFFFFFFFFFFFFF AND DUP4 PUSH32 0x51DB8E23B3F4479B162FD48823B8402895442B8F6CFD94F66239391881EC7B6F DUP5 PUSH2 0xDBA DUP7 CALLVALUE PUSH2 0x1D56 SWAP1 SWAP2 SWAP1 PUSH4 0xFFFFFFFF AND JUMP JUMPDEST PUSH1 0x40 MLOAD PUSH2 0xDC8 SWAP3 SWAP2 SWAP1 PUSH2 0x316E JUMP JUMPDEST PUSH1 0x40 MLOAD DUP1 SWAP2 SUB SWAP1 LOG3 POP PUSH2 0xDD9 PUSH2 0x1D4D JUMP JUMPDEST POP POP JUMP JUMPDEST PUSH1 0x60 DUP1 PUSH0 DUP4 GT DUP1 ISZERO PUSH2 0xDF1 JUMPI POP PUSH1 0x3 SLOAD DUP4 GT ISZERO JUMPDEST PUSH2 0xE30 JUMPI PUSH1 0x40 MLOAD PUSH32 0x8C379A000000000000000000000000000000000000000000000000000000000 DUP2 MSTORE PUSH1 0x4 ADD PUSH2 0xE27 SWAP1 PUSH2 0x29A8 JUMP JUMPDEST PUSH1 0x40 MLOAD DUP1 SWAP2 SUB SWAP1 REVERT JUMPDEST PUSH0 PUSH1 0x1 PUSH0 DUP6 DUP2 MSTORE PUSH1 0x20 ADD SWAP1 DUP2 MSTORE PUSH1 0x20 ADD PUSH0 KECCAK256 SWAP1 POP PUSH0 DUP2 PUSH1 0x7 ADD DUP1 SLOAD SWAP1 POP SWAP1 POP DUP1 PUSH8 0xFFFFFFFFFFFFFFFF DUP2 GT ISZERO PUSH2 0xE69 JUMPI PUSH2 0xE68 PUSH2 0x25FF JUMP JUMPDEST JUMPDEST PUSH1 0x40 MLOAD SWAP1 DUP1 DUP3 MSTORE DUP1 PUSH1 0x20 MUL PUSH1 0x20 ADD DUP3 ADD PUSH1 0x40 MSTORE DUP1 ISZERO PUSH2 0xE97 JUMPI DUP2 PUSH1 0x20 ADD PUSH1 0x20 DUP3 MUL DUP1 CALLDATASIZE DUP4 CALLDATACOPY DUP1 DUP3 ADD SWAP2 POP POP SWAP1 POP JUMPDEST POP SWAP4 POP DUP1 PUSH8 0xFFFFFFFFFFFFFFFF DUP2 GT ISZERO PUSH2 0xEB4 JUMPI PUSH2 0xEB3 PUSH2 0x25FF JUMP JUMPDEST JUMPDEST PUSH1 0x40 MLOAD SWAP1 DUP1 DUP3 MSTORE DUP1 PUSH1 0x20 MUL PUSH1 0x20 ADD DUP3 ADD PUSH1 0x40 MSTORE DUP1 ISZERO PUSH2 0xEE2 JUMPI DUP2 PUSH1 0x20 ADD PUSH1 0x20 DUP3 MUL DUP1 CALLDATASIZE DUP4 CALLDATACOPY DUP1 DUP3 ADD SWAP2 POP POP SWAP1 POP JUMPDEST POP SWAP3 POP PUSH0 JUMPDEST DUP2 DUP2 LT ISZERO PUSH2 0xFEE JUMPI PUSH0 DUP4 PUSH1 0x7 ADD DUP3 DUP2 SLOAD DUP2 LT PUSH2 0xF06 JUMPI PUSH2 0xF05 PUSH2 0x29C6 JUMP JUMPDEST JUMPDEST SWAP1 PUSH0 MSTORE PUSH1 0x20 PUSH0 KECCAK256 ADD PUSH0 SWAP1 SLOAD SWAP1 PUSH2 0x100 EXP SWAP1 DIV PUSH20 0xFFFFFFFFFFFFFFFFFFFFFFFFFFFFFFFFFFFFFFFF AND SWAP1 POP DUP1 DUP7 DUP4 DUP2 MLOAD DUP2 LT PUSH2 0xF44 JUMPI PUSH2 0xF43 PUSH2 0x29C6 JUMP JUMPDEST JUMPDEST PUSH1 0x20 MUL PUSH1 0x20 ADD ADD SWAP1 PUSH20 0xFFFFFFFFFFFFFFFFFFFFFFFFFFFFFFFFFFFFFFFF AND SWAP1 DUP2 PUSH20 0xFFFFFFFFFFFFFFFFFFFFFFFFFFFFFFFFFFFFFFFF AND DUP2 MSTORE POP POP DUP4 PUSH1 0x8 ADD PUSH0 DUP3 PUSH20 0xFFFFFFFFFFFFFFFFFFFFFFFFFFFFFFFFFFFFFFFF AND PUSH20 0xFFFFFFFFFFFFFFFFFFFFFFFFFFFFFFFFFFFFFFFF AND DUP2 MSTORE PUSH1 0x20 ADD SWAP1 DUP2 MSTORE PUSH1 0x20 ADD PUSH0 KECCAK256 PUSH1 0x1 ADD SLOAD DUP6 DUP4 DUP2 MLOAD DUP2 LT PUSH2 0xFD4 JUMPI PUSH2 0xFD3 PUSH2 0x29C6 JUMP JUMPDEST JUMPDEST PUSH1 0x20 MUL PUSH1 0x20 ADD ADD DUP2 DUP2 MSTORE POP POP POP DUP1 DUP1 PUSH1 0x1 ADD SWAP2 POP POP PUSH2 0xEE7 JUMP JUMPDEST POP POP POP SWAP2 POP SWAP2 JUMP JUMPDEST PUSH1 0x2 PUSH1 0x20 MSTORE DUP2 PUSH0 MSTORE PUSH1 0x40 PUSH0 KECCAK256 DUP2 DUP2 SLOAD DUP2 LT PUSH2 0x100F JUMPI PUSH0 DUP1 REVERT JUMPDEST SWAP1 PUSH0 MSTORE PUSH1 0x20 PUSH0 KECCAK256 SWAP1 PUSH1 0x4 MUL ADD PUSH0 SWAP2 POP SWAP2 POP POP DUP1 PUSH0 ADD PUSH0 SWAP1 SLOAD SWAP1 PUSH2 0x100 EXP SWAP1 DIV PUSH20 0xFFFFFFFFFFFFFFFFFFFFFFFFFFFFFFFFFFFFFFFF AND SWAP1 DUP1 PUSH1 0x1 ADD SLOAD SWAP1 DUP1 PUSH1 0x2 ADD SLOAD SWAP1 DUP1 PUSH1 0x3 ADD PUSH0 SWAP1 SLOAD SWAP1 PUSH2 0x100 EXP SWAP1 DIV PUSH1 0xFF AND SWAP1 POP DUP5 JUMP JUMPDEST PUSH0 PUSH1 0x60 PUSH0 DUP1 PUSH0 DUP1 PUSH0 DUP1 DUP9 GT DUP1 ISZERO PUSH2 0x1080 JUMPI POP PUSH1 0x3 SLOAD DUP9 GT ISZERO JUMPDEST PUSH2 0x10BF JUMPI PUSH1 0x40 MLOAD PUSH32 0x8C379A000000000000000000000000000000000000000000000000000000000 DUP2 MSTORE PUSH1 0x4 ADD PUSH2 0x10B6 SWAP1 PUSH2 0x29A8 JUMP JUMPDEST PUSH1 0x40 MLOAD DUP1 SWAP2 SUB SWAP1 REVERT JUMPDEST PUSH0 PUSH1 0x1 PUSH0 DUP11 DUP2 MSTORE PUSH1 0x20 ADD SWAP1 DUP2 MSTORE PUSH1 0x20 ADD PUSH0 KECCAK256 SWAP1 POP DUP1 PUSH0 ADD PUSH0 SWAP1 SLOAD SWAP1 PUSH2 0x100 EXP SWAP1 DIV PUSH20 0xFFFFFFFFFFFFFFFFFFFFFFFFFFFFFFFFFFFFFFFF AND DUP2 PUSH1 0x1 ADD DUP3 PUSH1 0x2 ADD SLOAD DUP4 PUSH1 0x3 ADD SLOAD DUP5 PUSH1 0x4 ADD SLOAD DUP6 PUSH1 0x5 ADD PUSH0 SWAP1 SLOAD SWAP1 PUSH2 0x100 EXP SWAP1 DIV PUSH1 0xFF AND DUP7 PUSH1 0x6 ADD SLOAD DUP6 DUP1 SLOAD PUSH2 0x112B SWAP1 PUSH2 0x2D2B JUMP JUMPDEST DUP1 PUSH1 0x1F ADD PUSH1 0x20 DUP1 SWAP2 DIV MUL PUSH1 0x20 ADD PUSH1 0x40 MLOAD SWAP1 DUP2 ADD PUSH1 0x40 MSTORE DUP1 SWAP3 SWAP2 SWAP1 DUP2 DUP2 MSTORE PUSH1 0x20 ADD DUP3 DUP1 SLOAD PUSH2 0x1157 SWAP1 PUSH2 0x2D2B JUMP JUMPDEST DUP1 ISZERO PUSH2 0x11A2 JUMPI DUP1 PUSH1 0x1F LT PUSH2 0x1179 JUMPI PUSH2 0x100 DUP1 DUP4 SLOAD DIV MUL DUP4 MSTORE SWAP2 PUSH1 0x20 ADD SWAP2 PUSH2 0x11A2 JUMP JUMPDEST DUP3 ADD SWAP2 SWAP1 PUSH0 MSTORE PUSH1 0x20 PUSH0 KECCAK256 SWAP1 JUMPDEST DUP2 SLOAD DUP2 MSTORE SWAP1 PUSH1 0x1 ADD SWAP1 PUSH1 0x20 ADD DUP1 DUP4 GT PUSH2 0x1185 JUMPI DUP3 SWAP1 SUB PUSH1 0x1F AND DUP3 ADD SWAP2 JUMPDEST POP POP POP POP POP SWAP6 POP SWAP8 POP SWAP8 POP SWAP8 POP SWAP8 POP SWAP8 POP SWAP8 POP SWAP8 POP POP SWAP2 SWAP4 SWAP6 SWAP8 SWAP1 SWAP3 SWAP5 SWAP7 POP JUMP JUMPDEST PUSH2 0x11CB PUSH2 0x1489 JUMP JUMPDEST PUSH0 PUSH1 0x1 PUSH0 DUP4 DUP2 MSTORE PUSH1 0x20 ADD SWAP1 DUP2 MSTORE PUSH1 0x20 ADD PUSH0 KECCAK256 SWAP1 POP DUP1 PUSH0 ADD PUSH0 SWAP1 SLOAD SWAP1 PUSH2 0x100 EXP SWAP1 DIV PUSH20 0xFFFFFFFFFFFFFFFFFFFFFFFFFFFFFFFFFFFFFFFF AND PUSH20 0xFFFFFFFFFFFFFFFFFFFFFFFFFFFFFFFFFFFFFFFF AND CALLER PUSH20 0xFFFFFFFFFFFFFFFFFFFFFFFFFFFFFFFFFFFFFFFF AND EQ PUSH2 0x126F JUMPI PUSH1 0x40 MLOAD PUSH32 0x8C379A000000000000000000000000000000000000000000000000000000000 DUP2 MSTORE PUSH1 0x4 ADD PUSH2 0x1266 SWAP1 PUSH2 0x2A3D JUMP JUMPDEST PUSH1 0x40 MLOAD DUP1 SWAP2 SUB SWAP1 REVERT JUMPDEST DUP1 PUSH1 0x5 ADD PUSH0 SWAP1 SLOAD SWAP1 PUSH2 0x100 EXP SWAP1 DIV PUSH1 0xFF AND ISZERO PUSH2 0x12C0 JUMPI PUSH1 0x40 MLOAD PUSH32 0x8C379A000000000000000000000000000000000000000000000000000000000 DUP2 MSTORE PUSH1 0x4 ADD PUSH2 0x12B7 SWAP1 PUSH2 0x2AA5 JUMP JUMPDEST PUSH1 0x40 MLOAD DUP1 SWAP2 SUB SWAP1 REVERT JUMPDEST DUP1 PUSH1 0x6 ADD SLOAD TIMESTAMP LT ISZERO PUSH2 0x1307 JUMPI PUSH1 0x40 MLOAD PUSH32 0x8C379A000000000000000000000000000000000000000000000000000000000 DUP2 MSTORE PUSH1 0x4 ADD PUSH2 0x12FE SWAP1 PUSH2 0x31DF JUMP JUMPDEST PUSH1 0x40 MLOAD DUP1 SWAP2 SUB SWAP1 REVERT JUMPDEST PUSH1 0x1 DUP2 PUSH1 0x5 ADD PUSH0 PUSH2 0x100 EXP DUP2 SLOAD DUP2 PUSH1 0xFF MUL NOT AND SWAP1 DUP4 ISZERO ISZERO MUL OR SWAP1 SSTORE POP PUSH0 PUSH1 0x2 PUSH0 DUP5 DUP2 MSTORE PUSH1 0x20 ADD SWAP1 DUP2 MSTORE PUSH1 0x20 ADD PUSH0 KECCAK256 DUP1 SLOAD SWAP1 POP GT ISZERO PUSH2 0x134D JUMPI PUSH2 0x1348 DUP3 PUSH2 0x14D6 JUMP JUMPDEST PUSH2 0x1388 JUMP JUMPDEST DUP2 PUSH32 0x4D7A5E450395FB8FB6B67C4751F80F057CD5A74550929306EFF2CAC7F0ECC188 PUSH0 TIMESTAMP PUSH1 0x40 MLOAD PUSH2 0x137F SWAP3 SWAP2 SWAP1 PUSH2 0x2AC3 JUMP JUMPDEST PUSH1 0x40 MLOAD DUP1 SWAP2 SUB SWAP1 LOG2 JUMPDEST POP PUSH2 0x1391 PUSH2 0x1D4D JUMP JUMPDEST POP JUMP JUMPDEST PUSH1 0x1 PUSH1 0x20 MSTORE DUP1 PUSH0 MSTORE PUSH1 0x40 PUSH0 KECCAK256 PUSH0 SWAP2 POP SWAP1 POP DUP1 PUSH0 ADD PUSH0 SWAP1 SLOAD SWAP1 PUSH2 0x100 EXP SWAP1 DIV PUSH20 0xFFFFFFFFFFFFFFFFFFFFFFFFFFFFFFFFFFFFFFFF AND SWAP1 DUP1 PUSH1 0x1 ADD DUP1 SLOAD PUSH2 0x13D8 SWAP1 PUSH2 0x2D2B JUMP JUMPDEST DUP1 PUSH1 0x1F ADD PUSH1 0x20 DUP1 SWAP2 DIV MUL PUSH1 0x20 ADD PUSH1 0x40 MLOAD SWAP1 DUP2 ADD PUSH1 0x40 MSTORE DUP1 SWAP3 SWAP2 SWAP1 DUP2 DUP2 MSTORE PUSH1 0x20 ADD DUP3 DUP1 SLOAD PUSH2 0x1404 SWAP1 PUSH2 0x2D2B JUMP JUMPDEST DUP1 ISZERO PUSH2 0x144F JUMPI DUP1 PUSH1 0x1F LT PUSH2 0x1426 JUMPI PUSH2 0x100 DUP1 DUP4 SLOAD DIV MUL DUP4 MSTORE SWAP2 PUSH1 0x20 ADD SWAP2 PUSH2 0x144F JUMP JUMPDEST DUP3 ADD SWAP2 SWAP1 PUSH0 MSTORE PUSH1 0x20 PUSH0 KECCAK256 SWAP1 JUMPDEST DUP2 SLOAD DUP2 MSTORE SWAP1 PUSH1 0x1 ADD SWAP1 PUSH1 0x20 ADD DUP1 DUP4 GT PUSH2 0x1432 JUMPI DUP3 SWAP1 SUB PUSH1 0x1F AND DUP3 ADD SWAP2 JUMPDEST POP POP POP POP POP SWAP1 DUP1 PUSH1 0x2 ADD SLOAD SWAP1 DUP1 PUSH1 0x3 ADD SLOAD SWAP1 DUP1 PUSH1 0x4 ADD SLOAD SWAP1 DUP1 PUSH1 0x5 ADD PUSH0 SWAP1 SLOAD SWAP1 PUSH2 0x100 EXP SWAP1 DIV PUSH1 0xFF AND SWAP1 DUP1 PUSH1 0x6 ADD SLOAD SWAP1 POP DUP8 JUMP JUMPDEST PUSH1 0x3 SLOAD DUP2 JUMP JUMPDEST PUSH1 0x2 PUSH0 SLOAD SUB PUSH2 0x14CD JUMPI PUSH1 0x40 MLOAD PUSH32 0x8C379A000000000000000000000000000000000000000000000000000000000 DUP2 MSTORE PUSH1 0x4 ADD PUSH2 0x14C4 SWAP1 PUSH2 0x3247 JUMP JUMPDEST PUSH1 0x40 MLOAD DUP1 SWAP2 SUB SWAP1 REVERT JUMPDEST PUSH1 0x2 PUSH0 DUP2 SWAP1 SSTORE POP JUMP JUMPDEST PUSH0 PUSH1 0x1 PUSH0 DUP4 DUP2 MSTORE PUSH1 0x20 ADD SWAP1 DUP2 MSTORE PUSH1 0x20 ADD PUSH0 KECCAK256 SWAP1 POP PUSH2 0x14F3 DUP3 PUSH2 0x1D6B JUMP JUMPDEST PUSH0 PUSH1 0x2 PUSH0 DUP5 DUP2 MSTORE PUSH1 0x20 ADD SWAP1 DUP2 MSTORE PUSH1 0x20 ADD PUSH0 KECCAK256 SWAP1 POP PUSH0 DUP1 DUP4 PUSH1 0x3 ADD SLOAD SWAP1 POP PUSH0 JUMPDEST DUP4 DUP1 SLOAD SWAP1 POP DUP2 LT DUP1 ISZERO PUSH2 0x1524 JUMPI POP PUSH0 DUP3 GT JUMPDEST ISZERO PUSH2 0x15D8 JUMPI PUSH0 DUP5 DUP3 DUP2 SLOAD DUP2 LT PUSH2 0x153D JUMPI PUSH2 0x153C PUSH2 0x29C6 JUMP JUMPDEST JUMPDEST SWAP1 PUSH0 MSTORE PUSH1 0x20 PUSH0 KECCAK256 SWAP1 PUSH1 0x4 MUL ADD SWAP1 POP DUP1 PUSH1 0x3 ADD PUSH0 SWAP1 SLOAD SWAP1 PUSH2 0x100 EXP SWAP1 DIV PUSH1 0xFF AND ISZERO PUSH2 0x1567 JUMPI POP PUSH2 0x15C5 JUMP JUMPDEST PUSH0 DUP4 DUP3 PUSH1 0x1 ADD SLOAD GT ISZERO PUSH2 0x157A JUMPI DUP4 PUSH2 0x1580 JUMP JUMPDEST DUP2 PUSH1 0x1 ADD SLOAD JUMPDEST SWAP1 POP PUSH2 0x15AB PUSH2 0x159C DUP4 PUSH1 0x2 ADD SLOAD DUP4 PUSH2 0x2044 SWAP1 SWAP2 SWAP1 PUSH4 0xFFFFFFFF AND JUMP JUMPDEST DUP7 PUSH2 0x2059 SWAP1 SWAP2 SWAP1 PUSH4 0xFFFFFFFF AND JUMP JUMPDEST SWAP5 POP PUSH2 0x15C0 DUP2 DUP6 PUSH2 0x206E SWAP1 SWAP2 SWAP1 PUSH4 0xFFFFFFFF AND JUMP JUMPDEST SWAP4 POP POP POP JUMPDEST DUP1 DUP1 PUSH2 0x15D0 SWAP1 PUSH2 0x2CB7 JUMP JUMPDEST SWAP2 POP POP PUSH2 0x1512 JUMP JUMPDEST POP PUSH0 DUP5 PUSH1 0x4 ADD SLOAD DUP4 LT ISZERO SWAP1 POP DUP1 ISZERO PUSH2 0x1D01 JUMPI DUP5 PUSH1 0x2 ADD SLOAD DUP6 PUSH1 0x3 ADD DUP2 SWAP1 SSTORE POP PUSH0 JUMPDEST DUP6 PUSH1 0x7 ADD DUP1 SLOAD SWAP1 POP DUP2 LT ISZERO PUSH2 0x169E JUMPI PUSH0 DUP7 PUSH1 0x7 ADD DUP3 DUP2 SLOAD DUP2 LT PUSH2 0x161F JUMPI PUSH2 0x161E PUSH2 0x29C6 JUMP JUMPDEST JUMPDEST SWAP1 PUSH0 MSTORE PUSH1 0x20 PUSH0 KECCAK256 ADD PUSH0 SWAP1 SLOAD SWAP1 PUSH2 0x100 EXP SWAP1 DIV PUSH20 0xFFFFFFFFFFFFFFFFFFFFFFFFFFFFFFFFFFFFFFFF AND SWAP1 POP PUSH0 DUP8 PUSH1 0x8 ADD PUSH0 DUP4 PUSH20 0xFFFFFFFFFFFFFFFFFFFFFFFFFFFFFFFFFFFFFFFF AND PUSH20 0xFFFFFFFFFFFFFFFFFFFFFFFFFFFFFFFFFFFFFFFF AND DUP2 MSTORE PUSH1 0x20 ADD SWAP1 DUP2 MSTORE PUSH1 0x20 ADD PUSH0 KECCAK256 PUSH1 0x1 ADD DUP2 SWAP1 SSTORE POP POP DUP1 DUP1 PUSH1 0x1 ADD SWAP2 POP POP PUSH2 0x15F9 JUMP JUMPDEST POP DUP5 PUSH1 0x7 ADD PUSH0 PUSH2 0x16AE SWAP2 SWAP1 PUSH2 0x2258 JUMP JUMPDEST PUSH0 JUMPDEST DUP5 DUP1 SLOAD SWAP1 POP DUP2 LT ISZERO PUSH2 0x1CFB JUMPI PUSH0 DUP7 PUSH1 0x3 ADD SLOAD SUB ISZERO PUSH2 0x1CFB JUMPI PUSH0 DUP6 DUP3 DUP2 SLOAD DUP2 LT PUSH2 0x16DC JUMPI PUSH2 0x16DB PUSH2 0x29C6 JUMP JUMPDEST JUMPDEST SWAP1 PUSH0 MSTORE PUSH1 0x20 PUSH0 KECCAK256 SWAP1 PUSH1 0x4 MUL ADD SWAP1 POP DUP1 PUSH1 0x3 ADD PUSH0 SWAP1 SLOAD SWAP1 PUSH2 0x100 EXP SWAP1 DIV PUSH1 0xFF AND ISZERO PUSH2 0x1706 JUMPI POP PUSH2 0x1CEE JUMP JUMPDEST PUSH0 DUP8 PUSH1 0x3 ADD SLOAD DUP3 PUSH1 0x1 ADD SLOAD GT ISZERO PUSH2 0x1721 JUMPI DUP8 PUSH1 0x3 ADD SLOAD PUSH2 0x1727 JUMP JUMPDEST DUP2 PUSH1 0x1 ADD SLOAD JUMPDEST SWAP1 POP PUSH0 PUSH2 0x1741 DUP4 PUSH1 0x2 ADD SLOAD DUP4 PUSH2 0x2044 SWAP1 SWAP2 SWAP1 PUSH4 0xFFFFFFFF AND JUMP JUMPDEST SWAP1 POP PUSH0 PUSH2 0x1771 DUP3 PUSH2 0x1763 DUP7 PUSH1 0x2 ADD SLOAD DUP8 PUSH1 0x1 ADD SLOAD PUSH2 0x2044 SWAP1 SWAP2 SWAP1 PUSH4 0xFFFFFFFF AND JUMP JUMPDEST PUSH2 0x206E SWAP1 SWAP2 SWAP1 PUSH4 0xFFFFFFFF AND JUMP JUMPDEST SWAP1 POP PUSH0 DUP4 GT ISZERO PUSH2 0x1C0A JUMPI DUP10 PUSH0 ADD PUSH0 SWAP1 SLOAD SWAP1 PUSH2 0x100 EXP SWAP1 DIV PUSH20 0xFFFFFFFFFFFFFFFFFFFFFFFFFFFFFFFFFFFFFFFF AND PUSH20 0xFFFFFFFFFFFFFFFFFFFFFFFFFFFFFFFFFFFFFFFF AND PUSH2 0x8FC DUP4 SWAP1 DUP2 ISZERO MUL SWAP1 PUSH1 0x40 MLOAD PUSH0 PUSH1 0x40 MLOAD DUP1 DUP4 SUB DUP2 DUP6 DUP9 DUP9 CALL SWAP4 POP POP POP POP ISZERO DUP1 ISZERO PUSH2 0x17E0 JUMPI RETURNDATASIZE PUSH0 DUP1 RETURNDATACOPY RETURNDATASIZE PUSH0 REVERT JUMPDEST POP PUSH2 0x17F8 DUP4 DUP12 PUSH1 0x3 ADD SLOAD PUSH2 0x206E SWAP1 SWAP2 SWAP1 PUSH4 0xFFFFFFFF AND JUMP JUMPDEST DUP11 PUSH1 0x3 ADD DUP2 SWAP1 SSTORE POP PUSH1 0x1 DUP5 PUSH1 0x3 ADD PUSH0 PUSH2 0x100 EXP DUP2 SLOAD DUP2 PUSH1 0xFF MUL NOT AND SWAP1 DUP4 ISZERO ISZERO MUL OR SWAP1 SSTORE POP DUP10 PUSH1 0x8 ADD PUSH0 DUP6 PUSH0 ADD PUSH0 SWAP1 SLOAD SWAP1 PUSH2 0x100 EXP SWAP1 DIV PUSH20 0xFFFFFFFFFFFFFFFFFFFFFFFFFFFFFFFFFFFFFFFF AND PUSH20 0xFFFFFFFFFFFFFFFFFFFFFFFFFFFFFFFFFFFFFFFF AND PUSH20 0xFFFFFFFFFFFFFFFFFFFFFFFFFFFFFFFFFFFFFFFF AND DUP2 MSTORE PUSH1 0x20 ADD SWAP1 DUP2 MSTORE PUSH1 0x20 ADD PUSH0 KECCAK256 PUSH1 0x2 ADD PUSH0 SWAP1 SLOAD SWAP1 PUSH2 0x100 EXP SWAP1 DIV PUSH1 0xFF AND PUSH2 0x1A41 JUMPI DUP10 PUSH1 0x7 ADD DUP5 PUSH0 ADD PUSH0 SWAP1 SLOAD SWAP1 PUSH2 0x100 EXP SWAP1 DIV PUSH20 0xFFFFFFFFFFFFFFFFFFFFFFFFFFFFFFFFFFFFFFFF AND SWAP1 DUP1 PUSH1 0x1 DUP2 SLOAD ADD DUP1 DUP3 SSTORE DUP1 SWAP2 POP POP PUSH1 0x1 SWAP1 SUB SWAP1 PUSH0 MSTORE PUSH1 0x20 PUSH0 KECCAK256 ADD PUSH0 SWAP1 SWAP2 SWAP1 SWAP2 SWAP1 SWAP2 PUSH2 0x100 EXP DUP2 SLOAD DUP2 PUSH20 0xFFFFFFFFFFFFFFFFFFFFFFFFFFFFFFFFFFFFFFFF MUL NOT AND SWAP1 DUP4 PUSH20 0xFFFFFFFFFFFFFFFFFFFFFFFFFFFFFFFFFFFFFFFF AND MUL OR SWAP1 SSTORE POP PUSH1 0x40 MLOAD DUP1 PUSH1 0x60 ADD PUSH1 0x40 MSTORE DUP1 DUP6 PUSH0 ADD PUSH0 SWAP1 SLOAD SWAP1 PUSH2 0x100 EXP SWAP1 DIV PUSH20 0xFFFFFFFFFFFFFFFFFFFFFFFFFFFFFFFFFFFFFFFF AND PUSH20 0xFFFFFFFFFFFFFFFFFFFFFFFFFFFFFFFFFFFFFFFF AND DUP2 MSTORE PUSH1 0x20 ADD DUP5 DUP2 MSTORE PUSH1 0x20 ADD PUSH1 0x1 ISZERO ISZERO DUP2 MSTORE POP DUP11 PUSH1 0x8 ADD PUSH0 DUP7 PUSH0 ADD PUSH0 SWAP1 SLOAD SWAP1 PUSH2 0x100 EXP SWAP1 DIV PUSH20 0xFFFFFFFFFFFFFFFFFFFFFFFFFFFFFFFFFFFFFFFF AND PUSH20 0xFFFFFFFFFFFFFFFFFFFFFFFFFFFFFFFFFFFFFFFF AND PUSH20 0xFFFFFFFFFFFFFFFFFFFFFFFFFFFFFFFFFFFFFFFF AND DUP2 MSTORE PUSH1 0x20 ADD SWAP1 DUP2 MSTORE PUSH1 0x20 ADD PUSH0 KECCAK256 PUSH0 DUP3 ADD MLOAD DUP2 PUSH0 ADD PUSH0 PUSH2 0x100 EXP DUP2 SLOAD DUP2 PUSH20 0xFFFFFFFFFFFFFFFFFFFFFFFFFFFFFFFFFFFFFFFF MUL NOT AND SWAP1 DUP4 PUSH20 0xFFFFFFFFFFFFFFFFFFFFFFFFFFFFFFFFFFFFFFFF AND MUL OR SWAP1 SSTORE POP PUSH1 0x20 DUP3 ADD MLOAD DUP2 PUSH1 0x1 ADD SSTORE PUSH1 0x40 DUP3 ADD MLOAD DUP2 PUSH1 0x2 ADD PUSH0 PUSH2 0x100 EXP DUP2 SLOAD DUP2 PUSH1 0xFF MUL NOT AND SWAP1 DUP4 ISZERO ISZERO MUL OR SWAP1 SSTORE POP SWAP1 POP POP PUSH2 0x1B21 JUMP JUMPDEST PUSH2 0x1AB8 DUP4 DUP12 PUSH1 0x8 ADD PUSH0 DUP8 PUSH0 ADD PUSH0 SWAP1 SLOAD SWAP1 PUSH2 0x100 EXP SWAP1 DIV PUSH20 0xFFFFFFFFFFFFFFFFFFFFFFFFFFFFFFFFFFFFFFFF AND PUSH20 0xFFFFFFFFFFFFFFFFFFFFFFFFFFFFFFFFFFFFFFFF AND PUSH20 0xFFFFFFFFFFFFFFFFFFFFFFFFFFFFFFFFFFFFFFFF AND DUP2 MSTORE PUSH1 0x20 ADD SWAP1 DUP2 MSTORE PUSH1 0x20 ADD PUSH0 KECCAK256 PUSH1 0x1 ADD SLOAD PUSH2 0x2059 SWAP1 SWAP2 SWAP1 PUSH4 0xFFFFFFFF AND JUMP JUMPDEST DUP11 PUSH1 0x8 ADD PUSH0 DUP7 PUSH0 ADD PUSH0 SWAP1 SLOAD SWAP1 PUSH2 0x100 EXP SWAP1 DIV PUSH20 0xFFFFFFFFFFFFFFFFFFFFFFFFFFFFFFFFFFFFFFFF AND PUSH20 0xFFFFFFFFFFFFFFFFFFFFFFFFFFFFFFFFFFFFFFFF AND PUSH20 0xFFFFFFFFFFFFFFFFFFFFFFFFFFFFFFFFFFFFFFFF AND DUP2 MSTORE PUSH1 0x20 ADD SWAP1 DUP2 MSTORE PUSH1 0x20 ADD PUSH0 KECCAK256 PUSH1 0x1 ADD DUP2 SWAP1 SSTORE POP JUMPDEST DUP4 PUSH0 ADD PUSH0 SWAP1 SLOAD SWAP1 PUSH2 0x100 EXP SWAP1 DIV PUSH20 0xFFFFFFFFFFFFFFFFFFFFFFFFFFFFFFFFFFFFFFFF AND PUSH20 0xFFFFFFFFFFFFFFFFFFFFFFFFFFFFFFFFFFFFFFFF AND DUP12 PUSH32 0x46D3C445B404E9DE2C80E1C0489CC92F23DFD5462CE7C6B3A1A54B3F0F70BCFC DUP6 DUP8 PUSH1 0x2 ADD SLOAD PUSH1 0x40 MLOAD PUSH2 0x1B90 SWAP3 SWAP2 SWAP1 PUSH2 0x316E JUMP JUMPDEST PUSH1 0x40 MLOAD DUP1 SWAP2 SUB SWAP1 LOG3 DUP4 PUSH0 ADD PUSH0 SWAP1 SLOAD SWAP1 PUSH2 0x100 EXP SWAP1 DIV PUSH20 0xFFFFFFFFFFFFFFFFFFFFFFFFFFFFFFFFFFFFFFFF AND PUSH20 0xFFFFFFFFFFFFFFFFFFFFFFFFFFFFFFFFFFFFFFFF AND DUP12 PUSH32 0x25AF9E0275ABBB4DE910D2062F5DCCA6D4C47F1313066083DD9D7077608A7A54 DUP6 PUSH1 0x40 MLOAD PUSH2 0x1C01 SWAP2 SWAP1 PUSH2 0x25CE JUMP JUMPDEST PUSH1 0x40 MLOAD DUP1 SWAP2 SUB SWAP1 LOG3 JUMPDEST PUSH0 DUP2 GT ISZERO PUSH2 0x1CE9 JUMPI DUP4 PUSH0 ADD PUSH0 SWAP1 SLOAD SWAP1 PUSH2 0x100 EXP SWAP1 DIV PUSH20 0xFFFFFFFFFFFFFFFFFFFFFFFFFFFFFFFFFFFFFFFF AND PUSH20 0xFFFFFFFFFFFFFFFFFFFFFFFFFFFFFFFFFFFFFFFF AND PUSH2 0x8FC DUP3 SWAP1 DUP2 ISZERO MUL SWAP1 PUSH1 0x40 MLOAD PUSH0 PUSH1 0x40 MLOAD DUP1 DUP4 SUB DUP2 DUP6 DUP9 DUP9 CALL SWAP4 POP POP POP POP ISZERO DUP1 ISZERO PUSH2 0x1C77 JUMPI RETURNDATASIZE PUSH0 DUP1 RETURNDATACOPY RETURNDATASIZE PUSH0 REVERT JUMPDEST POP DUP4 PUSH0 ADD PUSH0 SWAP1 SLOAD SWAP1 PUSH2 0x100 EXP SWAP1 DIV PUSH20 0xFFFFFFFFFFFFFFFFFFFFFFFFFFFFFFFFFFFFFFFF AND PUSH20 0xFFFFFFFFFFFFFFFFFFFFFFFFFFFFFFFFFFFFFFFF AND PUSH32 0xA171B6942063C6F2800CE40A780EDCE37BAA2B618571B11EEDD1E69E626E7D76 DUP3 PUSH1 0x40 MLOAD PUSH2 0x1CE0 SWAP2 SWAP1 PUSH2 0x25CE JUMP JUMPDEST PUSH1 0x40 MLOAD DUP1 SWAP2 SUB SWAP1 LOG2 JUMPDEST POP POP POP POP JUMPDEST DUP1 DUP1 PUSH1 0x1 ADD SWAP2 POP POP PUSH2 0x16B0 JUMP JUMPDEST POP PUSH2 0x1D0B JUMP JUMPDEST PUSH2 0x1D0A DUP7 PUSH2 0x2083 JUMP JUMPDEST JUMPDEST DUP6 PUSH32 0x4D7A5E450395FB8FB6B67C4751F80F057CD5A74550929306EFF2CAC7F0ECC188 DUP3 TIMESTAMP PUSH1 0x40 MLOAD PUSH2 0x1D3D SWAP3 SWAP2 SWAP1 PUSH2 0x2AC3 JUMP JUMPDEST PUSH1 0x40 MLOAD DUP1 SWAP2 SUB SWAP1 LOG2 POP POP POP POP POP POP JUMP JUMPDEST PUSH1 0x1 PUSH0 DUP2 SWAP1 SSTORE POP JUMP JUMPDEST PUSH0 DUP2 DUP4 PUSH2 0x1D63 SWAP2 SWAP1 PUSH2 0x3292 JUMP JUMPDEST SWAP1 POP SWAP3 SWAP2 POP POP JUMP JUMPDEST PUSH0 PUSH1 0x2 PUSH0 DUP4 DUP2 MSTORE PUSH1 0x20 ADD SWAP1 DUP2 MSTORE PUSH1 0x20 ADD PUSH0 KECCAK256 SWAP1 POP PUSH0 JUMPDEST DUP2 DUP1 SLOAD SWAP1 POP DUP2 LT ISZERO PUSH2 0x203F JUMPI PUSH0 PUSH1 0x1 DUP3 PUSH2 0x1D9B SWAP2 SWAP1 PUSH2 0x2FC7 JUMP JUMPDEST SWAP1 POP JUMPDEST DUP3 DUP1 SLOAD SWAP1 POP DUP2 LT ISZERO PUSH2 0x2031 JUMPI DUP3 DUP2 DUP2 SLOAD DUP2 LT PUSH2 0x1DBD JUMPI PUSH2 0x1DBC PUSH2 0x29C6 JUMP JUMPDEST JUMPDEST SWAP1 PUSH0 MSTORE PUSH1 0x20 PUSH0 KECCAK256 SWAP1 PUSH1 0x4 MUL ADD PUSH1 0x2 ADD SLOAD DUP4 DUP4 DUP2 SLOAD DUP2 LT PUSH2 0x1DE0 JUMPI PUSH2 0x1DDF PUSH2 0x29C6 JUMP JUMPDEST JUMPDEST SWAP1 PUSH0 MSTORE PUSH1 0x20 PUSH0 KECCAK256 SWAP1 PUSH1 0x4 MUL ADD PUSH1 0x2 ADD SLOAD LT ISZERO PUSH2 0x2024 JUMPI PUSH0 DUP4 DUP4 DUP2 SLOAD DUP2 LT PUSH2 0x1E0A JUMPI PUSH2 0x1E09 PUSH2 0x29C6 JUMP JUMPDEST JUMPDEST SWAP1 PUSH0 MSTORE PUSH1 0x20 PUSH0 KECCAK256 SWAP1 PUSH1 0x4 MUL ADD PUSH1 0x40 MLOAD DUP1 PUSH1 0x80 ADD PUSH1 0x40 MSTORE SWAP1 DUP2 PUSH0 DUP3 ADD PUSH0 SWAP1 SLOAD SWAP1 PUSH2 0x100 EXP SWAP1 DIV PUSH20 0xFFFFFFFFFFFFFFFFFFFFFFFFFFFFFFFFFFFFFFFF AND PUSH20 0xFFFFFFFFFFFFFFFFFFFFFFFFFFFFFFFFFFFFFFFF AND PUSH20 0xFFFFFFFFFFFFFFFFFFFFFFFFFFFFFFFFFFFFFFFF AND DUP2 MSTORE PUSH1 0x20 ADD PUSH1 0x1 DUP3 ADD SLOAD DUP2 MSTORE PUSH1 0x20 ADD PUSH1 0x2 DUP3 ADD SLOAD DUP2 MSTORE PUSH1 0x20 ADD PUSH1 0x3 DUP3 ADD PUSH0 SWAP1 SLOAD SWAP1 PUSH2 0x100 EXP SWAP1 DIV PUSH1 0xFF AND ISZERO ISZERO ISZERO ISZERO DUP2 MSTORE POP POP SWAP1 POP DUP4 DUP3 DUP2 SLOAD DUP2 LT PUSH2 0x1EB8 JUMPI PUSH2 0x1EB7 PUSH2 0x29C6 JUMP JUMPDEST JUMPDEST SWAP1 PUSH0 MSTORE PUSH1 0x20 PUSH0 KECCAK256 SWAP1 PUSH1 0x4 MUL ADD DUP5 DUP5 DUP2 SLOAD DUP2 LT PUSH2 0x1ED7 JUMPI PUSH2 0x1ED6 PUSH2 0x29C6 JUMP JUMPDEST JUMPDEST SWAP1 PUSH0 MSTORE PUSH1 0x20 PUSH0 KECCAK256 SWAP1 PUSH1 0x4 MUL ADD PUSH0 DUP3 ADD PUSH0 SWAP1 SLOAD SWAP1 PUSH2 0x100 EXP SWAP1 DIV PUSH20 0xFFFFFFFFFFFFFFFFFFFFFFFFFFFFFFFFFFFFFFFF AND DUP2 PUSH0 ADD PUSH0 PUSH2 0x100 EXP DUP2 SLOAD DUP2 PUSH20 0xFFFFFFFFFFFFFFFFFFFFFFFFFFFFFFFFFFFFFFFF MUL NOT AND SWAP1 DUP4 PUSH20 0xFFFFFFFFFFFFFFFFFFFFFFFFFFFFFFFFFFFFFFFF AND MUL OR SWAP1 SSTORE POP PUSH1 0x1 DUP3 ADD SLOAD DUP2 PUSH1 0x1 ADD SSTORE PUSH1 0x2 DUP3 ADD SLOAD DUP2 PUSH1 0x2 ADD SSTORE PUSH1 0x3 DUP3 ADD PUSH0 SWAP1 SLOAD SWAP1 PUSH2 0x100 EXP SWAP1 DIV PUSH1 0xFF AND DUP2 PUSH1 0x3 ADD PUSH0 PUSH2 0x100 EXP DUP2 SLOAD DUP2 PUSH1 0xFF MUL NOT AND SWAP1 DUP4 ISZERO ISZERO MUL OR SWAP1 SSTORE POP SWAP1 POP POP DUP1 DUP5 DUP4 DUP2 SLOAD DUP2 LT PUSH2 0x1F9C JUMPI PUSH2 0x1F9B PUSH2 0x29C6 JUMP JUMPDEST JUMPDEST SWAP1 PUSH0 MSTORE PUSH1 0x20 PUSH0 KECCAK256 SWAP1 PUSH1 0x4 MUL ADD PUSH0 DUP3 ADD MLOAD DUP2 PUSH0 ADD PUSH0 PUSH2 0x100 EXP DUP2 SLOAD DUP2 PUSH20 0xFFFFFFFFFFFFFFFFFFFFFFFFFFFFFFFFFFFFFFFF MUL NOT AND SWAP1 DUP4 PUSH20 0xFFFFFFFFFFFFFFFFFFFFFFFFFFFFFFFFFFFFFFFF AND MUL OR SWAP1 SSTORE POP PUSH1 0x20 DUP3 ADD MLOAD DUP2 PUSH1 0x1 ADD SSTORE PUSH1 0x40 DUP3 ADD MLOAD DUP2 PUSH1 0x2 ADD SSTORE PUSH1 0x60 DUP3 ADD MLOAD DUP2 PUSH1 0x3 ADD PUSH0 PUSH2 0x100 EXP DUP2 SLOAD DUP2 PUSH1 0xFF MUL NOT AND SWAP1 DUP4 ISZERO ISZERO MUL OR SWAP1 SSTORE POP SWAP1 POP POP POP JUMPDEST DUP1 DUP1 PUSH1 0x1 ADD SWAP2 POP POP PUSH2 0x1D9E JUMP JUMPDEST POP DUP1 DUP1 PUSH1 0x1 ADD SWAP2 POP POP PUSH2 0x1D81 JUMP JUMPDEST POP POP POP JUMP JUMPDEST PUSH0 DUP2 DUP4 PUSH2 0x2051 SWAP2 SWAP1 PUSH2 0x32C2 JUMP JUMPDEST SWAP1 POP SWAP3 SWAP2 POP POP JUMP JUMPDEST PUSH0 DUP2 DUP4 PUSH2 0x2066 SWAP2 SWAP1 PUSH2 0x2FC7 JUMP JUMPDEST SWAP1 POP SWAP3 SWAP2 POP POP JUMP JUMPDEST PUSH0 DUP2 DUP4 PUSH2 0x207B SWAP2 SWAP1 PUSH2 0x3303 JUMP JUMPDEST SWAP1 POP SWAP3 SWAP2 POP POP JUMP JUMPDEST PUSH0 PUSH1 0x2 PUSH0 DUP4 DUP2 MSTORE PUSH1 0x20 ADD SWAP1 DUP2 MSTORE PUSH1 0x20 ADD PUSH0 KECCAK256 SWAP1 POP PUSH0 JUMPDEST DUP2 DUP1 SLOAD SWAP1 POP DUP2 LT ISZERO PUSH2 0x2253 JUMPI DUP2 DUP2 DUP2 SLOAD DUP2 LT PUSH2 0x20B8 JUMPI PUSH2 0x20B7 PUSH2 0x29C6 JUMP JUMPDEST JUMPDEST SWAP1 PUSH0 MSTORE PUSH1 0x20 PUSH0 KECCAK256 SWAP1 PUSH1 0x4 MUL ADD PUSH1 0x3 ADD PUSH0 SWAP1 SLOAD SWAP1 PUSH2 0x100 EXP SWAP1 DIV PUSH1 0xFF AND PUSH2 0x2246 JUMPI PUSH0 PUSH2 0x2130 DUP4 DUP4 DUP2 SLOAD DUP2 LT PUSH2 0x20EF JUMPI PUSH2 0x20EE PUSH2 0x29C6 JUMP JUMPDEST JUMPDEST SWAP1 PUSH0 MSTORE PUSH1 0x20 PUSH0 KECCAK256 SWAP1 PUSH1 0x4 MUL ADD PUSH1 0x2 ADD SLOAD DUP5 DUP5 DUP2 SLOAD DUP2 LT PUSH2 0x2112 JUMPI PUSH2 0x2111 PUSH2 0x29C6 JUMP JUMPDEST JUMPDEST SWAP1 PUSH0 MSTORE PUSH1 0x20 PUSH0 KECCAK256 SWAP1 PUSH1 0x4 MUL ADD PUSH1 0x1 ADD SLOAD PUSH2 0x2044 SWAP1 SWAP2 SWAP1 PUSH4 0xFFFFFFFF AND JUMP JUMPDEST SWAP1 POP DUP3 DUP3 DUP2 SLOAD DUP2 LT PUSH2 0x2145 JUMPI PUSH2 0x2144 PUSH2 0x29C6 JUMP JUMPDEST JUMPDEST SWAP1 PUSH0 MSTORE PUSH1 0x20 PUSH0 KECCAK256 SWAP1 PUSH1 0x4 MUL ADD PUSH0 ADD PUSH0 SWAP1 SLOAD SWAP1 PUSH2 0x100 EXP SWAP1 DIV PUSH20 0xFFFFFFFFFFFFFFFFFFFFFFFFFFFFFFFFFFFFFFFF AND PUSH20 0xFFFFFFFFFFFFFFFFFFFFFFFFFFFFFFFFFFFFFFFF AND PUSH2 0x8FC DUP3 SWAP1 DUP2 ISZERO MUL SWAP1 PUSH1 0x40 MLOAD PUSH0 PUSH1 0x40 MLOAD DUP1 DUP4 SUB DUP2 DUP6 DUP9 DUP9 CALL SWAP4 POP POP POP POP ISZERO DUP1 ISZERO PUSH2 0x21B5 JUMPI RETURNDATASIZE PUSH0 DUP1 RETURNDATACOPY RETURNDATASIZE PUSH0 REVERT JUMPDEST POP DUP3 DUP3 DUP2 SLOAD DUP2 LT PUSH2 0x21C9 JUMPI PUSH2 0x21C8 PUSH2 0x29C6 JUMP JUMPDEST JUMPDEST SWAP1 PUSH0 MSTORE PUSH1 0x20 PUSH0 KECCAK256 SWAP1 PUSH1 0x4 MUL ADD PUSH0 ADD PUSH0 SWAP1 SLOAD SWAP1 PUSH2 0x100 EXP SWAP1 DIV PUSH20 0xFFFFFFFFFFFFFFFFFFFFFFFFFFFFFFFFFFFFFFFF AND PUSH20 0xFFFFFFFFFFFFFFFFFFFFFFFFFFFFFFFFFFFFFFFF AND PUSH32 0xA171B6942063C6F2800CE40A780EDCE37BAA2B618571B11EEDD1E69E626E7D76 DUP3 PUSH1 0x40 MLOAD PUSH2 0x223C SWAP2 SWAP1 PUSH2 0x25CE JUMP JUMPDEST PUSH1 0x40 MLOAD DUP1 SWAP2 SUB SWAP1 LOG2 POP JUMPDEST DUP1 DUP1 PUSH1 0x1 ADD SWAP2 POP POP PUSH2 0x2099 JUMP JUMPDEST POP POP POP JUMP JUMPDEST POP DUP1 SLOAD PUSH0 DUP3 SSTORE SWAP1 PUSH0 MSTORE PUSH1 0x20 PUSH0 KECCAK256 SWAP1 DUP2 ADD SWAP1 PUSH2 0x2273 SWAP2 SWAP1 PUSH2 0x2276 JUMP JUMPDEST POP JUMP JUMPDEST JUMPDEST DUP1 DUP3 GT ISZERO PUSH2 0x228D JUMPI PUSH0 DUP2 PUSH0 SWAP1 SSTORE POP PUSH1 0x1 ADD PUSH2 0x2277 JUMP JUMPDEST POP SWAP1 JUMP JUMPDEST PUSH0 PUSH1 0x40 MLOAD SWAP1 POP SWAP1 JUMP JUMPDEST PUSH0 DUP1 REVERT JUMPDEST PUSH0 DUP1 REVERT JUMPDEST PUSH0 DUP2 SWAP1 POP SWAP2 SWAP1 POP JUMP JUMPDEST PUSH2 0x22B4 DUP2 PUSH2 0x22A2 JUMP JUMPDEST DUP2 EQ PUSH2 0x22BE JUMPI PUSH0 DUP1 REVERT JUMPDEST POP JUMP JUMPDEST PUSH0 DUP2 CALLDATALOAD SWAP1 POP PUSH2 0x22CF DUP2 PUSH2 0x22AB JUMP JUMPDEST SWAP3 SWAP2 POP POP JUMP JUMPDEST PUSH0 PUSH1 0x20 DUP3 DUP5 SUB SLT ISZERO PUSH2 0x22EA JUMPI PUSH2 0x22E9 PUSH2 0x229A JUMP JUMPDEST JUMPDEST PUSH0 PUSH2 0x22F7 DUP5 DUP3 DUP6 ADD PUSH2 0x22C1 JUMP JUMPDEST SWAP2 POP POP SWAP3 SWAP2 POP POP JUMP JUMPDEST PUSH0 DUP2 MLOAD SWAP1 POP SWAP2 SWAP1 POP JUMP JUMPDEST PUSH0 DUP3 DUP3 MSTORE PUSH1 0x20 DUP3 ADD SWAP1 POP SWAP3 SWAP2 POP POP JUMP JUMPDEST PUSH0 DUP2 SWAP1 POP PUSH1 0x20 DUP3 ADD SWAP1 POP SWAP2 SWAP1 POP JUMP JUMPDEST PUSH0 PUSH20 0xFFFFFFFFFFFFFFFFFFFFFFFFFFFFFFFFFFFFFFFF DUP3 AND SWAP1 POP SWAP2 SWAP1 POP JUMP JUMPDEST PUSH0 PUSH2 0x2352 DUP3 PUSH2 0x2329 JUMP JUMPDEST SWAP1 POP SWAP2 SWAP1 POP JUMP JUMPDEST PUSH2 0x2362 DUP2 PUSH2 0x2348 JUMP JUMPDEST DUP3 MSTORE POP POP JUMP JUMPDEST PUSH0 PUSH2 0x2373 DUP4 DUP4 PUSH2 0x2359 JUMP JUMPDEST PUSH1 0x20 DUP4 ADD SWAP1 POP SWAP3 SWAP2 POP POP JUMP JUMPDEST PUSH0 PUSH1 0x20 DUP3 ADD SWAP1 POP SWAP2 SWAP1 POP JUMP JUMPDEST PUSH0 PUSH2 0x2395 DUP3 PUSH2 0x2300 JUMP JUMPDEST PUSH2 0x239F DUP2 DUP6 PUSH2 0x230A JUMP JUMPDEST SWAP4 POP PUSH2 0x23AA DUP4 PUSH2 0x231A JUMP JUMPDEST DUP1 PUSH0 JUMPDEST DUP4 DUP2 LT ISZERO PUSH2 0x23DA JUMPI DUP2 MLOAD PUSH2 0x23C1 DUP9 DUP3 PUSH2 0x2368 JUMP JUMPDEST SWAP8 POP PUSH2 0x23CC DUP4 PUSH2 0x237F JUMP JUMPDEST SWAP3 POP POP PUSH1 0x1 DUP2 ADD SWAP1 POP PUSH2 0x23AD JUMP JUMPDEST POP DUP6 SWAP4 POP POP POP POP SWAP3 SWAP2 POP POP JUMP JUMPDEST PUSH0 DUP2 MLOAD SWAP1 POP SWAP2 SWAP1 POP JUMP JUMPDEST PUSH0 DUP3 DUP3 MSTORE PUSH1 0x20 DUP3 ADD SWAP1 POP SWAP3 SWAP2 POP POP JUMP JUMPDEST PUSH0 DUP2 SWAP1 POP PUSH1 0x20 DUP3 ADD SWAP1 POP SWAP2 SWAP1 POP JUMP JUMPDEST PUSH2 0x2419 DUP2 PUSH2 0x22A2 JUMP JUMPDEST DUP3 MSTORE POP POP JUMP JUMPDEST PUSH0 PUSH2 0x242A DUP4 DUP4 PUSH2 0x2410 JUMP JUMPDEST PUSH1 0x20 DUP4 ADD SWAP1 POP SWAP3 SWAP2 POP POP JUMP JUMPDEST PUSH0 PUSH1 0x20 DUP3 ADD SWAP1 POP SWAP2 SWAP1 POP JUMP JUMPDEST PUSH0 PUSH2 0x244C DUP3 PUSH2 0x23E7 JUMP JUMPDEST PUSH2 0x2456 DUP2 DUP6 PUSH2 0x23F1 JUMP JUMPDEST SWAP4 POP PUSH2 0x2461 DUP4 PUSH2 0x2401 JUMP JUMPDEST DUP1 PUSH0 JUMPDEST DUP4 DUP2 LT ISZERO PUSH2 0x2491 JUMPI DUP2 MLOAD PUSH2 0x2478 DUP9 DUP3 PUSH2 0x241F JUMP JUMPDEST SWAP8 POP PUSH2 0x2483 DUP4 PUSH2 0x2436 JUMP JUMPDEST SWAP3 POP POP PUSH1 0x1 DUP2 ADD SWAP1 POP PUSH2 0x2464 JUMP JUMPDEST POP DUP6 SWAP4 POP POP POP POP SWAP3 SWAP2 POP POP JUMP JUMPDEST PUSH0 DUP2 MLOAD SWAP1 POP SWAP2 SWAP1 POP JUMP JUMPDEST PUSH0 DUP3 DUP3 MSTORE PUSH1 0x20 DUP3 ADD SWAP1 POP SWAP3 SWAP2 POP POP JUMP JUMPDEST PUSH0 DUP2 SWAP1 POP PUSH1 0x20 DUP3 ADD SWAP1 POP SWAP2 SWAP1 POP JUMP JUMPDEST PUSH0 DUP2 ISZERO ISZERO SWAP1 POP SWAP2 SWAP1 POP JUMP JUMPDEST PUSH2 0x24DB DUP2 PUSH2 0x24C7 JUMP JUMPDEST DUP3 MSTORE POP POP JUMP JUMPDEST PUSH0 PUSH2 0x24EC DUP4 DUP4 PUSH2 0x24D2 JUMP JUMPDEST PUSH1 0x20 DUP4 ADD SWAP1 POP SWAP3 SWAP2 POP POP JUMP JUMPDEST PUSH0 PUSH1 0x20 DUP3 ADD SWAP1 POP SWAP2 SWAP1 POP JUMP JUMPDEST PUSH0 PUSH2 0x250E DUP3 PUSH2 0x249E JUMP JUMPDEST PUSH2 0x2518 DUP2 DUP6 PUSH2 0x24A8 JUMP JUMPDEST SWAP4 POP PUSH2 0x2523 DUP4 PUSH2 0x24B8 JUMP JUMPDEST DUP1 PUSH0 JUMPDEST DUP4 DUP2 LT ISZERO PUSH2 0x2553 JUMPI DUP2 MLOAD PUSH2 0x253A DUP9 DUP3 PUSH2 0x24E1 JUMP JUMPDEST SWAP8 POP PUSH2 0x2545 DUP4 PUSH2 0x24F8 JUMP JUMPDEST SWAP3 POP POP PUSH1 0x1 DUP2 ADD SWAP1 POP PUSH2 0x2526 JUMP JUMPDEST POP DUP6 SWAP4 POP POP POP POP SWAP3 SWAP2 POP POP JUMP JUMPDEST PUSH0 PUSH1 0x80 DUP3 ADD SWAP1 POP DUP2 DUP2 SUB PUSH0 DUP4 ADD MSTORE PUSH2 0x2578 DUP2 DUP8 PUSH2 0x238B JUMP JUMPDEST SWAP1 POP DUP2 DUP2 SUB PUSH1 0x20 DUP4 ADD MSTORE PUSH2 0x258C DUP2 DUP7 PUSH2 0x2442 JUMP JUMPDEST SWAP1 POP DUP2 DUP2 SUB PUSH1 0x40 DUP4 ADD MSTORE PUSH2 0x25A0 DUP2 DUP6 PUSH2 0x2442 JUMP JUMPDEST SWAP1 POP DUP2 DUP2 SUB PUSH1 0x60 DUP4 ADD MSTORE PUSH2 0x25B4 DUP2 DUP5 PUSH2 0x2504 JUMP JUMPDEST SWAP1 POP SWAP6 SWAP5 POP POP POP POP POP JUMP JUMPDEST PUSH2 0x25C8 DUP2 PUSH2 0x22A2 JUMP JUMPDEST DUP3 MSTORE POP POP JUMP JUMPDEST PUSH0 PUSH1 0x20 DUP3 ADD SWAP1 POP PUSH2 0x25E1 PUSH0 DUP4 ADD DUP5 PUSH2 0x25BF JUMP JUMPDEST SWAP3 SWAP2 POP POP JUMP JUMPDEST PUSH0 DUP1 REVERT JUMPDEST PUSH0 DUP1 REVERT JUMPDEST PUSH0 PUSH1 0x1F NOT PUSH1 0x1F DUP4 ADD AND SWAP1 POP SWAP2 SWAP1 POP JUMP JUMPDEST PUSH32 0x4E487B7100000000000000000000000000000000000000000000000000000000 PUSH0 MSTORE PUSH1 0x41 PUSH1 0x4 MSTORE PUSH1 0x24 PUSH0 REVERT JUMPDEST PUSH2 0x2635 DUP3 PUSH2 0x25EF JUMP JUMPDEST DUP2 ADD DUP2 DUP2 LT PUSH8 0xFFFFFFFFFFFFFFFF DUP3 GT OR ISZERO PUSH2 0x2654 JUMPI PUSH2 0x2653 PUSH2 0x25FF JUMP JUMPDEST JUMPDEST DUP1 PUSH1 0x40 MSTORE POP POP POP JUMP JUMPDEST PUSH0 PUSH2 0x2666 PUSH2 0x2291 JUMP JUMPDEST SWAP1 POP PUSH2 0x2672 DUP3 DUP3 PUSH2 0x262C JUMP JUMPDEST SWAP2 SWAP1 POP JUMP JUMPDEST PUSH0 PUSH8 0xFFFFFFFFFFFFFFFF DUP3 GT ISZERO PUSH2 0x2691 JUMPI PUSH2 0x2690 PUSH2 0x25FF JUMP JUMPDEST JUMPDEST PUSH2 0x269A DUP3 PUSH2 0x25EF JUMP JUMPDEST SWAP1 POP PUSH1 0x20 DUP2 ADD SWAP1 POP SWAP2 SWAP1 POP JUMP JUMPDEST DUP3 DUP2 DUP4 CALLDATACOPY PUSH0 DUP4 DUP4 ADD MSTORE POP POP POP JUMP JUMPDEST PUSH0 PUSH2 0x26C7 PUSH2 0x26C2 DUP5 PUSH2 0x2677 JUMP JUMPDEST PUSH2 0x265D JUMP JUMPDEST SWAP1 POP DUP3 DUP2 MSTORE PUSH1 0x20 DUP2 ADD DUP5 DUP5 DUP5 ADD GT ISZERO PUSH2 0x26E3 JUMPI PUSH2 0x26E2 PUSH2 0x25EB JUMP JUMPDEST JUMPDEST PUSH2 0x26EE DUP5 DUP3 DUP6 PUSH2 0x26A7 JUMP JUMPDEST POP SWAP4 SWAP3 POP POP POP JUMP JUMPDEST PUSH0 DUP3 PUSH1 0x1F DUP4 ADD SLT PUSH2 0x270A JUMPI PUSH2 0x2709 PUSH2 0x25E7 JUMP JUMPDEST JUMPDEST DUP2 CALLDATALOAD PUSH2 0x271A DUP5 DUP3 PUSH1 0x20 DUP7 ADD PUSH2 0x26B5 JUMP JUMPDEST SWAP2 POP POP SWAP3 SWAP2 POP POP JUMP JUMPDEST PUSH0 DUP1 PUSH0 DUP1 PUSH0 PUSH1 0xA0 DUP7 DUP9 SUB SLT ISZERO PUSH2 0x273C JUMPI PUSH2 0x273B PUSH2 0x229A JUMP JUMPDEST JUMPDEST PUSH0 DUP7 ADD CALLDATALOAD PUSH8 0xFFFFFFFFFFFFFFFF DUP2 GT ISZERO PUSH2 0x2759 JUMPI PUSH2 0x2758 PUSH2 0x229E JUMP JUMPDEST JUMPDEST PUSH2 0x2765 DUP9 DUP3 DUP10 ADD PUSH2 0x26F6 JUMP JUMPDEST SWAP6 POP POP PUSH1 0x20 PUSH2 0x2776 DUP9 DUP3 DUP10 ADD PUSH2 0x22C1 JUMP JUMPDEST SWAP5 POP POP PUSH1 0x40 PUSH2 0x2787 DUP9 DUP3 DUP10 ADD PUSH2 0x22C1 JUMP JUMPDEST SWAP4 POP POP PUSH1 0x60 PUSH2 0x2798 DUP9 DUP3 DUP10 ADD PUSH2 0x22C1 JUMP JUMPDEST SWAP3 POP POP PUSH1 0x80 PUSH2 0x27A9 DUP9 DUP3 DUP10 ADD PUSH2 0x22C1 JUMP JUMPDEST SWAP2 POP POP SWAP3 SWAP6 POP SWAP3 SWAP6 SWAP1 SWAP4 POP JUMP JUMPDEST PUSH0 DUP1 PUSH1 0x40 DUP4 DUP6 SUB SLT ISZERO PUSH2 0x27CC JUMPI PUSH2 0x27CB PUSH2 0x229A JUMP JUMPDEST JUMPDEST PUSH0 PUSH2 0x27D9 DUP6 DUP3 DUP7 ADD PUSH2 0x22C1 JUMP JUMPDEST SWAP3 POP POP PUSH1 0x20 PUSH2 0x27EA DUP6 DUP3 DUP7 ADD PUSH2 0x22C1 JUMP JUMPDEST SWAP2 POP POP SWAP3 POP SWAP3 SWAP1 POP JUMP JUMPDEST PUSH0 PUSH1 0x40 DUP3 ADD SWAP1 POP DUP2 DUP2 SUB PUSH0 DUP4 ADD MSTORE PUSH2 0x280C DUP2 DUP6 PUSH2 0x238B JUMP JUMPDEST SWAP1 POP DUP2 DUP2 SUB PUSH1 0x20 DUP4 ADD MSTORE PUSH2 0x2820 DUP2 DUP5 PUSH2 0x2442 JUMP JUMPDEST SWAP1 POP SWAP4 SWAP3 POP POP POP JUMP JUMPDEST PUSH2 0x2832 DUP2 PUSH2 0x2348 JUMP JUMPDEST DUP3 MSTORE POP POP JUMP JUMPDEST PUSH2 0x2841 DUP2 PUSH2 0x24C7 JUMP JUMPDEST DUP3 MSTORE POP POP JUMP JUMPDEST PUSH0 PUSH1 0x80 DUP3 ADD SWAP1 POP PUSH2 0x285A PUSH0 DUP4 ADD DUP8 PUSH2 0x2829 JUMP JUMPDEST PUSH2 0x2867 PUSH1 0x20 DUP4 ADD DUP7 PUSH2 0x25BF JUMP JUMPDEST PUSH2 0x2874 PUSH1 0x40 DUP4 ADD DUP6 PUSH2 0x25BF JUMP JUMPDEST PUSH2 0x2881 PUSH1 0x60 DUP4 ADD DUP5 PUSH2 0x2838 JUMP JUMPDEST SWAP6 SWAP5 POP POP POP POP POP JUMP JUMPDEST PUSH0 DUP2 MLOAD SWAP1 POP SWAP2 SWAP1 POP JUMP JUMPDEST PUSH0 DUP3 DUP3 MSTORE PUSH1 0x20 DUP3 ADD SWAP1 POP SWAP3 SWAP2 POP POP JUMP JUMPDEST DUP3 DUP2 DUP4 MCOPY PUSH0 DUP4 DUP4 ADD MSTORE POP POP POP JUMP JUMPDEST PUSH0 PUSH2 0x28BC DUP3 PUSH2 0x288A JUMP JUMPDEST PUSH2 0x28C6 DUP2 DUP6 PUSH2 0x2894 JUMP JUMPDEST SWAP4 POP PUSH2 0x28D6 DUP2 DUP6 PUSH1 0x20 DUP7 ADD PUSH2 0x28A4 JUMP JUMPDEST PUSH2 0x28DF DUP2 PUSH2 0x25EF JUMP JUMPDEST DUP5 ADD SWAP2 POP POP SWAP3 SWAP2 POP POP JUMP JUMPDEST PUSH0 PUSH1 0xE0 DUP3 ADD SWAP1 POP PUSH2 0x28FD PUSH0 DUP4 ADD DUP11 PUSH2 0x2829 JUMP JUMPDEST DUP2 DUP2 SUB PUSH1 0x20 DUP4 ADD MSTORE PUSH2 0x290F DUP2 DUP10 PUSH2 0x28B2 JUMP JUMPDEST SWAP1 POP PUSH2 0x291E PUSH1 0x40 DUP4 ADD DUP9 PUSH2 0x25BF JUMP JUMPDEST PUSH2 0x292B PUSH1 0x60 DUP4 ADD DUP8 PUSH2 0x25BF JUMP JUMPDEST PUSH2 0x2938 PUSH1 0x80 DUP4 ADD DUP7 PUSH2 0x25BF JUMP JUMPDEST PUSH2 0x2945 PUSH1 0xA0 DUP4 ADD DUP6 PUSH2 0x2838 JUMP JUMPDEST PUSH2 0x2952 PUSH1 0xC0 DUP4 ADD DUP5 PUSH2 0x25BF JUMP JUMPDEST SWAP9 SWAP8 POP POP POP POP POP POP POP POP JUMP JUMPDEST PUSH32 0x496E76616C696420617373657420494400000000000000000000000000000000 PUSH0 DUP3 ADD MSTORE POP JUMP JUMPDEST PUSH0 PUSH2 0x2992 PUSH1 0x10 DUP4 PUSH2 0x2894 JUMP JUMPDEST SWAP2 POP PUSH2 0x299D DUP3 PUSH2 0x295E JUMP JUMPDEST PUSH1 0x20 DUP3 ADD SWAP1 POP SWAP2 SWAP1 POP JUMP JUMPDEST PUSH0 PUSH1 0x20 DUP3 ADD SWAP1 POP DUP2 DUP2 SUB PUSH0 DUP4 ADD MSTORE PUSH2 0x29BF DUP2 PUSH2 0x2986 JUMP JUMPDEST SWAP1 POP SWAP2 SWAP1 POP JUMP JUMPDEST PUSH32 0x4E487B7100000000000000000000000000000000000000000000000000000000 PUSH0 MSTORE PUSH1 0x32 PUSH1 0x4 MSTORE PUSH1 0x24 PUSH0 REVERT JUMPDEST PUSH32 0x556E617574686F72697A65640000000000000000000000000000000000000000 PUSH0 DUP3 ADD MSTORE POP JUMP JUMPDEST PUSH0 PUSH2 0x2A27 PUSH1 0xC DUP4 PUSH2 0x2894 JUMP JUMPDEST SWAP2 POP PUSH2 0x2A32 DUP3 PUSH2 0x29F3 JUMP JUMPDEST PUSH1 0x20 DUP3 ADD SWAP1 POP SWAP2 SWAP1 POP JUMP JUMPDEST PUSH0 PUSH1 0x20 DUP3 ADD SWAP1 POP DUP2 DUP2 SUB PUSH0 DUP4 ADD MSTORE PUSH2 0x2A54 DUP2 PUSH2 0x2A1B JUMP JUMPDEST SWAP1 POP SWAP2 SWAP1 POP JUMP JUMPDEST PUSH32 0x42696464696E6720616C726561647920636C6F73656400000000000000000000 PUSH0 DUP3 ADD MSTORE POP JUMP JUMPDEST PUSH0 PUSH2 0x2A8F PUSH1 0x16 DUP4 PUSH2 0x2894 JUMP JUMPDEST SWAP2 POP PUSH2 0x2A9A DUP3 PUSH2 0x2A5B JUMP JUMPDEST PUSH1 0x20 DUP3 ADD SWAP1 POP SWAP2 SWAP1 POP JUMP JUMPDEST PUSH0 PUSH1 0x20 DUP3 ADD SWAP1 POP DUP2 DUP2 SUB PUSH0 DUP4 ADD MSTORE PUSH2 0x2ABC DUP2 PUSH2 0x2A83 JUMP JUMPDEST SWAP1 POP SWAP2 SWAP1 POP JUMP JUMPDEST PUSH0 PUSH1 0x40 DUP3 ADD SWAP1 POP PUSH2 0x2AD6 PUSH0 DUP4 ADD DUP6 PUSH2 0x2838 JUMP JUMPDEST PUSH2 0x2AE3 PUSH1 0x20 DUP4 ADD DUP5 PUSH2 0x25BF JUMP JUMPDEST SWAP4 SWAP3 POP POP POP JUMP JUMPDEST PUSH32 0x496E76616C696420736861726520636F756E7400000000000000000000000000 PUSH0 DUP3 ADD MSTORE POP JUMP JUMPDEST PUSH0 PUSH2 0x2B1E PUSH1 0x13 DUP4 PUSH2 0x2894 JUMP JUMPDEST SWAP2 POP PUSH2 0x2B29 DUP3 PUSH2 0x2AEA JUMP JUMPDEST PUSH1 0x20 DUP3 ADD SWAP1 POP SWAP2 SWAP1 POP JUMP JUMPDEST PUSH0 PUSH1 0x20 DUP3 ADD SWAP1 POP DUP2 DUP2 SUB PUSH0 DUP4 ADD MSTORE PUSH2 0x2B4B DUP2 PUSH2 0x2B12 JUMP JUMPDEST SWAP1 POP SWAP2 SWAP1 POP JUMP JUMPDEST PUSH32 0x496E76616C6964206D696E696D756D2070726963652070657220736861726500 PUSH0 DUP3 ADD MSTORE POP JUMP JUMPDEST PUSH0 PUSH2 0x2B86 PUSH1 0x1F DUP4 PUSH2 0x2894 JUMP JUMPDEST SWAP2 POP PUSH2 0x2B91 DUP3 PUSH2 0x2B52 JUMP JUMPDEST PUSH1 0x20 DUP3 ADD SWAP1 POP SWAP2 SWAP1 POP JUMP JUMPDEST PUSH0 PUSH1 0x20 DUP3 ADD SWAP1 POP DUP2 DUP2 SUB PUSH0 DUP4 ADD MSTORE PUSH2 0x2BB3 DUP2 PUSH2 0x2B7A JUMP JUMPDEST SWAP1 POP SWAP2 SWAP1 POP JUMP JUMPDEST PUSH32 0x496E76616C6964206D696E696D756D20746F74616C2070726963650000000000 PUSH0 DUP3 ADD MSTORE POP JUMP JUMPDEST PUSH0 PUSH2 0x2BEE PUSH1 0x1B DUP4 PUSH2 0x2894 JUMP JUMPDEST SWAP2 POP PUSH2 0x2BF9 DUP3 PUSH2 0x2BBA JUMP JUMPDEST PUSH1 0x20 DUP3 ADD SWAP1 POP SWAP2 SWAP1 POP JUMP JUMPDEST PUSH0 PUSH1 0x20 DUP3 ADD SWAP1 POP DUP2 DUP2 SUB PUSH0 DUP4 ADD MSTORE PUSH2 0x2C1B DUP2 PUSH2 0x2BE2 JUMP JUMPDEST SWAP1 POP SWAP2 SWAP1 POP JUMP JUMPDEST PUSH32 0x4E616D652063616E6E6F7420626520656D707479000000000000000000000000 PUSH0 DUP3 ADD MSTORE POP JUMP JUMPDEST PUSH0 PUSH2 0x2C56 PUSH1 0x14 DUP4 PUSH2 0x2894 JUMP JUMPDEST SWAP2 POP PUSH2 0x2C61 DUP3 PUSH2 0x2C22 JUMP JUMPDEST PUSH1 0x20 DUP3 ADD SWAP1 POP SWAP2 SWAP1 POP JUMP JUMPDEST PUSH0 PUSH1 0x20 DUP3 ADD SWAP1 POP DUP2 DUP2 SUB PUSH0 DUP4 ADD MSTORE PUSH2 0x2C83 DUP2 PUSH2 0x2C4A JUMP JUMPDEST SWAP1 POP SWAP2 SWAP1 POP JUMP JUMPDEST PUSH32 0x4E487B7100000000000000000000000000000000000000000000000000000000 PUSH0 MSTORE PUSH1 0x11 PUSH1 0x4 MSTORE PUSH1 0x24 PUSH0 REVERT JUMPDEST PUSH0 PUSH2 0x2CC1 DUP3 PUSH2 0x22A2 JUMP JUMPDEST SWAP2 POP PUSH32 0xFFFFFFFFFFFFFFFFFFFFFFFFFFFFFFFFFFFFFFFFFFFFFFFFFFFFFFFFFFFFFFFF DUP3 SUB PUSH2 0x2CF3 JUMPI PUSH2 0x2CF2 PUSH2 0x2C8A JUMP JUMPDEST JUMPDEST PUSH1 0x1 DUP3 ADD SWAP1 POP SWAP2 SWAP1 POP JUMP JUMPDEST PUSH32 0x4E487B7100000000000000000000000000000000000000000000000000000000 PUSH0 MSTORE PUSH1 0x22 PUSH1 0x4 MSTORE PUSH1 0x24 PUSH0 REVERT JUMPDEST PUSH0 PUSH1 0x2 DUP3 DIV SWAP1 POP PUSH1 0x1 DUP3 AND DUP1 PUSH2 0x2D42 JUMPI PUSH1 0x7F DUP3 AND SWAP2 POP JUMPDEST PUSH1 0x20 DUP3 LT DUP2 SUB PUSH2 0x2D55 JUMPI PUSH2 0x2D54 PUSH2 0x2CFE JUMP JUMPDEST JUMPDEST POP SWAP2 SWAP1 POP JUMP JUMPDEST PUSH0 DUP2 SWAP1 POP DUP2 PUSH0 MSTORE PUSH1 0x20 PUSH0 KECCAK256 SWAP1 POP SWAP2 SWAP1 POP JUMP JUMPDEST PUSH0 PUSH1 0x20 PUSH1 0x1F DUP4 ADD DIV SWAP1 POP SWAP2 SWAP1 POP JUMP JUMPDEST PUSH0 DUP3 DUP3 SHL SWAP1 POP SWAP3 SWAP2 POP POP JUMP JUMPDEST PUSH0 PUSH1 0x8 DUP4 MUL PUSH2 0x2DB7 PUSH32 0xFFFFFFFFFFFFFFFFFFFFFFFFFFFFFFFFFFFFFFFFFFFFFFFFFFFFFFFFFFFFFFFF DUP3 PUSH2 0x2D7C JUMP JUMPDEST PUSH2 0x2DC1 DUP7 DUP4 PUSH2 0x2D7C JUMP JUMPDEST SWAP6 POP DUP1 NOT DUP5 AND SWAP4 POP DUP1 DUP7 AND DUP5 OR SWAP3 POP POP POP SWAP4 SWAP3 POP POP POP JUMP JUMPDEST PUSH0 DUP2 SWAP1 POP SWAP2 SWAP1 POP JUMP JUMPDEST PUSH0 PUSH2 0x2DFC PUSH2 0x2DF7 PUSH2 0x2DF2 DUP5 PUSH2 0x22A2 JUMP JUMPDEST PUSH2 0x2DD9 JUMP JUMPDEST PUSH2 0x22A2 JUMP JUMPDEST SWAP1 POP SWAP2 SWAP1 POP JUMP JUMPDEST PUSH0 DUP2 SWAP1 POP SWAP2 SWAP1 POP JUMP JUMPDEST PUSH2 0x2E15 DUP4 PUSH2 0x2DE2 JUMP JUMPDEST PUSH2 0x2E29 PUSH2 0x2E21 DUP3 PUSH2 0x2E03 JUMP JUMPDEST DUP5 DUP5 SLOAD PUSH2 0x2D88 JUMP JUMPDEST DUP3 SSTORE POP POP POP POP JUMP JUMPDEST PUSH0 SWAP1 JUMP JUMPDEST PUSH2 0x2E3D PUSH2 0x2E31 JUMP JUMPDEST PUSH2 0x2E48 DUP2 DUP5 DUP5 PUSH2 0x2E0C JUMP JUMPDEST POP POP POP JUMP JUMPDEST JUMPDEST DUP2 DUP2 LT ISZERO PUSH2 0x2E6B JUMPI PUSH2 0x2E60 PUSH0 DUP3 PUSH2 0x2E35 JUMP JUMPDEST PUSH1 0x1 DUP2 ADD SWAP1 POP PUSH2 0x2E4E JUMP JUMPDEST POP POP JUMP JUMPDEST PUSH1 0x1F DUP3 GT ISZERO PUSH2 0x2EB0 JUMPI PUSH2 0x2E81 DUP2 PUSH2 0x2D5B JUMP JUMPDEST PUSH2 0x2E8A DUP5 PUSH2 0x2D6D JUMP JUMPDEST DUP2 ADD PUSH1 0x20 DUP6 LT ISZERO PUSH2 0x2E99 JUMPI DUP2 SWAP1 POP JUMPDEST PUSH2 0x2EAD PUSH2 0x2EA5 DUP6 PUSH2 0x2D6D JUMP JUMPDEST DUP4 ADD DUP3 PUSH2 0x2E4D JUMP JUMPDEST POP POP JUMPDEST POP POP POP JUMP JUMPDEST PUSH0 DUP3 DUP3 SHR SWAP1 POP SWAP3 SWAP2 POP POP JUMP JUMPDEST PUSH0 PUSH2 0x2ED0 PUSH0 NOT DUP5 PUSH1 0x8 MUL PUSH2 0x2EB5 JUMP JUMPDEST NOT DUP1 DUP4 AND SWAP2 POP POP SWAP3 SWAP2 POP POP JUMP JUMPDEST PUSH0 PUSH2 0x2EE8 DUP4 DUP4 PUSH2 0x2EC1 JUMP JUMPDEST SWAP2 POP DUP3 PUSH1 0x2 MUL DUP3 OR SWAP1 POP SWAP3 SWAP2 POP POP JUMP JUMPDEST PUSH2 0x2F01 DUP3 PUSH2 0x288A JUMP JUMPDEST PUSH8 0xFFFFFFFFFFFFFFFF DUP2 GT ISZERO PUSH2 0x2F1A JUMPI PUSH2 0x2F19 PUSH2 0x25FF JUMP JUMPDEST JUMPDEST PUSH2 0x2F24 DUP3 SLOAD PUSH2 0x2D2B JUMP JUMPDEST PUSH2 0x2F2F DUP3 DUP3 DUP6 PUSH2 0x2E6F JUMP JUMPDEST PUSH0 PUSH1 0x20 SWAP1 POP PUSH1 0x1F DUP4 GT PUSH1 0x1 DUP2 EQ PUSH2 0x2F60 JUMPI PUSH0 DUP5 ISZERO PUSH2 0x2F4E JUMPI DUP3 DUP8 ADD MLOAD SWAP1 POP JUMPDEST PUSH2 0x2F58 DUP6 DUP3 PUSH2 0x2EDD JUMP JUMPDEST DUP7 SSTORE POP PUSH2 0x2FBF JUMP JUMPDEST PUSH1 0x1F NOT DUP5 AND PUSH2 0x2F6E DUP7 PUSH2 0x2D5B JUMP JUMPDEST PUSH0 JUMPDEST DUP3 DUP2 LT ISZERO PUSH2 0x2F95 JUMPI DUP5 DUP10 ADD MLOAD DUP3 SSTORE PUSH1 0x1 DUP3 ADD SWAP2 POP PUSH1 0x20 DUP6 ADD SWAP5 POP PUSH1 0x20 DUP2 ADD SWAP1 POP PUSH2 0x2F70 JUMP JUMPDEST DUP7 DUP4 LT ISZERO PUSH2 0x2FB2 JUMPI DUP5 DUP10 ADD MLOAD PUSH2 0x2FAE PUSH1 0x1F DUP10 AND DUP3 PUSH2 0x2EC1 JUMP JUMPDEST DUP4 SSTORE POP JUMPDEST PUSH1 0x1 PUSH1 0x2 DUP9 MUL ADD DUP9 SSTORE POP POP POP JUMPDEST POP POP POP POP POP POP JUMP JUMPDEST PUSH0 PUSH2 0x2FD1 DUP3 PUSH2 0x22A2 JUMP JUMPDEST SWAP2 POP PUSH2 0x2FDC DUP4 PUSH2 0x22A2 JUMP JUMPDEST SWAP3 POP DUP3 DUP3 ADD SWAP1 POP DUP1 DUP3 GT ISZERO PUSH2 0x2FF4 JUMPI PUSH2 0x2FF3 PUSH2 0x2C8A JUMP JUMPDEST JUMPDEST SWAP3 SWAP2 POP POP JUMP JUMPDEST PUSH0 PUSH1 0x60 DUP3 ADD SWAP1 POP DUP2 DUP2 SUB PUSH0 DUP4 ADD MSTORE PUSH2 0x3012 DUP2 DUP7 PUSH2 0x28B2 JUMP JUMPDEST SWAP1 POP PUSH2 0x3021 PUSH1 0x20 DUP4 ADD DUP6 PUSH2 0x25BF JUMP JUMPDEST PUSH2 0x302E PUSH1 0x40 DUP4 ADD DUP5 PUSH2 0x25BF JUMP JUMPDEST SWAP5 SWAP4 POP POP POP POP JUMP JUMPDEST PUSH32 0x42696464696E6720636C6F736564000000000000000000000000000000000000 PUSH0 DUP3 ADD MSTORE POP JUMP JUMPDEST PUSH0 PUSH2 0x306A PUSH1 0xE DUP4 PUSH2 0x2894 JUMP JUMPDEST SWAP2 POP PUSH2 0x3075 DUP3 PUSH2 0x3036 JUMP JUMPDEST PUSH1 0x20 DUP3 ADD SWAP1 POP SWAP2 SWAP1 POP JUMP JUMPDEST PUSH0 PUSH1 0x20 DUP3 ADD SWAP1 POP DUP2 DUP2 SUB PUSH0 DUP4 ADD MSTORE PUSH2 0x3097 DUP2 PUSH2 0x305E JUMP JUMPDEST SWAP1 POP SWAP2 SWAP1 POP JUMP JUMPDEST PUSH32 0x42696464696E6720706572696F6420656E646564000000000000000000000000 PUSH0 DUP3 ADD MSTORE POP JUMP JUMPDEST PUSH0 PUSH2 0x30D2 PUSH1 0x14 DUP4 PUSH2 0x2894 JUMP JUMPDEST SWAP2 POP PUSH2 0x30DD DUP3 PUSH2 0x309E JUMP JUMPDEST PUSH1 0x20 DUP3 ADD SWAP1 POP SWAP2 SWAP1 POP JUMP JUMPDEST PUSH0 PUSH1 0x20 DUP3 ADD SWAP1 POP DUP2 DUP2 SUB PUSH0 DUP4 ADD MSTORE PUSH2 0x30FF DUP2 PUSH2 0x30C6 JUMP JUMPDEST SWAP1 POP SWAP2 SWAP1 POP JUMP JUMPDEST PUSH32 0x496E76616C696420736861726520616D6F756E74000000000000000000000000 PUSH0 DUP3 ADD MSTORE POP JUMP JUMPDEST PUSH0 PUSH2 0x313A PUSH1 0x14 DUP4 PUSH2 0x2894 JUMP JUMPDEST SWAP2 POP PUSH2 0x3145 DUP3 PUSH2 0x3106 JUMP JUMPDEST PUSH1 0x20 DUP3 ADD SWAP1 POP SWAP2 SWAP1 POP JUMP JUMPDEST PUSH0 PUSH1 0x20 DUP3 ADD SWAP1 POP DUP2 DUP2 SUB PUSH0 DUP4 ADD MSTORE PUSH2 0x3167 DUP2 PUSH2 0x312E JUMP JUMPDEST SWAP1 POP SWAP2 SWAP1 POP JUMP JUMPDEST PUSH0 PUSH1 0x40 DUP3 ADD SWAP1 POP PUSH2 0x3181 PUSH0 DUP4 ADD DUP6 PUSH2 0x25BF JUMP JUMPDEST PUSH2 0x318E PUSH1 0x20 DUP4 ADD DUP5 PUSH2 0x25BF JUMP JUMPDEST SWAP4 SWAP3 POP POP POP JUMP JUMPDEST PUSH32 0x42696464696E6720706572696F64206F6E676F696E6700000000000000000000 PUSH0 DUP3 ADD MSTORE POP JUMP JUMPDEST PUSH0 PUSH2 0x31C9 PUSH1 0x16 DUP4 PUSH2 0x2894 JUMP JUMPDEST SWAP2 POP PUSH2 0x31D4 DUP3 PUSH2 0x3195 JUMP JUMPDEST PUSH1 0x20 DUP3 ADD SWAP1 POP SWAP2 SWAP1 POP JUMP JUMPDEST PUSH0 PUSH1 0x20 DUP3 ADD SWAP1 POP DUP2 DUP2 SUB PUSH0 DUP4 ADD MSTORE PUSH2 0x31F6 DUP2 PUSH2 0x31BD JUMP JUMPDEST SWAP1 POP SWAP2 SWAP1 POP JUMP JUMPDEST PUSH32 0x5265656E7472616E637947756172643A207265656E7472616E742063616C6C00 PUSH0 DUP3 ADD MSTORE POP JUMP JUMPDEST PUSH0 PUSH2 0x3231 PUSH1 0x1F DUP4 PUSH2 0x2894 JUMP JUMPDEST SWAP2 POP PUSH2 0x323C DUP3 PUSH2 0x31FD JUMP JUMPDEST PUSH1 0x20 DUP3 ADD SWAP1 POP SWAP2 SWAP1 POP JUMP JUMPDEST PUSH0 PUSH1 0x20 DUP3 ADD SWAP1 POP DUP2 DUP2 SUB PUSH0 DUP4 ADD MSTORE PUSH2 0x325E DUP2 PUSH2 0x3225 JUMP JUMPDEST SWAP1 POP SWAP2 SWAP1 POP JUMP JUMPDEST PUSH32 0x4E487B7100000000000000000000000000000000000000000000000000000000 PUSH0 MSTORE PUSH1 0x12 PUSH1 0x4 MSTORE PUSH1 0x24 PUSH0 REVERT JUMPDEST PUSH0 PUSH2 0x329C DUP3 PUSH2 0x22A2 JUMP JUMPDEST SWAP2 POP PUSH2 0x32A7 DUP4 PUSH2 0x22A2 JUMP JUMPDEST SWAP3 POP DUP3 PUSH2 0x32B7 JUMPI PUSH2 0x32B6 PUSH2 0x3265 JUMP JUMPDEST JUMPDEST DUP3 DUP3 DIV SWAP1 POP SWAP3 SWAP2 POP POP JUMP JUMPDEST PUSH0 PUSH2 0x32CC DUP3 PUSH2 0x22A2 JUMP JUMPDEST SWAP2 POP PUSH2 0x32D7 DUP4 PUSH2 0x22A2 JUMP JUMPDEST SWAP3 POP DUP3 DUP3 MUL PUSH2 0x32E5 DUP2 PUSH2 0x22A2 JUMP JUMPDEST SWAP2 POP DUP3 DUP3 DIV DUP5 EQ DUP4 ISZERO OR PUSH2 0x32FC JUMPI PUSH2 0x32FB PUSH2 0x2C8A JUMP JUMPDEST JUMPDEST POP SWAP3 SWAP2 POP POP JUMP JUMPDEST PUSH0 PUSH2 0x330D DUP3 PUSH2 0x22A2 JUMP JUMPDEST SWAP2 POP PUSH2 0x3318 DUP4 PUSH2 0x22A2 JUMP JUMPDEST SWAP3 POP DUP3 DUP3 SUB SWAP1 POP DUP2 DUP2 GT ISZERO PUSH2 0x3330 JUMPI PUSH2 0x332F PUSH2 0x2C8A JUMP JUMPDEST JUMPDEST SWAP3 SWAP2 POP POP JUMP INVALID LOG2 PUSH5 0x6970667358 0x22 SLT KECCAK256 SLOAD CREATE2 TSTORE 0xE4 DUP7 MULMOD 0x2A DUP8 0xD4 PUSH27 0x9158D8BD3E74623D2C05290816443542814A01D4B7F464736F6C63 NUMBER STOP ADDMOD BYTE STOP CALLER "
				},
				"gasEstimates": {
					"creation": {
						"codeDepositCost": "2632800",
						"executionCost": "24965",
						"totalCost": "2657765"
					},
					"external": {
						"assetBids(uint256,uint256)": "infinite",
						"assetCount()": "2535",
						"assets(uint256)": "infinite",
						"createAssetOffering(string,uint256,uint256,uint256,uint256)": "infinite",
						"endBidding(uint256)": "infinite",
						"executeBidding(uint256)": "infinite",
						"getAssetBasicDetails(uint256)": "infinite",
						"getAssetBids(uint256)": "infinite",
						"getAssetOwners(uint256)": "infinite",
						"getLatestAssetCount()": "2477",
						"placeBid(uint256,uint256)": "infinite"
					},
					"internal": {
						"_processBids(uint256)": "infinite",
						"_refundAllBids(uint256)": "infinite",
						"_sortBids(uint256)": "infinite"
					}
				},
				"methodIdentifiers": {
					"assetBids(uint256,uint256)": "a3d5f1e5",
					"assetCount()": "eafe7a74",
					"assets(uint256)": "cf35bdd0",
					"createAssetOffering(string,uint256,uint256,uint256,uint256)": "503e0578",
					"endBidding(uint256)": "093755ad",
					"executeBidding(uint256)": "b468e0b0",
					"getAssetBasicDetails(uint256)": "b18cc358",
					"getAssetBids(uint256)": "0392cc45",
					"getAssetOwners(uint256)": "686735c5",
					"getLatestAssetCount()": "47582610",
					"placeBid(uint256,uint256)": "57c90de5"
				}
			},
			"storageLayout": {
				"storage": [
					{
						"astId": 10,
						"contract": "initial-offering.sol:LuxuryAssetOffering",
						"label": "_status",
						"offset": 0,
						"slot": "0",
						"type": "t_uint256"
					},
					{
						"astId": 429,
						"contract": "initial-offering.sol:LuxuryAssetOffering",
						"label": "assets",
						"offset": 0,
						"slot": "1",
						"type": "t_mapping(t_uint256,t_struct(Asset)415_storage)"
					},
					{
						"astId": 435,
						"contract": "initial-offering.sol:LuxuryAssetOffering",
						"label": "assetBids",
						"offset": 0,
						"slot": "2",
						"type": "t_mapping(t_uint256,t_array(t_struct(Bid)424_storage)dyn_storage)"
					},
					{
						"astId": 437,
						"contract": "initial-offering.sol:LuxuryAssetOffering",
						"label": "assetCount",
						"offset": 0,
						"slot": "3",
						"type": "t_uint256"
					}
				],
				"types": {
					"t_address": {
						"encoding": "inplace",
						"label": "address",
						"numberOfBytes": "20"
					},
					"t_array(t_address)dyn_storage": {
						"base": "t_address",
						"encoding": "dynamic_array",
						"label": "address[]",
						"numberOfBytes": "32"
					},
					"t_array(t_struct(Bid)424_storage)dyn_storage": {
						"base": "t_struct(Bid)424_storage",
						"encoding": "dynamic_array",
						"label": "struct LuxuryAssetOffering.Bid[]",
						"numberOfBytes": "32"
					},
					"t_bool": {
						"encoding": "inplace",
						"label": "bool",
						"numberOfBytes": "1"
					},
					"t_mapping(t_address,t_struct(AssetOwner)392_storage)": {
						"encoding": "mapping",
						"key": "t_address",
						"label": "mapping(address => struct LuxuryAssetOffering.AssetOwner)",
						"numberOfBytes": "32",
						"value": "t_struct(AssetOwner)392_storage"
					},
					"t_mapping(t_uint256,t_array(t_struct(Bid)424_storage)dyn_storage)": {
						"encoding": "mapping",
						"key": "t_uint256",
						"label": "mapping(uint256 => struct LuxuryAssetOffering.Bid[])",
						"numberOfBytes": "32",
						"value": "t_array(t_struct(Bid)424_storage)dyn_storage"
					},
					"t_mapping(t_uint256,t_struct(Asset)415_storage)": {
						"encoding": "mapping",
						"key": "t_uint256",
						"label": "mapping(uint256 => struct LuxuryAssetOffering.Asset)",
						"numberOfBytes": "32",
						"value": "t_struct(Asset)415_storage"
					},
					"t_string_storage": {
						"encoding": "bytes",
						"label": "string",
						"numberOfBytes": "32"
					},
					"t_struct(Asset)415_storage": {
						"encoding": "inplace",
						"label": "struct LuxuryAssetOffering.Asset",
						"members": [
							{
								"astId": 394,
								"contract": "initial-offering.sol:LuxuryAssetOffering",
								"label": "originalOwner",
								"offset": 0,
								"slot": "0",
								"type": "t_address"
							},
							{
								"astId": 396,
								"contract": "initial-offering.sol:LuxuryAssetOffering",
								"label": "name",
								"offset": 0,
								"slot": "1",
								"type": "t_string_storage"
							},
							{
								"astId": 398,
								"contract": "initial-offering.sol:LuxuryAssetOffering",
								"label": "totalShares",
								"offset": 0,
								"slot": "2",
								"type": "t_uint256"
							},
							{
								"astId": 400,
								"contract": "initial-offering.sol:LuxuryAssetOffering",
								"label": "sharesRemaining",
								"offset": 0,
								"slot": "3",
								"type": "t_uint256"
							},
							{
								"astId": 402,
								"contract": "initial-offering.sol:LuxuryAssetOffering",
								"label": "minimumTotalPrice",
								"offset": 0,
								"slot": "4",
								"type": "t_uint256"
							},
							{
								"astId": 404,
								"contract": "initial-offering.sol:LuxuryAssetOffering",
								"label": "biddingClosed",
								"offset": 0,
								"slot": "5",
								"type": "t_bool"
							},
							{
								"astId": 406,
								"contract": "initial-offering.sol:LuxuryAssetOffering",
								"label": "biddingEndTime",
								"offset": 0,
								"slot": "6",
								"type": "t_uint256"
							},
							{
								"astId": 409,
								"contract": "initial-offering.sol:LuxuryAssetOffering",
								"label": "ownerAddresses",
								"offset": 0,
								"slot": "7",
								"type": "t_array(t_address)dyn_storage"
							},
							{
								"astId": 414,
								"contract": "initial-offering.sol:LuxuryAssetOffering",
								"label": "owners",
								"offset": 0,
								"slot": "8",
								"type": "t_mapping(t_address,t_struct(AssetOwner)392_storage)"
							}
						],
						"numberOfBytes": "288"
					},
					"t_struct(AssetOwner)392_storage": {
						"encoding": "inplace",
						"label": "struct LuxuryAssetOffering.AssetOwner",
						"members": [
							{
								"astId": 387,
								"contract": "initial-offering.sol:LuxuryAssetOffering",
								"label": "ownerAddress",
								"offset": 0,
								"slot": "0",
								"type": "t_address"
							},
							{
								"astId": 389,
								"contract": "initial-offering.sol:LuxuryAssetOffering",
								"label": "shares",
								"offset": 0,
								"slot": "1",
								"type": "t_uint256"
							},
							{
								"astId": 391,
								"contract": "initial-offering.sol:LuxuryAssetOffering",
								"label": "exists",
								"offset": 0,
								"slot": "2",
								"type": "t_bool"
							}
						],
						"numberOfBytes": "96"
					},
					"t_struct(Bid)424_storage": {
						"encoding": "inplace",
						"label": "struct LuxuryAssetOffering.Bid",
						"members": [
							{
								"astId": 417,
								"contract": "initial-offering.sol:LuxuryAssetOffering",
								"label": "bidder",
								"offset": 0,
								"slot": "0",
								"type": "t_address"
							},
							{
								"astId": 419,
								"contract": "initial-offering.sol:LuxuryAssetOffering",
								"label": "shareAmount",
								"offset": 0,
								"slot": "1",
								"type": "t_uint256"
							},
							{
								"astId": 421,
								"contract": "initial-offering.sol:LuxuryAssetOffering",
								"label": "pricePerShare",
								"offset": 0,
								"slot": "2",
								"type": "t_uint256"
							},
							{
								"astId": 423,
								"contract": "initial-offering.sol:LuxuryAssetOffering",
								"label": "allocated",
								"offset": 0,
								"slot": "3",
								"type": "t_bool"
							}
						],
						"numberOfBytes": "128"
					},
					"t_uint256": {
						"encoding": "inplace",
						"label": "uint256",
						"numberOfBytes": "32"
					}
				}
			},
			"userdoc": {
				"kind": "user",
				"methods": {},
				"version": 1
			}
		}
	}
}