{
	"initial-offering.sol": {
		"LuxuryAssetOffering": {
			"abi": [
				{
					"anonymous": false,
					"inputs": [
						{
							"indexed": false,
							"internalType": "uint256",
							"name": "newCount",
							"type": "uint256"
						}
					],
					"name": "AssetCountUpdated",
					"type": "event"
				},
				{
					"anonymous": false,
					"inputs": [
						{
							"indexed": true,
							"internalType": "uint256",
							"name": "assetId",
							"type": "uint256"
						},
						{
							"indexed": true,
							"internalType": "address",
							"name": "originalOwner",
							"type": "address"
						},
						{
							"indexed": false,
							"internalType": "string",
							"name": "name",
							"type": "string"
						},
						{
							"indexed": false,
							"internalType": "uint256",
							"name": "totalShares",
							"type": "uint256"
						},
						{
							"indexed": false,
							"internalType": "uint256",
							"name": "minimumTotalPrice",
							"type": "uint256"
						}
					],
					"name": "AssetCreated",
					"type": "event"
				},
				{
					"anonymous": false,
					"inputs": [
						{
							"indexed": true,
							"internalType": "uint256",
							"name": "assetId",
							"type": "uint256"
						},
						{
							"indexed": true,
							"internalType": "address",
							"name": "bidder",
							"type": "address"
						},
						{
							"indexed": false,
							"internalType": "uint256",
							"name": "shares",
							"type": "uint256"
						},
						{
							"indexed": false,
							"internalType": "uint256",
							"name": "price",
							"type": "uint256"
						}
					],
					"name": "BidPlaced",
					"type": "event"
				},
				{
					"anonymous": false,
					"inputs": [
						{
							"indexed": true,
							"internalType": "uint256",
							"name": "assetId",
							"type": "uint256"
						},
						{
							"indexed": false,
							"internalType": "bool",
							"name": "successful",
							"type": "bool"
						},
						{
							"indexed": false,
							"internalType": "uint256",
							"name": "timestamp",
							"type": "uint256"
						}
					],
					"name": "BiddingEnded",
					"type": "event"
				},
				{
					"anonymous": false,
					"inputs": [
						{
							"indexed": true,
							"internalType": "uint256",
							"name": "assetId",
							"type": "uint256"
						},
						{
							"indexed": true,
							"internalType": "address",
							"name": "owner",
							"type": "address"
						},
						{
							"indexed": false,
							"internalType": "uint256",
							"name": "shares",
							"type": "uint256"
						}
					],
					"name": "OwnerAdded",
					"type": "event"
				},
				{
					"anonymous": false,
					"inputs": [
						{
							"indexed": true,
							"internalType": "address",
							"name": "bidder",
							"type": "address"
						},
						{
							"indexed": false,
							"internalType": "uint256",
							"name": "amount",
							"type": "uint256"
						}
					],
					"name": "RefundIssued",
					"type": "event"
				},
				{
					"anonymous": false,
					"inputs": [
						{
							"indexed": true,
							"internalType": "uint256",
							"name": "assetId",
							"type": "uint256"
						},
						{
							"indexed": true,
							"internalType": "address",
							"name": "bidder",
							"type": "address"
						},
						{
							"indexed": false,
							"internalType": "uint256",
							"name": "shares",
							"type": "uint256"
						},
						{
							"indexed": false,
							"internalType": "uint256",
							"name": "price",
							"type": "uint256"
						}
					],
					"name": "SharesAllocated",
					"type": "event"
				},
				{
					"inputs": [
						{
							"internalType": "uint256",
							"name": "",
							"type": "uint256"
						},
						{
							"internalType": "uint256",
							"name": "",
							"type": "uint256"
						}
					],
					"name": "assetBids",
					"outputs": [
						{
							"internalType": "address",
							"name": "bidder",
							"type": "address"
						},
						{
							"internalType": "uint256",
							"name": "shareAmount",
							"type": "uint256"
						},
						{
							"internalType": "uint256",
							"name": "pricePerShare",
							"type": "uint256"
						},
						{
							"internalType": "bool",
							"name": "allocated",
							"type": "bool"
						}
					],
					"stateMutability": "view",
					"type": "function"
				},
				{
					"inputs": [],
					"name": "assetCount",
					"outputs": [
						{
							"internalType": "uint256",
							"name": "",
							"type": "uint256"
						}
					],
					"stateMutability": "view",
					"type": "function"
				},
				{
					"inputs": [
						{
							"internalType": "uint256",
							"name": "",
							"type": "uint256"
						}
					],
					"name": "assets",
					"outputs": [
						{
							"internalType": "address",
							"name": "originalOwner",
							"type": "address"
						},
						{
							"internalType": "string",
							"name": "name",
							"type": "string"
						},
						{
							"internalType": "uint256",
							"name": "totalShares",
							"type": "uint256"
						},
						{
							"internalType": "uint256",
							"name": "sharesRemaining",
							"type": "uint256"
						},
						{
							"internalType": "uint256",
							"name": "minimumTotalPrice",
							"type": "uint256"
						},
						{
							"internalType": "bool",
							"name": "biddingClosed",
							"type": "bool"
						},
						{
							"internalType": "uint256",
							"name": "biddingEndTime",
							"type": "uint256"
						}
					],
					"stateMutability": "view",
					"type": "function"
				},
				{
					"inputs": [
						{
							"internalType": "string",
							"name": "_name",
							"type": "string"
						},
						{
							"internalType": "uint256",
							"name": "_totalShares",
							"type": "uint256"
						},
						{
							"internalType": "uint256",
							"name": "_minPricePerShare",
							"type": "uint256"
						},
						{
							"internalType": "uint256",
							"name": "_minimumTotalPrice",
							"type": "uint256"
						},
						{
							"internalType": "uint256",
							"name": "_biddingDuration",
							"type": "uint256"
						}
					],
					"name": "createAssetOffering",
					"outputs": [],
					"stateMutability": "nonpayable",
					"type": "function"
				},
				{
					"inputs": [
						{
							"internalType": "uint256",
							"name": "_assetId",
							"type": "uint256"
						}
					],
					"name": "endBidding",
					"outputs": [],
					"stateMutability": "nonpayable",
					"type": "function"
				},
				{
					"inputs": [
						{
							"internalType": "uint256",
							"name": "_assetId",
							"type": "uint256"
						}
					],
					"name": "executeBidding",
					"outputs": [],
					"stateMutability": "nonpayable",
					"type": "function"
				},
				{
					"inputs": [
						{
							"internalType": "uint256",
							"name": "_assetId",
							"type": "uint256"
						}
					],
					"name": "getAssetBasicDetails",
					"outputs": [
						{
							"internalType": "address",
							"name": "originalOwner",
							"type": "address"
						},
						{
							"internalType": "string",
							"name": "name",
							"type": "string"
						},
						{
							"internalType": "uint256",
							"name": "totalShares",
							"type": "uint256"
						},
						{
							"internalType": "uint256",
							"name": "sharesRemaining",
							"type": "uint256"
						},
						{
							"internalType": "uint256",
							"name": "minimumTotalPrice",
							"type": "uint256"
						},
						{
							"internalType": "bool",
							"name": "biddingClosed",
							"type": "bool"
						},
						{
							"internalType": "uint256",
							"name": "biddingEndTime",
							"type": "uint256"
						}
					],
					"stateMutability": "view",
					"type": "function"
				},
				{
					"inputs": [
						{
							"internalType": "uint256",
							"name": "_assetId",
							"type": "uint256"
						}
					],
					"name": "getAssetBids",
					"outputs": [
						{
							"internalType": "address[]",
							"name": "bidders",
							"type": "address[]"
						},
						{
							"internalType": "uint256[]",
							"name": "shareAmounts",
							"type": "uint256[]"
						},
						{
							"internalType": "uint256[]",
							"name": "pricesPerShare",
							"type": "uint256[]"
						},
						{
							"internalType": "bool[]",
							"name": "allocated",
							"type": "bool[]"
						}
					],
					"stateMutability": "view",
					"type": "function"
				},
				{
					"inputs": [
						{
							"internalType": "uint256",
							"name": "_assetId",
							"type": "uint256"
						}
					],
					"name": "getAssetOwners",
					"outputs": [
						{
							"internalType": "address[]",
							"name": "ownerAddresses",
							"type": "address[]"
						},
						{
							"internalType": "uint256[]",
							"name": "ownerShares",
							"type": "uint256[]"
						}
					],
					"stateMutability": "view",
					"type": "function"
				},
				{
					"inputs": [],
					"name": "getLatestAssetCount",
					"outputs": [
						{
							"internalType": "uint256",
							"name": "",
							"type": "uint256"
						}
					],
					"stateMutability": "view",
					"type": "function"
				},
				{
					"inputs": [
						{
							"internalType": "uint256",
							"name": "_assetId",
							"type": "uint256"
						},
						{
							"internalType": "uint256",
							"name": "_shareAmount",
							"type": "uint256"
						}
					],
					"name": "placeBid",
					"outputs": [],
					"stateMutability": "payable",
					"type": "function"
				}
			],
			"devdoc": {
				"kind": "dev",
				"methods": {},
				"version": 1
			},
			"evm": {
				"assembly": "    /* \"initial-offering.sol\":179:13173  contract LuxuryAssetOffering is ReentrancyGuard {... */\n  mstore(0x40, 0x80)\n  callvalue\n  dup1\n  iszero\n  tag_1\n  jumpi\n  0x00\n  dup1\n  revert\ntag_1:\n  pop\n    /* \"@openzeppelin/contracts/security/ReentrancyGuard.sol\":1716:1717  1 */\n  0x01\n    /* \"@openzeppelin/contracts/security/ReentrancyGuard.sol\":1821:1828  _status */\n  0x00\n    /* \"@openzeppelin/contracts/security/ReentrancyGuard.sol\":1821:1843  _status = _NOT_ENTERED */\n  sstore\n    /* \"initial-offering.sol\":179:13173  contract LuxuryAssetOffering is ReentrancyGuard {... */\n  dataSize(sub_0)\n  dup1\n  dataOffset(sub_0)\n  0x00\n  codecopy\n  0x00\n  return\nstop\n\nsub_0: assembly {\n        /* \"initial-offering.sol\":179:13173  contract LuxuryAssetOffering is ReentrancyGuard {... */\n      mstore(0x40, 0x80)\n      jumpi(tag_1, lt(calldatasize, 0x04))\n      shr(0xe0, calldataload(0x00))\n      dup1\n      0x686735c5\n      gt\n      tag_13\n      jumpi\n      dup1\n      0x686735c5\n      eq\n      tag_7\n      jumpi\n      dup1\n      0xa3d5f1e5\n      eq\n      tag_8\n      jumpi\n      dup1\n      0xb18cc358\n      eq\n      tag_9\n      jumpi\n      dup1\n      0xb468e0b0\n      eq\n      tag_10\n      jumpi\n      dup1\n      0xcf35bdd0\n      eq\n      tag_11\n      jumpi\n      dup1\n      0xeafe7a74\n      eq\n      tag_12\n      jumpi\n      0x00\n      dup1\n      revert\n    tag_13:\n      dup1\n      0x0392cc45\n      eq\n      tag_2\n      jumpi\n      dup1\n      0x093755ad\n      eq\n      tag_3\n      jumpi\n      dup1\n      0x47582610\n      eq\n      tag_4\n      jumpi\n      dup1\n      0x503e0578\n      eq\n      tag_5\n      jumpi\n      dup1\n      0x57c90de5\n      eq\n      tag_6\n      jumpi\n    tag_1:\n      0x00\n      dup1\n      revert\n        /* \"initial-offering.sol\":5931:6859  function getAssetBids(uint256 _assetId) external view returns (... */\n    tag_2:\n      callvalue\n      dup1\n      iszero\n      tag_14\n      jumpi\n      0x00\n      dup1\n      revert\n    tag_14:\n      pop\n      tag_15\n      tag_16\n      calldatasize\n      0x04\n      tag_17\n      jump\t// in\n    tag_16:\n      tag_18\n      jump\t// in\n    tag_15:\n      mload(0x40)\n      tag_19\n      swap5\n      swap4\n      swap3\n      swap2\n      swap1\n      tag_20\n      jump\t// in\n    tag_19:\n      mload(0x40)\n      dup1\n      swap2\n      sub\n      swap1\n      return\n        /* \"initial-offering.sol\":6894:7440  function endBidding(uint256 _assetId) external nonReentrant {... */\n    tag_3:\n      callvalue\n      dup1\n      iszero\n      tag_21\n      jumpi\n      0x00\n      dup1\n      revert\n    tag_21:\n      pop\n      tag_22\n      tag_23\n      calldatasize\n      0x04\n      tag_17\n      jump\t// in\n    tag_23:\n      tag_24\n      jump\t// in\n    tag_22:\n      stop\n        /* \"initial-offering.sol\":3363:3460  function getLatestAssetCount() external view returns (uint256) {... */\n    tag_4:\n      callvalue\n      dup1\n      iszero\n      tag_25\n      jumpi\n      0x00\n      dup1\n      revert\n    tag_25:\n      pop\n        /* \"initial-offering.sol\":3443:3453  assetCount */\n      sload(0x03)\n        /* \"initial-offering.sol\":3363:3460  function getLatestAssetCount() external view returns (uint256) {... */\n    tag_26:\n      mload(0x40)\n        /* \"#utility.yul\":2475:2500   */\n      swap1\n      dup2\n      mstore\n        /* \"#utility.yul\":2463:2465   */\n      0x20\n        /* \"#utility.yul\":2448:2466   */\n      add\n        /* \"initial-offering.sol\":3363:3460  function getLatestAssetCount() external view returns (uint256) {... */\n      tag_19\n        /* \"#utility.yul\":2329:2506   */\n      jump\n        /* \"initial-offering.sol\":1848:3323  function createAssetOffering(... */\n    tag_5:\n      callvalue\n      dup1\n      iszero\n      tag_30\n      jumpi\n      0x00\n      dup1\n      revert\n    tag_30:\n      pop\n      tag_22\n      tag_32\n      calldatasize\n      0x04\n      tag_33\n      jump\t// in\n    tag_32:\n      tag_34\n      jump\t// in\n        /* \"initial-offering.sol\":5092:5888  function placeBid(uint256 _assetId, uint256 _shareAmount) external payable nonReentrant {... */\n    tag_6:\n      tag_22\n      tag_36\n      calldatasize\n      0x04\n      tag_37\n      jump\t// in\n    tag_36:\n      tag_38\n      jump\t// in\n        /* \"initial-offering.sol\":4309:5054  function getAssetOwners(uint256 _assetId) external view returns (... */\n    tag_7:\n      callvalue\n      dup1\n      iszero\n      tag_39\n      jumpi\n      0x00\n      dup1\n      revert\n    tag_39:\n      pop\n      tag_40\n      tag_41\n      calldatasize\n      0x04\n      tag_17\n      jump\t// in\n    tag_41:\n      tag_42\n      jump\t// in\n    tag_40:\n      mload(0x40)\n      tag_19\n      swap3\n      swap2\n      swap1\n      tag_44\n      jump\t// in\n        /* \"initial-offering.sol\":1057:1099  mapping(uint256 => Bid[]) public assetBids */\n    tag_8:\n      callvalue\n      dup1\n      iszero\n      tag_45\n      jumpi\n      0x00\n      dup1\n      revert\n    tag_45:\n      pop\n      tag_46\n      tag_47\n      calldatasize\n      0x04\n      tag_37\n      jump\t// in\n    tag_47:\n      tag_48\n      jump\t// in\n    tag_46:\n      0x40\n      dup1\n      mload\n      sub(shl(0xa0, 0x01), 0x01)\n        /* \"#utility.yul\":5143:5175   */\n      swap1\n      swap6\n      and\n        /* \"#utility.yul\":5125:5176   */\n      dup6\n      mstore\n        /* \"#utility.yul\":5207:5209   */\n      0x20\n        /* \"#utility.yul\":5192:5210   */\n      dup6\n      add\n        /* \"#utility.yul\":5185:5219   */\n      swap4\n      swap1\n      swap4\n      mstore\n        /* \"#utility.yul\":5235:5253   */\n      swap2\n      dup4\n      add\n        /* \"#utility.yul\":5228:5262   */\n      mstore\n        /* \"#utility.yul\":5305:5319   */\n      iszero\n        /* \"#utility.yul\":5298:5320   */\n      iszero\n        /* \"#utility.yul\":5293:5295   */\n      0x60\n        /* \"#utility.yul\":5278:5296   */\n      dup3\n      add\n        /* \"#utility.yul\":5271:5321   */\n      mstore\n        /* \"#utility.yul\":5112:5115   */\n      0x80\n        /* \"#utility.yul\":5097:5116   */\n      add\n        /* \"initial-offering.sol\":1057:1099  mapping(uint256 => Bid[]) public assetBids */\n      tag_19\n        /* \"#utility.yul\":4900:5327   */\n      jump\n        /* \"initial-offering.sol\":3501:4265  function getAssetBasicDetails(uint256 _assetId) external view returns (... */\n    tag_9:\n      callvalue\n      dup1\n      iszero\n      tag_51\n      jumpi\n      0x00\n      dup1\n      revert\n    tag_51:\n      pop\n      tag_52\n      tag_53\n      calldatasize\n      0x04\n      tag_17\n      jump\t// in\n    tag_53:\n      tag_54\n      jump\t// in\n    tag_52:\n      mload(0x40)\n      tag_19\n      swap8\n      swap7\n      swap6\n      swap5\n      swap4\n      swap3\n      swap2\n      swap1\n      tag_56\n      jump\t// in\n        /* \"initial-offering.sol\":7484:8118  function executeBidding(uint256 _assetId) external nonReentrant {... */\n    tag_10:\n      callvalue\n      dup1\n      iszero\n      tag_57\n      jumpi\n      0x00\n      dup1\n      revert\n    tag_57:\n      pop\n      tag_22\n      tag_59\n      calldatasize\n      0x04\n      tag_17\n      jump\t// in\n    tag_59:\n      tag_60\n      jump\t// in\n        /* \"initial-offering.sol\":1012:1051  mapping(uint256 => Asset) public assets */\n    tag_11:\n      callvalue\n      dup1\n      iszero\n      tag_61\n      jumpi\n      0x00\n      dup1\n      revert\n    tag_61:\n      pop\n      tag_52\n      tag_63\n      calldatasize\n      0x04\n      tag_17\n      jump\t// in\n    tag_63:\n      tag_64\n      jump\t// in\n        /* \"initial-offering.sol\":1105:1130  uint256 public assetCount */\n    tag_12:\n      callvalue\n      dup1\n      iszero\n      tag_66\n      jumpi\n      0x00\n      dup1\n      revert\n    tag_66:\n      pop\n      tag_26\n      sload(0x03)\n      dup2\n      jump\n        /* \"initial-offering.sol\":5931:6859  function getAssetBids(uint256 _assetId) external view returns (... */\n    tag_18:\n        /* \"initial-offering.sol\":6003:6027  address[] memory bidders */\n      0x60\n        /* \"initial-offering.sol\":6037:6066  uint256[] memory shareAmounts */\n      dup1\n        /* \"initial-offering.sol\":6076:6107  uint256[] memory pricesPerShare */\n      0x60\n        /* \"initial-offering.sol\":6117:6140  bool[] memory allocated */\n      dup1\n        /* \"initial-offering.sol\":6176:6177  0 */\n      0x00\n        /* \"initial-offering.sol\":6165:6173  _assetId */\n      dup6\n        /* \"initial-offering.sol\":6165:6177  _assetId > 0 */\n      gt\n        /* \"initial-offering.sol\":6165:6203  _assetId > 0 && _assetId <= assetCount */\n      dup1\n      iszero\n      tag_71\n      jumpi\n      pop\n        /* \"initial-offering.sol\":6193:6203  assetCount */\n      sload(0x03)\n        /* \"initial-offering.sol\":6181:6189  _assetId */\n      dup6\n        /* \"initial-offering.sol\":6181:6203  _assetId <= assetCount */\n      gt\n      iszero\n        /* \"initial-offering.sol\":6165:6203  _assetId > 0 && _assetId <= assetCount */\n    tag_71:\n        /* \"initial-offering.sol\":6157:6224  require(_assetId > 0 && _assetId <= assetCount, \"Invalid asset ID\") */\n      tag_72\n      jumpi\n      mload(0x40)\n      shl(0xe5, 0x461bcd)\n      dup2\n      mstore\n      0x04\n      add\n      tag_73\n      swap1\n      tag_74\n      jump\t// in\n    tag_73:\n      mload(0x40)\n      dup1\n      swap2\n      sub\n      swap1\n      revert\n    tag_72:\n        /* \"initial-offering.sol\":6243:6261  Bid[] storage bids */\n      0x00\n        /* \"initial-offering.sol\":6264:6283  assetBids[_assetId] */\n      dup6\n      dup2\n      mstore\n        /* \"initial-offering.sol\":6264:6273  assetBids */\n      0x02\n        /* \"initial-offering.sol\":6264:6283  assetBids[_assetId] */\n      0x20\n      mstore\n      0x40\n      swap1\n      keccak256\n        /* \"initial-offering.sol\":6312:6323  bids.length */\n      dup1\n      sload\n      dup1\n      sub(shl(0x40, 0x01), 0x01)\n        /* \"initial-offering.sol\":6352:6375  new address[](bidCount) */\n      dup2\n      gt\n      iszero\n      tag_76\n      jumpi\n      tag_76\n      tag_77\n      jump\t// in\n    tag_76:\n      mload(0x40)\n      swap1\n      dup1\n      dup3\n      mstore\n      dup1\n      0x20\n      mul\n      0x20\n      add\n      dup3\n      add\n      0x40\n      mstore\n      dup1\n      iszero\n      tag_78\n      jumpi\n      dup2\n      0x20\n      add\n      0x20\n      dup3\n      mul\n      dup1\n      calldatasize\n      dup4\n      calldatacopy\n      add\n      swap1\n      pop\n    tag_78:\n      pop\n        /* \"initial-offering.sol\":6342:6375  bidders = new address[](bidCount) */\n      swap6\n      pop\n        /* \"initial-offering.sol\":6414:6422  bidCount */\n      dup1\n      sub(shl(0x40, 0x01), 0x01)\n        /* \"initial-offering.sol\":6400:6423  new uint256[](bidCount) */\n      dup2\n      gt\n      iszero\n      tag_80\n      jumpi\n      tag_80\n      tag_77\n      jump\t// in\n    tag_80:\n      mload(0x40)\n      swap1\n      dup1\n      dup3\n      mstore\n      dup1\n      0x20\n      mul\n      0x20\n      add\n      dup3\n      add\n      0x40\n      mstore\n      dup1\n      iszero\n      tag_81\n      jumpi\n      dup2\n      0x20\n      add\n      0x20\n      dup3\n      mul\n      dup1\n      calldatasize\n      dup4\n      calldatacopy\n      add\n      swap1\n      pop\n    tag_81:\n      pop\n        /* \"initial-offering.sol\":6385:6423  shareAmounts = new uint256[](bidCount) */\n      swap5\n      pop\n        /* \"initial-offering.sol\":6464:6472  bidCount */\n      dup1\n      sub(shl(0x40, 0x01), 0x01)\n        /* \"initial-offering.sol\":6450:6473  new uint256[](bidCount) */\n      dup2\n      gt\n      iszero\n      tag_83\n      jumpi\n      tag_83\n      tag_77\n      jump\t// in\n    tag_83:\n      mload(0x40)\n      swap1\n      dup1\n      dup3\n      mstore\n      dup1\n      0x20\n      mul\n      0x20\n      add\n      dup3\n      add\n      0x40\n      mstore\n      dup1\n      iszero\n      tag_84\n      jumpi\n      dup2\n      0x20\n      add\n      0x20\n      dup3\n      mul\n      dup1\n      calldatasize\n      dup4\n      calldatacopy\n      add\n      swap1\n      pop\n    tag_84:\n      pop\n        /* \"initial-offering.sol\":6433:6473  pricesPerShare = new uint256[](bidCount) */\n      swap4\n      pop\n        /* \"initial-offering.sol\":6506:6514  bidCount */\n      dup1\n      sub(shl(0x40, 0x01), 0x01)\n        /* \"initial-offering.sol\":6495:6515  new bool[](bidCount) */\n      dup2\n      gt\n      iszero\n      tag_86\n      jumpi\n      tag_86\n      tag_77\n      jump\t// in\n    tag_86:\n      mload(0x40)\n      swap1\n      dup1\n      dup3\n      mstore\n      dup1\n      0x20\n      mul\n      0x20\n      add\n      dup3\n      add\n      0x40\n      mstore\n      dup1\n      iszero\n      tag_87\n      jumpi\n      dup2\n      0x20\n      add\n      0x20\n      dup3\n      mul\n      dup1\n      calldatasize\n      dup4\n      calldatacopy\n      add\n      swap1\n      pop\n    tag_87:\n      pop\n        /* \"initial-offering.sol\":6483:6515  allocated = new bool[](bidCount) */\n      swap3\n      pop\n        /* \"initial-offering.sol\":6539:6548  uint256 i */\n      0x00\n        /* \"initial-offering.sol\":6534:6777  for (uint256 i = 0; i < bidCount; i++) {... */\n    tag_88:\n        /* \"initial-offering.sol\":6558:6566  bidCount */\n      dup2\n        /* \"initial-offering.sol\":6554:6555  i */\n      dup2\n        /* \"initial-offering.sol\":6554:6566  i < bidCount */\n      lt\n        /* \"initial-offering.sol\":6534:6777  for (uint256 i = 0; i < bidCount; i++) {... */\n      iszero\n      tag_89\n      jumpi\n        /* \"initial-offering.sol\":6600:6604  bids */\n      dup3\n        /* \"initial-offering.sol\":6605:6606  i */\n      dup2\n        /* \"initial-offering.sol\":6600:6607  bids[i] */\n      dup2\n      sload\n      dup2\n      lt\n      tag_92\n      jumpi\n      tag_92\n      tag_93\n      jump\t// in\n    tag_92:\n      0x00\n      swap2\n      dup3\n      mstore\n      0x20\n      swap1\n      swap2\n      keccak256\n      0x04\n      swap1\n      swap2\n      mul\n      add\n        /* \"initial-offering.sol\":6600:6614  bids[i].bidder */\n      sload\n        /* \"initial-offering.sol\":6587:6597  bidders[i] */\n      dup8\n      mload\n      sub(shl(0xa0, 0x01), 0x01)\n        /* \"initial-offering.sol\":6600:6614  bids[i].bidder */\n      swap1\n      swap2\n      and\n      swap1\n        /* \"initial-offering.sol\":6587:6594  bidders */\n      dup9\n      swap1\n        /* \"initial-offering.sol\":6595:6596  i */\n      dup4\n      swap1\n        /* \"initial-offering.sol\":6587:6597  bidders[i] */\n      dup2\n      lt\n      tag_96\n      jumpi\n      tag_96\n      tag_93\n      jump\t// in\n    tag_96:\n      0x20\n      mul\n      0x20\n      add\n      add\n        /* \"initial-offering.sol\":6587:6614  bidders[i] = bids[i].bidder */\n      swap1\n      sub(shl(0xa0, 0x01), 0x01)\n      and\n      swap1\n      dup2\n      sub(shl(0xa0, 0x01), 0x01)\n      and\n      dup2\n      mstore\n      pop\n      pop\n        /* \"initial-offering.sol\":6646:6650  bids */\n      dup3\n        /* \"initial-offering.sol\":6651:6652  i */\n      dup2\n        /* \"initial-offering.sol\":6646:6653  bids[i] */\n      dup2\n      sload\n      dup2\n      lt\n      tag_98\n      jumpi\n      tag_98\n      tag_93\n      jump\t// in\n    tag_98:\n      swap1\n      0x00\n      mstore\n      keccak256(0x00, 0x20)\n      swap1\n      0x04\n      mul\n      add\n        /* \"initial-offering.sol\":6646:6665  bids[i].shareAmount */\n      0x01\n      add\n      sload\n        /* \"initial-offering.sol\":6628:6640  shareAmounts */\n      dup7\n        /* \"initial-offering.sol\":6641:6642  i */\n      dup3\n        /* \"initial-offering.sol\":6628:6643  shareAmounts[i] */\n      dup2\n      mload\n      dup2\n      lt\n      tag_101\n      jumpi\n      tag_101\n      tag_93\n      jump\t// in\n    tag_101:\n      0x20\n      mul\n      0x20\n      add\n      add\n        /* \"initial-offering.sol\":6628:6665  shareAmounts[i] = bids[i].shareAmount */\n      dup2\n      dup2\n      mstore\n      pop\n      pop\n        /* \"initial-offering.sol\":6699:6703  bids */\n      dup3\n        /* \"initial-offering.sol\":6704:6705  i */\n      dup2\n        /* \"initial-offering.sol\":6699:6706  bids[i] */\n      dup2\n      sload\n      dup2\n      lt\n      tag_103\n      jumpi\n      tag_103\n      tag_93\n      jump\t// in\n    tag_103:\n      swap1\n      0x00\n      mstore\n      keccak256(0x00, 0x20)\n      swap1\n      0x04\n      mul\n      add\n        /* \"initial-offering.sol\":6699:6720  bids[i].pricePerShare */\n      0x02\n      add\n      sload\n        /* \"initial-offering.sol\":6679:6693  pricesPerShare */\n      dup6\n        /* \"initial-offering.sol\":6694:6695  i */\n      dup3\n        /* \"initial-offering.sol\":6679:6696  pricesPerShare[i] */\n      dup2\n      mload\n      dup2\n      lt\n      tag_106\n      jumpi\n      tag_106\n      tag_93\n      jump\t// in\n    tag_106:\n      0x20\n      mul\n      0x20\n      add\n      add\n        /* \"initial-offering.sol\":6679:6720  pricesPerShare[i] = bids[i].pricePerShare */\n      dup2\n      dup2\n      mstore\n      pop\n      pop\n        /* \"initial-offering.sol\":6749:6753  bids */\n      dup3\n        /* \"initial-offering.sol\":6754:6755  i */\n      dup2\n        /* \"initial-offering.sol\":6749:6756  bids[i] */\n      dup2\n      sload\n      dup2\n      lt\n      tag_108\n      jumpi\n      tag_108\n      tag_93\n      jump\t// in\n    tag_108:\n      swap1\n      0x00\n      mstore\n      keccak256(0x00, 0x20)\n      swap1\n      0x04\n      mul\n      add\n        /* \"initial-offering.sol\":6749:6766  bids[i].allocated */\n      0x03\n      add\n      0x00\n      swap1\n      sload\n      swap1\n      0x0100\n      exp\n      swap1\n      div\n      0xff\n      and\n        /* \"initial-offering.sol\":6734:6743  allocated */\n      dup5\n        /* \"initial-offering.sol\":6744:6745  i */\n      dup3\n        /* \"initial-offering.sol\":6734:6746  allocated[i] */\n      dup2\n      mload\n      dup2\n      lt\n      tag_111\n      jumpi\n      tag_111\n      tag_93\n      jump\t// in\n    tag_111:\n        /* \"initial-offering.sol\":6734:6766  allocated[i] = bids[i].allocated */\n      swap2\n      iszero\n      iszero\n        /* \"initial-offering.sol\":6734:6746  allocated[i] */\n      0x20\n      swap3\n      dup4\n      mul\n      swap2\n      swap1\n      swap2\n      add\n      swap1\n      swap2\n      add\n        /* \"initial-offering.sol\":6734:6766  allocated[i] = bids[i].allocated */\n      mstore\n        /* \"initial-offering.sol\":6568:6571  i++ */\n      0x01\n      add\n        /* \"initial-offering.sol\":6534:6777  for (uint256 i = 0; i < bidCount; i++) {... */\n      jump(tag_88)\n    tag_89:\n      pop\n        /* \"initial-offering.sol\":6795:6852  return (bidders, shareAmounts, pricesPerShare, allocated) */\n      pop\n      pop\n        /* \"initial-offering.sol\":5931:6859  function getAssetBids(uint256 _assetId) external view returns (... */\n      swap2\n      swap4\n      pop\n      swap2\n      swap4\n      jump\t// out\n        /* \"initial-offering.sol\":6894:7440  function endBidding(uint256 _assetId) external nonReentrant {... */\n    tag_24:\n        /* \"@openzeppelin/contracts/security/ReentrancyGuard.sol\":2261:2282  _nonReentrantBefore() */\n      tag_113\n        /* \"@openzeppelin/contracts/security/ReentrancyGuard.sol\":2261:2280  _nonReentrantBefore */\n      tag_114\n        /* \"@openzeppelin/contracts/security/ReentrancyGuard.sol\":2261:2282  _nonReentrantBefore() */\n      jump\t// in\n    tag_113:\n        /* \"initial-offering.sol\":6964:6983  Asset storage asset */\n      0x00\n        /* \"initial-offering.sol\":6986:7002  assets[_assetId] */\n      dup2\n      dup2\n      mstore\n        /* \"initial-offering.sol\":6986:6992  assets */\n      0x01\n        /* \"initial-offering.sol\":6986:7002  assets[_assetId] */\n      0x20\n      mstore\n      0x40\n      swap1\n      keccak256\n        /* \"initial-offering.sol\":7034:7053  asset.originalOwner */\n      dup1\n      sload\n      sub(shl(0xa0, 0x01), 0x01)\n      and\n        /* \"initial-offering.sol\":7020:7030  msg.sender */\n      caller\n        /* \"initial-offering.sol\":7020:7053  msg.sender == asset.originalOwner */\n      eq\n        /* \"initial-offering.sol\":7012:7070  require(msg.sender == asset.originalOwner, \"Unauthorized\") */\n      tag_116\n      jumpi\n      mload(0x40)\n      shl(0xe5, 0x461bcd)\n      dup2\n      mstore\n      0x04\n      add\n      tag_73\n      swap1\n      tag_118\n      jump\t// in\n    tag_116:\n        /* \"initial-offering.sol\":7089:7108  asset.biddingClosed */\n      0x05\n      dup2\n      add\n      sload\n      0xff\n      and\n        /* \"initial-offering.sol\":7088:7108  !asset.biddingClosed */\n      iszero\n        /* \"initial-offering.sol\":7080:7135  require(!asset.biddingClosed, \"Bidding already closed\") */\n      tag_119\n      jumpi\n      mload(0x40)\n      shl(0xe5, 0x461bcd)\n      dup2\n      mstore\n      0x04\n      add\n      tag_73\n      swap1\n      tag_121\n      jump\t// in\n    tag_119:\n        /* \"initial-offering.sol\":7188:7207  asset.biddingClosed */\n      0x05\n      dup2\n      add\n        /* \"initial-offering.sol\":7188:7214  asset.biddingClosed = true */\n      dup1\n      sload\n      not(0xff)\n      and\n        /* \"initial-offering.sol\":7210:7214  true */\n      0x01\n        /* \"initial-offering.sol\":7188:7214  asset.biddingClosed = true */\n      or\n      swap1\n      sstore\n        /* \"initial-offering.sol\":7188:7207  asset.biddingClosed */\n      0x00\n        /* \"initial-offering.sol\":7273:7292  assetBids[_assetId] */\n      dup3\n      dup2\n      mstore\n        /* \"initial-offering.sol\":7273:7282  assetBids */\n      0x02\n        /* \"initial-offering.sol\":7273:7292  assetBids[_assetId] */\n      0x20\n      mstore\n      0x40\n      swap1\n      keccak256\n        /* \"initial-offering.sol\":7273:7299  assetBids[_assetId].length */\n      sload\n        /* \"initial-offering.sol\":7273:7303  assetBids[_assetId].length > 0 */\n      iszero\n        /* \"initial-offering.sol\":7270:7434  if(assetBids[_assetId].length > 0) {... */\n      tag_122\n      jumpi\n        /* \"initial-offering.sol\":7319:7341  _processBids(_assetId) */\n      tag_123\n        /* \"initial-offering.sol\":7332:7340  _assetId */\n      dup3\n        /* \"initial-offering.sol\":7319:7331  _processBids */\n      tag_124\n        /* \"initial-offering.sol\":7319:7341  _processBids(_assetId) */\n      jump\t// in\n    tag_123:\n        /* \"initial-offering.sol\":7270:7434  if(assetBids[_assetId].length > 0) {... */\n      jump(tag_125)\n    tag_122:\n        /* \"initial-offering.sol\":7377:7423  BiddingEnded(_assetId, false, block.timestamp) */\n      0x40\n      dup1\n      mload\n        /* \"initial-offering.sol\":7400:7405  false */\n      0x00\n        /* \"#utility.yul\":7766:7807   */\n      dup2\n      mstore\n        /* \"initial-offering.sol\":7407:7422  block.timestamp */\n      timestamp\n        /* \"#utility.yul\":7838:7840   */\n      0x20\n        /* \"#utility.yul\":7823:7841   */\n      dup3\n      add\n        /* \"#utility.yul\":7816:7850   */\n      mstore\n        /* \"initial-offering.sol\":7390:7398  _assetId */\n      dup4\n      swap2\n        /* \"initial-offering.sol\":7377:7423  BiddingEnded(_assetId, false, block.timestamp) */\n      0x4d7a5e450395fb8fb6b67c4751f80f057cd5a74550929306eff2cac7f0ecc188\n      swap2\n        /* \"#utility.yul\":7739:7757   */\n      add\n        /* \"initial-offering.sol\":7377:7423  BiddingEnded(_assetId, false, block.timestamp) */\n      mload(0x40)\n      dup1\n      swap2\n      sub\n      swap1\n      log2\n        /* \"initial-offering.sol\":7270:7434  if(assetBids[_assetId].length > 0) {... */\n    tag_125:\n        /* \"initial-offering.sol\":6954:7440  {... */\n      pop\n        /* \"@openzeppelin/contracts/security/ReentrancyGuard.sol\":2303:2323  _nonReentrantAfter() */\n      tag_128\n        /* \"@openzeppelin/contracts/security/ReentrancyGuard.sol\":1716:1717  1 */\n      0x01\n        /* \"@openzeppelin/contracts/security/ReentrancyGuard.sol\":2809:2816  _status */\n      0x00\n        /* \"@openzeppelin/contracts/security/ReentrancyGuard.sol\":2809:2831  _status = _NOT_ENTERED */\n      sstore\n        /* \"@openzeppelin/contracts/security/ReentrancyGuard.sol\":2629:2838  function _nonReentrantAfter() private {... */\n      jump\n        /* \"@openzeppelin/contracts/security/ReentrancyGuard.sol\":2303:2323  _nonReentrantAfter() */\n    tag_128:\n        /* \"initial-offering.sol\":6894:7440  function endBidding(uint256 _assetId) external nonReentrant {... */\n      pop\n      jump\t// out\n        /* \"initial-offering.sol\":1848:3323  function createAssetOffering(... */\n    tag_34:\n        /* \"initial-offering.sol\":2089:2090  0 */\n      0x00\n        /* \"initial-offering.sol\":2074:2086  _totalShares */\n      dup5\n        /* \"initial-offering.sol\":2074:2090  _totalShares > 0 */\n      gt\n        /* \"initial-offering.sol\":2066:2114  require(_totalShares > 0, \"Invalid share count\") */\n      tag_132\n      jumpi\n      mload(0x40)\n      shl(0xe5, 0x461bcd)\n      dup2\n      mstore\n        /* \"#utility.yul\":8063:8065   */\n      0x20\n        /* \"initial-offering.sol\":2066:2114  require(_totalShares > 0, \"Invalid share count\") */\n      0x04\n      dup3\n      add\n        /* \"#utility.yul\":8045:8066   */\n      mstore\n        /* \"#utility.yul\":8102:8104   */\n      0x13\n        /* \"#utility.yul\":8082:8100   */\n      0x24\n      dup3\n      add\n        /* \"#utility.yul\":8075:8105   */\n      mstore\n      shl(0x6a, 0x125b9d985b1a59081cda185c994818dbdd5b9d)\n        /* \"#utility.yul\":8121:8139   */\n      0x44\n      dup3\n      add\n        /* \"#utility.yul\":8114:8163   */\n      mstore\n        /* \"#utility.yul\":8180:8198   */\n      0x64\n      add\n        /* \"initial-offering.sol\":2066:2114  require(_totalShares > 0, \"Invalid share count\") */\n      tag_73\n        /* \"#utility.yul\":7861:8204   */\n      jump\n        /* \"initial-offering.sol\":2066:2114  require(_totalShares > 0, \"Invalid share count\") */\n    tag_132:\n        /* \"initial-offering.sol\":2152:2153  0 */\n      0x00\n        /* \"initial-offering.sol\":2132:2149  _minPricePerShare */\n      dup4\n        /* \"initial-offering.sol\":2132:2153  _minPricePerShare > 0 */\n      gt\n        /* \"initial-offering.sol\":2124:2189  require(_minPricePerShare > 0, \"Invalid minimum price per share\") */\n      tag_135\n      jumpi\n      mload(0x40)\n      shl(0xe5, 0x461bcd)\n      dup2\n      mstore\n        /* \"#utility.yul\":8411:8413   */\n      0x20\n        /* \"initial-offering.sol\":2124:2189  require(_minPricePerShare > 0, \"Invalid minimum price per share\") */\n      0x04\n      dup3\n      add\n        /* \"#utility.yul\":8393:8414   */\n      mstore\n        /* \"#utility.yul\":8450:8452   */\n      0x1f\n        /* \"#utility.yul\":8430:8448   */\n      0x24\n      dup3\n      add\n        /* \"#utility.yul\":8423:8453   */\n      mstore\n        /* \"#utility.yul\":8489:8522   */\n      0x496e76616c6964206d696e696d756d2070726963652070657220736861726500\n        /* \"#utility.yul\":8469:8487   */\n      0x44\n      dup3\n      add\n        /* \"#utility.yul\":8462:8523   */\n      mstore\n        /* \"#utility.yul\":8540:8558   */\n      0x64\n      add\n        /* \"initial-offering.sol\":2124:2189  require(_minPricePerShare > 0, \"Invalid minimum price per share\") */\n      tag_73\n        /* \"#utility.yul\":8209:8564   */\n      jump\n        /* \"initial-offering.sol\":2124:2189  require(_minPricePerShare > 0, \"Invalid minimum price per share\") */\n    tag_135:\n        /* \"initial-offering.sol\":2228:2229  0 */\n      0x00\n        /* \"initial-offering.sol\":2207:2225  _minimumTotalPrice */\n      dup3\n        /* \"initial-offering.sol\":2207:2229  _minimumTotalPrice > 0 */\n      gt\n        /* \"initial-offering.sol\":2199:2261  require(_minimumTotalPrice > 0, \"Invalid minimum total price\") */\n      tag_138\n      jumpi\n      mload(0x40)\n      shl(0xe5, 0x461bcd)\n      dup2\n      mstore\n        /* \"#utility.yul\":8771:8773   */\n      0x20\n        /* \"initial-offering.sol\":2199:2261  require(_minimumTotalPrice > 0, \"Invalid minimum total price\") */\n      0x04\n      dup3\n      add\n        /* \"#utility.yul\":8753:8774   */\n      mstore\n        /* \"#utility.yul\":8810:8812   */\n      0x1b\n        /* \"#utility.yul\":8790:8808   */\n      0x24\n      dup3\n      add\n        /* \"#utility.yul\":8783:8813   */\n      mstore\n        /* \"#utility.yul\":8849:8878   */\n      0x496e76616c6964206d696e696d756d20746f74616c2070726963650000000000\n        /* \"#utility.yul\":8829:8847   */\n      0x44\n      dup3\n      add\n        /* \"#utility.yul\":8822:8879   */\n      mstore\n        /* \"#utility.yul\":8896:8914   */\n      0x64\n      add\n        /* \"initial-offering.sol\":2199:2261  require(_minimumTotalPrice > 0, \"Invalid minimum total price\") */\n      tag_73\n        /* \"#utility.yul\":8569:8920   */\n      jump\n        /* \"initial-offering.sol\":2199:2261  require(_minimumTotalPrice > 0, \"Invalid minimum total price\") */\n    tag_138:\n        /* \"initial-offering.sol\":2301:2302  0 */\n      0x00\n        /* \"initial-offering.sol\":2285:2290  _name */\n      dup6\n        /* \"initial-offering.sol\":2279:2298  bytes(_name).length */\n      mload\n        /* \"initial-offering.sol\":2279:2302  bytes(_name).length > 0 */\n      gt\n        /* \"initial-offering.sol\":2271:2327  require(bytes(_name).length > 0, \"Name cannot be empty\") */\n      tag_141\n      jumpi\n      mload(0x40)\n      shl(0xe5, 0x461bcd)\n      dup2\n      mstore\n        /* \"#utility.yul\":9127:9129   */\n      0x20\n        /* \"initial-offering.sol\":2271:2327  require(bytes(_name).length > 0, \"Name cannot be empty\") */\n      0x04\n      dup3\n      add\n        /* \"#utility.yul\":9109:9130   */\n      mstore\n        /* \"#utility.yul\":9166:9168   */\n      0x14\n        /* \"#utility.yul\":9146:9164   */\n      0x24\n      dup3\n      add\n        /* \"#utility.yul\":9139:9169   */\n      mstore\n      shl(0x60, 0x4e616d652063616e6e6f7420626520656d707479)\n        /* \"#utility.yul\":9185:9203   */\n      0x44\n      dup3\n      add\n        /* \"#utility.yul\":9178:9228   */\n      mstore\n        /* \"#utility.yul\":9245:9263   */\n      0x64\n      add\n        /* \"initial-offering.sol\":2271:2327  require(bytes(_name).length > 0, \"Name cannot be empty\") */\n      tag_73\n        /* \"#utility.yul\":8925:9269   */\n      jump\n        /* \"initial-offering.sol\":2271:2327  require(bytes(_name).length > 0, \"Name cannot be empty\") */\n    tag_141:\n        /* \"initial-offering.sol\":2346:2356  assetCount */\n      0x03\n        /* \"initial-offering.sol\":2346:2358  assetCount++ */\n      dup1\n      sload\n      swap1\n        /* \"initial-offering.sol\":2346:2356  assetCount */\n      0x00\n        /* \"initial-offering.sol\":2346:2358  assetCount++ */\n      tag_144\n      dup4\n      tag_145\n      jump\t// in\n    tag_144:\n      swap1\n      swap2\n      sstore\n      pop\n      pop\n        /* \"initial-offering.sol\":2409:2419  assetCount */\n      sload(0x03)\n        /* \"initial-offering.sol\":2377:2399  Asset storage newAsset */\n      0x00\n        /* \"initial-offering.sol\":2402:2420  assets[assetCount] */\n      swap1\n      dup2\n      mstore\n        /* \"initial-offering.sol\":2402:2408  assets */\n      0x01\n        /* \"initial-offering.sol\":2402:2420  assets[assetCount] */\n      0x20\n      dup2\n      swap1\n      mstore\n      0x40\n      swap1\n      swap2\n      keccak256\n        /* \"initial-offering.sol\":2430:2465  newAsset.originalOwner = msg.sender */\n      dup1\n      sload\n      not(sub(shl(0xa0, 0x01), 0x01))\n      and\n        /* \"initial-offering.sol\":2455:2465  msg.sender */\n      caller\n        /* \"initial-offering.sol\":2430:2465  newAsset.originalOwner = msg.sender */\n      or\n      dup2\n      sstore\n        /* \"initial-offering.sol\":2402:2420  assets[assetCount] */\n      swap1\n        /* \"initial-offering.sol\":2475:2488  newAsset.name */\n      dup2\n      add\n        /* \"initial-offering.sol\":2475:2496  newAsset.name = _name */\n      tag_146\n        /* \"initial-offering.sol\":2491:2496  _name */\n      dup8\n        /* \"initial-offering.sol\":2475:2488  newAsset.name */\n      dup3\n        /* \"initial-offering.sol\":2475:2496  newAsset.name = _name */\n      tag_147\n      jump\t// in\n    tag_146:\n      pop\n        /* \"initial-offering.sol\":2506:2526  newAsset.totalShares */\n      0x02\n      dup2\n      add\n        /* \"initial-offering.sol\":2506:2541  newAsset.totalShares = _totalShares */\n      dup6\n      swap1\n      sstore\n        /* \"initial-offering.sol\":2551:2575  newAsset.sharesRemaining */\n      0x03\n      dup2\n      add\n        /* \"initial-offering.sol\":2551:2590  newAsset.sharesRemaining = _totalShares */\n      dup6\n      swap1\n      sstore\n        /* \"initial-offering.sol\":2658:2684  newAsset.minimumTotalPrice */\n      0x04\n      dup2\n      add\n        /* \"initial-offering.sol\":2658:2705  newAsset.minimumTotalPrice = _minimumTotalPrice */\n      dup4\n      swap1\n      sstore\n        /* \"initial-offering.sol\":2715:2737  newAsset.biddingClosed */\n      0x05\n      dup2\n      add\n        /* \"initial-offering.sol\":2715:2745  newAsset.biddingClosed = false */\n      dup1\n      sload\n      not(0xff)\n      and\n      swap1\n      sstore\n        /* \"initial-offering.sol\":2781:2815  block.timestamp + _biddingDuration */\n      tag_148\n        /* \"initial-offering.sol\":2799:2815  _biddingDuration */\n      dup3\n        /* \"initial-offering.sol\":2781:2796  block.timestamp */\n      timestamp\n        /* \"initial-offering.sol\":2781:2815  block.timestamp + _biddingDuration */\n      tag_149\n      jump\t// in\n    tag_148:\n        /* \"initial-offering.sol\":2755:2778  newAsset.biddingEndTime */\n      0x06\n      dup3\n      add\n        /* \"initial-offering.sol\":2755:2815  newAsset.biddingEndTime = block.timestamp + _biddingDuration */\n      sstore\n        /* \"initial-offering.sol\":2908:2931  newAsset.ownerAddresses */\n      0x07\n      dup2\n      add\n        /* \"initial-offering.sol\":2908:2948  newAsset.ownerAddresses.push(msg.sender) */\n      dup1\n      sload\n      0x01\n      dup1\n      dup3\n      add\n      dup4\n      sstore\n      0x00\n      swap3\n      dup4\n      mstore\n      0x20\n      dup1\n      dup5\n      keccak256\n      swap1\n      swap3\n      add\n      dup1\n      sload\n        /* \"initial-offering.sol\":2937:2947  msg.sender */\n      caller\n      not(sub(shl(0xa0, 0x01), 0x01))\n        /* \"initial-offering.sol\":2908:2948  newAsset.ownerAddresses.push(msg.sender) */\n      swap2\n      dup3\n      and\n      dup2\n      or\n      swap1\n      swap3\n      sstore\n        /* \"initial-offering.sol\":2988:3108  AssetOwner({... */\n      0x40\n      dup1\n      mload\n      0x60\n      dup2\n      add\n      dup3\n      mstore\n      dup4\n      dup2\n      mstore\n      dup1\n      dup7\n      add\n      dup13\n      dup2\n      mstore\n      dup2\n      dup4\n      add\n      dup7\n      dup2\n      mstore\n        /* \"initial-offering.sol\":2958:2985  newAsset.owners[msg.sender] */\n      dup6\n      dup10\n      mstore\n        /* \"initial-offering.sol\":2958:2973  newAsset.owners */\n      0x08\n      dup11\n      add\n        /* \"initial-offering.sol\":2958:2985  newAsset.owners[msg.sender] */\n      swap1\n      swap8\n      mstore\n      swap7\n      dup3\n      swap1\n      keccak256\n        /* \"initial-offering.sol\":2958:3108  newAsset.owners[msg.sender] = AssetOwner({... */\n      swap1\n      mload\n      dup2\n      sload\n      swap1\n      swap4\n      and\n      sub(shl(0xa0, 0x01), 0x01)\n      swap1\n      swap4\n      and\n      swap3\n      swap1\n      swap3\n      or\n      dup3\n      sstore\n      swap5\n      mload\n      swap3\n      dup2\n      add\n      swap3\n      swap1\n      swap3\n      sstore\n      swap2\n      mload\n      0x02\n      swap1\n      swap2\n      add\n      dup1\n      sload\n      not(0xff)\n      and\n      swap2\n      iszero\n      iszero\n      swap2\n      swap1\n      swap2\n      or\n      swap1\n      sstore\n        /* \"initial-offering.sol\":3145:3155  assetCount */\n      sload(0x03)\n        /* \"initial-offering.sol\":3132:3209  AssetCreated(assetCount, msg.sender, _name, _totalShares, _minimumTotalPrice) */\n      swap2\n      mload\n        /* \"initial-offering.sol\":2937:2947  msg.sender */\n      swap1\n      swap2\n        /* \"initial-offering.sol\":3145:3155  assetCount */\n      swap1\n        /* \"initial-offering.sol\":3132:3209  AssetCreated(assetCount, msg.sender, _name, _totalShares, _minimumTotalPrice) */\n      0x01b72beabfa8420e9b47a1c3d6764a97e2044c51b3368b66b161a5fc8ceebccf\n      swap1\n      tag_151\n      swap1\n        /* \"initial-offering.sol\":3169:3174  _name */\n      dup11\n      swap1\n        /* \"initial-offering.sol\":2988:3108  AssetOwner({... */\n      dup11\n      swap1\n        /* \"initial-offering.sol\":3190:3208  _minimumTotalPrice */\n      dup10\n      swap1\n        /* \"initial-offering.sol\":3132:3209  AssetCreated(assetCount, msg.sender, _name, _totalShares, _minimumTotalPrice) */\n      tag_152\n      jump\t// in\n    tag_151:\n      mload(0x40)\n      dup1\n      swap2\n      sub\n      swap1\n      log3\n        /* \"initial-offering.sol\":3235:3245  assetCount */\n      sload(0x03)\n        /* \"initial-offering.sol\":3224:3272  OwnerAdded(assetCount, msg.sender, _totalShares) */\n      mload(0x40)\n        /* \"#utility.yul\":2475:2500   */\n      dup7\n      dup2\n      mstore\n        /* \"initial-offering.sol\":3247:3257  msg.sender */\n      caller\n      swap2\n        /* \"initial-offering.sol\":3235:3245  assetCount */\n      swap1\n        /* \"initial-offering.sol\":3224:3272  OwnerAdded(assetCount, msg.sender, _totalShares) */\n      0x25af9e0275abbb4de910d2062f5dcca6d4c47f1313066083dd9d7077608a7a54\n      swap1\n        /* \"#utility.yul\":2463:2465   */\n      0x20\n        /* \"#utility.yul\":2448:2466   */\n      add\n        /* \"initial-offering.sol\":3224:3272  OwnerAdded(assetCount, msg.sender, _totalShares) */\n      mload(0x40)\n      dup1\n      swap2\n      sub\n      swap1\n      log3\n        /* \"initial-offering.sol\":3287:3316  AssetCountUpdated(assetCount) */\n      0xdbad7356874fb84060a1e809f3b9f73d977da5f6e62d52682c065d51d15435c6\n        /* \"initial-offering.sol\":3305:3315  assetCount */\n      sload(0x03)\n        /* \"initial-offering.sol\":3287:3316  AssetCountUpdated(assetCount) */\n      mload(0x40)\n      tag_154\n      swap2\n        /* \"#utility.yul\":2475:2500   */\n      dup2\n      mstore\n        /* \"#utility.yul\":2463:2465   */\n      0x20\n        /* \"#utility.yul\":2448:2466   */\n      add\n      swap1\n        /* \"#utility.yul\":2329:2506   */\n      jump\n        /* \"initial-offering.sol\":3287:3316  AssetCountUpdated(assetCount) */\n    tag_154:\n      mload(0x40)\n      dup1\n      swap2\n      sub\n      swap1\n      log1\n        /* \"initial-offering.sol\":2056:3323  {... */\n      pop\n        /* \"initial-offering.sol\":1848:3323  function createAssetOffering(... */\n      pop\n      pop\n      pop\n      pop\n      pop\n      jump\t// out\n        /* \"initial-offering.sol\":5092:5888  function placeBid(uint256 _assetId, uint256 _shareAmount) external payable nonReentrant {... */\n    tag_38:\n        /* \"@openzeppelin/contracts/security/ReentrancyGuard.sol\":2261:2282  _nonReentrantBefore() */\n      tag_156\n        /* \"@openzeppelin/contracts/security/ReentrancyGuard.sol\":2261:2280  _nonReentrantBefore */\n      tag_114\n        /* \"@openzeppelin/contracts/security/ReentrancyGuard.sol\":2261:2282  _nonReentrantBefore() */\n      jump\t// in\n    tag_156:\n        /* \"initial-offering.sol\":5190:5209  Asset storage asset */\n      0x00\n        /* \"initial-offering.sol\":5212:5228  assets[_assetId] */\n      dup3\n      dup2\n      mstore\n        /* \"initial-offering.sol\":5212:5218  assets */\n      0x01\n        /* \"initial-offering.sol\":5212:5228  assets[_assetId] */\n      0x20\n      mstore\n      0x40\n      swap1\n      keccak256\n        /* \"initial-offering.sol\":5247:5266  asset.biddingClosed */\n      0x05\n      dup2\n      add\n      sload\n      0xff\n      and\n        /* \"initial-offering.sol\":5246:5266  !asset.biddingClosed */\n      iszero\n        /* \"initial-offering.sol\":5238:5285  require(!asset.biddingClosed, \"Bidding closed\") */\n      tag_158\n      jumpi\n      mload(0x40)\n      shl(0xe5, 0x461bcd)\n      dup2\n      mstore\n        /* \"#utility.yul\":12754:12756   */\n      0x20\n        /* \"initial-offering.sol\":5238:5285  require(!asset.biddingClosed, \"Bidding closed\") */\n      0x04\n      dup3\n      add\n        /* \"#utility.yul\":12736:12757   */\n      mstore\n        /* \"#utility.yul\":12793:12795   */\n      0x0e\n        /* \"#utility.yul\":12773:12791   */\n      0x24\n      dup3\n      add\n        /* \"#utility.yul\":12766:12796   */\n      mstore\n      shl(0x92, 0x109a59191a5b99c818db1bdcd959)\n        /* \"#utility.yul\":12812:12830   */\n      0x44\n      dup3\n      add\n        /* \"#utility.yul\":12805:12849   */\n      mstore\n        /* \"#utility.yul\":12866:12884   */\n      0x64\n      add\n        /* \"initial-offering.sol\":5238:5285  require(!asset.biddingClosed, \"Bidding closed\") */\n      tag_73\n        /* \"#utility.yul\":12552:12890   */\n      jump\n        /* \"initial-offering.sol\":5238:5285  require(!asset.biddingClosed, \"Bidding closed\") */\n    tag_158:\n        /* \"initial-offering.sol\":5321:5326  asset */\n      dup1\n        /* \"initial-offering.sol\":5321:5341  asset.biddingEndTime */\n      0x06\n      add\n      sload\n        /* \"initial-offering.sol\":5303:5318  block.timestamp */\n      timestamp\n        /* \"initial-offering.sol\":5303:5341  block.timestamp < asset.biddingEndTime */\n      lt\n        /* \"initial-offering.sol\":5295:5366  require(block.timestamp < asset.biddingEndTime, \"Bidding period ended\") */\n      tag_161\n      jumpi\n      mload(0x40)\n      shl(0xe5, 0x461bcd)\n      dup2\n      mstore\n        /* \"#utility.yul\":13097:13099   */\n      0x20\n        /* \"initial-offering.sol\":5295:5366  require(block.timestamp < asset.biddingEndTime, \"Bidding period ended\") */\n      0x04\n      dup3\n      add\n        /* \"#utility.yul\":13079:13100   */\n      mstore\n        /* \"#utility.yul\":13136:13138   */\n      0x14\n        /* \"#utility.yul\":13116:13134   */\n      0x24\n      dup3\n      add\n        /* \"#utility.yul\":13109:13139   */\n      mstore\n      shl(0x62, 0x109a59191a5b99c81c195c9a5bd908195b991959)\n        /* \"#utility.yul\":13155:13173   */\n      0x44\n      dup3\n      add\n        /* \"#utility.yul\":13148:13198   */\n      mstore\n        /* \"#utility.yul\":13215:13233   */\n      0x64\n      add\n        /* \"initial-offering.sol\":5295:5366  require(block.timestamp < asset.biddingEndTime, \"Bidding period ended\") */\n      tag_73\n        /* \"#utility.yul\":12895:13239   */\n      jump\n        /* \"initial-offering.sol\":5295:5366  require(block.timestamp < asset.biddingEndTime, \"Bidding period ended\") */\n    tag_161:\n        /* \"initial-offering.sol\":5399:5400  0 */\n      0x00\n        /* \"initial-offering.sol\":5384:5396  _shareAmount */\n      dup3\n        /* \"initial-offering.sol\":5384:5400  _shareAmount > 0 */\n      gt\n        /* \"initial-offering.sol\":5376:5425  require(_shareAmount > 0, \"Invalid share amount\") */\n      tag_164\n      jumpi\n      mload(0x40)\n      shl(0xe5, 0x461bcd)\n      dup2\n      mstore\n        /* \"#utility.yul\":13446:13448   */\n      0x20\n        /* \"initial-offering.sol\":5376:5425  require(_shareAmount > 0, \"Invalid share amount\") */\n      0x04\n      dup3\n      add\n        /* \"#utility.yul\":13428:13449   */\n      mstore\n        /* \"#utility.yul\":13485:13487   */\n      0x14\n        /* \"#utility.yul\":13465:13483   */\n      0x24\n      dup3\n      add\n        /* \"#utility.yul\":13458:13488   */\n      mstore\n      shl(0x62, 0x125b9d985b1a59081cda185c9948185b5bdd5b9d)\n        /* \"#utility.yul\":13504:13522   */\n      0x44\n      dup3\n      add\n        /* \"#utility.yul\":13497:13547   */\n      mstore\n        /* \"#utility.yul\":13564:13582   */\n      0x64\n      add\n        /* \"initial-offering.sol\":5376:5425  require(_shareAmount > 0, \"Invalid share amount\") */\n      tag_73\n        /* \"#utility.yul\":13244:13588   */\n      jump\n        /* \"initial-offering.sol\":5376:5425  require(_shareAmount > 0, \"Invalid share amount\") */\n    tag_164:\n        /* \"initial-offering.sol\":5585:5604  assetBids[_assetId] */\n      0x00\n      dup4\n      dup2\n      mstore\n        /* \"initial-offering.sol\":5585:5594  assetBids */\n      0x02\n        /* \"initial-offering.sol\":5585:5604  assetBids[_assetId] */\n      0x20\n      swap1\n      dup2\n      mstore\n      0x40\n      swap2\n      dup3\n      swap1\n      keccak256\n        /* \"initial-offering.sol\":5610:5782  Bid({... */\n      dup3\n      mload\n      0x80\n      dup2\n      add\n      dup5\n      mstore\n        /* \"initial-offering.sol\":5636:5646  msg.sender */\n      caller\n        /* \"initial-offering.sol\":5610:5782  Bid({... */\n      dup2\n      mstore\n      swap2\n      dup3\n      add\n      dup6\n      swap1\n      mstore\n        /* \"initial-offering.sol\":5585:5604  assetBids[_assetId] */\n      swap2\n        /* \"initial-offering.sol\":5610:5782  Bid({... */\n      dup2\n      add\n        /* \"initial-offering.sol\":5714:5741  msg.value.div(_shareAmount) */\n      tag_167\n        /* \"initial-offering.sol\":5714:5723  msg.value */\n      callvalue\n        /* \"initial-offering.sol\":5673:5685  _shareAmount */\n      dup7\n        /* \"initial-offering.sol\":5714:5727  msg.value.div */\n      tag_168\n        /* \"initial-offering.sol\":5714:5741  msg.value.div(_shareAmount) */\n      jump\t// in\n    tag_167:\n        /* \"initial-offering.sol\":5610:5782  Bid({... */\n      dup2\n      mstore\n        /* \"initial-offering.sol\":5766:5771  false */\n      0x00\n        /* \"initial-offering.sol\":5610:5782  Bid({... */\n      0x20\n      swap2\n      dup3\n      add\n      dup2\n      swap1\n      mstore\n        /* \"initial-offering.sol\":5585:5783  assetBids[_assetId].push(Bid({... */\n      dup4\n      sload\n        /* \"initial-offering.sol\":5610:5782  Bid({... */\n      0x01\n        /* \"initial-offering.sol\":5585:5783  assetBids[_assetId].push(Bid({... */\n      dup1\n      dup3\n      add\n      dup7\n      sstore\n      swap5\n      dup3\n      mstore\n      swap1\n      dup3\n      swap1\n      keccak256\n      dup4\n      mload\n      0x04\n      swap1\n      swap3\n      mul\n      add\n      dup1\n      sload\n      not(sub(shl(0xa0, 0x01), 0x01))\n      and\n      sub(shl(0xa0, 0x01), 0x01)\n      swap1\n      swap3\n      and\n      swap2\n      swap1\n      swap2\n      or\n      dup2\n      sstore\n      swap1\n      dup3\n      add\n      mload\n      swap3\n      dup2\n      add\n      swap3\n      swap1\n      swap3\n      sstore\n      0x40\n      dup2\n      add\n      mload\n      0x02\n      dup4\n      add\n      sstore\n      0x60\n      add\n      mload\n      0x03\n      swap1\n      swap2\n      add\n      dup1\n      sload\n      not(0xff)\n      and\n      swap2\n      iszero\n      iszero\n      swap2\n      swap1\n      swap2\n      or\n      swap1\n      sstore\n        /* \"initial-offering.sol\":5827:5837  msg.sender */\n      caller\n        /* \"initial-offering.sol\":5817:5825  _assetId */\n      dup4\n        /* \"initial-offering.sol\":5807:5881  BidPlaced(_assetId, msg.sender, _shareAmount, msg.value.div(_shareAmount)) */\n      0x51db8e23b3f4479b162fd48823b8402895442b8f6cfd94f66239391881ec7b6f\n        /* \"initial-offering.sol\":5839:5851  _shareAmount */\n      dup5\n        /* \"initial-offering.sol\":5853:5880  msg.value.div(_shareAmount) */\n      tag_170\n        /* \"initial-offering.sol\":5853:5862  msg.value */\n      callvalue\n        /* \"initial-offering.sol\":5839:5851  _shareAmount */\n      dup3\n        /* \"initial-offering.sol\":5853:5866  msg.value.div */\n      tag_168\n        /* \"initial-offering.sol\":5853:5880  msg.value.div(_shareAmount) */\n      jump\t// in\n    tag_170:\n        /* \"initial-offering.sol\":5807:5881  BidPlaced(_assetId, msg.sender, _shareAmount, msg.value.div(_shareAmount)) */\n      0x40\n      dup1\n      mload\n        /* \"#utility.yul\":13767:13792   */\n      swap3\n      dup4\n      mstore\n        /* \"#utility.yul\":13823:13825   */\n      0x20\n        /* \"#utility.yul\":13808:13826   */\n      dup4\n      add\n        /* \"#utility.yul\":13801:13835   */\n      swap2\n      swap1\n      swap2\n      mstore\n        /* \"#utility.yul\":13740:13758   */\n      add\n        /* \"initial-offering.sol\":5807:5881  BidPlaced(_assetId, msg.sender, _shareAmount, msg.value.div(_shareAmount)) */\n      mload(0x40)\n      dup1\n      swap2\n      sub\n      swap1\n      log3\n        /* \"initial-offering.sol\":5180:5888  {... */\n      pop\n        /* \"@openzeppelin/contracts/security/ReentrancyGuard.sol\":2303:2323  _nonReentrantAfter() */\n      tag_173\n        /* \"@openzeppelin/contracts/security/ReentrancyGuard.sol\":1716:1717  1 */\n      0x01\n        /* \"@openzeppelin/contracts/security/ReentrancyGuard.sol\":2809:2816  _status */\n      0x00\n        /* \"@openzeppelin/contracts/security/ReentrancyGuard.sol\":2809:2831  _status = _NOT_ENTERED */\n      sstore\n        /* \"@openzeppelin/contracts/security/ReentrancyGuard.sol\":2629:2838  function _nonReentrantAfter() private {... */\n      jump\n        /* \"@openzeppelin/contracts/security/ReentrancyGuard.sol\":2303:2323  _nonReentrantAfter() */\n    tag_173:\n        /* \"initial-offering.sol\":5092:5888  function placeBid(uint256 _assetId, uint256 _shareAmount) external payable nonReentrant {... */\n      pop\n      pop\n      jump\t// out\n        /* \"initial-offering.sol\":4309:5054  function getAssetOwners(uint256 _assetId) external view returns (... */\n    tag_42:\n        /* \"initial-offering.sol\":4383:4414  address[] memory ownerAddresses */\n      0x60\n        /* \"initial-offering.sol\":4424:4452  uint256[] memory ownerShares */\n      dup1\n        /* \"initial-offering.sol\":4488:4489  0 */\n      0x00\n        /* \"initial-offering.sol\":4477:4485  _assetId */\n      dup4\n        /* \"initial-offering.sol\":4477:4489  _assetId > 0 */\n      gt\n        /* \"initial-offering.sol\":4477:4515  _assetId > 0 && _assetId <= assetCount */\n      dup1\n      iszero\n      tag_175\n      jumpi\n      pop\n        /* \"initial-offering.sol\":4505:4515  assetCount */\n      sload(0x03)\n        /* \"initial-offering.sol\":4493:4501  _assetId */\n      dup4\n        /* \"initial-offering.sol\":4493:4515  _assetId <= assetCount */\n      gt\n      iszero\n        /* \"initial-offering.sol\":4477:4515  _assetId > 0 && _assetId <= assetCount */\n    tag_175:\n        /* \"initial-offering.sol\":4469:4536  require(_assetId > 0 && _assetId <= assetCount, \"Invalid asset ID\") */\n      tag_176\n      jumpi\n      mload(0x40)\n      shl(0xe5, 0x461bcd)\n      dup2\n      mstore\n      0x04\n      add\n      tag_73\n      swap1\n      tag_74\n      jump\t// in\n    tag_176:\n        /* \"initial-offering.sol\":4546:4565  Asset storage asset */\n      0x00\n        /* \"initial-offering.sol\":4568:4584  assets[_assetId] */\n      dup4\n      dup2\n      mstore\n        /* \"initial-offering.sol\":4568:4574  assets */\n      0x01\n        /* \"initial-offering.sol\":4568:4584  assets[_assetId] */\n      0x20\n      mstore\n      0x40\n      swap1\n      keccak256\n        /* \"initial-offering.sol\":4624:4644  asset.ownerAddresses */\n      0x07\n      dup2\n      add\n        /* \"initial-offering.sol\":4624:4651  asset.ownerAddresses.length */\n      sload\n      dup1\n      sub(shl(0x40, 0x01), 0x01)\n        /* \"initial-offering.sol\":4678:4703  new address[](ownerCount) */\n      dup2\n      gt\n      iszero\n      tag_179\n      jumpi\n      tag_179\n      tag_77\n      jump\t// in\n    tag_179:\n      mload(0x40)\n      swap1\n      dup1\n      dup3\n      mstore\n      dup1\n      0x20\n      mul\n      0x20\n      add\n      dup3\n      add\n      0x40\n      mstore\n      dup1\n      iszero\n      tag_180\n      jumpi\n      dup2\n      0x20\n      add\n      0x20\n      dup3\n      mul\n      dup1\n      calldatasize\n      dup4\n      calldatacopy\n      add\n      swap1\n      pop\n    tag_180:\n      pop\n        /* \"initial-offering.sol\":4661:4703  ownerAddresses = new address[](ownerCount) */\n      swap4\n      pop\n        /* \"initial-offering.sol\":4741:4751  ownerCount */\n      dup1\n      sub(shl(0x40, 0x01), 0x01)\n        /* \"initial-offering.sol\":4727:4752  new uint256[](ownerCount) */\n      dup2\n      gt\n      iszero\n      tag_182\n      jumpi\n      tag_182\n      tag_77\n      jump\t// in\n    tag_182:\n      mload(0x40)\n      swap1\n      dup1\n      dup3\n      mstore\n      dup1\n      0x20\n      mul\n      0x20\n      add\n      dup3\n      add\n      0x40\n      mstore\n      dup1\n      iszero\n      tag_183\n      jumpi\n      dup2\n      0x20\n      add\n      0x20\n      dup3\n      mul\n      dup1\n      calldatasize\n      dup4\n      calldatacopy\n      add\n      swap1\n      pop\n    tag_183:\n      pop\n        /* \"initial-offering.sol\":4713:4752  ownerShares = new uint256[](ownerCount) */\n      swap3\n      pop\n        /* \"initial-offering.sol\":4776:4785  uint256 i */\n      0x00\n        /* \"initial-offering.sol\":4771:4993  for (uint256 i = 0; i < ownerCount; i++) {... */\n    tag_184:\n        /* \"initial-offering.sol\":4795:4805  ownerCount */\n      dup2\n        /* \"initial-offering.sol\":4791:4792  i */\n      dup2\n        /* \"initial-offering.sol\":4791:4805  i < ownerCount */\n      lt\n        /* \"initial-offering.sol\":4771:4993  for (uint256 i = 0; i < ownerCount; i++) {... */\n      iszero\n      tag_185\n      jumpi\n        /* \"initial-offering.sol\":4826:4846  address ownerAddress */\n      0x00\n        /* \"initial-offering.sol\":4849:4854  asset */\n      dup4\n        /* \"initial-offering.sol\":4849:4869  asset.ownerAddresses */\n      0x07\n      add\n        /* \"initial-offering.sol\":4870:4871  i */\n      dup3\n        /* \"initial-offering.sol\":4849:4872  asset.ownerAddresses[i] */\n      dup2\n      sload\n      dup2\n      lt\n      tag_188\n      jumpi\n      tag_188\n      tag_93\n      jump\t// in\n    tag_188:\n      swap1\n      0x00\n      mstore\n      keccak256(0x00, 0x20)\n      add\n      0x00\n      swap1\n      sload\n      swap1\n      0x0100\n      exp\n      swap1\n      div\n      sub(shl(0xa0, 0x01), 0x01)\n      and\n        /* \"initial-offering.sol\":4826:4872  address ownerAddress = asset.ownerAddresses[i] */\n      swap1\n      pop\n        /* \"initial-offering.sol\":4906:4918  ownerAddress */\n      dup1\n        /* \"initial-offering.sol\":4886:4900  ownerAddresses */\n      dup7\n        /* \"initial-offering.sol\":4901:4902  i */\n      dup4\n        /* \"initial-offering.sol\":4886:4903  ownerAddresses[i] */\n      dup2\n      mload\n      dup2\n      lt\n      tag_191\n      jumpi\n      tag_191\n      tag_93\n      jump\t// in\n    tag_191:\n      0x20\n      mul\n      0x20\n      add\n      add\n        /* \"initial-offering.sol\":4886:4918  ownerAddresses[i] = ownerAddress */\n      swap1\n      sub(shl(0xa0, 0x01), 0x01)\n      and\n      swap1\n      dup2\n      sub(shl(0xa0, 0x01), 0x01)\n      and\n      dup2\n      mstore\n      pop\n      pop\n        /* \"initial-offering.sol\":4949:4954  asset */\n      dup4\n        /* \"initial-offering.sol\":4949:4961  asset.owners */\n      0x08\n      add\n        /* \"initial-offering.sol\":4949:4975  asset.owners[ownerAddress] */\n      0x00\n        /* \"initial-offering.sol\":4962:4974  ownerAddress */\n      dup3\n      sub(shl(0xa0, 0x01), 0x01)\n        /* \"initial-offering.sol\":4949:4975  asset.owners[ownerAddress] */\n      and\n      sub(shl(0xa0, 0x01), 0x01)\n      and\n      dup2\n      mstore\n      0x20\n      add\n      swap1\n      dup2\n      mstore\n      0x20\n      add\n      0x00\n      keccak256\n        /* \"initial-offering.sol\":4949:4982  asset.owners[ownerAddress].shares */\n      0x01\n      add\n      sload\n        /* \"initial-offering.sol\":4932:4943  ownerShares */\n      dup6\n        /* \"initial-offering.sol\":4944:4945  i */\n      dup4\n        /* \"initial-offering.sol\":4932:4946  ownerShares[i] */\n      dup2\n      mload\n      dup2\n      lt\n      tag_193\n      jumpi\n      tag_193\n      tag_93\n      jump\t// in\n    tag_193:\n      0x20\n      swap1\n      dup2\n      mul\n      swap2\n      swap1\n      swap2\n      add\n      add\n        /* \"initial-offering.sol\":4932:4982  ownerShares[i] = asset.owners[ownerAddress].shares */\n      mstore\n      pop\n        /* \"initial-offering.sol\":4807:4810  i++ */\n      0x01\n      add\n        /* \"initial-offering.sol\":4771:4993  for (uint256 i = 0; i < ownerCount; i++) {... */\n      jump(tag_184)\n    tag_185:\n      pop\n        /* \"initial-offering.sol\":5011:5047  return (ownerAddresses, ownerShares) */\n      pop\n      pop\n        /* \"initial-offering.sol\":4309:5054  function getAssetOwners(uint256 _assetId) external view returns (... */\n      swap2\n      pop\n      swap2\n      jump\t// out\n        /* \"initial-offering.sol\":1057:1099  mapping(uint256 => Bid[]) public assetBids */\n    tag_48:\n      mstore(0x20, 0x02)\n      dup2\n      0x00\n      mstore\n      keccak256(0x00, 0x40)\n      dup2\n      dup2\n      sload\n      dup2\n      lt\n      tag_194\n      jumpi\n      0x00\n      dup1\n      revert\n    tag_194:\n      0x00\n      swap2\n      dup3\n      mstore\n      0x20\n      swap1\n      swap2\n      keccak256\n      0x04\n      swap1\n      swap2\n      mul\n      add\n      dup1\n      sload\n      0x01\n      dup3\n      add\n      sload\n      0x02\n      dup4\n      add\n      sload\n      0x03\n      swap1\n      swap4\n      add\n      sload\n      sub(shl(0xa0, 0x01), 0x01)\n      swap1\n      swap3\n      and\n      swap5\n      pop\n      swap3\n      pop\n      0xff\n      and\n      dup5\n      jump\t// out\n        /* \"initial-offering.sol\":3501:4265  function getAssetBasicDetails(uint256 _assetId) external view returns (... */\n    tag_54:\n        /* \"initial-offering.sol\":3581:3602  address originalOwner */\n      0x00\n        /* \"initial-offering.sol\":3612:3630  string memory name */\n      0x60\n        /* \"initial-offering.sol\":3640:3659  uint256 totalShares */\n      0x00\n        /* \"initial-offering.sol\":3669:3692  uint256 sharesRemaining */\n      dup1\n        /* \"initial-offering.sol\":3739:3764  uint256 minimumTotalPrice */\n      0x00\n        /* \"initial-offering.sol\":3774:3792  bool biddingClosed */\n      dup1\n        /* \"initial-offering.sol\":3802:3824  uint256 biddingEndTime */\n      0x00\n        /* \"initial-offering.sol\":3860:3861  0 */\n      dup1\n        /* \"initial-offering.sol\":3849:3857  _assetId */\n      dup9\n        /* \"initial-offering.sol\":3849:3861  _assetId > 0 */\n      gt\n        /* \"initial-offering.sol\":3849:3887  _assetId > 0 && _assetId <= assetCount */\n      dup1\n      iszero\n      tag_197\n      jumpi\n      pop\n        /* \"initial-offering.sol\":3877:3887  assetCount */\n      sload(0x03)\n        /* \"initial-offering.sol\":3865:3873  _assetId */\n      dup9\n        /* \"initial-offering.sol\":3865:3887  _assetId <= assetCount */\n      gt\n      iszero\n        /* \"initial-offering.sol\":3849:3887  _assetId > 0 && _assetId <= assetCount */\n    tag_197:\n        /* \"initial-offering.sol\":3841:3908  require(_assetId > 0 && _assetId <= assetCount, \"Invalid asset ID\") */\n      tag_198\n      jumpi\n      mload(0x40)\n      shl(0xe5, 0x461bcd)\n      dup2\n      mstore\n      0x04\n      add\n      tag_73\n      swap1\n      tag_74\n      jump\t// in\n    tag_198:\n        /* \"initial-offering.sol\":3918:3937  Asset storage asset */\n      0x00\n        /* \"initial-offering.sol\":3940:3956  assets[_assetId] */\n      dup9\n      dup2\n      mstore\n        /* \"initial-offering.sol\":3940:3946  assets */\n      0x01\n        /* \"initial-offering.sol\":3940:3956  assets[_assetId] */\n      0x20\n      dup2\n      swap1\n      mstore\n      0x40\n      swap1\n      swap2\n      keccak256\n        /* \"initial-offering.sol\":3996:4015  asset.originalOwner */\n      dup1\n      sload\n        /* \"initial-offering.sol\":4053:4070  asset.totalShares */\n      0x02\n      dup3\n      add\n      sload\n        /* \"initial-offering.sol\":4084:4105  asset.sharesRemaining */\n      0x03\n      dup4\n      add\n      sload\n        /* \"initial-offering.sol\":4158:4181  asset.minimumTotalPrice */\n      0x04\n      dup5\n      add\n      sload\n        /* \"initial-offering.sol\":4195:4214  asset.biddingClosed */\n      0x05\n      dup6\n      add\n      sload\n        /* \"initial-offering.sol\":4228:4248  asset.biddingEndTime */\n      0x06\n      dup7\n      add\n      sload\n        /* \"initial-offering.sol\":4029:4039  asset.name */\n      swap7\n      dup7\n      add\n        /* \"initial-offering.sol\":3975:4258  return (... */\n      dup1\n      sload\n        /* \"initial-offering.sol\":3940:3956  assets[_assetId] */\n      swap7\n      swap8\n      sub(shl(0xa0, 0x01), 0x01)\n        /* \"initial-offering.sol\":3996:4015  asset.originalOwner */\n      swap1\n      swap7\n      and\n      swap7\n        /* \"initial-offering.sol\":4029:4039  asset.name */\n      swap1\n      swap6\n        /* \"initial-offering.sol\":4195:4214  asset.biddingClosed */\n      0xff\n      swap1\n      swap3\n      and\n      swap2\n        /* \"initial-offering.sol\":4228:4248  asset.biddingEndTime */\n      swap1\n        /* \"initial-offering.sol\":4029:4039  asset.name */\n      dup7\n      swap1\n        /* \"initial-offering.sol\":3975:4258  return (... */\n      tag_200\n      swap1\n      tag_201\n      jump\t// in\n    tag_200:\n      dup1\n      0x1f\n      add\n      0x20\n      dup1\n      swap2\n      div\n      mul\n      0x20\n      add\n      mload(0x40)\n      swap1\n      dup2\n      add\n      0x40\n      mstore\n      dup1\n      swap3\n      swap2\n      swap1\n      dup2\n      dup2\n      mstore\n      0x20\n      add\n      dup3\n      dup1\n      sload\n      tag_202\n      swap1\n      tag_201\n      jump\t// in\n    tag_202:\n      dup1\n      iszero\n      tag_203\n      jumpi\n      dup1\n      0x1f\n      lt\n      tag_204\n      jumpi\n      0x0100\n      dup1\n      dup4\n      sload\n      div\n      mul\n      dup4\n      mstore\n      swap2\n      0x20\n      add\n      swap2\n      jump(tag_203)\n    tag_204:\n      dup3\n      add\n      swap2\n      swap1\n      0x00\n      mstore\n      keccak256(0x00, 0x20)\n      swap1\n    tag_205:\n      dup2\n      sload\n      dup2\n      mstore\n      swap1\n      0x01\n      add\n      swap1\n      0x20\n      add\n      dup1\n      dup4\n      gt\n      tag_205\n      jumpi\n      dup3\n      swap1\n      sub\n      0x1f\n      and\n      dup3\n      add\n      swap2\n    tag_203:\n      pop\n      pop\n      pop\n      pop\n      pop\n      swap6\n      pop\n      swap8\n      pop\n      swap8\n      pop\n      swap8\n      pop\n      swap8\n      pop\n      swap8\n      pop\n      swap8\n      pop\n      swap8\n      pop\n      pop\n        /* \"initial-offering.sol\":3501:4265  function getAssetBasicDetails(uint256 _assetId) external view returns (... */\n      swap2\n      swap4\n      swap6\n      swap8\n      swap1\n      swap3\n      swap5\n      swap7\n      pop\n      jump\t// out\n        /* \"initial-offering.sol\":7484:8118  function executeBidding(uint256 _assetId) external nonReentrant {... */\n    tag_60:\n        /* \"@openzeppelin/contracts/security/ReentrancyGuard.sol\":2261:2282  _nonReentrantBefore() */\n      tag_207\n        /* \"@openzeppelin/contracts/security/ReentrancyGuard.sol\":2261:2280  _nonReentrantBefore */\n      tag_114\n        /* \"@openzeppelin/contracts/security/ReentrancyGuard.sol\":2261:2282  _nonReentrantBefore() */\n      jump\t// in\n    tag_207:\n        /* \"initial-offering.sol\":7558:7577  Asset storage asset */\n      0x00\n        /* \"initial-offering.sol\":7580:7596  assets[_assetId] */\n      dup2\n      dup2\n      mstore\n        /* \"initial-offering.sol\":7580:7586  assets */\n      0x01\n        /* \"initial-offering.sol\":7580:7596  assets[_assetId] */\n      0x20\n      mstore\n      0x40\n      swap1\n      keccak256\n        /* \"initial-offering.sol\":7628:7647  asset.originalOwner */\n      dup1\n      sload\n      sub(shl(0xa0, 0x01), 0x01)\n      and\n        /* \"initial-offering.sol\":7614:7624  msg.sender */\n      caller\n        /* \"initial-offering.sol\":7614:7647  msg.sender == asset.originalOwner */\n      eq\n        /* \"initial-offering.sol\":7606:7664  require(msg.sender == asset.originalOwner, \"Unauthorized\") */\n      tag_209\n      jumpi\n      mload(0x40)\n      shl(0xe5, 0x461bcd)\n      dup2\n      mstore\n      0x04\n      add\n      tag_73\n      swap1\n      tag_118\n      jump\t// in\n    tag_209:\n        /* \"initial-offering.sol\":7683:7702  asset.biddingClosed */\n      0x05\n      dup2\n      add\n      sload\n      0xff\n      and\n        /* \"initial-offering.sol\":7682:7702  !asset.biddingClosed */\n      iszero\n        /* \"initial-offering.sol\":7674:7729  require(!asset.biddingClosed, \"Bidding already closed\") */\n      tag_211\n      jumpi\n      mload(0x40)\n      shl(0xe5, 0x461bcd)\n      dup2\n      mstore\n      0x04\n      add\n      tag_73\n      swap1\n      tag_121\n      jump\t// in\n    tag_211:\n        /* \"initial-offering.sol\":7766:7771  asset */\n      dup1\n        /* \"initial-offering.sol\":7766:7786  asset.biddingEndTime */\n      0x06\n      add\n      sload\n        /* \"initial-offering.sol\":7747:7762  block.timestamp */\n      timestamp\n        /* \"initial-offering.sol\":7747:7786  block.timestamp >= asset.biddingEndTime */\n      lt\n      iszero\n        /* \"initial-offering.sol\":7739:7813  require(block.timestamp >= asset.biddingEndTime, \"Bidding period ongoing\") */\n      tag_119\n      jumpi\n      mload(0x40)\n      shl(0xe5, 0x461bcd)\n      dup2\n      mstore\n        /* \"#utility.yul\":14048:14050   */\n      0x20\n        /* \"initial-offering.sol\":7739:7813  require(block.timestamp >= asset.biddingEndTime, \"Bidding period ongoing\") */\n      0x04\n      dup3\n      add\n        /* \"#utility.yul\":14030:14051   */\n      mstore\n        /* \"#utility.yul\":14087:14089   */\n      0x16\n        /* \"#utility.yul\":14067:14085   */\n      0x24\n      dup3\n      add\n        /* \"#utility.yul\":14060:14090   */\n      mstore\n      shl(0x50, 0x42696464696e6720706572696f64206f6e676f696e67)\n        /* \"#utility.yul\":14106:14124   */\n      0x44\n      dup3\n      add\n        /* \"#utility.yul\":14099:14151   */\n      mstore\n        /* \"#utility.yul\":14168:14186   */\n      0x64\n      add\n        /* \"initial-offering.sol\":7739:7813  require(block.timestamp >= asset.biddingEndTime, \"Bidding period ongoing\") */\n      tag_73\n        /* \"#utility.yul\":13846:14192   */\n      jump\n        /* \"initial-offering.sol\":1012:1051  mapping(uint256 => Asset) public assets */\n    tag_64:\n      0x01\n      0x20\n      dup2\n      swap1\n      mstore\n      0x00\n      swap2\n      dup3\n      mstore\n      0x40\n      swap1\n      swap2\n      keccak256\n      dup1\n      sload\n      swap2\n      dup2\n      add\n      dup1\n      sload\n      sub(shl(0xa0, 0x01), 0x01)\n      swap1\n      swap4\n      and\n      swap3\n      tag_221\n      swap1\n      tag_201\n      jump\t// in\n    tag_221:\n      dup1\n      0x1f\n      add\n      0x20\n      dup1\n      swap2\n      div\n      mul\n      0x20\n      add\n      mload(0x40)\n      swap1\n      dup2\n      add\n      0x40\n      mstore\n      dup1\n      swap3\n      swap2\n      swap1\n      dup2\n      dup2\n      mstore\n      0x20\n      add\n      dup3\n      dup1\n      sload\n      tag_222\n      swap1\n      tag_201\n      jump\t// in\n    tag_222:\n      dup1\n      iszero\n      tag_223\n      jumpi\n      dup1\n      0x1f\n      lt\n      tag_224\n      jumpi\n      0x0100\n      dup1\n      dup4\n      sload\n      div\n      mul\n      dup4\n      mstore\n      swap2\n      0x20\n      add\n      swap2\n      jump(tag_223)\n    tag_224:\n      dup3\n      add\n      swap2\n      swap1\n      0x00\n      mstore\n      keccak256(0x00, 0x20)\n      swap1\n    tag_225:\n      dup2\n      sload\n      dup2\n      mstore\n      swap1\n      0x01\n      add\n      swap1\n      0x20\n      add\n      dup1\n      dup4\n      gt\n      tag_225\n      jumpi\n      dup3\n      swap1\n      sub\n      0x1f\n      and\n      dup3\n      add\n      swap2\n    tag_223:\n      pop\n      pop\n      pop\n      pop\n      0x02\n      dup4\n      add\n      sload\n      0x03\n      dup5\n      add\n      sload\n      0x04\n      dup6\n      add\n      sload\n      0x05\n      dup7\n      add\n      sload\n      0x06\n      swap1\n      swap7\n      add\n      sload\n      swap5\n      swap6\n      swap3\n      swap5\n      swap2\n      swap4\n      pop\n      swap2\n      0xff\n      and\n      swap1\n      dup8\n      jump\t// out\n        /* \"@openzeppelin/contracts/security/ReentrancyGuard.sol\":2336:2623  function _nonReentrantBefore() private {... */\n    tag_114:\n        /* \"@openzeppelin/contracts/security/ReentrancyGuard.sol\":1759:1760  2 */\n      0x02\n        /* \"@openzeppelin/contracts/security/ReentrancyGuard.sol\":2468:2475  _status */\n      sload(0x00)\n        /* \"@openzeppelin/contracts/security/ReentrancyGuard.sol\":2468:2487  _status != _ENTERED */\n      sub\n        /* \"@openzeppelin/contracts/security/ReentrancyGuard.sol\":2460:2523  require(_status != _ENTERED, \"ReentrancyGuard: reentrant call\") */\n      tag_227\n      jumpi\n      mload(0x40)\n      shl(0xe5, 0x461bcd)\n      dup2\n      mstore\n        /* \"#utility.yul\":14399:14401   */\n      0x20\n        /* \"@openzeppelin/contracts/security/ReentrancyGuard.sol\":2460:2523  require(_status != _ENTERED, \"ReentrancyGuard: reentrant call\") */\n      0x04\n      dup3\n      add\n        /* \"#utility.yul\":14381:14402   */\n      mstore\n        /* \"#utility.yul\":14438:14440   */\n      0x1f\n        /* \"#utility.yul\":14418:14436   */\n      0x24\n      dup3\n      add\n        /* \"#utility.yul\":14411:14441   */\n      mstore\n        /* \"#utility.yul\":14477:14510   */\n      0x5265656e7472616e637947756172643a207265656e7472616e742063616c6c00\n        /* \"#utility.yul\":14457:14475   */\n      0x44\n      dup3\n      add\n        /* \"#utility.yul\":14450:14511   */\n      mstore\n        /* \"#utility.yul\":14528:14546   */\n      0x64\n      add\n        /* \"@openzeppelin/contracts/security/ReentrancyGuard.sol\":2460:2523  require(_status != _ENTERED, \"ReentrancyGuard: reentrant call\") */\n      tag_73\n        /* \"#utility.yul\":14197:14552   */\n      jump\n        /* \"@openzeppelin/contracts/security/ReentrancyGuard.sol\":2460:2523  require(_status != _ENTERED, \"ReentrancyGuard: reentrant call\") */\n    tag_227:\n        /* \"@openzeppelin/contracts/security/ReentrancyGuard.sol\":1759:1760  2 */\n      0x02\n        /* \"@openzeppelin/contracts/security/ReentrancyGuard.sol\":2598:2605  _status */\n      0x00\n        /* \"@openzeppelin/contracts/security/ReentrancyGuard.sol\":2598:2616  _status = _ENTERED */\n      sstore\n        /* \"@openzeppelin/contracts/security/ReentrancyGuard.sol\":2336:2623  function _nonReentrantBefore() private {... */\n      jump\t// out\n        /* \"initial-offering.sol\":8169:12169  function _processBids(uint256 _assetId) internal {... */\n    tag_124:\n        /* \"initial-offering.sol\":8228:8247  Asset storage asset */\n      0x00\n        /* \"initial-offering.sol\":8250:8266  assets[_assetId] */\n      dup2\n      dup2\n      mstore\n        /* \"initial-offering.sol\":8250:8256  assets */\n      0x01\n        /* \"initial-offering.sol\":8250:8266  assets[_assetId] */\n      0x20\n      mstore\n      0x40\n      swap1\n      keccak256\n        /* \"initial-offering.sol\":8335:8354  _sortBids(_assetId) */\n      tag_231\n        /* \"initial-offering.sol\":8257:8265  _assetId */\n      dup3\n        /* \"initial-offering.sol\":8335:8344  _sortBids */\n      tag_232\n        /* \"initial-offering.sol\":8335:8354  _sortBids(_assetId) */\n      jump\t// in\n    tag_231:\n        /* \"initial-offering.sol\":8373:8391  Bid[] storage bids */\n      0x00\n        /* \"initial-offering.sol\":8394:8413  assetBids[_assetId] */\n      dup3\n      dup2\n      mstore\n        /* \"initial-offering.sol\":8394:8403  assetBids */\n      0x02\n        /* \"initial-offering.sol\":8394:8413  assetBids[_assetId] */\n      0x20\n      mstore\n      0x40\n      dup2\n      keccak256\n        /* \"initial-offering.sol\":8583:8604  asset.sharesRemaining */\n      0x03\n      dup4\n      add\n      sload\n        /* \"initial-offering.sol\":8394:8413  assetBids[_assetId] */\n      swap1\n      swap2\n        /* \"initial-offering.sol\":8373:8391  Bid[] storage bids */\n      swap1\n      dup2\n        /* \"initial-offering.sol\":8623:9119  for(uint256 i = 0; i < bids.length && sharesToAllocate > 0; i++) {... */\n    tag_233:\n        /* \"initial-offering.sol\":8646:8657  bids.length */\n      dup4\n      sload\n        /* \"initial-offering.sol\":8642:8657  i < bids.length */\n      dup2\n      lt\n        /* \"initial-offering.sol\":8642:8681  i < bids.length && sharesToAllocate > 0 */\n      dup1\n      iszero\n      tag_236\n      jumpi\n      pop\n        /* \"initial-offering.sol\":8680:8681  0 */\n      0x00\n        /* \"initial-offering.sol\":8661:8677  sharesToAllocate */\n      dup3\n        /* \"initial-offering.sol\":8661:8681  sharesToAllocate > 0 */\n      gt\n        /* \"initial-offering.sol\":8642:8681  i < bids.length && sharesToAllocate > 0 */\n    tag_236:\n        /* \"initial-offering.sol\":8623:9119  for(uint256 i = 0; i < bids.length && sharesToAllocate > 0; i++) {... */\n      iszero\n      tag_234\n      jumpi\n        /* \"initial-offering.sol\":8702:8717  Bid storage bid */\n      0x00\n        /* \"initial-offering.sol\":8720:8724  bids */\n      dup5\n        /* \"initial-offering.sol\":8725:8726  i */\n      dup3\n        /* \"initial-offering.sol\":8720:8727  bids[i] */\n      dup2\n      sload\n      dup2\n      lt\n      tag_238\n      jumpi\n      tag_238\n      tag_93\n      jump\t// in\n    tag_238:\n      0x00\n      swap2\n      dup3\n      mstore\n      0x20\n      swap1\n      swap2\n      keccak256\n      0x04\n      swap1\n      swap2\n      mul\n      add\n        /* \"initial-offering.sol\":8744:8757  bid.allocated */\n      0x03\n      dup2\n      add\n      sload\n        /* \"initial-offering.sol\":8720:8727  bids[i] */\n      swap1\n      swap2\n      pop\n        /* \"initial-offering.sol\":8744:8757  bid.allocated */\n      0xff\n      and\n        /* \"initial-offering.sol\":8741:8767  if(bid.allocated) continue */\n      iszero\n      tag_240\n      jumpi\n        /* \"initial-offering.sol\":8759:8767  continue */\n      pop\n      jump(tag_235)\n        /* \"initial-offering.sol\":8741:8767  if(bid.allocated) continue */\n    tag_240:\n        /* \"initial-offering.sol\":8794:8819  uint256 allocatableShares */\n      0x00\n        /* \"initial-offering.sol\":8842:8858  sharesToAllocate */\n      dup4\n        /* \"initial-offering.sol\":8823:8826  bid */\n      dup3\n        /* \"initial-offering.sol\":8823:8838  bid.shareAmount */\n      0x01\n      add\n      sload\n        /* \"initial-offering.sol\":8823:8858  bid.shareAmount <= sharesToAllocate */\n      gt\n      iszero\n        /* \"initial-offering.sol\":8822:8930  (bid.shareAmount <= sharesToAllocate) ... */\n      tag_241\n      jumpi\n        /* \"initial-offering.sol\":8914:8930  sharesToAllocate */\n      dup4\n        /* \"initial-offering.sol\":8822:8930  (bid.shareAmount <= sharesToAllocate) ... */\n      jump(tag_242)\n    tag_241:\n        /* \"initial-offering.sol\":8879:8882  bid */\n      dup2\n        /* \"initial-offering.sol\":8879:8894  bid.shareAmount */\n      0x01\n      add\n      sload\n        /* \"initial-offering.sol\":8822:8930  (bid.shareAmount <= sharesToAllocate) ... */\n    tag_242:\n        /* \"initial-offering.sol\":8794:8930  uint256 allocatableShares = (bid.shareAmount <= sharesToAllocate) ... */\n      swap1\n      pop\n        /* \"initial-offering.sol\":8977:9036  totalBidValue.add(allocatableShares.mul(bid.pricePerShare)) */\n      tag_243\n        /* \"initial-offering.sol\":8995:9035  allocatableShares.mul(bid.pricePerShare) */\n      tag_244\n        /* \"initial-offering.sol\":9017:9020  bid */\n      dup4\n        /* \"initial-offering.sol\":9017:9034  bid.pricePerShare */\n      0x02\n      add\n      sload\n        /* \"initial-offering.sol\":8995:9012  allocatableShares */\n      dup4\n        /* \"initial-offering.sol\":8995:9016  allocatableShares.mul */\n      tag_245\n      swap1\n        /* \"initial-offering.sol\":8995:9035  allocatableShares.mul(bid.pricePerShare) */\n      swap2\n      swap1\n      0xffffffff\n      and\n      jump\t// in\n    tag_244:\n        /* \"initial-offering.sol\":8977:8990  totalBidValue */\n      dup7\n      swap1\n        /* \"initial-offering.sol\":8977:8994  totalBidValue.add */\n      tag_246\n        /* \"initial-offering.sol\":8977:9036  totalBidValue.add(allocatableShares.mul(bid.pricePerShare)) */\n      jump\t// in\n    tag_243:\n        /* \"initial-offering.sol\":8961:9036  totalBidValue = totalBidValue.add(allocatableShares.mul(bid.pricePerShare)) */\n      swap5\n      pop\n        /* \"initial-offering.sol\":9069:9108  sharesToAllocate.sub(allocatableShares) */\n      tag_247\n        /* \"initial-offering.sol\":9069:9085  sharesToAllocate */\n      dup5\n        /* \"initial-offering.sol\":9090:9107  allocatableShares */\n      dup3\n        /* \"initial-offering.sol\":9069:9089  sharesToAllocate.sub */\n      tag_248\n        /* \"initial-offering.sol\":9069:9108  sharesToAllocate.sub(allocatableShares) */\n      jump\t// in\n    tag_247:\n        /* \"initial-offering.sol\":9050:9108  sharesToAllocate = sharesToAllocate.sub(allocatableShares) */\n      swap4\n      pop\n        /* \"initial-offering.sol\":8688:9119  {... */\n      pop\n      pop\n        /* \"initial-offering.sol\":8623:9119  for(uint256 i = 0; i < bids.length && sharesToAllocate > 0; i++) {... */\n    tag_235:\n        /* \"initial-offering.sol\":8683:8686  i++ */\n      dup1\n      tag_249\n      dup2\n      tag_145\n      jump\t// in\n    tag_249:\n      swap2\n      pop\n      pop\n        /* \"initial-offering.sol\":8623:9119  for(uint256 i = 0; i < bids.length && sharesToAllocate > 0; i++) {... */\n      jump(tag_233)\n    tag_234:\n      pop\n        /* \"initial-offering.sol\":9238:9261  asset.minimumTotalPrice */\n      0x04\n      dup5\n      add\n      sload\n        /* \"initial-offering.sol\":9221:9261  totalBidValue >= asset.minimumTotalPrice */\n      dup3\n      lt\n      dup1\n      iszero\n      swap1\n        /* \"initial-offering.sol\":9280:12088  if (successful) {... */\n      tag_250\n      jumpi\n        /* \"initial-offering.sol\":9404:9421  asset.totalShares */\n      0x02\n      dup6\n      add\n      sload\n        /* \"initial-offering.sol\":9380:9401  asset.sharesRemaining */\n      0x03\n      dup7\n      add\n        /* \"initial-offering.sol\":9380:9421  asset.sharesRemaining = asset.totalShares */\n      sstore\n      0x00\n        /* \"initial-offering.sol\":9502:9694  for (uint256 i = 0; i < asset.ownerAddresses.length; i++) {... */\n    tag_251:\n        /* \"initial-offering.sol\":9526:9546  asset.ownerAddresses */\n      0x07\n      dup7\n      add\n        /* \"initial-offering.sol\":9526:9553  asset.ownerAddresses.length */\n      sload\n        /* \"initial-offering.sol\":9522:9553  i < asset.ownerAddresses.length */\n      dup2\n      lt\n        /* \"initial-offering.sol\":9502:9694  for (uint256 i = 0; i < asset.ownerAddresses.length; i++) {... */\n      iszero\n      tag_252\n      jumpi\n        /* \"initial-offering.sol\":9578:9598  address ownerAddress */\n      0x00\n        /* \"initial-offering.sol\":9601:9606  asset */\n      dup7\n        /* \"initial-offering.sol\":9601:9621  asset.ownerAddresses */\n      0x07\n      add\n        /* \"initial-offering.sol\":9622:9623  i */\n      dup3\n        /* \"initial-offering.sol\":9601:9624  asset.ownerAddresses[i] */\n      dup2\n      sload\n      dup2\n      lt\n      tag_255\n      jumpi\n      tag_255\n      tag_93\n      jump\t// in\n    tag_255:\n      0x00\n      swap2\n      dup3\n      mstore\n      0x20\n      dup1\n      dup4\n      keccak256\n      swap1\n      swap2\n      add\n      sload\n      sub(shl(0xa0, 0x01), 0x01)\n      and\n        /* \"initial-offering.sol\":9642:9668  asset.owners[ownerAddress] */\n      dup3\n      mstore\n        /* \"initial-offering.sol\":9642:9654  asset.owners */\n      0x08\n      dup10\n      add\n        /* \"initial-offering.sol\":9642:9668  asset.owners[ownerAddress] */\n      swap1\n      mstore\n      0x40\n      dup2\n      keccak256\n        /* \"initial-offering.sol\":9601:9624  asset.ownerAddresses[i] */\n      0x01\n        /* \"initial-offering.sol\":9642:9675  asset.owners[ownerAddress].shares */\n      swap1\n      dup2\n      add\n        /* \"initial-offering.sol\":9642:9679  asset.owners[ownerAddress].shares = 0 */\n      swap2\n      swap1\n      swap2\n      sstore\n        /* \"initial-offering.sol\":9555:9558  i++ */\n      swap2\n      swap1\n      swap2\n      add\n      swap1\n      pop\n        /* \"initial-offering.sol\":9502:9694  for (uint256 i = 0; i < asset.ownerAddresses.length; i++) {... */\n      jump(tag_251)\n    tag_252:\n      pop\n        /* \"initial-offering.sol\":9752:9779  delete asset.ownerAddresses */\n      tag_257\n        /* \"initial-offering.sol\":9759:9779  asset.ownerAddresses */\n      0x07\n      dup7\n      add\n      0x00\n        /* \"initial-offering.sol\":9752:9779  delete asset.ownerAddresses */\n      tag_258\n      jump\t// in\n    tag_257:\n        /* \"initial-offering.sol\":9855:9864  uint256 i */\n      0x00\n        /* \"initial-offering.sol\":9851:11976  for(uint256 i = 0; i < bids.length; i++) {... */\n    tag_259:\n        /* \"initial-offering.sol\":9874:9885  bids.length */\n      dup5\n      sload\n        /* \"initial-offering.sol\":9870:9885  i < bids.length */\n      dup2\n      lt\n        /* \"initial-offering.sol\":9851:11976  for(uint256 i = 0; i < bids.length; i++) {... */\n      iszero\n      tag_260\n      jumpi\n        /* \"initial-offering.sol\":9913:9934  asset.sharesRemaining */\n      0x03\n      dup7\n      add\n      sload\n        /* \"initial-offering.sol\":9910:9946  if(asset.sharesRemaining == 0) break */\n      iszero\n        /* \"initial-offering.sol\":9941:9946  break */\n      tag_260\n        /* \"initial-offering.sol\":9910:9946  if(asset.sharesRemaining == 0) break */\n      jumpi\n        /* \"initial-offering.sol\":9981:9996  Bid storage bid */\n      0x00\n        /* \"initial-offering.sol\":9999:10003  bids */\n      dup6\n        /* \"initial-offering.sol\":10004:10005  i */\n      dup3\n        /* \"initial-offering.sol\":9999:10006  bids[i] */\n      dup2\n      sload\n      dup2\n      lt\n      tag_264\n      jumpi\n      tag_264\n      tag_93\n      jump\t// in\n    tag_264:\n      0x00\n      swap2\n      dup3\n      mstore\n      0x20\n      swap1\n      swap2\n      keccak256\n      0x04\n      swap1\n      swap2\n      mul\n      add\n        /* \"initial-offering.sol\":10027:10040  bid.allocated */\n      0x03\n      dup2\n      add\n      sload\n        /* \"initial-offering.sol\":9999:10006  bids[i] */\n      swap1\n      swap2\n      pop\n        /* \"initial-offering.sol\":10027:10040  bid.allocated */\n      0xff\n      and\n        /* \"initial-offering.sol\":10024:10050  if(bid.allocated) continue */\n      iszero\n      tag_266\n      jumpi\n        /* \"initial-offering.sol\":10042:10050  continue */\n      pop\n      jump(tag_261)\n        /* \"initial-offering.sol\":10024:10050  if(bid.allocated) continue */\n    tag_266:\n        /* \"initial-offering.sol\":10085:10110  uint256 allocatableShares */\n      0x00\n        /* \"initial-offering.sol\":10133:10138  asset */\n      dup8\n        /* \"initial-offering.sol\":10133:10154  asset.sharesRemaining */\n      0x03\n      add\n      sload\n        /* \"initial-offering.sol\":10114:10117  bid */\n      dup3\n        /* \"initial-offering.sol\":10114:10129  bid.shareAmount */\n      0x01\n      add\n      sload\n        /* \"initial-offering.sol\":10114:10154  bid.shareAmount <= asset.sharesRemaining */\n      gt\n      iszero\n        /* \"initial-offering.sol\":10113:10239  (bid.shareAmount <= asset.sharesRemaining) ... */\n      tag_267\n      jumpi\n        /* \"initial-offering.sol\":10218:10223  asset */\n      dup8\n        /* \"initial-offering.sol\":10218:10239  asset.sharesRemaining */\n      0x03\n      add\n      sload\n        /* \"initial-offering.sol\":10113:10239  (bid.shareAmount <= asset.sharesRemaining) ... */\n      jump(tag_268)\n    tag_267:\n        /* \"initial-offering.sol\":10179:10182  bid */\n      dup2\n        /* \"initial-offering.sol\":10179:10194  bid.shareAmount */\n      0x01\n      add\n      sload\n        /* \"initial-offering.sol\":10113:10239  (bid.shareAmount <= asset.sharesRemaining) ... */\n    tag_268:\n        /* \"initial-offering.sol\":10085:10239  uint256 allocatableShares = (bid.shareAmount <= asset.sharesRemaining) ... */\n      swap1\n      pop\n        /* \"initial-offering.sol\":10338:10361  uint256 requiredPayment */\n      0x00\n        /* \"initial-offering.sol\":10364:10404  allocatableShares.mul(bid.pricePerShare) */\n      tag_269\n        /* \"initial-offering.sol\":10386:10389  bid */\n      dup4\n        /* \"initial-offering.sol\":10386:10403  bid.pricePerShare */\n      0x02\n      add\n      sload\n        /* \"initial-offering.sol\":10364:10381  allocatableShares */\n      dup4\n        /* \"initial-offering.sol\":10364:10385  allocatableShares.mul */\n      tag_245\n      swap1\n        /* \"initial-offering.sol\":10364:10404  allocatableShares.mul(bid.pricePerShare) */\n      swap2\n      swap1\n      0xffffffff\n      and\n      jump\t// in\n    tag_269:\n        /* \"initial-offering.sol\":10338:10404  uint256 requiredPayment = allocatableShares.mul(bid.pricePerShare) */\n      swap1\n      pop\n        /* \"initial-offering.sol\":10422:10442  uint256 refundAmount */\n      0x00\n        /* \"initial-offering.sol\":10445:10504  bid.shareAmount.mul(bid.pricePerShare).sub(requiredPayment) */\n      tag_270\n        /* \"initial-offering.sol\":10488:10503  requiredPayment */\n      dup3\n        /* \"initial-offering.sol\":10445:10483  bid.shareAmount.mul(bid.pricePerShare) */\n      tag_271\n        /* \"initial-offering.sol\":10465:10468  bid */\n      dup7\n        /* \"initial-offering.sol\":10465:10482  bid.pricePerShare */\n      0x02\n      add\n      sload\n        /* \"initial-offering.sol\":10445:10448  bid */\n      dup8\n        /* \"initial-offering.sol\":10445:10460  bid.shareAmount */\n      0x01\n      add\n      sload\n        /* \"initial-offering.sol\":10445:10464  bid.shareAmount.mul */\n      tag_245\n      swap1\n        /* \"initial-offering.sol\":10445:10483  bid.shareAmount.mul(bid.pricePerShare) */\n      swap2\n      swap1\n      0xffffffff\n      and\n      jump\t// in\n    tag_271:\n        /* \"initial-offering.sol\":10445:10487  bid.shareAmount.mul(bid.pricePerShare).sub */\n      swap1\n      tag_248\n        /* \"initial-offering.sol\":10445:10504  bid.shareAmount.mul(bid.pricePerShare).sub(requiredPayment) */\n      jump\t// in\n    tag_270:\n        /* \"initial-offering.sol\":10422:10504  uint256 refundAmount = bid.shareAmount.mul(bid.pricePerShare).sub(requiredPayment) */\n      swap1\n      pop\n        /* \"initial-offering.sol\":10542:10563  allocatableShares > 0 */\n      dup3\n      iszero\n        /* \"initial-offering.sol\":10539:11713  if(allocatableShares > 0) {... */\n      tag_272\n      jumpi\n        /* \"initial-offering.sol\":10653:10672  asset.originalOwner */\n      dup10\n      sload\n        /* \"initial-offering.sol\":10645:10699  payable(asset.originalOwner).transfer(requiredPayment) */\n      mload(0x40)\n      sub(shl(0xa0, 0x01), 0x01)\n        /* \"initial-offering.sol\":10653:10672  asset.originalOwner */\n      swap1\n      swap2\n      and\n      swap1\n        /* \"initial-offering.sol\":10645:10699  payable(asset.originalOwner).transfer(requiredPayment) */\n      dup4\n      iszero\n      0x08fc\n      mul\n      swap1\n        /* \"initial-offering.sol\":10683:10698  requiredPayment */\n      dup5\n      swap1\n        /* \"initial-offering.sol\":10653:10672  asset.originalOwner */\n      0x00\n        /* \"initial-offering.sol\":10645:10699  payable(asset.originalOwner).transfer(requiredPayment) */\n      dup2\n        /* \"initial-offering.sol\":10653:10672  asset.originalOwner */\n      dup2\n        /* \"initial-offering.sol\":10645:10699  payable(asset.originalOwner).transfer(requiredPayment) */\n      dup2\n        /* \"initial-offering.sol\":10683:10698  requiredPayment */\n      dup6\n        /* \"initial-offering.sol\":10653:10672  asset.originalOwner */\n      dup9\n        /* \"initial-offering.sol\":10645:10699  payable(asset.originalOwner).transfer(requiredPayment) */\n      dup9\n      call\n      swap4\n      pop\n      pop\n      pop\n      pop\n      iszero\n      dup1\n      iszero\n      tag_274\n      jumpi\n      returndatasize\n      0x00\n      dup1\n      returndatacopy\n      revert(0x00, returndatasize)\n    tag_274:\n      pop\n        /* \"initial-offering.sol\":10813:10834  asset.sharesRemaining */\n      0x03\n      dup11\n      add\n      sload\n        /* \"initial-offering.sol\":10813:10857  asset.sharesRemaining.sub(allocatableShares) */\n      tag_275\n      swap1\n        /* \"initial-offering.sol\":10839:10856  allocatableShares */\n      dup5\n        /* \"initial-offering.sol\":10813:10838  asset.sharesRemaining.sub */\n      tag_248\n        /* \"initial-offering.sol\":10813:10857  asset.sharesRemaining.sub(allocatableShares) */\n      jump\t// in\n    tag_275:\n        /* \"initial-offering.sol\":10789:10810  asset.sharesRemaining */\n      0x03\n      dup1\n      dup13\n      add\n        /* \"initial-offering.sol\":10789:10857  asset.sharesRemaining = asset.sharesRemaining.sub(allocatableShares) */\n      swap2\n      swap1\n      swap2\n      sstore\n        /* \"initial-offering.sol\":10879:10892  bid.allocated */\n      dup5\n      add\n        /* \"initial-offering.sol\":10879:10899  bid.allocated = true */\n      dup1\n      sload\n      not(0xff)\n      and\n        /* \"initial-offering.sol\":10895:10899  true */\n      0x01\n        /* \"initial-offering.sol\":10879:10899  bid.allocated = true */\n      or\n      swap1\n      sstore\n        /* \"initial-offering.sol\":11003:11013  bid.bidder */\n      dup4\n      sload\n      sub(shl(0xa0, 0x01), 0x01)\n      and\n        /* \"initial-offering.sol\":10879:10892  bid.allocated */\n      0x00\n        /* \"initial-offering.sol\":10990:11014  asset.owners[bid.bidder] */\n      swap1\n      dup2\n      mstore\n        /* \"initial-offering.sol\":10990:11002  asset.owners */\n      0x08\n      dup12\n      add\n        /* \"initial-offering.sol\":10990:11014  asset.owners[bid.bidder] */\n      0x20\n      mstore\n      0x40\n      swap1\n      keccak256\n        /* \"initial-offering.sol\":10990:11021  asset.owners[bid.bidder].exists */\n      0x02\n      add\n      sload\n        /* \"initial-offering.sol\":10879:10899  bid.allocated = true */\n      0xff\n        /* \"initial-offering.sol\":10990:11021  asset.owners[bid.bidder].exists */\n      and\n        /* \"initial-offering.sol\":10985:11494  if (!asset.owners[bid.bidder].exists) {... */\n      tag_276\n      jumpi\n        /* \"initial-offering.sol\":11049:11054  asset */\n      dup10\n        /* \"initial-offering.sol\":11049:11069  asset.ownerAddresses */\n      0x07\n      add\n        /* \"initial-offering.sol\":11075:11078  bid */\n      dup5\n        /* \"initial-offering.sol\":11075:11085  bid.bidder */\n      0x00\n      add\n      0x00\n      swap1\n      sload\n      swap1\n      0x0100\n      exp\n      swap1\n      div\n      sub(shl(0xa0, 0x01), 0x01)\n      and\n        /* \"initial-offering.sol\":11049:11086  asset.ownerAddresses.push(bid.bidder) */\n      swap1\n      dup1\n      0x01\n      dup2\n      sload\n      add\n      dup1\n      dup3\n      sstore\n      dup1\n      swap2\n      pop\n      pop\n      0x01\n      swap1\n      sub\n      swap1\n      0x00\n      mstore\n      keccak256(0x00, 0x20)\n      add\n      0x00\n      swap1\n      swap2\n      swap1\n      swap2\n      swap1\n      swap2\n      0x0100\n      exp\n      dup2\n      sload\n      dup2\n      sub(shl(0xa0, 0x01), 0x01)\n      mul\n      not\n      and\n      swap1\n      dup4\n      sub(shl(0xa0, 0x01), 0x01)\n      and\n      mul\n      or\n      swap1\n      sstore\n      pop\n        /* \"initial-offering.sol\":11139:11328  AssetOwner({... */\n      mload(0x40)\n      dup1\n      0x60\n      add\n      0x40\n      mstore\n      dup1\n        /* \"initial-offering.sol\":11194:11197  bid */\n      dup6\n        /* \"initial-offering.sol\":11194:11204  bid.bidder */\n      0x00\n      add\n      0x00\n      swap1\n      sload\n      swap1\n      0x0100\n      exp\n      swap1\n      div\n      sub(shl(0xa0, 0x01), 0x01)\n      and\n      sub(shl(0xa0, 0x01), 0x01)\n        /* \"initial-offering.sol\":11139:11328  AssetOwner({... */\n      and\n      dup2\n      mstore\n      0x20\n      add\n        /* \"initial-offering.sol\":11242:11259  allocatableShares */\n      dup5\n        /* \"initial-offering.sol\":11139:11328  AssetOwner({... */\n      dup2\n      mstore\n      0x20\n      add\n        /* \"initial-offering.sol\":11297:11301  true */\n      0x01\n        /* \"initial-offering.sol\":11139:11328  AssetOwner({... */\n      iszero\n      iszero\n      dup2\n      mstore\n      pop\n        /* \"initial-offering.sol\":11112:11117  asset */\n      dup11\n        /* \"initial-offering.sol\":11112:11124  asset.owners */\n      0x08\n      add\n        /* \"initial-offering.sol\":11112:11136  asset.owners[bid.bidder] */\n      0x00\n        /* \"initial-offering.sol\":11125:11128  bid */\n      dup7\n        /* \"initial-offering.sol\":11125:11135  bid.bidder */\n      0x00\n      add\n      0x00\n      swap1\n      sload\n      swap1\n      0x0100\n      exp\n      swap1\n      div\n      sub(shl(0xa0, 0x01), 0x01)\n      and\n      sub(shl(0xa0, 0x01), 0x01)\n        /* \"initial-offering.sol\":11112:11136  asset.owners[bid.bidder] */\n      and\n      sub(shl(0xa0, 0x01), 0x01)\n      and\n      dup2\n      mstore\n      0x20\n      add\n      swap1\n      dup2\n      mstore\n      0x20\n      add\n      0x00\n      keccak256\n        /* \"initial-offering.sol\":11112:11328  asset.owners[bid.bidder] = AssetOwner({... */\n      0x00\n      dup3\n      add\n      mload\n      dup2\n      0x00\n      add\n      exp(0x0100, 0x00)\n      dup2\n      sload\n      dup2\n      sub(shl(0xa0, 0x01), 0x01)\n      mul\n      not\n      and\n      swap1\n      dup4\n      sub(shl(0xa0, 0x01), 0x01)\n      and\n      mul\n      or\n      swap1\n      sstore\n      pop\n      0x20\n      dup3\n      add\n      mload\n      dup2\n      0x01\n      add\n      sstore\n      0x40\n      dup3\n      add\n      mload\n      dup2\n      0x02\n      add\n      exp(0x0100, 0x00)\n      dup2\n      sload\n      dup2\n      0xff\n      mul\n      not\n      and\n      swap1\n      dup4\n      iszero\n      iszero\n      mul\n      or\n      swap1\n      sstore\n      pop\n      swap1\n      pop\n      pop\n        /* \"initial-offering.sol\":10985:11494  if (!asset.owners[bid.bidder].exists) {... */\n      jump(tag_278)\n    tag_276:\n        /* \"initial-offering.sol\":11430:11440  bid.bidder */\n      dup4\n      sload\n      sub(shl(0xa0, 0x01), 0x01)\n      and\n        /* \"initial-offering.sol\":11417:11441  asset.owners[bid.bidder] */\n      0x00\n      swap1\n      dup2\n      mstore\n        /* \"initial-offering.sol\":11417:11429  asset.owners */\n      0x08\n      dup12\n      add\n        /* \"initial-offering.sol\":11417:11441  asset.owners[bid.bidder] */\n      0x20\n      mstore\n      0x40\n      swap1\n      keccak256\n        /* \"initial-offering.sol\":11430:11440  bid.bidder */\n      0x01\n        /* \"initial-offering.sol\":11417:11448  asset.owners[bid.bidder].shares */\n      add\n      sload\n        /* \"initial-offering.sol\":11417:11471  asset.owners[bid.bidder].shares.add(allocatableShares) */\n      tag_279\n      swap1\n        /* \"initial-offering.sol\":11453:11470  allocatableShares */\n      dup5\n        /* \"initial-offering.sol\":11417:11452  asset.owners[bid.bidder].shares.add */\n      tag_246\n        /* \"initial-offering.sol\":11417:11471  asset.owners[bid.bidder].shares.add(allocatableShares) */\n      jump\t// in\n    tag_279:\n        /* \"initial-offering.sol\":11396:11406  bid.bidder */\n      dup5\n      sload\n      sub(shl(0xa0, 0x01), 0x01)\n      and\n        /* \"initial-offering.sol\":11383:11407  asset.owners[bid.bidder] */\n      0x00\n      swap1\n      dup2\n      mstore\n        /* \"initial-offering.sol\":11383:11395  asset.owners */\n      0x08\n      dup13\n      add\n        /* \"initial-offering.sol\":11383:11407  asset.owners[bid.bidder] */\n      0x20\n      mstore\n      0x40\n      swap1\n      keccak256\n        /* \"initial-offering.sol\":11396:11406  bid.bidder */\n      0x01\n        /* \"initial-offering.sol\":11383:11414  asset.owners[bid.bidder].shares */\n      add\n        /* \"initial-offering.sol\":11383:11471  asset.owners[bid.bidder].shares = asset.owners[bid.bidder].shares.add(allocatableShares) */\n      sstore\n        /* \"initial-offering.sol\":10985:11494  if (!asset.owners[bid.bidder].exists) {... */\n    tag_278:\n        /* \"initial-offering.sol\":11567:11577  bid.bidder */\n      dup4\n      sload\n        /* \"initial-offering.sol\":11598:11615  bid.pricePerShare */\n      0x02\n      dup6\n      add\n      sload\n        /* \"initial-offering.sol\":11541:11616  SharesAllocated(_assetId, bid.bidder, allocatableShares, bid.pricePerShare) */\n      mload(0x40)\n      sub(shl(0xa0, 0x01), 0x01)\n        /* \"initial-offering.sol\":11567:11577  bid.bidder */\n      swap1\n      swap3\n      and\n      swap2\n        /* \"initial-offering.sol\":11557:11565  _assetId */\n      dup14\n      swap2\n        /* \"initial-offering.sol\":11541:11616  SharesAllocated(_assetId, bid.bidder, allocatableShares, bid.pricePerShare) */\n      0x46d3c445b404e9de2c80e1c0489cc92f23dfd5462ce7c6b3a1a54b3f0f70bcfc\n      swap2\n      tag_280\n      swap2\n        /* \"initial-offering.sol\":11579:11596  allocatableShares */\n      dup9\n        /* \"#utility.yul\":13767:13792   */\n      dup3\n      mstore\n        /* \"#utility.yul\":13823:13825   */\n      0x20\n        /* \"#utility.yul\":13808:13826   */\n      dup3\n      add\n        /* \"#utility.yul\":13801:13835   */\n      mstore\n        /* \"#utility.yul\":13755:13757   */\n      0x40\n        /* \"#utility.yul\":13740:13758   */\n      add\n      swap1\n        /* \"#utility.yul\":13593:13841   */\n      jump\n        /* \"initial-offering.sol\":11541:11616  SharesAllocated(_assetId, bid.bidder, allocatableShares, bid.pricePerShare) */\n    tag_280:\n      mload(0x40)\n      dup1\n      swap2\n      sub\n      swap1\n      log3\n        /* \"initial-offering.sol\":11664:11674  bid.bidder */\n      dup4\n      sload\n        /* \"initial-offering.sol\":11643:11694  OwnerAdded(_assetId, bid.bidder, allocatableShares) */\n      mload(0x40)\n        /* \"#utility.yul\":2475:2500   */\n      dup5\n      dup2\n      mstore\n      sub(shl(0xa0, 0x01), 0x01)\n        /* \"initial-offering.sol\":11664:11674  bid.bidder */\n      swap1\n      swap2\n      and\n      swap1\n        /* \"initial-offering.sol\":11654:11662  _assetId */\n      dup13\n      swap1\n        /* \"initial-offering.sol\":11643:11694  OwnerAdded(_assetId, bid.bidder, allocatableShares) */\n      0x25af9e0275abbb4de910d2062f5dcca6d4c47f1313066083dd9d7077608a7a54\n      swap1\n        /* \"#utility.yul\":2463:2465   */\n      0x20\n        /* \"#utility.yul\":2448:2466   */\n      add\n        /* \"initial-offering.sol\":11643:11694  OwnerAdded(_assetId, bid.bidder, allocatableShares) */\n      mload(0x40)\n      dup1\n      swap2\n      sub\n      swap1\n      log3\n        /* \"initial-offering.sol\":10539:11713  if(allocatableShares > 0) {... */\n    tag_272:\n        /* \"initial-offering.sol\":11796:11812  refundAmount > 0 */\n      dup1\n      iszero\n        /* \"initial-offering.sol\":11793:11962  if(refundAmount > 0) {... */\n      tag_282\n      jumpi\n        /* \"initial-offering.sol\":11844:11854  bid.bidder */\n      dup4\n      sload\n        /* \"initial-offering.sol\":11836:11878  payable(bid.bidder).transfer(refundAmount) */\n      mload(0x40)\n      sub(shl(0xa0, 0x01), 0x01)\n        /* \"initial-offering.sol\":11844:11854  bid.bidder */\n      swap1\n      swap2\n      and\n      swap1\n        /* \"initial-offering.sol\":11836:11878  payable(bid.bidder).transfer(refundAmount) */\n      dup3\n      iszero\n      0x08fc\n      mul\n      swap1\n        /* \"initial-offering.sol\":11865:11877  refundAmount */\n      dup4\n      swap1\n        /* \"initial-offering.sol\":11844:11854  bid.bidder */\n      0x00\n        /* \"initial-offering.sol\":11836:11878  payable(bid.bidder).transfer(refundAmount) */\n      dup2\n        /* \"initial-offering.sol\":11844:11854  bid.bidder */\n      dup2\n        /* \"initial-offering.sol\":11836:11878  payable(bid.bidder).transfer(refundAmount) */\n      dup2\n        /* \"initial-offering.sol\":11865:11877  refundAmount */\n      dup6\n        /* \"initial-offering.sol\":11844:11854  bid.bidder */\n      dup9\n        /* \"initial-offering.sol\":11836:11878  payable(bid.bidder).transfer(refundAmount) */\n      dup9\n      call\n      swap4\n      pop\n      pop\n      pop\n      pop\n      iszero\n      dup1\n      iszero\n      tag_284\n      jumpi\n      returndatasize\n      0x00\n      dup1\n      returndatacopy\n      revert(0x00, returndatasize)\n    tag_284:\n      pop\n        /* \"initial-offering.sol\":11918:11928  bid.bidder */\n      dup4\n      sload\n        /* \"initial-offering.sol\":11905:11943  RefundIssued(bid.bidder, refundAmount) */\n      mload(0x40)\n        /* \"#utility.yul\":2475:2500   */\n      dup3\n      dup2\n      mstore\n      sub(shl(0xa0, 0x01), 0x01)\n        /* \"initial-offering.sol\":11918:11928  bid.bidder */\n      swap1\n      swap2\n      and\n      swap1\n        /* \"initial-offering.sol\":11905:11943  RefundIssued(bid.bidder, refundAmount) */\n      0xa171b6942063c6f2800ce40a780edce37baa2b618571b11eedd1e69e626e7d76\n      swap1\n        /* \"#utility.yul\":2463:2465   */\n      0x20\n        /* \"#utility.yul\":2448:2466   */\n      add\n        /* \"initial-offering.sol\":11905:11943  RefundIssued(bid.bidder, refundAmount) */\n      mload(0x40)\n      dup1\n      swap2\n      sub\n      swap1\n      log2\n        /* \"initial-offering.sol\":11793:11962  if(refundAmount > 0) {... */\n    tag_282:\n        /* \"initial-offering.sol\":9892:11976  {... */\n      pop\n      pop\n      pop\n      pop\n        /* \"initial-offering.sol\":9851:11976  for(uint256 i = 0; i < bids.length; i++) {... */\n    tag_261:\n        /* \"initial-offering.sol\":9887:9890  i++ */\n      0x01\n      add\n        /* \"initial-offering.sol\":9851:11976  for(uint256 i = 0; i < bids.length; i++) {... */\n      jump(tag_259)\n    tag_260:\n      pop\n        /* \"initial-offering.sol\":9280:12088  if (successful) {... */\n      jump(tag_287)\n    tag_250:\n        /* \"initial-offering.sol\":12053:12077  _refundAllBids(_assetId) */\n      tag_287\n        /* \"initial-offering.sol\":12068:12076  _assetId */\n      dup7\n        /* \"initial-offering.sol\":12053:12067  _refundAllBids */\n      tag_288\n        /* \"initial-offering.sol\":12053:12077  _refundAllBids(_assetId) */\n      jump\t// in\n    tag_287:\n        /* \"initial-offering.sol\":12111:12162  BiddingEnded(_assetId, successful, block.timestamp) */\n      0x40\n      dup1\n      mload\n        /* \"#utility.yul\":7791:7805   */\n      dup3\n      iszero\n        /* \"#utility.yul\":7784:7806   */\n      iszero\n        /* \"#utility.yul\":7766:7807   */\n      dup2\n      mstore\n        /* \"initial-offering.sol\":12146:12161  block.timestamp */\n      timestamp\n        /* \"#utility.yul\":7838:7840   */\n      0x20\n        /* \"#utility.yul\":7823:7841   */\n      dup3\n      add\n        /* \"#utility.yul\":7816:7850   */\n      mstore\n        /* \"initial-offering.sol\":12124:12132  _assetId */\n      dup8\n      swap2\n        /* \"initial-offering.sol\":12111:12162  BiddingEnded(_assetId, successful, block.timestamp) */\n      0x4d7a5e450395fb8fb6b67c4751f80f057cd5a74550929306eff2cac7f0ecc188\n      swap2\n        /* \"#utility.yul\":7739:7757   */\n      add\n        /* \"initial-offering.sol\":12111:12162  BiddingEnded(_assetId, successful, block.timestamp) */\n      mload(0x40)\n      dup1\n      swap2\n      sub\n      swap1\n      log2\n        /* \"initial-offering.sol\":8218:12169  {... */\n      pop\n      pop\n      pop\n      pop\n      pop\n        /* \"initial-offering.sol\":8169:12169  function _processBids(uint256 _assetId) internal {... */\n      pop\n      jump\t// out\n        /* \"@openzeppelin/contracts/utils/math/SafeMath.sol\":3850:3946  function div(uint256 a, uint256 b) internal pure returns (uint256) {... */\n    tag_168:\n        /* \"@openzeppelin/contracts/utils/math/SafeMath.sol\":3908:3915  uint256 */\n      0x00\n        /* \"@openzeppelin/contracts/utils/math/SafeMath.sol\":3934:3939  a / b */\n      tag_292\n        /* \"@openzeppelin/contracts/utils/math/SafeMath.sol\":3938:3939  b */\n      dup3\n        /* \"@openzeppelin/contracts/utils/math/SafeMath.sol\":3934:3935  a */\n      dup5\n        /* \"@openzeppelin/contracts/utils/math/SafeMath.sol\":3934:3939  a / b */\n      tag_293\n      jump\t// in\n    tag_292:\n        /* \"@openzeppelin/contracts/utils/math/SafeMath.sol\":3927:3939  return a / b */\n      swap1\n      pop\n        /* \"@openzeppelin/contracts/utils/math/SafeMath.sol\":3850:3946  function div(uint256 a, uint256 b) internal pure returns (uint256) {... */\n    tag_291:\n      swap3\n      swap2\n      pop\n      pop\n      jump\t// out\n        /* \"initial-offering.sol\":12217:12660  function _sortBids(uint256 _assetId) internal {... */\n    tag_232:\n        /* \"initial-offering.sol\":12273:12291  Bid[] storage bids */\n      0x00\n        /* \"initial-offering.sol\":12294:12313  assetBids[_assetId] */\n      dup2\n      dup2\n      mstore\n        /* \"initial-offering.sol\":12294:12303  assetBids */\n      0x02\n        /* \"initial-offering.sol\":12294:12313  assetBids[_assetId] */\n      0x20\n      mstore\n      0x40\n      dup2\n      keccak256\n      swap1\n        /* \"initial-offering.sol\":12323:12654  for(uint256 i = 0; i < bids.length; i++) {... */\n    tag_295:\n        /* \"initial-offering.sol\":12346:12357  bids.length */\n      dup2\n      sload\n        /* \"initial-offering.sol\":12342:12357  i < bids.length */\n      dup2\n      lt\n        /* \"initial-offering.sol\":12323:12654  for(uint256 i = 0; i < bids.length; i++) {... */\n      iszero\n      tag_296\n      jumpi\n        /* \"initial-offering.sol\":12382:12391  uint256 j */\n      0x00\n        /* \"initial-offering.sol\":12394:12397  i+1 */\n      tag_301\n        /* \"initial-offering.sol\":12394:12395  i */\n      dup3\n        /* \"initial-offering.sol\":12396:12397  1 */\n      0x01\n        /* \"initial-offering.sol\":12394:12397  i+1 */\n      tag_149\n      jump\t// in\n    tag_301:\n        /* \"initial-offering.sol\":12382:12397  uint256 j = i+1 */\n      swap1\n      pop\n        /* \"initial-offering.sol\":12378:12644  for(uint256 j = i+1; j < bids.length; j++) {... */\n    tag_298:\n        /* \"initial-offering.sol\":12403:12414  bids.length */\n      dup3\n      sload\n        /* \"initial-offering.sol\":12399:12414  j < bids.length */\n      dup2\n      lt\n        /* \"initial-offering.sol\":12378:12644  for(uint256 j = i+1; j < bids.length; j++) {... */\n      iszero\n      tag_299\n      jumpi\n        /* \"initial-offering.sol\":12466:12470  bids */\n      dup3\n        /* \"initial-offering.sol\":12471:12472  j */\n      dup2\n        /* \"initial-offering.sol\":12466:12473  bids[j] */\n      dup2\n      sload\n      dup2\n      lt\n      tag_303\n      jumpi\n      tag_303\n      tag_93\n      jump\t// in\n    tag_303:\n      swap1\n      0x00\n      mstore\n      keccak256(0x00, 0x20)\n      swap1\n      0x04\n      mul\n      add\n        /* \"initial-offering.sol\":12466:12487  bids[j].pricePerShare */\n      0x02\n      add\n      sload\n        /* \"initial-offering.sol\":12442:12446  bids */\n      dup4\n        /* \"initial-offering.sol\":12447:12448  i */\n      dup4\n        /* \"initial-offering.sol\":12442:12449  bids[i] */\n      dup2\n      sload\n      dup2\n      lt\n      tag_306\n      jumpi\n      tag_306\n      tag_93\n      jump\t// in\n    tag_306:\n      swap1\n      0x00\n      mstore\n      keccak256(0x00, 0x20)\n      swap1\n      0x04\n      mul\n      add\n        /* \"initial-offering.sol\":12442:12463  bids[i].pricePerShare */\n      0x02\n      add\n      sload\n        /* \"initial-offering.sol\":12442:12487  bids[i].pricePerShare < bids[j].pricePerShare */\n      lt\n        /* \"initial-offering.sol\":12439:12630  if(bids[i].pricePerShare < bids[j].pricePerShare) {... */\n      iszero\n      tag_308\n      jumpi\n        /* \"initial-offering.sol\":12511:12526  Bid memory temp */\n      0x00\n        /* \"initial-offering.sol\":12529:12533  bids */\n      dup4\n        /* \"initial-offering.sol\":12534:12535  i */\n      dup4\n        /* \"initial-offering.sol\":12529:12536  bids[i] */\n      dup2\n      sload\n      dup2\n      lt\n      tag_310\n      jumpi\n      tag_310\n      tag_93\n      jump\t// in\n    tag_310:\n      0x00\n      swap2\n      dup3\n      mstore\n      0x20\n      swap2\n      dup3\n      swap1\n      keccak256\n        /* \"initial-offering.sol\":12511:12536  Bid memory temp = bids[i] */\n      0x40\n      dup1\n      mload\n      0x80\n      dup2\n      add\n      dup3\n      mstore\n        /* \"initial-offering.sol\":12529:12536  bids[i] */\n      0x04\n      swap1\n      swap4\n      mul\n      swap1\n      swap2\n      add\n        /* \"initial-offering.sol\":12511:12536  Bid memory temp = bids[i] */\n      dup1\n      sload\n      sub(shl(0xa0, 0x01), 0x01)\n      and\n      dup4\n      mstore\n      0x01\n      dup2\n      add\n      sload\n      swap4\n      dup4\n      add\n      swap4\n      swap1\n      swap4\n      mstore\n      0x02\n      dup4\n      add\n      sload\n      swap1\n      dup3\n      add\n      mstore\n      0x03\n      swap1\n      swap2\n      add\n      sload\n      0xff\n      and\n      iszero\n      iszero\n      0x60\n      dup3\n      add\n      mstore\n        /* \"initial-offering.sol\":12568:12575  bids[j] */\n      dup5\n      sload\n        /* \"initial-offering.sol\":12511:12536  Bid memory temp = bids[i] */\n      swap1\n      swap2\n      pop\n        /* \"initial-offering.sol\":12568:12572  bids */\n      dup5\n      swap1\n        /* \"initial-offering.sol\":12573:12574  j */\n      dup4\n      swap1\n        /* \"initial-offering.sol\":12568:12575  bids[j] */\n      dup2\n      lt\n      tag_313\n      jumpi\n      tag_313\n      tag_93\n      jump\t// in\n    tag_313:\n      swap1\n      0x00\n      mstore\n      keccak256(0x00, 0x20)\n      swap1\n      0x04\n      mul\n      add\n        /* \"initial-offering.sol\":12558:12562  bids */\n      dup5\n        /* \"initial-offering.sol\":12563:12564  i */\n      dup5\n        /* \"initial-offering.sol\":12558:12565  bids[i] */\n      dup2\n      sload\n      dup2\n      lt\n      tag_316\n      jumpi\n      tag_316\n      tag_93\n      jump\t// in\n    tag_316:\n      0x00\n      swap2\n      dup3\n      mstore\n      0x20\n      swap1\n      swap2\n      keccak256\n        /* \"initial-offering.sol\":12558:12575  bids[i] = bids[j] */\n      dup3\n      sload\n        /* \"initial-offering.sol\":12558:12565  bids[i] */\n      0x04\n      swap1\n      swap3\n      mul\n      add\n        /* \"initial-offering.sol\":12558:12575  bids[i] = bids[j] */\n      dup1\n      sload\n      not(sub(shl(0xa0, 0x01), 0x01))\n      and\n      sub(shl(0xa0, 0x01), 0x01)\n      swap1\n      swap3\n      and\n      swap2\n      swap1\n      swap2\n      or\n      dup2\n      sstore\n      0x01\n      dup1\n      dup4\n      add\n      sload\n      swap1\n      dup3\n      add\n      sstore\n      0x02\n      dup1\n      dup4\n      add\n      sload\n      swap1\n      dup3\n      add\n      sstore\n      0x03\n      swap2\n      dup3\n      add\n      sload\n      swap2\n      add\n      dup1\n      sload\n      0xff\n      swap1\n      swap3\n      and\n      iszero\n      iszero\n      not(0xff)\n      swap1\n      swap3\n      and\n      swap2\n      swap1\n      swap2\n      or\n      swap1\n      sstore\n        /* \"initial-offering.sol\":12597:12604  bids[j] */\n      dup4\n      sload\n        /* \"initial-offering.sol\":12607:12611  temp */\n      dup2\n      swap1\n        /* \"initial-offering.sol\":12597:12601  bids */\n      dup6\n      swap1\n        /* \"initial-offering.sol\":12602:12603  j */\n      dup5\n      swap1\n        /* \"initial-offering.sol\":12597:12604  bids[j] */\n      dup2\n      lt\n      tag_319\n      jumpi\n      tag_319\n      tag_93\n      jump\t// in\n    tag_319:\n      0x00\n      swap2\n      dup3\n      mstore\n      0x20\n      swap2\n      dup3\n      swap1\n      keccak256\n        /* \"initial-offering.sol\":12597:12611  bids[j] = temp */\n      dup4\n      mload\n        /* \"initial-offering.sol\":12597:12604  bids[j] */\n      0x04\n      swap3\n      swap1\n      swap3\n      mul\n      add\n        /* \"initial-offering.sol\":12597:12611  bids[j] = temp */\n      dup1\n      sload\n      not(sub(shl(0xa0, 0x01), 0x01))\n      and\n      sub(shl(0xa0, 0x01), 0x01)\n      swap1\n      swap3\n      and\n      swap2\n      swap1\n      swap2\n      or\n      dup2\n      sstore\n      swap1\n      dup3\n      add\n      mload\n      0x01\n      dup3\n      add\n      sstore\n      0x40\n      dup3\n      add\n      mload\n      0x02\n      dup3\n      add\n      sstore\n      0x60\n      swap1\n      swap2\n      add\n      mload\n      0x03\n      swap1\n      swap2\n      add\n      dup1\n      sload\n      not(0xff)\n      and\n      swap2\n      iszero\n      iszero\n      swap2\n      swap1\n      swap2\n      or\n      swap1\n      sstore\n      pop\n        /* \"initial-offering.sol\":12439:12630  if(bids[i].pricePerShare < bids[j].pricePerShare) {... */\n    tag_308:\n        /* \"initial-offering.sol\":12416:12419  j++ */\n      0x01\n      add\n        /* \"initial-offering.sol\":12378:12644  for(uint256 j = i+1; j < bids.length; j++) {... */\n      jump(tag_298)\n    tag_299:\n      pop\n        /* \"initial-offering.sol\":12359:12362  i++ */\n      0x01\n      add\n        /* \"initial-offering.sol\":12323:12654  for(uint256 i = 0; i < bids.length; i++) {... */\n      jump(tag_295)\n    tag_296:\n      pop\n        /* \"initial-offering.sol\":12263:12660  {... */\n      pop\n        /* \"initial-offering.sol\":12217:12660  function _sortBids(uint256 _assetId) internal {... */\n      pop\n      jump\t// out\n        /* \"@openzeppelin/contracts/utils/math/SafeMath.sol\":3465:3561  function mul(uint256 a, uint256 b) internal pure returns (uint256) {... */\n    tag_245:\n        /* \"@openzeppelin/contracts/utils/math/SafeMath.sol\":3523:3530  uint256 */\n      0x00\n        /* \"@openzeppelin/contracts/utils/math/SafeMath.sol\":3549:3554  a * b */\n      tag_292\n        /* \"@openzeppelin/contracts/utils/math/SafeMath.sol\":3553:3554  b */\n      dup3\n        /* \"@openzeppelin/contracts/utils/math/SafeMath.sol\":3549:3550  a */\n      dup5\n        /* \"@openzeppelin/contracts/utils/math/SafeMath.sol\":3549:3554  a * b */\n      tag_323\n      jump\t// in\n        /* \"@openzeppelin/contracts/utils/math/SafeMath.sol\":2755:2851  function add(uint256 a, uint256 b) internal pure returns (uint256) {... */\n    tag_246:\n        /* \"@openzeppelin/contracts/utils/math/SafeMath.sol\":2813:2820  uint256 */\n      0x00\n        /* \"@openzeppelin/contracts/utils/math/SafeMath.sol\":2839:2844  a + b */\n      tag_292\n        /* \"@openzeppelin/contracts/utils/math/SafeMath.sol\":2843:2844  b */\n      dup3\n        /* \"@openzeppelin/contracts/utils/math/SafeMath.sol\":2839:2840  a */\n      dup5\n        /* \"@openzeppelin/contracts/utils/math/SafeMath.sol\":2839:2844  a + b */\n      tag_149\n      jump\t// in\n        /* \"@openzeppelin/contracts/utils/math/SafeMath.sol\":3122:3218  function sub(uint256 a, uint256 b) internal pure returns (uint256) {... */\n    tag_248:\n        /* \"@openzeppelin/contracts/utils/math/SafeMath.sol\":3180:3187  uint256 */\n      0x00\n        /* \"@openzeppelin/contracts/utils/math/SafeMath.sol\":3206:3211  a - b */\n      tag_292\n        /* \"@openzeppelin/contracts/utils/math/SafeMath.sol\":3210:3211  b */\n      dup3\n        /* \"@openzeppelin/contracts/utils/math/SafeMath.sol\":3206:3207  a */\n      dup5\n        /* \"@openzeppelin/contracts/utils/math/SafeMath.sol\":3206:3211  a - b */\n      tag_328\n      jump\t// in\n        /* \"initial-offering.sol\":12735:13171  function _refundAllBids(uint256 _assetId) internal {... */\n    tag_288:\n        /* \"initial-offering.sol\":12796:12814  Bid[] storage bids */\n      0x00\n        /* \"initial-offering.sol\":12817:12836  assetBids[_assetId] */\n      dup2\n      dup2\n      mstore\n        /* \"initial-offering.sol\":12817:12826  assetBids */\n      0x02\n        /* \"initial-offering.sol\":12817:12836  assetBids[_assetId] */\n      0x20\n      mstore\n      0x40\n      dup2\n      keccak256\n      swap1\n        /* \"initial-offering.sol\":12846:13165  for(uint256 i = 0; i < bids.length; i++) {... */\n    tag_330:\n        /* \"initial-offering.sol\":12869:12880  bids.length */\n      dup2\n      sload\n        /* \"initial-offering.sol\":12865:12880  i < bids.length */\n      dup2\n      lt\n        /* \"initial-offering.sol\":12846:13165  for(uint256 i = 0; i < bids.length; i++) {... */\n      iszero\n      tag_296\n      jumpi\n        /* \"initial-offering.sol\":12905:12909  bids */\n      dup2\n        /* \"initial-offering.sol\":12910:12911  i */\n      dup2\n        /* \"initial-offering.sol\":12905:12912  bids[i] */\n      dup2\n      sload\n      dup2\n      lt\n      tag_334\n      jumpi\n      tag_334\n      tag_93\n      jump\t// in\n    tag_334:\n      0x00\n      swap2\n      dup3\n      mstore\n      0x20\n      swap1\n      swap2\n      keccak256\n        /* \"initial-offering.sol\":12905:12922  bids[i].allocated */\n      0x03\n        /* \"initial-offering.sol\":12905:12912  bids[i] */\n      0x04\n      swap1\n      swap3\n      mul\n      add\n        /* \"initial-offering.sol\":12905:12922  bids[i].allocated */\n      add\n      sload\n      0xff\n      and\n        /* \"initial-offering.sol\":12901:13155  if(!bids[i].allocated) {... */\n      tag_336\n      jumpi\n        /* \"initial-offering.sol\":12942:12962  uint256 refundAmount */\n      0x00\n        /* \"initial-offering.sol\":12965:13011  bids[i].shareAmount.mul(bids[i].pricePerShare) */\n      tag_337\n        /* \"initial-offering.sol\":12989:12993  bids */\n      dup4\n        /* \"initial-offering.sol\":12994:12995  i */\n      dup4\n        /* \"initial-offering.sol\":12989:12996  bids[i] */\n      dup2\n      sload\n      dup2\n      lt\n      tag_339\n      jumpi\n      tag_339\n      tag_93\n      jump\t// in\n    tag_339:\n      swap1\n      0x00\n      mstore\n      keccak256(0x00, 0x20)\n      swap1\n      0x04\n      mul\n      add\n        /* \"initial-offering.sol\":12989:13010  bids[i].pricePerShare */\n      0x02\n      add\n      sload\n        /* \"initial-offering.sol\":12965:12969  bids */\n      dup5\n        /* \"initial-offering.sol\":12970:12971  i */\n      dup5\n        /* \"initial-offering.sol\":12965:12972  bids[i] */\n      dup2\n      sload\n      dup2\n      lt\n      tag_342\n      jumpi\n      tag_342\n      tag_93\n      jump\t// in\n    tag_342:\n      swap1\n      0x00\n      mstore\n      keccak256(0x00, 0x20)\n      swap1\n      0x04\n      mul\n      add\n        /* \"initial-offering.sol\":12965:12984  bids[i].shareAmount */\n      0x01\n      add\n      sload\n        /* \"initial-offering.sol\":12965:12988  bids[i].shareAmount.mul */\n      tag_245\n      swap1\n        /* \"initial-offering.sol\":12965:13011  bids[i].shareAmount.mul(bids[i].pricePerShare) */\n      swap2\n      swap1\n      0xffffffff\n      and\n      jump\t// in\n    tag_337:\n        /* \"initial-offering.sol\":12942:13011  uint256 refundAmount = bids[i].shareAmount.mul(bids[i].pricePerShare) */\n      swap1\n      pop\n        /* \"initial-offering.sol\":13037:13041  bids */\n      dup3\n        /* \"initial-offering.sol\":13042:13043  i */\n      dup3\n        /* \"initial-offering.sol\":13037:13044  bids[i] */\n      dup2\n      sload\n      dup2\n      lt\n      tag_345\n      jumpi\n      tag_345\n      tag_93\n      jump\t// in\n    tag_345:\n      0x00\n      swap2\n      dup3\n      mstore\n      0x20\n      dup3\n      keccak256\n      0x04\n      swap1\n      swap2\n      mul\n      add\n        /* \"initial-offering.sol\":13037:13051  bids[i].bidder */\n      sload\n        /* \"initial-offering.sol\":13029:13075  payable(bids[i].bidder).transfer(refundAmount) */\n      mload(0x40)\n      sub(shl(0xa0, 0x01), 0x01)\n        /* \"initial-offering.sol\":13037:13051  bids[i].bidder */\n      swap1\n      swap2\n      and\n      swap2\n        /* \"initial-offering.sol\":13029:13075  payable(bids[i].bidder).transfer(refundAmount) */\n      dup4\n      iszero\n      0x08fc\n      mul\n      swap2\n        /* \"initial-offering.sol\":13062:13074  refundAmount */\n      dup5\n      swap2\n        /* \"initial-offering.sol\":13029:13075  payable(bids[i].bidder).transfer(refundAmount) */\n      dup2\n        /* \"initial-offering.sol\":13037:13044  bids[i] */\n      dup2\n        /* \"initial-offering.sol\":13029:13075  payable(bids[i].bidder).transfer(refundAmount) */\n      dup2\n        /* \"initial-offering.sol\":13062:13074  refundAmount */\n      dup6\n        /* \"initial-offering.sol\":13037:13051  bids[i].bidder */\n      dup9\n        /* \"initial-offering.sol\":13029:13075  payable(bids[i].bidder).transfer(refundAmount) */\n      dup9\n      call\n      swap4\n      pop\n      pop\n      pop\n      pop\n      iszero\n      dup1\n      iszero\n      tag_348\n      jumpi\n      returndatasize\n      0x00\n      dup1\n      returndatacopy\n      revert(0x00, returndatasize)\n    tag_348:\n      pop\n        /* \"initial-offering.sol\":13111:13115  bids */\n      dup3\n        /* \"initial-offering.sol\":13116:13117  i */\n      dup3\n        /* \"initial-offering.sol\":13111:13118  bids[i] */\n      dup2\n      sload\n      dup2\n      lt\n      tag_350\n      jumpi\n      tag_350\n      tag_93\n      jump\t// in\n    tag_350:\n      0x00\n      swap2\n      dup3\n      mstore\n      0x20\n      swap2\n      dup3\n      swap1\n      keccak256\n      0x04\n      swap1\n      swap2\n      mul\n      add\n        /* \"initial-offering.sol\":13111:13125  bids[i].bidder */\n      sload\n        /* \"initial-offering.sol\":13098:13140  RefundIssued(bids[i].bidder, refundAmount) */\n      mload(0x40)\n        /* \"#utility.yul\":2475:2500   */\n      dup4\n      dup2\n      mstore\n      sub(shl(0xa0, 0x01), 0x01)\n        /* \"initial-offering.sol\":13111:13125  bids[i].bidder */\n      swap1\n      swap2\n      and\n      swap2\n        /* \"initial-offering.sol\":13098:13140  RefundIssued(bids[i].bidder, refundAmount) */\n      0xa171b6942063c6f2800ce40a780edce37baa2b618571b11eedd1e69e626e7d76\n      swap2\n        /* \"#utility.yul\":2448:2466   */\n      add\n        /* \"initial-offering.sol\":13098:13140  RefundIssued(bids[i].bidder, refundAmount) */\n      mload(0x40)\n      dup1\n      swap2\n      sub\n      swap1\n      log2\n        /* \"initial-offering.sol\":12924:13155  {... */\n      pop\n        /* \"initial-offering.sol\":12901:13155  if(!bids[i].allocated) {... */\n    tag_336:\n        /* \"initial-offering.sol\":12882:12885  i++ */\n      0x01\n      add\n        /* \"initial-offering.sol\":12846:13165  for(uint256 i = 0; i < bids.length; i++) {... */\n      jump(tag_330)\n    tag_258:\n      pop\n      dup1\n      sload\n      0x00\n      dup3\n      sstore\n      swap1\n      0x00\n      mstore\n      keccak256(0x00, 0x20)\n      swap1\n      dup2\n      add\n      swap1\n      tag_128\n      swap2\n      swap1\n    tag_356:\n      dup1\n      dup3\n      gt\n      iszero\n      tag_357\n      jumpi\n      0x00\n      dup2\n      sstore\n      0x01\n      add\n      jump(tag_356)\n    tag_357:\n      pop\n      swap1\n      jump\t// out\n        /* \"#utility.yul\":14:240   */\n    tag_17:\n        /* \"#utility.yul\":73:79   */\n      0x00\n        /* \"#utility.yul\":126:128   */\n      0x20\n        /* \"#utility.yul\":114:123   */\n      dup3\n        /* \"#utility.yul\":105:112   */\n      dup5\n        /* \"#utility.yul\":101:124   */\n      sub\n        /* \"#utility.yul\":97:129   */\n      slt\n        /* \"#utility.yul\":94:146   */\n      iszero\n      tag_367\n      jumpi\n        /* \"#utility.yul\":142:143   */\n      0x00\n        /* \"#utility.yul\":139:140   */\n      dup1\n        /* \"#utility.yul\":132:144   */\n      revert\n        /* \"#utility.yul\":94:146   */\n    tag_367:\n      pop\n        /* \"#utility.yul\":187:210   */\n      calldataload\n      swap2\n        /* \"#utility.yul\":14:240   */\n      swap1\n      pop\n      jump\t// out\n        /* \"#utility.yul\":245:691   */\n    tag_358:\n        /* \"#utility.yul\":298:301   */\n      0x00\n        /* \"#utility.yul\":336:341   */\n      dup2\n        /* \"#utility.yul\":330:342   */\n      mload\n        /* \"#utility.yul\":363:369   */\n      dup1\n        /* \"#utility.yul\":358:361   */\n      dup5\n        /* \"#utility.yul\":351:370   */\n      mstore\n        /* \"#utility.yul\":395:399   */\n      0x20\n        /* \"#utility.yul\":390:393   */\n      dup5\n        /* \"#utility.yul\":386:400   */\n      add\n        /* \"#utility.yul\":379:400   */\n      swap4\n      pop\n        /* \"#utility.yul\":434:438   */\n      0x20\n        /* \"#utility.yul\":427:432   */\n      dup4\n        /* \"#utility.yul\":423:439   */\n      add\n        /* \"#utility.yul\":457:458   */\n      0x00\n        /* \"#utility.yul\":467:666   */\n    tag_369:\n        /* \"#utility.yul\":481:487   */\n      dup3\n        /* \"#utility.yul\":478:479   */\n      dup2\n        /* \"#utility.yul\":475:488   */\n      lt\n        /* \"#utility.yul\":467:666   */\n      iszero\n      tag_371\n      jumpi\n        /* \"#utility.yul\":546:559   */\n      dup2\n      mload\n      sub(shl(0xa0, 0x01), 0x01)\n        /* \"#utility.yul\":542:581   */\n      and\n        /* \"#utility.yul\":530:582   */\n      dup7\n      mstore\n        /* \"#utility.yul\":611:615   */\n      0x20\n        /* \"#utility.yul\":602:616   */\n      swap6\n      dup7\n      add\n      swap6\n        /* \"#utility.yul\":639:656   */\n      swap1\n      swap2\n      add\n      swap1\n        /* \"#utility.yul\":578:579   */\n      0x01\n        /* \"#utility.yul\":496:505   */\n      add\n        /* \"#utility.yul\":467:666   */\n      jump(tag_369)\n    tag_371:\n      pop\n        /* \"#utility.yul\":682:685   */\n      swap4\n      swap5\n        /* \"#utility.yul\":245:691   */\n      swap4\n      pop\n      pop\n      pop\n      pop\n      jump\t// out\n        /* \"#utility.yul\":696:1116   */\n    tag_359:\n        /* \"#utility.yul\":749:752   */\n      0x00\n        /* \"#utility.yul\":787:792   */\n      dup2\n        /* \"#utility.yul\":781:793   */\n      mload\n        /* \"#utility.yul\":814:820   */\n      dup1\n        /* \"#utility.yul\":809:812   */\n      dup5\n        /* \"#utility.yul\":802:821   */\n      mstore\n        /* \"#utility.yul\":846:850   */\n      0x20\n        /* \"#utility.yul\":841:844   */\n      dup5\n        /* \"#utility.yul\":837:851   */\n      add\n        /* \"#utility.yul\":830:851   */\n      swap4\n      pop\n        /* \"#utility.yul\":885:889   */\n      0x20\n        /* \"#utility.yul\":878:883   */\n      dup4\n        /* \"#utility.yul\":874:890   */\n      add\n        /* \"#utility.yul\":908:909   */\n      0x00\n        /* \"#utility.yul\":918:1091   */\n    tag_373:\n        /* \"#utility.yul\":932:938   */\n      dup3\n        /* \"#utility.yul\":929:930   */\n      dup2\n        /* \"#utility.yul\":926:939   */\n      lt\n        /* \"#utility.yul\":918:1091   */\n      iszero\n      tag_371\n      jumpi\n        /* \"#utility.yul\":993:1006   */\n      dup2\n      mload\n        /* \"#utility.yul\":981:1007   */\n      dup7\n      mstore\n        /* \"#utility.yul\":1036:1040   */\n      0x20\n        /* \"#utility.yul\":1027:1041   */\n      swap6\n      dup7\n      add\n      swap6\n        /* \"#utility.yul\":1064:1081   */\n      swap1\n      swap2\n      add\n      swap1\n        /* \"#utility.yul\":954:955   */\n      0x01\n        /* \"#utility.yul\":947:956   */\n      add\n        /* \"#utility.yul\":918:1091   */\n      jump(tag_373)\n        /* \"#utility.yul\":1121:2324   */\n    tag_20:\n        /* \"#utility.yul\":1528:1531   */\n      0x80\n        /* \"#utility.yul\":1517:1526   */\n      dup2\n        /* \"#utility.yul\":1510:1532   */\n      mstore\n        /* \"#utility.yul\":1491:1495   */\n      0x00\n        /* \"#utility.yul\":1555:1612   */\n      tag_377\n        /* \"#utility.yul\":1607:1610   */\n      0x80\n        /* \"#utility.yul\":1596:1605   */\n      dup4\n        /* \"#utility.yul\":1592:1611   */\n      add\n        /* \"#utility.yul\":1584:1590   */\n      dup8\n        /* \"#utility.yul\":1555:1612   */\n      tag_358\n      jump\t// in\n    tag_377:\n        /* \"#utility.yul\":1660:1669   */\n      dup3\n        /* \"#utility.yul\":1652:1658   */\n      dup2\n        /* \"#utility.yul\":1648:1670   */\n      sub\n        /* \"#utility.yul\":1643:1645   */\n      0x20\n        /* \"#utility.yul\":1632:1641   */\n      dup5\n        /* \"#utility.yul\":1628:1646   */\n      add\n        /* \"#utility.yul\":1621:1671   */\n      mstore\n        /* \"#utility.yul\":1694:1738   */\n      tag_378\n        /* \"#utility.yul\":1731:1737   */\n      dup2\n        /* \"#utility.yul\":1723:1729   */\n      dup8\n        /* \"#utility.yul\":1694:1738   */\n      tag_359\n      jump\t// in\n    tag_378:\n        /* \"#utility.yul\":1680:1738   */\n      swap1\n      pop\n        /* \"#utility.yul\":1786:1795   */\n      dup3\n        /* \"#utility.yul\":1778:1784   */\n      dup2\n        /* \"#utility.yul\":1774:1796   */\n      sub\n        /* \"#utility.yul\":1769:1771   */\n      0x40\n        /* \"#utility.yul\":1758:1767   */\n      dup5\n        /* \"#utility.yul\":1754:1772   */\n      add\n        /* \"#utility.yul\":1747:1797   */\n      mstore\n        /* \"#utility.yul\":1820:1864   */\n      tag_379\n        /* \"#utility.yul\":1857:1863   */\n      dup2\n        /* \"#utility.yul\":1849:1855   */\n      dup7\n        /* \"#utility.yul\":1820:1864   */\n      tag_359\n      jump\t// in\n    tag_379:\n        /* \"#utility.yul\":1900:1922   */\n      dup4\n      dup2\n      sub\n        /* \"#utility.yul\":1895:1897   */\n      0x60\n        /* \"#utility.yul\":1880:1898   */\n      dup6\n      add\n        /* \"#utility.yul\":1873:1923   */\n      mstore\n        /* \"#utility.yul\":1972:1985   */\n      dup5\n      mload\n        /* \"#utility.yul\":1994:2016   */\n      dup1\n      dup3\n      mstore\n        /* \"#utility.yul\":2044:2046   */\n      0x20\n        /* \"#utility.yul\":2070:2085   */\n      dup1\n      dup8\n      add\n      swap4\n      pop\n        /* \"#utility.yul\":2032:2047   */\n      swap1\n      swap2\n      add\n      swap1\n        /* \"#utility.yul\":2103:2104   */\n      0x00\n        /* \"#utility.yul\":2113:2298   */\n    tag_380:\n        /* \"#utility.yul\":2127:2133   */\n      dup2\n        /* \"#utility.yul\":2124:2125   */\n      dup2\n        /* \"#utility.yul\":2121:2134   */\n      lt\n        /* \"#utility.yul\":2113:2298   */\n      iszero\n      tag_382\n      jumpi\n        /* \"#utility.yul\":2202:2215   */\n      dup4\n      mload\n        /* \"#utility.yul\":2195:2216   */\n      iszero\n        /* \"#utility.yul\":2188:2217   */\n      iszero\n        /* \"#utility.yul\":2176:2218   */\n      dup4\n      mstore\n        /* \"#utility.yul\":2247:2249   */\n      0x20\n        /* \"#utility.yul\":2273:2288   */\n      swap4\n      dup5\n      add\n      swap4\n        /* \"#utility.yul\":2238:2250   */\n      swap1\n      swap3\n      add\n      swap2\n        /* \"#utility.yul\":2149:2150   */\n      0x01\n        /* \"#utility.yul\":2142:2151   */\n      add\n        /* \"#utility.yul\":2113:2298   */\n      jump(tag_380)\n    tag_382:\n      pop\n        /* \"#utility.yul\":2315:2318   */\n      swap1\n      swap9\n        /* \"#utility.yul\":1121:2324   */\n      swap8\n      pop\n      pop\n      pop\n      pop\n      pop\n      pop\n      pop\n      pop\n      jump\t// out\n        /* \"#utility.yul\":2511:2638   */\n    tag_77:\n        /* \"#utility.yul\":2572:2582   */\n      0x4e487b71\n        /* \"#utility.yul\":2567:2570   */\n      0xe0\n        /* \"#utility.yul\":2563:2583   */\n      shl\n        /* \"#utility.yul\":2560:2561   */\n      0x00\n        /* \"#utility.yul\":2553:2584   */\n      mstore\n        /* \"#utility.yul\":2603:2607   */\n      0x41\n        /* \"#utility.yul\":2600:2601   */\n      0x04\n        /* \"#utility.yul\":2593:2608   */\n      mstore\n        /* \"#utility.yul\":2627:2631   */\n      0x24\n        /* \"#utility.yul\":2624:2625   */\n      0x00\n        /* \"#utility.yul\":2617:2632   */\n      revert\n        /* \"#utility.yul\":2643:4074   */\n    tag_33:\n        /* \"#utility.yul\":2748:2754   */\n      0x00\n        /* \"#utility.yul\":2756:2762   */\n      dup1\n        /* \"#utility.yul\":2764:2770   */\n      0x00\n        /* \"#utility.yul\":2772:2778   */\n      dup1\n        /* \"#utility.yul\":2780:2786   */\n      0x00\n        /* \"#utility.yul\":2833:2836   */\n      0xa0\n        /* \"#utility.yul\":2821:2830   */\n      dup7\n        /* \"#utility.yul\":2812:2819   */\n      dup9\n        /* \"#utility.yul\":2808:2831   */\n      sub\n        /* \"#utility.yul\":2804:2837   */\n      slt\n        /* \"#utility.yul\":2801:2854   */\n      iszero\n      tag_386\n      jumpi\n        /* \"#utility.yul\":2850:2851   */\n      0x00\n        /* \"#utility.yul\":2847:2848   */\n      dup1\n        /* \"#utility.yul\":2840:2852   */\n      revert\n        /* \"#utility.yul\":2801:2854   */\n    tag_386:\n        /* \"#utility.yul\":2890:2899   */\n      dup6\n        /* \"#utility.yul\":2877:2900   */\n      calldataload\n      sub(shl(0x40, 0x01), 0x01)\n        /* \"#utility.yul\":2915:2921   */\n      dup2\n        /* \"#utility.yul\":2912:2942   */\n      gt\n        /* \"#utility.yul\":2909:2959   */\n      iszero\n      tag_387\n      jumpi\n        /* \"#utility.yul\":2955:2956   */\n      0x00\n        /* \"#utility.yul\":2952:2953   */\n      dup1\n        /* \"#utility.yul\":2945:2957   */\n      revert\n        /* \"#utility.yul\":2909:2959   */\n    tag_387:\n        /* \"#utility.yul\":2978:3000   */\n      dup7\n      add\n        /* \"#utility.yul\":3031:3035   */\n      0x1f\n        /* \"#utility.yul\":3023:3036   */\n      dup2\n      add\n        /* \"#utility.yul\":3019:3046   */\n      dup9\n      sgt\n        /* \"#utility.yul\":3009:3064   */\n      tag_388\n      jumpi\n        /* \"#utility.yul\":3060:3061   */\n      0x00\n        /* \"#utility.yul\":3057:3058   */\n      dup1\n        /* \"#utility.yul\":3050:3062   */\n      revert\n        /* \"#utility.yul\":3009:3064   */\n    tag_388:\n        /* \"#utility.yul\":3100:3102   */\n      dup1\n        /* \"#utility.yul\":3087:3103   */\n      calldataload\n      sub(shl(0x40, 0x01), 0x01)\n        /* \"#utility.yul\":3118:3124   */\n      dup2\n        /* \"#utility.yul\":3115:3145   */\n      gt\n        /* \"#utility.yul\":3112:3168   */\n      iszero\n      tag_390\n      jumpi\n        /* \"#utility.yul\":3148:3166   */\n      tag_390\n      tag_77\n      jump\t// in\n    tag_390:\n        /* \"#utility.yul\":3197:3199   */\n      0x40\n        /* \"#utility.yul\":3191:3200   */\n      mload\n        /* \"#utility.yul\":3289:3291   */\n      0x1f\n        /* \"#utility.yul\":3251:3268   */\n      dup3\n      add\n      not(0x1f)\n        /* \"#utility.yul\":3247:3278   */\n      swap1\n      dup2\n      and\n        /* \"#utility.yul\":3280:3282   */\n      0x3f\n        /* \"#utility.yul\":3243:3283   */\n      add\n        /* \"#utility.yul\":3239:3293   */\n      and\n        /* \"#utility.yul\":3227:3294   */\n      dup2\n      add\n      sub(shl(0x40, 0x01), 0x01)\n        /* \"#utility.yul\":3309:3343   */\n      dup2\n      gt\n        /* \"#utility.yul\":3345:3367   */\n      dup3\n      dup3\n      lt\n        /* \"#utility.yul\":3306:3368   */\n      or\n        /* \"#utility.yul\":3303:3391   */\n      iszero\n      tag_392\n      jumpi\n        /* \"#utility.yul\":3371:3389   */\n      tag_392\n      tag_77\n      jump\t// in\n    tag_392:\n        /* \"#utility.yul\":3407:3409   */\n      0x40\n        /* \"#utility.yul\":3400:3422   */\n      mstore\n        /* \"#utility.yul\":3431:3453   */\n      dup2\n      dup2\n      mstore\n        /* \"#utility.yul\":3472:3487   */\n      dup3\n      dup3\n      add\n        /* \"#utility.yul\":3489:3493   */\n      0x20\n        /* \"#utility.yul\":3468:3494   */\n      add\n        /* \"#utility.yul\":3465:3504   */\n      dup11\n      lt\n        /* \"#utility.yul\":3462:3521   */\n      iszero\n      tag_393\n      jumpi\n        /* \"#utility.yul\":3517:3518   */\n      0x00\n        /* \"#utility.yul\":3514:3515   */\n      dup1\n        /* \"#utility.yul\":3507:3519   */\n      revert\n        /* \"#utility.yul\":3462:3521   */\n    tag_393:\n        /* \"#utility.yul\":3577:3583   */\n      dup2\n        /* \"#utility.yul\":3570:3574   */\n      0x20\n        /* \"#utility.yul\":3566:3568   */\n      dup5\n        /* \"#utility.yul\":3562:3575   */\n      add\n        /* \"#utility.yul\":3555:3559   */\n      0x20\n        /* \"#utility.yul\":3547:3553   */\n      dup4\n        /* \"#utility.yul\":3543:3560   */\n      add\n        /* \"#utility.yul\":3530:3584   */\n      calldatacopy\n        /* \"#utility.yul\":3632:3633   */\n      0x00\n        /* \"#utility.yul\":3625:3629   */\n      0x20\n        /* \"#utility.yul\":3604:3623   */\n      swap3\n      dup3\n      add\n        /* \"#utility.yul\":3600:3630   */\n      dup4\n      add\n        /* \"#utility.yul\":3593:3634   */\n      mstore\n        /* \"#utility.yul\":3604:3623   */\n      swap10\n        /* \"#utility.yul\":3713:3733   */\n      swap1\n      dup9\n      add\n        /* \"#utility.yul\":3700:3734   */\n      calldataload\n      swap9\n      pop\n        /* \"#utility.yul\":3831:3833   */\n      0x40\n        /* \"#utility.yul\":3816:3834   */\n      dup9\n      add\n        /* \"#utility.yul\":3803:3835   */\n      calldataload\n      swap8\n        /* \"#utility.yul\":3934:3936   */\n      0x60\n        /* \"#utility.yul\":3919:3937   */\n      dup2\n      add\n        /* \"#utility.yul\":3906:3938   */\n      calldataload\n      swap8\n      pop\n        /* \"#utility.yul\":4037:4040   */\n      0x80\n        /* \"#utility.yul\":4022:4041   */\n      add\n        /* \"#utility.yul\":4009:4042   */\n      calldataload\n      swap6\n      pop\n        /* \"#utility.yul\":3608:3614   */\n      swap4\n      pop\n      pop\n      pop\n      pop\n        /* \"#utility.yul\":2643:4074   */\n      jump\t// out\n        /* \"#utility.yul\":4079:4425   */\n    tag_37:\n        /* \"#utility.yul\":4147:4153   */\n      0x00\n        /* \"#utility.yul\":4155:4161   */\n      dup1\n        /* \"#utility.yul\":4208:4210   */\n      0x40\n        /* \"#utility.yul\":4196:4205   */\n      dup4\n        /* \"#utility.yul\":4187:4194   */\n      dup6\n        /* \"#utility.yul\":4183:4206   */\n      sub\n        /* \"#utility.yul\":4179:4211   */\n      slt\n        /* \"#utility.yul\":4176:4228   */\n      iszero\n      tag_395\n      jumpi\n        /* \"#utility.yul\":4224:4225   */\n      0x00\n        /* \"#utility.yul\":4221:4222   */\n      dup1\n        /* \"#utility.yul\":4214:4226   */\n      revert\n        /* \"#utility.yul\":4176:4228   */\n    tag_395:\n      pop\n      pop\n        /* \"#utility.yul\":4269:4292   */\n      dup1\n      calldataload\n      swap3\n        /* \"#utility.yul\":4389:4391   */\n      0x20\n        /* \"#utility.yul\":4374:4392   */\n      swap1\n      swap2\n      add\n        /* \"#utility.yul\":4361:4393   */\n      calldataload\n      swap2\n      pop\n        /* \"#utility.yul\":4079:4425   */\n      jump\t// out\n        /* \"#utility.yul\":4430:4895   */\n    tag_44:\n        /* \"#utility.yul\":4687:4689   */\n      0x40\n        /* \"#utility.yul\":4676:4685   */\n      dup2\n        /* \"#utility.yul\":4669:4690   */\n      mstore\n        /* \"#utility.yul\":4650:4654   */\n      0x00\n        /* \"#utility.yul\":4713:4769   */\n      tag_397\n        /* \"#utility.yul\":4765:4767   */\n      0x40\n        /* \"#utility.yul\":4754:4763   */\n      dup4\n        /* \"#utility.yul\":4750:4768   */\n      add\n        /* \"#utility.yul\":4742:4748   */\n      dup6\n        /* \"#utility.yul\":4713:4769   */\n      tag_358\n      jump\t// in\n    tag_397:\n        /* \"#utility.yul\":4817:4826   */\n      dup3\n        /* \"#utility.yul\":4809:4815   */\n      dup2\n        /* \"#utility.yul\":4805:4827   */\n      sub\n        /* \"#utility.yul\":4800:4802   */\n      0x20\n        /* \"#utility.yul\":4789:4798   */\n      dup5\n        /* \"#utility.yul\":4785:4803   */\n      add\n        /* \"#utility.yul\":4778:4828   */\n      mstore\n        /* \"#utility.yul\":4845:4889   */\n      tag_398\n        /* \"#utility.yul\":4882:4888   */\n      dup2\n        /* \"#utility.yul\":4874:4880   */\n      dup6\n        /* \"#utility.yul\":4845:4889   */\n      tag_359\n      jump\t// in\n    tag_398:\n        /* \"#utility.yul\":4837:4889   */\n      swap6\n        /* \"#utility.yul\":4430:4895   */\n      swap5\n      pop\n      pop\n      pop\n      pop\n      pop\n      jump\t// out\n        /* \"#utility.yul\":5332:5732   */\n    tag_360:\n        /* \"#utility.yul\":5374:5377   */\n      0x00\n        /* \"#utility.yul\":5412:5417   */\n      dup2\n        /* \"#utility.yul\":5406:5418   */\n      mload\n        /* \"#utility.yul\":5439:5445   */\n      dup1\n        /* \"#utility.yul\":5434:5437   */\n      dup5\n        /* \"#utility.yul\":5427:5446   */\n      mstore\n        /* \"#utility.yul\":5464:5465   */\n      0x00\n        /* \"#utility.yul\":5474:5613   */\n    tag_401:\n        /* \"#utility.yul\":5488:5494   */\n      dup2\n        /* \"#utility.yul\":5485:5486   */\n      dup2\n        /* \"#utility.yul\":5482:5495   */\n      lt\n        /* \"#utility.yul\":5474:5613   */\n      iszero\n      tag_403\n      jumpi\n        /* \"#utility.yul\":5596:5600   */\n      0x20\n        /* \"#utility.yul\":5581:5594   */\n      dup2\n      dup6\n      add\n        /* \"#utility.yul\":5577:5601   */\n      dup2\n      add\n        /* \"#utility.yul\":5571:5602   */\n      mload\n        /* \"#utility.yul\":5551:5562   */\n      dup7\n      dup4\n      add\n        /* \"#utility.yul\":5547:5569   */\n      dup3\n      add\n        /* \"#utility.yul\":5540:5603   */\n      mstore\n        /* \"#utility.yul\":5503:5515   */\n      add\n        /* \"#utility.yul\":5474:5613   */\n      jump(tag_401)\n    tag_403:\n        /* \"#utility.yul\":5478:5481   */\n      pop\n        /* \"#utility.yul\":5658:5659   */\n      0x00\n        /* \"#utility.yul\":5651:5655   */\n      0x20\n        /* \"#utility.yul\":5642:5648   */\n      dup3\n        /* \"#utility.yul\":5637:5640   */\n      dup7\n        /* \"#utility.yul\":5633:5649   */\n      add\n        /* \"#utility.yul\":5629:5656   */\n      add\n        /* \"#utility.yul\":5622:5660   */\n      mstore\n        /* \"#utility.yul\":5721:5725   */\n      0x20\n        /* \"#utility.yul\":5714:5716   */\n      0x1f\n        /* \"#utility.yul\":5710:5717   */\n      not\n        /* \"#utility.yul\":5705:5707   */\n      0x1f\n        /* \"#utility.yul\":5697:5703   */\n      dup4\n        /* \"#utility.yul\":5693:5708   */\n      add\n        /* \"#utility.yul\":5689:5718   */\n      and\n        /* \"#utility.yul\":5684:5687   */\n      dup6\n        /* \"#utility.yul\":5680:5719   */\n      add\n        /* \"#utility.yul\":5676:5726   */\n      add\n        /* \"#utility.yul\":5669:5726   */\n      swap2\n      pop\n      pop\n        /* \"#utility.yul\":5332:5732   */\n      swap3\n      swap2\n      pop\n      pop\n      jump\t// out\n        /* \"#utility.yul\":5737:6424   */\n    tag_56:\n      sub(shl(0xa0, 0x01), 0x01)\n        /* \"#utility.yul\":6048:6080   */\n      dup9\n      and\n        /* \"#utility.yul\":6030:6081   */\n      dup2\n      mstore\n        /* \"#utility.yul\":6117:6120   */\n      0xe0\n        /* \"#utility.yul\":6112:6114   */\n      0x20\n        /* \"#utility.yul\":6097:6115   */\n      dup3\n      add\n        /* \"#utility.yul\":6090:6121   */\n      dup2\n      swap1\n      mstore\n      0x00\n      swap1\n        /* \"#utility.yul\":6138:6184   */\n      tag_405\n      swap1\n        /* \"#utility.yul\":6164:6183   */\n      dup4\n      add\n        /* \"#utility.yul\":6156:6162   */\n      dup10\n        /* \"#utility.yul\":6138:6184   */\n      tag_360\n      jump\t// in\n    tag_405:\n        /* \"#utility.yul\":6215:6217   */\n      0x40\n        /* \"#utility.yul\":6200:6218   */\n      dup4\n      add\n        /* \"#utility.yul\":6193:6227   */\n      swap8\n      swap1\n      swap8\n      mstore\n      pop\n        /* \"#utility.yul\":6258:6260   */\n      0x60\n        /* \"#utility.yul\":6243:6261   */\n      dup2\n      add\n        /* \"#utility.yul\":6236:6270   */\n      swap5\n      swap1\n      swap5\n      mstore\n        /* \"#utility.yul\":6301:6304   */\n      0x80\n        /* \"#utility.yul\":6286:6305   */\n      dup5\n      add\n        /* \"#utility.yul\":6279:6314   */\n      swap3\n      swap1\n      swap3\n      mstore\n        /* \"#utility.yul\":6358:6372   */\n      iszero\n        /* \"#utility.yul\":6351:6373   */\n      iszero\n        /* \"#utility.yul\":6345:6348   */\n      0xa0\n        /* \"#utility.yul\":6330:6349   */\n      dup4\n      add\n        /* \"#utility.yul\":6323:6374   */\n      mstore\n        /* \"#utility.yul\":6405:6408   */\n      0xc0\n        /* \"#utility.yul\":6390:6409   */\n      swap1\n      swap2\n      add\n        /* \"#utility.yul\":6383:6418   */\n      mstore\n        /* \"#utility.yul\":6130:6184   */\n      swap3\n        /* \"#utility.yul\":5737:6424   */\n      swap2\n      pop\n      pop\n      jump\t// out\n        /* \"#utility.yul\":6429:6769   */\n    tag_74:\n        /* \"#utility.yul\":6631:6633   */\n      0x20\n        /* \"#utility.yul\":6613:6634   */\n      dup1\n      dup3\n      mstore\n        /* \"#utility.yul\":6670:6672   */\n      0x10\n        /* \"#utility.yul\":6650:6668   */\n      swap1\n      dup3\n      add\n        /* \"#utility.yul\":6643:6673   */\n      mstore\n      shl(0x82, 0x125b9d985b1a5908185cdcd95d081251)\n        /* \"#utility.yul\":6704:6706   */\n      0x40\n        /* \"#utility.yul\":6689:6707   */\n      dup3\n      add\n        /* \"#utility.yul\":6682:6728   */\n      mstore\n        /* \"#utility.yul\":6760:6762   */\n      0x60\n        /* \"#utility.yul\":6745:6763   */\n      add\n      swap1\n        /* \"#utility.yul\":6429:6769   */\n      jump\t// out\n        /* \"#utility.yul\":6774:6901   */\n    tag_93:\n        /* \"#utility.yul\":6835:6845   */\n      0x4e487b71\n        /* \"#utility.yul\":6830:6833   */\n      0xe0\n        /* \"#utility.yul\":6826:6846   */\n      shl\n        /* \"#utility.yul\":6823:6824   */\n      0x00\n        /* \"#utility.yul\":6816:6847   */\n      mstore\n        /* \"#utility.yul\":6866:6870   */\n      0x32\n        /* \"#utility.yul\":6863:6864   */\n      0x04\n        /* \"#utility.yul\":6856:6871   */\n      mstore\n        /* \"#utility.yul\":6890:6894   */\n      0x24\n        /* \"#utility.yul\":6887:6888   */\n      0x00\n        /* \"#utility.yul\":6880:6895   */\n      revert\n        /* \"#utility.yul\":6906:7242   */\n    tag_118:\n        /* \"#utility.yul\":7108:7110   */\n      0x20\n        /* \"#utility.yul\":7090:7111   */\n      dup1\n      dup3\n      mstore\n        /* \"#utility.yul\":7147:7149   */\n      0x0c\n        /* \"#utility.yul\":7127:7145   */\n      swap1\n      dup3\n      add\n        /* \"#utility.yul\":7120:7150   */\n      mstore\n      shl(0xa2, 0x155b985d5d1a1bdc9a5e9959)\n        /* \"#utility.yul\":7181:7183   */\n      0x40\n        /* \"#utility.yul\":7166:7184   */\n      dup3\n      add\n        /* \"#utility.yul\":7159:7201   */\n      mstore\n        /* \"#utility.yul\":7233:7235   */\n      0x60\n        /* \"#utility.yul\":7218:7236   */\n      add\n      swap1\n        /* \"#utility.yul\":6906:7242   */\n      jump\t// out\n        /* \"#utility.yul\":7247:7593   */\n    tag_121:\n        /* \"#utility.yul\":7449:7451   */\n      0x20\n        /* \"#utility.yul\":7431:7452   */\n      dup1\n      dup3\n      mstore\n        /* \"#utility.yul\":7488:7490   */\n      0x16\n        /* \"#utility.yul\":7468:7486   */\n      swap1\n      dup3\n      add\n        /* \"#utility.yul\":7461:7491   */\n      mstore\n      shl(0x52, 0x109a59191a5b99c8185b1c9958591e4818db1bdcd959)\n        /* \"#utility.yul\":7522:7524   */\n      0x40\n        /* \"#utility.yul\":7507:7525   */\n      dup3\n      add\n        /* \"#utility.yul\":7500:7552   */\n      mstore\n        /* \"#utility.yul\":7584:7586   */\n      0x60\n        /* \"#utility.yul\":7569:7587   */\n      add\n      swap1\n        /* \"#utility.yul\":7247:7593   */\n      jump\t// out\n        /* \"#utility.yul\":9274:9401   */\n    tag_361:\n        /* \"#utility.yul\":9335:9345   */\n      0x4e487b71\n        /* \"#utility.yul\":9330:9333   */\n      0xe0\n        /* \"#utility.yul\":9326:9346   */\n      shl\n        /* \"#utility.yul\":9323:9324   */\n      0x00\n        /* \"#utility.yul\":9316:9347   */\n      mstore\n        /* \"#utility.yul\":9366:9370   */\n      0x11\n        /* \"#utility.yul\":9363:9364   */\n      0x04\n        /* \"#utility.yul\":9356:9371   */\n      mstore\n        /* \"#utility.yul\":9390:9394   */\n      0x24\n        /* \"#utility.yul\":9387:9388   */\n      0x00\n        /* \"#utility.yul\":9380:9395   */\n      revert\n        /* \"#utility.yul\":9406:9541   */\n    tag_145:\n        /* \"#utility.yul\":9445:9448   */\n      0x00\n        /* \"#utility.yul\":9466:9483   */\n      0x01\n      dup3\n      add\n        /* \"#utility.yul\":9463:9506   */\n      tag_418\n      jumpi\n        /* \"#utility.yul\":9486:9504   */\n      tag_418\n      tag_361\n      jump\t// in\n    tag_418:\n      pop\n        /* \"#utility.yul\":9533:9534   */\n      0x01\n        /* \"#utility.yul\":9522:9535   */\n      add\n      swap1\n        /* \"#utility.yul\":9406:9541   */\n      jump\t// out\n        /* \"#utility.yul\":9546:9926   */\n    tag_201:\n        /* \"#utility.yul\":9625:9626   */\n      0x01\n        /* \"#utility.yul\":9621:9633   */\n      dup2\n      dup2\n      shr\n      swap1\n        /* \"#utility.yul\":9668:9680   */\n      dup3\n      and\n      dup1\n        /* \"#utility.yul\":9689:9750   */\n      tag_420\n      jumpi\n        /* \"#utility.yul\":9743:9747   */\n      0x7f\n        /* \"#utility.yul\":9735:9741   */\n      dup3\n        /* \"#utility.yul\":9731:9748   */\n      and\n        /* \"#utility.yul\":9721:9748   */\n      swap2\n      pop\n        /* \"#utility.yul\":9689:9750   */\n    tag_420:\n        /* \"#utility.yul\":9796:9798   */\n      0x20\n        /* \"#utility.yul\":9788:9794   */\n      dup3\n        /* \"#utility.yul\":9785:9799   */\n      lt\n        /* \"#utility.yul\":9765:9783   */\n      dup2\n        /* \"#utility.yul\":9762:9800   */\n      sub\n        /* \"#utility.yul\":9759:9920   */\n      tag_421\n      jumpi\n        /* \"#utility.yul\":9842:9852   */\n      0x4e487b71\n        /* \"#utility.yul\":9837:9840   */\n      0xe0\n        /* \"#utility.yul\":9833:9853   */\n      shl\n        /* \"#utility.yul\":9830:9831   */\n      0x00\n        /* \"#utility.yul\":9823:9854   */\n      mstore\n        /* \"#utility.yul\":9877:9881   */\n      0x22\n        /* \"#utility.yul\":9874:9875   */\n      0x04\n        /* \"#utility.yul\":9867:9882   */\n      mstore\n        /* \"#utility.yul\":9905:9909   */\n      0x24\n        /* \"#utility.yul\":9902:9903   */\n      0x00\n        /* \"#utility.yul\":9895:9910   */\n      revert\n        /* \"#utility.yul\":9759:9920   */\n    tag_421:\n      pop\n        /* \"#utility.yul\":9546:9926   */\n      swap2\n      swap1\n      pop\n      jump\t// out\n        /* \"#utility.yul\":10057:10575   */\n    tag_363:\n        /* \"#utility.yul\":10159:10161   */\n      0x1f\n        /* \"#utility.yul\":10154:10157   */\n      dup3\n        /* \"#utility.yul\":10151:10162   */\n      gt\n        /* \"#utility.yul\":10148:10569   */\n      iszero\n      tag_296\n      jumpi\n        /* \"#utility.yul\":10195:10200   */\n      dup1\n        /* \"#utility.yul\":10192:10193   */\n      0x00\n        /* \"#utility.yul\":10185:10201   */\n      mstore\n        /* \"#utility.yul\":10239:10243   */\n      0x20\n        /* \"#utility.yul\":10236:10237   */\n      0x00\n        /* \"#utility.yul\":10226:10244   */\n      keccak256\n        /* \"#utility.yul\":10309:10311   */\n      0x1f\n        /* \"#utility.yul\":10297:10307   */\n      dup5\n        /* \"#utility.yul\":10293:10312   */\n      add\n        /* \"#utility.yul\":10290:10291   */\n      0x05\n        /* \"#utility.yul\":10286:10313   */\n      shr\n        /* \"#utility.yul\":10280:10284   */\n      dup2\n        /* \"#utility.yul\":10276:10314   */\n      add\n        /* \"#utility.yul\":10345:10349   */\n      0x20\n        /* \"#utility.yul\":10333:10343   */\n      dup6\n        /* \"#utility.yul\":10330:10350   */\n      lt\n        /* \"#utility.yul\":10327:10374   */\n      iszero\n      tag_425\n      jumpi\n      pop\n        /* \"#utility.yul\":10368:10372   */\n      dup1\n        /* \"#utility.yul\":10327:10374   */\n    tag_425:\n        /* \"#utility.yul\":10423:10425   */\n      0x1f\n        /* \"#utility.yul\":10418:10421   */\n      dup5\n        /* \"#utility.yul\":10414:10426   */\n      add\n        /* \"#utility.yul\":10411:10412   */\n      0x05\n        /* \"#utility.yul\":10407:10427   */\n      shr\n        /* \"#utility.yul\":10401:10405   */\n      dup3\n        /* \"#utility.yul\":10397:10428   */\n      add\n        /* \"#utility.yul\":10387:10428   */\n      swap2\n      pop\n        /* \"#utility.yul\":10478:10559   */\n    tag_426:\n        /* \"#utility.yul\":10496:10498   */\n      dup2\n        /* \"#utility.yul\":10489:10494   */\n      dup2\n        /* \"#utility.yul\":10486:10499   */\n      lt\n        /* \"#utility.yul\":10478:10559   */\n      iszero\n      tag_428\n      jumpi\n        /* \"#utility.yul\":10555:10556   */\n      0x00\n        /* \"#utility.yul\":10541:10557   */\n      dup2\n      sstore\n        /* \"#utility.yul\":10522:10523   */\n      0x01\n        /* \"#utility.yul\":10511:10524   */\n      add\n        /* \"#utility.yul\":10478:10559   */\n      jump(tag_426)\n    tag_428:\n        /* \"#utility.yul\":10482:10485   */\n      pop\n      pop\n        /* \"#utility.yul\":10057:10575   */\n      pop\n      pop\n      pop\n      jump\t// out\n        /* \"#utility.yul\":10751:12050   */\n    tag_147:\n        /* \"#utility.yul\":10877:10880   */\n      dup2\n        /* \"#utility.yul\":10871:10881   */\n      mload\n      sub(shl(0x40, 0x01), 0x01)\n        /* \"#utility.yul\":10896:10902   */\n      dup2\n        /* \"#utility.yul\":10893:10923   */\n      gt\n        /* \"#utility.yul\":10890:10946   */\n      iszero\n      tag_432\n      jumpi\n        /* \"#utility.yul\":10926:10944   */\n      tag_432\n      tag_77\n      jump\t// in\n    tag_432:\n        /* \"#utility.yul\":10955:11052   */\n      tag_433\n        /* \"#utility.yul\":11045:11051   */\n      dup2\n        /* \"#utility.yul\":11005:11043   */\n      tag_434\n        /* \"#utility.yul\":11037:11041   */\n      dup5\n        /* \"#utility.yul\":11031:11042   */\n      sload\n        /* \"#utility.yul\":11005:11043   */\n      tag_201\n      jump\t// in\n    tag_434:\n        /* \"#utility.yul\":10999:11003   */\n      dup5\n        /* \"#utility.yul\":10955:11052   */\n      tag_363\n      jump\t// in\n    tag_433:\n        /* \"#utility.yul\":11101:11105   */\n      0x20\n        /* \"#utility.yul\":11132:11134   */\n      0x1f\n        /* \"#utility.yul\":11121:11135   */\n      dup3\n      gt\n        /* \"#utility.yul\":11149:11150   */\n      0x01\n        /* \"#utility.yul\":11144:11793   */\n      dup2\n      eq\n      tag_436\n      jumpi\n        /* \"#utility.yul\":11837:11838   */\n      0x00\n        /* \"#utility.yul\":11854:11860   */\n      dup4\n        /* \"#utility.yul\":11851:11940   */\n      iszero\n      tag_437\n      jumpi\n      pop\n        /* \"#utility.yul\":11906:11925   */\n      dup5\n      dup3\n      add\n        /* \"#utility.yul\":11900:11926   */\n      mload\n        /* \"#utility.yul\":11851:11940   */\n    tag_437:\n      not(0x00)\n        /* \"#utility.yul\":10708:10709   */\n      0x03\n        /* \"#utility.yul\":10704:10715   */\n      dup6\n      swap1\n      shl\n        /* \"#utility.yul\":10700:10724   */\n      shr\n        /* \"#utility.yul\":10696:10725   */\n      not\n        /* \"#utility.yul\":10686:10726   */\n      and\n        /* \"#utility.yul\":10732:10733   */\n      0x01\n        /* \"#utility.yul\":10728:10739   */\n      dup5\n      swap1\n      shl\n        /* \"#utility.yul\":10683:10740   */\n      or\n        /* \"#utility.yul\":11953:12034   */\n      dup5\n      sstore\n        /* \"#utility.yul\":11114:12044   */\n      jump(tag_428)\n        /* \"#utility.yul\":11144:11793   */\n    tag_436:\n        /* \"#utility.yul\":10004:10005   */\n      0x00\n        /* \"#utility.yul\":9997:10011   */\n      dup5\n      dup2\n      mstore\n        /* \"#utility.yul\":10041:10045   */\n      0x20\n        /* \"#utility.yul\":10028:10046   */\n      dup2\n      keccak256\n      not(0x1f)\n        /* \"#utility.yul\":11180:11200   */\n      dup6\n      and\n      swap2\n        /* \"#utility.yul\":11298:11520   */\n    tag_440:\n        /* \"#utility.yul\":11312:11319   */\n      dup3\n        /* \"#utility.yul\":11309:11310   */\n      dup2\n        /* \"#utility.yul\":11306:11320   */\n      lt\n        /* \"#utility.yul\":11298:11520   */\n      iszero\n      tag_442\n      jumpi\n        /* \"#utility.yul\":11394:11413   */\n      dup8\n      dup6\n      add\n        /* \"#utility.yul\":11388:11414   */\n      mload\n        /* \"#utility.yul\":11373:11415   */\n      dup3\n      sstore\n        /* \"#utility.yul\":11501:11505   */\n      0x20\n        /* \"#utility.yul\":11486:11506   */\n      swap5\n      dup6\n      add\n      swap5\n        /* \"#utility.yul\":11454:11455   */\n      0x01\n        /* \"#utility.yul\":11442:11456   */\n      swap1\n      swap3\n      add\n      swap2\n        /* \"#utility.yul\":11328:11340   */\n      add\n        /* \"#utility.yul\":11298:11520   */\n      jump(tag_440)\n    tag_442:\n        /* \"#utility.yul\":11302:11305   */\n      pop\n        /* \"#utility.yul\":11548:11554   */\n      dup5\n        /* \"#utility.yul\":11539:11546   */\n      dup3\n        /* \"#utility.yul\":11536:11555   */\n      lt\n        /* \"#utility.yul\":11533:11734   */\n      iszero\n      tag_443\n      jumpi\n        /* \"#utility.yul\":11609:11628   */\n      dup7\n      dup5\n      add\n        /* \"#utility.yul\":11603:11629   */\n      mload\n      not(0x00)\n        /* \"#utility.yul\":11692:11693   */\n      0x03\n        /* \"#utility.yul\":11688:11702   */\n      dup8\n      swap1\n      shl\n        /* \"#utility.yul\":11704:11707   */\n      0xf8\n        /* \"#utility.yul\":11684:11708   */\n      and\n        /* \"#utility.yul\":11680:11717   */\n      shr\n        /* \"#utility.yul\":11676:11718   */\n      not\n        /* \"#utility.yul\":11661:11719   */\n      and\n        /* \"#utility.yul\":11646:11720   */\n      dup2\n      sstore\n        /* \"#utility.yul\":11533:11734   */\n    tag_443:\n      pop\n      pop\n      pop\n      pop\n        /* \"#utility.yul\":11780:11781   */\n      0x01\n        /* \"#utility.yul\":11764:11778   */\n      swap1\n      dup2\n      shl\n        /* \"#utility.yul\":11760:11782   */\n      add\n        /* \"#utility.yul\":11747:11783   */\n      swap1\n      sstore\n      pop\n        /* \"#utility.yul\":10751:12050   */\n      jump\t// out\n        /* \"#utility.yul\":12055:12180   */\n    tag_149:\n        /* \"#utility.yul\":12120:12129   */\n      dup1\n      dup3\n      add\n        /* \"#utility.yul\":12141:12151   */\n      dup1\n      dup3\n      gt\n        /* \"#utility.yul\":12138:12174   */\n      iszero\n      tag_291\n      jumpi\n        /* \"#utility.yul\":12154:12172   */\n      tag_291\n      tag_361\n      jump\t// in\n        /* \"#utility.yul\":12185:12547   */\n    tag_152:\n        /* \"#utility.yul\":12390:12392   */\n      0x60\n        /* \"#utility.yul\":12379:12388   */\n      dup2\n        /* \"#utility.yul\":12372:12393   */\n      mstore\n        /* \"#utility.yul\":12353:12357   */\n      0x00\n        /* \"#utility.yul\":12410:12455   */\n      tag_448\n        /* \"#utility.yul\":12451:12453   */\n      0x60\n        /* \"#utility.yul\":12440:12449   */\n      dup4\n        /* \"#utility.yul\":12436:12454   */\n      add\n        /* \"#utility.yul\":12428:12434   */\n      dup7\n        /* \"#utility.yul\":12410:12455   */\n      tag_360\n      jump\t// in\n    tag_448:\n        /* \"#utility.yul\":12486:12488   */\n      0x20\n        /* \"#utility.yul\":12471:12489   */\n      dup4\n      add\n        /* \"#utility.yul\":12464:12498   */\n      swap5\n      swap1\n      swap5\n      mstore\n      pop\n        /* \"#utility.yul\":12529:12531   */\n      0x40\n        /* \"#utility.yul\":12514:12532   */\n      add\n        /* \"#utility.yul\":12507:12541   */\n      mstore\n        /* \"#utility.yul\":12402:12455   */\n      swap2\n        /* \"#utility.yul\":12185:12547   */\n      swap1\n      pop\n      jump\t// out\n        /* \"#utility.yul\":14557:14774   */\n    tag_293:\n        /* \"#utility.yul\":14597:14598   */\n      0x00\n        /* \"#utility.yul\":14623:14624   */\n      dup3\n        /* \"#utility.yul\":14613:14745   */\n      tag_456\n      jumpi\n        /* \"#utility.yul\":14667:14677   */\n      0x4e487b71\n        /* \"#utility.yul\":14662:14665   */\n      0xe0\n        /* \"#utility.yul\":14658:14678   */\n      shl\n        /* \"#utility.yul\":14655:14656   */\n      0x00\n        /* \"#utility.yul\":14648:14679   */\n      mstore\n        /* \"#utility.yul\":14702:14706   */\n      0x12\n        /* \"#utility.yul\":14699:14700   */\n      0x04\n        /* \"#utility.yul\":14692:14707   */\n      mstore\n        /* \"#utility.yul\":14730:14734   */\n      0x24\n        /* \"#utility.yul\":14727:14728   */\n      0x00\n        /* \"#utility.yul\":14720:14735   */\n      revert\n        /* \"#utility.yul\":14613:14745   */\n    tag_456:\n      pop\n        /* \"#utility.yul\":14759:14768   */\n      div\n      swap1\n        /* \"#utility.yul\":14557:14774   */\n      jump\t// out\n        /* \"#utility.yul\":14779:14947   */\n    tag_323:\n        /* \"#utility.yul\":14852:14861   */\n      dup1\n      dup3\n      mul\n        /* \"#utility.yul\":14883:14892   */\n      dup2\n      iszero\n        /* \"#utility.yul\":14900:14915   */\n      dup3\n      dup3\n      div\n        /* \"#utility.yul\":14894:14916   */\n      dup5\n      eq\n        /* \"#utility.yul\":14880:14917   */\n      or\n        /* \"#utility.yul\":14870:14941   */\n      tag_291\n      jumpi\n        /* \"#utility.yul\":14921:14939   */\n      tag_291\n      tag_361\n      jump\t// in\n        /* \"#utility.yul\":14952:15080   */\n    tag_328:\n        /* \"#utility.yul\":15019:15028   */\n      dup2\n      dup2\n      sub\n        /* \"#utility.yul\":15040:15051   */\n      dup2\n      dup2\n      gt\n        /* \"#utility.yul\":15037:15074   */\n      iszero\n      tag_291\n      jumpi\n        /* \"#utility.yul\":15054:15072   */\n      tag_291\n      tag_361\n      jump\t// in\n\n    auxdata: 0xa2646970667358221220be7b34ff116e59147e9f73fa4041f7918791d42501b74360e5a0f1e0be57b97d64736f6c634300081d0033\n}\n",
				"bytecode": {
					"linkReferences": {},
					"object": "6080604052348015600f57600080fd5b506001600055611ec5806100246000396000f3fe60806040526004361061009c5760003560e01c8063686735c511610064578063686735c51461014e578063a3d5f1e51461017c578063b18cc358146101c8578063b468e0b0146101fb578063cf35bdd01461021b578063eafe7a741461023b57600080fd5b80630392cc45146100a1578063093755ad146100da57806347582610146100fc578063503e05781461011b57806357c90de51461013b575b600080fd5b3480156100ad57600080fd5b506100c16100bc36600461191f565b610251565b6040516100d194939291906119af565b60405180910390f35b3480156100e657600080fd5b506100fa6100f536600461191f565b610505565b005b34801561010857600080fd5b506003545b6040519081526020016100d1565b34801561012757600080fd5b506100fa610136366004611a47565b6105e4565b6100fa610149366004611b1a565b6108d2565b34801561015a57600080fd5b5061016e61016936600461191f565b610ab2565b6040516100d1929190611b3c565b34801561018857600080fd5b5061019c610197366004611b1a565b610c4c565b604080516001600160a01b039095168552602085019390935291830152151560608201526080016100d1565b3480156101d457600080fd5b506101e86101e336600461191f565b610c9f565b6040516100d19796959493929190611bb0565b34801561020757600080fd5b506100fa61021636600461191f565b610dc5565b34801561022757600080fd5b506101e861023636600461191f565b610e76565b34801561024757600080fd5b5061010d60035481565b60608060608060008511801561026957506003548511155b61028e5760405162461bcd60e51b815260040161028590611c00565b60405180910390fd5b60008581526002602052604090208054806001600160401b038111156102b6576102b6611a31565b6040519080825280602002602001820160405280156102df578160200160208202803683370190505b509550806001600160401b038111156102fa576102fa611a31565b604051908082528060200260200182016040528015610323578160200160208202803683370190505b509450806001600160401b0381111561033e5761033e611a31565b604051908082528060200260200182016040528015610367578160200160208202803683370190505b509350806001600160401b0381111561038257610382611a31565b6040519080825280602002602001820160405280156103ab578160200160208202803683370190505b50925060005b818110156104fb578281815481106103cb576103cb611c2a565b600091825260209091206004909102015487516001600160a01b03909116908890839081106103fc576103fc611c2a565b60200260200101906001600160a01b031690816001600160a01b03168152505082818154811061042e5761042e611c2a565b90600052602060002090600402016001015486828151811061045257610452611c2a565b60200260200101818152505082818154811061047057610470611c2a565b90600052602060002090600402016002015485828151811061049457610494611c2a565b6020026020010181815250508281815481106104b2576104b2611c2a565b906000526020600020906004020160030160009054906101000a900460ff168482815181106104e3576104e3611c2a565b911515602092830291909101909101526001016103b1565b5050509193509193565b61050d610f49565b600081815260016020526040902080546001600160a01b031633146105445760405162461bcd60e51b815260040161028590611c40565b600581015460ff16156105695760405162461bcd60e51b815260040161028590611c66565b60058101805460ff191660011790556000828152600260205260409020541561059a5761059582610fa2565b6105d6565b604080516000815242602082015283917f4d7a5e450395fb8fb6b67c4751f80f057cd5a74550929306eff2cac7f0ecc188910160405180910390a25b506105e16001600055565b50565b6000841161062a5760405162461bcd60e51b8152602060048201526013602482015272125b9d985b1a59081cda185c994818dbdd5b9d606a1b6044820152606401610285565b6000831161067a5760405162461bcd60e51b815260206004820152601f60248201527f496e76616c6964206d696e696d756d20707269636520706572207368617265006044820152606401610285565b600082116106ca5760405162461bcd60e51b815260206004820152601b60248201527f496e76616c6964206d696e696d756d20746f74616c20707269636500000000006044820152606401610285565b60008551116107125760405162461bcd60e51b81526020600482015260146024820152734e616d652063616e6e6f7420626520656d70747960601b6044820152606401610285565b6003805490600061072283611cac565b9091555050600354600090815260016020819052604090912080546001600160a01b031916331781559081016107588782611d4d565b5060028101859055600381018590556004810183905560058101805460ff191690556107848242611e0b565b600682015560078101805460018082018355600092835260208084209092018054336001600160a01b03199182168117909255604080516060810182528381528086018c815281830186815285895260088a0190975296829020905181549093166001600160a01b0390931692909217825594519281019290925591516002909101805460ff191691151591909117905560035491519091907f01b72beabfa8420e9b47a1c3d6764a97e2044c51b3368b66b161a5fc8ceebccf9061084e908a908a908990611e1e565b60405180910390a36003546040518681523391907f25af9e0275abbb4de910d2062f5dcca6d4c47f1313066083dd9d7077608a7a549060200160405180910390a37fdbad7356874fb84060a1e809f3b9f73d977da5f6e62d52682c065d51d15435c66003546040516108c291815260200190565b60405180910390a1505050505050565b6108da610f49565b6000828152600160205260409020600581015460ff161561092e5760405162461bcd60e51b815260206004820152600e60248201526d109a59191a5b99c818db1bdcd95960921b6044820152606401610285565b806006015442106109785760405162461bcd60e51b8152602060048201526014602482015273109a59191a5b99c81c195c9a5bd908195b99195960621b6044820152606401610285565b600082116109bf5760405162461bcd60e51b8152602060048201526014602482015273125b9d985b1a59081cda185c9948185b5bdd5b9d60621b6044820152606401610285565b60008381526002602090815260409182902082516080810184523381529182018590529181016109ef3486611548565b81526000602091820181905283546001808201865594825290829020835160049092020180546001600160a01b0319166001600160a01b03909216919091178155908201519281019290925560408101516002830155606001516003909101805460ff191691151591909117905533837f51db8e23b3f4479b162fd48823b8402895442b8f6cfd94f66239391881ec7b6f84610a8b3482611548565b6040805192835260208301919091520160405180910390a350610aae6001600055565b5050565b606080600083118015610ac757506003548311155b610ae35760405162461bcd60e51b815260040161028590611c00565b60008381526001602052604090206007810154806001600160401b03811115610b0e57610b0e611a31565b604051908082528060200260200182016040528015610b37578160200160208202803683370190505b509350806001600160401b03811115610b5257610b52611a31565b604051908082528060200260200182016040528015610b7b578160200160208202803683370190505b50925060005b81811015610c44576000836007018281548110610ba057610ba0611c2a565b9060005260206000200160009054906101000a90046001600160a01b0316905080868381518110610bd357610bd3611c2a565b60200260200101906001600160a01b031690816001600160a01b031681525050836008016000826001600160a01b03166001600160a01b0316815260200190815260200160002060010154858381518110610c3057610c30611c2a565b602090810291909101015250600101610b81565b505050915091565b60026020528160005260406000208181548110610c6857600080fd5b600091825260209091206004909102018054600182015460028301546003909301546001600160a01b039092169450925060ff1684565b6000606060008060008060008088118015610cbc57506003548811155b610cd85760405162461bcd60e51b815260040161028590611c00565b6000888152600160208190526040909120805460028201546003830154600484015460058501546006860154968601805496976001600160a01b0390961696909560ff90921691908690610d2b90611cc5565b80601f0160208091040260200160405190810160405280929190818152602001828054610d5790611cc5565b8015610da45780601f10610d7957610100808354040283529160200191610da4565b820191906000526020600020905b815481529060010190602001808311610d8757829003601f168201915b50505050509550975097509750975097509750975050919395979092949650565b610dcd610f49565b600081815260016020526040902080546001600160a01b03163314610e045760405162461bcd60e51b815260040161028590611c40565b600581015460ff1615610e295760405162461bcd60e51b815260040161028590611c66565b80600601544210156105695760405162461bcd60e51b815260206004820152601660248201527542696464696e6720706572696f64206f6e676f696e6760501b6044820152606401610285565b6001602081905260009182526040909120805491810180546001600160a01b0390931692610ea390611cc5565b80601f0160208091040260200160405190810160405280929190818152602001828054610ecf90611cc5565b8015610f1c5780601f10610ef157610100808354040283529160200191610f1c565b820191906000526020600020905b815481529060010190602001808311610eff57829003601f168201915b505050506002830154600384015460048501546005860154600690960154949592949193509160ff169087565b600260005403610f9b5760405162461bcd60e51b815260206004820152601f60248201527f5265656e7472616e637947756172643a207265656e7472616e742063616c6c006044820152606401610285565b6002600055565b6000818152600160205260409020610fb98261155d565b60008281526002602052604081206003830154909190815b835481108015610fe15750600082115b15611080576000848281548110610ffa57610ffa611c2a565b60009182526020909120600490910201600381015490915060ff1615611020575061106e565b60008382600101541115611034578361103a565b81600101545b905061105d61105683600201548361176390919063ffffffff16565b869061176f565b9450611069848261177b565b935050505b8061107881611cac565b915050610fd1565b50600484015482108015906114fb576002850154600386015560005b60078601548110156110f65760008660070182815481106110bf576110bf611c2a565b60009182526020808320909101546001600160a01b031682526008890190526040812060019081019190915591909101905061109c565b506111056007860160006118ed565b60005b84548110156114f5576003860154156114f557600085828154811061112f5761112f611c2a565b60009182526020909120600490910201600381015490915060ff161561115557506114ed565b6000876003015482600101541115611171578760030154611177565b81600101545b9050600061119283600201548361176390919063ffffffff16565b905060006111bb826111b58660020154876001015461176390919063ffffffff16565b9061177b565b905082156114665789546040516001600160a01b039091169083156108fc029084906000818181858888f193505050501580156111fc573d6000803e3d6000fd5b5060038a015461120c908461177b565b6003808c01919091558401805460ff1916600117905583546001600160a01b0316600090815260088b01602052604090206002015460ff1661138557896007018460000160009054906101000a90046001600160a01b03169080600181540180825580915050600190039060005260206000200160009091909190916101000a8154816001600160a01b0302191690836001600160a01b0316021790555060405180606001604052808560000160009054906101000a90046001600160a01b03166001600160a01b03168152602001848152602001600115158152508a60080160008660000160009054906101000a90046001600160a01b03166001600160a01b03166001600160a01b0316815260200190815260200160002060008201518160000160006101000a8154816001600160a01b0302191690836001600160a01b031602179055506020820151816001015560408201518160020160006101000a81548160ff0219169083151502179055509050506113ce565b83546001600160a01b0316600090815260088b0160205260409020600101546113ae908461176f565b84546001600160a01b0316600090815260088c0160205260409020600101555b835460028501546040516001600160a01b03909216918d917f46d3c445b404e9de2c80e1c0489cc92f23dfd5462ce7c6b3a1a54b3f0f70bcfc9161141a91888252602082015260400190565b60405180910390a383546040518481526001600160a01b03909116908c907f25af9e0275abbb4de910d2062f5dcca6d4c47f1313066083dd9d7077608a7a549060200160405180910390a35b80156114e85783546040516001600160a01b039091169082156108fc029083906000818181858888f193505050501580156114a5573d6000803e3d6000fd5b5083546040518281526001600160a01b03909116907fa171b6942063c6f2800ce40a780edce37baa2b618571b11eedd1e69e626e7d769060200160405180910390a25b505050505b600101611108565b50611504565b61150486611787565b60408051821515815242602082015287917f4d7a5e450395fb8fb6b67c4751f80f057cd5a74550929306eff2cac7f0ecc188910160405180910390a2505050505050565b60006115548284611e43565b90505b92915050565b6000818152600260205260408120905b815481101561175e576000611583826001611e0b565b90505b8254811015611755578281815481106115a1576115a1611c2a565b9060005260206000209060040201600201548383815481106115c5576115c5611c2a565b906000526020600020906004020160020154101561174d5760008383815481106115f1576115f1611c2a565b600091825260209182902060408051608081018252600490930290910180546001600160a01b0316835260018101549383019390935260028301549082015260039091015460ff1615156060820152845490915084908390811061165757611657611c2a565b906000526020600020906004020184848154811061167757611677611c2a565b60009182526020909120825460049092020180546001600160a01b0319166001600160a01b0390921691909117815560018083015490820155600280830154908201556003918201549101805460ff909216151560ff19909216919091179055835481908590849081106116ed576116ed611c2a565b600091825260209182902083516004929092020180546001600160a01b0319166001600160a01b03909216919091178155908201516001820155604082015160028201556060909101516003909101805460ff1916911515919091179055505b600101611586565b5060010161156d565b505050565b60006115548284611e65565b60006115548284611e0b565b60006115548284611e7c565b6000818152600260205260408120905b815481101561175e578181815481106117b2576117b2611c2a565b600091825260209091206003600490920201015460ff166118e55760006118288383815481106117e4576117e4611c2a565b90600052602060002090600402016002015484848154811061180857611808611c2a565b90600052602060002090600402016001015461176390919063ffffffff16565b905082828154811061183c5761183c611c2a565b600091825260208220600490910201546040516001600160a01b039091169183156108fc02918491818181858888f19350505050158015611881573d6000803e3d6000fd5b5082828154811061189457611894611c2a565b6000918252602091829020600490910201546040518381526001600160a01b03909116917fa171b6942063c6f2800ce40a780edce37baa2b618571b11eedd1e69e626e7d76910160405180910390a2505b600101611797565b50805460008255906000526020600020908101906105e191905b8082111561191b5760008155600101611907565b5090565b60006020828403121561193157600080fd5b5035919050565b600081518084526020840193506020830160005b828110156119735781516001600160a01b031686526020958601959091019060010161194c565b5093949350505050565b600081518084526020840193506020830160005b82811015611973578151865260209586019590910190600101611991565b6080815260006119c26080830187611938565b82810360208401526119d4818761197d565b905082810360408401526119e8818661197d565b83810360608501528451808252602080870193509091019060005b81811015611a235783511515835260209384019390920191600101611a03565b509098975050505050505050565b634e487b7160e01b600052604160045260246000fd5b600080600080600060a08688031215611a5f57600080fd5b85356001600160401b03811115611a7557600080fd5b8601601f81018813611a8657600080fd5b80356001600160401b03811115611a9f57611a9f611a31565b604051601f8201601f19908116603f011681016001600160401b0381118282101715611acd57611acd611a31565b6040528181528282016020018a1015611ae557600080fd5b816020840160208301376000602092820183015299908801359850604088013597606081013597506080013595509350505050565b60008060408385031215611b2d57600080fd5b50508035926020909101359150565b604081526000611b4f6040830185611938565b8281036020840152611b61818561197d565b95945050505050565b6000815180845260005b81811015611b9057602081850181015186830182015201611b74565b506000602082860101526020601f19601f83011685010191505092915050565b6001600160a01b038816815260e060208201819052600090611bd490830189611b6a565b60408301979097525060608101949094526080840192909252151560a083015260c09091015292915050565b60208082526010908201526f125b9d985b1a5908185cdcd95d08125160821b604082015260600190565b634e487b7160e01b600052603260045260246000fd5b6020808252600c908201526b155b985d5d1a1bdc9a5e995960a21b604082015260600190565b602080825260169082015275109a59191a5b99c8185b1c9958591e4818db1bdcd95960521b604082015260600190565b634e487b7160e01b600052601160045260246000fd5b600060018201611cbe57611cbe611c96565b5060010190565b600181811c90821680611cd957607f821691505b602082108103611cf957634e487b7160e01b600052602260045260246000fd5b50919050565b601f82111561175e57806000526020600020601f840160051c81016020851015611d265750805b601f840160051c820191505b81811015611d465760008155600101611d32565b5050505050565b81516001600160401b03811115611d6657611d66611a31565b611d7a81611d748454611cc5565b84611cff565b6020601f821160018114611dae5760008315611d965750848201515b600019600385901b1c1916600184901b178455611d46565b600084815260208120601f198516915b82811015611dde5787850151825560209485019460019092019101611dbe565b5084821015611dfc5786840151600019600387901b60f8161c191681555b50505050600190811b01905550565b8082018082111561155757611557611c96565b606081526000611e316060830186611b6a565b60208301949094525060400152919050565b600082611e6057634e487b7160e01b600052601260045260246000fd5b500490565b808202811582820484141761155757611557611c96565b8181038181111561155757611557611c9656fea2646970667358221220be7b34ff116e59147e9f73fa4041f7918791d42501b74360e5a0f1e0be57b97d64736f6c634300081d0033",
					"opcodes": "PUSH1 0x80 PUSH1 0x40 MSTORE CALLVALUE DUP1 ISZERO PUSH1 0xF JUMPI PUSH1 0x0 DUP1 REVERT JUMPDEST POP PUSH1 0x1 PUSH1 0x0 SSTORE PUSH2 0x1EC5 DUP1 PUSH2 0x24 PUSH1 0x0 CODECOPY PUSH1 0x0 RETURN INVALID PUSH1 0x80 PUSH1 0x40 MSTORE PUSH1 0x4 CALLDATASIZE LT PUSH2 0x9C JUMPI PUSH1 0x0 CALLDATALOAD PUSH1 0xE0 SHR DUP1 PUSH4 0x686735C5 GT PUSH2 0x64 JUMPI DUP1 PUSH4 0x686735C5 EQ PUSH2 0x14E JUMPI DUP1 PUSH4 0xA3D5F1E5 EQ PUSH2 0x17C JUMPI DUP1 PUSH4 0xB18CC358 EQ PUSH2 0x1C8 JUMPI DUP1 PUSH4 0xB468E0B0 EQ PUSH2 0x1FB JUMPI DUP1 PUSH4 0xCF35BDD0 EQ PUSH2 0x21B JUMPI DUP1 PUSH4 0xEAFE7A74 EQ PUSH2 0x23B JUMPI PUSH1 0x0 DUP1 REVERT JUMPDEST DUP1 PUSH4 0x392CC45 EQ PUSH2 0xA1 JUMPI DUP1 PUSH4 0x93755AD EQ PUSH2 0xDA JUMPI DUP1 PUSH4 0x47582610 EQ PUSH2 0xFC JUMPI DUP1 PUSH4 0x503E0578 EQ PUSH2 0x11B JUMPI DUP1 PUSH4 0x57C90DE5 EQ PUSH2 0x13B JUMPI JUMPDEST PUSH1 0x0 DUP1 REVERT JUMPDEST CALLVALUE DUP1 ISZERO PUSH2 0xAD JUMPI PUSH1 0x0 DUP1 REVERT JUMPDEST POP PUSH2 0xC1 PUSH2 0xBC CALLDATASIZE PUSH1 0x4 PUSH2 0x191F JUMP JUMPDEST PUSH2 0x251 JUMP JUMPDEST PUSH1 0x40 MLOAD PUSH2 0xD1 SWAP5 SWAP4 SWAP3 SWAP2 SWAP1 PUSH2 0x19AF JUMP JUMPDEST PUSH1 0x40 MLOAD DUP1 SWAP2 SUB SWAP1 RETURN JUMPDEST CALLVALUE DUP1 ISZERO PUSH2 0xE6 JUMPI PUSH1 0x0 DUP1 REVERT JUMPDEST POP PUSH2 0xFA PUSH2 0xF5 CALLDATASIZE PUSH1 0x4 PUSH2 0x191F JUMP JUMPDEST PUSH2 0x505 JUMP JUMPDEST STOP JUMPDEST CALLVALUE DUP1 ISZERO PUSH2 0x108 JUMPI PUSH1 0x0 DUP1 REVERT JUMPDEST POP PUSH1 0x3 SLOAD JUMPDEST PUSH1 0x40 MLOAD SWAP1 DUP2 MSTORE PUSH1 0x20 ADD PUSH2 0xD1 JUMP JUMPDEST CALLVALUE DUP1 ISZERO PUSH2 0x127 JUMPI PUSH1 0x0 DUP1 REVERT JUMPDEST POP PUSH2 0xFA PUSH2 0x136 CALLDATASIZE PUSH1 0x4 PUSH2 0x1A47 JUMP JUMPDEST PUSH2 0x5E4 JUMP JUMPDEST PUSH2 0xFA PUSH2 0x149 CALLDATASIZE PUSH1 0x4 PUSH2 0x1B1A JUMP JUMPDEST PUSH2 0x8D2 JUMP JUMPDEST CALLVALUE DUP1 ISZERO PUSH2 0x15A JUMPI PUSH1 0x0 DUP1 REVERT JUMPDEST POP PUSH2 0x16E PUSH2 0x169 CALLDATASIZE PUSH1 0x4 PUSH2 0x191F JUMP JUMPDEST PUSH2 0xAB2 JUMP JUMPDEST PUSH1 0x40 MLOAD PUSH2 0xD1 SWAP3 SWAP2 SWAP1 PUSH2 0x1B3C JUMP JUMPDEST CALLVALUE DUP1 ISZERO PUSH2 0x188 JUMPI PUSH1 0x0 DUP1 REVERT JUMPDEST POP PUSH2 0x19C PUSH2 0x197 CALLDATASIZE PUSH1 0x4 PUSH2 0x1B1A JUMP JUMPDEST PUSH2 0xC4C JUMP JUMPDEST PUSH1 0x40 DUP1 MLOAD PUSH1 0x1 PUSH1 0x1 PUSH1 0xA0 SHL SUB SWAP1 SWAP6 AND DUP6 MSTORE PUSH1 0x20 DUP6 ADD SWAP4 SWAP1 SWAP4 MSTORE SWAP2 DUP4 ADD MSTORE ISZERO ISZERO PUSH1 0x60 DUP3 ADD MSTORE PUSH1 0x80 ADD PUSH2 0xD1 JUMP JUMPDEST CALLVALUE DUP1 ISZERO PUSH2 0x1D4 JUMPI PUSH1 0x0 DUP1 REVERT JUMPDEST POP PUSH2 0x1E8 PUSH2 0x1E3 CALLDATASIZE PUSH1 0x4 PUSH2 0x191F JUMP JUMPDEST PUSH2 0xC9F JUMP JUMPDEST PUSH1 0x40 MLOAD PUSH2 0xD1 SWAP8 SWAP7 SWAP6 SWAP5 SWAP4 SWAP3 SWAP2 SWAP1 PUSH2 0x1BB0 JUMP JUMPDEST CALLVALUE DUP1 ISZERO PUSH2 0x207 JUMPI PUSH1 0x0 DUP1 REVERT JUMPDEST POP PUSH2 0xFA PUSH2 0x216 CALLDATASIZE PUSH1 0x4 PUSH2 0x191F JUMP JUMPDEST PUSH2 0xDC5 JUMP JUMPDEST CALLVALUE DUP1 ISZERO PUSH2 0x227 JUMPI PUSH1 0x0 DUP1 REVERT JUMPDEST POP PUSH2 0x1E8 PUSH2 0x236 CALLDATASIZE PUSH1 0x4 PUSH2 0x191F JUMP JUMPDEST PUSH2 0xE76 JUMP JUMPDEST CALLVALUE DUP1 ISZERO PUSH2 0x247 JUMPI PUSH1 0x0 DUP1 REVERT JUMPDEST POP PUSH2 0x10D PUSH1 0x3 SLOAD DUP2 JUMP JUMPDEST PUSH1 0x60 DUP1 PUSH1 0x60 DUP1 PUSH1 0x0 DUP6 GT DUP1 ISZERO PUSH2 0x269 JUMPI POP PUSH1 0x3 SLOAD DUP6 GT ISZERO JUMPDEST PUSH2 0x28E JUMPI PUSH1 0x40 MLOAD PUSH3 0x461BCD PUSH1 0xE5 SHL DUP2 MSTORE PUSH1 0x4 ADD PUSH2 0x285 SWAP1 PUSH2 0x1C00 JUMP JUMPDEST PUSH1 0x40 MLOAD DUP1 SWAP2 SUB SWAP1 REVERT JUMPDEST PUSH1 0x0 DUP6 DUP2 MSTORE PUSH1 0x2 PUSH1 0x20 MSTORE PUSH1 0x40 SWAP1 KECCAK256 DUP1 SLOAD DUP1 PUSH1 0x1 PUSH1 0x1 PUSH1 0x40 SHL SUB DUP2 GT ISZERO PUSH2 0x2B6 JUMPI PUSH2 0x2B6 PUSH2 0x1A31 JUMP JUMPDEST PUSH1 0x40 MLOAD SWAP1 DUP1 DUP3 MSTORE DUP1 PUSH1 0x20 MUL PUSH1 0x20 ADD DUP3 ADD PUSH1 0x40 MSTORE DUP1 ISZERO PUSH2 0x2DF JUMPI DUP2 PUSH1 0x20 ADD PUSH1 0x20 DUP3 MUL DUP1 CALLDATASIZE DUP4 CALLDATACOPY ADD SWAP1 POP JUMPDEST POP SWAP6 POP DUP1 PUSH1 0x1 PUSH1 0x1 PUSH1 0x40 SHL SUB DUP2 GT ISZERO PUSH2 0x2FA JUMPI PUSH2 0x2FA PUSH2 0x1A31 JUMP JUMPDEST PUSH1 0x40 MLOAD SWAP1 DUP1 DUP3 MSTORE DUP1 PUSH1 0x20 MUL PUSH1 0x20 ADD DUP3 ADD PUSH1 0x40 MSTORE DUP1 ISZERO PUSH2 0x323 JUMPI DUP2 PUSH1 0x20 ADD PUSH1 0x20 DUP3 MUL DUP1 CALLDATASIZE DUP4 CALLDATACOPY ADD SWAP1 POP JUMPDEST POP SWAP5 POP DUP1 PUSH1 0x1 PUSH1 0x1 PUSH1 0x40 SHL SUB DUP2 GT ISZERO PUSH2 0x33E JUMPI PUSH2 0x33E PUSH2 0x1A31 JUMP JUMPDEST PUSH1 0x40 MLOAD SWAP1 DUP1 DUP3 MSTORE DUP1 PUSH1 0x20 MUL PUSH1 0x20 ADD DUP3 ADD PUSH1 0x40 MSTORE DUP1 ISZERO PUSH2 0x367 JUMPI DUP2 PUSH1 0x20 ADD PUSH1 0x20 DUP3 MUL DUP1 CALLDATASIZE DUP4 CALLDATACOPY ADD SWAP1 POP JUMPDEST POP SWAP4 POP DUP1 PUSH1 0x1 PUSH1 0x1 PUSH1 0x40 SHL SUB DUP2 GT ISZERO PUSH2 0x382 JUMPI PUSH2 0x382 PUSH2 0x1A31 JUMP JUMPDEST PUSH1 0x40 MLOAD SWAP1 DUP1 DUP3 MSTORE DUP1 PUSH1 0x20 MUL PUSH1 0x20 ADD DUP3 ADD PUSH1 0x40 MSTORE DUP1 ISZERO PUSH2 0x3AB JUMPI DUP2 PUSH1 0x20 ADD PUSH1 0x20 DUP3 MUL DUP1 CALLDATASIZE DUP4 CALLDATACOPY ADD SWAP1 POP JUMPDEST POP SWAP3 POP PUSH1 0x0 JUMPDEST DUP2 DUP2 LT ISZERO PUSH2 0x4FB JUMPI DUP3 DUP2 DUP2 SLOAD DUP2 LT PUSH2 0x3CB JUMPI PUSH2 0x3CB PUSH2 0x1C2A JUMP JUMPDEST PUSH1 0x0 SWAP2 DUP3 MSTORE PUSH1 0x20 SWAP1 SWAP2 KECCAK256 PUSH1 0x4 SWAP1 SWAP2 MUL ADD SLOAD DUP8 MLOAD PUSH1 0x1 PUSH1 0x1 PUSH1 0xA0 SHL SUB SWAP1 SWAP2 AND SWAP1 DUP9 SWAP1 DUP4 SWAP1 DUP2 LT PUSH2 0x3FC JUMPI PUSH2 0x3FC PUSH2 0x1C2A JUMP JUMPDEST PUSH1 0x20 MUL PUSH1 0x20 ADD ADD SWAP1 PUSH1 0x1 PUSH1 0x1 PUSH1 0xA0 SHL SUB AND SWAP1 DUP2 PUSH1 0x1 PUSH1 0x1 PUSH1 0xA0 SHL SUB AND DUP2 MSTORE POP POP DUP3 DUP2 DUP2 SLOAD DUP2 LT PUSH2 0x42E JUMPI PUSH2 0x42E PUSH2 0x1C2A JUMP JUMPDEST SWAP1 PUSH1 0x0 MSTORE PUSH1 0x20 PUSH1 0x0 KECCAK256 SWAP1 PUSH1 0x4 MUL ADD PUSH1 0x1 ADD SLOAD DUP7 DUP3 DUP2 MLOAD DUP2 LT PUSH2 0x452 JUMPI PUSH2 0x452 PUSH2 0x1C2A JUMP JUMPDEST PUSH1 0x20 MUL PUSH1 0x20 ADD ADD DUP2 DUP2 MSTORE POP POP DUP3 DUP2 DUP2 SLOAD DUP2 LT PUSH2 0x470 JUMPI PUSH2 0x470 PUSH2 0x1C2A JUMP JUMPDEST SWAP1 PUSH1 0x0 MSTORE PUSH1 0x20 PUSH1 0x0 KECCAK256 SWAP1 PUSH1 0x4 MUL ADD PUSH1 0x2 ADD SLOAD DUP6 DUP3 DUP2 MLOAD DUP2 LT PUSH2 0x494 JUMPI PUSH2 0x494 PUSH2 0x1C2A JUMP JUMPDEST PUSH1 0x20 MUL PUSH1 0x20 ADD ADD DUP2 DUP2 MSTORE POP POP DUP3 DUP2 DUP2 SLOAD DUP2 LT PUSH2 0x4B2 JUMPI PUSH2 0x4B2 PUSH2 0x1C2A JUMP JUMPDEST SWAP1 PUSH1 0x0 MSTORE PUSH1 0x20 PUSH1 0x0 KECCAK256 SWAP1 PUSH1 0x4 MUL ADD PUSH1 0x3 ADD PUSH1 0x0 SWAP1 SLOAD SWAP1 PUSH2 0x100 EXP SWAP1 DIV PUSH1 0xFF AND DUP5 DUP3 DUP2 MLOAD DUP2 LT PUSH2 0x4E3 JUMPI PUSH2 0x4E3 PUSH2 0x1C2A JUMP JUMPDEST SWAP2 ISZERO ISZERO PUSH1 0x20 SWAP3 DUP4 MUL SWAP2 SWAP1 SWAP2 ADD SWAP1 SWAP2 ADD MSTORE PUSH1 0x1 ADD PUSH2 0x3B1 JUMP JUMPDEST POP POP POP SWAP2 SWAP4 POP SWAP2 SWAP4 JUMP JUMPDEST PUSH2 0x50D PUSH2 0xF49 JUMP JUMPDEST PUSH1 0x0 DUP2 DUP2 MSTORE PUSH1 0x1 PUSH1 0x20 MSTORE PUSH1 0x40 SWAP1 KECCAK256 DUP1 SLOAD PUSH1 0x1 PUSH1 0x1 PUSH1 0xA0 SHL SUB AND CALLER EQ PUSH2 0x544 JUMPI PUSH1 0x40 MLOAD PUSH3 0x461BCD PUSH1 0xE5 SHL DUP2 MSTORE PUSH1 0x4 ADD PUSH2 0x285 SWAP1 PUSH2 0x1C40 JUMP JUMPDEST PUSH1 0x5 DUP2 ADD SLOAD PUSH1 0xFF AND ISZERO PUSH2 0x569 JUMPI PUSH1 0x40 MLOAD PUSH3 0x461BCD PUSH1 0xE5 SHL DUP2 MSTORE PUSH1 0x4 ADD PUSH2 0x285 SWAP1 PUSH2 0x1C66 JUMP JUMPDEST PUSH1 0x5 DUP2 ADD DUP1 SLOAD PUSH1 0xFF NOT AND PUSH1 0x1 OR SWAP1 SSTORE PUSH1 0x0 DUP3 DUP2 MSTORE PUSH1 0x2 PUSH1 0x20 MSTORE PUSH1 0x40 SWAP1 KECCAK256 SLOAD ISZERO PUSH2 0x59A JUMPI PUSH2 0x595 DUP3 PUSH2 0xFA2 JUMP JUMPDEST PUSH2 0x5D6 JUMP JUMPDEST PUSH1 0x40 DUP1 MLOAD PUSH1 0x0 DUP2 MSTORE TIMESTAMP PUSH1 0x20 DUP3 ADD MSTORE DUP4 SWAP2 PUSH32 0x4D7A5E450395FB8FB6B67C4751F80F057CD5A74550929306EFF2CAC7F0ECC188 SWAP2 ADD PUSH1 0x40 MLOAD DUP1 SWAP2 SUB SWAP1 LOG2 JUMPDEST POP PUSH2 0x5E1 PUSH1 0x1 PUSH1 0x0 SSTORE JUMP JUMPDEST POP JUMP JUMPDEST PUSH1 0x0 DUP5 GT PUSH2 0x62A JUMPI PUSH1 0x40 MLOAD PUSH3 0x461BCD PUSH1 0xE5 SHL DUP2 MSTORE PUSH1 0x20 PUSH1 0x4 DUP3 ADD MSTORE PUSH1 0x13 PUSH1 0x24 DUP3 ADD MSTORE PUSH19 0x125B9D985B1A59081CDA185C994818DBDD5B9D PUSH1 0x6A SHL PUSH1 0x44 DUP3 ADD MSTORE PUSH1 0x64 ADD PUSH2 0x285 JUMP JUMPDEST PUSH1 0x0 DUP4 GT PUSH2 0x67A JUMPI PUSH1 0x40 MLOAD PUSH3 0x461BCD PUSH1 0xE5 SHL DUP2 MSTORE PUSH1 0x20 PUSH1 0x4 DUP3 ADD MSTORE PUSH1 0x1F PUSH1 0x24 DUP3 ADD MSTORE PUSH32 0x496E76616C6964206D696E696D756D2070726963652070657220736861726500 PUSH1 0x44 DUP3 ADD MSTORE PUSH1 0x64 ADD PUSH2 0x285 JUMP JUMPDEST PUSH1 0x0 DUP3 GT PUSH2 0x6CA JUMPI PUSH1 0x40 MLOAD PUSH3 0x461BCD PUSH1 0xE5 SHL DUP2 MSTORE PUSH1 0x20 PUSH1 0x4 DUP3 ADD MSTORE PUSH1 0x1B PUSH1 0x24 DUP3 ADD MSTORE PUSH32 0x496E76616C6964206D696E696D756D20746F74616C2070726963650000000000 PUSH1 0x44 DUP3 ADD MSTORE PUSH1 0x64 ADD PUSH2 0x285 JUMP JUMPDEST PUSH1 0x0 DUP6 MLOAD GT PUSH2 0x712 JUMPI PUSH1 0x40 MLOAD PUSH3 0x461BCD PUSH1 0xE5 SHL DUP2 MSTORE PUSH1 0x20 PUSH1 0x4 DUP3 ADD MSTORE PUSH1 0x14 PUSH1 0x24 DUP3 ADD MSTORE PUSH20 0x4E616D652063616E6E6F7420626520656D707479 PUSH1 0x60 SHL PUSH1 0x44 DUP3 ADD MSTORE PUSH1 0x64 ADD PUSH2 0x285 JUMP JUMPDEST PUSH1 0x3 DUP1 SLOAD SWAP1 PUSH1 0x0 PUSH2 0x722 DUP4 PUSH2 0x1CAC JUMP JUMPDEST SWAP1 SWAP2 SSTORE POP POP PUSH1 0x3 SLOAD PUSH1 0x0 SWAP1 DUP2 MSTORE PUSH1 0x1 PUSH1 0x20 DUP2 SWAP1 MSTORE PUSH1 0x40 SWAP1 SWAP2 KECCAK256 DUP1 SLOAD PUSH1 0x1 PUSH1 0x1 PUSH1 0xA0 SHL SUB NOT AND CALLER OR DUP2 SSTORE SWAP1 DUP2 ADD PUSH2 0x758 DUP8 DUP3 PUSH2 0x1D4D JUMP JUMPDEST POP PUSH1 0x2 DUP2 ADD DUP6 SWAP1 SSTORE PUSH1 0x3 DUP2 ADD DUP6 SWAP1 SSTORE PUSH1 0x4 DUP2 ADD DUP4 SWAP1 SSTORE PUSH1 0x5 DUP2 ADD DUP1 SLOAD PUSH1 0xFF NOT AND SWAP1 SSTORE PUSH2 0x784 DUP3 TIMESTAMP PUSH2 0x1E0B JUMP JUMPDEST PUSH1 0x6 DUP3 ADD SSTORE PUSH1 0x7 DUP2 ADD DUP1 SLOAD PUSH1 0x1 DUP1 DUP3 ADD DUP4 SSTORE PUSH1 0x0 SWAP3 DUP4 MSTORE PUSH1 0x20 DUP1 DUP5 KECCAK256 SWAP1 SWAP3 ADD DUP1 SLOAD CALLER PUSH1 0x1 PUSH1 0x1 PUSH1 0xA0 SHL SUB NOT SWAP2 DUP3 AND DUP2 OR SWAP1 SWAP3 SSTORE PUSH1 0x40 DUP1 MLOAD PUSH1 0x60 DUP2 ADD DUP3 MSTORE DUP4 DUP2 MSTORE DUP1 DUP7 ADD DUP13 DUP2 MSTORE DUP2 DUP4 ADD DUP7 DUP2 MSTORE DUP6 DUP10 MSTORE PUSH1 0x8 DUP11 ADD SWAP1 SWAP8 MSTORE SWAP7 DUP3 SWAP1 KECCAK256 SWAP1 MLOAD DUP2 SLOAD SWAP1 SWAP4 AND PUSH1 0x1 PUSH1 0x1 PUSH1 0xA0 SHL SUB SWAP1 SWAP4 AND SWAP3 SWAP1 SWAP3 OR DUP3 SSTORE SWAP5 MLOAD SWAP3 DUP2 ADD SWAP3 SWAP1 SWAP3 SSTORE SWAP2 MLOAD PUSH1 0x2 SWAP1 SWAP2 ADD DUP1 SLOAD PUSH1 0xFF NOT AND SWAP2 ISZERO ISZERO SWAP2 SWAP1 SWAP2 OR SWAP1 SSTORE PUSH1 0x3 SLOAD SWAP2 MLOAD SWAP1 SWAP2 SWAP1 PUSH32 0x1B72BEABFA8420E9B47A1C3D6764A97E2044C51B3368B66B161A5FC8CEEBCCF SWAP1 PUSH2 0x84E SWAP1 DUP11 SWAP1 DUP11 SWAP1 DUP10 SWAP1 PUSH2 0x1E1E JUMP JUMPDEST PUSH1 0x40 MLOAD DUP1 SWAP2 SUB SWAP1 LOG3 PUSH1 0x3 SLOAD PUSH1 0x40 MLOAD DUP7 DUP2 MSTORE CALLER SWAP2 SWAP1 PUSH32 0x25AF9E0275ABBB4DE910D2062F5DCCA6D4C47F1313066083DD9D7077608A7A54 SWAP1 PUSH1 0x20 ADD PUSH1 0x40 MLOAD DUP1 SWAP2 SUB SWAP1 LOG3 PUSH32 0xDBAD7356874FB84060A1E809F3B9F73D977DA5F6E62D52682C065D51D15435C6 PUSH1 0x3 SLOAD PUSH1 0x40 MLOAD PUSH2 0x8C2 SWAP2 DUP2 MSTORE PUSH1 0x20 ADD SWAP1 JUMP JUMPDEST PUSH1 0x40 MLOAD DUP1 SWAP2 SUB SWAP1 LOG1 POP POP POP POP POP POP JUMP JUMPDEST PUSH2 0x8DA PUSH2 0xF49 JUMP JUMPDEST PUSH1 0x0 DUP3 DUP2 MSTORE PUSH1 0x1 PUSH1 0x20 MSTORE PUSH1 0x40 SWAP1 KECCAK256 PUSH1 0x5 DUP2 ADD SLOAD PUSH1 0xFF AND ISZERO PUSH2 0x92E JUMPI PUSH1 0x40 MLOAD PUSH3 0x461BCD PUSH1 0xE5 SHL DUP2 MSTORE PUSH1 0x20 PUSH1 0x4 DUP3 ADD MSTORE PUSH1 0xE PUSH1 0x24 DUP3 ADD MSTORE PUSH14 0x109A59191A5B99C818DB1BDCD959 PUSH1 0x92 SHL PUSH1 0x44 DUP3 ADD MSTORE PUSH1 0x64 ADD PUSH2 0x285 JUMP JUMPDEST DUP1 PUSH1 0x6 ADD SLOAD TIMESTAMP LT PUSH2 0x978 JUMPI PUSH1 0x40 MLOAD PUSH3 0x461BCD PUSH1 0xE5 SHL DUP2 MSTORE PUSH1 0x20 PUSH1 0x4 DUP3 ADD MSTORE PUSH1 0x14 PUSH1 0x24 DUP3 ADD MSTORE PUSH20 0x109A59191A5B99C81C195C9A5BD908195B991959 PUSH1 0x62 SHL PUSH1 0x44 DUP3 ADD MSTORE PUSH1 0x64 ADD PUSH2 0x285 JUMP JUMPDEST PUSH1 0x0 DUP3 GT PUSH2 0x9BF JUMPI PUSH1 0x40 MLOAD PUSH3 0x461BCD PUSH1 0xE5 SHL DUP2 MSTORE PUSH1 0x20 PUSH1 0x4 DUP3 ADD MSTORE PUSH1 0x14 PUSH1 0x24 DUP3 ADD MSTORE PUSH20 0x125B9D985B1A59081CDA185C9948185B5BDD5B9D PUSH1 0x62 SHL PUSH1 0x44 DUP3 ADD MSTORE PUSH1 0x64 ADD PUSH2 0x285 JUMP JUMPDEST PUSH1 0x0 DUP4 DUP2 MSTORE PUSH1 0x2 PUSH1 0x20 SWAP1 DUP2 MSTORE PUSH1 0x40 SWAP2 DUP3 SWAP1 KECCAK256 DUP3 MLOAD PUSH1 0x80 DUP2 ADD DUP5 MSTORE CALLER DUP2 MSTORE SWAP2 DUP3 ADD DUP6 SWAP1 MSTORE SWAP2 DUP2 ADD PUSH2 0x9EF CALLVALUE DUP7 PUSH2 0x1548 JUMP JUMPDEST DUP2 MSTORE PUSH1 0x0 PUSH1 0x20 SWAP2 DUP3 ADD DUP2 SWAP1 MSTORE DUP4 SLOAD PUSH1 0x1 DUP1 DUP3 ADD DUP7 SSTORE SWAP5 DUP3 MSTORE SWAP1 DUP3 SWAP1 KECCAK256 DUP4 MLOAD PUSH1 0x4 SWAP1 SWAP3 MUL ADD DUP1 SLOAD PUSH1 0x1 PUSH1 0x1 PUSH1 0xA0 SHL SUB NOT AND PUSH1 0x1 PUSH1 0x1 PUSH1 0xA0 SHL SUB SWAP1 SWAP3 AND SWAP2 SWAP1 SWAP2 OR DUP2 SSTORE SWAP1 DUP3 ADD MLOAD SWAP3 DUP2 ADD SWAP3 SWAP1 SWAP3 SSTORE PUSH1 0x40 DUP2 ADD MLOAD PUSH1 0x2 DUP4 ADD SSTORE PUSH1 0x60 ADD MLOAD PUSH1 0x3 SWAP1 SWAP2 ADD DUP1 SLOAD PUSH1 0xFF NOT AND SWAP2 ISZERO ISZERO SWAP2 SWAP1 SWAP2 OR SWAP1 SSTORE CALLER DUP4 PUSH32 0x51DB8E23B3F4479B162FD48823B8402895442B8F6CFD94F66239391881EC7B6F DUP5 PUSH2 0xA8B CALLVALUE DUP3 PUSH2 0x1548 JUMP JUMPDEST PUSH1 0x40 DUP1 MLOAD SWAP3 DUP4 MSTORE PUSH1 0x20 DUP4 ADD SWAP2 SWAP1 SWAP2 MSTORE ADD PUSH1 0x40 MLOAD DUP1 SWAP2 SUB SWAP1 LOG3 POP PUSH2 0xAAE PUSH1 0x1 PUSH1 0x0 SSTORE JUMP JUMPDEST POP POP JUMP JUMPDEST PUSH1 0x60 DUP1 PUSH1 0x0 DUP4 GT DUP1 ISZERO PUSH2 0xAC7 JUMPI POP PUSH1 0x3 SLOAD DUP4 GT ISZERO JUMPDEST PUSH2 0xAE3 JUMPI PUSH1 0x40 MLOAD PUSH3 0x461BCD PUSH1 0xE5 SHL DUP2 MSTORE PUSH1 0x4 ADD PUSH2 0x285 SWAP1 PUSH2 0x1C00 JUMP JUMPDEST PUSH1 0x0 DUP4 DUP2 MSTORE PUSH1 0x1 PUSH1 0x20 MSTORE PUSH1 0x40 SWAP1 KECCAK256 PUSH1 0x7 DUP2 ADD SLOAD DUP1 PUSH1 0x1 PUSH1 0x1 PUSH1 0x40 SHL SUB DUP2 GT ISZERO PUSH2 0xB0E JUMPI PUSH2 0xB0E PUSH2 0x1A31 JUMP JUMPDEST PUSH1 0x40 MLOAD SWAP1 DUP1 DUP3 MSTORE DUP1 PUSH1 0x20 MUL PUSH1 0x20 ADD DUP3 ADD PUSH1 0x40 MSTORE DUP1 ISZERO PUSH2 0xB37 JUMPI DUP2 PUSH1 0x20 ADD PUSH1 0x20 DUP3 MUL DUP1 CALLDATASIZE DUP4 CALLDATACOPY ADD SWAP1 POP JUMPDEST POP SWAP4 POP DUP1 PUSH1 0x1 PUSH1 0x1 PUSH1 0x40 SHL SUB DUP2 GT ISZERO PUSH2 0xB52 JUMPI PUSH2 0xB52 PUSH2 0x1A31 JUMP JUMPDEST PUSH1 0x40 MLOAD SWAP1 DUP1 DUP3 MSTORE DUP1 PUSH1 0x20 MUL PUSH1 0x20 ADD DUP3 ADD PUSH1 0x40 MSTORE DUP1 ISZERO PUSH2 0xB7B JUMPI DUP2 PUSH1 0x20 ADD PUSH1 0x20 DUP3 MUL DUP1 CALLDATASIZE DUP4 CALLDATACOPY ADD SWAP1 POP JUMPDEST POP SWAP3 POP PUSH1 0x0 JUMPDEST DUP2 DUP2 LT ISZERO PUSH2 0xC44 JUMPI PUSH1 0x0 DUP4 PUSH1 0x7 ADD DUP3 DUP2 SLOAD DUP2 LT PUSH2 0xBA0 JUMPI PUSH2 0xBA0 PUSH2 0x1C2A JUMP JUMPDEST SWAP1 PUSH1 0x0 MSTORE PUSH1 0x20 PUSH1 0x0 KECCAK256 ADD PUSH1 0x0 SWAP1 SLOAD SWAP1 PUSH2 0x100 EXP SWAP1 DIV PUSH1 0x1 PUSH1 0x1 PUSH1 0xA0 SHL SUB AND SWAP1 POP DUP1 DUP7 DUP4 DUP2 MLOAD DUP2 LT PUSH2 0xBD3 JUMPI PUSH2 0xBD3 PUSH2 0x1C2A JUMP JUMPDEST PUSH1 0x20 MUL PUSH1 0x20 ADD ADD SWAP1 PUSH1 0x1 PUSH1 0x1 PUSH1 0xA0 SHL SUB AND SWAP1 DUP2 PUSH1 0x1 PUSH1 0x1 PUSH1 0xA0 SHL SUB AND DUP2 MSTORE POP POP DUP4 PUSH1 0x8 ADD PUSH1 0x0 DUP3 PUSH1 0x1 PUSH1 0x1 PUSH1 0xA0 SHL SUB AND PUSH1 0x1 PUSH1 0x1 PUSH1 0xA0 SHL SUB AND DUP2 MSTORE PUSH1 0x20 ADD SWAP1 DUP2 MSTORE PUSH1 0x20 ADD PUSH1 0x0 KECCAK256 PUSH1 0x1 ADD SLOAD DUP6 DUP4 DUP2 MLOAD DUP2 LT PUSH2 0xC30 JUMPI PUSH2 0xC30 PUSH2 0x1C2A JUMP JUMPDEST PUSH1 0x20 SWAP1 DUP2 MUL SWAP2 SWAP1 SWAP2 ADD ADD MSTORE POP PUSH1 0x1 ADD PUSH2 0xB81 JUMP JUMPDEST POP POP POP SWAP2 POP SWAP2 JUMP JUMPDEST PUSH1 0x2 PUSH1 0x20 MSTORE DUP2 PUSH1 0x0 MSTORE PUSH1 0x40 PUSH1 0x0 KECCAK256 DUP2 DUP2 SLOAD DUP2 LT PUSH2 0xC68 JUMPI PUSH1 0x0 DUP1 REVERT JUMPDEST PUSH1 0x0 SWAP2 DUP3 MSTORE PUSH1 0x20 SWAP1 SWAP2 KECCAK256 PUSH1 0x4 SWAP1 SWAP2 MUL ADD DUP1 SLOAD PUSH1 0x1 DUP3 ADD SLOAD PUSH1 0x2 DUP4 ADD SLOAD PUSH1 0x3 SWAP1 SWAP4 ADD SLOAD PUSH1 0x1 PUSH1 0x1 PUSH1 0xA0 SHL SUB SWAP1 SWAP3 AND SWAP5 POP SWAP3 POP PUSH1 0xFF AND DUP5 JUMP JUMPDEST PUSH1 0x0 PUSH1 0x60 PUSH1 0x0 DUP1 PUSH1 0x0 DUP1 PUSH1 0x0 DUP1 DUP9 GT DUP1 ISZERO PUSH2 0xCBC JUMPI POP PUSH1 0x3 SLOAD DUP9 GT ISZERO JUMPDEST PUSH2 0xCD8 JUMPI PUSH1 0x40 MLOAD PUSH3 0x461BCD PUSH1 0xE5 SHL DUP2 MSTORE PUSH1 0x4 ADD PUSH2 0x285 SWAP1 PUSH2 0x1C00 JUMP JUMPDEST PUSH1 0x0 DUP9 DUP2 MSTORE PUSH1 0x1 PUSH1 0x20 DUP2 SWAP1 MSTORE PUSH1 0x40 SWAP1 SWAP2 KECCAK256 DUP1 SLOAD PUSH1 0x2 DUP3 ADD SLOAD PUSH1 0x3 DUP4 ADD SLOAD PUSH1 0x4 DUP5 ADD SLOAD PUSH1 0x5 DUP6 ADD SLOAD PUSH1 0x6 DUP7 ADD SLOAD SWAP7 DUP7 ADD DUP1 SLOAD SWAP7 SWAP8 PUSH1 0x1 PUSH1 0x1 PUSH1 0xA0 SHL SUB SWAP1 SWAP7 AND SWAP7 SWAP1 SWAP6 PUSH1 0xFF SWAP1 SWAP3 AND SWAP2 SWAP1 DUP7 SWAP1 PUSH2 0xD2B SWAP1 PUSH2 0x1CC5 JUMP JUMPDEST DUP1 PUSH1 0x1F ADD PUSH1 0x20 DUP1 SWAP2 DIV MUL PUSH1 0x20 ADD PUSH1 0x40 MLOAD SWAP1 DUP2 ADD PUSH1 0x40 MSTORE DUP1 SWAP3 SWAP2 SWAP1 DUP2 DUP2 MSTORE PUSH1 0x20 ADD DUP3 DUP1 SLOAD PUSH2 0xD57 SWAP1 PUSH2 0x1CC5 JUMP JUMPDEST DUP1 ISZERO PUSH2 0xDA4 JUMPI DUP1 PUSH1 0x1F LT PUSH2 0xD79 JUMPI PUSH2 0x100 DUP1 DUP4 SLOAD DIV MUL DUP4 MSTORE SWAP2 PUSH1 0x20 ADD SWAP2 PUSH2 0xDA4 JUMP JUMPDEST DUP3 ADD SWAP2 SWAP1 PUSH1 0x0 MSTORE PUSH1 0x20 PUSH1 0x0 KECCAK256 SWAP1 JUMPDEST DUP2 SLOAD DUP2 MSTORE SWAP1 PUSH1 0x1 ADD SWAP1 PUSH1 0x20 ADD DUP1 DUP4 GT PUSH2 0xD87 JUMPI DUP3 SWAP1 SUB PUSH1 0x1F AND DUP3 ADD SWAP2 JUMPDEST POP POP POP POP POP SWAP6 POP SWAP8 POP SWAP8 POP SWAP8 POP SWAP8 POP SWAP8 POP SWAP8 POP SWAP8 POP POP SWAP2 SWAP4 SWAP6 SWAP8 SWAP1 SWAP3 SWAP5 SWAP7 POP JUMP JUMPDEST PUSH2 0xDCD PUSH2 0xF49 JUMP JUMPDEST PUSH1 0x0 DUP2 DUP2 MSTORE PUSH1 0x1 PUSH1 0x20 MSTORE PUSH1 0x40 SWAP1 KECCAK256 DUP1 SLOAD PUSH1 0x1 PUSH1 0x1 PUSH1 0xA0 SHL SUB AND CALLER EQ PUSH2 0xE04 JUMPI PUSH1 0x40 MLOAD PUSH3 0x461BCD PUSH1 0xE5 SHL DUP2 MSTORE PUSH1 0x4 ADD PUSH2 0x285 SWAP1 PUSH2 0x1C40 JUMP JUMPDEST PUSH1 0x5 DUP2 ADD SLOAD PUSH1 0xFF AND ISZERO PUSH2 0xE29 JUMPI PUSH1 0x40 MLOAD PUSH3 0x461BCD PUSH1 0xE5 SHL DUP2 MSTORE PUSH1 0x4 ADD PUSH2 0x285 SWAP1 PUSH2 0x1C66 JUMP JUMPDEST DUP1 PUSH1 0x6 ADD SLOAD TIMESTAMP LT ISZERO PUSH2 0x569 JUMPI PUSH1 0x40 MLOAD PUSH3 0x461BCD PUSH1 0xE5 SHL DUP2 MSTORE PUSH1 0x20 PUSH1 0x4 DUP3 ADD MSTORE PUSH1 0x16 PUSH1 0x24 DUP3 ADD MSTORE PUSH22 0x42696464696E6720706572696F64206F6E676F696E67 PUSH1 0x50 SHL PUSH1 0x44 DUP3 ADD MSTORE PUSH1 0x64 ADD PUSH2 0x285 JUMP JUMPDEST PUSH1 0x1 PUSH1 0x20 DUP2 SWAP1 MSTORE PUSH1 0x0 SWAP2 DUP3 MSTORE PUSH1 0x40 SWAP1 SWAP2 KECCAK256 DUP1 SLOAD SWAP2 DUP2 ADD DUP1 SLOAD PUSH1 0x1 PUSH1 0x1 PUSH1 0xA0 SHL SUB SWAP1 SWAP4 AND SWAP3 PUSH2 0xEA3 SWAP1 PUSH2 0x1CC5 JUMP JUMPDEST DUP1 PUSH1 0x1F ADD PUSH1 0x20 DUP1 SWAP2 DIV MUL PUSH1 0x20 ADD PUSH1 0x40 MLOAD SWAP1 DUP2 ADD PUSH1 0x40 MSTORE DUP1 SWAP3 SWAP2 SWAP1 DUP2 DUP2 MSTORE PUSH1 0x20 ADD DUP3 DUP1 SLOAD PUSH2 0xECF SWAP1 PUSH2 0x1CC5 JUMP JUMPDEST DUP1 ISZERO PUSH2 0xF1C JUMPI DUP1 PUSH1 0x1F LT PUSH2 0xEF1 JUMPI PUSH2 0x100 DUP1 DUP4 SLOAD DIV MUL DUP4 MSTORE SWAP2 PUSH1 0x20 ADD SWAP2 PUSH2 0xF1C JUMP JUMPDEST DUP3 ADD SWAP2 SWAP1 PUSH1 0x0 MSTORE PUSH1 0x20 PUSH1 0x0 KECCAK256 SWAP1 JUMPDEST DUP2 SLOAD DUP2 MSTORE SWAP1 PUSH1 0x1 ADD SWAP1 PUSH1 0x20 ADD DUP1 DUP4 GT PUSH2 0xEFF JUMPI DUP3 SWAP1 SUB PUSH1 0x1F AND DUP3 ADD SWAP2 JUMPDEST POP POP POP POP PUSH1 0x2 DUP4 ADD SLOAD PUSH1 0x3 DUP5 ADD SLOAD PUSH1 0x4 DUP6 ADD SLOAD PUSH1 0x5 DUP7 ADD SLOAD PUSH1 0x6 SWAP1 SWAP7 ADD SLOAD SWAP5 SWAP6 SWAP3 SWAP5 SWAP2 SWAP4 POP SWAP2 PUSH1 0xFF AND SWAP1 DUP8 JUMP JUMPDEST PUSH1 0x2 PUSH1 0x0 SLOAD SUB PUSH2 0xF9B JUMPI PUSH1 0x40 MLOAD PUSH3 0x461BCD PUSH1 0xE5 SHL DUP2 MSTORE PUSH1 0x20 PUSH1 0x4 DUP3 ADD MSTORE PUSH1 0x1F PUSH1 0x24 DUP3 ADD MSTORE PUSH32 0x5265656E7472616E637947756172643A207265656E7472616E742063616C6C00 PUSH1 0x44 DUP3 ADD MSTORE PUSH1 0x64 ADD PUSH2 0x285 JUMP JUMPDEST PUSH1 0x2 PUSH1 0x0 SSTORE JUMP JUMPDEST PUSH1 0x0 DUP2 DUP2 MSTORE PUSH1 0x1 PUSH1 0x20 MSTORE PUSH1 0x40 SWAP1 KECCAK256 PUSH2 0xFB9 DUP3 PUSH2 0x155D JUMP JUMPDEST PUSH1 0x0 DUP3 DUP2 MSTORE PUSH1 0x2 PUSH1 0x20 MSTORE PUSH1 0x40 DUP2 KECCAK256 PUSH1 0x3 DUP4 ADD SLOAD SWAP1 SWAP2 SWAP1 DUP2 JUMPDEST DUP4 SLOAD DUP2 LT DUP1 ISZERO PUSH2 0xFE1 JUMPI POP PUSH1 0x0 DUP3 GT JUMPDEST ISZERO PUSH2 0x1080 JUMPI PUSH1 0x0 DUP5 DUP3 DUP2 SLOAD DUP2 LT PUSH2 0xFFA JUMPI PUSH2 0xFFA PUSH2 0x1C2A JUMP JUMPDEST PUSH1 0x0 SWAP2 DUP3 MSTORE PUSH1 0x20 SWAP1 SWAP2 KECCAK256 PUSH1 0x4 SWAP1 SWAP2 MUL ADD PUSH1 0x3 DUP2 ADD SLOAD SWAP1 SWAP2 POP PUSH1 0xFF AND ISZERO PUSH2 0x1020 JUMPI POP PUSH2 0x106E JUMP JUMPDEST PUSH1 0x0 DUP4 DUP3 PUSH1 0x1 ADD SLOAD GT ISZERO PUSH2 0x1034 JUMPI DUP4 PUSH2 0x103A JUMP JUMPDEST DUP2 PUSH1 0x1 ADD SLOAD JUMPDEST SWAP1 POP PUSH2 0x105D PUSH2 0x1056 DUP4 PUSH1 0x2 ADD SLOAD DUP4 PUSH2 0x1763 SWAP1 SWAP2 SWAP1 PUSH4 0xFFFFFFFF AND JUMP JUMPDEST DUP7 SWAP1 PUSH2 0x176F JUMP JUMPDEST SWAP5 POP PUSH2 0x1069 DUP5 DUP3 PUSH2 0x177B JUMP JUMPDEST SWAP4 POP POP POP JUMPDEST DUP1 PUSH2 0x1078 DUP2 PUSH2 0x1CAC JUMP JUMPDEST SWAP2 POP POP PUSH2 0xFD1 JUMP JUMPDEST POP PUSH1 0x4 DUP5 ADD SLOAD DUP3 LT DUP1 ISZERO SWAP1 PUSH2 0x14FB JUMPI PUSH1 0x2 DUP6 ADD SLOAD PUSH1 0x3 DUP7 ADD SSTORE PUSH1 0x0 JUMPDEST PUSH1 0x7 DUP7 ADD SLOAD DUP2 LT ISZERO PUSH2 0x10F6 JUMPI PUSH1 0x0 DUP7 PUSH1 0x7 ADD DUP3 DUP2 SLOAD DUP2 LT PUSH2 0x10BF JUMPI PUSH2 0x10BF PUSH2 0x1C2A JUMP JUMPDEST PUSH1 0x0 SWAP2 DUP3 MSTORE PUSH1 0x20 DUP1 DUP4 KECCAK256 SWAP1 SWAP2 ADD SLOAD PUSH1 0x1 PUSH1 0x1 PUSH1 0xA0 SHL SUB AND DUP3 MSTORE PUSH1 0x8 DUP10 ADD SWAP1 MSTORE PUSH1 0x40 DUP2 KECCAK256 PUSH1 0x1 SWAP1 DUP2 ADD SWAP2 SWAP1 SWAP2 SSTORE SWAP2 SWAP1 SWAP2 ADD SWAP1 POP PUSH2 0x109C JUMP JUMPDEST POP PUSH2 0x1105 PUSH1 0x7 DUP7 ADD PUSH1 0x0 PUSH2 0x18ED JUMP JUMPDEST PUSH1 0x0 JUMPDEST DUP5 SLOAD DUP2 LT ISZERO PUSH2 0x14F5 JUMPI PUSH1 0x3 DUP7 ADD SLOAD ISZERO PUSH2 0x14F5 JUMPI PUSH1 0x0 DUP6 DUP3 DUP2 SLOAD DUP2 LT PUSH2 0x112F JUMPI PUSH2 0x112F PUSH2 0x1C2A JUMP JUMPDEST PUSH1 0x0 SWAP2 DUP3 MSTORE PUSH1 0x20 SWAP1 SWAP2 KECCAK256 PUSH1 0x4 SWAP1 SWAP2 MUL ADD PUSH1 0x3 DUP2 ADD SLOAD SWAP1 SWAP2 POP PUSH1 0xFF AND ISZERO PUSH2 0x1155 JUMPI POP PUSH2 0x14ED JUMP JUMPDEST PUSH1 0x0 DUP8 PUSH1 0x3 ADD SLOAD DUP3 PUSH1 0x1 ADD SLOAD GT ISZERO PUSH2 0x1171 JUMPI DUP8 PUSH1 0x3 ADD SLOAD PUSH2 0x1177 JUMP JUMPDEST DUP2 PUSH1 0x1 ADD SLOAD JUMPDEST SWAP1 POP PUSH1 0x0 PUSH2 0x1192 DUP4 PUSH1 0x2 ADD SLOAD DUP4 PUSH2 0x1763 SWAP1 SWAP2 SWAP1 PUSH4 0xFFFFFFFF AND JUMP JUMPDEST SWAP1 POP PUSH1 0x0 PUSH2 0x11BB DUP3 PUSH2 0x11B5 DUP7 PUSH1 0x2 ADD SLOAD DUP8 PUSH1 0x1 ADD SLOAD PUSH2 0x1763 SWAP1 SWAP2 SWAP1 PUSH4 0xFFFFFFFF AND JUMP JUMPDEST SWAP1 PUSH2 0x177B JUMP JUMPDEST SWAP1 POP DUP3 ISZERO PUSH2 0x1466 JUMPI DUP10 SLOAD PUSH1 0x40 MLOAD PUSH1 0x1 PUSH1 0x1 PUSH1 0xA0 SHL SUB SWAP1 SWAP2 AND SWAP1 DUP4 ISZERO PUSH2 0x8FC MUL SWAP1 DUP5 SWAP1 PUSH1 0x0 DUP2 DUP2 DUP2 DUP6 DUP9 DUP9 CALL SWAP4 POP POP POP POP ISZERO DUP1 ISZERO PUSH2 0x11FC JUMPI RETURNDATASIZE PUSH1 0x0 DUP1 RETURNDATACOPY RETURNDATASIZE PUSH1 0x0 REVERT JUMPDEST POP PUSH1 0x3 DUP11 ADD SLOAD PUSH2 0x120C SWAP1 DUP5 PUSH2 0x177B JUMP JUMPDEST PUSH1 0x3 DUP1 DUP13 ADD SWAP2 SWAP1 SWAP2 SSTORE DUP5 ADD DUP1 SLOAD PUSH1 0xFF NOT AND PUSH1 0x1 OR SWAP1 SSTORE DUP4 SLOAD PUSH1 0x1 PUSH1 0x1 PUSH1 0xA0 SHL SUB AND PUSH1 0x0 SWAP1 DUP2 MSTORE PUSH1 0x8 DUP12 ADD PUSH1 0x20 MSTORE PUSH1 0x40 SWAP1 KECCAK256 PUSH1 0x2 ADD SLOAD PUSH1 0xFF AND PUSH2 0x1385 JUMPI DUP10 PUSH1 0x7 ADD DUP5 PUSH1 0x0 ADD PUSH1 0x0 SWAP1 SLOAD SWAP1 PUSH2 0x100 EXP SWAP1 DIV PUSH1 0x1 PUSH1 0x1 PUSH1 0xA0 SHL SUB AND SWAP1 DUP1 PUSH1 0x1 DUP2 SLOAD ADD DUP1 DUP3 SSTORE DUP1 SWAP2 POP POP PUSH1 0x1 SWAP1 SUB SWAP1 PUSH1 0x0 MSTORE PUSH1 0x20 PUSH1 0x0 KECCAK256 ADD PUSH1 0x0 SWAP1 SWAP2 SWAP1 SWAP2 SWAP1 SWAP2 PUSH2 0x100 EXP DUP2 SLOAD DUP2 PUSH1 0x1 PUSH1 0x1 PUSH1 0xA0 SHL SUB MUL NOT AND SWAP1 DUP4 PUSH1 0x1 PUSH1 0x1 PUSH1 0xA0 SHL SUB AND MUL OR SWAP1 SSTORE POP PUSH1 0x40 MLOAD DUP1 PUSH1 0x60 ADD PUSH1 0x40 MSTORE DUP1 DUP6 PUSH1 0x0 ADD PUSH1 0x0 SWAP1 SLOAD SWAP1 PUSH2 0x100 EXP SWAP1 DIV PUSH1 0x1 PUSH1 0x1 PUSH1 0xA0 SHL SUB AND PUSH1 0x1 PUSH1 0x1 PUSH1 0xA0 SHL SUB AND DUP2 MSTORE PUSH1 0x20 ADD DUP5 DUP2 MSTORE PUSH1 0x20 ADD PUSH1 0x1 ISZERO ISZERO DUP2 MSTORE POP DUP11 PUSH1 0x8 ADD PUSH1 0x0 DUP7 PUSH1 0x0 ADD PUSH1 0x0 SWAP1 SLOAD SWAP1 PUSH2 0x100 EXP SWAP1 DIV PUSH1 0x1 PUSH1 0x1 PUSH1 0xA0 SHL SUB AND PUSH1 0x1 PUSH1 0x1 PUSH1 0xA0 SHL SUB AND PUSH1 0x1 PUSH1 0x1 PUSH1 0xA0 SHL SUB AND DUP2 MSTORE PUSH1 0x20 ADD SWAP1 DUP2 MSTORE PUSH1 0x20 ADD PUSH1 0x0 KECCAK256 PUSH1 0x0 DUP3 ADD MLOAD DUP2 PUSH1 0x0 ADD PUSH1 0x0 PUSH2 0x100 EXP DUP2 SLOAD DUP2 PUSH1 0x1 PUSH1 0x1 PUSH1 0xA0 SHL SUB MUL NOT AND SWAP1 DUP4 PUSH1 0x1 PUSH1 0x1 PUSH1 0xA0 SHL SUB AND MUL OR SWAP1 SSTORE POP PUSH1 0x20 DUP3 ADD MLOAD DUP2 PUSH1 0x1 ADD SSTORE PUSH1 0x40 DUP3 ADD MLOAD DUP2 PUSH1 0x2 ADD PUSH1 0x0 PUSH2 0x100 EXP DUP2 SLOAD DUP2 PUSH1 0xFF MUL NOT AND SWAP1 DUP4 ISZERO ISZERO MUL OR SWAP1 SSTORE POP SWAP1 POP POP PUSH2 0x13CE JUMP JUMPDEST DUP4 SLOAD PUSH1 0x1 PUSH1 0x1 PUSH1 0xA0 SHL SUB AND PUSH1 0x0 SWAP1 DUP2 MSTORE PUSH1 0x8 DUP12 ADD PUSH1 0x20 MSTORE PUSH1 0x40 SWAP1 KECCAK256 PUSH1 0x1 ADD SLOAD PUSH2 0x13AE SWAP1 DUP5 PUSH2 0x176F JUMP JUMPDEST DUP5 SLOAD PUSH1 0x1 PUSH1 0x1 PUSH1 0xA0 SHL SUB AND PUSH1 0x0 SWAP1 DUP2 MSTORE PUSH1 0x8 DUP13 ADD PUSH1 0x20 MSTORE PUSH1 0x40 SWAP1 KECCAK256 PUSH1 0x1 ADD SSTORE JUMPDEST DUP4 SLOAD PUSH1 0x2 DUP6 ADD SLOAD PUSH1 0x40 MLOAD PUSH1 0x1 PUSH1 0x1 PUSH1 0xA0 SHL SUB SWAP1 SWAP3 AND SWAP2 DUP14 SWAP2 PUSH32 0x46D3C445B404E9DE2C80E1C0489CC92F23DFD5462CE7C6B3A1A54B3F0F70BCFC SWAP2 PUSH2 0x141A SWAP2 DUP9 DUP3 MSTORE PUSH1 0x20 DUP3 ADD MSTORE PUSH1 0x40 ADD SWAP1 JUMP JUMPDEST PUSH1 0x40 MLOAD DUP1 SWAP2 SUB SWAP1 LOG3 DUP4 SLOAD PUSH1 0x40 MLOAD DUP5 DUP2 MSTORE PUSH1 0x1 PUSH1 0x1 PUSH1 0xA0 SHL SUB SWAP1 SWAP2 AND SWAP1 DUP13 SWAP1 PUSH32 0x25AF9E0275ABBB4DE910D2062F5DCCA6D4C47F1313066083DD9D7077608A7A54 SWAP1 PUSH1 0x20 ADD PUSH1 0x40 MLOAD DUP1 SWAP2 SUB SWAP1 LOG3 JUMPDEST DUP1 ISZERO PUSH2 0x14E8 JUMPI DUP4 SLOAD PUSH1 0x40 MLOAD PUSH1 0x1 PUSH1 0x1 PUSH1 0xA0 SHL SUB SWAP1 SWAP2 AND SWAP1 DUP3 ISZERO PUSH2 0x8FC MUL SWAP1 DUP4 SWAP1 PUSH1 0x0 DUP2 DUP2 DUP2 DUP6 DUP9 DUP9 CALL SWAP4 POP POP POP POP ISZERO DUP1 ISZERO PUSH2 0x14A5 JUMPI RETURNDATASIZE PUSH1 0x0 DUP1 RETURNDATACOPY RETURNDATASIZE PUSH1 0x0 REVERT JUMPDEST POP DUP4 SLOAD PUSH1 0x40 MLOAD DUP3 DUP2 MSTORE PUSH1 0x1 PUSH1 0x1 PUSH1 0xA0 SHL SUB SWAP1 SWAP2 AND SWAP1 PUSH32 0xA171B6942063C6F2800CE40A780EDCE37BAA2B618571B11EEDD1E69E626E7D76 SWAP1 PUSH1 0x20 ADD PUSH1 0x40 MLOAD DUP1 SWAP2 SUB SWAP1 LOG2 JUMPDEST POP POP POP POP JUMPDEST PUSH1 0x1 ADD PUSH2 0x1108 JUMP JUMPDEST POP PUSH2 0x1504 JUMP JUMPDEST PUSH2 0x1504 DUP7 PUSH2 0x1787 JUMP JUMPDEST PUSH1 0x40 DUP1 MLOAD DUP3 ISZERO ISZERO DUP2 MSTORE TIMESTAMP PUSH1 0x20 DUP3 ADD MSTORE DUP8 SWAP2 PUSH32 0x4D7A5E450395FB8FB6B67C4751F80F057CD5A74550929306EFF2CAC7F0ECC188 SWAP2 ADD PUSH1 0x40 MLOAD DUP1 SWAP2 SUB SWAP1 LOG2 POP POP POP POP POP POP JUMP JUMPDEST PUSH1 0x0 PUSH2 0x1554 DUP3 DUP5 PUSH2 0x1E43 JUMP JUMPDEST SWAP1 POP JUMPDEST SWAP3 SWAP2 POP POP JUMP JUMPDEST PUSH1 0x0 DUP2 DUP2 MSTORE PUSH1 0x2 PUSH1 0x20 MSTORE PUSH1 0x40 DUP2 KECCAK256 SWAP1 JUMPDEST DUP2 SLOAD DUP2 LT ISZERO PUSH2 0x175E JUMPI PUSH1 0x0 PUSH2 0x1583 DUP3 PUSH1 0x1 PUSH2 0x1E0B JUMP JUMPDEST SWAP1 POP JUMPDEST DUP3 SLOAD DUP2 LT ISZERO PUSH2 0x1755 JUMPI DUP3 DUP2 DUP2 SLOAD DUP2 LT PUSH2 0x15A1 JUMPI PUSH2 0x15A1 PUSH2 0x1C2A JUMP JUMPDEST SWAP1 PUSH1 0x0 MSTORE PUSH1 0x20 PUSH1 0x0 KECCAK256 SWAP1 PUSH1 0x4 MUL ADD PUSH1 0x2 ADD SLOAD DUP4 DUP4 DUP2 SLOAD DUP2 LT PUSH2 0x15C5 JUMPI PUSH2 0x15C5 PUSH2 0x1C2A JUMP JUMPDEST SWAP1 PUSH1 0x0 MSTORE PUSH1 0x20 PUSH1 0x0 KECCAK256 SWAP1 PUSH1 0x4 MUL ADD PUSH1 0x2 ADD SLOAD LT ISZERO PUSH2 0x174D JUMPI PUSH1 0x0 DUP4 DUP4 DUP2 SLOAD DUP2 LT PUSH2 0x15F1 JUMPI PUSH2 0x15F1 PUSH2 0x1C2A JUMP JUMPDEST PUSH1 0x0 SWAP2 DUP3 MSTORE PUSH1 0x20 SWAP2 DUP3 SWAP1 KECCAK256 PUSH1 0x40 DUP1 MLOAD PUSH1 0x80 DUP2 ADD DUP3 MSTORE PUSH1 0x4 SWAP1 SWAP4 MUL SWAP1 SWAP2 ADD DUP1 SLOAD PUSH1 0x1 PUSH1 0x1 PUSH1 0xA0 SHL SUB AND DUP4 MSTORE PUSH1 0x1 DUP2 ADD SLOAD SWAP4 DUP4 ADD SWAP4 SWAP1 SWAP4 MSTORE PUSH1 0x2 DUP4 ADD SLOAD SWAP1 DUP3 ADD MSTORE PUSH1 0x3 SWAP1 SWAP2 ADD SLOAD PUSH1 0xFF AND ISZERO ISZERO PUSH1 0x60 DUP3 ADD MSTORE DUP5 SLOAD SWAP1 SWAP2 POP DUP5 SWAP1 DUP4 SWAP1 DUP2 LT PUSH2 0x1657 JUMPI PUSH2 0x1657 PUSH2 0x1C2A JUMP JUMPDEST SWAP1 PUSH1 0x0 MSTORE PUSH1 0x20 PUSH1 0x0 KECCAK256 SWAP1 PUSH1 0x4 MUL ADD DUP5 DUP5 DUP2 SLOAD DUP2 LT PUSH2 0x1677 JUMPI PUSH2 0x1677 PUSH2 0x1C2A JUMP JUMPDEST PUSH1 0x0 SWAP2 DUP3 MSTORE PUSH1 0x20 SWAP1 SWAP2 KECCAK256 DUP3 SLOAD PUSH1 0x4 SWAP1 SWAP3 MUL ADD DUP1 SLOAD PUSH1 0x1 PUSH1 0x1 PUSH1 0xA0 SHL SUB NOT AND PUSH1 0x1 PUSH1 0x1 PUSH1 0xA0 SHL SUB SWAP1 SWAP3 AND SWAP2 SWAP1 SWAP2 OR DUP2 SSTORE PUSH1 0x1 DUP1 DUP4 ADD SLOAD SWAP1 DUP3 ADD SSTORE PUSH1 0x2 DUP1 DUP4 ADD SLOAD SWAP1 DUP3 ADD SSTORE PUSH1 0x3 SWAP2 DUP3 ADD SLOAD SWAP2 ADD DUP1 SLOAD PUSH1 0xFF SWAP1 SWAP3 AND ISZERO ISZERO PUSH1 0xFF NOT SWAP1 SWAP3 AND SWAP2 SWAP1 SWAP2 OR SWAP1 SSTORE DUP4 SLOAD DUP2 SWAP1 DUP6 SWAP1 DUP5 SWAP1 DUP2 LT PUSH2 0x16ED JUMPI PUSH2 0x16ED PUSH2 0x1C2A JUMP JUMPDEST PUSH1 0x0 SWAP2 DUP3 MSTORE PUSH1 0x20 SWAP2 DUP3 SWAP1 KECCAK256 DUP4 MLOAD PUSH1 0x4 SWAP3 SWAP1 SWAP3 MUL ADD DUP1 SLOAD PUSH1 0x1 PUSH1 0x1 PUSH1 0xA0 SHL SUB NOT AND PUSH1 0x1 PUSH1 0x1 PUSH1 0xA0 SHL SUB SWAP1 SWAP3 AND SWAP2 SWAP1 SWAP2 OR DUP2 SSTORE SWAP1 DUP3 ADD MLOAD PUSH1 0x1 DUP3 ADD SSTORE PUSH1 0x40 DUP3 ADD MLOAD PUSH1 0x2 DUP3 ADD SSTORE PUSH1 0x60 SWAP1 SWAP2 ADD MLOAD PUSH1 0x3 SWAP1 SWAP2 ADD DUP1 SLOAD PUSH1 0xFF NOT AND SWAP2 ISZERO ISZERO SWAP2 SWAP1 SWAP2 OR SWAP1 SSTORE POP JUMPDEST PUSH1 0x1 ADD PUSH2 0x1586 JUMP JUMPDEST POP PUSH1 0x1 ADD PUSH2 0x156D JUMP JUMPDEST POP POP POP JUMP JUMPDEST PUSH1 0x0 PUSH2 0x1554 DUP3 DUP5 PUSH2 0x1E65 JUMP JUMPDEST PUSH1 0x0 PUSH2 0x1554 DUP3 DUP5 PUSH2 0x1E0B JUMP JUMPDEST PUSH1 0x0 PUSH2 0x1554 DUP3 DUP5 PUSH2 0x1E7C JUMP JUMPDEST PUSH1 0x0 DUP2 DUP2 MSTORE PUSH1 0x2 PUSH1 0x20 MSTORE PUSH1 0x40 DUP2 KECCAK256 SWAP1 JUMPDEST DUP2 SLOAD DUP2 LT ISZERO PUSH2 0x175E JUMPI DUP2 DUP2 DUP2 SLOAD DUP2 LT PUSH2 0x17B2 JUMPI PUSH2 0x17B2 PUSH2 0x1C2A JUMP JUMPDEST PUSH1 0x0 SWAP2 DUP3 MSTORE PUSH1 0x20 SWAP1 SWAP2 KECCAK256 PUSH1 0x3 PUSH1 0x4 SWAP1 SWAP3 MUL ADD ADD SLOAD PUSH1 0xFF AND PUSH2 0x18E5 JUMPI PUSH1 0x0 PUSH2 0x1828 DUP4 DUP4 DUP2 SLOAD DUP2 LT PUSH2 0x17E4 JUMPI PUSH2 0x17E4 PUSH2 0x1C2A JUMP JUMPDEST SWAP1 PUSH1 0x0 MSTORE PUSH1 0x20 PUSH1 0x0 KECCAK256 SWAP1 PUSH1 0x4 MUL ADD PUSH1 0x2 ADD SLOAD DUP5 DUP5 DUP2 SLOAD DUP2 LT PUSH2 0x1808 JUMPI PUSH2 0x1808 PUSH2 0x1C2A JUMP JUMPDEST SWAP1 PUSH1 0x0 MSTORE PUSH1 0x20 PUSH1 0x0 KECCAK256 SWAP1 PUSH1 0x4 MUL ADD PUSH1 0x1 ADD SLOAD PUSH2 0x1763 SWAP1 SWAP2 SWAP1 PUSH4 0xFFFFFFFF AND JUMP JUMPDEST SWAP1 POP DUP3 DUP3 DUP2 SLOAD DUP2 LT PUSH2 0x183C JUMPI PUSH2 0x183C PUSH2 0x1C2A JUMP JUMPDEST PUSH1 0x0 SWAP2 DUP3 MSTORE PUSH1 0x20 DUP3 KECCAK256 PUSH1 0x4 SWAP1 SWAP2 MUL ADD SLOAD PUSH1 0x40 MLOAD PUSH1 0x1 PUSH1 0x1 PUSH1 0xA0 SHL SUB SWAP1 SWAP2 AND SWAP2 DUP4 ISZERO PUSH2 0x8FC MUL SWAP2 DUP5 SWAP2 DUP2 DUP2 DUP2 DUP6 DUP9 DUP9 CALL SWAP4 POP POP POP POP ISZERO DUP1 ISZERO PUSH2 0x1881 JUMPI RETURNDATASIZE PUSH1 0x0 DUP1 RETURNDATACOPY RETURNDATASIZE PUSH1 0x0 REVERT JUMPDEST POP DUP3 DUP3 DUP2 SLOAD DUP2 LT PUSH2 0x1894 JUMPI PUSH2 0x1894 PUSH2 0x1C2A JUMP JUMPDEST PUSH1 0x0 SWAP2 DUP3 MSTORE PUSH1 0x20 SWAP2 DUP3 SWAP1 KECCAK256 PUSH1 0x4 SWAP1 SWAP2 MUL ADD SLOAD PUSH1 0x40 MLOAD DUP4 DUP2 MSTORE PUSH1 0x1 PUSH1 0x1 PUSH1 0xA0 SHL SUB SWAP1 SWAP2 AND SWAP2 PUSH32 0xA171B6942063C6F2800CE40A780EDCE37BAA2B618571B11EEDD1E69E626E7D76 SWAP2 ADD PUSH1 0x40 MLOAD DUP1 SWAP2 SUB SWAP1 LOG2 POP JUMPDEST PUSH1 0x1 ADD PUSH2 0x1797 JUMP JUMPDEST POP DUP1 SLOAD PUSH1 0x0 DUP3 SSTORE SWAP1 PUSH1 0x0 MSTORE PUSH1 0x20 PUSH1 0x0 KECCAK256 SWAP1 DUP2 ADD SWAP1 PUSH2 0x5E1 SWAP2 SWAP1 JUMPDEST DUP1 DUP3 GT ISZERO PUSH2 0x191B JUMPI PUSH1 0x0 DUP2 SSTORE PUSH1 0x1 ADD PUSH2 0x1907 JUMP JUMPDEST POP SWAP1 JUMP JUMPDEST PUSH1 0x0 PUSH1 0x20 DUP3 DUP5 SUB SLT ISZERO PUSH2 0x1931 JUMPI PUSH1 0x0 DUP1 REVERT JUMPDEST POP CALLDATALOAD SWAP2 SWAP1 POP JUMP JUMPDEST PUSH1 0x0 DUP2 MLOAD DUP1 DUP5 MSTORE PUSH1 0x20 DUP5 ADD SWAP4 POP PUSH1 0x20 DUP4 ADD PUSH1 0x0 JUMPDEST DUP3 DUP2 LT ISZERO PUSH2 0x1973 JUMPI DUP2 MLOAD PUSH1 0x1 PUSH1 0x1 PUSH1 0xA0 SHL SUB AND DUP7 MSTORE PUSH1 0x20 SWAP6 DUP7 ADD SWAP6 SWAP1 SWAP2 ADD SWAP1 PUSH1 0x1 ADD PUSH2 0x194C JUMP JUMPDEST POP SWAP4 SWAP5 SWAP4 POP POP POP POP JUMP JUMPDEST PUSH1 0x0 DUP2 MLOAD DUP1 DUP5 MSTORE PUSH1 0x20 DUP5 ADD SWAP4 POP PUSH1 0x20 DUP4 ADD PUSH1 0x0 JUMPDEST DUP3 DUP2 LT ISZERO PUSH2 0x1973 JUMPI DUP2 MLOAD DUP7 MSTORE PUSH1 0x20 SWAP6 DUP7 ADD SWAP6 SWAP1 SWAP2 ADD SWAP1 PUSH1 0x1 ADD PUSH2 0x1991 JUMP JUMPDEST PUSH1 0x80 DUP2 MSTORE PUSH1 0x0 PUSH2 0x19C2 PUSH1 0x80 DUP4 ADD DUP8 PUSH2 0x1938 JUMP JUMPDEST DUP3 DUP2 SUB PUSH1 0x20 DUP5 ADD MSTORE PUSH2 0x19D4 DUP2 DUP8 PUSH2 0x197D JUMP JUMPDEST SWAP1 POP DUP3 DUP2 SUB PUSH1 0x40 DUP5 ADD MSTORE PUSH2 0x19E8 DUP2 DUP7 PUSH2 0x197D JUMP JUMPDEST DUP4 DUP2 SUB PUSH1 0x60 DUP6 ADD MSTORE DUP5 MLOAD DUP1 DUP3 MSTORE PUSH1 0x20 DUP1 DUP8 ADD SWAP4 POP SWAP1 SWAP2 ADD SWAP1 PUSH1 0x0 JUMPDEST DUP2 DUP2 LT ISZERO PUSH2 0x1A23 JUMPI DUP4 MLOAD ISZERO ISZERO DUP4 MSTORE PUSH1 0x20 SWAP4 DUP5 ADD SWAP4 SWAP1 SWAP3 ADD SWAP2 PUSH1 0x1 ADD PUSH2 0x1A03 JUMP JUMPDEST POP SWAP1 SWAP9 SWAP8 POP POP POP POP POP POP POP POP JUMP JUMPDEST PUSH4 0x4E487B71 PUSH1 0xE0 SHL PUSH1 0x0 MSTORE PUSH1 0x41 PUSH1 0x4 MSTORE PUSH1 0x24 PUSH1 0x0 REVERT JUMPDEST PUSH1 0x0 DUP1 PUSH1 0x0 DUP1 PUSH1 0x0 PUSH1 0xA0 DUP7 DUP9 SUB SLT ISZERO PUSH2 0x1A5F JUMPI PUSH1 0x0 DUP1 REVERT JUMPDEST DUP6 CALLDATALOAD PUSH1 0x1 PUSH1 0x1 PUSH1 0x40 SHL SUB DUP2 GT ISZERO PUSH2 0x1A75 JUMPI PUSH1 0x0 DUP1 REVERT JUMPDEST DUP7 ADD PUSH1 0x1F DUP2 ADD DUP9 SGT PUSH2 0x1A86 JUMPI PUSH1 0x0 DUP1 REVERT JUMPDEST DUP1 CALLDATALOAD PUSH1 0x1 PUSH1 0x1 PUSH1 0x40 SHL SUB DUP2 GT ISZERO PUSH2 0x1A9F JUMPI PUSH2 0x1A9F PUSH2 0x1A31 JUMP JUMPDEST PUSH1 0x40 MLOAD PUSH1 0x1F DUP3 ADD PUSH1 0x1F NOT SWAP1 DUP2 AND PUSH1 0x3F ADD AND DUP2 ADD PUSH1 0x1 PUSH1 0x1 PUSH1 0x40 SHL SUB DUP2 GT DUP3 DUP3 LT OR ISZERO PUSH2 0x1ACD JUMPI PUSH2 0x1ACD PUSH2 0x1A31 JUMP JUMPDEST PUSH1 0x40 MSTORE DUP2 DUP2 MSTORE DUP3 DUP3 ADD PUSH1 0x20 ADD DUP11 LT ISZERO PUSH2 0x1AE5 JUMPI PUSH1 0x0 DUP1 REVERT JUMPDEST DUP2 PUSH1 0x20 DUP5 ADD PUSH1 0x20 DUP4 ADD CALLDATACOPY PUSH1 0x0 PUSH1 0x20 SWAP3 DUP3 ADD DUP4 ADD MSTORE SWAP10 SWAP1 DUP9 ADD CALLDATALOAD SWAP9 POP PUSH1 0x40 DUP9 ADD CALLDATALOAD SWAP8 PUSH1 0x60 DUP2 ADD CALLDATALOAD SWAP8 POP PUSH1 0x80 ADD CALLDATALOAD SWAP6 POP SWAP4 POP POP POP POP JUMP JUMPDEST PUSH1 0x0 DUP1 PUSH1 0x40 DUP4 DUP6 SUB SLT ISZERO PUSH2 0x1B2D JUMPI PUSH1 0x0 DUP1 REVERT JUMPDEST POP POP DUP1 CALLDATALOAD SWAP3 PUSH1 0x20 SWAP1 SWAP2 ADD CALLDATALOAD SWAP2 POP JUMP JUMPDEST PUSH1 0x40 DUP2 MSTORE PUSH1 0x0 PUSH2 0x1B4F PUSH1 0x40 DUP4 ADD DUP6 PUSH2 0x1938 JUMP JUMPDEST DUP3 DUP2 SUB PUSH1 0x20 DUP5 ADD MSTORE PUSH2 0x1B61 DUP2 DUP6 PUSH2 0x197D JUMP JUMPDEST SWAP6 SWAP5 POP POP POP POP POP JUMP JUMPDEST PUSH1 0x0 DUP2 MLOAD DUP1 DUP5 MSTORE PUSH1 0x0 JUMPDEST DUP2 DUP2 LT ISZERO PUSH2 0x1B90 JUMPI PUSH1 0x20 DUP2 DUP6 ADD DUP2 ADD MLOAD DUP7 DUP4 ADD DUP3 ADD MSTORE ADD PUSH2 0x1B74 JUMP JUMPDEST POP PUSH1 0x0 PUSH1 0x20 DUP3 DUP7 ADD ADD MSTORE PUSH1 0x20 PUSH1 0x1F NOT PUSH1 0x1F DUP4 ADD AND DUP6 ADD ADD SWAP2 POP POP SWAP3 SWAP2 POP POP JUMP JUMPDEST PUSH1 0x1 PUSH1 0x1 PUSH1 0xA0 SHL SUB DUP9 AND DUP2 MSTORE PUSH1 0xE0 PUSH1 0x20 DUP3 ADD DUP2 SWAP1 MSTORE PUSH1 0x0 SWAP1 PUSH2 0x1BD4 SWAP1 DUP4 ADD DUP10 PUSH2 0x1B6A JUMP JUMPDEST PUSH1 0x40 DUP4 ADD SWAP8 SWAP1 SWAP8 MSTORE POP PUSH1 0x60 DUP2 ADD SWAP5 SWAP1 SWAP5 MSTORE PUSH1 0x80 DUP5 ADD SWAP3 SWAP1 SWAP3 MSTORE ISZERO ISZERO PUSH1 0xA0 DUP4 ADD MSTORE PUSH1 0xC0 SWAP1 SWAP2 ADD MSTORE SWAP3 SWAP2 POP POP JUMP JUMPDEST PUSH1 0x20 DUP1 DUP3 MSTORE PUSH1 0x10 SWAP1 DUP3 ADD MSTORE PUSH16 0x125B9D985B1A5908185CDCD95D081251 PUSH1 0x82 SHL PUSH1 0x40 DUP3 ADD MSTORE PUSH1 0x60 ADD SWAP1 JUMP JUMPDEST PUSH4 0x4E487B71 PUSH1 0xE0 SHL PUSH1 0x0 MSTORE PUSH1 0x32 PUSH1 0x4 MSTORE PUSH1 0x24 PUSH1 0x0 REVERT JUMPDEST PUSH1 0x20 DUP1 DUP3 MSTORE PUSH1 0xC SWAP1 DUP3 ADD MSTORE PUSH12 0x155B985D5D1A1BDC9A5E9959 PUSH1 0xA2 SHL PUSH1 0x40 DUP3 ADD MSTORE PUSH1 0x60 ADD SWAP1 JUMP JUMPDEST PUSH1 0x20 DUP1 DUP3 MSTORE PUSH1 0x16 SWAP1 DUP3 ADD MSTORE PUSH22 0x109A59191A5B99C8185B1C9958591E4818DB1BDCD959 PUSH1 0x52 SHL PUSH1 0x40 DUP3 ADD MSTORE PUSH1 0x60 ADD SWAP1 JUMP JUMPDEST PUSH4 0x4E487B71 PUSH1 0xE0 SHL PUSH1 0x0 MSTORE PUSH1 0x11 PUSH1 0x4 MSTORE PUSH1 0x24 PUSH1 0x0 REVERT JUMPDEST PUSH1 0x0 PUSH1 0x1 DUP3 ADD PUSH2 0x1CBE JUMPI PUSH2 0x1CBE PUSH2 0x1C96 JUMP JUMPDEST POP PUSH1 0x1 ADD SWAP1 JUMP JUMPDEST PUSH1 0x1 DUP2 DUP2 SHR SWAP1 DUP3 AND DUP1 PUSH2 0x1CD9 JUMPI PUSH1 0x7F DUP3 AND SWAP2 POP JUMPDEST PUSH1 0x20 DUP3 LT DUP2 SUB PUSH2 0x1CF9 JUMPI PUSH4 0x4E487B71 PUSH1 0xE0 SHL PUSH1 0x0 MSTORE PUSH1 0x22 PUSH1 0x4 MSTORE PUSH1 0x24 PUSH1 0x0 REVERT JUMPDEST POP SWAP2 SWAP1 POP JUMP JUMPDEST PUSH1 0x1F DUP3 GT ISZERO PUSH2 0x175E JUMPI DUP1 PUSH1 0x0 MSTORE PUSH1 0x20 PUSH1 0x0 KECCAK256 PUSH1 0x1F DUP5 ADD PUSH1 0x5 SHR DUP2 ADD PUSH1 0x20 DUP6 LT ISZERO PUSH2 0x1D26 JUMPI POP DUP1 JUMPDEST PUSH1 0x1F DUP5 ADD PUSH1 0x5 SHR DUP3 ADD SWAP2 POP JUMPDEST DUP2 DUP2 LT ISZERO PUSH2 0x1D46 JUMPI PUSH1 0x0 DUP2 SSTORE PUSH1 0x1 ADD PUSH2 0x1D32 JUMP JUMPDEST POP POP POP POP POP JUMP JUMPDEST DUP2 MLOAD PUSH1 0x1 PUSH1 0x1 PUSH1 0x40 SHL SUB DUP2 GT ISZERO PUSH2 0x1D66 JUMPI PUSH2 0x1D66 PUSH2 0x1A31 JUMP JUMPDEST PUSH2 0x1D7A DUP2 PUSH2 0x1D74 DUP5 SLOAD PUSH2 0x1CC5 JUMP JUMPDEST DUP5 PUSH2 0x1CFF JUMP JUMPDEST PUSH1 0x20 PUSH1 0x1F DUP3 GT PUSH1 0x1 DUP2 EQ PUSH2 0x1DAE JUMPI PUSH1 0x0 DUP4 ISZERO PUSH2 0x1D96 JUMPI POP DUP5 DUP3 ADD MLOAD JUMPDEST PUSH1 0x0 NOT PUSH1 0x3 DUP6 SWAP1 SHL SHR NOT AND PUSH1 0x1 DUP5 SWAP1 SHL OR DUP5 SSTORE PUSH2 0x1D46 JUMP JUMPDEST PUSH1 0x0 DUP5 DUP2 MSTORE PUSH1 0x20 DUP2 KECCAK256 PUSH1 0x1F NOT DUP6 AND SWAP2 JUMPDEST DUP3 DUP2 LT ISZERO PUSH2 0x1DDE JUMPI DUP8 DUP6 ADD MLOAD DUP3 SSTORE PUSH1 0x20 SWAP5 DUP6 ADD SWAP5 PUSH1 0x1 SWAP1 SWAP3 ADD SWAP2 ADD PUSH2 0x1DBE JUMP JUMPDEST POP DUP5 DUP3 LT ISZERO PUSH2 0x1DFC JUMPI DUP7 DUP5 ADD MLOAD PUSH1 0x0 NOT PUSH1 0x3 DUP8 SWAP1 SHL PUSH1 0xF8 AND SHR NOT AND DUP2 SSTORE JUMPDEST POP POP POP POP PUSH1 0x1 SWAP1 DUP2 SHL ADD SWAP1 SSTORE POP JUMP JUMPDEST DUP1 DUP3 ADD DUP1 DUP3 GT ISZERO PUSH2 0x1557 JUMPI PUSH2 0x1557 PUSH2 0x1C96 JUMP JUMPDEST PUSH1 0x60 DUP2 MSTORE PUSH1 0x0 PUSH2 0x1E31 PUSH1 0x60 DUP4 ADD DUP7 PUSH2 0x1B6A JUMP JUMPDEST PUSH1 0x20 DUP4 ADD SWAP5 SWAP1 SWAP5 MSTORE POP PUSH1 0x40 ADD MSTORE SWAP2 SWAP1 POP JUMP JUMPDEST PUSH1 0x0 DUP3 PUSH2 0x1E60 JUMPI PUSH4 0x4E487B71 PUSH1 0xE0 SHL PUSH1 0x0 MSTORE PUSH1 0x12 PUSH1 0x4 MSTORE PUSH1 0x24 PUSH1 0x0 REVERT JUMPDEST POP DIV SWAP1 JUMP JUMPDEST DUP1 DUP3 MUL DUP2 ISZERO DUP3 DUP3 DIV DUP5 EQ OR PUSH2 0x1557 JUMPI PUSH2 0x1557 PUSH2 0x1C96 JUMP JUMPDEST DUP2 DUP2 SUB DUP2 DUP2 GT ISZERO PUSH2 0x1557 JUMPI PUSH2 0x1557 PUSH2 0x1C96 JUMP INVALID LOG2 PUSH5 0x6970667358 0x22 SLT KECCAK256 0xBE PUSH28 0x34FF116E59147E9F73FA4041F7918791D42501B74360E5A0F1E0BE57 0xB9 PUSH30 0x64736F6C634300081D003300000000000000000000000000000000000000 "
				},
				"gasEstimates": {
					"creation": {
						"codeDepositCost": "1575400",
						"executionCost": "23758",
						"totalCost": "1599158"
					},
					"external": {
						"assetBids(uint256,uint256)": "11149",
						"assetCount()": "2405",
						"assets(uint256)": "infinite",
						"createAssetOffering(string,uint256,uint256,uint256,uint256)": "infinite",
						"endBidding(uint256)": "infinite",
						"executeBidding(uint256)": "infinite",
						"getAssetBasicDetails(uint256)": "infinite",
						"getAssetBids(uint256)": "infinite",
						"getAssetOwners(uint256)": "infinite",
						"getLatestAssetCount()": "2326",
						"placeBid(uint256,uint256)": "infinite"
					},
					"internal": {
						"_processBids(uint256)": "infinite",
						"_refundAllBids(uint256)": "infinite",
						"_sortBids(uint256)": "infinite"
					}
				},
				"methodIdentifiers": {
					"assetBids(uint256,uint256)": "a3d5f1e5",
					"assetCount()": "eafe7a74",
					"assets(uint256)": "cf35bdd0",
					"createAssetOffering(string,uint256,uint256,uint256,uint256)": "503e0578",
					"endBidding(uint256)": "093755ad",
					"executeBidding(uint256)": "b468e0b0",
					"getAssetBasicDetails(uint256)": "b18cc358",
					"getAssetBids(uint256)": "0392cc45",
					"getAssetOwners(uint256)": "686735c5",
					"getLatestAssetCount()": "47582610",
					"placeBid(uint256,uint256)": "57c90de5"
				}
			},
			"storageLayout": {
				"storage": [
					{
						"astId": 10,
						"contract": "initial-offering.sol:LuxuryAssetOffering",
						"label": "_status",
						"offset": 0,
						"slot": "0",
						"type": "t_uint256"
					},
					{
						"astId": 429,
						"contract": "initial-offering.sol:LuxuryAssetOffering",
						"label": "assets",
						"offset": 0,
						"slot": "1",
						"type": "t_mapping(t_uint256,t_struct(Asset)415_storage)"
					},
					{
						"astId": 435,
						"contract": "initial-offering.sol:LuxuryAssetOffering",
						"label": "assetBids",
						"offset": 0,
						"slot": "2",
						"type": "t_mapping(t_uint256,t_array(t_struct(Bid)424_storage)dyn_storage)"
					},
					{
						"astId": 437,
						"contract": "initial-offering.sol:LuxuryAssetOffering",
						"label": "assetCount",
						"offset": 0,
						"slot": "3",
						"type": "t_uint256"
					}
				],
				"types": {
					"t_address": {
						"encoding": "inplace",
						"label": "address",
						"numberOfBytes": "20"
					},
					"t_array(t_address)dyn_storage": {
						"base": "t_address",
						"encoding": "dynamic_array",
						"label": "address[]",
						"numberOfBytes": "32"
					},
					"t_array(t_struct(Bid)424_storage)dyn_storage": {
						"base": "t_struct(Bid)424_storage",
						"encoding": "dynamic_array",
						"label": "struct LuxuryAssetOffering.Bid[]",
						"numberOfBytes": "32"
					},
					"t_bool": {
						"encoding": "inplace",
						"label": "bool",
						"numberOfBytes": "1"
					},
					"t_mapping(t_address,t_struct(AssetOwner)392_storage)": {
						"encoding": "mapping",
						"key": "t_address",
						"label": "mapping(address => struct LuxuryAssetOffering.AssetOwner)",
						"numberOfBytes": "32",
						"value": "t_struct(AssetOwner)392_storage"
					},
					"t_mapping(t_uint256,t_array(t_struct(Bid)424_storage)dyn_storage)": {
						"encoding": "mapping",
						"key": "t_uint256",
						"label": "mapping(uint256 => struct LuxuryAssetOffering.Bid[])",
						"numberOfBytes": "32",
						"value": "t_array(t_struct(Bid)424_storage)dyn_storage"
					},
					"t_mapping(t_uint256,t_struct(Asset)415_storage)": {
						"encoding": "mapping",
						"key": "t_uint256",
						"label": "mapping(uint256 => struct LuxuryAssetOffering.Asset)",
						"numberOfBytes": "32",
						"value": "t_struct(Asset)415_storage"
					},
					"t_string_storage": {
						"encoding": "bytes",
						"label": "string",
						"numberOfBytes": "32"
					},
					"t_struct(Asset)415_storage": {
						"encoding": "inplace",
						"label": "struct LuxuryAssetOffering.Asset",
						"members": [
							{
								"astId": 394,
								"contract": "initial-offering.sol:LuxuryAssetOffering",
								"label": "originalOwner",
								"offset": 0,
								"slot": "0",
								"type": "t_address"
							},
							{
								"astId": 396,
								"contract": "initial-offering.sol:LuxuryAssetOffering",
								"label": "name",
								"offset": 0,
								"slot": "1",
								"type": "t_string_storage"
							},
							{
								"astId": 398,
								"contract": "initial-offering.sol:LuxuryAssetOffering",
								"label": "totalShares",
								"offset": 0,
								"slot": "2",
								"type": "t_uint256"
							},
							{
								"astId": 400,
								"contract": "initial-offering.sol:LuxuryAssetOffering",
								"label": "sharesRemaining",
								"offset": 0,
								"slot": "3",
								"type": "t_uint256"
							},
							{
								"astId": 402,
								"contract": "initial-offering.sol:LuxuryAssetOffering",
								"label": "minimumTotalPrice",
								"offset": 0,
								"slot": "4",
								"type": "t_uint256"
							},
							{
								"astId": 404,
								"contract": "initial-offering.sol:LuxuryAssetOffering",
								"label": "biddingClosed",
								"offset": 0,
								"slot": "5",
								"type": "t_bool"
							},
							{
								"astId": 406,
								"contract": "initial-offering.sol:LuxuryAssetOffering",
								"label": "biddingEndTime",
								"offset": 0,
								"slot": "6",
								"type": "t_uint256"
							},
							{
								"astId": 409,
								"contract": "initial-offering.sol:LuxuryAssetOffering",
								"label": "ownerAddresses",
								"offset": 0,
								"slot": "7",
								"type": "t_array(t_address)dyn_storage"
							},
							{
								"astId": 414,
								"contract": "initial-offering.sol:LuxuryAssetOffering",
								"label": "owners",
								"offset": 0,
								"slot": "8",
								"type": "t_mapping(t_address,t_struct(AssetOwner)392_storage)"
							}
						],
						"numberOfBytes": "288"
					},
					"t_struct(AssetOwner)392_storage": {
						"encoding": "inplace",
						"label": "struct LuxuryAssetOffering.AssetOwner",
						"members": [
							{
								"astId": 387,
								"contract": "initial-offering.sol:LuxuryAssetOffering",
								"label": "ownerAddress",
								"offset": 0,
								"slot": "0",
								"type": "t_address"
							},
							{
								"astId": 389,
								"contract": "initial-offering.sol:LuxuryAssetOffering",
								"label": "shares",
								"offset": 0,
								"slot": "1",
								"type": "t_uint256"
							},
							{
								"astId": 391,
								"contract": "initial-offering.sol:LuxuryAssetOffering",
								"label": "exists",
								"offset": 0,
								"slot": "2",
								"type": "t_bool"
							}
						],
						"numberOfBytes": "96"
					},
					"t_struct(Bid)424_storage": {
						"encoding": "inplace",
						"label": "struct LuxuryAssetOffering.Bid",
						"members": [
							{
								"astId": 417,
								"contract": "initial-offering.sol:LuxuryAssetOffering",
								"label": "bidder",
								"offset": 0,
								"slot": "0",
								"type": "t_address"
							},
							{
								"astId": 419,
								"contract": "initial-offering.sol:LuxuryAssetOffering",
								"label": "shareAmount",
								"offset": 0,
								"slot": "1",
								"type": "t_uint256"
							},
							{
								"astId": 421,
								"contract": "initial-offering.sol:LuxuryAssetOffering",
								"label": "pricePerShare",
								"offset": 0,
								"slot": "2",
								"type": "t_uint256"
							},
							{
								"astId": 423,
								"contract": "initial-offering.sol:LuxuryAssetOffering",
								"label": "allocated",
								"offset": 0,
								"slot": "3",
								"type": "t_bool"
							}
						],
						"numberOfBytes": "128"
					},
					"t_uint256": {
						"encoding": "inplace",
						"label": "uint256",
						"numberOfBytes": "32"
					}
				}
			},
			"userdoc": {
				"kind": "user",
				"methods": {},
				"version": 1
			}
		}
	}
}