{
	"data": {
		"bytecode": {
			"linkReferences": {},
			"object": "6080604052348015600f57600080fd5b50604051612007380380612007833981016040819052602c916055565b6001600081905580546001600160a01b0319166001600160a01b03929092169190911790556083565b600060208284031215606657600080fd5b81516001600160a01b0381168114607c57600080fd5b9392505050565b611f75806100926000396000f3fe6080604052600436106100bd5760003560e01c80639da0e1dd1161006f5780639da0e1dd146101c8578063a137454a1461020f578063a9b07c261461022f578063b03053b614610253578063de74e57b14610273578063e7ebadfe14610300578063fb05da2e1461032057600080fd5b8063305a67a8146100c25780634bbfdffe146100e4578063686735c51461012157806383421efd1461014f57806387c35bc01461016f57806390e467a1146101955780639979ef45146101b5575b600080fd5b3480156100ce57600080fd5b506100e26100dd366004611adf565b61037a565b005b3480156100f057600080fd5b50600154610104906001600160a01b031681565b6040516001600160a01b0390911681526020015b60405180910390f35b34801561012d57600080fd5b5061014161013c366004611adf565b61048b565b604051610118929190611b6f565b34801561015b57600080fd5b506100e261016a366004611adf565b610624565b34801561017b57600080fd5b50610184610827565b604051610118959493929190611b9d565b3480156101a157600080fd5b506101416101b0366004611adf565b610aa8565b6100e26101c3366004611adf565b610c92565b3480156101d457600080fd5b506101e86101e3366004611c0a565b610e5d565b604080516001600160a01b0390941684526020840192909252151590820152606001610118565b34801561021b57600080fd5b506100e261022a366004611adf565b610eac565b34801561023b57600080fd5b5061024560045481565b604051908152602001610118565b34801561025f57600080fd5b506100e261026e366004611c2c565b611159565b34801561027f57600080fd5b506102cc61028e366004611adf565b6002602081905260009182526040909120805460018201549282015460039092015490926001600160a01b0316919060ff8082169161010090041685565b604080519586526001600160a01b03909416602086015292840191909152151560608301521515608082015260a001610118565b34801561030c57600080fd5b5061024561031b366004611c6d565b61134d565b34801561032c57600080fd5b506102cc61033b366004611adf565b6000908152600260208190526040909120805460018201549282015460039092015490936001600160a01b039093169260ff8083169261010090041690565b610382611481565b600081815260026020526040902060018101546001600160a01b031633146103ea5760405162461bcd60e51b815260206004820152601660248201527513db9b1e481cd95b1b195c8818d85b8818d85b98d95b60521b60448201526064015b60405180910390fd5b600381015460ff1661040e5760405162461bcd60e51b81526004016103e190611c9d565b6003810154610100900460ff16156104385760405162461bcd60e51b81526004016103e190611cc9565b60038101805461ffff1916610100179055610452826114da565b60405182907f411aee90354c51b1b04cd563fcab2617142a9d50da19232d888547c8a1b7fd8a90600090a2506104886001600055565b50565b600081815260056020526040902060020154606090819060ff166104c75750506040805160008082526020820190815281830190925292909150565b600083815260056020526040902060010154806001600160401b038111156104f1576104f1611cfc565b60405190808252806020026020018201604052801561051a578160200160208202803683370190505b509250806001600160401b0381111561053557610535611cfc565b60405190808252806020026020018201604052801561055e578160200160208202803683370190505b50915060005b8181101561061d57600085815260056020526040812060010180548390811061058f5761058f611d12565b9060005260206000200160009054906101000a90046001600160a01b03169050808583815181106105c2576105c2611d12565b6001600160a01b0392831660209182029290920181019190915260008881526005825260408082209385168252929091522054845185908490811061060957610609611d12565b602090810291909101015250600101610564565b5050915091565b60008181526005602052604090206002015460ff16156106825760405162461bcd60e51b8152602060048201526019602482015278105cdcd95d08185b1c9958591e481a5b9a5d1a585b1a5e9959603a1b60448201526064016103e1565b60015460405163686735c560e01b81526004810183905260009182916001600160a01b039091169063686735c590602401600060405180830381865afa1580156106d0573d6000803e3d6000fd5b505050506040513d6000823e601f3d908101601f191682016040526106f89190810190611de8565b9150915060005b825181101561080657600082828151811061071c5761071c611d12565b602002602001015111156107fe5781818151811061073c5761073c611d12565b602002602001015160056000868152602001908152602001600020600001600085848151811061076e5761076e611d12565b60200260200101516001600160a01b03166001600160a01b0316815260200190815260200160002081905550600560008581526020019081526020016000206001018382815181106107c2576107c2611d12565b60209081029190910181015182546001810184556000938452919092200180546001600160a01b0319166001600160a01b039092169190911790555b6001016106ff565b5050506000908152600560205260409020600201805460ff19166001179055565b606080808080600060015b60045481116108755760008181526002602052604090206003015460ff1615610863578161085f81611ec9565b9250505b8061086d81611ec9565b915050610832565b50806001600160401b0381111561088e5761088e611cfc565b6040519080825280602002602001820160405280156108b7578160200160208202803683370190505b509550806001600160401b038111156108d2576108d2611cfc565b6040519080825280602002602001820160405280156108fb578160200160208202803683370190505b509450806001600160401b0381111561091657610916611cfc565b60405190808252806020026020018201604052801561093f578160200160208202803683370190505b509350806001600160401b0381111561095a5761095a611cfc565b604051908082528060200260200182016040528015610983578160200160208202803683370190505b509250600060015b6004548111610a9e5760008181526002602052604090206003015460ff1615610a8c57808883815181106109c1576109c1611d12565b60200260200101818152505060026000828152602001908152602001600020600001548783815181106109f6576109f6611d12565b60209081029190910181019190915260008281526002909152604090206001015486516001600160a01b0390911690879084908110610a3757610a37611d12565b6001600160a01b0390921660209283029190910182015260008281526002918290526040902001548551869084908110610a7357610a73611d12565b602090810291909101015281610a8881611ec9565b9250505b80610a9681611ec9565b91505061098b565b5050509091929394565b6000818152600360205260408120606091829190805b8254811015610b0b57828181548110610ad957610ad9611d12565b600091825260209091206002600390920201015460ff1615610b035781610aff81611ec9565b9250505b600101610abe565b50806001600160401b03811115610b2457610b24611cfc565b604051908082528060200260200182016040528015610b4d578160200160208202803683370190505b509350806001600160401b03811115610b6857610b68611cfc565b604051908082528060200260200182016040528015610b91578160200160208202803683370190505b5092506000805b8354811015610c8957838181548110610bb357610bb3611d12565b600091825260209091206002600390920201015460ff1615610c8157838181548110610be157610be1611d12565b600091825260209091206003909102015486516001600160a01b0390911690879084908110610c1257610c12611d12565b60200260200101906001600160a01b031690816001600160a01b031681525050838181548110610c4457610c44611d12565b906000526020600020906003020160010154858381518110610c6857610c68611d12565b602090810291909101015281610c7d81611ec9565b9250505b600101610b98565b50505050915091565b610c9a611481565b6000818152600260205260409020600381015460ff16610ccc5760405162461bcd60e51b81526004016103e190611c9d565b6003810154610100900460ff1615610cf65760405162461bcd60e51b81526004016103e190611cc9565b60018101546001600160a01b03163303610d525760405162461bcd60e51b815260206004820181905260248201527f53656c6c65722063616e6e6f7420626964206f6e206f776e206c697374696e6760448201526064016103e1565b8060020154341015610da05760405162461bcd60e51b81526020600482015260176024820152764269642062656c6f77206d696e696d756d20707269636560481b60448201526064016103e1565b600082815260036020818152604080842081516060810183523380825234828601818152600184870181815286548083018855968b529988902094519590980290930180546001600160a01b0319166001600160a01b0390951694909417845591519583019590955594516002909101805460ff191691151591909117905551928352909184917f0e54eff26401bf69b81b26f60bd85ef47f5d85275c1d268d84f68d6897431c47910160405180910390a3506104886001600055565b60036020528160005260406000208181548110610e7957600080fd5b60009182526020909120600390910201805460018201546002909201546001600160a01b03909116935090915060ff1683565b610eb4611481565b6000818152600260205260409020600381015460ff16610ee65760405162461bcd60e51b81526004016103e190611c9d565b6003810154610100900460ff1615610f105760405162461bcd60e51b81526004016103e190611cc9565b60018101546001600160a01b03163314610f615760405162461bcd60e51b8152602060048201526012602482015271596f752063616e6e6f74206578656375746560701b60448201526064016103e1565b60038101805461ffff19166101001790556000808080805b600087815260036020526040902054811015611006576000878152600360205260408120805483908110610faf57610faf611d12565b60009182526020909120600390910201600281015490915060ff168015610fd95750858160010154115b15610ffd5760018082015482549097506001600160a01b0316955091935090915082905b50600101610f79565b50808015611018575084600201548410155b1561110257600086815260036020526040812080548490811061103d5761103d611d12565b60009182526020822060039190910201600201805460ff19169215159290921790915560018601546040516001600160a01b03909116916108fc871502918791818181858888f1935050505015801561109a573d6000803e3d6000fd5b50845460018601546110b691906001600160a01b03168561166e565b857fa61f9b5a0a92578ea5cd1dbc470c2f232a62ecfdabb857db6ca084ee2b5ac335600185876040516110eb93929190611ee2565b60405180910390a26110fd8683611924565b61114a565b61110b866114da565b857fa61f9b5a0a92578ea5cd1dbc470c2f232a62ecfdabb857db6ca084ee2b5ac335600080600060405161114193929190611ee2565b60405180910390a25b50505050506104886001600055565b611161611481565b600082116111b15760405162461bcd60e51b815260206004820152601e60248201527f4d696e696d756d207072696365206d75737420626520706f736974697665000060448201526064016103e1565b60008381526005602052604090206002015460ff166111d3576111d383610624565b6000838152600560209081526040808320338452909152902054600111156112475760405162461bcd60e51b815260206004820152602160248201527f4d757374206f776e206174206c65617374203120736861726520746f2073656c6044820152601b60fa1b60648201526084016103e1565b6004805490600061125783611ec9565b90915550506040805160a0810182528481523360208083018281528385018781526001606086018181526000608088018181526004805483526002978890529990912097518855935191870180546001600160a01b0319166001600160a01b0390931692909217909155905192850192909255905160039093018054915161ffff1990921693151561ff001916939093176101009115159190910217909155905484907f492d2294f1b8a982001da6ecb3de3a374ad9c29c9c8d5ad43da90cc50b585136856113268642611f03565b6040805192835260208301919091520160405180910390a46113486001600055565b505050565b60008281526005602052604081206002015460ff166114565760015460405163686735c560e01b81526004810185905260009182916001600160a01b039091169063686735c590602401600060405180830381865afa1580156113b4573d6000803e3d6000fd5b505050506040513d6000823e601f3d908101601f191682016040526113dc9190810190611de8565b9150915060005b825181101561144a57846001600160a01b031683828151811061140857611408611d12565b60200260200101516001600160a01b0316036114425781818151811061143057611430611d12565b6020026020010151935050505061147b565b6001016113e3565b5060009250505061147b565b5060008281526005602090815260408083206001600160a01b03851684529091529020545b92915050565b6002600054036114d35760405162461bcd60e51b815260206004820152601f60248201527f5265656e7472616e637947756172643a207265656e7472616e742063616c6c0060448201526064016103e1565b6002600055565b60005b60008281526003602052604090205481101561166a57600082815260036020526040902080548290811061151357611513611d12565b600091825260209091206002600390920201015460ff161561166257600082815260036020526040812080548390811061154f5761154f611d12565b60009182526020808320600392830201548684529190526040822080546001600160a01b039092169350908490811061158a5761158a611d12565b906000526020600020906003020160010154905060006003600086815260200190815260200160002084815481106115c4576115c4611d12565b60009182526020822060039190910201600201805460ff1916921515929092179091556040516001600160a01b038416916108fc841502918491818181858888f1935050505015801561161b573d6000803e3d6000fd5b50816001600160a01b03167fa171b6942063c6f2800ce40a780edce37baa2b618571b11eedd1e69e626e7d768260405161165791815260200190565b60405180910390a250505b6001016114dd565b5050565b60008381526005602052604090206002015460ff166116905761169083610624565b60008381526005602090815260408083206001600160a01b03861684529091529020546116be906001611ac0565b60008481526005602090815260408083206001600160a01b0387811685529252808320939093558316815290812054900361172e5760008381526005602090815260408220600190810180549182018155835291200180546001600160a01b0319166001600160a01b0383161790555b60008381526005602090815260408083206001600160a01b038516845290915290205461175c906001611ad3565b60008481526005602090815260408083206001600160a01b038681168552925280832093909355841681529081205490036118de5760005b6000848152600560205260409020600101548110156118dc57600084815260056020526040902060010180546001600160a01b0385169190839081106117dc576117dc611d12565b6000918252602090912001546001600160a01b0316036118d457600084815260056020526040902060019081018054909161181691611f16565b8154811061182657611826611d12565b60009182526020808320909101548683526005909152604090912060010180546001600160a01b03909216918390811061186257611862611d12565b600091825260208083209190910180546001600160a01b0319166001600160a01b0394909416939093179092558581526005909152604090206001018054806118ad576118ad611f29565b600082815260209020810160001990810180546001600160a01b03191690550190556118dc565b600101611794565b505b806001600160a01b0316826001600160a01b0316847f0bdf77fd986065d8fc49e770b42f0e133bb498a86d7d958a01cbbed564d678ac60405160405180910390a4505050565b60005b600083815260036020526040902054811015611348578181141580156119805750600083815260036020526040902080548290811061196857611968611d12565b600091825260209091206002600390920201015460ff165b15611ab85760008381526003602052604081208054839081106119a5576119a5611d12565b60009182526020808320600392830201548784529190526040822080546001600160a01b03909216935090849081106119e0576119e0611d12565b90600052602060002090600302016001015490506000600360008781526020019081526020016000208481548110611a1a57611a1a611d12565b60009182526020822060039190910201600201805460ff1916921515929092179091556040516001600160a01b038416916108fc841502918491818181858888f19350505050158015611a71573d6000803e3d6000fd5b50816001600160a01b03167fa171b6942063c6f2800ce40a780edce37baa2b618571b11eedd1e69e626e7d7682604051611aad91815260200190565b60405180910390a250505b600101611927565b6000611acc8284611f16565b9392505050565b6000611acc8284611f03565b600060208284031215611af157600080fd5b5035919050565b600081518084526020840193506020830160005b82811015611b335781516001600160a01b0316865260209586019590910190600101611b0c565b5093949350505050565b600081518084526020840193506020830160005b82811015611b33578151865260209586019590910190600101611b51565b604081526000611b826040830185611af8565b8281036020840152611b948185611b3d565b95945050505050565b60a081526000611bb060a0830188611b3d565b8281036020840152611bc28188611b3d565b90508281036040840152611bd68187611af8565b90508281036060840152611bea8186611b3d565b90508281036080840152611bfe8185611b3d565b98975050505050505050565b60008060408385031215611c1d57600080fd5b50508035926020909101359150565b600080600060608486031215611c4157600080fd5b505081359360208301359350604090920135919050565b6001600160a01b038116811461048857600080fd5b60008060408385031215611c8057600080fd5b823591506020830135611c9281611c58565b809150509250929050565b6020808252601290820152714c697374696e67206e6f742061637469766560701b604082015260600190565b602080825260199082015278131a5cdd1a5b99c8185b1c9958591e4818dbdb5c1b195d1959603a1b604082015260600190565b634e487b7160e01b600052604160045260246000fd5b634e487b7160e01b600052603260045260246000fd5b604051601f8201601f191681016001600160401b0381118282101715611d5057611d50611cfc565b604052919050565b60006001600160401b03821115611d7157611d71611cfc565b5060051b60200190565b600082601f830112611d8c57600080fd5b8151611d9f611d9a82611d58565b611d28565b8082825260208201915060208360051b860101925085831115611dc157600080fd5b602085015b83811015611dde578051835260209283019201611dc6565b5095945050505050565b60008060408385031215611dfb57600080fd5b82516001600160401b03811115611e1157600080fd5b8301601f81018513611e2257600080fd5b8051611e30611d9a82611d58565b8082825260208201915060208360051b850101925087831115611e5257600080fd5b6020840193505b82841015611e7d578351611e6c81611c58565b825260209384019390910190611e59565b8095505050505060208301516001600160401b03811115611e9d57600080fd5b611ea985828601611d7b565b9150509250929050565b634e487b7160e01b600052601160045260246000fd5b600060018201611edb57611edb611eb3565b5060010190565b92151583526001600160a01b03919091166020830152604082015260600190565b8082018082111561147b5761147b611eb3565b8181038181111561147b5761147b611eb3565b634e487b7160e01b600052603160045260246000fdfea26469706673582212209161eb40584f935ed5320f71f45fc40b5a4a5023dbf54d62c0e23c8376757a5964736f6c634300081d0033",
			"opcodes": "PUSH1 0x80 PUSH1 0x40 MSTORE CALLVALUE DUP1 ISZERO PUSH1 0xF JUMPI PUSH1 0x0 DUP1 REVERT JUMPDEST POP PUSH1 0x40 MLOAD PUSH2 0x2007 CODESIZE SUB DUP1 PUSH2 0x2007 DUP4 CODECOPY DUP2 ADD PUSH1 0x40 DUP2 SWAP1 MSTORE PUSH1 0x2C SWAP2 PUSH1 0x55 JUMP JUMPDEST PUSH1 0x1 PUSH1 0x0 DUP2 SWAP1 SSTORE DUP1 SLOAD PUSH1 0x1 PUSH1 0x1 PUSH1 0xA0 SHL SUB NOT AND PUSH1 0x1 PUSH1 0x1 PUSH1 0xA0 SHL SUB SWAP3 SWAP1 SWAP3 AND SWAP2 SWAP1 SWAP2 OR SWAP1 SSTORE PUSH1 0x83 JUMP JUMPDEST PUSH1 0x0 PUSH1 0x20 DUP3 DUP5 SUB SLT ISZERO PUSH1 0x66 JUMPI PUSH1 0x0 DUP1 REVERT JUMPDEST DUP2 MLOAD PUSH1 0x1 PUSH1 0x1 PUSH1 0xA0 SHL SUB DUP2 AND DUP2 EQ PUSH1 0x7C JUMPI PUSH1 0x0 DUP1 REVERT JUMPDEST SWAP4 SWAP3 POP POP POP JUMP JUMPDEST PUSH2 0x1F75 DUP1 PUSH2 0x92 PUSH1 0x0 CODECOPY PUSH1 0x0 RETURN INVALID PUSH1 0x80 PUSH1 0x40 MSTORE PUSH1 0x4 CALLDATASIZE LT PUSH2 0xBD JUMPI PUSH1 0x0 CALLDATALOAD PUSH1 0xE0 SHR DUP1 PUSH4 0x9DA0E1DD GT PUSH2 0x6F JUMPI DUP1 PUSH4 0x9DA0E1DD EQ PUSH2 0x1C8 JUMPI DUP1 PUSH4 0xA137454A EQ PUSH2 0x20F JUMPI DUP1 PUSH4 0xA9B07C26 EQ PUSH2 0x22F JUMPI DUP1 PUSH4 0xB03053B6 EQ PUSH2 0x253 JUMPI DUP1 PUSH4 0xDE74E57B EQ PUSH2 0x273 JUMPI DUP1 PUSH4 0xE7EBADFE EQ PUSH2 0x300 JUMPI DUP1 PUSH4 0xFB05DA2E EQ PUSH2 0x320 JUMPI PUSH1 0x0 DUP1 REVERT JUMPDEST DUP1 PUSH4 0x305A67A8 EQ PUSH2 0xC2 JUMPI DUP1 PUSH4 0x4BBFDFFE EQ PUSH2 0xE4 JUMPI DUP1 PUSH4 0x686735C5 EQ PUSH2 0x121 JUMPI DUP1 PUSH4 0x83421EFD EQ PUSH2 0x14F JUMPI DUP1 PUSH4 0x87C35BC0 EQ PUSH2 0x16F JUMPI DUP1 PUSH4 0x90E467A1 EQ PUSH2 0x195 JUMPI DUP1 PUSH4 0x9979EF45 EQ PUSH2 0x1B5 JUMPI JUMPDEST PUSH1 0x0 DUP1 REVERT JUMPDEST CALLVALUE DUP1 ISZERO PUSH2 0xCE JUMPI PUSH1 0x0 DUP1 REVERT JUMPDEST POP PUSH2 0xE2 PUSH2 0xDD CALLDATASIZE PUSH1 0x4 PUSH2 0x1ADF JUMP JUMPDEST PUSH2 0x37A JUMP JUMPDEST STOP JUMPDEST CALLVALUE DUP1 ISZERO PUSH2 0xF0 JUMPI PUSH1 0x0 DUP1 REVERT JUMPDEST POP PUSH1 0x1 SLOAD PUSH2 0x104 SWAP1 PUSH1 0x1 PUSH1 0x1 PUSH1 0xA0 SHL SUB AND DUP2 JUMP JUMPDEST PUSH1 0x40 MLOAD PUSH1 0x1 PUSH1 0x1 PUSH1 0xA0 SHL SUB SWAP1 SWAP2 AND DUP2 MSTORE PUSH1 0x20 ADD JUMPDEST PUSH1 0x40 MLOAD DUP1 SWAP2 SUB SWAP1 RETURN JUMPDEST CALLVALUE DUP1 ISZERO PUSH2 0x12D JUMPI PUSH1 0x0 DUP1 REVERT JUMPDEST POP PUSH2 0x141 PUSH2 0x13C CALLDATASIZE PUSH1 0x4 PUSH2 0x1ADF JUMP JUMPDEST PUSH2 0x48B JUMP JUMPDEST PUSH1 0x40 MLOAD PUSH2 0x118 SWAP3 SWAP2 SWAP1 PUSH2 0x1B6F JUMP JUMPDEST CALLVALUE DUP1 ISZERO PUSH2 0x15B JUMPI PUSH1 0x0 DUP1 REVERT JUMPDEST POP PUSH2 0xE2 PUSH2 0x16A CALLDATASIZE PUSH1 0x4 PUSH2 0x1ADF JUMP JUMPDEST PUSH2 0x624 JUMP JUMPDEST CALLVALUE DUP1 ISZERO PUSH2 0x17B JUMPI PUSH1 0x0 DUP1 REVERT JUMPDEST POP PUSH2 0x184 PUSH2 0x827 JUMP JUMPDEST PUSH1 0x40 MLOAD PUSH2 0x118 SWAP6 SWAP5 SWAP4 SWAP3 SWAP2 SWAP1 PUSH2 0x1B9D JUMP JUMPDEST CALLVALUE DUP1 ISZERO PUSH2 0x1A1 JUMPI PUSH1 0x0 DUP1 REVERT JUMPDEST POP PUSH2 0x141 PUSH2 0x1B0 CALLDATASIZE PUSH1 0x4 PUSH2 0x1ADF JUMP JUMPDEST PUSH2 0xAA8 JUMP JUMPDEST PUSH2 0xE2 PUSH2 0x1C3 CALLDATASIZE PUSH1 0x4 PUSH2 0x1ADF JUMP JUMPDEST PUSH2 0xC92 JUMP JUMPDEST CALLVALUE DUP1 ISZERO PUSH2 0x1D4 JUMPI PUSH1 0x0 DUP1 REVERT JUMPDEST POP PUSH2 0x1E8 PUSH2 0x1E3 CALLDATASIZE PUSH1 0x4 PUSH2 0x1C0A JUMP JUMPDEST PUSH2 0xE5D JUMP JUMPDEST PUSH1 0x40 DUP1 MLOAD PUSH1 0x1 PUSH1 0x1 PUSH1 0xA0 SHL SUB SWAP1 SWAP5 AND DUP5 MSTORE PUSH1 0x20 DUP5 ADD SWAP3 SWAP1 SWAP3 MSTORE ISZERO ISZERO SWAP1 DUP3 ADD MSTORE PUSH1 0x60 ADD PUSH2 0x118 JUMP JUMPDEST CALLVALUE DUP1 ISZERO PUSH2 0x21B JUMPI PUSH1 0x0 DUP1 REVERT JUMPDEST POP PUSH2 0xE2 PUSH2 0x22A CALLDATASIZE PUSH1 0x4 PUSH2 0x1ADF JUMP JUMPDEST PUSH2 0xEAC JUMP JUMPDEST CALLVALUE DUP1 ISZERO PUSH2 0x23B JUMPI PUSH1 0x0 DUP1 REVERT JUMPDEST POP PUSH2 0x245 PUSH1 0x4 SLOAD DUP2 JUMP JUMPDEST PUSH1 0x40 MLOAD SWAP1 DUP2 MSTORE PUSH1 0x20 ADD PUSH2 0x118 JUMP JUMPDEST CALLVALUE DUP1 ISZERO PUSH2 0x25F JUMPI PUSH1 0x0 DUP1 REVERT JUMPDEST POP PUSH2 0xE2 PUSH2 0x26E CALLDATASIZE PUSH1 0x4 PUSH2 0x1C2C JUMP JUMPDEST PUSH2 0x1159 JUMP JUMPDEST CALLVALUE DUP1 ISZERO PUSH2 0x27F JUMPI PUSH1 0x0 DUP1 REVERT JUMPDEST POP PUSH2 0x2CC PUSH2 0x28E CALLDATASIZE PUSH1 0x4 PUSH2 0x1ADF JUMP JUMPDEST PUSH1 0x2 PUSH1 0x20 DUP2 SWAP1 MSTORE PUSH1 0x0 SWAP2 DUP3 MSTORE PUSH1 0x40 SWAP1 SWAP2 KECCAK256 DUP1 SLOAD PUSH1 0x1 DUP3 ADD SLOAD SWAP3 DUP3 ADD SLOAD PUSH1 0x3 SWAP1 SWAP3 ADD SLOAD SWAP1 SWAP3 PUSH1 0x1 PUSH1 0x1 PUSH1 0xA0 SHL SUB AND SWAP2 SWAP1 PUSH1 0xFF DUP1 DUP3 AND SWAP2 PUSH2 0x100 SWAP1 DIV AND DUP6 JUMP JUMPDEST PUSH1 0x40 DUP1 MLOAD SWAP6 DUP7 MSTORE PUSH1 0x1 PUSH1 0x1 PUSH1 0xA0 SHL SUB SWAP1 SWAP5 AND PUSH1 0x20 DUP7 ADD MSTORE SWAP3 DUP5 ADD SWAP2 SWAP1 SWAP2 MSTORE ISZERO ISZERO PUSH1 0x60 DUP4 ADD MSTORE ISZERO ISZERO PUSH1 0x80 DUP3 ADD MSTORE PUSH1 0xA0 ADD PUSH2 0x118 JUMP JUMPDEST CALLVALUE DUP1 ISZERO PUSH2 0x30C JUMPI PUSH1 0x0 DUP1 REVERT JUMPDEST POP PUSH2 0x245 PUSH2 0x31B CALLDATASIZE PUSH1 0x4 PUSH2 0x1C6D JUMP JUMPDEST PUSH2 0x134D JUMP JUMPDEST CALLVALUE DUP1 ISZERO PUSH2 0x32C JUMPI PUSH1 0x0 DUP1 REVERT JUMPDEST POP PUSH2 0x2CC PUSH2 0x33B CALLDATASIZE PUSH1 0x4 PUSH2 0x1ADF JUMP JUMPDEST PUSH1 0x0 SWAP1 DUP2 MSTORE PUSH1 0x2 PUSH1 0x20 DUP2 SWAP1 MSTORE PUSH1 0x40 SWAP1 SWAP2 KECCAK256 DUP1 SLOAD PUSH1 0x1 DUP3 ADD SLOAD SWAP3 DUP3 ADD SLOAD PUSH1 0x3 SWAP1 SWAP3 ADD SLOAD SWAP1 SWAP4 PUSH1 0x1 PUSH1 0x1 PUSH1 0xA0 SHL SUB SWAP1 SWAP4 AND SWAP3 PUSH1 0xFF DUP1 DUP4 AND SWAP3 PUSH2 0x100 SWAP1 DIV AND SWAP1 JUMP JUMPDEST PUSH2 0x382 PUSH2 0x1481 JUMP JUMPDEST PUSH1 0x0 DUP2 DUP2 MSTORE PUSH1 0x2 PUSH1 0x20 MSTORE PUSH1 0x40 SWAP1 KECCAK256 PUSH1 0x1 DUP2 ADD SLOAD PUSH1 0x1 PUSH1 0x1 PUSH1 0xA0 SHL SUB AND CALLER EQ PUSH2 0x3EA JUMPI PUSH1 0x40 MLOAD PUSH3 0x461BCD PUSH1 0xE5 SHL DUP2 MSTORE PUSH1 0x20 PUSH1 0x4 DUP3 ADD MSTORE PUSH1 0x16 PUSH1 0x24 DUP3 ADD MSTORE PUSH22 0x13DB9B1E481CD95B1B195C8818D85B8818D85B98D95B PUSH1 0x52 SHL PUSH1 0x44 DUP3 ADD MSTORE PUSH1 0x64 ADD JUMPDEST PUSH1 0x40 MLOAD DUP1 SWAP2 SUB SWAP1 REVERT JUMPDEST PUSH1 0x3 DUP2 ADD SLOAD PUSH1 0xFF AND PUSH2 0x40E JUMPI PUSH1 0x40 MLOAD PUSH3 0x461BCD PUSH1 0xE5 SHL DUP2 MSTORE PUSH1 0x4 ADD PUSH2 0x3E1 SWAP1 PUSH2 0x1C9D JUMP JUMPDEST PUSH1 0x3 DUP2 ADD SLOAD PUSH2 0x100 SWAP1 DIV PUSH1 0xFF AND ISZERO PUSH2 0x438 JUMPI PUSH1 0x40 MLOAD PUSH3 0x461BCD PUSH1 0xE5 SHL DUP2 MSTORE PUSH1 0x4 ADD PUSH2 0x3E1 SWAP1 PUSH2 0x1CC9 JUMP JUMPDEST PUSH1 0x3 DUP2 ADD DUP1 SLOAD PUSH2 0xFFFF NOT AND PUSH2 0x100 OR SWAP1 SSTORE PUSH2 0x452 DUP3 PUSH2 0x14DA JUMP JUMPDEST PUSH1 0x40 MLOAD DUP3 SWAP1 PUSH32 0x411AEE90354C51B1B04CD563FCAB2617142A9D50DA19232D888547C8A1B7FD8A SWAP1 PUSH1 0x0 SWAP1 LOG2 POP PUSH2 0x488 PUSH1 0x1 PUSH1 0x0 SSTORE JUMP JUMPDEST POP JUMP JUMPDEST PUSH1 0x0 DUP2 DUP2 MSTORE PUSH1 0x5 PUSH1 0x20 MSTORE PUSH1 0x40 SWAP1 KECCAK256 PUSH1 0x2 ADD SLOAD PUSH1 0x60 SWAP1 DUP2 SWAP1 PUSH1 0xFF AND PUSH2 0x4C7 JUMPI POP POP PUSH1 0x40 DUP1 MLOAD PUSH1 0x0 DUP1 DUP3 MSTORE PUSH1 0x20 DUP3 ADD SWAP1 DUP2 MSTORE DUP2 DUP4 ADD SWAP1 SWAP3 MSTORE SWAP3 SWAP1 SWAP2 POP JUMP JUMPDEST PUSH1 0x0 DUP4 DUP2 MSTORE PUSH1 0x5 PUSH1 0x20 MSTORE PUSH1 0x40 SWAP1 KECCAK256 PUSH1 0x1 ADD SLOAD DUP1 PUSH1 0x1 PUSH1 0x1 PUSH1 0x40 SHL SUB DUP2 GT ISZERO PUSH2 0x4F1 JUMPI PUSH2 0x4F1 PUSH2 0x1CFC JUMP JUMPDEST PUSH1 0x40 MLOAD SWAP1 DUP1 DUP3 MSTORE DUP1 PUSH1 0x20 MUL PUSH1 0x20 ADD DUP3 ADD PUSH1 0x40 MSTORE DUP1 ISZERO PUSH2 0x51A JUMPI DUP2 PUSH1 0x20 ADD PUSH1 0x20 DUP3 MUL DUP1 CALLDATASIZE DUP4 CALLDATACOPY ADD SWAP1 POP JUMPDEST POP SWAP3 POP DUP1 PUSH1 0x1 PUSH1 0x1 PUSH1 0x40 SHL SUB DUP2 GT ISZERO PUSH2 0x535 JUMPI PUSH2 0x535 PUSH2 0x1CFC JUMP JUMPDEST PUSH1 0x40 MLOAD SWAP1 DUP1 DUP3 MSTORE DUP1 PUSH1 0x20 MUL PUSH1 0x20 ADD DUP3 ADD PUSH1 0x40 MSTORE DUP1 ISZERO PUSH2 0x55E JUMPI DUP2 PUSH1 0x20 ADD PUSH1 0x20 DUP3 MUL DUP1 CALLDATASIZE DUP4 CALLDATACOPY ADD SWAP1 POP JUMPDEST POP SWAP2 POP PUSH1 0x0 JUMPDEST DUP2 DUP2 LT ISZERO PUSH2 0x61D JUMPI PUSH1 0x0 DUP6 DUP2 MSTORE PUSH1 0x5 PUSH1 0x20 MSTORE PUSH1 0x40 DUP2 KECCAK256 PUSH1 0x1 ADD DUP1 SLOAD DUP4 SWAP1 DUP2 LT PUSH2 0x58F JUMPI PUSH2 0x58F PUSH2 0x1D12 JUMP JUMPDEST SWAP1 PUSH1 0x0 MSTORE PUSH1 0x20 PUSH1 0x0 KECCAK256 ADD PUSH1 0x0 SWAP1 SLOAD SWAP1 PUSH2 0x100 EXP SWAP1 DIV PUSH1 0x1 PUSH1 0x1 PUSH1 0xA0 SHL SUB AND SWAP1 POP DUP1 DUP6 DUP4 DUP2 MLOAD DUP2 LT PUSH2 0x5C2 JUMPI PUSH2 0x5C2 PUSH2 0x1D12 JUMP JUMPDEST PUSH1 0x1 PUSH1 0x1 PUSH1 0xA0 SHL SUB SWAP3 DUP4 AND PUSH1 0x20 SWAP2 DUP3 MUL SWAP3 SWAP1 SWAP3 ADD DUP2 ADD SWAP2 SWAP1 SWAP2 MSTORE PUSH1 0x0 DUP9 DUP2 MSTORE PUSH1 0x5 DUP3 MSTORE PUSH1 0x40 DUP1 DUP3 KECCAK256 SWAP4 DUP6 AND DUP3 MSTORE SWAP3 SWAP1 SWAP2 MSTORE KECCAK256 SLOAD DUP5 MLOAD DUP6 SWAP1 DUP5 SWAP1 DUP2 LT PUSH2 0x609 JUMPI PUSH2 0x609 PUSH2 0x1D12 JUMP JUMPDEST PUSH1 0x20 SWAP1 DUP2 MUL SWAP2 SWAP1 SWAP2 ADD ADD MSTORE POP PUSH1 0x1 ADD PUSH2 0x564 JUMP JUMPDEST POP POP SWAP2 POP SWAP2 JUMP JUMPDEST PUSH1 0x0 DUP2 DUP2 MSTORE PUSH1 0x5 PUSH1 0x20 MSTORE PUSH1 0x40 SWAP1 KECCAK256 PUSH1 0x2 ADD SLOAD PUSH1 0xFF AND ISZERO PUSH2 0x682 JUMPI PUSH1 0x40 MLOAD PUSH3 0x461BCD PUSH1 0xE5 SHL DUP2 MSTORE PUSH1 0x20 PUSH1 0x4 DUP3 ADD MSTORE PUSH1 0x19 PUSH1 0x24 DUP3 ADD MSTORE PUSH25 0x105CDCD95D08185B1C9958591E481A5B9A5D1A585B1A5E9959 PUSH1 0x3A SHL PUSH1 0x44 DUP3 ADD MSTORE PUSH1 0x64 ADD PUSH2 0x3E1 JUMP JUMPDEST PUSH1 0x1 SLOAD PUSH1 0x40 MLOAD PUSH4 0x686735C5 PUSH1 0xE0 SHL DUP2 MSTORE PUSH1 0x4 DUP2 ADD DUP4 SWAP1 MSTORE PUSH1 0x0 SWAP2 DUP3 SWAP2 PUSH1 0x1 PUSH1 0x1 PUSH1 0xA0 SHL SUB SWAP1 SWAP2 AND SWAP1 PUSH4 0x686735C5 SWAP1 PUSH1 0x24 ADD PUSH1 0x0 PUSH1 0x40 MLOAD DUP1 DUP4 SUB DUP2 DUP7 GAS STATICCALL ISZERO DUP1 ISZERO PUSH2 0x6D0 JUMPI RETURNDATASIZE PUSH1 0x0 DUP1 RETURNDATACOPY RETURNDATASIZE PUSH1 0x0 REVERT JUMPDEST POP POP POP POP PUSH1 0x40 MLOAD RETURNDATASIZE PUSH1 0x0 DUP3 RETURNDATACOPY PUSH1 0x1F RETURNDATASIZE SWAP1 DUP2 ADD PUSH1 0x1F NOT AND DUP3 ADD PUSH1 0x40 MSTORE PUSH2 0x6F8 SWAP2 SWAP1 DUP2 ADD SWAP1 PUSH2 0x1DE8 JUMP JUMPDEST SWAP2 POP SWAP2 POP PUSH1 0x0 JUMPDEST DUP3 MLOAD DUP2 LT ISZERO PUSH2 0x806 JUMPI PUSH1 0x0 DUP3 DUP3 DUP2 MLOAD DUP2 LT PUSH2 0x71C JUMPI PUSH2 0x71C PUSH2 0x1D12 JUMP JUMPDEST PUSH1 0x20 MUL PUSH1 0x20 ADD ADD MLOAD GT ISZERO PUSH2 0x7FE JUMPI DUP2 DUP2 DUP2 MLOAD DUP2 LT PUSH2 0x73C JUMPI PUSH2 0x73C PUSH2 0x1D12 JUMP JUMPDEST PUSH1 0x20 MUL PUSH1 0x20 ADD ADD MLOAD PUSH1 0x5 PUSH1 0x0 DUP7 DUP2 MSTORE PUSH1 0x20 ADD SWAP1 DUP2 MSTORE PUSH1 0x20 ADD PUSH1 0x0 KECCAK256 PUSH1 0x0 ADD PUSH1 0x0 DUP6 DUP5 DUP2 MLOAD DUP2 LT PUSH2 0x76E JUMPI PUSH2 0x76E PUSH2 0x1D12 JUMP JUMPDEST PUSH1 0x20 MUL PUSH1 0x20 ADD ADD MLOAD PUSH1 0x1 PUSH1 0x1 PUSH1 0xA0 SHL SUB AND PUSH1 0x1 PUSH1 0x1 PUSH1 0xA0 SHL SUB AND DUP2 MSTORE PUSH1 0x20 ADD SWAP1 DUP2 MSTORE PUSH1 0x20 ADD PUSH1 0x0 KECCAK256 DUP2 SWAP1 SSTORE POP PUSH1 0x5 PUSH1 0x0 DUP6 DUP2 MSTORE PUSH1 0x20 ADD SWAP1 DUP2 MSTORE PUSH1 0x20 ADD PUSH1 0x0 KECCAK256 PUSH1 0x1 ADD DUP4 DUP3 DUP2 MLOAD DUP2 LT PUSH2 0x7C2 JUMPI PUSH2 0x7C2 PUSH2 0x1D12 JUMP JUMPDEST PUSH1 0x20 SWAP1 DUP2 MUL SWAP2 SWAP1 SWAP2 ADD DUP2 ADD MLOAD DUP3 SLOAD PUSH1 0x1 DUP2 ADD DUP5 SSTORE PUSH1 0x0 SWAP4 DUP5 MSTORE SWAP2 SWAP1 SWAP3 KECCAK256 ADD DUP1 SLOAD PUSH1 0x1 PUSH1 0x1 PUSH1 0xA0 SHL SUB NOT AND PUSH1 0x1 PUSH1 0x1 PUSH1 0xA0 SHL SUB SWAP1 SWAP3 AND SWAP2 SWAP1 SWAP2 OR SWAP1 SSTORE JUMPDEST PUSH1 0x1 ADD PUSH2 0x6FF JUMP JUMPDEST POP POP POP PUSH1 0x0 SWAP1 DUP2 MSTORE PUSH1 0x5 PUSH1 0x20 MSTORE PUSH1 0x40 SWAP1 KECCAK256 PUSH1 0x2 ADD DUP1 SLOAD PUSH1 0xFF NOT AND PUSH1 0x1 OR SWAP1 SSTORE JUMP JUMPDEST PUSH1 0x60 DUP1 DUP1 DUP1 DUP1 PUSH1 0x0 PUSH1 0x1 JUMPDEST PUSH1 0x4 SLOAD DUP2 GT PUSH2 0x875 JUMPI PUSH1 0x0 DUP2 DUP2 MSTORE PUSH1 0x2 PUSH1 0x20 MSTORE PUSH1 0x40 SWAP1 KECCAK256 PUSH1 0x3 ADD SLOAD PUSH1 0xFF AND ISZERO PUSH2 0x863 JUMPI DUP2 PUSH2 0x85F DUP2 PUSH2 0x1EC9 JUMP JUMPDEST SWAP3 POP POP JUMPDEST DUP1 PUSH2 0x86D DUP2 PUSH2 0x1EC9 JUMP JUMPDEST SWAP2 POP POP PUSH2 0x832 JUMP JUMPDEST POP DUP1 PUSH1 0x1 PUSH1 0x1 PUSH1 0x40 SHL SUB DUP2 GT ISZERO PUSH2 0x88E JUMPI PUSH2 0x88E PUSH2 0x1CFC JUMP JUMPDEST PUSH1 0x40 MLOAD SWAP1 DUP1 DUP3 MSTORE DUP1 PUSH1 0x20 MUL PUSH1 0x20 ADD DUP3 ADD PUSH1 0x40 MSTORE DUP1 ISZERO PUSH2 0x8B7 JUMPI DUP2 PUSH1 0x20 ADD PUSH1 0x20 DUP3 MUL DUP1 CALLDATASIZE DUP4 CALLDATACOPY ADD SWAP1 POP JUMPDEST POP SWAP6 POP DUP1 PUSH1 0x1 PUSH1 0x1 PUSH1 0x40 SHL SUB DUP2 GT ISZERO PUSH2 0x8D2 JUMPI PUSH2 0x8D2 PUSH2 0x1CFC JUMP JUMPDEST PUSH1 0x40 MLOAD SWAP1 DUP1 DUP3 MSTORE DUP1 PUSH1 0x20 MUL PUSH1 0x20 ADD DUP3 ADD PUSH1 0x40 MSTORE DUP1 ISZERO PUSH2 0x8FB JUMPI DUP2 PUSH1 0x20 ADD PUSH1 0x20 DUP3 MUL DUP1 CALLDATASIZE DUP4 CALLDATACOPY ADD SWAP1 POP JUMPDEST POP SWAP5 POP DUP1 PUSH1 0x1 PUSH1 0x1 PUSH1 0x40 SHL SUB DUP2 GT ISZERO PUSH2 0x916 JUMPI PUSH2 0x916 PUSH2 0x1CFC JUMP JUMPDEST PUSH1 0x40 MLOAD SWAP1 DUP1 DUP3 MSTORE DUP1 PUSH1 0x20 MUL PUSH1 0x20 ADD DUP3 ADD PUSH1 0x40 MSTORE DUP1 ISZERO PUSH2 0x93F JUMPI DUP2 PUSH1 0x20 ADD PUSH1 0x20 DUP3 MUL DUP1 CALLDATASIZE DUP4 CALLDATACOPY ADD SWAP1 POP JUMPDEST POP SWAP4 POP DUP1 PUSH1 0x1 PUSH1 0x1 PUSH1 0x40 SHL SUB DUP2 GT ISZERO PUSH2 0x95A JUMPI PUSH2 0x95A PUSH2 0x1CFC JUMP JUMPDEST PUSH1 0x40 MLOAD SWAP1 DUP1 DUP3 MSTORE DUP1 PUSH1 0x20 MUL PUSH1 0x20 ADD DUP3 ADD PUSH1 0x40 MSTORE DUP1 ISZERO PUSH2 0x983 JUMPI DUP2 PUSH1 0x20 ADD PUSH1 0x20 DUP3 MUL DUP1 CALLDATASIZE DUP4 CALLDATACOPY ADD SWAP1 POP JUMPDEST POP SWAP3 POP PUSH1 0x0 PUSH1 0x1 JUMPDEST PUSH1 0x4 SLOAD DUP2 GT PUSH2 0xA9E JUMPI PUSH1 0x0 DUP2 DUP2 MSTORE PUSH1 0x2 PUSH1 0x20 MSTORE PUSH1 0x40 SWAP1 KECCAK256 PUSH1 0x3 ADD SLOAD PUSH1 0xFF AND ISZERO PUSH2 0xA8C JUMPI DUP1 DUP9 DUP4 DUP2 MLOAD DUP2 LT PUSH2 0x9C1 JUMPI PUSH2 0x9C1 PUSH2 0x1D12 JUMP JUMPDEST PUSH1 0x20 MUL PUSH1 0x20 ADD ADD DUP2 DUP2 MSTORE POP POP PUSH1 0x2 PUSH1 0x0 DUP3 DUP2 MSTORE PUSH1 0x20 ADD SWAP1 DUP2 MSTORE PUSH1 0x20 ADD PUSH1 0x0 KECCAK256 PUSH1 0x0 ADD SLOAD DUP8 DUP4 DUP2 MLOAD DUP2 LT PUSH2 0x9F6 JUMPI PUSH2 0x9F6 PUSH2 0x1D12 JUMP JUMPDEST PUSH1 0x20 SWAP1 DUP2 MUL SWAP2 SWAP1 SWAP2 ADD DUP2 ADD SWAP2 SWAP1 SWAP2 MSTORE PUSH1 0x0 DUP3 DUP2 MSTORE PUSH1 0x2 SWAP1 SWAP2 MSTORE PUSH1 0x40 SWAP1 KECCAK256 PUSH1 0x1 ADD SLOAD DUP7 MLOAD PUSH1 0x1 PUSH1 0x1 PUSH1 0xA0 SHL SUB SWAP1 SWAP2 AND SWAP1 DUP8 SWAP1 DUP5 SWAP1 DUP2 LT PUSH2 0xA37 JUMPI PUSH2 0xA37 PUSH2 0x1D12 JUMP JUMPDEST PUSH1 0x1 PUSH1 0x1 PUSH1 0xA0 SHL SUB SWAP1 SWAP3 AND PUSH1 0x20 SWAP3 DUP4 MUL SWAP2 SWAP1 SWAP2 ADD DUP3 ADD MSTORE PUSH1 0x0 DUP3 DUP2 MSTORE PUSH1 0x2 SWAP2 DUP3 SWAP1 MSTORE PUSH1 0x40 SWAP1 KECCAK256 ADD SLOAD DUP6 MLOAD DUP7 SWAP1 DUP5 SWAP1 DUP2 LT PUSH2 0xA73 JUMPI PUSH2 0xA73 PUSH2 0x1D12 JUMP JUMPDEST PUSH1 0x20 SWAP1 DUP2 MUL SWAP2 SWAP1 SWAP2 ADD ADD MSTORE DUP2 PUSH2 0xA88 DUP2 PUSH2 0x1EC9 JUMP JUMPDEST SWAP3 POP POP JUMPDEST DUP1 PUSH2 0xA96 DUP2 PUSH2 0x1EC9 JUMP JUMPDEST SWAP2 POP POP PUSH2 0x98B JUMP JUMPDEST POP POP POP SWAP1 SWAP2 SWAP3 SWAP4 SWAP5 JUMP JUMPDEST PUSH1 0x0 DUP2 DUP2 MSTORE PUSH1 0x3 PUSH1 0x20 MSTORE PUSH1 0x40 DUP2 KECCAK256 PUSH1 0x60 SWAP2 DUP3 SWAP2 SWAP1 DUP1 JUMPDEST DUP3 SLOAD DUP2 LT ISZERO PUSH2 0xB0B JUMPI DUP3 DUP2 DUP2 SLOAD DUP2 LT PUSH2 0xAD9 JUMPI PUSH2 0xAD9 PUSH2 0x1D12 JUMP JUMPDEST PUSH1 0x0 SWAP2 DUP3 MSTORE PUSH1 0x20 SWAP1 SWAP2 KECCAK256 PUSH1 0x2 PUSH1 0x3 SWAP1 SWAP3 MUL ADD ADD SLOAD PUSH1 0xFF AND ISZERO PUSH2 0xB03 JUMPI DUP2 PUSH2 0xAFF DUP2 PUSH2 0x1EC9 JUMP JUMPDEST SWAP3 POP POP JUMPDEST PUSH1 0x1 ADD PUSH2 0xABE JUMP JUMPDEST POP DUP1 PUSH1 0x1 PUSH1 0x1 PUSH1 0x40 SHL SUB DUP2 GT ISZERO PUSH2 0xB24 JUMPI PUSH2 0xB24 PUSH2 0x1CFC JUMP JUMPDEST PUSH1 0x40 MLOAD SWAP1 DUP1 DUP3 MSTORE DUP1 PUSH1 0x20 MUL PUSH1 0x20 ADD DUP3 ADD PUSH1 0x40 MSTORE DUP1 ISZERO PUSH2 0xB4D JUMPI DUP2 PUSH1 0x20 ADD PUSH1 0x20 DUP3 MUL DUP1 CALLDATASIZE DUP4 CALLDATACOPY ADD SWAP1 POP JUMPDEST POP SWAP4 POP DUP1 PUSH1 0x1 PUSH1 0x1 PUSH1 0x40 SHL SUB DUP2 GT ISZERO PUSH2 0xB68 JUMPI PUSH2 0xB68 PUSH2 0x1CFC JUMP JUMPDEST PUSH1 0x40 MLOAD SWAP1 DUP1 DUP3 MSTORE DUP1 PUSH1 0x20 MUL PUSH1 0x20 ADD DUP3 ADD PUSH1 0x40 MSTORE DUP1 ISZERO PUSH2 0xB91 JUMPI DUP2 PUSH1 0x20 ADD PUSH1 0x20 DUP3 MUL DUP1 CALLDATASIZE DUP4 CALLDATACOPY ADD SWAP1 POP JUMPDEST POP SWAP3 POP PUSH1 0x0 DUP1 JUMPDEST DUP4 SLOAD DUP2 LT ISZERO PUSH2 0xC89 JUMPI DUP4 DUP2 DUP2 SLOAD DUP2 LT PUSH2 0xBB3 JUMPI PUSH2 0xBB3 PUSH2 0x1D12 JUMP JUMPDEST PUSH1 0x0 SWAP2 DUP3 MSTORE PUSH1 0x20 SWAP1 SWAP2 KECCAK256 PUSH1 0x2 PUSH1 0x3 SWAP1 SWAP3 MUL ADD ADD SLOAD PUSH1 0xFF AND ISZERO PUSH2 0xC81 JUMPI DUP4 DUP2 DUP2 SLOAD DUP2 LT PUSH2 0xBE1 JUMPI PUSH2 0xBE1 PUSH2 0x1D12 JUMP JUMPDEST PUSH1 0x0 SWAP2 DUP3 MSTORE PUSH1 0x20 SWAP1 SWAP2 KECCAK256 PUSH1 0x3 SWAP1 SWAP2 MUL ADD SLOAD DUP7 MLOAD PUSH1 0x1 PUSH1 0x1 PUSH1 0xA0 SHL SUB SWAP1 SWAP2 AND SWAP1 DUP8 SWAP1 DUP5 SWAP1 DUP2 LT PUSH2 0xC12 JUMPI PUSH2 0xC12 PUSH2 0x1D12 JUMP JUMPDEST PUSH1 0x20 MUL PUSH1 0x20 ADD ADD SWAP1 PUSH1 0x1 PUSH1 0x1 PUSH1 0xA0 SHL SUB AND SWAP1 DUP2 PUSH1 0x1 PUSH1 0x1 PUSH1 0xA0 SHL SUB AND DUP2 MSTORE POP POP DUP4 DUP2 DUP2 SLOAD DUP2 LT PUSH2 0xC44 JUMPI PUSH2 0xC44 PUSH2 0x1D12 JUMP JUMPDEST SWAP1 PUSH1 0x0 MSTORE PUSH1 0x20 PUSH1 0x0 KECCAK256 SWAP1 PUSH1 0x3 MUL ADD PUSH1 0x1 ADD SLOAD DUP6 DUP4 DUP2 MLOAD DUP2 LT PUSH2 0xC68 JUMPI PUSH2 0xC68 PUSH2 0x1D12 JUMP JUMPDEST PUSH1 0x20 SWAP1 DUP2 MUL SWAP2 SWAP1 SWAP2 ADD ADD MSTORE DUP2 PUSH2 0xC7D DUP2 PUSH2 0x1EC9 JUMP JUMPDEST SWAP3 POP POP JUMPDEST PUSH1 0x1 ADD PUSH2 0xB98 JUMP JUMPDEST POP POP POP POP SWAP2 POP SWAP2 JUMP JUMPDEST PUSH2 0xC9A PUSH2 0x1481 JUMP JUMPDEST PUSH1 0x0 DUP2 DUP2 MSTORE PUSH1 0x2 PUSH1 0x20 MSTORE PUSH1 0x40 SWAP1 KECCAK256 PUSH1 0x3 DUP2 ADD SLOAD PUSH1 0xFF AND PUSH2 0xCCC JUMPI PUSH1 0x40 MLOAD PUSH3 0x461BCD PUSH1 0xE5 SHL DUP2 MSTORE PUSH1 0x4 ADD PUSH2 0x3E1 SWAP1 PUSH2 0x1C9D JUMP JUMPDEST PUSH1 0x3 DUP2 ADD SLOAD PUSH2 0x100 SWAP1 DIV PUSH1 0xFF AND ISZERO PUSH2 0xCF6 JUMPI PUSH1 0x40 MLOAD PUSH3 0x461BCD PUSH1 0xE5 SHL DUP2 MSTORE PUSH1 0x4 ADD PUSH2 0x3E1 SWAP1 PUSH2 0x1CC9 JUMP JUMPDEST PUSH1 0x1 DUP2 ADD SLOAD PUSH1 0x1 PUSH1 0x1 PUSH1 0xA0 SHL SUB AND CALLER SUB PUSH2 0xD52 JUMPI PUSH1 0x40 MLOAD PUSH3 0x461BCD PUSH1 0xE5 SHL DUP2 MSTORE PUSH1 0x20 PUSH1 0x4 DUP3 ADD DUP2 SWAP1 MSTORE PUSH1 0x24 DUP3 ADD MSTORE PUSH32 0x53656C6C65722063616E6E6F7420626964206F6E206F776E206C697374696E67 PUSH1 0x44 DUP3 ADD MSTORE PUSH1 0x64 ADD PUSH2 0x3E1 JUMP JUMPDEST DUP1 PUSH1 0x2 ADD SLOAD CALLVALUE LT ISZERO PUSH2 0xDA0 JUMPI PUSH1 0x40 MLOAD PUSH3 0x461BCD PUSH1 0xE5 SHL DUP2 MSTORE PUSH1 0x20 PUSH1 0x4 DUP3 ADD MSTORE PUSH1 0x17 PUSH1 0x24 DUP3 ADD MSTORE PUSH23 0x4269642062656C6F77206D696E696D756D207072696365 PUSH1 0x48 SHL PUSH1 0x44 DUP3 ADD MSTORE PUSH1 0x64 ADD PUSH2 0x3E1 JUMP JUMPDEST PUSH1 0x0 DUP3 DUP2 MSTORE PUSH1 0x3 PUSH1 0x20 DUP2 DUP2 MSTORE PUSH1 0x40 DUP1 DUP5 KECCAK256 DUP2 MLOAD PUSH1 0x60 DUP2 ADD DUP4 MSTORE CALLER DUP1 DUP3 MSTORE CALLVALUE DUP3 DUP7 ADD DUP2 DUP2 MSTORE PUSH1 0x1 DUP5 DUP8 ADD DUP2 DUP2 MSTORE DUP7 SLOAD DUP1 DUP4 ADD DUP9 SSTORE SWAP7 DUP12 MSTORE SWAP10 DUP9 SWAP1 KECCAK256 SWAP5 MLOAD SWAP6 SWAP1 SWAP9 MUL SWAP1 SWAP4 ADD DUP1 SLOAD PUSH1 0x1 PUSH1 0x1 PUSH1 0xA0 SHL SUB NOT AND PUSH1 0x1 PUSH1 0x1 PUSH1 0xA0 SHL SUB SWAP1 SWAP6 AND SWAP5 SWAP1 SWAP5 OR DUP5 SSTORE SWAP2 MLOAD SWAP6 DUP4 ADD SWAP6 SWAP1 SWAP6 SSTORE SWAP5 MLOAD PUSH1 0x2 SWAP1 SWAP2 ADD DUP1 SLOAD PUSH1 0xFF NOT AND SWAP2 ISZERO ISZERO SWAP2 SWAP1 SWAP2 OR SWAP1 SSTORE MLOAD SWAP3 DUP4 MSTORE SWAP1 SWAP2 DUP5 SWAP2 PUSH32 0xE54EFF26401BF69B81B26F60BD85EF47F5D85275C1D268D84F68D6897431C47 SWAP2 ADD PUSH1 0x40 MLOAD DUP1 SWAP2 SUB SWAP1 LOG3 POP PUSH2 0x488 PUSH1 0x1 PUSH1 0x0 SSTORE JUMP JUMPDEST PUSH1 0x3 PUSH1 0x20 MSTORE DUP2 PUSH1 0x0 MSTORE PUSH1 0x40 PUSH1 0x0 KECCAK256 DUP2 DUP2 SLOAD DUP2 LT PUSH2 0xE79 JUMPI PUSH1 0x0 DUP1 REVERT JUMPDEST PUSH1 0x0 SWAP2 DUP3 MSTORE PUSH1 0x20 SWAP1 SWAP2 KECCAK256 PUSH1 0x3 SWAP1 SWAP2 MUL ADD DUP1 SLOAD PUSH1 0x1 DUP3 ADD SLOAD PUSH1 0x2 SWAP1 SWAP3 ADD SLOAD PUSH1 0x1 PUSH1 0x1 PUSH1 0xA0 SHL SUB SWAP1 SWAP2 AND SWAP4 POP SWAP1 SWAP2 POP PUSH1 0xFF AND DUP4 JUMP JUMPDEST PUSH2 0xEB4 PUSH2 0x1481 JUMP JUMPDEST PUSH1 0x0 DUP2 DUP2 MSTORE PUSH1 0x2 PUSH1 0x20 MSTORE PUSH1 0x40 SWAP1 KECCAK256 PUSH1 0x3 DUP2 ADD SLOAD PUSH1 0xFF AND PUSH2 0xEE6 JUMPI PUSH1 0x40 MLOAD PUSH3 0x461BCD PUSH1 0xE5 SHL DUP2 MSTORE PUSH1 0x4 ADD PUSH2 0x3E1 SWAP1 PUSH2 0x1C9D JUMP JUMPDEST PUSH1 0x3 DUP2 ADD SLOAD PUSH2 0x100 SWAP1 DIV PUSH1 0xFF AND ISZERO PUSH2 0xF10 JUMPI PUSH1 0x40 MLOAD PUSH3 0x461BCD PUSH1 0xE5 SHL DUP2 MSTORE PUSH1 0x4 ADD PUSH2 0x3E1 SWAP1 PUSH2 0x1CC9 JUMP JUMPDEST PUSH1 0x1 DUP2 ADD SLOAD PUSH1 0x1 PUSH1 0x1 PUSH1 0xA0 SHL SUB AND CALLER EQ PUSH2 0xF61 JUMPI PUSH1 0x40 MLOAD PUSH3 0x461BCD PUSH1 0xE5 SHL DUP2 MSTORE PUSH1 0x20 PUSH1 0x4 DUP3 ADD MSTORE PUSH1 0x12 PUSH1 0x24 DUP3 ADD MSTORE PUSH18 0x596F752063616E6E6F742065786563757465 PUSH1 0x70 SHL PUSH1 0x44 DUP3 ADD MSTORE PUSH1 0x64 ADD PUSH2 0x3E1 JUMP JUMPDEST PUSH1 0x3 DUP2 ADD DUP1 SLOAD PUSH2 0xFFFF NOT AND PUSH2 0x100 OR SWAP1 SSTORE PUSH1 0x0 DUP1 DUP1 DUP1 DUP1 JUMPDEST PUSH1 0x0 DUP8 DUP2 MSTORE PUSH1 0x3 PUSH1 0x20 MSTORE PUSH1 0x40 SWAP1 KECCAK256 SLOAD DUP2 LT ISZERO PUSH2 0x1006 JUMPI PUSH1 0x0 DUP8 DUP2 MSTORE PUSH1 0x3 PUSH1 0x20 MSTORE PUSH1 0x40 DUP2 KECCAK256 DUP1 SLOAD DUP4 SWAP1 DUP2 LT PUSH2 0xFAF JUMPI PUSH2 0xFAF PUSH2 0x1D12 JUMP JUMPDEST PUSH1 0x0 SWAP2 DUP3 MSTORE PUSH1 0x20 SWAP1 SWAP2 KECCAK256 PUSH1 0x3 SWAP1 SWAP2 MUL ADD PUSH1 0x2 DUP2 ADD SLOAD SWAP1 SWAP2 POP PUSH1 0xFF AND DUP1 ISZERO PUSH2 0xFD9 JUMPI POP DUP6 DUP2 PUSH1 0x1 ADD SLOAD GT JUMPDEST ISZERO PUSH2 0xFFD JUMPI PUSH1 0x1 DUP1 DUP3 ADD SLOAD DUP3 SLOAD SWAP1 SWAP8 POP PUSH1 0x1 PUSH1 0x1 PUSH1 0xA0 SHL SUB AND SWAP6 POP SWAP2 SWAP4 POP SWAP1 SWAP2 POP DUP3 SWAP1 JUMPDEST POP PUSH1 0x1 ADD PUSH2 0xF79 JUMP JUMPDEST POP DUP1 DUP1 ISZERO PUSH2 0x1018 JUMPI POP DUP5 PUSH1 0x2 ADD SLOAD DUP5 LT ISZERO JUMPDEST ISZERO PUSH2 0x1102 JUMPI PUSH1 0x0 DUP7 DUP2 MSTORE PUSH1 0x3 PUSH1 0x20 MSTORE PUSH1 0x40 DUP2 KECCAK256 DUP1 SLOAD DUP5 SWAP1 DUP2 LT PUSH2 0x103D JUMPI PUSH2 0x103D PUSH2 0x1D12 JUMP JUMPDEST PUSH1 0x0 SWAP2 DUP3 MSTORE PUSH1 0x20 DUP3 KECCAK256 PUSH1 0x3 SWAP2 SWAP1 SWAP2 MUL ADD PUSH1 0x2 ADD DUP1 SLOAD PUSH1 0xFF NOT AND SWAP3 ISZERO ISZERO SWAP3 SWAP1 SWAP3 OR SWAP1 SWAP2 SSTORE PUSH1 0x1 DUP7 ADD SLOAD PUSH1 0x40 MLOAD PUSH1 0x1 PUSH1 0x1 PUSH1 0xA0 SHL SUB SWAP1 SWAP2 AND SWAP2 PUSH2 0x8FC DUP8 ISZERO MUL SWAP2 DUP8 SWAP2 DUP2 DUP2 DUP2 DUP6 DUP9 DUP9 CALL SWAP4 POP POP POP POP ISZERO DUP1 ISZERO PUSH2 0x109A JUMPI RETURNDATASIZE PUSH1 0x0 DUP1 RETURNDATACOPY RETURNDATASIZE PUSH1 0x0 REVERT JUMPDEST POP DUP5 SLOAD PUSH1 0x1 DUP7 ADD SLOAD PUSH2 0x10B6 SWAP2 SWAP1 PUSH1 0x1 PUSH1 0x1 PUSH1 0xA0 SHL SUB AND DUP6 PUSH2 0x166E JUMP JUMPDEST DUP6 PUSH32 0xA61F9B5A0A92578EA5CD1DBC470C2F232A62ECFDABB857DB6CA084EE2B5AC335 PUSH1 0x1 DUP6 DUP8 PUSH1 0x40 MLOAD PUSH2 0x10EB SWAP4 SWAP3 SWAP2 SWAP1 PUSH2 0x1EE2 JUMP JUMPDEST PUSH1 0x40 MLOAD DUP1 SWAP2 SUB SWAP1 LOG2 PUSH2 0x10FD DUP7 DUP4 PUSH2 0x1924 JUMP JUMPDEST PUSH2 0x114A JUMP JUMPDEST PUSH2 0x110B DUP7 PUSH2 0x14DA JUMP JUMPDEST DUP6 PUSH32 0xA61F9B5A0A92578EA5CD1DBC470C2F232A62ECFDABB857DB6CA084EE2B5AC335 PUSH1 0x0 DUP1 PUSH1 0x0 PUSH1 0x40 MLOAD PUSH2 0x1141 SWAP4 SWAP3 SWAP2 SWAP1 PUSH2 0x1EE2 JUMP JUMPDEST PUSH1 0x40 MLOAD DUP1 SWAP2 SUB SWAP1 LOG2 JUMPDEST POP POP POP POP POP PUSH2 0x488 PUSH1 0x1 PUSH1 0x0 SSTORE JUMP JUMPDEST PUSH2 0x1161 PUSH2 0x1481 JUMP JUMPDEST PUSH1 0x0 DUP3 GT PUSH2 0x11B1 JUMPI PUSH1 0x40 MLOAD PUSH3 0x461BCD PUSH1 0xE5 SHL DUP2 MSTORE PUSH1 0x20 PUSH1 0x4 DUP3 ADD MSTORE PUSH1 0x1E PUSH1 0x24 DUP3 ADD MSTORE PUSH32 0x4D696E696D756D207072696365206D75737420626520706F7369746976650000 PUSH1 0x44 DUP3 ADD MSTORE PUSH1 0x64 ADD PUSH2 0x3E1 JUMP JUMPDEST PUSH1 0x0 DUP4 DUP2 MSTORE PUSH1 0x5 PUSH1 0x20 MSTORE PUSH1 0x40 SWAP1 KECCAK256 PUSH1 0x2 ADD SLOAD PUSH1 0xFF AND PUSH2 0x11D3 JUMPI PUSH2 0x11D3 DUP4 PUSH2 0x624 JUMP JUMPDEST PUSH1 0x0 DUP4 DUP2 MSTORE PUSH1 0x5 PUSH1 0x20 SWAP1 DUP2 MSTORE PUSH1 0x40 DUP1 DUP4 KECCAK256 CALLER DUP5 MSTORE SWAP1 SWAP2 MSTORE SWAP1 KECCAK256 SLOAD PUSH1 0x1 GT ISZERO PUSH2 0x1247 JUMPI PUSH1 0x40 MLOAD PUSH3 0x461BCD PUSH1 0xE5 SHL DUP2 MSTORE PUSH1 0x20 PUSH1 0x4 DUP3 ADD MSTORE PUSH1 0x21 PUSH1 0x24 DUP3 ADD MSTORE PUSH32 0x4D757374206F776E206174206C65617374203120736861726520746F2073656C PUSH1 0x44 DUP3 ADD MSTORE PUSH1 0x1B PUSH1 0xFA SHL PUSH1 0x64 DUP3 ADD MSTORE PUSH1 0x84 ADD PUSH2 0x3E1 JUMP JUMPDEST PUSH1 0x4 DUP1 SLOAD SWAP1 PUSH1 0x0 PUSH2 0x1257 DUP4 PUSH2 0x1EC9 JUMP JUMPDEST SWAP1 SWAP2 SSTORE POP POP PUSH1 0x40 DUP1 MLOAD PUSH1 0xA0 DUP2 ADD DUP3 MSTORE DUP5 DUP2 MSTORE CALLER PUSH1 0x20 DUP1 DUP4 ADD DUP3 DUP2 MSTORE DUP4 DUP6 ADD DUP8 DUP2 MSTORE PUSH1 0x1 PUSH1 0x60 DUP7 ADD DUP2 DUP2 MSTORE PUSH1 0x0 PUSH1 0x80 DUP9 ADD DUP2 DUP2 MSTORE PUSH1 0x4 DUP1 SLOAD DUP4 MSTORE PUSH1 0x2 SWAP8 DUP9 SWAP1 MSTORE SWAP10 SWAP1 SWAP2 KECCAK256 SWAP8 MLOAD DUP9 SSTORE SWAP4 MLOAD SWAP2 DUP8 ADD DUP1 SLOAD PUSH1 0x1 PUSH1 0x1 PUSH1 0xA0 SHL SUB NOT AND PUSH1 0x1 PUSH1 0x1 PUSH1 0xA0 SHL SUB SWAP1 SWAP4 AND SWAP3 SWAP1 SWAP3 OR SWAP1 SWAP2 SSTORE SWAP1 MLOAD SWAP3 DUP6 ADD SWAP3 SWAP1 SWAP3 SSTORE SWAP1 MLOAD PUSH1 0x3 SWAP1 SWAP4 ADD DUP1 SLOAD SWAP2 MLOAD PUSH2 0xFFFF NOT SWAP1 SWAP3 AND SWAP4 ISZERO ISZERO PUSH2 0xFF00 NOT AND SWAP4 SWAP1 SWAP4 OR PUSH2 0x100 SWAP2 ISZERO ISZERO SWAP2 SWAP1 SWAP2 MUL OR SWAP1 SWAP2 SSTORE SWAP1 SLOAD DUP5 SWAP1 PUSH32 0x492D2294F1B8A982001DA6ECB3DE3A374AD9C29C9C8D5AD43DA90CC50B585136 DUP6 PUSH2 0x1326 DUP7 TIMESTAMP PUSH2 0x1F03 JUMP JUMPDEST PUSH1 0x40 DUP1 MLOAD SWAP3 DUP4 MSTORE PUSH1 0x20 DUP4 ADD SWAP2 SWAP1 SWAP2 MSTORE ADD PUSH1 0x40 MLOAD DUP1 SWAP2 SUB SWAP1 LOG4 PUSH2 0x1348 PUSH1 0x1 PUSH1 0x0 SSTORE JUMP JUMPDEST POP POP POP JUMP JUMPDEST PUSH1 0x0 DUP3 DUP2 MSTORE PUSH1 0x5 PUSH1 0x20 MSTORE PUSH1 0x40 DUP2 KECCAK256 PUSH1 0x2 ADD SLOAD PUSH1 0xFF AND PUSH2 0x1456 JUMPI PUSH1 0x1 SLOAD PUSH1 0x40 MLOAD PUSH4 0x686735C5 PUSH1 0xE0 SHL DUP2 MSTORE PUSH1 0x4 DUP2 ADD DUP6 SWAP1 MSTORE PUSH1 0x0 SWAP2 DUP3 SWAP2 PUSH1 0x1 PUSH1 0x1 PUSH1 0xA0 SHL SUB SWAP1 SWAP2 AND SWAP1 PUSH4 0x686735C5 SWAP1 PUSH1 0x24 ADD PUSH1 0x0 PUSH1 0x40 MLOAD DUP1 DUP4 SUB DUP2 DUP7 GAS STATICCALL ISZERO DUP1 ISZERO PUSH2 0x13B4 JUMPI RETURNDATASIZE PUSH1 0x0 DUP1 RETURNDATACOPY RETURNDATASIZE PUSH1 0x0 REVERT JUMPDEST POP POP POP POP PUSH1 0x40 MLOAD RETURNDATASIZE PUSH1 0x0 DUP3 RETURNDATACOPY PUSH1 0x1F RETURNDATASIZE SWAP1 DUP2 ADD PUSH1 0x1F NOT AND DUP3 ADD PUSH1 0x40 MSTORE PUSH2 0x13DC SWAP2 SWAP1 DUP2 ADD SWAP1 PUSH2 0x1DE8 JUMP JUMPDEST SWAP2 POP SWAP2 POP PUSH1 0x0 JUMPDEST DUP3 MLOAD DUP2 LT ISZERO PUSH2 0x144A JUMPI DUP5 PUSH1 0x1 PUSH1 0x1 PUSH1 0xA0 SHL SUB AND DUP4 DUP3 DUP2 MLOAD DUP2 LT PUSH2 0x1408 JUMPI PUSH2 0x1408 PUSH2 0x1D12 JUMP JUMPDEST PUSH1 0x20 MUL PUSH1 0x20 ADD ADD MLOAD PUSH1 0x1 PUSH1 0x1 PUSH1 0xA0 SHL SUB AND SUB PUSH2 0x1442 JUMPI DUP2 DUP2 DUP2 MLOAD DUP2 LT PUSH2 0x1430 JUMPI PUSH2 0x1430 PUSH2 0x1D12 JUMP JUMPDEST PUSH1 0x20 MUL PUSH1 0x20 ADD ADD MLOAD SWAP4 POP POP POP POP PUSH2 0x147B JUMP JUMPDEST PUSH1 0x1 ADD PUSH2 0x13E3 JUMP JUMPDEST POP PUSH1 0x0 SWAP3 POP POP POP PUSH2 0x147B JUMP JUMPDEST POP PUSH1 0x0 DUP3 DUP2 MSTORE PUSH1 0x5 PUSH1 0x20 SWAP1 DUP2 MSTORE PUSH1 0x40 DUP1 DUP4 KECCAK256 PUSH1 0x1 PUSH1 0x1 PUSH1 0xA0 SHL SUB DUP6 AND DUP5 MSTORE SWAP1 SWAP2 MSTORE SWAP1 KECCAK256 SLOAD JUMPDEST SWAP3 SWAP2 POP POP JUMP JUMPDEST PUSH1 0x2 PUSH1 0x0 SLOAD SUB PUSH2 0x14D3 JUMPI PUSH1 0x40 MLOAD PUSH3 0x461BCD PUSH1 0xE5 SHL DUP2 MSTORE PUSH1 0x20 PUSH1 0x4 DUP3 ADD MSTORE PUSH1 0x1F PUSH1 0x24 DUP3 ADD MSTORE PUSH32 0x5265656E7472616E637947756172643A207265656E7472616E742063616C6C00 PUSH1 0x44 DUP3 ADD MSTORE PUSH1 0x64 ADD PUSH2 0x3E1 JUMP JUMPDEST PUSH1 0x2 PUSH1 0x0 SSTORE JUMP JUMPDEST PUSH1 0x0 JUMPDEST PUSH1 0x0 DUP3 DUP2 MSTORE PUSH1 0x3 PUSH1 0x20 MSTORE PUSH1 0x40 SWAP1 KECCAK256 SLOAD DUP2 LT ISZERO PUSH2 0x166A JUMPI PUSH1 0x0 DUP3 DUP2 MSTORE PUSH1 0x3 PUSH1 0x20 MSTORE PUSH1 0x40 SWAP1 KECCAK256 DUP1 SLOAD DUP3 SWAP1 DUP2 LT PUSH2 0x1513 JUMPI PUSH2 0x1513 PUSH2 0x1D12 JUMP JUMPDEST PUSH1 0x0 SWAP2 DUP3 MSTORE PUSH1 0x20 SWAP1 SWAP2 KECCAK256 PUSH1 0x2 PUSH1 0x3 SWAP1 SWAP3 MUL ADD ADD SLOAD PUSH1 0xFF AND ISZERO PUSH2 0x1662 JUMPI PUSH1 0x0 DUP3 DUP2 MSTORE PUSH1 0x3 PUSH1 0x20 MSTORE PUSH1 0x40 DUP2 KECCAK256 DUP1 SLOAD DUP4 SWAP1 DUP2 LT PUSH2 0x154F JUMPI PUSH2 0x154F PUSH2 0x1D12 JUMP JUMPDEST PUSH1 0x0 SWAP2 DUP3 MSTORE PUSH1 0x20 DUP1 DUP4 KECCAK256 PUSH1 0x3 SWAP3 DUP4 MUL ADD SLOAD DUP7 DUP5 MSTORE SWAP2 SWAP1 MSTORE PUSH1 0x40 DUP3 KECCAK256 DUP1 SLOAD PUSH1 0x1 PUSH1 0x1 PUSH1 0xA0 SHL SUB SWAP1 SWAP3 AND SWAP4 POP SWAP1 DUP5 SWAP1 DUP2 LT PUSH2 0x158A JUMPI PUSH2 0x158A PUSH2 0x1D12 JUMP JUMPDEST SWAP1 PUSH1 0x0 MSTORE PUSH1 0x20 PUSH1 0x0 KECCAK256 SWAP1 PUSH1 0x3 MUL ADD PUSH1 0x1 ADD SLOAD SWAP1 POP PUSH1 0x0 PUSH1 0x3 PUSH1 0x0 DUP7 DUP2 MSTORE PUSH1 0x20 ADD SWAP1 DUP2 MSTORE PUSH1 0x20 ADD PUSH1 0x0 KECCAK256 DUP5 DUP2 SLOAD DUP2 LT PUSH2 0x15C4 JUMPI PUSH2 0x15C4 PUSH2 0x1D12 JUMP JUMPDEST PUSH1 0x0 SWAP2 DUP3 MSTORE PUSH1 0x20 DUP3 KECCAK256 PUSH1 0x3 SWAP2 SWAP1 SWAP2 MUL ADD PUSH1 0x2 ADD DUP1 SLOAD PUSH1 0xFF NOT AND SWAP3 ISZERO ISZERO SWAP3 SWAP1 SWAP3 OR SWAP1 SWAP2 SSTORE PUSH1 0x40 MLOAD PUSH1 0x1 PUSH1 0x1 PUSH1 0xA0 SHL SUB DUP5 AND SWAP2 PUSH2 0x8FC DUP5 ISZERO MUL SWAP2 DUP5 SWAP2 DUP2 DUP2 DUP2 DUP6 DUP9 DUP9 CALL SWAP4 POP POP POP POP ISZERO DUP1 ISZERO PUSH2 0x161B JUMPI RETURNDATASIZE PUSH1 0x0 DUP1 RETURNDATACOPY RETURNDATASIZE PUSH1 0x0 REVERT JUMPDEST POP DUP2 PUSH1 0x1 PUSH1 0x1 PUSH1 0xA0 SHL SUB AND PUSH32 0xA171B6942063C6F2800CE40A780EDCE37BAA2B618571B11EEDD1E69E626E7D76 DUP3 PUSH1 0x40 MLOAD PUSH2 0x1657 SWAP2 DUP2 MSTORE PUSH1 0x20 ADD SWAP1 JUMP JUMPDEST PUSH1 0x40 MLOAD DUP1 SWAP2 SUB SWAP1 LOG2 POP POP JUMPDEST PUSH1 0x1 ADD PUSH2 0x14DD JUMP JUMPDEST POP POP JUMP JUMPDEST PUSH1 0x0 DUP4 DUP2 MSTORE PUSH1 0x5 PUSH1 0x20 MSTORE PUSH1 0x40 SWAP1 KECCAK256 PUSH1 0x2 ADD SLOAD PUSH1 0xFF AND PUSH2 0x1690 JUMPI PUSH2 0x1690 DUP4 PUSH2 0x624 JUMP JUMPDEST PUSH1 0x0 DUP4 DUP2 MSTORE PUSH1 0x5 PUSH1 0x20 SWAP1 DUP2 MSTORE PUSH1 0x40 DUP1 DUP4 KECCAK256 PUSH1 0x1 PUSH1 0x1 PUSH1 0xA0 SHL SUB DUP7 AND DUP5 MSTORE SWAP1 SWAP2 MSTORE SWAP1 KECCAK256 SLOAD PUSH2 0x16BE SWAP1 PUSH1 0x1 PUSH2 0x1AC0 JUMP JUMPDEST PUSH1 0x0 DUP5 DUP2 MSTORE PUSH1 0x5 PUSH1 0x20 SWAP1 DUP2 MSTORE PUSH1 0x40 DUP1 DUP4 KECCAK256 PUSH1 0x1 PUSH1 0x1 PUSH1 0xA0 SHL SUB DUP8 DUP2 AND DUP6 MSTORE SWAP3 MSTORE DUP1 DUP4 KECCAK256 SWAP4 SWAP1 SWAP4 SSTORE DUP4 AND DUP2 MSTORE SWAP1 DUP2 KECCAK256 SLOAD SWAP1 SUB PUSH2 0x172E JUMPI PUSH1 0x0 DUP4 DUP2 MSTORE PUSH1 0x5 PUSH1 0x20 SWAP1 DUP2 MSTORE PUSH1 0x40 DUP3 KECCAK256 PUSH1 0x1 SWAP1 DUP2 ADD DUP1 SLOAD SWAP2 DUP3 ADD DUP2 SSTORE DUP4 MSTORE SWAP2 KECCAK256 ADD DUP1 SLOAD PUSH1 0x1 PUSH1 0x1 PUSH1 0xA0 SHL SUB NOT AND PUSH1 0x1 PUSH1 0x1 PUSH1 0xA0 SHL SUB DUP4 AND OR SWAP1 SSTORE JUMPDEST PUSH1 0x0 DUP4 DUP2 MSTORE PUSH1 0x5 PUSH1 0x20 SWAP1 DUP2 MSTORE PUSH1 0x40 DUP1 DUP4 KECCAK256 PUSH1 0x1 PUSH1 0x1 PUSH1 0xA0 SHL SUB DUP6 AND DUP5 MSTORE SWAP1 SWAP2 MSTORE SWAP1 KECCAK256 SLOAD PUSH2 0x175C SWAP1 PUSH1 0x1 PUSH2 0x1AD3 JUMP JUMPDEST PUSH1 0x0 DUP5 DUP2 MSTORE PUSH1 0x5 PUSH1 0x20 SWAP1 DUP2 MSTORE PUSH1 0x40 DUP1 DUP4 KECCAK256 PUSH1 0x1 PUSH1 0x1 PUSH1 0xA0 SHL SUB DUP7 DUP2 AND DUP6 MSTORE SWAP3 MSTORE DUP1 DUP4 KECCAK256 SWAP4 SWAP1 SWAP4 SSTORE DUP5 AND DUP2 MSTORE SWAP1 DUP2 KECCAK256 SLOAD SWAP1 SUB PUSH2 0x18DE JUMPI PUSH1 0x0 JUMPDEST PUSH1 0x0 DUP5 DUP2 MSTORE PUSH1 0x5 PUSH1 0x20 MSTORE PUSH1 0x40 SWAP1 KECCAK256 PUSH1 0x1 ADD SLOAD DUP2 LT ISZERO PUSH2 0x18DC JUMPI PUSH1 0x0 DUP5 DUP2 MSTORE PUSH1 0x5 PUSH1 0x20 MSTORE PUSH1 0x40 SWAP1 KECCAK256 PUSH1 0x1 ADD DUP1 SLOAD PUSH1 0x1 PUSH1 0x1 PUSH1 0xA0 SHL SUB DUP6 AND SWAP2 SWAP1 DUP4 SWAP1 DUP2 LT PUSH2 0x17DC JUMPI PUSH2 0x17DC PUSH2 0x1D12 JUMP JUMPDEST PUSH1 0x0 SWAP2 DUP3 MSTORE PUSH1 0x20 SWAP1 SWAP2 KECCAK256 ADD SLOAD PUSH1 0x1 PUSH1 0x1 PUSH1 0xA0 SHL SUB AND SUB PUSH2 0x18D4 JUMPI PUSH1 0x0 DUP5 DUP2 MSTORE PUSH1 0x5 PUSH1 0x20 MSTORE PUSH1 0x40 SWAP1 KECCAK256 PUSH1 0x1 SWAP1 DUP2 ADD DUP1 SLOAD SWAP1 SWAP2 PUSH2 0x1816 SWAP2 PUSH2 0x1F16 JUMP JUMPDEST DUP2 SLOAD DUP2 LT PUSH2 0x1826 JUMPI PUSH2 0x1826 PUSH2 0x1D12 JUMP JUMPDEST PUSH1 0x0 SWAP2 DUP3 MSTORE PUSH1 0x20 DUP1 DUP4 KECCAK256 SWAP1 SWAP2 ADD SLOAD DUP7 DUP4 MSTORE PUSH1 0x5 SWAP1 SWAP2 MSTORE PUSH1 0x40 SWAP1 SWAP2 KECCAK256 PUSH1 0x1 ADD DUP1 SLOAD PUSH1 0x1 PUSH1 0x1 PUSH1 0xA0 SHL SUB SWAP1 SWAP3 AND SWAP2 DUP4 SWAP1 DUP2 LT PUSH2 0x1862 JUMPI PUSH2 0x1862 PUSH2 0x1D12 JUMP JUMPDEST PUSH1 0x0 SWAP2 DUP3 MSTORE PUSH1 0x20 DUP1 DUP4 KECCAK256 SWAP2 SWAP1 SWAP2 ADD DUP1 SLOAD PUSH1 0x1 PUSH1 0x1 PUSH1 0xA0 SHL SUB NOT AND PUSH1 0x1 PUSH1 0x1 PUSH1 0xA0 SHL SUB SWAP5 SWAP1 SWAP5 AND SWAP4 SWAP1 SWAP4 OR SWAP1 SWAP3 SSTORE DUP6 DUP2 MSTORE PUSH1 0x5 SWAP1 SWAP2 MSTORE PUSH1 0x40 SWAP1 KECCAK256 PUSH1 0x1 ADD DUP1 SLOAD DUP1 PUSH2 0x18AD JUMPI PUSH2 0x18AD PUSH2 0x1F29 JUMP JUMPDEST PUSH1 0x0 DUP3 DUP2 MSTORE PUSH1 0x20 SWAP1 KECCAK256 DUP2 ADD PUSH1 0x0 NOT SWAP1 DUP2 ADD DUP1 SLOAD PUSH1 0x1 PUSH1 0x1 PUSH1 0xA0 SHL SUB NOT AND SWAP1 SSTORE ADD SWAP1 SSTORE PUSH2 0x18DC JUMP JUMPDEST PUSH1 0x1 ADD PUSH2 0x1794 JUMP JUMPDEST POP JUMPDEST DUP1 PUSH1 0x1 PUSH1 0x1 PUSH1 0xA0 SHL SUB AND DUP3 PUSH1 0x1 PUSH1 0x1 PUSH1 0xA0 SHL SUB AND DUP5 PUSH32 0xBDF77FD986065D8FC49E770B42F0E133BB498A86D7D958A01CBBED564D678AC PUSH1 0x40 MLOAD PUSH1 0x40 MLOAD DUP1 SWAP2 SUB SWAP1 LOG4 POP POP POP JUMP JUMPDEST PUSH1 0x0 JUMPDEST PUSH1 0x0 DUP4 DUP2 MSTORE PUSH1 0x3 PUSH1 0x20 MSTORE PUSH1 0x40 SWAP1 KECCAK256 SLOAD DUP2 LT ISZERO PUSH2 0x1348 JUMPI DUP2 DUP2 EQ ISZERO DUP1 ISZERO PUSH2 0x1980 JUMPI POP PUSH1 0x0 DUP4 DUP2 MSTORE PUSH1 0x3 PUSH1 0x20 MSTORE PUSH1 0x40 SWAP1 KECCAK256 DUP1 SLOAD DUP3 SWAP1 DUP2 LT PUSH2 0x1968 JUMPI PUSH2 0x1968 PUSH2 0x1D12 JUMP JUMPDEST PUSH1 0x0 SWAP2 DUP3 MSTORE PUSH1 0x20 SWAP1 SWAP2 KECCAK256 PUSH1 0x2 PUSH1 0x3 SWAP1 SWAP3 MUL ADD ADD SLOAD PUSH1 0xFF AND JUMPDEST ISZERO PUSH2 0x1AB8 JUMPI PUSH1 0x0 DUP4 DUP2 MSTORE PUSH1 0x3 PUSH1 0x20 MSTORE PUSH1 0x40 DUP2 KECCAK256 DUP1 SLOAD DUP4 SWAP1 DUP2 LT PUSH2 0x19A5 JUMPI PUSH2 0x19A5 PUSH2 0x1D12 JUMP JUMPDEST PUSH1 0x0 SWAP2 DUP3 MSTORE PUSH1 0x20 DUP1 DUP4 KECCAK256 PUSH1 0x3 SWAP3 DUP4 MUL ADD SLOAD DUP8 DUP5 MSTORE SWAP2 SWAP1 MSTORE PUSH1 0x40 DUP3 KECCAK256 DUP1 SLOAD PUSH1 0x1 PUSH1 0x1 PUSH1 0xA0 SHL SUB SWAP1 SWAP3 AND SWAP4 POP SWAP1 DUP5 SWAP1 DUP2 LT PUSH2 0x19E0 JUMPI PUSH2 0x19E0 PUSH2 0x1D12 JUMP JUMPDEST SWAP1 PUSH1 0x0 MSTORE PUSH1 0x20 PUSH1 0x0 KECCAK256 SWAP1 PUSH1 0x3 MUL ADD PUSH1 0x1 ADD SLOAD SWAP1 POP PUSH1 0x0 PUSH1 0x3 PUSH1 0x0 DUP8 DUP2 MSTORE PUSH1 0x20 ADD SWAP1 DUP2 MSTORE PUSH1 0x20 ADD PUSH1 0x0 KECCAK256 DUP5 DUP2 SLOAD DUP2 LT PUSH2 0x1A1A JUMPI PUSH2 0x1A1A PUSH2 0x1D12 JUMP JUMPDEST PUSH1 0x0 SWAP2 DUP3 MSTORE PUSH1 0x20 DUP3 KECCAK256 PUSH1 0x3 SWAP2 SWAP1 SWAP2 MUL ADD PUSH1 0x2 ADD DUP1 SLOAD PUSH1 0xFF NOT AND SWAP3 ISZERO ISZERO SWAP3 SWAP1 SWAP3 OR SWAP1 SWAP2 SSTORE PUSH1 0x40 MLOAD PUSH1 0x1 PUSH1 0x1 PUSH1 0xA0 SHL SUB DUP5 AND SWAP2 PUSH2 0x8FC DUP5 ISZERO MUL SWAP2 DUP5 SWAP2 DUP2 DUP2 DUP2 DUP6 DUP9 DUP9 CALL SWAP4 POP POP POP POP ISZERO DUP1 ISZERO PUSH2 0x1A71 JUMPI RETURNDATASIZE PUSH1 0x0 DUP1 RETURNDATACOPY RETURNDATASIZE PUSH1 0x0 REVERT JUMPDEST POP DUP2 PUSH1 0x1 PUSH1 0x1 PUSH1 0xA0 SHL SUB AND PUSH32 0xA171B6942063C6F2800CE40A780EDCE37BAA2B618571B11EEDD1E69E626E7D76 DUP3 PUSH1 0x40 MLOAD PUSH2 0x1AAD SWAP2 DUP2 MSTORE PUSH1 0x20 ADD SWAP1 JUMP JUMPDEST PUSH1 0x40 MLOAD DUP1 SWAP2 SUB SWAP1 LOG2 POP POP JUMPDEST PUSH1 0x1 ADD PUSH2 0x1927 JUMP JUMPDEST PUSH1 0x0 PUSH2 0x1ACC DUP3 DUP5 PUSH2 0x1F16 JUMP JUMPDEST SWAP4 SWAP3 POP POP POP JUMP JUMPDEST PUSH1 0x0 PUSH2 0x1ACC DUP3 DUP5 PUSH2 0x1F03 JUMP JUMPDEST PUSH1 0x0 PUSH1 0x20 DUP3 DUP5 SUB SLT ISZERO PUSH2 0x1AF1 JUMPI PUSH1 0x0 DUP1 REVERT JUMPDEST POP CALLDATALOAD SWAP2 SWAP1 POP JUMP JUMPDEST PUSH1 0x0 DUP2 MLOAD DUP1 DUP5 MSTORE PUSH1 0x20 DUP5 ADD SWAP4 POP PUSH1 0x20 DUP4 ADD PUSH1 0x0 JUMPDEST DUP3 DUP2 LT ISZERO PUSH2 0x1B33 JUMPI DUP2 MLOAD PUSH1 0x1 PUSH1 0x1 PUSH1 0xA0 SHL SUB AND DUP7 MSTORE PUSH1 0x20 SWAP6 DUP7 ADD SWAP6 SWAP1 SWAP2 ADD SWAP1 PUSH1 0x1 ADD PUSH2 0x1B0C JUMP JUMPDEST POP SWAP4 SWAP5 SWAP4 POP POP POP POP JUMP JUMPDEST PUSH1 0x0 DUP2 MLOAD DUP1 DUP5 MSTORE PUSH1 0x20 DUP5 ADD SWAP4 POP PUSH1 0x20 DUP4 ADD PUSH1 0x0 JUMPDEST DUP3 DUP2 LT ISZERO PUSH2 0x1B33 JUMPI DUP2 MLOAD DUP7 MSTORE PUSH1 0x20 SWAP6 DUP7 ADD SWAP6 SWAP1 SWAP2 ADD SWAP1 PUSH1 0x1 ADD PUSH2 0x1B51 JUMP JUMPDEST PUSH1 0x40 DUP2 MSTORE PUSH1 0x0 PUSH2 0x1B82 PUSH1 0x40 DUP4 ADD DUP6 PUSH2 0x1AF8 JUMP JUMPDEST DUP3 DUP2 SUB PUSH1 0x20 DUP5 ADD MSTORE PUSH2 0x1B94 DUP2 DUP6 PUSH2 0x1B3D JUMP JUMPDEST SWAP6 SWAP5 POP POP POP POP POP JUMP JUMPDEST PUSH1 0xA0 DUP2 MSTORE PUSH1 0x0 PUSH2 0x1BB0 PUSH1 0xA0 DUP4 ADD DUP9 PUSH2 0x1B3D JUMP JUMPDEST DUP3 DUP2 SUB PUSH1 0x20 DUP5 ADD MSTORE PUSH2 0x1BC2 DUP2 DUP9 PUSH2 0x1B3D JUMP JUMPDEST SWAP1 POP DUP3 DUP2 SUB PUSH1 0x40 DUP5 ADD MSTORE PUSH2 0x1BD6 DUP2 DUP8 PUSH2 0x1AF8 JUMP JUMPDEST SWAP1 POP DUP3 DUP2 SUB PUSH1 0x60 DUP5 ADD MSTORE PUSH2 0x1BEA DUP2 DUP7 PUSH2 0x1B3D JUMP JUMPDEST SWAP1 POP DUP3 DUP2 SUB PUSH1 0x80 DUP5 ADD MSTORE PUSH2 0x1BFE DUP2 DUP6 PUSH2 0x1B3D JUMP JUMPDEST SWAP9 SWAP8 POP POP POP POP POP POP POP POP JUMP JUMPDEST PUSH1 0x0 DUP1 PUSH1 0x40 DUP4 DUP6 SUB SLT ISZERO PUSH2 0x1C1D JUMPI PUSH1 0x0 DUP1 REVERT JUMPDEST POP POP DUP1 CALLDATALOAD SWAP3 PUSH1 0x20 SWAP1 SWAP2 ADD CALLDATALOAD SWAP2 POP JUMP JUMPDEST PUSH1 0x0 DUP1 PUSH1 0x0 PUSH1 0x60 DUP5 DUP7 SUB SLT ISZERO PUSH2 0x1C41 JUMPI PUSH1 0x0 DUP1 REVERT JUMPDEST POP POP DUP2 CALLDATALOAD SWAP4 PUSH1 0x20 DUP4 ADD CALLDATALOAD SWAP4 POP PUSH1 0x40 SWAP1 SWAP3 ADD CALLDATALOAD SWAP2 SWAP1 POP JUMP JUMPDEST PUSH1 0x1 PUSH1 0x1 PUSH1 0xA0 SHL SUB DUP2 AND DUP2 EQ PUSH2 0x488 JUMPI PUSH1 0x0 DUP1 REVERT JUMPDEST PUSH1 0x0 DUP1 PUSH1 0x40 DUP4 DUP6 SUB SLT ISZERO PUSH2 0x1C80 JUMPI PUSH1 0x0 DUP1 REVERT JUMPDEST DUP3 CALLDATALOAD SWAP2 POP PUSH1 0x20 DUP4 ADD CALLDATALOAD PUSH2 0x1C92 DUP2 PUSH2 0x1C58 JUMP JUMPDEST DUP1 SWAP2 POP POP SWAP3 POP SWAP3 SWAP1 POP JUMP JUMPDEST PUSH1 0x20 DUP1 DUP3 MSTORE PUSH1 0x12 SWAP1 DUP3 ADD MSTORE PUSH18 0x4C697374696E67206E6F7420616374697665 PUSH1 0x70 SHL PUSH1 0x40 DUP3 ADD MSTORE PUSH1 0x60 ADD SWAP1 JUMP JUMPDEST PUSH1 0x20 DUP1 DUP3 MSTORE PUSH1 0x19 SWAP1 DUP3 ADD MSTORE PUSH25 0x131A5CDD1A5B99C8185B1C9958591E4818DBDB5C1B195D1959 PUSH1 0x3A SHL PUSH1 0x40 DUP3 ADD MSTORE PUSH1 0x60 ADD SWAP1 JUMP JUMPDEST PUSH4 0x4E487B71 PUSH1 0xE0 SHL PUSH1 0x0 MSTORE PUSH1 0x41 PUSH1 0x4 MSTORE PUSH1 0x24 PUSH1 0x0 REVERT JUMPDEST PUSH4 0x4E487B71 PUSH1 0xE0 SHL PUSH1 0x0 MSTORE PUSH1 0x32 PUSH1 0x4 MSTORE PUSH1 0x24 PUSH1 0x0 REVERT JUMPDEST PUSH1 0x40 MLOAD PUSH1 0x1F DUP3 ADD PUSH1 0x1F NOT AND DUP2 ADD PUSH1 0x1 PUSH1 0x1 PUSH1 0x40 SHL SUB DUP2 GT DUP3 DUP3 LT OR ISZERO PUSH2 0x1D50 JUMPI PUSH2 0x1D50 PUSH2 0x1CFC JUMP JUMPDEST PUSH1 0x40 MSTORE SWAP2 SWAP1 POP JUMP JUMPDEST PUSH1 0x0 PUSH1 0x1 PUSH1 0x1 PUSH1 0x40 SHL SUB DUP3 GT ISZERO PUSH2 0x1D71 JUMPI PUSH2 0x1D71 PUSH2 0x1CFC JUMP JUMPDEST POP PUSH1 0x5 SHL PUSH1 0x20 ADD SWAP1 JUMP JUMPDEST PUSH1 0x0 DUP3 PUSH1 0x1F DUP4 ADD SLT PUSH2 0x1D8C JUMPI PUSH1 0x0 DUP1 REVERT JUMPDEST DUP2 MLOAD PUSH2 0x1D9F PUSH2 0x1D9A DUP3 PUSH2 0x1D58 JUMP JUMPDEST PUSH2 0x1D28 JUMP JUMPDEST DUP1 DUP3 DUP3 MSTORE PUSH1 0x20 DUP3 ADD SWAP2 POP PUSH1 0x20 DUP4 PUSH1 0x5 SHL DUP7 ADD ADD SWAP3 POP DUP6 DUP4 GT ISZERO PUSH2 0x1DC1 JUMPI PUSH1 0x0 DUP1 REVERT JUMPDEST PUSH1 0x20 DUP6 ADD JUMPDEST DUP4 DUP2 LT ISZERO PUSH2 0x1DDE JUMPI DUP1 MLOAD DUP4 MSTORE PUSH1 0x20 SWAP3 DUP4 ADD SWAP3 ADD PUSH2 0x1DC6 JUMP JUMPDEST POP SWAP6 SWAP5 POP POP POP POP POP JUMP JUMPDEST PUSH1 0x0 DUP1 PUSH1 0x40 DUP4 DUP6 SUB SLT ISZERO PUSH2 0x1DFB JUMPI PUSH1 0x0 DUP1 REVERT JUMPDEST DUP3 MLOAD PUSH1 0x1 PUSH1 0x1 PUSH1 0x40 SHL SUB DUP2 GT ISZERO PUSH2 0x1E11 JUMPI PUSH1 0x0 DUP1 REVERT JUMPDEST DUP4 ADD PUSH1 0x1F DUP2 ADD DUP6 SGT PUSH2 0x1E22 JUMPI PUSH1 0x0 DUP1 REVERT JUMPDEST DUP1 MLOAD PUSH2 0x1E30 PUSH2 0x1D9A DUP3 PUSH2 0x1D58 JUMP JUMPDEST DUP1 DUP3 DUP3 MSTORE PUSH1 0x20 DUP3 ADD SWAP2 POP PUSH1 0x20 DUP4 PUSH1 0x5 SHL DUP6 ADD ADD SWAP3 POP DUP8 DUP4 GT ISZERO PUSH2 0x1E52 JUMPI PUSH1 0x0 DUP1 REVERT JUMPDEST PUSH1 0x20 DUP5 ADD SWAP4 POP JUMPDEST DUP3 DUP5 LT ISZERO PUSH2 0x1E7D JUMPI DUP4 MLOAD PUSH2 0x1E6C DUP2 PUSH2 0x1C58 JUMP JUMPDEST DUP3 MSTORE PUSH1 0x20 SWAP4 DUP5 ADD SWAP4 SWAP1 SWAP2 ADD SWAP1 PUSH2 0x1E59 JUMP JUMPDEST DUP1 SWAP6 POP POP POP POP POP PUSH1 0x20 DUP4 ADD MLOAD PUSH1 0x1 PUSH1 0x1 PUSH1 0x40 SHL SUB DUP2 GT ISZERO PUSH2 0x1E9D JUMPI PUSH1 0x0 DUP1 REVERT JUMPDEST PUSH2 0x1EA9 DUP6 DUP3 DUP7 ADD PUSH2 0x1D7B JUMP JUMPDEST SWAP2 POP POP SWAP3 POP SWAP3 SWAP1 POP JUMP JUMPDEST PUSH4 0x4E487B71 PUSH1 0xE0 SHL PUSH1 0x0 MSTORE PUSH1 0x11 PUSH1 0x4 MSTORE PUSH1 0x24 PUSH1 0x0 REVERT JUMPDEST PUSH1 0x0 PUSH1 0x1 DUP3 ADD PUSH2 0x1EDB JUMPI PUSH2 0x1EDB PUSH2 0x1EB3 JUMP JUMPDEST POP PUSH1 0x1 ADD SWAP1 JUMP JUMPDEST SWAP3 ISZERO ISZERO DUP4 MSTORE PUSH1 0x1 PUSH1 0x1 PUSH1 0xA0 SHL SUB SWAP2 SWAP1 SWAP2 AND PUSH1 0x20 DUP4 ADD MSTORE PUSH1 0x40 DUP3 ADD MSTORE PUSH1 0x60 ADD SWAP1 JUMP JUMPDEST DUP1 DUP3 ADD DUP1 DUP3 GT ISZERO PUSH2 0x147B JUMPI PUSH2 0x147B PUSH2 0x1EB3 JUMP JUMPDEST DUP2 DUP2 SUB DUP2 DUP2 GT ISZERO PUSH2 0x147B JUMPI PUSH2 0x147B PUSH2 0x1EB3 JUMP JUMPDEST PUSH4 0x4E487B71 PUSH1 0xE0 SHL PUSH1 0x0 MSTORE PUSH1 0x31 PUSH1 0x4 MSTORE PUSH1 0x24 PUSH1 0x0 REVERT INVALID LOG2 PUSH5 0x6970667358 0x22 SLT KECCAK256 SWAP2 PUSH2 0xEB40 PC 0x4F SWAP4 MCOPY 0xD5 ORIGIN 0xF PUSH18 0xF45FC40B5A4A5023DBF54D62C0E23C837675 PUSH27 0x5964736F6C634300081D0033000000000000000000000000000000 "
		},
		"gasEstimates": {
			"creation": {
				"codeDepositCost": "1610600",
				"executionCost": "infinite",
				"totalCost": "infinite"
			},
			"external": {
				"cancelListing(uint256)": "infinite",
				"createListing(uint256,uint256,uint256)": "infinite",
				"executeListing(uint256)": "infinite",
				"getActiveListings()": "infinite",
				"getAssetOwners(uint256)": "infinite",
				"getListingBids(uint256)": "infinite",
				"getListingDetails(uint256)": "9082",
				"getSharesOwned(uint256,address)": "infinite",
				"initialOfferingContract()": "2349",
				"initializeAssetOwnership(uint256)": "infinite",
				"listingBids(uint256,uint256)": "9006",
				"listingCount()": "2339",
				"listings(uint256)": "9035",
				"placeBid(uint256)": "152235"
			},
			"internal": {
				"_refundAllBids(uint256)": "infinite",
				"_refundUnsuccessfulBids(uint256,uint256)": "infinite",
				"_transferShare(uint256,address,address)": "infinite"
			}
		},
		"methodIdentifiers": {
			"cancelListing(uint256)": "305a67a8",
			"createListing(uint256,uint256,uint256)": "b03053b6",
			"executeListing(uint256)": "a137454a",
			"getActiveListings()": "87c35bc0",
			"getAssetOwners(uint256)": "686735c5",
			"getListingBids(uint256)": "90e467a1",
			"getListingDetails(uint256)": "fb05da2e",
			"getSharesOwned(uint256,address)": "e7ebadfe",
			"initialOfferingContract()": "4bbfdffe",
			"initializeAssetOwnership(uint256)": "83421efd",
			"listingBids(uint256,uint256)": "9da0e1dd",
			"listingCount()": "a9b07c26",
			"listings(uint256)": "de74e57b",
			"placeBid(uint256)": "9979ef45"
		}
	},
	"abi": [
		{
			"inputs": [
				{
					"internalType": "address",
					"name": "_initialOfferingAddress",
					"type": "address"
				}
			],
			"stateMutability": "nonpayable",
			"type": "constructor"
		},
		{
			"anonymous": false,
			"inputs": [
				{
					"indexed": true,
					"internalType": "uint256",
					"name": "listingId",
					"type": "uint256"
				},
				{
					"indexed": true,
					"internalType": "address",
					"name": "bidder",
					"type": "address"
				},
				{
					"indexed": false,
					"internalType": "uint256",
					"name": "bidAmount",
					"type": "uint256"
				}
			],
			"name": "BidPlaced",
			"type": "event"
		},
		{
			"anonymous": false,
			"inputs": [
				{
					"indexed": true,
					"internalType": "uint256",
					"name": "listingId",
					"type": "uint256"
				}
			],
			"name": "ListingCancelled",
			"type": "event"
		},
		{
			"anonymous": false,
			"inputs": [
				{
					"indexed": true,
					"internalType": "uint256",
					"name": "listingId",
					"type": "uint256"
				},
				{
					"indexed": false,
					"internalType": "bool",
					"name": "successful",
					"type": "bool"
				},
				{
					"indexed": false,
					"internalType": "address",
					"name": "winner",
					"type": "address"
				},
				{
					"indexed": false,
					"internalType": "uint256",
					"name": "amount",
					"type": "uint256"
				}
			],
			"name": "ListingCompleted",
			"type": "event"
		},
		{
			"anonymous": false,
			"inputs": [
				{
					"indexed": true,
					"internalType": "uint256",
					"name": "listingId",
					"type": "uint256"
				},
				{
					"indexed": true,
					"internalType": "uint256",
					"name": "assetId",
					"type": "uint256"
				},
				{
					"indexed": true,
					"internalType": "address",
					"name": "seller",
					"type": "address"
				},
				{
					"indexed": false,
					"internalType": "uint256",
					"name": "minPrice",
					"type": "uint256"
				},
				{
					"indexed": false,
					"internalType": "uint256",
					"name": "biddingEndTime",
					"type": "uint256"
				}
			],
			"name": "ListingCreated",
			"type": "event"
		},
		{
			"anonymous": false,
			"inputs": [
				{
					"indexed": true,
					"internalType": "uint256",
					"name": "assetId",
					"type": "uint256"
				},
				{
					"indexed": true,
					"internalType": "address",
					"name": "from",
					"type": "address"
				},
				{
					"indexed": true,
					"internalType": "address",
					"name": "to",
					"type": "address"
				}
			],
			"name": "OwnershipUpdated",
			"type": "event"
		},
		{
			"anonymous": false,
			"inputs": [
				{
					"indexed": true,
					"internalType": "address",
					"name": "bidder",
					"type": "address"
				},
				{
					"indexed": false,
					"internalType": "uint256",
					"name": "amount",
					"type": "uint256"
				}
			],
			"name": "RefundIssued",
			"type": "event"
		},
		{
			"inputs": [
				{
					"internalType": "uint256",
					"name": "_listingId",
					"type": "uint256"
				}
			],
			"name": "cancelListing",
			"outputs": [],
			"stateMutability": "nonpayable",
			"type": "function"
		},
		{
			"inputs": [
				{
					"internalType": "uint256",
					"name": "_assetId",
					"type": "uint256"
				},
				{
					"internalType": "uint256",
					"name": "_minPrice",
					"type": "uint256"
				},
				{
					"internalType": "uint256",
					"name": "_biddingDuration",
					"type": "uint256"
				}
			],
			"name": "createListing",
			"outputs": [],
			"stateMutability": "nonpayable",
			"type": "function"
		},
		{
			"inputs": [
				{
					"internalType": "uint256",
					"name": "_listingId",
					"type": "uint256"
				}
			],
			"name": "executeListing",
			"outputs": [],
			"stateMutability": "nonpayable",
			"type": "function"
		},
		{
			"inputs": [],
			"name": "getActiveListings",
			"outputs": [
				{
					"internalType": "uint256[]",
					"name": "listingIds",
					"type": "uint256[]"
				},
				{
					"internalType": "uint256[]",
					"name": "assetIds",
					"type": "uint256[]"
				},
				{
					"internalType": "address[]",
					"name": "sellers",
					"type": "address[]"
				},
				{
					"internalType": "uint256[]",
					"name": "minPrices",
					"type": "uint256[]"
				},
				{
					"internalType": "uint256[]",
					"name": "endTimes",
					"type": "uint256[]"
				}
			],
			"stateMutability": "view",
			"type": "function"
		},
		{
			"inputs": [
				{
					"internalType": "uint256",
					"name": "_assetId",
					"type": "uint256"
				}
			],
			"name": "getAssetOwners",
			"outputs": [
				{
					"internalType": "address[]",
					"name": "owners",
					"type": "address[]"
				},
				{
					"internalType": "uint256[]",
					"name": "shares",
					"type": "uint256[]"
				}
			],
			"stateMutability": "view",
			"type": "function"
		},
		{
			"inputs": [
				{
					"internalType": "uint256",
					"name": "_listingId",
					"type": "uint256"
				}
			],
			"name": "getListingBids",
			"outputs": [
				{
					"internalType": "address[]",
					"name": "bidders",
					"type": "address[]"
				},
				{
					"internalType": "uint256[]",
					"name": "amounts",
					"type": "uint256[]"
				}
			],
			"stateMutability": "view",
			"type": "function"
		},
		{
			"inputs": [
				{
					"internalType": "uint256",
					"name": "_listingId",
					"type": "uint256"
				}
			],
			"name": "getListingDetails",
			"outputs": [
				{
					"internalType": "uint256",
					"name": "assetId",
					"type": "uint256"
				},
				{
					"internalType": "address",
					"name": "seller",
					"type": "address"
				},
				{
					"internalType": "uint256",
					"name": "minPrice",
					"type": "uint256"
				},
				{
					"internalType": "bool",
					"name": "isActive",
					"type": "bool"
				},
				{
					"internalType": "bool",
					"name": "isCompleted",
					"type": "bool"
				}
			],
			"stateMutability": "view",
			"type": "function"
		},
		{
			"inputs": [
				{
					"internalType": "uint256",
					"name": "_assetId",
					"type": "uint256"
				},
				{
					"internalType": "address",
					"name": "_owner",
					"type": "address"
				}
			],
			"name": "getSharesOwned",
			"outputs": [
				{
					"internalType": "uint256",
					"name": "",
					"type": "uint256"
				}
			],
			"stateMutability": "view",
			"type": "function"
		},
		{
			"inputs": [],
			"name": "initialOfferingContract",
			"outputs": [
				{
					"internalType": "contract ILuxuryAssetOffering",
					"name": "",
					"type": "address"
				}
			],
			"stateMutability": "view",
			"type": "function"
		},
		{
			"inputs": [
				{
					"internalType": "uint256",
					"name": "_assetId",
					"type": "uint256"
				}
			],
			"name": "initializeAssetOwnership",
			"outputs": [],
			"stateMutability": "nonpayable",
			"type": "function"
		},
		{
			"inputs": [
				{
					"internalType": "uint256",
					"name": "",
					"type": "uint256"
				},
				{
					"internalType": "uint256",
					"name": "",
					"type": "uint256"
				}
			],
			"name": "listingBids",
			"outputs": [
				{
					"internalType": "address",
					"name": "bidder",
					"type": "address"
				},
				{
					"internalType": "uint256",
					"name": "bidAmount",
					"type": "uint256"
				},
				{
					"internalType": "bool",
					"name": "isActive",
					"type": "bool"
				}
			],
			"stateMutability": "view",
			"type": "function"
		},
		{
			"inputs": [],
			"name": "listingCount",
			"outputs": [
				{
					"internalType": "uint256",
					"name": "",
					"type": "uint256"
				}
			],
			"stateMutability": "view",
			"type": "function"
		},
		{
			"inputs": [
				{
					"internalType": "uint256",
					"name": "",
					"type": "uint256"
				}
			],
			"name": "listings",
			"outputs": [
				{
					"internalType": "uint256",
					"name": "assetId",
					"type": "uint256"
				},
				{
					"internalType": "address",
					"name": "seller",
					"type": "address"
				},
				{
					"internalType": "uint256",
					"name": "minPrice",
					"type": "uint256"
				},
				{
					"internalType": "bool",
					"name": "isActive",
					"type": "bool"
				},
				{
					"internalType": "bool",
					"name": "isCompleted",
					"type": "bool"
				}
			],
			"stateMutability": "view",
			"type": "function"
		},
		{
			"inputs": [
				{
					"internalType": "uint256",
					"name": "_listingId",
					"type": "uint256"
				}
			],
			"name": "placeBid",
			"outputs": [],
			"stateMutability": "payable",
			"type": "function"
		}
	]
}